{"contracts/CrossChainVerifier.sol":{"CrossChainVerifier":{"abi":[{"inputs":[{"internalType":"address","name":"_router","type":"address"},{"internalType":"address","name":"_link","type":"address"},{"internalType":"address","name":"_zkAggregator","type":"address"}],"stateMutability":"nonpayable","type":"constructor"},{"inputs":[{"internalType":"uint64","name":"destinationChainSelector","type":"uint64"}],"name":"DestinationChainNotAllowlisted","type":"error"},{"inputs":[{"internalType":"address","name":"owner","type":"address"},{"internalType":"address","name":"target","type":"address"},{"internalType":"uint256","name":"value","type":"uint256"}],"name":"FailedToWithdrawEth","type":"error"},{"inputs":[],"name":"InvalidProofData","type":"error"},{"inputs":[{"internalType":"address","name":"router","type":"address"}],"name":"InvalidRouter","type":"error"},{"inputs":[{"internalType":"uint256","name":"currentBalance","type":"uint256"},{"internalType":"uint256","name":"calculatedFees","type":"uint256"}],"name":"NotEnoughBalance","type":"error"},{"inputs":[],"name":"NothingToWithdraw","type":"error"},{"inputs":[{"internalType":"address","name":"sender","type":"address"}],"name":"SenderNotAllowlisted","type":"error"},{"inputs":[{"internalType":"uint64","name":"sourceChainSelector","type":"uint64"}],"name":"SourceChainNotAllowlisted","type":"error"},{"anonymous":false,"inputs":[{"indexed":true,"internalType":"bytes32","name":"messageId","type":"bytes32"},{"indexed":true,"internalType":"uint64","name":"sourceChainSelector","type":"uint64"},{"indexed":true,"internalType":"address","name":"sender","type":"address"},{"indexed":false,"internalType":"bytes32","name":"stateRoot","type":"bytes32"}],"name":"ProofReceivedCrossChain","type":"event"},{"anonymous":false,"inputs":[{"indexed":true,"internalType":"bytes32","name":"messageId","type":"bytes32"},{"indexed":true,"internalType":"uint64","name":"destinationChainSelector","type":"uint64"},{"indexed":true,"internalType":"address","name":"receiver","type":"address"},{"indexed":false,"internalType":"bytes32","name":"stateRoot","type":"bytes32"},{"indexed":false,"internalType":"uint256","name":"feesPaid","type":"uint256"}],"name":"ProofSentCrossChain","type":"event"},{"anonymous":false,"inputs":[{"indexed":true,"internalType":"bytes32","name":"stateRoot","type":"bytes32"},{"indexed":false,"internalType":"uint64","name":"sourceChain","type":"uint64"},{"indexed":false,"internalType":"bool","name":"isValid","type":"bool"}],"name":"StateRootVerified","type":"event"},{"inputs":[{"internalType":"uint64","name":"_destinationChainSelector","type":"uint64"},{"internalType":"bool","name":"allowed","type":"bool"}],"name":"allowlistDestinationChain","outputs":[],"stateMutability":"nonpayable","type":"function"},{"inputs":[{"internalType":"address","name":"_sender","type":"address"},{"internalType":"bool","name":"allowed","type":"bool"}],"name":"allowlistSender","outputs":[],"stateMutability":"nonpayable","type":"function"},{"inputs":[{"internalType":"uint64","name":"_sourceChainSelector","type":"uint64"},{"internalType":"bool","name":"allowed","type":"bool"}],"name":"allowlistSourceChain","outputs":[],"stateMutability":"nonpayable","type":"function"},{"inputs":[{"internalType":"uint64","name":"","type":"uint64"}],"name":"allowlistedDestinationChains","outputs":[{"internalType":"bool","name":"","type":"bool"}],"stateMutability":"view","type":"function"},{"inputs":[{"internalType":"address","name":"","type":"address"}],"name":"allowlistedSenders","outputs":[{"internalType":"bool","name":"","type":"bool"}],"stateMutability":"view","type":"function"},{"inputs":[{"internalType":"uint64","name":"","type":"uint64"}],"name":"allowlistedSourceChains","outputs":[{"internalType":"bool","name":"","type":"bool"}],"stateMutability":"view","type":"function"},{"inputs":[{"components":[{"internalType":"bytes32","name":"messageId","type":"bytes32"},{"internalType":"uint64","name":"sourceChainSelector","type":"uint64"},{"internalType":"bytes","name":"sender","type":"bytes"},{"internalType":"bytes","name":"data","type":"bytes"},{"components":[{"internalType":"address","name":"token","type":"address"},{"internalType":"uint256","name":"amount","type":"uint256"}],"internalType":"struct Client.EVMTokenAmount[]","name":"destTokenAmounts","type":"tuple[]"}],"internalType":"struct Client.Any2EVMMessage","name":"message","type":"tuple"}],"name":"ccipReceive","outputs":[],"stateMutability":"nonpayable","type":"function"},{"inputs":[],"name":"gasLimit","outputs":[{"internalType":"uint256","name":"","type":"uint256"}],"stateMutability":"view","type":"function"},{"inputs":[{"internalType":"bytes32","name":"proofId","type":"bytes32"}],"name":"getReceivedProof","outputs":[{"components":[{"internalType":"bytes32","name":"stateRoot","type":"bytes32"},{"internalType":"uint256","name":"blockNumber","type":"uint256"},{"internalType":"string","name":"sourceChain","type":"string"},{"internalType":"bytes","name":"zkProof","type":"bytes"},{"internalType":"bytes","name":"publicInputs","type":"bytes"},{"internalType":"uint256","name":"timestamp","type":"uint256"}],"internalType":"struct CrossChainVerifier.CrossChainProof","name":"","type":"tuple"}],"stateMutability":"view","type":"function"},{"inputs":[],"name":"getRouter","outputs":[{"internalType":"address","name":"","type":"address"}],"stateMutability":"view","type":"function"},{"inputs":[{"internalType":"bytes32","name":"stateRoot","type":"bytes32"}],"name":"isCrossChainStateVerified","outputs":[{"internalType":"bool","name":"","type":"bool"}],"stateMutability":"view","type":"function"},{"inputs":[],"name":"owner","outputs":[{"internalType":"address","name":"","type":"address"}],"stateMutability":"view","type":"function"},{"inputs":[{"internalType":"bytes32","name":"","type":"bytes32"}],"name":"receivedProofs","outputs":[{"internalType":"bytes32","name":"stateRoot","type":"bytes32"},{"internalType":"uint256","name":"blockNumber","type":"uint256"},{"internalType":"string","name":"sourceChain","type":"string"},{"internalType":"bytes","name":"zkProof","type":"bytes"},{"internalType":"bytes","name":"publicInputs","type":"bytes"},{"internalType":"uint256","name":"timestamp","type":"uint256"}],"stateMutability":"view","type":"function"},{"inputs":[{"internalType":"string","name":"sourceChain","type":"string"},{"internalType":"uint256","name":"blockNumber","type":"uint256"}],"name":"requestCrossChainVerification","outputs":[{"internalType":"uint256","name":"requestId","type":"uint256"}],"stateMutability":"nonpayable","type":"function"},{"inputs":[{"internalType":"uint64","name":"destinationChainSelector","type":"uint64"},{"internalType":"address","name":"receiver","type":"address"},{"internalType":"bytes32","name":"stateRoot","type":"bytes32"},{"internalType":"bytes","name":"zkProof","type":"bytes"},{"internalType":"bytes","name":"publicInputs","type":"bytes"},{"internalType":"uint256","name":"blockNumber","type":"uint256"},{"internalType":"string","name":"sourceChain","type":"string"}],"name":"sendProofCrossChain","outputs":[{"internalType":"bytes32","name":"messageId","type":"bytes32"}],"stateMutability":"nonpayable","type":"function"},{"inputs":[{"internalType":"uint256","name":"_gasLimit","type":"uint256"}],"name":"setGasLimit","outputs":[],"stateMutability":"nonpayable","type":"function"},{"inputs":[{"internalType":"address","name":"_zkAggregator","type":"address"}],"name":"setZKAggregator","outputs":[],"stateMutability":"nonpayable","type":"function"},{"inputs":[{"internalType":"bytes4","name":"interfaceId","type":"bytes4"}],"name":"supportsInterface","outputs":[{"internalType":"bool","name":"","type":"bool"}],"stateMutability":"view","type":"function"},{"inputs":[{"internalType":"bytes32","name":"","type":"bytes32"}],"name":"verifiedCrossChainStates","outputs":[{"internalType":"bool","name":"","type":"bool"}],"stateMutability":"view","type":"function"},{"inputs":[{"internalType":"address","name":"_beneficiary","type":"address"}],"name":"withdraw","outputs":[],"stateMutability":"nonpayable","type":"function"},{"inputs":[{"internalType":"address","name":"_beneficiary","type":"address"},{"internalType":"address","name":"_token","type":"address"}],"name":"withdrawToken","outputs":[],"stateMutability":"nonpayable","type":"function"},{"stateMutability":"payable","type":"receive"}],"evm":{"bytecode":{"linkReferences":{},"object":"60a034620000f457601f62001c6038819003918201601f19168301916001600160401b03831184841017620000f957808492606094604052833981010312620000f4576200004d816200010f565b62000069604062000061602085016200010f565b93016200010f565b6001600160a01b03828116939092908415620000db5783916080526207a12060095560018060a01b031994338660085416176008558560005416176000551683600154161760015516906002541617600255604051611b3b908162000125823960805181818161076a015261092e0152f35b6040516335fdcccd60e21b815260006004820152602490fd5b600080fd5b634e487b7160e01b600052604160045260246000fd5b51906001600160a01b0382168203620000f45756fe608080604052600436101561001d575b50361561001b57600080fd5b005b60003560e01c90816301ffc9a7146115515750806311d7360e1461148a5780631aa085e91461115e57806339e69b9e146114395780633aeac4e1146112965780634030d5211461125757806351cff8d9146111ce5780636159ada11461118f5780636592a3971461115e5780637022a6561461109f57806375c67c661461106057806385572ffb146108fc5780638da5cb5b146108d357806396d3b83d146108725780639eda123314610799578063b0f479a114610754578063c3b0b10014610221578063db04fa49146101c0578063eab5b02c14610162578063ee7d72b4146101345763f68016b714610111573861000f565b3461012f57600036600319011261012f576020600954604051908152f35b600080fd5b3461012f57602036600319011261012f5761015a60018060a01b0360085416331461184e565b600435600955005b3461012f57604036600319011261012f5761001b61017e61172e565b6101866117d2565b60085490916001600160a01b03916101a1908316331461184e565b16600052600560205260406000209060ff801983541691151516179055565b3461012f57604036600319011261012f5761001b6101dc61175a565b6001600160401b036101ec6117d2565b9161020260018060a01b0360085416331461184e565b16600052600460205260406000209060ff801983541691151516179055565b3461012f5760e036600319011261012f5761023a61175a565b610242611744565b6001600160401b039160643583811161012f5761026390369060040161178b565b9160843584811161012f5761027c90369060040161178b565b9260c43585811161012f5761029590369060040161178b565b858416600052600360205260ff604060002054161561073a5760025460405163a9431f2360e01b8152604435600482015290602090829060249082906001600160a01b03165afa9081156105a25760009161071b575b50156106d657610337946103459260405192610306846116aa565b604435845260a43560208501526040840152606083015260808201524260a0820152604051948591602083016117e1565b03601f1981018552846116c5565b6040516001600160a01b0382166020808301919091528152906103678261168f565b60405160208101818110878211176106c05760405260008152600954946040519560208701878110898211176106c0576040528652604051956397a657c960e01b602088015251602487015260248652856060810110876060880111176106c0576060860160408190526001546001600160a01b031694906103e890611674565b6060870152608086015260a08501528160c08501528360e081015260018060a01b036000541691604051926320487ded60e01b84526020848061043260608a0189600484016118d3565b0381845afa9384156105a25760009461068c575b506040516370a0823160e01b8152306004820152602081602481865afa9081156105a25760009161065a575b5084116105db5760405163095ea7b360e01b81526001600160a01b039190911660048201526024810184905290602090829060449082906000905af180156105a2576104f0956020926060926105ae575b5060018060a01b03600054169060006040518099819582946396f4e9f960e01b8452018a600484016118d3565b03925af19384156105a25760009461054c575b507fd24d011fd9cc44c10f59cd2aa572f402b8a52354aaec6a751f004bfd026e721f6040602096869382519560443587528987015260018060a01b0316951693a4604051908152f35b9493506020853d60201161059a575b81610568602093836116c5565b8101031261012f57935192937fd24d011fd9cc44c10f59cd2aa572f402b8a52354aaec6a751f004bfd026e721f610503565b3d915061055b565b6040513d6000823e3d90fd5b6105cd90843d86116105d4575b6105c581836116c5565b8101906118bb565b50886104c3565b503d6105bb565b6040516370a0823160e01b815230600482015284602082602481875afa9081156105a257600091610625575b6044925060405191634787a10360e11b835260048301526024820152fd5b90506020823d602011610652575b81610640602093836116c5565b8101031261012f576044915190610607565b3d9150610633565b90506020813d602011610684575b81610675602093836116c5565b8101031261012f575188610472565b3d9150610668565b9093506020813d6020116106b8575b816106a8602093836116c5565b8101031261012f57519287610446565b3d915061069b565b634e487b7160e01b600052604160045260246000fd5b60405162461bcd60e51b815260206004820152601a60248201527f5374617465206e6f74207665726966696564206c6f63616c6c790000000000006044820152606490fd5b610734915060203d6020116105d4576105c581836116c5565b876102eb565b604051630a503cdb60e01b81528685166004820152602490fd5b3461012f57600036600319011261012f576040517f00000000000000000000000000000000000000000000000000000000000000006001600160a01b03168152602090f35b3461012f57602036600319011261012f57600060a06040516107ba816116aa565b82815282602082015260606040820152606080820152606060808201520152600435600052600660205261086e60406000206005604051916107fb836116aa565b80548352600181015460208401526040516108248161081d81600286016115de565b03826116c5565b604084015260405161083d8161081d81600386016115de565b60608401526040516108568161081d81600486016115de565b6080840152015460a0820152604051918291826117e1565b0390f35b3461012f57604036600319011261012f5761001b61088e61175a565b6001600160401b0361089e6117d2565b916108b460018060a01b0360085416331461184e565b16600052600360205260406000209060ff801983541691151516179055565b3461012f57600036600319011261012f576008546040516001600160a01b039091168152602090f35b3461012f5760031960203682011261012f57600435906001600160401b03821161012f5760a090823603011261012f577f00000000000000000000000000000000000000000000000000000000000000006001600160a01b03163303611048576040519061096982611674565b8060040135825260248101356001600160401b038116810361012f57602083015260448101356001600160401b03811161012f576109ad906004369184010161178b565b604083015260648101356001600160401b03811161012f576109d5906004369184010161178b565b90606083019182526084810135906001600160401b03821161012f57013660238201121561012f5760048101356001600160401b0381116106c05760405191610a2460208360051b01846116c5565b8183526024602084019260061b8201019036821161012f57602401915b8183106110035750505060808301526001600160401b036020830151166040830151610a7d60018060a01b0391602080825183010191016119a2565b169080600052600460205260ff6040600020541615610feb575080600052600560205260ff6040600020541615610fd35750518051810190602082019060208184031261012f5760208101516001600160401b03811161012f5760c091018093031261012f5760405191610af0836116aa565b602081015183526040810151916020840192835260608201516001600160401b03811161012f57820181603f8201121561012f57818160406020610b3794015191016119c1565b916040850192835260808101516001600160401b03811161012f57826020610b61928401016119f8565b606086015260a08101516001600160401b03811161012f5760c0926020610b8a928401016119f8565b6080860152015160a08401528251158015610fc6575b610fb45782518251610be56060845192604051938491602083019687526040830152610bd581518092602086860191016116e6565b81010360408101845201826116c5565b519020600052600660205260406000209183518355516001830155519283516001600160401b0381116106c057610c2c81610c2360028601546115a4565b60028601611a12565b6020601f8211600114610f45578190610c5f93949596600092610ecb575b50508160011b916000199060031b1c19161790565b60028301555b60608301519283516001600160401b0381116106c057610c9581610c8c60038701546115a4565b60038701611a12565b6020601f8211600114610ed6578190610cc793949596600092610ecb5750508160011b916000199060031b1c19161790565b60038401555b60808101519283516001600160401b0381116106c057610cfd81610cf460048501546115a4565b60048501611a12565b6020601f8211600114610e3657816040949392610d53927f638c579281e44698e0cc287aa3ad3ce7a456e85d1a9ffb7746036276209777e89798600092610e2b5750508160011b916000199060031b1c19161790565b60048201555b600560a083015191015560608101515115159081610e1c575b81610e11575b60206001600160401b039183610df4575b8651838389015116610da6878a01518580825183010191016119a2565b835188519081526001600160a01b0390911692907f64d3b1ca9f4857519ff113b7722b497c8b83d396da9eeb756425d852abd7b15b908690a4519501511690825191825215156020820152a2005b80516000526007825284600020600160ff19825416179055610d89565b805115159150610d78565b60808101515115159150610d72565b015190508880610c4a565b6004830160005260206000209560005b601f1984168110610eb35750917f638c579281e44698e0cc287aa3ad3ce7a456e85d1a9ffb7746036276209777e89596600192604096959483601f19811610610e9a575b505050811b016004820155610d59565b015160001960f88460031b161c19169055878080610e8a565b82820151885560019097019660209283019201610e46565b015190508680610c4a565b6003850160005260206000209060005b601f1984168110610f2d575060019394959683601f19811610610f14575b505050811b016003840155610ccd565b015160001960f88460031b161c19169055858080610f04565b9091602060018192858b015181550193019101610ee6565b6002840160005260206000209060005b601f1984168110610f9c575060019394959683601f19811610610f83575b505050811b016002830155610c65565b015160001960f88460031b161c19169055858080610f73565b9091602060018192858b015181550193019101610f55565b6040516371f4a19360e11b8152600490fd5b5060608301515115610ba0565b602490604051906338c08ef960e11b82526004820152fd5b602490604051906326bfad9160e21b82526004820152fd5b60408336031261012f576040519061101a8261168f565b8335906001600160a01b038216820361012f5782602092604094528286013583820152815201920191610a41565b6040516335fdcccd60e21b8152336004820152602490fd5b3461012f57602036600319011261012f576001600160401b0361108161175a565b166000526003602052602060ff604060002054166040519015158152f35b3461012f57604036600319011261012f576004356001600160401b03811161012f5760206111066110d6600093369060040161178b565b60018060a01b036002541690604051948580948193632bf7f01960e11b8352604060048401526044830190611709565b602435602483015203925af180156105a25760009061112b575b602090604051908152f35b506020813d602011611156575b81611145602093836116c5565b8101031261012f5760209051611120565b3d9150611138565b3461012f57602036600319011261012f576004356000526007602052602060ff604060002054166040519015158152f35b3461012f57602036600319011261012f576001600160a01b036111b061172e565b166000526005602052602060ff604060002054166040519015158152f35b3461012f57602036600319011261012f576111e761172e565b6008546001600160a01b039190611201908316331461184e565b47801561124557600080808084865af161121961188b565b501561122157005b60649260405192639d11f56360e01b84523360048501521660248301526044820152fd5b604051630686827b60e51b8152600490fd5b3461012f57602036600319011261012f576001600160401b0361127861175a565b166000526004602052602060ff604060002054166040519015158152f35b3461012f57604036600319011261012f576112af61172e565b6112b7611744565b6008546001600160a01b0391906112d1908316331461184e565b16906040516370a0823160e01b81523060048201526020928382602481845afa9182156105a25760009261140a575b5081156112455760405163a9059cbb60e01b8582019081526001600160a01b039490941660248201526044808201939093529182526113929260009081906113496064866116c5565b604051946113568661168f565b8786527f5361666545524332303a206c6f772d6c6576656c2063616c6c206661696c656488870152519082855af161138c61188b565b91611a68565b8051908161139c57005b82806113ac9383010191016118bb565b156113b357005b6084906040519062461bcd60e51b82526004820152602a60248201527f5361666545524332303a204552433230206f7065726174696f6e20646964206e6044820152691bdd081cdd58d8d9595960b21b6064820152fd5b9091508381813d8311611432575b61142281836116c5565b8101031261012f57519084611300565b503d611418565b3461012f57602036600319011261012f5761145261172e565b6008546001600160a01b03919061146c908316331461184e565b166bffffffffffffffffffffffff60a01b6002541617600255600080f35b3461012f57602036600319011261012f57600435600052600660205260406000208054600182015491611547604051916114d2836114cb81600285016115de565b03846116c5565b6115396040516114e98161081d81600387016115de565b61152b60056040519461150a8661150381600485016115de565b03876116c5565b0154956040519889988952602089015260c0604089015260c0880190611709565b908682036060880152611709565b908482036080860152611709565b9060a08301520390f35b3461012f57602036600319011261012f576004359063ffffffff60e01b821680920361012f576020916385572ffb60e01b8114908115611593575b5015158152f35b6301ffc9a760e01b1490508361158c565b90600182811c921680156115d4575b60208310146115be57565b634e487b7160e01b600052602260045260246000fd5b91607f16916115b3565b8054600093926115ed826115a4565b918282526020936001916001811690816000146116555750600114611614575b5050505050565b90939495506000929192528360002092846000945b8386106116415750505050010190388080808061160d565b805485870183015294019385908201611629565b60ff19168685015250505090151560051b01019150388080808061160d565b60a081019081106001600160401b038211176106c057604052565b604081019081106001600160401b038211176106c057604052565b60c081019081106001600160401b038211176106c057604052565b90601f801991011681019081106001600160401b038211176106c057604052565b60005b8381106116f95750506000910152565b81810151838201526020016116e9565b90602091611722815180928185528580860191016116e6565b601f01601f1916010190565b600435906001600160a01b038216820361012f57565b602435906001600160a01b038216820361012f57565b600435906001600160401b038216820361012f57565b6001600160401b0381116106c057601f01601f191660200190565b81601f8201121561012f578035906117a282611770565b926117b060405194856116c5565b8284526020838301011161012f57816000926020809301838601378301015290565b60243590811515820361012f57565b60208152815160208201526020820151604082015260c060a0611845611815604086015184606087015260e0860190611709565b611831606087015191601f199283888303016080890152611709565b906080870151908683030184870152611709565b93015191015290565b1561185557565b60405162461bcd60e51b815260206004820152600e60248201526d139bdd08185d5d1a1bdc9a5e995960921b6044820152606490fd5b3d156118b6573d9061189c82611770565b916118aa60405193846116c5565b82523d6000602084013e565b606090565b9081602091031261012f5751801515810361012f5790565b909291926001600160401b03604091168252602091604083820152611904855160a0604084015260e0830190611709565b916119208487015193603f199485858303016060860152611709565b604087015194848483030160808501528080875193848152019601926000905b83821061197957505050505060c06080611976959660018060a01b0360608201511660a085015201519282850301910152611709565b90565b845180516001600160a01b03168952830151888401529687019693820193600190910190611940565b9081602091031261012f57516001600160a01b038116810361012f5790565b909291926119ce81611770565b916119dc60405193846116c5565b82948284528282011161012f5760206119f69301906116e6565b565b9080601f8301121561012f578151611976926020016119c1565b90601f8111611a2057505050565b6000916000526020600020906020601f850160051c83019410611a5e575b601f0160051c01915b828110611a5357505050565b818155600101611a47565b9092508290611a3e565b91929015611aca5750815115611a7c575090565b3b15611a855790565b60405162461bcd60e51b815260206004820152601d60248201527f416464726573733a2063616c6c20746f206e6f6e2d636f6e74726163740000006044820152606490fd5b825190915015611add5750805190602001fd5b60405162461bcd60e51b815260206004820152908190611b01906024830190611709565b0390fdfea26469706673582212204fbd8a3ed99023ff27eef03631a0eee80939b57fd09c244ba70218c4c311630a64736f6c63430008180033","opcodes":"PUSH1 0xA0 CALLVALUE PUSH3 0xF4 JUMPI PUSH1 0x1F PUSH3 0x1C60 CODESIZE DUP2 SWAP1 SUB SWAP2 DUP3 ADD PUSH1 0x1F NOT AND DUP4 ADD SWAP2 PUSH1 0x1 PUSH1 0x1 PUSH1 0x40 SHL SUB DUP4 GT DUP5 DUP5 LT OR PUSH3 0xF9 JUMPI DUP1 DUP5 SWAP3 PUSH1 0x60 SWAP5 PUSH1 0x40 MSTORE DUP4 CODECOPY DUP2 ADD SUB SLT PUSH3 0xF4 JUMPI PUSH3 0x4D DUP2 PUSH3 0x10F JUMP JUMPDEST PUSH3 0x69 PUSH1 0x40 PUSH3 0x61 PUSH1 0x20 DUP6 ADD PUSH3 0x10F JUMP JUMPDEST SWAP4 ADD PUSH3 0x10F JUMP JUMPDEST PUSH1 0x1 PUSH1 0x1 PUSH1 0xA0 SHL SUB DUP3 DUP2 AND SWAP4 SWAP1 SWAP3 SWAP1 DUP5 ISZERO PUSH3 0xDB JUMPI DUP4 SWAP2 PUSH1 0x80 MSTORE PUSH3 0x7A120 PUSH1 0x9 SSTORE PUSH1 0x1 DUP1 PUSH1 0xA0 SHL SUB NOT SWAP5 CALLER DUP7 PUSH1 0x8 SLOAD AND OR PUSH1 0x8 SSTORE DUP6 PUSH1 0x0 SLOAD AND OR PUSH1 0x0 SSTORE AND DUP4 PUSH1 0x1 SLOAD AND OR PUSH1 0x1 SSTORE AND SWAP1 PUSH1 0x2 SLOAD AND OR PUSH1 0x2 SSTORE PUSH1 0x40 MLOAD PUSH2 0x1B3B SWAP1 DUP2 PUSH3 0x125 DUP3 CODECOPY PUSH1 0x80 MLOAD DUP2 DUP2 DUP2 PUSH2 0x76A ADD MSTORE PUSH2 0x92E ADD MSTORE RETURN JUMPDEST PUSH1 0x40 MLOAD PUSH4 0x35FDCCCD PUSH1 0xE2 SHL DUP2 MSTORE PUSH1 0x0 PUSH1 0x4 DUP3 ADD MSTORE PUSH1 0x24 SWAP1 REVERT JUMPDEST PUSH1 0x0 DUP1 REVERT JUMPDEST PUSH4 0x4E487B71 PUSH1 0xE0 SHL PUSH1 0x0 MSTORE PUSH1 0x41 PUSH1 0x4 MSTORE PUSH1 0x24 PUSH1 0x0 REVERT JUMPDEST MLOAD SWAP1 PUSH1 0x1 PUSH1 0x1 PUSH1 0xA0 SHL SUB DUP3 AND DUP3 SUB PUSH3 0xF4 JUMPI JUMP INVALID PUSH1 0x80 DUP1 PUSH1 0x40 MSTORE PUSH1 0x4 CALLDATASIZE LT ISZERO PUSH2 0x1D JUMPI JUMPDEST POP CALLDATASIZE ISZERO PUSH2 0x1B JUMPI PUSH1 0x0 DUP1 REVERT JUMPDEST STOP JUMPDEST PUSH1 0x0 CALLDATALOAD PUSH1 0xE0 SHR SWAP1 DUP2 PUSH4 0x1FFC9A7 EQ PUSH2 0x1551 JUMPI POP DUP1 PUSH4 0x11D7360E EQ PUSH2 0x148A JUMPI DUP1 PUSH4 0x1AA085E9 EQ PUSH2 0x115E JUMPI DUP1 PUSH4 0x39E69B9E EQ PUSH2 0x1439 JUMPI DUP1 PUSH4 0x3AEAC4E1 EQ PUSH2 0x1296 JUMPI DUP1 PUSH4 0x4030D521 EQ PUSH2 0x1257 JUMPI DUP1 PUSH4 0x51CFF8D9 EQ PUSH2 0x11CE JUMPI DUP1 PUSH4 0x6159ADA1 EQ PUSH2 0x118F JUMPI DUP1 PUSH4 0x6592A397 EQ PUSH2 0x115E JUMPI DUP1 PUSH4 0x7022A656 EQ PUSH2 0x109F JUMPI DUP1 PUSH4 0x75C67C66 EQ PUSH2 0x1060 JUMPI DUP1 PUSH4 0x85572FFB EQ PUSH2 0x8FC JUMPI DUP1 PUSH4 0x8DA5CB5B EQ PUSH2 0x8D3 JUMPI DUP1 PUSH4 0x96D3B83D EQ PUSH2 0x872 JUMPI DUP1 PUSH4 0x9EDA1233 EQ PUSH2 0x799 JUMPI DUP1 PUSH4 0xB0F479A1 EQ PUSH2 0x754 JUMPI DUP1 PUSH4 0xC3B0B100 EQ PUSH2 0x221 JUMPI DUP1 PUSH4 0xDB04FA49 EQ PUSH2 0x1C0 JUMPI DUP1 PUSH4 0xEAB5B02C EQ PUSH2 0x162 JUMPI DUP1 PUSH4 0xEE7D72B4 EQ PUSH2 0x134 JUMPI PUSH4 0xF68016B7 EQ PUSH2 0x111 JUMPI CODESIZE PUSH2 0xF JUMP JUMPDEST CALLVALUE PUSH2 0x12F JUMPI PUSH1 0x0 CALLDATASIZE PUSH1 0x3 NOT ADD SLT PUSH2 0x12F JUMPI PUSH1 0x20 PUSH1 0x9 SLOAD PUSH1 0x40 MLOAD SWAP1 DUP2 MSTORE RETURN JUMPDEST PUSH1 0x0 DUP1 REVERT JUMPDEST CALLVALUE PUSH2 0x12F JUMPI PUSH1 0x20 CALLDATASIZE PUSH1 0x3 NOT ADD SLT PUSH2 0x12F JUMPI PUSH2 0x15A PUSH1 0x1 DUP1 PUSH1 0xA0 SHL SUB PUSH1 0x8 SLOAD AND CALLER EQ PUSH2 0x184E JUMP JUMPDEST PUSH1 0x4 CALLDATALOAD PUSH1 0x9 SSTORE STOP JUMPDEST CALLVALUE PUSH2 0x12F JUMPI PUSH1 0x40 CALLDATASIZE PUSH1 0x3 NOT ADD SLT PUSH2 0x12F JUMPI PUSH2 0x1B PUSH2 0x17E PUSH2 0x172E JUMP JUMPDEST PUSH2 0x186 PUSH2 0x17D2 JUMP JUMPDEST PUSH1 0x8 SLOAD SWAP1 SWAP2 PUSH1 0x1 PUSH1 0x1 PUSH1 0xA0 SHL SUB SWAP2 PUSH2 0x1A1 SWAP1 DUP4 AND CALLER EQ PUSH2 0x184E JUMP JUMPDEST AND PUSH1 0x0 MSTORE PUSH1 0x5 PUSH1 0x20 MSTORE PUSH1 0x40 PUSH1 0x0 KECCAK256 SWAP1 PUSH1 0xFF DUP1 NOT DUP4 SLOAD AND SWAP2 ISZERO ISZERO AND OR SWAP1 SSTORE JUMP JUMPDEST CALLVALUE PUSH2 0x12F JUMPI PUSH1 0x40 CALLDATASIZE PUSH1 0x3 NOT ADD SLT PUSH2 0x12F JUMPI PUSH2 0x1B PUSH2 0x1DC PUSH2 0x175A JUMP JUMPDEST PUSH1 0x1 PUSH1 0x1 PUSH1 0x40 SHL SUB PUSH2 0x1EC PUSH2 0x17D2 JUMP JUMPDEST SWAP2 PUSH2 0x202 PUSH1 0x1 DUP1 PUSH1 0xA0 SHL SUB PUSH1 0x8 SLOAD AND CALLER EQ PUSH2 0x184E JUMP JUMPDEST AND PUSH1 0x0 MSTORE PUSH1 0x4 PUSH1 0x20 MSTORE PUSH1 0x40 PUSH1 0x0 KECCAK256 SWAP1 PUSH1 0xFF DUP1 NOT DUP4 SLOAD AND SWAP2 ISZERO ISZERO AND OR SWAP1 SSTORE JUMP JUMPDEST CALLVALUE PUSH2 0x12F JUMPI PUSH1 0xE0 CALLDATASIZE PUSH1 0x3 NOT ADD SLT PUSH2 0x12F JUMPI PUSH2 0x23A PUSH2 0x175A JUMP JUMPDEST PUSH2 0x242 PUSH2 0x1744 JUMP JUMPDEST PUSH1 0x1 PUSH1 0x1 PUSH1 0x40 SHL SUB SWAP2 PUSH1 0x64 CALLDATALOAD DUP4 DUP2 GT PUSH2 0x12F JUMPI PUSH2 0x263 SWAP1 CALLDATASIZE SWAP1 PUSH1 0x4 ADD PUSH2 0x178B JUMP JUMPDEST SWAP2 PUSH1 0x84 CALLDATALOAD DUP5 DUP2 GT PUSH2 0x12F JUMPI PUSH2 0x27C SWAP1 CALLDATASIZE SWAP1 PUSH1 0x4 ADD PUSH2 0x178B JUMP JUMPDEST SWAP3 PUSH1 0xC4 CALLDATALOAD DUP6 DUP2 GT PUSH2 0x12F JUMPI PUSH2 0x295 SWAP1 CALLDATASIZE SWAP1 PUSH1 0x4 ADD PUSH2 0x178B JUMP JUMPDEST DUP6 DUP5 AND PUSH1 0x0 MSTORE PUSH1 0x3 PUSH1 0x20 MSTORE PUSH1 0xFF PUSH1 0x40 PUSH1 0x0 KECCAK256 SLOAD AND ISZERO PUSH2 0x73A JUMPI PUSH1 0x2 SLOAD PUSH1 0x40 MLOAD PUSH4 0xA9431F23 PUSH1 0xE0 SHL DUP2 MSTORE PUSH1 0x44 CALLDATALOAD PUSH1 0x4 DUP3 ADD MSTORE SWAP1 PUSH1 0x20 SWAP1 DUP3 SWAP1 PUSH1 0x24 SWAP1 DUP3 SWAP1 PUSH1 0x1 PUSH1 0x1 PUSH1 0xA0 SHL SUB AND GAS STATICCALL SWAP1 DUP2 ISZERO PUSH2 0x5A2 JUMPI PUSH1 0x0 SWAP2 PUSH2 0x71B JUMPI JUMPDEST POP ISZERO PUSH2 0x6D6 JUMPI PUSH2 0x337 SWAP5 PUSH2 0x345 SWAP3 PUSH1 0x40 MLOAD SWAP3 PUSH2 0x306 DUP5 PUSH2 0x16AA JUMP JUMPDEST PUSH1 0x44 CALLDATALOAD DUP5 MSTORE PUSH1 0xA4 CALLDATALOAD PUSH1 0x20 DUP6 ADD MSTORE PUSH1 0x40 DUP5 ADD MSTORE PUSH1 0x60 DUP4 ADD MSTORE PUSH1 0x80 DUP3 ADD MSTORE TIMESTAMP PUSH1 0xA0 DUP3 ADD MSTORE PUSH1 0x40 MLOAD SWAP5 DUP6 SWAP2 PUSH1 0x20 DUP4 ADD PUSH2 0x17E1 JUMP JUMPDEST SUB PUSH1 0x1F NOT DUP2 ADD DUP6 MSTORE DUP5 PUSH2 0x16C5 JUMP JUMPDEST PUSH1 0x40 MLOAD PUSH1 0x1 PUSH1 0x1 PUSH1 0xA0 SHL SUB DUP3 AND PUSH1 0x20 DUP1 DUP4 ADD SWAP2 SWAP1 SWAP2 MSTORE DUP2 MSTORE SWAP1 PUSH2 0x367 DUP3 PUSH2 0x168F JUMP JUMPDEST PUSH1 0x40 MLOAD PUSH1 0x20 DUP2 ADD DUP2 DUP2 LT DUP8 DUP3 GT OR PUSH2 0x6C0 JUMPI PUSH1 0x40 MSTORE PUSH1 0x0 DUP2 MSTORE PUSH1 0x9 SLOAD SWAP5 PUSH1 0x40 MLOAD SWAP6 PUSH1 0x20 DUP8 ADD DUP8 DUP2 LT DUP10 DUP3 GT OR PUSH2 0x6C0 JUMPI PUSH1 0x40 MSTORE DUP7 MSTORE PUSH1 0x40 MLOAD SWAP6 PUSH4 0x97A657C9 PUSH1 0xE0 SHL PUSH1 0x20 DUP9 ADD MSTORE MLOAD PUSH1 0x24 DUP8 ADD MSTORE PUSH1 0x24 DUP7 MSTORE DUP6 PUSH1 0x60 DUP2 ADD LT DUP8 PUSH1 0x60 DUP9 ADD GT OR PUSH2 0x6C0 JUMPI PUSH1 0x60 DUP7 ADD PUSH1 0x40 DUP2 SWAP1 MSTORE PUSH1 0x1 SLOAD PUSH1 0x1 PUSH1 0x1 PUSH1 0xA0 SHL SUB AND SWAP5 SWAP1 PUSH2 0x3E8 SWAP1 PUSH2 0x1674 JUMP JUMPDEST PUSH1 0x60 DUP8 ADD MSTORE PUSH1 0x80 DUP7 ADD MSTORE PUSH1 0xA0 DUP6 ADD MSTORE DUP2 PUSH1 0xC0 DUP6 ADD MSTORE DUP4 PUSH1 0xE0 DUP2 ADD MSTORE PUSH1 0x1 DUP1 PUSH1 0xA0 SHL SUB PUSH1 0x0 SLOAD AND SWAP2 PUSH1 0x40 MLOAD SWAP3 PUSH4 0x20487DED PUSH1 0xE0 SHL DUP5 MSTORE PUSH1 0x20 DUP5 DUP1 PUSH2 0x432 PUSH1 0x60 DUP11 ADD DUP10 PUSH1 0x4 DUP5 ADD PUSH2 0x18D3 JUMP JUMPDEST SUB DUP2 DUP5 GAS STATICCALL SWAP4 DUP5 ISZERO PUSH2 0x5A2 JUMPI PUSH1 0x0 SWAP5 PUSH2 0x68C JUMPI JUMPDEST POP PUSH1 0x40 MLOAD PUSH4 0x70A08231 PUSH1 0xE0 SHL DUP2 MSTORE ADDRESS PUSH1 0x4 DUP3 ADD MSTORE PUSH1 0x20 DUP2 PUSH1 0x24 DUP2 DUP7 GAS STATICCALL SWAP1 DUP2 ISZERO PUSH2 0x5A2 JUMPI PUSH1 0x0 SWAP2 PUSH2 0x65A JUMPI JUMPDEST POP DUP5 GT PUSH2 0x5DB JUMPI PUSH1 0x40 MLOAD PUSH4 0x95EA7B3 PUSH1 0xE0 SHL DUP2 MSTORE PUSH1 0x1 PUSH1 0x1 PUSH1 0xA0 SHL SUB SWAP2 SWAP1 SWAP2 AND PUSH1 0x4 DUP3 ADD MSTORE PUSH1 0x24 DUP2 ADD DUP5 SWAP1 MSTORE SWAP1 PUSH1 0x20 SWAP1 DUP3 SWAP1 PUSH1 0x44 SWAP1 DUP3 SWAP1 PUSH1 0x0 SWAP1 GAS CALL DUP1 ISZERO PUSH2 0x5A2 JUMPI PUSH2 0x4F0 SWAP6 PUSH1 0x20 SWAP3 PUSH1 0x60 SWAP3 PUSH2 0x5AE JUMPI JUMPDEST POP PUSH1 0x1 DUP1 PUSH1 0xA0 SHL SUB PUSH1 0x0 SLOAD AND SWAP1 PUSH1 0x0 PUSH1 0x40 MLOAD DUP1 SWAP10 DUP2 SWAP6 DUP3 SWAP5 PUSH4 0x96F4E9F9 PUSH1 0xE0 SHL DUP5 MSTORE ADD DUP11 PUSH1 0x4 DUP5 ADD PUSH2 0x18D3 JUMP JUMPDEST SUB SWAP3 GAS CALL SWAP4 DUP5 ISZERO PUSH2 0x5A2 JUMPI PUSH1 0x0 SWAP5 PUSH2 0x54C JUMPI JUMPDEST POP PUSH32 0xD24D011FD9CC44C10F59CD2AA572F402B8A52354AAEC6A751F004BFD026E721F PUSH1 0x40 PUSH1 0x20 SWAP7 DUP7 SWAP4 DUP3 MLOAD SWAP6 PUSH1 0x44 CALLDATALOAD DUP8 MSTORE DUP10 DUP8 ADD MSTORE PUSH1 0x1 DUP1 PUSH1 0xA0 SHL SUB AND SWAP6 AND SWAP4 LOG4 PUSH1 0x40 MLOAD SWAP1 DUP2 MSTORE RETURN JUMPDEST SWAP5 SWAP4 POP PUSH1 0x20 DUP6 RETURNDATASIZE PUSH1 0x20 GT PUSH2 0x59A JUMPI JUMPDEST DUP2 PUSH2 0x568 PUSH1 0x20 SWAP4 DUP4 PUSH2 0x16C5 JUMP JUMPDEST DUP2 ADD SUB SLT PUSH2 0x12F JUMPI SWAP4 MLOAD SWAP3 SWAP4 PUSH32 0xD24D011FD9CC44C10F59CD2AA572F402B8A52354AAEC6A751F004BFD026E721F PUSH2 0x503 JUMP JUMPDEST RETURNDATASIZE SWAP2 POP PUSH2 0x55B JUMP JUMPDEST PUSH1 0x40 MLOAD RETURNDATASIZE PUSH1 0x0 DUP3 RETURNDATACOPY RETURNDATASIZE SWAP1 REVERT JUMPDEST PUSH2 0x5CD SWAP1 DUP5 RETURNDATASIZE DUP7 GT PUSH2 0x5D4 JUMPI JUMPDEST PUSH2 0x5C5 DUP2 DUP4 PUSH2 0x16C5 JUMP JUMPDEST DUP2 ADD SWAP1 PUSH2 0x18BB JUMP JUMPDEST POP DUP9 PUSH2 0x4C3 JUMP JUMPDEST POP RETURNDATASIZE PUSH2 0x5BB JUMP JUMPDEST PUSH1 0x40 MLOAD PUSH4 0x70A08231 PUSH1 0xE0 SHL DUP2 MSTORE ADDRESS PUSH1 0x4 DUP3 ADD MSTORE DUP5 PUSH1 0x20 DUP3 PUSH1 0x24 DUP2 DUP8 GAS STATICCALL SWAP1 DUP2 ISZERO PUSH2 0x5A2 JUMPI PUSH1 0x0 SWAP2 PUSH2 0x625 JUMPI JUMPDEST PUSH1 0x44 SWAP3 POP PUSH1 0x40 MLOAD SWAP2 PUSH4 0x4787A103 PUSH1 0xE1 SHL DUP4 MSTORE PUSH1 0x4 DUP4 ADD MSTORE PUSH1 0x24 DUP3 ADD MSTORE REVERT JUMPDEST SWAP1 POP PUSH1 0x20 DUP3 RETURNDATASIZE PUSH1 0x20 GT PUSH2 0x652 JUMPI JUMPDEST DUP2 PUSH2 0x640 PUSH1 0x20 SWAP4 DUP4 PUSH2 0x16C5 JUMP JUMPDEST DUP2 ADD SUB SLT PUSH2 0x12F JUMPI PUSH1 0x44 SWAP2 MLOAD SWAP1 PUSH2 0x607 JUMP JUMPDEST RETURNDATASIZE SWAP2 POP PUSH2 0x633 JUMP JUMPDEST SWAP1 POP PUSH1 0x20 DUP2 RETURNDATASIZE PUSH1 0x20 GT PUSH2 0x684 JUMPI JUMPDEST DUP2 PUSH2 0x675 PUSH1 0x20 SWAP4 DUP4 PUSH2 0x16C5 JUMP JUMPDEST DUP2 ADD SUB SLT PUSH2 0x12F JUMPI MLOAD DUP9 PUSH2 0x472 JUMP JUMPDEST RETURNDATASIZE SWAP2 POP PUSH2 0x668 JUMP JUMPDEST SWAP1 SWAP4 POP PUSH1 0x20 DUP2 RETURNDATASIZE PUSH1 0x20 GT PUSH2 0x6B8 JUMPI JUMPDEST DUP2 PUSH2 0x6A8 PUSH1 0x20 SWAP4 DUP4 PUSH2 0x16C5 JUMP JUMPDEST DUP2 ADD SUB SLT PUSH2 0x12F JUMPI MLOAD SWAP3 DUP8 PUSH2 0x446 JUMP JUMPDEST RETURNDATASIZE SWAP2 POP PUSH2 0x69B JUMP JUMPDEST PUSH4 0x4E487B71 PUSH1 0xE0 SHL PUSH1 0x0 MSTORE PUSH1 0x41 PUSH1 0x4 MSTORE PUSH1 0x24 PUSH1 0x0 REVERT JUMPDEST PUSH1 0x40 MLOAD PUSH3 0x461BCD PUSH1 0xE5 SHL DUP2 MSTORE PUSH1 0x20 PUSH1 0x4 DUP3 ADD MSTORE PUSH1 0x1A PUSH1 0x24 DUP3 ADD MSTORE PUSH32 0x5374617465206E6F74207665726966696564206C6F63616C6C79000000000000 PUSH1 0x44 DUP3 ADD MSTORE PUSH1 0x64 SWAP1 REVERT JUMPDEST PUSH2 0x734 SWAP2 POP PUSH1 0x20 RETURNDATASIZE PUSH1 0x20 GT PUSH2 0x5D4 JUMPI PUSH2 0x5C5 DUP2 DUP4 PUSH2 0x16C5 JUMP JUMPDEST DUP8 PUSH2 0x2EB JUMP JUMPDEST PUSH1 0x40 MLOAD PUSH4 0xA503CDB PUSH1 0xE0 SHL DUP2 MSTORE DUP7 DUP6 AND PUSH1 0x4 DUP3 ADD MSTORE PUSH1 0x24 SWAP1 REVERT JUMPDEST CALLVALUE PUSH2 0x12F JUMPI PUSH1 0x0 CALLDATASIZE PUSH1 0x3 NOT ADD SLT PUSH2 0x12F JUMPI PUSH1 0x40 MLOAD PUSH32 0x0 PUSH1 0x1 PUSH1 0x1 PUSH1 0xA0 SHL SUB AND DUP2 MSTORE PUSH1 0x20 SWAP1 RETURN JUMPDEST CALLVALUE PUSH2 0x12F JUMPI PUSH1 0x20 CALLDATASIZE PUSH1 0x3 NOT ADD SLT PUSH2 0x12F JUMPI PUSH1 0x0 PUSH1 0xA0 PUSH1 0x40 MLOAD PUSH2 0x7BA DUP2 PUSH2 0x16AA JUMP JUMPDEST DUP3 DUP2 MSTORE DUP3 PUSH1 0x20 DUP3 ADD MSTORE PUSH1 0x60 PUSH1 0x40 DUP3 ADD MSTORE PUSH1 0x60 DUP1 DUP3 ADD MSTORE PUSH1 0x60 PUSH1 0x80 DUP3 ADD MSTORE ADD MSTORE PUSH1 0x4 CALLDATALOAD PUSH1 0x0 MSTORE PUSH1 0x6 PUSH1 0x20 MSTORE PUSH2 0x86E PUSH1 0x40 PUSH1 0x0 KECCAK256 PUSH1 0x5 PUSH1 0x40 MLOAD SWAP2 PUSH2 0x7FB DUP4 PUSH2 0x16AA JUMP JUMPDEST DUP1 SLOAD DUP4 MSTORE PUSH1 0x1 DUP2 ADD SLOAD PUSH1 0x20 DUP5 ADD MSTORE PUSH1 0x40 MLOAD PUSH2 0x824 DUP2 PUSH2 0x81D DUP2 PUSH1 0x2 DUP7 ADD PUSH2 0x15DE JUMP JUMPDEST SUB DUP3 PUSH2 0x16C5 JUMP JUMPDEST PUSH1 0x40 DUP5 ADD MSTORE PUSH1 0x40 MLOAD PUSH2 0x83D DUP2 PUSH2 0x81D DUP2 PUSH1 0x3 DUP7 ADD PUSH2 0x15DE JUMP JUMPDEST PUSH1 0x60 DUP5 ADD MSTORE PUSH1 0x40 MLOAD PUSH2 0x856 DUP2 PUSH2 0x81D DUP2 PUSH1 0x4 DUP7 ADD PUSH2 0x15DE JUMP JUMPDEST PUSH1 0x80 DUP5 ADD MSTORE ADD SLOAD PUSH1 0xA0 DUP3 ADD MSTORE PUSH1 0x40 MLOAD SWAP2 DUP3 SWAP2 DUP3 PUSH2 0x17E1 JUMP JUMPDEST SUB SWAP1 RETURN JUMPDEST CALLVALUE PUSH2 0x12F JUMPI PUSH1 0x40 CALLDATASIZE PUSH1 0x3 NOT ADD SLT PUSH2 0x12F JUMPI PUSH2 0x1B PUSH2 0x88E PUSH2 0x175A JUMP JUMPDEST PUSH1 0x1 PUSH1 0x1 PUSH1 0x40 SHL SUB PUSH2 0x89E PUSH2 0x17D2 JUMP JUMPDEST SWAP2 PUSH2 0x8B4 PUSH1 0x1 DUP1 PUSH1 0xA0 SHL SUB PUSH1 0x8 SLOAD AND CALLER EQ PUSH2 0x184E JUMP JUMPDEST AND PUSH1 0x0 MSTORE PUSH1 0x3 PUSH1 0x20 MSTORE PUSH1 0x40 PUSH1 0x0 KECCAK256 SWAP1 PUSH1 0xFF DUP1 NOT DUP4 SLOAD AND SWAP2 ISZERO ISZERO AND OR SWAP1 SSTORE JUMP JUMPDEST CALLVALUE PUSH2 0x12F JUMPI PUSH1 0x0 CALLDATASIZE PUSH1 0x3 NOT ADD SLT PUSH2 0x12F JUMPI PUSH1 0x8 SLOAD PUSH1 0x40 MLOAD PUSH1 0x1 PUSH1 0x1 PUSH1 0xA0 SHL SUB SWAP1 SWAP2 AND DUP2 MSTORE PUSH1 0x20 SWAP1 RETURN JUMPDEST CALLVALUE PUSH2 0x12F JUMPI PUSH1 0x3 NOT PUSH1 0x20 CALLDATASIZE DUP3 ADD SLT PUSH2 0x12F JUMPI PUSH1 0x4 CALLDATALOAD SWAP1 PUSH1 0x1 PUSH1 0x1 PUSH1 0x40 SHL SUB DUP3 GT PUSH2 0x12F JUMPI PUSH1 0xA0 SWAP1 DUP3 CALLDATASIZE SUB ADD SLT PUSH2 0x12F JUMPI PUSH32 0x0 PUSH1 0x1 PUSH1 0x1 PUSH1 0xA0 SHL SUB AND CALLER SUB PUSH2 0x1048 JUMPI PUSH1 0x40 MLOAD SWAP1 PUSH2 0x969 DUP3 PUSH2 0x1674 JUMP JUMPDEST DUP1 PUSH1 0x4 ADD CALLDATALOAD DUP3 MSTORE PUSH1 0x24 DUP2 ADD CALLDATALOAD PUSH1 0x1 PUSH1 0x1 PUSH1 0x40 SHL SUB DUP2 AND DUP2 SUB PUSH2 0x12F JUMPI PUSH1 0x20 DUP4 ADD MSTORE PUSH1 0x44 DUP2 ADD CALLDATALOAD PUSH1 0x1 PUSH1 0x1 PUSH1 0x40 SHL SUB DUP2 GT PUSH2 0x12F JUMPI PUSH2 0x9AD SWAP1 PUSH1 0x4 CALLDATASIZE SWAP2 DUP5 ADD ADD PUSH2 0x178B JUMP JUMPDEST PUSH1 0x40 DUP4 ADD MSTORE PUSH1 0x64 DUP2 ADD CALLDATALOAD PUSH1 0x1 PUSH1 0x1 PUSH1 0x40 SHL SUB DUP2 GT PUSH2 0x12F JUMPI PUSH2 0x9D5 SWAP1 PUSH1 0x4 CALLDATASIZE SWAP2 DUP5 ADD ADD PUSH2 0x178B JUMP JUMPDEST SWAP1 PUSH1 0x60 DUP4 ADD SWAP2 DUP3 MSTORE PUSH1 0x84 DUP2 ADD CALLDATALOAD SWAP1 PUSH1 0x1 PUSH1 0x1 PUSH1 0x40 SHL SUB DUP3 GT PUSH2 0x12F JUMPI ADD CALLDATASIZE PUSH1 0x23 DUP3 ADD SLT ISZERO PUSH2 0x12F JUMPI PUSH1 0x4 DUP2 ADD CALLDATALOAD PUSH1 0x1 PUSH1 0x1 PUSH1 0x40 SHL SUB DUP2 GT PUSH2 0x6C0 JUMPI PUSH1 0x40 MLOAD SWAP2 PUSH2 0xA24 PUSH1 0x20 DUP4 PUSH1 0x5 SHL ADD DUP5 PUSH2 0x16C5 JUMP JUMPDEST DUP2 DUP4 MSTORE PUSH1 0x24 PUSH1 0x20 DUP5 ADD SWAP3 PUSH1 0x6 SHL DUP3 ADD ADD SWAP1 CALLDATASIZE DUP3 GT PUSH2 0x12F JUMPI PUSH1 0x24 ADD SWAP2 JUMPDEST DUP2 DUP4 LT PUSH2 0x1003 JUMPI POP POP POP PUSH1 0x80 DUP4 ADD MSTORE PUSH1 0x1 PUSH1 0x1 PUSH1 0x40 SHL SUB PUSH1 0x20 DUP4 ADD MLOAD AND PUSH1 0x40 DUP4 ADD MLOAD PUSH2 0xA7D PUSH1 0x1 DUP1 PUSH1 0xA0 SHL SUB SWAP2 PUSH1 0x20 DUP1 DUP3 MLOAD DUP4 ADD ADD SWAP2 ADD PUSH2 0x19A2 JUMP JUMPDEST AND SWAP1 DUP1 PUSH1 0x0 MSTORE PUSH1 0x4 PUSH1 0x20 MSTORE PUSH1 0xFF PUSH1 0x40 PUSH1 0x0 KECCAK256 SLOAD AND ISZERO PUSH2 0xFEB JUMPI POP DUP1 PUSH1 0x0 MSTORE PUSH1 0x5 PUSH1 0x20 MSTORE PUSH1 0xFF PUSH1 0x40 PUSH1 0x0 KECCAK256 SLOAD AND ISZERO PUSH2 0xFD3 JUMPI POP MLOAD DUP1 MLOAD DUP2 ADD SWAP1 PUSH1 0x20 DUP3 ADD SWAP1 PUSH1 0x20 DUP2 DUP5 SUB SLT PUSH2 0x12F JUMPI PUSH1 0x20 DUP2 ADD MLOAD PUSH1 0x1 PUSH1 0x1 PUSH1 0x40 SHL SUB DUP2 GT PUSH2 0x12F JUMPI PUSH1 0xC0 SWAP2 ADD DUP1 SWAP4 SUB SLT PUSH2 0x12F JUMPI PUSH1 0x40 MLOAD SWAP2 PUSH2 0xAF0 DUP4 PUSH2 0x16AA JUMP JUMPDEST PUSH1 0x20 DUP2 ADD MLOAD DUP4 MSTORE PUSH1 0x40 DUP2 ADD MLOAD SWAP2 PUSH1 0x20 DUP5 ADD SWAP3 DUP4 MSTORE PUSH1 0x60 DUP3 ADD MLOAD PUSH1 0x1 PUSH1 0x1 PUSH1 0x40 SHL SUB DUP2 GT PUSH2 0x12F JUMPI DUP3 ADD DUP2 PUSH1 0x3F DUP3 ADD SLT ISZERO PUSH2 0x12F JUMPI DUP2 DUP2 PUSH1 0x40 PUSH1 0x20 PUSH2 0xB37 SWAP5 ADD MLOAD SWAP2 ADD PUSH2 0x19C1 JUMP JUMPDEST SWAP2 PUSH1 0x40 DUP6 ADD SWAP3 DUP4 MSTORE PUSH1 0x80 DUP2 ADD MLOAD PUSH1 0x1 PUSH1 0x1 PUSH1 0x40 SHL SUB DUP2 GT PUSH2 0x12F JUMPI DUP3 PUSH1 0x20 PUSH2 0xB61 SWAP3 DUP5 ADD ADD PUSH2 0x19F8 JUMP JUMPDEST PUSH1 0x60 DUP7 ADD MSTORE PUSH1 0xA0 DUP2 ADD MLOAD PUSH1 0x1 PUSH1 0x1 PUSH1 0x40 SHL SUB DUP2 GT PUSH2 0x12F JUMPI PUSH1 0xC0 SWAP3 PUSH1 0x20 PUSH2 0xB8A SWAP3 DUP5 ADD ADD PUSH2 0x19F8 JUMP JUMPDEST PUSH1 0x80 DUP7 ADD MSTORE ADD MLOAD PUSH1 0xA0 DUP5 ADD MSTORE DUP3 MLOAD ISZERO DUP1 ISZERO PUSH2 0xFC6 JUMPI JUMPDEST PUSH2 0xFB4 JUMPI DUP3 MLOAD DUP3 MLOAD PUSH2 0xBE5 PUSH1 0x60 DUP5 MLOAD SWAP3 PUSH1 0x40 MLOAD SWAP4 DUP5 SWAP2 PUSH1 0x20 DUP4 ADD SWAP7 DUP8 MSTORE PUSH1 0x40 DUP4 ADD MSTORE PUSH2 0xBD5 DUP2 MLOAD DUP1 SWAP3 PUSH1 0x20 DUP7 DUP7 ADD SWAP2 ADD PUSH2 0x16E6 JUMP JUMPDEST DUP2 ADD SUB PUSH1 0x40 DUP2 ADD DUP5 MSTORE ADD DUP3 PUSH2 0x16C5 JUMP JUMPDEST MLOAD SWAP1 KECCAK256 PUSH1 0x0 MSTORE PUSH1 0x6 PUSH1 0x20 MSTORE PUSH1 0x40 PUSH1 0x0 KECCAK256 SWAP2 DUP4 MLOAD DUP4 SSTORE MLOAD PUSH1 0x1 DUP4 ADD SSTORE MLOAD SWAP3 DUP4 MLOAD PUSH1 0x1 PUSH1 0x1 PUSH1 0x40 SHL SUB DUP2 GT PUSH2 0x6C0 JUMPI PUSH2 0xC2C DUP2 PUSH2 0xC23 PUSH1 0x2 DUP7 ADD SLOAD PUSH2 0x15A4 JUMP JUMPDEST PUSH1 0x2 DUP7 ADD PUSH2 0x1A12 JUMP JUMPDEST PUSH1 0x20 PUSH1 0x1F DUP3 GT PUSH1 0x1 EQ PUSH2 0xF45 JUMPI DUP2 SWAP1 PUSH2 0xC5F SWAP4 SWAP5 SWAP6 SWAP7 PUSH1 0x0 SWAP3 PUSH2 0xECB JUMPI JUMPDEST POP POP DUP2 PUSH1 0x1 SHL SWAP2 PUSH1 0x0 NOT SWAP1 PUSH1 0x3 SHL SHR NOT AND OR SWAP1 JUMP JUMPDEST PUSH1 0x2 DUP4 ADD SSTORE JUMPDEST PUSH1 0x60 DUP4 ADD MLOAD SWAP3 DUP4 MLOAD PUSH1 0x1 PUSH1 0x1 PUSH1 0x40 SHL SUB DUP2 GT PUSH2 0x6C0 JUMPI PUSH2 0xC95 DUP2 PUSH2 0xC8C PUSH1 0x3 DUP8 ADD SLOAD PUSH2 0x15A4 JUMP JUMPDEST PUSH1 0x3 DUP8 ADD PUSH2 0x1A12 JUMP JUMPDEST PUSH1 0x20 PUSH1 0x1F DUP3 GT PUSH1 0x1 EQ PUSH2 0xED6 JUMPI DUP2 SWAP1 PUSH2 0xCC7 SWAP4 SWAP5 SWAP6 SWAP7 PUSH1 0x0 SWAP3 PUSH2 0xECB JUMPI POP POP DUP2 PUSH1 0x1 SHL SWAP2 PUSH1 0x0 NOT SWAP1 PUSH1 0x3 SHL SHR NOT AND OR SWAP1 JUMP JUMPDEST PUSH1 0x3 DUP5 ADD SSTORE JUMPDEST PUSH1 0x80 DUP2 ADD MLOAD SWAP3 DUP4 MLOAD PUSH1 0x1 PUSH1 0x1 PUSH1 0x40 SHL SUB DUP2 GT PUSH2 0x6C0 JUMPI PUSH2 0xCFD DUP2 PUSH2 0xCF4 PUSH1 0x4 DUP6 ADD SLOAD PUSH2 0x15A4 JUMP JUMPDEST PUSH1 0x4 DUP6 ADD PUSH2 0x1A12 JUMP JUMPDEST PUSH1 0x20 PUSH1 0x1F DUP3 GT PUSH1 0x1 EQ PUSH2 0xE36 JUMPI DUP2 PUSH1 0x40 SWAP5 SWAP4 SWAP3 PUSH2 0xD53 SWAP3 PUSH32 0x638C579281E44698E0CC287AA3AD3CE7A456E85D1A9FFB7746036276209777E8 SWAP8 SWAP9 PUSH1 0x0 SWAP3 PUSH2 0xE2B JUMPI POP POP DUP2 PUSH1 0x1 SHL SWAP2 PUSH1 0x0 NOT SWAP1 PUSH1 0x3 SHL SHR NOT AND OR SWAP1 JUMP JUMPDEST PUSH1 0x4 DUP3 ADD SSTORE JUMPDEST PUSH1 0x5 PUSH1 0xA0 DUP4 ADD MLOAD SWAP2 ADD SSTORE PUSH1 0x60 DUP2 ADD MLOAD MLOAD ISZERO ISZERO SWAP1 DUP2 PUSH2 0xE1C JUMPI JUMPDEST DUP2 PUSH2 0xE11 JUMPI JUMPDEST PUSH1 0x20 PUSH1 0x1 PUSH1 0x1 PUSH1 0x40 SHL SUB SWAP2 DUP4 PUSH2 0xDF4 JUMPI JUMPDEST DUP7 MLOAD DUP4 DUP4 DUP10 ADD MLOAD AND PUSH2 0xDA6 DUP8 DUP11 ADD MLOAD DUP6 DUP1 DUP3 MLOAD DUP4 ADD ADD SWAP2 ADD PUSH2 0x19A2 JUMP JUMPDEST DUP4 MLOAD DUP9 MLOAD SWAP1 DUP2 MSTORE PUSH1 0x1 PUSH1 0x1 PUSH1 0xA0 SHL SUB SWAP1 SWAP2 AND SWAP3 SWAP1 PUSH32 0x64D3B1CA9F4857519FF113B7722B497C8B83D396DA9EEB756425D852ABD7B15B SWAP1 DUP7 SWAP1 LOG4 MLOAD SWAP6 ADD MLOAD AND SWAP1 DUP3 MLOAD SWAP2 DUP3 MSTORE ISZERO ISZERO PUSH1 0x20 DUP3 ADD MSTORE LOG2 STOP JUMPDEST DUP1 MLOAD PUSH1 0x0 MSTORE PUSH1 0x7 DUP3 MSTORE DUP5 PUSH1 0x0 KECCAK256 PUSH1 0x1 PUSH1 0xFF NOT DUP3 SLOAD AND OR SWAP1 SSTORE PUSH2 0xD89 JUMP JUMPDEST DUP1 MLOAD ISZERO ISZERO SWAP2 POP PUSH2 0xD78 JUMP JUMPDEST PUSH1 0x80 DUP2 ADD MLOAD MLOAD ISZERO ISZERO SWAP2 POP PUSH2 0xD72 JUMP JUMPDEST ADD MLOAD SWAP1 POP DUP9 DUP1 PUSH2 0xC4A JUMP JUMPDEST PUSH1 0x4 DUP4 ADD PUSH1 0x0 MSTORE PUSH1 0x20 PUSH1 0x0 KECCAK256 SWAP6 PUSH1 0x0 JUMPDEST PUSH1 0x1F NOT DUP5 AND DUP2 LT PUSH2 0xEB3 JUMPI POP SWAP2 PUSH32 0x638C579281E44698E0CC287AA3AD3CE7A456E85D1A9FFB7746036276209777E8 SWAP6 SWAP7 PUSH1 0x1 SWAP3 PUSH1 0x40 SWAP7 SWAP6 SWAP5 DUP4 PUSH1 0x1F NOT DUP2 AND LT PUSH2 0xE9A JUMPI JUMPDEST POP POP POP DUP2 SHL ADD PUSH1 0x4 DUP3 ADD SSTORE PUSH2 0xD59 JUMP JUMPDEST ADD MLOAD PUSH1 0x0 NOT PUSH1 0xF8 DUP5 PUSH1 0x3 SHL AND SHR NOT AND SWAP1 SSTORE DUP8 DUP1 DUP1 PUSH2 0xE8A JUMP JUMPDEST DUP3 DUP3 ADD MLOAD DUP9 SSTORE PUSH1 0x1 SWAP1 SWAP8 ADD SWAP7 PUSH1 0x20 SWAP3 DUP4 ADD SWAP3 ADD PUSH2 0xE46 JUMP JUMPDEST ADD MLOAD SWAP1 POP DUP7 DUP1 PUSH2 0xC4A JUMP JUMPDEST PUSH1 0x3 DUP6 ADD PUSH1 0x0 MSTORE PUSH1 0x20 PUSH1 0x0 KECCAK256 SWAP1 PUSH1 0x0 JUMPDEST PUSH1 0x1F NOT DUP5 AND DUP2 LT PUSH2 0xF2D JUMPI POP PUSH1 0x1 SWAP4 SWAP5 SWAP6 SWAP7 DUP4 PUSH1 0x1F NOT DUP2 AND LT PUSH2 0xF14 JUMPI JUMPDEST POP POP POP DUP2 SHL ADD PUSH1 0x3 DUP5 ADD SSTORE PUSH2 0xCCD JUMP JUMPDEST ADD MLOAD PUSH1 0x0 NOT PUSH1 0xF8 DUP5 PUSH1 0x3 SHL AND SHR NOT AND SWAP1 SSTORE DUP6 DUP1 DUP1 PUSH2 0xF04 JUMP JUMPDEST SWAP1 SWAP2 PUSH1 0x20 PUSH1 0x1 DUP2 SWAP3 DUP6 DUP12 ADD MLOAD DUP2 SSTORE ADD SWAP4 ADD SWAP2 ADD PUSH2 0xEE6 JUMP JUMPDEST PUSH1 0x2 DUP5 ADD PUSH1 0x0 MSTORE PUSH1 0x20 PUSH1 0x0 KECCAK256 SWAP1 PUSH1 0x0 JUMPDEST PUSH1 0x1F NOT DUP5 AND DUP2 LT PUSH2 0xF9C JUMPI POP PUSH1 0x1 SWAP4 SWAP5 SWAP6 SWAP7 DUP4 PUSH1 0x1F NOT DUP2 AND LT PUSH2 0xF83 JUMPI JUMPDEST POP POP POP DUP2 SHL ADD PUSH1 0x2 DUP4 ADD SSTORE PUSH2 0xC65 JUMP JUMPDEST ADD MLOAD PUSH1 0x0 NOT PUSH1 0xF8 DUP5 PUSH1 0x3 SHL AND SHR NOT AND SWAP1 SSTORE DUP6 DUP1 DUP1 PUSH2 0xF73 JUMP JUMPDEST SWAP1 SWAP2 PUSH1 0x20 PUSH1 0x1 DUP2 SWAP3 DUP6 DUP12 ADD MLOAD DUP2 SSTORE ADD SWAP4 ADD SWAP2 ADD PUSH2 0xF55 JUMP JUMPDEST PUSH1 0x40 MLOAD PUSH4 0x71F4A193 PUSH1 0xE1 SHL DUP2 MSTORE PUSH1 0x4 SWAP1 REVERT JUMPDEST POP PUSH1 0x60 DUP4 ADD MLOAD MLOAD ISZERO PUSH2 0xBA0 JUMP JUMPDEST PUSH1 0x24 SWAP1 PUSH1 0x40 MLOAD SWAP1 PUSH4 0x38C08EF9 PUSH1 0xE1 SHL DUP3 MSTORE PUSH1 0x4 DUP3 ADD MSTORE REVERT JUMPDEST PUSH1 0x24 SWAP1 PUSH1 0x40 MLOAD SWAP1 PUSH4 0x26BFAD91 PUSH1 0xE2 SHL DUP3 MSTORE PUSH1 0x4 DUP3 ADD MSTORE REVERT JUMPDEST PUSH1 0x40 DUP4 CALLDATASIZE SUB SLT PUSH2 0x12F JUMPI PUSH1 0x40 MLOAD SWAP1 PUSH2 0x101A DUP3 PUSH2 0x168F JUMP JUMPDEST DUP4 CALLDATALOAD SWAP1 PUSH1 0x1 PUSH1 0x1 PUSH1 0xA0 SHL SUB DUP3 AND DUP3 SUB PUSH2 0x12F JUMPI DUP3 PUSH1 0x20 SWAP3 PUSH1 0x40 SWAP5 MSTORE DUP3 DUP7 ADD CALLDATALOAD DUP4 DUP3 ADD MSTORE DUP2 MSTORE ADD SWAP3 ADD SWAP2 PUSH2 0xA41 JUMP JUMPDEST PUSH1 0x40 MLOAD PUSH4 0x35FDCCCD PUSH1 0xE2 SHL DUP2 MSTORE CALLER PUSH1 0x4 DUP3 ADD MSTORE PUSH1 0x24 SWAP1 REVERT JUMPDEST CALLVALUE PUSH2 0x12F JUMPI PUSH1 0x20 CALLDATASIZE PUSH1 0x3 NOT ADD SLT PUSH2 0x12F JUMPI PUSH1 0x1 PUSH1 0x1 PUSH1 0x40 SHL SUB PUSH2 0x1081 PUSH2 0x175A JUMP JUMPDEST AND PUSH1 0x0 MSTORE PUSH1 0x3 PUSH1 0x20 MSTORE PUSH1 0x20 PUSH1 0xFF PUSH1 0x40 PUSH1 0x0 KECCAK256 SLOAD AND PUSH1 0x40 MLOAD SWAP1 ISZERO ISZERO DUP2 MSTORE RETURN JUMPDEST CALLVALUE PUSH2 0x12F JUMPI PUSH1 0x40 CALLDATASIZE PUSH1 0x3 NOT ADD SLT PUSH2 0x12F JUMPI PUSH1 0x4 CALLDATALOAD PUSH1 0x1 PUSH1 0x1 PUSH1 0x40 SHL SUB DUP2 GT PUSH2 0x12F JUMPI PUSH1 0x20 PUSH2 0x1106 PUSH2 0x10D6 PUSH1 0x0 SWAP4 CALLDATASIZE SWAP1 PUSH1 0x4 ADD PUSH2 0x178B JUMP JUMPDEST PUSH1 0x1 DUP1 PUSH1 0xA0 SHL SUB PUSH1 0x2 SLOAD AND SWAP1 PUSH1 0x40 MLOAD SWAP5 DUP6 DUP1 SWAP5 DUP2 SWAP4 PUSH4 0x2BF7F019 PUSH1 0xE1 SHL DUP4 MSTORE PUSH1 0x40 PUSH1 0x4 DUP5 ADD MSTORE PUSH1 0x44 DUP4 ADD SWAP1 PUSH2 0x1709 JUMP JUMPDEST PUSH1 0x24 CALLDATALOAD PUSH1 0x24 DUP4 ADD MSTORE SUB SWAP3 GAS CALL DUP1 ISZERO PUSH2 0x5A2 JUMPI PUSH1 0x0 SWAP1 PUSH2 0x112B JUMPI JUMPDEST PUSH1 0x20 SWAP1 PUSH1 0x40 MLOAD SWAP1 DUP2 MSTORE RETURN JUMPDEST POP PUSH1 0x20 DUP2 RETURNDATASIZE PUSH1 0x20 GT PUSH2 0x1156 JUMPI JUMPDEST DUP2 PUSH2 0x1145 PUSH1 0x20 SWAP4 DUP4 PUSH2 0x16C5 JUMP JUMPDEST DUP2 ADD SUB SLT PUSH2 0x12F JUMPI PUSH1 0x20 SWAP1 MLOAD PUSH2 0x1120 JUMP JUMPDEST RETURNDATASIZE SWAP2 POP PUSH2 0x1138 JUMP JUMPDEST CALLVALUE PUSH2 0x12F JUMPI PUSH1 0x20 CALLDATASIZE PUSH1 0x3 NOT ADD SLT PUSH2 0x12F JUMPI PUSH1 0x4 CALLDATALOAD PUSH1 0x0 MSTORE PUSH1 0x7 PUSH1 0x20 MSTORE PUSH1 0x20 PUSH1 0xFF PUSH1 0x40 PUSH1 0x0 KECCAK256 SLOAD AND PUSH1 0x40 MLOAD SWAP1 ISZERO ISZERO DUP2 MSTORE RETURN JUMPDEST CALLVALUE PUSH2 0x12F JUMPI PUSH1 0x20 CALLDATASIZE PUSH1 0x3 NOT ADD SLT PUSH2 0x12F JUMPI PUSH1 0x1 PUSH1 0x1 PUSH1 0xA0 SHL SUB PUSH2 0x11B0 PUSH2 0x172E JUMP JUMPDEST AND PUSH1 0x0 MSTORE PUSH1 0x5 PUSH1 0x20 MSTORE PUSH1 0x20 PUSH1 0xFF PUSH1 0x40 PUSH1 0x0 KECCAK256 SLOAD AND PUSH1 0x40 MLOAD SWAP1 ISZERO ISZERO DUP2 MSTORE RETURN JUMPDEST CALLVALUE PUSH2 0x12F JUMPI PUSH1 0x20 CALLDATASIZE PUSH1 0x3 NOT ADD SLT PUSH2 0x12F JUMPI PUSH2 0x11E7 PUSH2 0x172E JUMP JUMPDEST PUSH1 0x8 SLOAD PUSH1 0x1 PUSH1 0x1 PUSH1 0xA0 SHL SUB SWAP2 SWAP1 PUSH2 0x1201 SWAP1 DUP4 AND CALLER EQ PUSH2 0x184E JUMP JUMPDEST SELFBALANCE DUP1 ISZERO PUSH2 0x1245 JUMPI PUSH1 0x0 DUP1 DUP1 DUP1 DUP5 DUP7 GAS CALL PUSH2 0x1219 PUSH2 0x188B JUMP JUMPDEST POP ISZERO PUSH2 0x1221 JUMPI STOP JUMPDEST PUSH1 0x64 SWAP3 PUSH1 0x40 MLOAD SWAP3 PUSH4 0x9D11F563 PUSH1 0xE0 SHL DUP5 MSTORE CALLER PUSH1 0x4 DUP6 ADD MSTORE AND PUSH1 0x24 DUP4 ADD MSTORE PUSH1 0x44 DUP3 ADD MSTORE REVERT JUMPDEST PUSH1 0x40 MLOAD PUSH4 0x686827B PUSH1 0xE5 SHL DUP2 MSTORE PUSH1 0x4 SWAP1 REVERT JUMPDEST CALLVALUE PUSH2 0x12F JUMPI PUSH1 0x20 CALLDATASIZE PUSH1 0x3 NOT ADD SLT PUSH2 0x12F JUMPI PUSH1 0x1 PUSH1 0x1 PUSH1 0x40 SHL SUB PUSH2 0x1278 PUSH2 0x175A JUMP JUMPDEST AND PUSH1 0x0 MSTORE PUSH1 0x4 PUSH1 0x20 MSTORE PUSH1 0x20 PUSH1 0xFF PUSH1 0x40 PUSH1 0x0 KECCAK256 SLOAD AND PUSH1 0x40 MLOAD SWAP1 ISZERO ISZERO DUP2 MSTORE RETURN JUMPDEST CALLVALUE PUSH2 0x12F JUMPI PUSH1 0x40 CALLDATASIZE PUSH1 0x3 NOT ADD SLT PUSH2 0x12F JUMPI PUSH2 0x12AF PUSH2 0x172E JUMP JUMPDEST PUSH2 0x12B7 PUSH2 0x1744 JUMP JUMPDEST PUSH1 0x8 SLOAD PUSH1 0x1 PUSH1 0x1 PUSH1 0xA0 SHL SUB SWAP2 SWAP1 PUSH2 0x12D1 SWAP1 DUP4 AND CALLER EQ PUSH2 0x184E JUMP JUMPDEST AND SWAP1 PUSH1 0x40 MLOAD PUSH4 0x70A08231 PUSH1 0xE0 SHL DUP2 MSTORE ADDRESS PUSH1 0x4 DUP3 ADD MSTORE PUSH1 0x20 SWAP3 DUP4 DUP3 PUSH1 0x24 DUP2 DUP5 GAS STATICCALL SWAP2 DUP3 ISZERO PUSH2 0x5A2 JUMPI PUSH1 0x0 SWAP3 PUSH2 0x140A JUMPI JUMPDEST POP DUP2 ISZERO PUSH2 0x1245 JUMPI PUSH1 0x40 MLOAD PUSH4 0xA9059CBB PUSH1 0xE0 SHL DUP6 DUP3 ADD SWAP1 DUP2 MSTORE PUSH1 0x1 PUSH1 0x1 PUSH1 0xA0 SHL SUB SWAP5 SWAP1 SWAP5 AND PUSH1 0x24 DUP3 ADD MSTORE PUSH1 0x44 DUP1 DUP3 ADD SWAP4 SWAP1 SWAP4 MSTORE SWAP2 DUP3 MSTORE PUSH2 0x1392 SWAP3 PUSH1 0x0 SWAP1 DUP2 SWAP1 PUSH2 0x1349 PUSH1 0x64 DUP7 PUSH2 0x16C5 JUMP JUMPDEST PUSH1 0x40 MLOAD SWAP5 PUSH2 0x1356 DUP7 PUSH2 0x168F JUMP JUMPDEST DUP8 DUP7 MSTORE PUSH32 0x5361666545524332303A206C6F772D6C6576656C2063616C6C206661696C6564 DUP9 DUP8 ADD MSTORE MLOAD SWAP1 DUP3 DUP6 GAS CALL PUSH2 0x138C PUSH2 0x188B JUMP JUMPDEST SWAP2 PUSH2 0x1A68 JUMP JUMPDEST DUP1 MLOAD SWAP1 DUP2 PUSH2 0x139C JUMPI STOP JUMPDEST DUP3 DUP1 PUSH2 0x13AC SWAP4 DUP4 ADD ADD SWAP2 ADD PUSH2 0x18BB JUMP JUMPDEST ISZERO PUSH2 0x13B3 JUMPI STOP JUMPDEST PUSH1 0x84 SWAP1 PUSH1 0x40 MLOAD SWAP1 PUSH3 0x461BCD PUSH1 0xE5 SHL DUP3 MSTORE PUSH1 0x4 DUP3 ADD MSTORE PUSH1 0x2A PUSH1 0x24 DUP3 ADD MSTORE PUSH32 0x5361666545524332303A204552433230206F7065726174696F6E20646964206E PUSH1 0x44 DUP3 ADD MSTORE PUSH10 0x1BDD081CDD58D8D95959 PUSH1 0xB2 SHL PUSH1 0x64 DUP3 ADD MSTORE REVERT JUMPDEST SWAP1 SWAP2 POP DUP4 DUP2 DUP2 RETURNDATASIZE DUP4 GT PUSH2 0x1432 JUMPI JUMPDEST PUSH2 0x1422 DUP2 DUP4 PUSH2 0x16C5 JUMP JUMPDEST DUP2 ADD SUB SLT PUSH2 0x12F JUMPI MLOAD SWAP1 DUP5 PUSH2 0x1300 JUMP JUMPDEST POP RETURNDATASIZE PUSH2 0x1418 JUMP JUMPDEST CALLVALUE PUSH2 0x12F JUMPI PUSH1 0x20 CALLDATASIZE PUSH1 0x3 NOT ADD SLT PUSH2 0x12F JUMPI PUSH2 0x1452 PUSH2 0x172E JUMP JUMPDEST PUSH1 0x8 SLOAD PUSH1 0x1 PUSH1 0x1 PUSH1 0xA0 SHL SUB SWAP2 SWAP1 PUSH2 0x146C SWAP1 DUP4 AND CALLER EQ PUSH2 0x184E JUMP JUMPDEST AND PUSH12 0xFFFFFFFFFFFFFFFFFFFFFFFF PUSH1 0xA0 SHL PUSH1 0x2 SLOAD AND OR PUSH1 0x2 SSTORE PUSH1 0x0 DUP1 RETURN JUMPDEST CALLVALUE PUSH2 0x12F JUMPI PUSH1 0x20 CALLDATASIZE PUSH1 0x3 NOT ADD SLT PUSH2 0x12F JUMPI PUSH1 0x4 CALLDATALOAD PUSH1 0x0 MSTORE PUSH1 0x6 PUSH1 0x20 MSTORE PUSH1 0x40 PUSH1 0x0 KECCAK256 DUP1 SLOAD PUSH1 0x1 DUP3 ADD SLOAD SWAP2 PUSH2 0x1547 PUSH1 0x40 MLOAD SWAP2 PUSH2 0x14D2 DUP4 PUSH2 0x14CB DUP2 PUSH1 0x2 DUP6 ADD PUSH2 0x15DE JUMP JUMPDEST SUB DUP5 PUSH2 0x16C5 JUMP JUMPDEST PUSH2 0x1539 PUSH1 0x40 MLOAD PUSH2 0x14E9 DUP2 PUSH2 0x81D DUP2 PUSH1 0x3 DUP8 ADD PUSH2 0x15DE JUMP JUMPDEST PUSH2 0x152B PUSH1 0x5 PUSH1 0x40 MLOAD SWAP5 PUSH2 0x150A DUP7 PUSH2 0x1503 DUP2 PUSH1 0x4 DUP6 ADD PUSH2 0x15DE JUMP JUMPDEST SUB DUP8 PUSH2 0x16C5 JUMP JUMPDEST ADD SLOAD SWAP6 PUSH1 0x40 MLOAD SWAP9 DUP10 SWAP9 DUP10 MSTORE PUSH1 0x20 DUP10 ADD MSTORE PUSH1 0xC0 PUSH1 0x40 DUP10 ADD MSTORE PUSH1 0xC0 DUP9 ADD SWAP1 PUSH2 0x1709 JUMP JUMPDEST SWAP1 DUP7 DUP3 SUB PUSH1 0x60 DUP9 ADD MSTORE PUSH2 0x1709 JUMP JUMPDEST SWAP1 DUP5 DUP3 SUB PUSH1 0x80 DUP7 ADD MSTORE PUSH2 0x1709 JUMP JUMPDEST SWAP1 PUSH1 0xA0 DUP4 ADD MSTORE SUB SWAP1 RETURN JUMPDEST CALLVALUE PUSH2 0x12F JUMPI PUSH1 0x20 CALLDATASIZE PUSH1 0x3 NOT ADD SLT PUSH2 0x12F JUMPI PUSH1 0x4 CALLDATALOAD SWAP1 PUSH4 0xFFFFFFFF PUSH1 0xE0 SHL DUP3 AND DUP1 SWAP3 SUB PUSH2 0x12F JUMPI PUSH1 0x20 SWAP2 PUSH4 0x85572FFB PUSH1 0xE0 SHL DUP2 EQ SWAP1 DUP2 ISZERO PUSH2 0x1593 JUMPI JUMPDEST POP ISZERO ISZERO DUP2 MSTORE RETURN JUMPDEST PUSH4 0x1FFC9A7 PUSH1 0xE0 SHL EQ SWAP1 POP DUP4 PUSH2 0x158C JUMP JUMPDEST SWAP1 PUSH1 0x1 DUP3 DUP2 SHR SWAP3 AND DUP1 ISZERO PUSH2 0x15D4 JUMPI JUMPDEST PUSH1 0x20 DUP4 LT EQ PUSH2 0x15BE JUMPI JUMP JUMPDEST PUSH4 0x4E487B71 PUSH1 0xE0 SHL PUSH1 0x0 MSTORE PUSH1 0x22 PUSH1 0x4 MSTORE PUSH1 0x24 PUSH1 0x0 REVERT JUMPDEST SWAP2 PUSH1 0x7F AND SWAP2 PUSH2 0x15B3 JUMP JUMPDEST DUP1 SLOAD PUSH1 0x0 SWAP4 SWAP3 PUSH2 0x15ED DUP3 PUSH2 0x15A4 JUMP JUMPDEST SWAP2 DUP3 DUP3 MSTORE PUSH1 0x20 SWAP4 PUSH1 0x1 SWAP2 PUSH1 0x1 DUP2 AND SWAP1 DUP2 PUSH1 0x0 EQ PUSH2 0x1655 JUMPI POP PUSH1 0x1 EQ PUSH2 0x1614 JUMPI JUMPDEST POP POP POP POP POP JUMP JUMPDEST SWAP1 SWAP4 SWAP5 SWAP6 POP PUSH1 0x0 SWAP3 SWAP2 SWAP3 MSTORE DUP4 PUSH1 0x0 KECCAK256 SWAP3 DUP5 PUSH1 0x0 SWAP5 JUMPDEST DUP4 DUP7 LT PUSH2 0x1641 JUMPI POP POP POP POP ADD ADD SWAP1 CODESIZE DUP1 DUP1 DUP1 DUP1 PUSH2 0x160D JUMP JUMPDEST DUP1 SLOAD DUP6 DUP8 ADD DUP4 ADD MSTORE SWAP5 ADD SWAP4 DUP6 SWAP1 DUP3 ADD PUSH2 0x1629 JUMP JUMPDEST PUSH1 0xFF NOT AND DUP7 DUP6 ADD MSTORE POP POP POP SWAP1 ISZERO ISZERO PUSH1 0x5 SHL ADD ADD SWAP2 POP CODESIZE DUP1 DUP1 DUP1 DUP1 PUSH2 0x160D JUMP JUMPDEST PUSH1 0xA0 DUP2 ADD SWAP1 DUP2 LT PUSH1 0x1 PUSH1 0x1 PUSH1 0x40 SHL SUB DUP3 GT OR PUSH2 0x6C0 JUMPI PUSH1 0x40 MSTORE JUMP JUMPDEST PUSH1 0x40 DUP2 ADD SWAP1 DUP2 LT PUSH1 0x1 PUSH1 0x1 PUSH1 0x40 SHL SUB DUP3 GT OR PUSH2 0x6C0 JUMPI PUSH1 0x40 MSTORE JUMP JUMPDEST PUSH1 0xC0 DUP2 ADD SWAP1 DUP2 LT PUSH1 0x1 PUSH1 0x1 PUSH1 0x40 SHL SUB DUP3 GT OR PUSH2 0x6C0 JUMPI PUSH1 0x40 MSTORE JUMP JUMPDEST SWAP1 PUSH1 0x1F DUP1 NOT SWAP2 ADD AND DUP2 ADD SWAP1 DUP2 LT PUSH1 0x1 PUSH1 0x1 PUSH1 0x40 SHL SUB DUP3 GT OR PUSH2 0x6C0 JUMPI PUSH1 0x40 MSTORE JUMP JUMPDEST PUSH1 0x0 JUMPDEST DUP4 DUP2 LT PUSH2 0x16F9 JUMPI POP POP PUSH1 0x0 SWAP2 ADD MSTORE JUMP JUMPDEST DUP2 DUP2 ADD MLOAD DUP4 DUP3 ADD MSTORE PUSH1 0x20 ADD PUSH2 0x16E9 JUMP JUMPDEST SWAP1 PUSH1 0x20 SWAP2 PUSH2 0x1722 DUP2 MLOAD DUP1 SWAP3 DUP2 DUP6 MSTORE DUP6 DUP1 DUP7 ADD SWAP2 ADD PUSH2 0x16E6 JUMP JUMPDEST PUSH1 0x1F ADD PUSH1 0x1F NOT AND ADD ADD SWAP1 JUMP JUMPDEST PUSH1 0x4 CALLDATALOAD SWAP1 PUSH1 0x1 PUSH1 0x1 PUSH1 0xA0 SHL SUB DUP3 AND DUP3 SUB PUSH2 0x12F JUMPI JUMP JUMPDEST PUSH1 0x24 CALLDATALOAD SWAP1 PUSH1 0x1 PUSH1 0x1 PUSH1 0xA0 SHL SUB DUP3 AND DUP3 SUB PUSH2 0x12F JUMPI JUMP JUMPDEST PUSH1 0x4 CALLDATALOAD SWAP1 PUSH1 0x1 PUSH1 0x1 PUSH1 0x40 SHL SUB DUP3 AND DUP3 SUB PUSH2 0x12F JUMPI JUMP JUMPDEST PUSH1 0x1 PUSH1 0x1 PUSH1 0x40 SHL SUB DUP2 GT PUSH2 0x6C0 JUMPI PUSH1 0x1F ADD PUSH1 0x1F NOT AND PUSH1 0x20 ADD SWAP1 JUMP JUMPDEST DUP2 PUSH1 0x1F DUP3 ADD SLT ISZERO PUSH2 0x12F JUMPI DUP1 CALLDATALOAD SWAP1 PUSH2 0x17A2 DUP3 PUSH2 0x1770 JUMP JUMPDEST SWAP3 PUSH2 0x17B0 PUSH1 0x40 MLOAD SWAP5 DUP6 PUSH2 0x16C5 JUMP JUMPDEST DUP3 DUP5 MSTORE PUSH1 0x20 DUP4 DUP4 ADD ADD GT PUSH2 0x12F JUMPI DUP2 PUSH1 0x0 SWAP3 PUSH1 0x20 DUP1 SWAP4 ADD DUP4 DUP7 ADD CALLDATACOPY DUP4 ADD ADD MSTORE SWAP1 JUMP JUMPDEST PUSH1 0x24 CALLDATALOAD SWAP1 DUP2 ISZERO ISZERO DUP3 SUB PUSH2 0x12F JUMPI JUMP JUMPDEST PUSH1 0x20 DUP2 MSTORE DUP2 MLOAD PUSH1 0x20 DUP3 ADD MSTORE PUSH1 0x20 DUP3 ADD MLOAD PUSH1 0x40 DUP3 ADD MSTORE PUSH1 0xC0 PUSH1 0xA0 PUSH2 0x1845 PUSH2 0x1815 PUSH1 0x40 DUP7 ADD MLOAD DUP5 PUSH1 0x60 DUP8 ADD MSTORE PUSH1 0xE0 DUP7 ADD SWAP1 PUSH2 0x1709 JUMP JUMPDEST PUSH2 0x1831 PUSH1 0x60 DUP8 ADD MLOAD SWAP2 PUSH1 0x1F NOT SWAP3 DUP4 DUP9 DUP4 SUB ADD PUSH1 0x80 DUP10 ADD MSTORE PUSH2 0x1709 JUMP JUMPDEST SWAP1 PUSH1 0x80 DUP8 ADD MLOAD SWAP1 DUP7 DUP4 SUB ADD DUP5 DUP8 ADD MSTORE PUSH2 0x1709 JUMP JUMPDEST SWAP4 ADD MLOAD SWAP2 ADD MSTORE SWAP1 JUMP JUMPDEST ISZERO PUSH2 0x1855 JUMPI JUMP JUMPDEST PUSH1 0x40 MLOAD PUSH3 0x461BCD PUSH1 0xE5 SHL DUP2 MSTORE PUSH1 0x20 PUSH1 0x4 DUP3 ADD MSTORE PUSH1 0xE PUSH1 0x24 DUP3 ADD MSTORE PUSH14 0x139BDD08185D5D1A1BDC9A5E9959 PUSH1 0x92 SHL PUSH1 0x44 DUP3 ADD MSTORE PUSH1 0x64 SWAP1 REVERT JUMPDEST RETURNDATASIZE ISZERO PUSH2 0x18B6 JUMPI RETURNDATASIZE SWAP1 PUSH2 0x189C DUP3 PUSH2 0x1770 JUMP JUMPDEST SWAP2 PUSH2 0x18AA PUSH1 0x40 MLOAD SWAP4 DUP5 PUSH2 0x16C5 JUMP JUMPDEST DUP3 MSTORE RETURNDATASIZE PUSH1 0x0 PUSH1 0x20 DUP5 ADD RETURNDATACOPY JUMP JUMPDEST PUSH1 0x60 SWAP1 JUMP JUMPDEST SWAP1 DUP2 PUSH1 0x20 SWAP2 SUB SLT PUSH2 0x12F JUMPI MLOAD DUP1 ISZERO ISZERO DUP2 SUB PUSH2 0x12F JUMPI SWAP1 JUMP JUMPDEST SWAP1 SWAP3 SWAP2 SWAP3 PUSH1 0x1 PUSH1 0x1 PUSH1 0x40 SHL SUB PUSH1 0x40 SWAP2 AND DUP3 MSTORE PUSH1 0x20 SWAP2 PUSH1 0x40 DUP4 DUP3 ADD MSTORE PUSH2 0x1904 DUP6 MLOAD PUSH1 0xA0 PUSH1 0x40 DUP5 ADD MSTORE PUSH1 0xE0 DUP4 ADD SWAP1 PUSH2 0x1709 JUMP JUMPDEST SWAP2 PUSH2 0x1920 DUP5 DUP8 ADD MLOAD SWAP4 PUSH1 0x3F NOT SWAP5 DUP6 DUP6 DUP4 SUB ADD PUSH1 0x60 DUP7 ADD MSTORE PUSH2 0x1709 JUMP JUMPDEST PUSH1 0x40 DUP8 ADD MLOAD SWAP5 DUP5 DUP5 DUP4 SUB ADD PUSH1 0x80 DUP6 ADD MSTORE DUP1 DUP1 DUP8 MLOAD SWAP4 DUP5 DUP2 MSTORE ADD SWAP7 ADD SWAP3 PUSH1 0x0 SWAP1 JUMPDEST DUP4 DUP3 LT PUSH2 0x1979 JUMPI POP POP POP POP POP PUSH1 0xC0 PUSH1 0x80 PUSH2 0x1976 SWAP6 SWAP7 PUSH1 0x1 DUP1 PUSH1 0xA0 SHL SUB PUSH1 0x60 DUP3 ADD MLOAD AND PUSH1 0xA0 DUP6 ADD MSTORE ADD MLOAD SWAP3 DUP3 DUP6 SUB ADD SWAP2 ADD MSTORE PUSH2 0x1709 JUMP JUMPDEST SWAP1 JUMP JUMPDEST DUP5 MLOAD DUP1 MLOAD PUSH1 0x1 PUSH1 0x1 PUSH1 0xA0 SHL SUB AND DUP10 MSTORE DUP4 ADD MLOAD DUP9 DUP5 ADD MSTORE SWAP7 DUP8 ADD SWAP7 SWAP4 DUP3 ADD SWAP4 PUSH1 0x1 SWAP1 SWAP2 ADD SWAP1 PUSH2 0x1940 JUMP JUMPDEST SWAP1 DUP2 PUSH1 0x20 SWAP2 SUB SLT PUSH2 0x12F JUMPI MLOAD PUSH1 0x1 PUSH1 0x1 PUSH1 0xA0 SHL SUB DUP2 AND DUP2 SUB PUSH2 0x12F JUMPI SWAP1 JUMP JUMPDEST SWAP1 SWAP3 SWAP2 SWAP3 PUSH2 0x19CE DUP2 PUSH2 0x1770 JUMP JUMPDEST SWAP2 PUSH2 0x19DC PUSH1 0x40 MLOAD SWAP4 DUP5 PUSH2 0x16C5 JUMP JUMPDEST DUP3 SWAP5 DUP3 DUP5 MSTORE DUP3 DUP3 ADD GT PUSH2 0x12F JUMPI PUSH1 0x20 PUSH2 0x19F6 SWAP4 ADD SWAP1 PUSH2 0x16E6 JUMP JUMPDEST JUMP JUMPDEST SWAP1 DUP1 PUSH1 0x1F DUP4 ADD SLT ISZERO PUSH2 0x12F JUMPI DUP2 MLOAD PUSH2 0x1976 SWAP3 PUSH1 0x20 ADD PUSH2 0x19C1 JUMP JUMPDEST SWAP1 PUSH1 0x1F DUP2 GT PUSH2 0x1A20 JUMPI POP POP POP JUMP JUMPDEST PUSH1 0x0 SWAP2 PUSH1 0x0 MSTORE PUSH1 0x20 PUSH1 0x0 KECCAK256 SWAP1 PUSH1 0x20 PUSH1 0x1F DUP6 ADD PUSH1 0x5 SHR DUP4 ADD SWAP5 LT PUSH2 0x1A5E JUMPI JUMPDEST PUSH1 0x1F ADD PUSH1 0x5 SHR ADD SWAP2 JUMPDEST DUP3 DUP2 LT PUSH2 0x1A53 JUMPI POP POP POP JUMP JUMPDEST DUP2 DUP2 SSTORE PUSH1 0x1 ADD PUSH2 0x1A47 JUMP JUMPDEST SWAP1 SWAP3 POP DUP3 SWAP1 PUSH2 0x1A3E JUMP JUMPDEST SWAP2 SWAP3 SWAP1 ISZERO PUSH2 0x1ACA JUMPI POP DUP2 MLOAD ISZERO PUSH2 0x1A7C JUMPI POP SWAP1 JUMP JUMPDEST EXTCODESIZE ISZERO PUSH2 0x1A85 JUMPI SWAP1 JUMP JUMPDEST PUSH1 0x40 MLOAD PUSH3 0x461BCD PUSH1 0xE5 SHL DUP2 MSTORE PUSH1 0x20 PUSH1 0x4 DUP3 ADD MSTORE PUSH1 0x1D PUSH1 0x24 DUP3 ADD MSTORE PUSH32 0x416464726573733A2063616C6C20746F206E6F6E2D636F6E7472616374000000 PUSH1 0x44 DUP3 ADD MSTORE PUSH1 0x64 SWAP1 REVERT JUMPDEST DUP3 MLOAD SWAP1 SWAP2 POP ISZERO PUSH2 0x1ADD JUMPI POP DUP1 MLOAD SWAP1 PUSH1 0x20 ADD REVERT JUMPDEST PUSH1 0x40 MLOAD PUSH3 0x461BCD PUSH1 0xE5 SHL DUP2 MSTORE PUSH1 0x20 PUSH1 0x4 DUP3 ADD MSTORE SWAP1 DUP2 SWAP1 PUSH2 0x1B01 SWAP1 PUSH1 0x24 DUP4 ADD SWAP1 PUSH2 0x1709 JUMP JUMPDEST SUB SWAP1 REVERT INVALID LOG2 PUSH5 0x6970667358 0x22 SLT KECCAK256 0x4F 0xBD DUP11 RETURNDATACOPY 0xD9 SWAP1 0x23 SELFDESTRUCT 0x27 0xEE CREATE CALLDATASIZE BALANCE LOG0 0xEE 0xE8 MULMOD CODECOPY 0xB5 PUSH32 0xD09C244BA70218C4C311630A64736F6C63430008180033000000000000000000 "},"methodIdentifiers":{"allowlistDestinationChain(uint64,bool)":"96d3b83d","allowlistSender(address,bool)":"eab5b02c","allowlistSourceChain(uint64,bool)":"db04fa49","allowlistedDestinationChains(uint64)":"75c67c66","allowlistedSenders(address)":"6159ada1","allowlistedSourceChains(uint64)":"4030d521","ccipReceive((bytes32,uint64,bytes,bytes,(address,uint256)[]))":"85572ffb","gasLimit()":"f68016b7","getReceivedProof(bytes32)":"9eda1233","getRouter()":"b0f479a1","isCrossChainStateVerified(bytes32)":"1aa085e9","owner()":"8da5cb5b","receivedProofs(bytes32)":"11d7360e","requestCrossChainVerification(string,uint256)":"7022a656","sendProofCrossChain(uint64,address,bytes32,bytes,bytes,uint256,string)":"c3b0b100","setGasLimit(uint256)":"ee7d72b4","setZKAggregator(address)":"39e69b9e","supportsInterface(bytes4)":"01ffc9a7","verifiedCrossChainStates(bytes32)":"6592a397","withdraw(address)":"51cff8d9","withdrawToken(address,address)":"3aeac4e1"}}}}}