{"@chainlink/contracts/src/v0.8/vrf/dev/libraries/VRFV2PlusClient.sol":{"VRFV2PlusClient":{"abi":[{"inputs":[],"name":"EXTRA_ARGS_V1_TAG","outputs":[{"internalType":"bytes4","name":"","type":"bytes4"}],"stateMutability":"view","type":"function"}],"evm":{"bytecode":{"linkReferences":{},"object":"60808060405234601857607b908161001e823930815050f35b600080fdfe6080806040526004361015601257600080fd5b60003560e01c63f7514ab414602657600080fd5b600036600319011260405763125fa26760e31b8152602090f35b600080fdfea26469706673582212201b508d30de1c8feb78b6071d0130072b281c8bd5f747c522c7d89701a219fb8164736f6c63430008180033","opcodes":"PUSH1 0x80 DUP1 PUSH1 0x40 MSTORE CALLVALUE PUSH1 0x18 JUMPI PUSH1 0x7B SWAP1 DUP2 PUSH2 0x1E DUP3 CODECOPY ADDRESS DUP2 POP POP RETURN JUMPDEST PUSH1 0x0 DUP1 REVERT INVALID PUSH1 0x80 DUP1 PUSH1 0x40 MSTORE PUSH1 0x4 CALLDATASIZE LT ISZERO PUSH1 0x12 JUMPI PUSH1 0x0 DUP1 REVERT JUMPDEST PUSH1 0x0 CALLDATALOAD PUSH1 0xE0 SHR PUSH4 0xF7514AB4 EQ PUSH1 0x26 JUMPI PUSH1 0x0 DUP1 REVERT JUMPDEST PUSH1 0x0 CALLDATASIZE PUSH1 0x3 NOT ADD SLT PUSH1 0x40 JUMPI PUSH4 0x125FA267 PUSH1 0xE3 SHL DUP2 MSTORE PUSH1 0x20 SWAP1 RETURN JUMPDEST PUSH1 0x0 DUP1 REVERT INVALID LOG2 PUSH5 0x6970667358 0x22 SLT KECCAK256 SHL POP DUP14 ADDRESS 0xDE SHR DUP16 0xEB PUSH25 0xB6071D0130072B281C8BD5F747C522C7D89701A219FB816473 PUSH16 0x6C634300081800330000000000000000 "},"methodIdentifiers":{"EXTRA_ARGS_V1_TAG()":"f7514ab4"}}}}}