{"contracts/Groth16Verifier.sol":{"Groth16Verifier":{"abi":[{"inputs":[],"stateMutability":"nonpayable","type":"constructor"},{"anonymous":false,"inputs":[],"name":"VerifyingKeyChanged","type":"event"},{"inputs":[{"internalType":"uint256[2]","name":"a","type":"uint256[2]"},{"internalType":"uint256[2][2]","name":"b","type":"uint256[2][2]"},{"internalType":"uint256[2]","name":"c","type":"uint256[2]"},{"internalType":"uint256[]","name":"input","type":"uint256[]"}],"name":"verifyProof","outputs":[{"internalType":"bool","name":"","type":"bool"}],"stateMutability":"view","type":"function"},{"inputs":[{"components":[{"components":[{"internalType":"uint256","name":"x","type":"uint256"},{"internalType":"uint256","name":"y","type":"uint256"}],"internalType":"struct Pairing.G1Point","name":"a","type":"tuple"},{"components":[{"internalType":"uint256[2]","name":"x","type":"uint256[2]"},{"internalType":"uint256[2]","name":"y","type":"uint256[2]"}],"internalType":"struct Pairing.G2Point","name":"b","type":"tuple"},{"components":[{"internalType":"uint256","name":"x","type":"uint256"},{"internalType":"uint256","name":"y","type":"uint256"}],"internalType":"struct Pairing.G1Point","name":"c","type":"tuple"}],"internalType":"struct Groth16Verifier.Proof","name":"proof","type":"tuple"},{"internalType":"uint256[]","name":"input","type":"uint256[]"}],"name":"verifyTx","outputs":[{"internalType":"bool","name":"","type":"bool"}],"stateMutability":"view","type":"function"}],"evm":{"bytecode":{"linkReferences":{},"object":"60806040523462000532576200001462000537565b7f2d4d9aa7e302d9df41749d5507949d05dbea33fbb16c643b22f599a2be6df2e28082527f14bedd503c37ceb061d8ec60209fe345ce89830a19230301f076caff004d19269182602080920152600091825560019283556200007562000537565b7f0967032fcbf776d1afc985f88877f182d38480a653f2decaa9794cbc3bf3060c81527f0e187847ad4c798374d0d6732bf501847dd68bc0e071241e0213bc7fc13db7ab82820152620000c762000537565b907f304cfbd1e08a704a99f5e847d93f8c3caafddec46b7a0d379da69a4d112346a782527f1739c1b1a457a8c7313123d24d2f9192f896b7c63eea05a9d57f06547ad0cec88383015281836200011c62000537565b83815201529184845b60029485821015620001435781848251920196015501859062000125565b8284888783825b600281106200051e575050506200016062000537565b7f198e9393920d483a7260bfb731fb5d25f1aa493335a9e71297e485b7aef312c281527f1800deef121f1e76426a00665e5c4479674322d4f75edadd46debd5cd992f6ed83820152620001b262000537565b907f090689d0585ff075ec9e99ad690c3395bc4b313370b38ef355acdadcd122975b82527f12c85ea5db8c6deb4aab71808dcb408fe3d1e7690c43d37b4ce6cc0166fa7daa8483015281846200020762000537565b838152015284835b600281106200050a5750505083825b60028110620004f6575050506200023462000537565b7f260e01b251f6f1c7e7ff4e580791dee8ea51d87a358e038b4efe30fac09383c181527f0118c4d5b837bcc2bc89b5b398b5974e9f5944073b32078b7e231fec938883b0838201526200028662000537565b907f04fc6369f7110fe3d25156c1bb9a72859cf2a04641f99ba4ee413c80da6a5fe482527f22febda3c0c0632a56475b4214e5615e11e6dd3f96e6cea2854a87d4dacc5e55848301528184620002db62000537565b838152015284835b60028110620004e257505050905b60028110620004cf57620004bf836200035b6200030d62000537565b7f1f39f65dc48c11e29a9b88f2b85b35bf4ed1e3b95b4a5f1a8d2e3f4a5b6c7d8e81527f2a4b5c6d7e8f9a0b1c2d3e4f5a6b7c8d9e0f1a2b3c4d5e6f7a8b9c0d1e2f3a4b838201526200056d565b620003b56200036962000537565b7e5c7d8e9f0a1b2c3d4e5f6a7b8c9d0e1f2a3b4c5d6e7f8a9b0c1d2e3f4a5b6c81527e7d8e9f0a1b2c3d4e5f6a7b8c9d0e1f2a3b4c5d6e7f8a9b0c1d2e3f4a5b6c7d838201526200056d565b6200040f620003c362000537565b7e9f0a1b2c3d4e5f6a7b8c9d0e1f2a3b4c5d6e7f8a9b0c1d2e3f4a5b6c7d8e9f81527e1a2b3c4d5e6f7a8b9c0d1e2f3a4b5c6d7e8f9a0b1c2d3e4f5a6b7c8d9e0f1a838201526200056d565b620004696200041d62000537565b7e3b4c5d6e7f8a9b0c1d2e3f4a5b6c7d8e9f0a1b2c3d4e5f6a7b8c9d0e1f2a3b81527e5d6e7f8a9b0c1d2e3f4a5b6c7d8e9f0a1b2c3d4e5f6a7b8c9d0e1f2a3b4c5d838201526200056d565b7e9a0b1c2d3e4f5a6b7c8d9e0f1a2b3c4d5e6f7a8b9c0d1e2f3a4b5c6d7e8f9a6200049362000537565b917e7f8a9b0c1d2e3f4a5b6c7d8e9f0a1b2c3d4e5f6a7b8c9d0e1f2a3b4c5d6e7f83528201526200056d565b604051610dcf9081620005c78239f35b8151600c820155908201908301620002f1565b85835193019281600a0155018590620002e3565b84835193019281600801550184906200021e565b85835193019281600601550185906200020f565b84835193019281600401550184906200014a565b600080fd5b60408051919082016001600160401b038111838210176200055757604052565b634e487b7160e01b600052604160045260246000fd5b600e546801000000000000000081101562000557576001810180600e55811015620005b0576020600191600e6000528160002090831b0192805184550151910155565b634e487b7160e01b600052603260045260246000fdfe60406080604052600436101561001457600080fd5b600090813560e01c918263c32e370e1461003e57505063c94176471461003957600080fd5b6103bb565b346100d9576101203660031901126100d957610059366101a1565b9136606312156100f9576040519061007082610113565b60c4823682116100f5576044905b8282106100dc5750505050610092366101e8565b91610104359067ffffffffffffffff82116100d9576100d56100c38686866100bd366004890161030b565b92610588565b60405190151581529081906020820190565b0390f35b80fd5b602084916100ea36856102ae565b81520191019061007e565b8480fd5b5080fd5b634e487b7160e01b600052604160045260246000fd5b6040810190811067ffffffffffffffff82111761012f57604052565b6100fd565b6060810190811067ffffffffffffffff82111761012f57604052565b90601f8019910116810190811067ffffffffffffffff82111761012f57604052565b6040519061017f82610113565b565b604051906080820182811067ffffffffffffffff82111761012f57604052565b80602312156101e357604051906101b782610113565b816044916044116101e3576004905b8282106101d35750505090565b81358152602091820191016101c6565b600080fd5b8060e312156101e357604051906101fe82610113565b816101049182116101e35760c4905b82821061021a5750505090565b813581526020918201910161020d565b80606312156101e3576040519061024082610113565b816084916084116101e3576044905b82821061025c5750505090565b813581526020918201910161024f565b8060a312156101e3576040519061028282610113565b8160c49160c4116101e3576084905b82821061029e5750505090565b8135815260209182019101610291565b9080601f830112156101e357604051916102c783610113565b8290604081019283116101e357905b8282106102e35750505090565b81358152602091820191016102d6565b67ffffffffffffffff811161012f5760051b60200190565b9080601f830112156101e3576020908235610325816102f3565b936103336040519586610150565b81855260208086019260051b8201019283116101e357602001905b82821061035c575050505090565b8135815290830190830161034e565b60409060031901126101e3576040519061038482610113565b60043582526024356020830152565b60409060c31901126101e357604051906103ac82610113565b60c435825260e4356020830152565b346101e357366003190161012081126101e357610100136101e3576040516103e281610134565b6103eb3661036b565b815260803660431901126101e35760405161040581610113565b61040e3661022a565b81526104193661026c565b6020820152602082015261042c36610393565b60408201526101043567ffffffffffffffff81116101e3576100d5916104596100c392369060040161030b565b9061091b565b6040519061046c82610113565b60006020838281520152565b604051906020820182811067ffffffffffffffff82111761012f576040526020368337565b60409081516104ab81610134565b80926104b561045f565b825280516104c281610113565b81516104cd81610113565b82368237815281516104de81610113565b82368237602082015260208301526104f461045f565b910152565b634e487b7160e01b600052603260045260246000fd5b60405190610320820182811067ffffffffffffffff82111761012f5760405260188252610300366020840137565b90610547826102f3565b6105546040519182610150565b8281528092610565601f19916102f3565b0190602036910137565b80518210156105835760209160051b010190565b6104f9565b939190929361059561049d565b9381516020809301516105a6610172565b9182528382015285526105b7610172565b9080515182526105c8815160200190565b51838301526105e7836105d9610172565b920180515183525160200190565b51838201526105f4610172565b91825282820152818501528082519201519061060e610172565b9283528201526040830152610623835161053d565b9060005b845181101561064f578061063d6001928761056f565b51610648828661056f565b5201610627565b50925061065b9161091b565b90565b634e487b7160e01b600052601160045260246000fd5b906001820180921161068257565b61065e565b906002820180921161068257565b906003820180921161068257565b906004820180921161068257565b906005820180921161068257565b156106c657565b60405162461bcd60e51b815260206004820152600f60248201526e496e70757420746f6f206c6172676560881b6044820152606490fd5b600e5481101561058357600e60005260011b7fbb7b4a454dc3493923482f07822329ed19e8244eff582cc204f8554c3620c3fd0190600090565b600e541561058357600e6000527fbb7b4a454dc3493923482f07822329ed19e8244eff582cc204f8554c3620c3fd90600090565b6040519061077882610113565b60005482526001546020830152565b9060405161079481610113565b602060018294805484520154910152565b604051906107b282610113565b6040516002908390826000825b85821061080f575050506107d281610113565b81526040519160006004845b8383106107f957505050506020906107f583610113565b0152565b60016020819284548152019201920191906107de565b60016020819285548152019301910190916107bf565b6040519061083282610113565b604051829060066000825b6002821061088a5750505061085181610113565b81526040519060086000835b60028210610874575050506020906107f583610113565b600160208192855481520193019101909161085d565b600160208192855481520193019101909161083d565b604051906108ad82610113565b6040518290600a6000825b60028210610905575050506108cc81610113565b815260405190600c6000835b600282106108ef575050506020906107f583610113565b60016020819285548152019301910190916108d8565b60016020819285548152019301910190916108b8565b91906109278151610674565b600e5403610a2257610937610172565b6000815260006020820152916000925b82518410156109c7576109bf60019161098b7f30644e72e131a029b85045b68181585d2833e84879b9709143e1f593f0000001610984888861056f565b51106106bf565b6109b961099f61099a88610674565b6106fd565b506109b46109ad898961056f565b5191610787565b610a29565b90610abd565b930192610947565b61065b93506109e4919492506109b96109de610737565b50610787565b6109ee8251610b4e565b916040602082015191015191610a0261076b565b610a0a6107a5565b90610a13610825565b93610a1c6108a0565b96610c31565b5060009150565b91906040906060610a3861045f565b9485926020855192610a4984610134565b8436853780518452015160208301528482015260075afa15610a6757565b60405162461bcd60e51b815260206004820152601c60248201527f5363616c6172206d756c7469706c69636174696f6e206661696c6564000000006044820152606490fd5b9060048110156105835760051b0190565b919091610ac861045f565b92604051608081019080821067ffffffffffffffff83111761012f576020869381604096608095885285368637805185520151828401528051868401520151606082015260065afa15610b1757565b60405162461bcd60e51b815260206004820152600f60248201526e1059191a5d1a5bdb8819985a5b1959608a1b6044820152606490fd5b610b5661045f565b50805190811580610bcc575b15610b83575050604051610b7581610113565b600081526000602082015290565b602001517f30644e72e131a029b85045b68181585d2833e84879b9709143e1f593f00000019081900681039081116106825760405191610bc283610113565b8252602082015290565b50602081015115610b62565b9060068202918083046006149015171561068257565b15610bf557565b60405162461bcd60e51b815260206004820152601460248201527314185a5c9a5b99c818da1958dac819985a5b195960621b6044820152606490fd5b9396929095949194610c41610181565b94855260209788968787015260408601526060850152610c5f610181565b9586528486015260408501526060840152610c7861050f565b9260005b60048110610ca957505050610ca391610300610c96610478565b9485920160085afa610bee565b51151590565b829350610cb98160019394610aac565b5151610ccd610cc783610bd8565b8761056f565b5285610cd98286610aac565b510151610cf0610cc7610ceb84610bd8565b610674565b52610cfb8184610aac565b515151610d12610cc7610d0d84610bd8565b610687565b52610d28610d208285610aac565b515160200190565b51610d3d610cc7610d3884610bd8565b610695565b5285610d498285610aac565b51015151610d61610cc7610d5c84610bd8565b6106a3565b52610d7986610d708386610aac565b51015160200190565b51610d8e610cc7610d8984610bd8565b6106b1565b520190849291610c7c56fea2646970667358221220b1721e8f4efaaa9466a9ef1634eb92d1fd24b2c3f0f889b0ae70e99f868b917664736f6c63430008180033","opcodes":"PUSH1 0x80 PUSH1 0x40 MSTORE CALLVALUE PUSH3 0x532 JUMPI PUSH3 0x14 PUSH3 0x537 JUMP JUMPDEST PUSH32 0x2D4D9AA7E302D9DF41749D5507949D05DBEA33FBB16C643B22F599A2BE6DF2E2 DUP1 DUP3 MSTORE PUSH32 0x14BEDD503C37CEB061D8EC60209FE345CE89830A19230301F076CAFF004D1926 SWAP2 DUP3 PUSH1 0x20 DUP1 SWAP3 ADD MSTORE PUSH1 0x0 SWAP2 DUP3 SSTORE PUSH1 0x1 SWAP3 DUP4 SSTORE PUSH3 0x75 PUSH3 0x537 JUMP JUMPDEST PUSH32 0x967032FCBF776D1AFC985F88877F182D38480A653F2DECAA9794CBC3BF3060C DUP2 MSTORE PUSH32 0xE187847AD4C798374D0D6732BF501847DD68BC0E071241E0213BC7FC13DB7AB DUP3 DUP3 ADD MSTORE PUSH3 0xC7 PUSH3 0x537 JUMP JUMPDEST SWAP1 PUSH32 0x304CFBD1E08A704A99F5E847D93F8C3CAAFDDEC46B7A0D379DA69A4D112346A7 DUP3 MSTORE PUSH32 0x1739C1B1A457A8C7313123D24D2F9192F896B7C63EEA05A9D57F06547AD0CEC8 DUP4 DUP4 ADD MSTORE DUP2 DUP4 PUSH3 0x11C PUSH3 0x537 JUMP JUMPDEST DUP4 DUP2 MSTORE ADD MSTORE SWAP2 DUP5 DUP5 JUMPDEST PUSH1 0x2 SWAP5 DUP6 DUP3 LT ISZERO PUSH3 0x143 JUMPI DUP2 DUP5 DUP3 MLOAD SWAP3 ADD SWAP7 ADD SSTORE ADD DUP6 SWAP1 PUSH3 0x125 JUMP JUMPDEST DUP3 DUP5 DUP9 DUP8 DUP4 DUP3 JUMPDEST PUSH1 0x2 DUP2 LT PUSH3 0x51E JUMPI POP POP POP PUSH3 0x160 PUSH3 0x537 JUMP JUMPDEST PUSH32 0x198E9393920D483A7260BFB731FB5D25F1AA493335A9E71297E485B7AEF312C2 DUP2 MSTORE PUSH32 0x1800DEEF121F1E76426A00665E5C4479674322D4F75EDADD46DEBD5CD992F6ED DUP4 DUP3 ADD MSTORE PUSH3 0x1B2 PUSH3 0x537 JUMP JUMPDEST SWAP1 PUSH32 0x90689D0585FF075EC9E99AD690C3395BC4B313370B38EF355ACDADCD122975B DUP3 MSTORE PUSH32 0x12C85EA5DB8C6DEB4AAB71808DCB408FE3D1E7690C43D37B4CE6CC0166FA7DAA DUP5 DUP4 ADD MSTORE DUP2 DUP5 PUSH3 0x207 PUSH3 0x537 JUMP JUMPDEST DUP4 DUP2 MSTORE ADD MSTORE DUP5 DUP4 JUMPDEST PUSH1 0x2 DUP2 LT PUSH3 0x50A JUMPI POP POP POP DUP4 DUP3 JUMPDEST PUSH1 0x2 DUP2 LT PUSH3 0x4F6 JUMPI POP POP POP PUSH3 0x234 PUSH3 0x537 JUMP JUMPDEST PUSH32 0x260E01B251F6F1C7E7FF4E580791DEE8EA51D87A358E038B4EFE30FAC09383C1 DUP2 MSTORE PUSH32 0x118C4D5B837BCC2BC89B5B398B5974E9F5944073B32078B7E231FEC938883B0 DUP4 DUP3 ADD MSTORE PUSH3 0x286 PUSH3 0x537 JUMP JUMPDEST SWAP1 PUSH32 0x4FC6369F7110FE3D25156C1BB9A72859CF2A04641F99BA4EE413C80DA6A5FE4 DUP3 MSTORE PUSH32 0x22FEBDA3C0C0632A56475B4214E5615E11E6DD3F96E6CEA2854A87D4DACC5E55 DUP5 DUP4 ADD MSTORE DUP2 DUP5 PUSH3 0x2DB PUSH3 0x537 JUMP JUMPDEST DUP4 DUP2 MSTORE ADD MSTORE DUP5 DUP4 JUMPDEST PUSH1 0x2 DUP2 LT PUSH3 0x4E2 JUMPI POP POP POP SWAP1 JUMPDEST PUSH1 0x2 DUP2 LT PUSH3 0x4CF JUMPI PUSH3 0x4BF DUP4 PUSH3 0x35B PUSH3 0x30D PUSH3 0x537 JUMP JUMPDEST PUSH32 0x1F39F65DC48C11E29A9B88F2B85B35BF4ED1E3B95B4A5F1A8D2E3F4A5B6C7D8E DUP2 MSTORE PUSH32 0x2A4B5C6D7E8F9A0B1C2D3E4F5A6B7C8D9E0F1A2B3C4D5E6F7A8B9C0D1E2F3A4B DUP4 DUP3 ADD MSTORE PUSH3 0x56D JUMP JUMPDEST PUSH3 0x3B5 PUSH3 0x369 PUSH3 0x537 JUMP JUMPDEST PUSH31 0x5C7D8E9F0A1B2C3D4E5F6A7B8C9D0E1F2A3B4C5D6E7F8A9B0C1D2E3F4A5B6C DUP2 MSTORE PUSH31 0x7D8E9F0A1B2C3D4E5F6A7B8C9D0E1F2A3B4C5D6E7F8A9B0C1D2E3F4A5B6C7D DUP4 DUP3 ADD MSTORE PUSH3 0x56D JUMP JUMPDEST PUSH3 0x40F PUSH3 0x3C3 PUSH3 0x537 JUMP JUMPDEST PUSH31 0x9F0A1B2C3D4E5F6A7B8C9D0E1F2A3B4C5D6E7F8A9B0C1D2E3F4A5B6C7D8E9F DUP2 MSTORE PUSH31 0x1A2B3C4D5E6F7A8B9C0D1E2F3A4B5C6D7E8F9A0B1C2D3E4F5A6B7C8D9E0F1A DUP4 DUP3 ADD MSTORE PUSH3 0x56D JUMP JUMPDEST PUSH3 0x469 PUSH3 0x41D PUSH3 0x537 JUMP JUMPDEST PUSH31 0x3B4C5D6E7F8A9B0C1D2E3F4A5B6C7D8E9F0A1B2C3D4E5F6A7B8C9D0E1F2A3B DUP2 MSTORE PUSH31 0x5D6E7F8A9B0C1D2E3F4A5B6C7D8E9F0A1B2C3D4E5F6A7B8C9D0E1F2A3B4C5D DUP4 DUP3 ADD MSTORE PUSH3 0x56D JUMP JUMPDEST PUSH31 0x9A0B1C2D3E4F5A6B7C8D9E0F1A2B3C4D5E6F7A8B9C0D1E2F3A4B5C6D7E8F9A PUSH3 0x493 PUSH3 0x537 JUMP JUMPDEST SWAP2 PUSH31 0x7F8A9B0C1D2E3F4A5B6C7D8E9F0A1B2C3D4E5F6A7B8C9D0E1F2A3B4C5D6E7F DUP4 MSTORE DUP3 ADD MSTORE PUSH3 0x56D JUMP JUMPDEST PUSH1 0x40 MLOAD PUSH2 0xDCF SWAP1 DUP2 PUSH3 0x5C7 DUP3 CODECOPY RETURN JUMPDEST DUP2 MLOAD PUSH1 0xC DUP3 ADD SSTORE SWAP1 DUP3 ADD SWAP1 DUP4 ADD PUSH3 0x2F1 JUMP JUMPDEST DUP6 DUP4 MLOAD SWAP4 ADD SWAP3 DUP2 PUSH1 0xA ADD SSTORE ADD DUP6 SWAP1 PUSH3 0x2E3 JUMP JUMPDEST DUP5 DUP4 MLOAD SWAP4 ADD SWAP3 DUP2 PUSH1 0x8 ADD SSTORE ADD DUP5 SWAP1 PUSH3 0x21E JUMP JUMPDEST DUP6 DUP4 MLOAD SWAP4 ADD SWAP3 DUP2 PUSH1 0x6 ADD SSTORE ADD DUP6 SWAP1 PUSH3 0x20F JUMP JUMPDEST DUP5 DUP4 MLOAD SWAP4 ADD SWAP3 DUP2 PUSH1 0x4 ADD SSTORE ADD DUP5 SWAP1 PUSH3 0x14A JUMP JUMPDEST PUSH1 0x0 DUP1 REVERT JUMPDEST PUSH1 0x40 DUP1 MLOAD SWAP2 SWAP1 DUP3 ADD PUSH1 0x1 PUSH1 0x1 PUSH1 0x40 SHL SUB DUP2 GT DUP4 DUP3 LT OR PUSH3 0x557 JUMPI PUSH1 0x40 MSTORE JUMP JUMPDEST PUSH4 0x4E487B71 PUSH1 0xE0 SHL PUSH1 0x0 MSTORE PUSH1 0x41 PUSH1 0x4 MSTORE PUSH1 0x24 PUSH1 0x0 REVERT JUMPDEST PUSH1 0xE SLOAD PUSH9 0x10000000000000000 DUP2 LT ISZERO PUSH3 0x557 JUMPI PUSH1 0x1 DUP2 ADD DUP1 PUSH1 0xE SSTORE DUP2 LT ISZERO PUSH3 0x5B0 JUMPI PUSH1 0x20 PUSH1 0x1 SWAP2 PUSH1 0xE PUSH1 0x0 MSTORE DUP2 PUSH1 0x0 KECCAK256 SWAP1 DUP4 SHL ADD SWAP3 DUP1 MLOAD DUP5 SSTORE ADD MLOAD SWAP2 ADD SSTORE JUMP JUMPDEST PUSH4 0x4E487B71 PUSH1 0xE0 SHL PUSH1 0x0 MSTORE PUSH1 0x32 PUSH1 0x4 MSTORE PUSH1 0x24 PUSH1 0x0 REVERT INVALID PUSH1 0x40 PUSH1 0x80 PUSH1 0x40 MSTORE PUSH1 0x4 CALLDATASIZE LT ISZERO PUSH2 0x14 JUMPI PUSH1 0x0 DUP1 REVERT JUMPDEST PUSH1 0x0 SWAP1 DUP2 CALLDATALOAD PUSH1 0xE0 SHR SWAP2 DUP3 PUSH4 0xC32E370E EQ PUSH2 0x3E JUMPI POP POP PUSH4 0xC9417647 EQ PUSH2 0x39 JUMPI PUSH1 0x0 DUP1 REVERT JUMPDEST PUSH2 0x3BB JUMP JUMPDEST CALLVALUE PUSH2 0xD9 JUMPI PUSH2 0x120 CALLDATASIZE PUSH1 0x3 NOT ADD SLT PUSH2 0xD9 JUMPI PUSH2 0x59 CALLDATASIZE PUSH2 0x1A1 JUMP JUMPDEST SWAP2 CALLDATASIZE PUSH1 0x63 SLT ISZERO PUSH2 0xF9 JUMPI PUSH1 0x40 MLOAD SWAP1 PUSH2 0x70 DUP3 PUSH2 0x113 JUMP JUMPDEST PUSH1 0xC4 DUP3 CALLDATASIZE DUP3 GT PUSH2 0xF5 JUMPI PUSH1 0x44 SWAP1 JUMPDEST DUP3 DUP3 LT PUSH2 0xDC JUMPI POP POP POP POP PUSH2 0x92 CALLDATASIZE PUSH2 0x1E8 JUMP JUMPDEST SWAP2 PUSH2 0x104 CALLDATALOAD SWAP1 PUSH8 0xFFFFFFFFFFFFFFFF DUP3 GT PUSH2 0xD9 JUMPI PUSH2 0xD5 PUSH2 0xC3 DUP7 DUP7 DUP7 PUSH2 0xBD CALLDATASIZE PUSH1 0x4 DUP10 ADD PUSH2 0x30B JUMP JUMPDEST SWAP3 PUSH2 0x588 JUMP JUMPDEST PUSH1 0x40 MLOAD SWAP1 ISZERO ISZERO DUP2 MSTORE SWAP1 DUP2 SWAP1 PUSH1 0x20 DUP3 ADD SWAP1 JUMP JUMPDEST SUB SWAP1 RETURN JUMPDEST DUP1 REVERT JUMPDEST PUSH1 0x20 DUP5 SWAP2 PUSH2 0xEA CALLDATASIZE DUP6 PUSH2 0x2AE JUMP JUMPDEST DUP2 MSTORE ADD SWAP2 ADD SWAP1 PUSH2 0x7E JUMP JUMPDEST DUP5 DUP1 REVERT JUMPDEST POP DUP1 REVERT JUMPDEST PUSH4 0x4E487B71 PUSH1 0xE0 SHL PUSH1 0x0 MSTORE PUSH1 0x41 PUSH1 0x4 MSTORE PUSH1 0x24 PUSH1 0x0 REVERT JUMPDEST PUSH1 0x40 DUP2 ADD SWAP1 DUP2 LT PUSH8 0xFFFFFFFFFFFFFFFF DUP3 GT OR PUSH2 0x12F JUMPI PUSH1 0x40 MSTORE JUMP JUMPDEST PUSH2 0xFD JUMP JUMPDEST PUSH1 0x60 DUP2 ADD SWAP1 DUP2 LT PUSH8 0xFFFFFFFFFFFFFFFF DUP3 GT OR PUSH2 0x12F JUMPI PUSH1 0x40 MSTORE JUMP JUMPDEST SWAP1 PUSH1 0x1F DUP1 NOT SWAP2 ADD AND DUP2 ADD SWAP1 DUP2 LT PUSH8 0xFFFFFFFFFFFFFFFF DUP3 GT OR PUSH2 0x12F JUMPI PUSH1 0x40 MSTORE JUMP JUMPDEST PUSH1 0x40 MLOAD SWAP1 PUSH2 0x17F DUP3 PUSH2 0x113 JUMP JUMPDEST JUMP JUMPDEST PUSH1 0x40 MLOAD SWAP1 PUSH1 0x80 DUP3 ADD DUP3 DUP2 LT PUSH8 0xFFFFFFFFFFFFFFFF DUP3 GT OR PUSH2 0x12F JUMPI PUSH1 0x40 MSTORE JUMP JUMPDEST DUP1 PUSH1 0x23 SLT ISZERO PUSH2 0x1E3 JUMPI PUSH1 0x40 MLOAD SWAP1 PUSH2 0x1B7 DUP3 PUSH2 0x113 JUMP JUMPDEST DUP2 PUSH1 0x44 SWAP2 PUSH1 0x44 GT PUSH2 0x1E3 JUMPI PUSH1 0x4 SWAP1 JUMPDEST DUP3 DUP3 LT PUSH2 0x1D3 JUMPI POP POP POP SWAP1 JUMP JUMPDEST DUP2 CALLDATALOAD DUP2 MSTORE PUSH1 0x20 SWAP2 DUP3 ADD SWAP2 ADD PUSH2 0x1C6 JUMP JUMPDEST PUSH1 0x0 DUP1 REVERT JUMPDEST DUP1 PUSH1 0xE3 SLT ISZERO PUSH2 0x1E3 JUMPI PUSH1 0x40 MLOAD SWAP1 PUSH2 0x1FE DUP3 PUSH2 0x113 JUMP JUMPDEST DUP2 PUSH2 0x104 SWAP2 DUP3 GT PUSH2 0x1E3 JUMPI PUSH1 0xC4 SWAP1 JUMPDEST DUP3 DUP3 LT PUSH2 0x21A JUMPI POP POP POP SWAP1 JUMP JUMPDEST DUP2 CALLDATALOAD DUP2 MSTORE PUSH1 0x20 SWAP2 DUP3 ADD SWAP2 ADD PUSH2 0x20D JUMP JUMPDEST DUP1 PUSH1 0x63 SLT ISZERO PUSH2 0x1E3 JUMPI PUSH1 0x40 MLOAD SWAP1 PUSH2 0x240 DUP3 PUSH2 0x113 JUMP JUMPDEST DUP2 PUSH1 0x84 SWAP2 PUSH1 0x84 GT PUSH2 0x1E3 JUMPI PUSH1 0x44 SWAP1 JUMPDEST DUP3 DUP3 LT PUSH2 0x25C JUMPI POP POP POP SWAP1 JUMP JUMPDEST DUP2 CALLDATALOAD DUP2 MSTORE PUSH1 0x20 SWAP2 DUP3 ADD SWAP2 ADD PUSH2 0x24F JUMP JUMPDEST DUP1 PUSH1 0xA3 SLT ISZERO PUSH2 0x1E3 JUMPI PUSH1 0x40 MLOAD SWAP1 PUSH2 0x282 DUP3 PUSH2 0x113 JUMP JUMPDEST DUP2 PUSH1 0xC4 SWAP2 PUSH1 0xC4 GT PUSH2 0x1E3 JUMPI PUSH1 0x84 SWAP1 JUMPDEST DUP3 DUP3 LT PUSH2 0x29E JUMPI POP POP POP SWAP1 JUMP JUMPDEST DUP2 CALLDATALOAD DUP2 MSTORE PUSH1 0x20 SWAP2 DUP3 ADD SWAP2 ADD PUSH2 0x291 JUMP JUMPDEST SWAP1 DUP1 PUSH1 0x1F DUP4 ADD SLT ISZERO PUSH2 0x1E3 JUMPI PUSH1 0x40 MLOAD SWAP2 PUSH2 0x2C7 DUP4 PUSH2 0x113 JUMP JUMPDEST DUP3 SWAP1 PUSH1 0x40 DUP2 ADD SWAP3 DUP4 GT PUSH2 0x1E3 JUMPI SWAP1 JUMPDEST DUP3 DUP3 LT PUSH2 0x2E3 JUMPI POP POP POP SWAP1 JUMP JUMPDEST DUP2 CALLDATALOAD DUP2 MSTORE PUSH1 0x20 SWAP2 DUP3 ADD SWAP2 ADD PUSH2 0x2D6 JUMP JUMPDEST PUSH8 0xFFFFFFFFFFFFFFFF DUP2 GT PUSH2 0x12F JUMPI PUSH1 0x5 SHL PUSH1 0x20 ADD SWAP1 JUMP JUMPDEST SWAP1 DUP1 PUSH1 0x1F DUP4 ADD SLT ISZERO PUSH2 0x1E3 JUMPI PUSH1 0x20 SWAP1 DUP3 CALLDATALOAD PUSH2 0x325 DUP2 PUSH2 0x2F3 JUMP JUMPDEST SWAP4 PUSH2 0x333 PUSH1 0x40 MLOAD SWAP6 DUP7 PUSH2 0x150 JUMP JUMPDEST DUP2 DUP6 MSTORE PUSH1 0x20 DUP1 DUP7 ADD SWAP3 PUSH1 0x5 SHL DUP3 ADD ADD SWAP3 DUP4 GT PUSH2 0x1E3 JUMPI PUSH1 0x20 ADD SWAP1 JUMPDEST DUP3 DUP3 LT PUSH2 0x35C JUMPI POP POP POP POP SWAP1 JUMP JUMPDEST DUP2 CALLDATALOAD DUP2 MSTORE SWAP1 DUP4 ADD SWAP1 DUP4 ADD PUSH2 0x34E JUMP JUMPDEST PUSH1 0x40 SWAP1 PUSH1 0x3 NOT ADD SLT PUSH2 0x1E3 JUMPI PUSH1 0x40 MLOAD SWAP1 PUSH2 0x384 DUP3 PUSH2 0x113 JUMP JUMPDEST PUSH1 0x4 CALLDATALOAD DUP3 MSTORE PUSH1 0x24 CALLDATALOAD PUSH1 0x20 DUP4 ADD MSTORE JUMP JUMPDEST PUSH1 0x40 SWAP1 PUSH1 0xC3 NOT ADD SLT PUSH2 0x1E3 JUMPI PUSH1 0x40 MLOAD SWAP1 PUSH2 0x3AC DUP3 PUSH2 0x113 JUMP JUMPDEST PUSH1 0xC4 CALLDATALOAD DUP3 MSTORE PUSH1 0xE4 CALLDATALOAD PUSH1 0x20 DUP4 ADD MSTORE JUMP JUMPDEST CALLVALUE PUSH2 0x1E3 JUMPI CALLDATASIZE PUSH1 0x3 NOT ADD PUSH2 0x120 DUP2 SLT PUSH2 0x1E3 JUMPI PUSH2 0x100 SGT PUSH2 0x1E3 JUMPI PUSH1 0x40 MLOAD PUSH2 0x3E2 DUP2 PUSH2 0x134 JUMP JUMPDEST PUSH2 0x3EB CALLDATASIZE PUSH2 0x36B JUMP JUMPDEST DUP2 MSTORE PUSH1 0x80 CALLDATASIZE PUSH1 0x43 NOT ADD SLT PUSH2 0x1E3 JUMPI PUSH1 0x40 MLOAD PUSH2 0x405 DUP2 PUSH2 0x113 JUMP JUMPDEST PUSH2 0x40E CALLDATASIZE PUSH2 0x22A JUMP JUMPDEST DUP2 MSTORE PUSH2 0x419 CALLDATASIZE PUSH2 0x26C JUMP JUMPDEST PUSH1 0x20 DUP3 ADD MSTORE PUSH1 0x20 DUP3 ADD MSTORE PUSH2 0x42C CALLDATASIZE PUSH2 0x393 JUMP JUMPDEST PUSH1 0x40 DUP3 ADD MSTORE PUSH2 0x104 CALLDATALOAD PUSH8 0xFFFFFFFFFFFFFFFF DUP2 GT PUSH2 0x1E3 JUMPI PUSH2 0xD5 SWAP2 PUSH2 0x459 PUSH2 0xC3 SWAP3 CALLDATASIZE SWAP1 PUSH1 0x4 ADD PUSH2 0x30B JUMP JUMPDEST SWAP1 PUSH2 0x91B JUMP JUMPDEST PUSH1 0x40 MLOAD SWAP1 PUSH2 0x46C DUP3 PUSH2 0x113 JUMP JUMPDEST PUSH1 0x0 PUSH1 0x20 DUP4 DUP3 DUP2 MSTORE ADD MSTORE JUMP JUMPDEST PUSH1 0x40 MLOAD SWAP1 PUSH1 0x20 DUP3 ADD DUP3 DUP2 LT PUSH8 0xFFFFFFFFFFFFFFFF DUP3 GT OR PUSH2 0x12F JUMPI PUSH1 0x40 MSTORE PUSH1 0x20 CALLDATASIZE DUP4 CALLDATACOPY JUMP JUMPDEST PUSH1 0x40 SWAP1 DUP2 MLOAD PUSH2 0x4AB DUP2 PUSH2 0x134 JUMP JUMPDEST DUP1 SWAP3 PUSH2 0x4B5 PUSH2 0x45F JUMP JUMPDEST DUP3 MSTORE DUP1 MLOAD PUSH2 0x4C2 DUP2 PUSH2 0x113 JUMP JUMPDEST DUP2 MLOAD PUSH2 0x4CD DUP2 PUSH2 0x113 JUMP JUMPDEST DUP3 CALLDATASIZE DUP3 CALLDATACOPY DUP2 MSTORE DUP2 MLOAD PUSH2 0x4DE DUP2 PUSH2 0x113 JUMP JUMPDEST DUP3 CALLDATASIZE DUP3 CALLDATACOPY PUSH1 0x20 DUP3 ADD MSTORE PUSH1 0x20 DUP4 ADD MSTORE PUSH2 0x4F4 PUSH2 0x45F JUMP JUMPDEST SWAP2 ADD MSTORE JUMP JUMPDEST PUSH4 0x4E487B71 PUSH1 0xE0 SHL PUSH1 0x0 MSTORE PUSH1 0x32 PUSH1 0x4 MSTORE PUSH1 0x24 PUSH1 0x0 REVERT JUMPDEST PUSH1 0x40 MLOAD SWAP1 PUSH2 0x320 DUP3 ADD DUP3 DUP2 LT PUSH8 0xFFFFFFFFFFFFFFFF DUP3 GT OR PUSH2 0x12F JUMPI PUSH1 0x40 MSTORE PUSH1 0x18 DUP3 MSTORE PUSH2 0x300 CALLDATASIZE PUSH1 0x20 DUP5 ADD CALLDATACOPY JUMP JUMPDEST SWAP1 PUSH2 0x547 DUP3 PUSH2 0x2F3 JUMP JUMPDEST PUSH2 0x554 PUSH1 0x40 MLOAD SWAP2 DUP3 PUSH2 0x150 JUMP JUMPDEST DUP3 DUP2 MSTORE DUP1 SWAP3 PUSH2 0x565 PUSH1 0x1F NOT SWAP2 PUSH2 0x2F3 JUMP JUMPDEST ADD SWAP1 PUSH1 0x20 CALLDATASIZE SWAP2 ADD CALLDATACOPY JUMP JUMPDEST DUP1 MLOAD DUP3 LT ISZERO PUSH2 0x583 JUMPI PUSH1 0x20 SWAP2 PUSH1 0x5 SHL ADD ADD SWAP1 JUMP JUMPDEST PUSH2 0x4F9 JUMP JUMPDEST SWAP4 SWAP2 SWAP1 SWAP3 SWAP4 PUSH2 0x595 PUSH2 0x49D JUMP JUMPDEST SWAP4 DUP2 MLOAD PUSH1 0x20 DUP1 SWAP4 ADD MLOAD PUSH2 0x5A6 PUSH2 0x172 JUMP JUMPDEST SWAP2 DUP3 MSTORE DUP4 DUP3 ADD MSTORE DUP6 MSTORE PUSH2 0x5B7 PUSH2 0x172 JUMP JUMPDEST SWAP1 DUP1 MLOAD MLOAD DUP3 MSTORE PUSH2 0x5C8 DUP2 MLOAD PUSH1 0x20 ADD SWAP1 JUMP JUMPDEST MLOAD DUP4 DUP4 ADD MSTORE PUSH2 0x5E7 DUP4 PUSH2 0x5D9 PUSH2 0x172 JUMP JUMPDEST SWAP3 ADD DUP1 MLOAD MLOAD DUP4 MSTORE MLOAD PUSH1 0x20 ADD SWAP1 JUMP JUMPDEST MLOAD DUP4 DUP3 ADD MSTORE PUSH2 0x5F4 PUSH2 0x172 JUMP JUMPDEST SWAP2 DUP3 MSTORE DUP3 DUP3 ADD MSTORE DUP2 DUP6 ADD MSTORE DUP1 DUP3 MLOAD SWAP3 ADD MLOAD SWAP1 PUSH2 0x60E PUSH2 0x172 JUMP JUMPDEST SWAP3 DUP4 MSTORE DUP3 ADD MSTORE PUSH1 0x40 DUP4 ADD MSTORE PUSH2 0x623 DUP4 MLOAD PUSH2 0x53D JUMP JUMPDEST SWAP1 PUSH1 0x0 JUMPDEST DUP5 MLOAD DUP2 LT ISZERO PUSH2 0x64F JUMPI DUP1 PUSH2 0x63D PUSH1 0x1 SWAP3 DUP8 PUSH2 0x56F JUMP JUMPDEST MLOAD PUSH2 0x648 DUP3 DUP7 PUSH2 0x56F JUMP JUMPDEST MSTORE ADD PUSH2 0x627 JUMP JUMPDEST POP SWAP3 POP PUSH2 0x65B SWAP2 PUSH2 0x91B JUMP JUMPDEST SWAP1 JUMP JUMPDEST PUSH4 0x4E487B71 PUSH1 0xE0 SHL PUSH1 0x0 MSTORE PUSH1 0x11 PUSH1 0x4 MSTORE PUSH1 0x24 PUSH1 0x0 REVERT JUMPDEST SWAP1 PUSH1 0x1 DUP3 ADD DUP1 SWAP3 GT PUSH2 0x682 JUMPI JUMP JUMPDEST PUSH2 0x65E JUMP JUMPDEST SWAP1 PUSH1 0x2 DUP3 ADD DUP1 SWAP3 GT PUSH2 0x682 JUMPI JUMP JUMPDEST SWAP1 PUSH1 0x3 DUP3 ADD DUP1 SWAP3 GT PUSH2 0x682 JUMPI JUMP JUMPDEST SWAP1 PUSH1 0x4 DUP3 ADD DUP1 SWAP3 GT PUSH2 0x682 JUMPI JUMP JUMPDEST SWAP1 PUSH1 0x5 DUP3 ADD DUP1 SWAP3 GT PUSH2 0x682 JUMPI JUMP JUMPDEST ISZERO PUSH2 0x6C6 JUMPI JUMP JUMPDEST PUSH1 0x40 MLOAD PUSH3 0x461BCD PUSH1 0xE5 SHL DUP2 MSTORE PUSH1 0x20 PUSH1 0x4 DUP3 ADD MSTORE PUSH1 0xF PUSH1 0x24 DUP3 ADD MSTORE PUSH15 0x496E70757420746F6F206C61726765 PUSH1 0x88 SHL PUSH1 0x44 DUP3 ADD MSTORE PUSH1 0x64 SWAP1 REVERT JUMPDEST PUSH1 0xE SLOAD DUP2 LT ISZERO PUSH2 0x583 JUMPI PUSH1 0xE PUSH1 0x0 MSTORE PUSH1 0x1 SHL PUSH32 0xBB7B4A454DC3493923482F07822329ED19E8244EFF582CC204F8554C3620C3FD ADD SWAP1 PUSH1 0x0 SWAP1 JUMP JUMPDEST PUSH1 0xE SLOAD ISZERO PUSH2 0x583 JUMPI PUSH1 0xE PUSH1 0x0 MSTORE PUSH32 0xBB7B4A454DC3493923482F07822329ED19E8244EFF582CC204F8554C3620C3FD SWAP1 PUSH1 0x0 SWAP1 JUMP JUMPDEST PUSH1 0x40 MLOAD SWAP1 PUSH2 0x778 DUP3 PUSH2 0x113 JUMP JUMPDEST PUSH1 0x0 SLOAD DUP3 MSTORE PUSH1 0x1 SLOAD PUSH1 0x20 DUP4 ADD MSTORE JUMP JUMPDEST SWAP1 PUSH1 0x40 MLOAD PUSH2 0x794 DUP2 PUSH2 0x113 JUMP JUMPDEST PUSH1 0x20 PUSH1 0x1 DUP3 SWAP5 DUP1 SLOAD DUP5 MSTORE ADD SLOAD SWAP2 ADD MSTORE JUMP JUMPDEST PUSH1 0x40 MLOAD SWAP1 PUSH2 0x7B2 DUP3 PUSH2 0x113 JUMP JUMPDEST PUSH1 0x40 MLOAD PUSH1 0x2 SWAP1 DUP4 SWAP1 DUP3 PUSH1 0x0 DUP3 JUMPDEST DUP6 DUP3 LT PUSH2 0x80F JUMPI POP POP POP PUSH2 0x7D2 DUP2 PUSH2 0x113 JUMP JUMPDEST DUP2 MSTORE PUSH1 0x40 MLOAD SWAP2 PUSH1 0x0 PUSH1 0x4 DUP5 JUMPDEST DUP4 DUP4 LT PUSH2 0x7F9 JUMPI POP POP POP POP PUSH1 0x20 SWAP1 PUSH2 0x7F5 DUP4 PUSH2 0x113 JUMP JUMPDEST ADD MSTORE JUMP JUMPDEST PUSH1 0x1 PUSH1 0x20 DUP2 SWAP3 DUP5 SLOAD DUP2 MSTORE ADD SWAP3 ADD SWAP3 ADD SWAP2 SWAP1 PUSH2 0x7DE JUMP JUMPDEST PUSH1 0x1 PUSH1 0x20 DUP2 SWAP3 DUP6 SLOAD DUP2 MSTORE ADD SWAP4 ADD SWAP2 ADD SWAP1 SWAP2 PUSH2 0x7BF JUMP JUMPDEST PUSH1 0x40 MLOAD SWAP1 PUSH2 0x832 DUP3 PUSH2 0x113 JUMP JUMPDEST PUSH1 0x40 MLOAD DUP3 SWAP1 PUSH1 0x6 PUSH1 0x0 DUP3 JUMPDEST PUSH1 0x2 DUP3 LT PUSH2 0x88A JUMPI POP POP POP PUSH2 0x851 DUP2 PUSH2 0x113 JUMP JUMPDEST DUP2 MSTORE PUSH1 0x40 MLOAD SWAP1 PUSH1 0x8 PUSH1 0x0 DUP4 JUMPDEST PUSH1 0x2 DUP3 LT PUSH2 0x874 JUMPI POP POP POP PUSH1 0x20 SWAP1 PUSH2 0x7F5 DUP4 PUSH2 0x113 JUMP JUMPDEST PUSH1 0x1 PUSH1 0x20 DUP2 SWAP3 DUP6 SLOAD DUP2 MSTORE ADD SWAP4 ADD SWAP2 ADD SWAP1 SWAP2 PUSH2 0x85D JUMP JUMPDEST PUSH1 0x1 PUSH1 0x20 DUP2 SWAP3 DUP6 SLOAD DUP2 MSTORE ADD SWAP4 ADD SWAP2 ADD SWAP1 SWAP2 PUSH2 0x83D JUMP JUMPDEST PUSH1 0x40 MLOAD SWAP1 PUSH2 0x8AD DUP3 PUSH2 0x113 JUMP JUMPDEST PUSH1 0x40 MLOAD DUP3 SWAP1 PUSH1 0xA PUSH1 0x0 DUP3 JUMPDEST PUSH1 0x2 DUP3 LT PUSH2 0x905 JUMPI POP POP POP PUSH2 0x8CC DUP2 PUSH2 0x113 JUMP JUMPDEST DUP2 MSTORE PUSH1 0x40 MLOAD SWAP1 PUSH1 0xC PUSH1 0x0 DUP4 JUMPDEST PUSH1 0x2 DUP3 LT PUSH2 0x8EF JUMPI POP POP POP PUSH1 0x20 SWAP1 PUSH2 0x7F5 DUP4 PUSH2 0x113 JUMP JUMPDEST PUSH1 0x1 PUSH1 0x20 DUP2 SWAP3 DUP6 SLOAD DUP2 MSTORE ADD SWAP4 ADD SWAP2 ADD SWAP1 SWAP2 PUSH2 0x8D8 JUMP JUMPDEST PUSH1 0x1 PUSH1 0x20 DUP2 SWAP3 DUP6 SLOAD DUP2 MSTORE ADD SWAP4 ADD SWAP2 ADD SWAP1 SWAP2 PUSH2 0x8B8 JUMP JUMPDEST SWAP2 SWAP1 PUSH2 0x927 DUP2 MLOAD PUSH2 0x674 JUMP JUMPDEST PUSH1 0xE SLOAD SUB PUSH2 0xA22 JUMPI PUSH2 0x937 PUSH2 0x172 JUMP JUMPDEST PUSH1 0x0 DUP2 MSTORE PUSH1 0x0 PUSH1 0x20 DUP3 ADD MSTORE SWAP2 PUSH1 0x0 SWAP3 JUMPDEST DUP3 MLOAD DUP5 LT ISZERO PUSH2 0x9C7 JUMPI PUSH2 0x9BF PUSH1 0x1 SWAP2 PUSH2 0x98B PUSH32 0x30644E72E131A029B85045B68181585D2833E84879B9709143E1F593F0000001 PUSH2 0x984 DUP9 DUP9 PUSH2 0x56F JUMP JUMPDEST MLOAD LT PUSH2 0x6BF JUMP JUMPDEST PUSH2 0x9B9 PUSH2 0x99F PUSH2 0x99A DUP9 PUSH2 0x674 JUMP JUMPDEST PUSH2 0x6FD JUMP JUMPDEST POP PUSH2 0x9B4 PUSH2 0x9AD DUP10 DUP10 PUSH2 0x56F JUMP JUMPDEST MLOAD SWAP2 PUSH2 0x787 JUMP JUMPDEST PUSH2 0xA29 JUMP JUMPDEST SWAP1 PUSH2 0xABD JUMP JUMPDEST SWAP4 ADD SWAP3 PUSH2 0x947 JUMP JUMPDEST PUSH2 0x65B SWAP4 POP PUSH2 0x9E4 SWAP2 SWAP5 SWAP3 POP PUSH2 0x9B9 PUSH2 0x9DE PUSH2 0x737 JUMP JUMPDEST POP PUSH2 0x787 JUMP JUMPDEST PUSH2 0x9EE DUP3 MLOAD PUSH2 0xB4E JUMP JUMPDEST SWAP2 PUSH1 0x40 PUSH1 0x20 DUP3 ADD MLOAD SWAP2 ADD MLOAD SWAP2 PUSH2 0xA02 PUSH2 0x76B JUMP JUMPDEST PUSH2 0xA0A PUSH2 0x7A5 JUMP JUMPDEST SWAP1 PUSH2 0xA13 PUSH2 0x825 JUMP JUMPDEST SWAP4 PUSH2 0xA1C PUSH2 0x8A0 JUMP JUMPDEST SWAP7 PUSH2 0xC31 JUMP JUMPDEST POP PUSH1 0x0 SWAP2 POP JUMP JUMPDEST SWAP2 SWAP1 PUSH1 0x40 SWAP1 PUSH1 0x60 PUSH2 0xA38 PUSH2 0x45F JUMP JUMPDEST SWAP5 DUP6 SWAP3 PUSH1 0x20 DUP6 MLOAD SWAP3 PUSH2 0xA49 DUP5 PUSH2 0x134 JUMP JUMPDEST DUP5 CALLDATASIZE DUP6 CALLDATACOPY DUP1 MLOAD DUP5 MSTORE ADD MLOAD PUSH1 0x20 DUP4 ADD MSTORE DUP5 DUP3 ADD MSTORE PUSH1 0x7 GAS STATICCALL ISZERO PUSH2 0xA67 JUMPI JUMP JUMPDEST PUSH1 0x40 MLOAD PUSH3 0x461BCD PUSH1 0xE5 SHL DUP2 MSTORE PUSH1 0x20 PUSH1 0x4 DUP3 ADD MSTORE PUSH1 0x1C PUSH1 0x24 DUP3 ADD MSTORE PUSH32 0x5363616C6172206D756C7469706C69636174696F6E206661696C656400000000 PUSH1 0x44 DUP3 ADD MSTORE PUSH1 0x64 SWAP1 REVERT JUMPDEST SWAP1 PUSH1 0x4 DUP2 LT ISZERO PUSH2 0x583 JUMPI PUSH1 0x5 SHL ADD SWAP1 JUMP JUMPDEST SWAP2 SWAP1 SWAP2 PUSH2 0xAC8 PUSH2 0x45F JUMP JUMPDEST SWAP3 PUSH1 0x40 MLOAD PUSH1 0x80 DUP2 ADD SWAP1 DUP1 DUP3 LT PUSH8 0xFFFFFFFFFFFFFFFF DUP4 GT OR PUSH2 0x12F JUMPI PUSH1 0x20 DUP7 SWAP4 DUP2 PUSH1 0x40 SWAP7 PUSH1 0x80 SWAP6 DUP9 MSTORE DUP6 CALLDATASIZE DUP7 CALLDATACOPY DUP1 MLOAD DUP6 MSTORE ADD MLOAD DUP3 DUP5 ADD MSTORE DUP1 MLOAD DUP7 DUP5 ADD MSTORE ADD MLOAD PUSH1 0x60 DUP3 ADD MSTORE PUSH1 0x6 GAS STATICCALL ISZERO PUSH2 0xB17 JUMPI JUMP JUMPDEST PUSH1 0x40 MLOAD PUSH3 0x461BCD PUSH1 0xE5 SHL DUP2 MSTORE PUSH1 0x20 PUSH1 0x4 DUP3 ADD MSTORE PUSH1 0xF PUSH1 0x24 DUP3 ADD MSTORE PUSH15 0x1059191A5D1A5BDB8819985A5B1959 PUSH1 0x8A SHL PUSH1 0x44 DUP3 ADD MSTORE PUSH1 0x64 SWAP1 REVERT JUMPDEST PUSH2 0xB56 PUSH2 0x45F JUMP JUMPDEST POP DUP1 MLOAD SWAP1 DUP2 ISZERO DUP1 PUSH2 0xBCC JUMPI JUMPDEST ISZERO PUSH2 0xB83 JUMPI POP POP PUSH1 0x40 MLOAD PUSH2 0xB75 DUP2 PUSH2 0x113 JUMP JUMPDEST PUSH1 0x0 DUP2 MSTORE PUSH1 0x0 PUSH1 0x20 DUP3 ADD MSTORE SWAP1 JUMP JUMPDEST PUSH1 0x20 ADD MLOAD PUSH32 0x30644E72E131A029B85045B68181585D2833E84879B9709143E1F593F0000001 SWAP1 DUP2 SWAP1 MOD DUP2 SUB SWAP1 DUP2 GT PUSH2 0x682 JUMPI PUSH1 0x40 MLOAD SWAP2 PUSH2 0xBC2 DUP4 PUSH2 0x113 JUMP JUMPDEST DUP3 MSTORE PUSH1 0x20 DUP3 ADD MSTORE SWAP1 JUMP JUMPDEST POP PUSH1 0x20 DUP2 ADD MLOAD ISZERO PUSH2 0xB62 JUMP JUMPDEST SWAP1 PUSH1 0x6 DUP3 MUL SWAP2 DUP1 DUP4 DIV PUSH1 0x6 EQ SWAP1 ISZERO OR ISZERO PUSH2 0x682 JUMPI JUMP JUMPDEST ISZERO PUSH2 0xBF5 JUMPI JUMP JUMPDEST PUSH1 0x40 MLOAD PUSH3 0x461BCD PUSH1 0xE5 SHL DUP2 MSTORE PUSH1 0x20 PUSH1 0x4 DUP3 ADD MSTORE PUSH1 0x14 PUSH1 0x24 DUP3 ADD MSTORE PUSH20 0x14185A5C9A5B99C818DA1958DAC819985A5B1959 PUSH1 0x62 SHL PUSH1 0x44 DUP3 ADD MSTORE PUSH1 0x64 SWAP1 REVERT JUMPDEST SWAP4 SWAP7 SWAP3 SWAP1 SWAP6 SWAP5 SWAP2 SWAP5 PUSH2 0xC41 PUSH2 0x181 JUMP JUMPDEST SWAP5 DUP6 MSTORE PUSH1 0x20 SWAP8 DUP9 SWAP7 DUP8 DUP8 ADD MSTORE PUSH1 0x40 DUP7 ADD MSTORE PUSH1 0x60 DUP6 ADD MSTORE PUSH2 0xC5F PUSH2 0x181 JUMP JUMPDEST SWAP6 DUP7 MSTORE DUP5 DUP7 ADD MSTORE PUSH1 0x40 DUP6 ADD MSTORE PUSH1 0x60 DUP5 ADD MSTORE PUSH2 0xC78 PUSH2 0x50F JUMP JUMPDEST SWAP3 PUSH1 0x0 JUMPDEST PUSH1 0x4 DUP2 LT PUSH2 0xCA9 JUMPI POP POP POP PUSH2 0xCA3 SWAP2 PUSH2 0x300 PUSH2 0xC96 PUSH2 0x478 JUMP JUMPDEST SWAP5 DUP6 SWAP3 ADD PUSH1 0x8 GAS STATICCALL PUSH2 0xBEE JUMP JUMPDEST MLOAD ISZERO ISZERO SWAP1 JUMP JUMPDEST DUP3 SWAP4 POP PUSH2 0xCB9 DUP2 PUSH1 0x1 SWAP4 SWAP5 PUSH2 0xAAC JUMP JUMPDEST MLOAD MLOAD PUSH2 0xCCD PUSH2 0xCC7 DUP4 PUSH2 0xBD8 JUMP JUMPDEST DUP8 PUSH2 0x56F JUMP JUMPDEST MSTORE DUP6 PUSH2 0xCD9 DUP3 DUP7 PUSH2 0xAAC JUMP JUMPDEST MLOAD ADD MLOAD PUSH2 0xCF0 PUSH2 0xCC7 PUSH2 0xCEB DUP5 PUSH2 0xBD8 JUMP JUMPDEST PUSH2 0x674 JUMP JUMPDEST MSTORE PUSH2 0xCFB DUP2 DUP5 PUSH2 0xAAC JUMP JUMPDEST MLOAD MLOAD MLOAD PUSH2 0xD12 PUSH2 0xCC7 PUSH2 0xD0D DUP5 PUSH2 0xBD8 JUMP JUMPDEST PUSH2 0x687 JUMP JUMPDEST MSTORE PUSH2 0xD28 PUSH2 0xD20 DUP3 DUP6 PUSH2 0xAAC JUMP JUMPDEST MLOAD MLOAD PUSH1 0x20 ADD SWAP1 JUMP JUMPDEST MLOAD PUSH2 0xD3D PUSH2 0xCC7 PUSH2 0xD38 DUP5 PUSH2 0xBD8 JUMP JUMPDEST PUSH2 0x695 JUMP JUMPDEST MSTORE DUP6 PUSH2 0xD49 DUP3 DUP6 PUSH2 0xAAC JUMP JUMPDEST MLOAD ADD MLOAD MLOAD PUSH2 0xD61 PUSH2 0xCC7 PUSH2 0xD5C DUP5 PUSH2 0xBD8 JUMP JUMPDEST PUSH2 0x6A3 JUMP JUMPDEST MSTORE PUSH2 0xD79 DUP7 PUSH2 0xD70 DUP4 DUP7 PUSH2 0xAAC JUMP JUMPDEST MLOAD ADD MLOAD PUSH1 0x20 ADD SWAP1 JUMP JUMPDEST MLOAD PUSH2 0xD8E PUSH2 0xCC7 PUSH2 0xD89 DUP5 PUSH2 0xBD8 JUMP JUMPDEST PUSH2 0x6B1 JUMP JUMPDEST MSTORE ADD SWAP1 DUP5 SWAP3 SWAP2 PUSH2 0xC7C JUMP INVALID LOG2 PUSH5 0x6970667358 0x22 SLT KECCAK256 0xB1 PUSH19 0x1E8F4EFAAA9466A9EF1634EB92D1FD24B2C3F0 0xF8 DUP10 0xB0 0xAE PUSH17 0xE99F868B917664736F6C63430008180033 "},"methodIdentifiers":{"verifyProof(uint256[2],uint256[2][2],uint256[2],uint256[])":"c32e370e","verifyTx(((uint256,uint256),(uint256[2],uint256[2]),(uint256,uint256)),uint256[])":"c9417647"}}}}}