{"contracts/SimpleMocks.sol":{"MockVRFCoordinatorV2":{"abi":[{"anonymous":false,"inputs":[{"indexed":true,"internalType":"uint256","name":"requestId","type":"uint256"},{"indexed":true,"internalType":"address","name":"requester","type":"address"}],"name":"RandomWordsRequested","type":"event"},{"inputs":[{"internalType":"uint256","name":"requestId","type":"uint256"},{"internalType":"uint256[]","name":"randomWords","type":"uint256[]"}],"name":"fulfillRandomWords","outputs":[],"stateMutability":"nonpayable","type":"function"},{"inputs":[{"components":[{"internalType":"bytes32","name":"keyHash","type":"bytes32"},{"internalType":"uint256","name":"subId","type":"uint256"},{"internalType":"uint16","name":"requestConfirmations","type":"uint16"},{"internalType":"uint32","name":"callbackGasLimit","type":"uint32"},{"internalType":"uint32","name":"numWords","type":"uint32"},{"internalType":"bytes","name":"extraArgs","type":"bytes"}],"internalType":"struct MockVRFCoordinatorV2.RandomWordsRequest","name":"req","type":"tuple"}],"name":"requestRandomWords","outputs":[{"internalType":"uint256","name":"requestId","type":"uint256"}],"stateMutability":"nonpayable","type":"function"},{"inputs":[{"internalType":"uint256","name":"","type":"uint256"}],"name":"requestToSender","outputs":[{"internalType":"address","name":"","type":"address"}],"stateMutability":"view","type":"function"}],"evm":{"bytecode":{"linkReferences":{},"object":"6080806040523461001b57600160005561038b90816100218239f35b600080fdfe6080604081815260048036101561001557600080fd5b600092833560e01c90816338ba461414610129575080639b1c385e146100795763b678647a1461004457600080fd5b346100755760203660031901126100755735825260016020908152918190205490516001600160a01b039091168152f35b8280fd5b509190346101215760031960203682011261007557833567ffffffffffffffff8111610125579060c0913603011261012157815490600019821461010e576020935060018201835581835260018452808320336bffffffffffffffffffffffff60a01b8254161790555191817f5afc92f47019f6f981dbe48fba0d8bc10298b161505d2ead5ad4b975bfde77f4339280a38152f35b634e487b7160e01b835260118452602483fd5b5080fd5b8380fd5b849391503461012557816003193601126101255760249167ffffffffffffffff843584358281116103195736602382011215610319578087013594838611610307578560051b9160209661017f8885018461031d565b8252868201888194830101913683116103035789899101915b8383106102f357505050838a52506001808752858a20546001600160a01b0316929083156102bc579290918a9287519586958a870193631fe543e360e01b855260648801928d8901528a604489015251809252608487019291865b8c82821061029a575050505050839484910395610218601f199788810183528261031d565b51925af1913d15610293573d9081116102815761023e85855193601f840116018361031d565b815286843d92013e5b15610250578480f35b5162461bcd60e51b815292830152600f908201526e10d85b1b189858dac819985a5b1959608a1b6044820152606490fd5b634e487b7160e01b8852604187528588fd5b5050610247565b919484839295989a5084979950518152019501910192879694928e96946101f3565b865162461bcd60e51b8152808b018990526012818b015271125b9d985b1a59081c995c5d595cdd08125160721b6044820152606490fd5b8235815291810191899101610198565b8b80fd5b634e487b7160e01b8952604188528689fd5b8780fd5b90601f8019910116810190811067ffffffffffffffff82111761033f57604052565b634e487b7160e01b600052604160045260246000fdfea2646970667358221220af222a9344240a4be1d19dbad8daa67486680f0cf0714b8b2f572eafc3bc77af64736f6c63430008180033","opcodes":"PUSH1 0x80 DUP1 PUSH1 0x40 MSTORE CALLVALUE PUSH2 0x1B JUMPI PUSH1 0x1 PUSH1 0x0 SSTORE PUSH2 0x38B SWAP1 DUP2 PUSH2 0x21 DUP3 CODECOPY RETURN JUMPDEST PUSH1 0x0 DUP1 REVERT INVALID PUSH1 0x80 PUSH1 0x40 DUP2 DUP2 MSTORE PUSH1 0x4 DUP1 CALLDATASIZE LT ISZERO PUSH2 0x15 JUMPI PUSH1 0x0 DUP1 REVERT JUMPDEST PUSH1 0x0 SWAP3 DUP4 CALLDATALOAD PUSH1 0xE0 SHR SWAP1 DUP2 PUSH4 0x38BA4614 EQ PUSH2 0x129 JUMPI POP DUP1 PUSH4 0x9B1C385E EQ PUSH2 0x79 JUMPI PUSH4 0xB678647A EQ PUSH2 0x44 JUMPI PUSH1 0x0 DUP1 REVERT JUMPDEST CALLVALUE PUSH2 0x75 JUMPI PUSH1 0x20 CALLDATASIZE PUSH1 0x3 NOT ADD SLT PUSH2 0x75 JUMPI CALLDATALOAD DUP3 MSTORE PUSH1 0x1 PUSH1 0x20 SWAP1 DUP2 MSTORE SWAP2 DUP2 SWAP1 KECCAK256 SLOAD SWAP1 MLOAD PUSH1 0x1 PUSH1 0x1 PUSH1 0xA0 SHL SUB SWAP1 SWAP2 AND DUP2 MSTORE RETURN JUMPDEST DUP3 DUP1 REVERT JUMPDEST POP SWAP2 SWAP1 CALLVALUE PUSH2 0x121 JUMPI PUSH1 0x3 NOT PUSH1 0x20 CALLDATASIZE DUP3 ADD SLT PUSH2 0x75 JUMPI DUP4 CALLDATALOAD PUSH8 0xFFFFFFFFFFFFFFFF DUP2 GT PUSH2 0x125 JUMPI SWAP1 PUSH1 0xC0 SWAP2 CALLDATASIZE SUB ADD SLT PUSH2 0x121 JUMPI DUP2 SLOAD SWAP1 PUSH1 0x0 NOT DUP3 EQ PUSH2 0x10E JUMPI PUSH1 0x20 SWAP4 POP PUSH1 0x1 DUP3 ADD DUP4 SSTORE DUP2 DUP4 MSTORE PUSH1 0x1 DUP5 MSTORE DUP1 DUP4 KECCAK256 CALLER PUSH12 0xFFFFFFFFFFFFFFFFFFFFFFFF PUSH1 0xA0 SHL DUP3 SLOAD AND OR SWAP1 SSTORE MLOAD SWAP2 DUP2 PUSH32 0x5AFC92F47019F6F981DBE48FBA0D8BC10298B161505D2EAD5AD4B975BFDE77F4 CALLER SWAP3 DUP1 LOG3 DUP2 MSTORE RETURN JUMPDEST PUSH4 0x4E487B71 PUSH1 0xE0 SHL DUP4 MSTORE PUSH1 0x11 DUP5 MSTORE PUSH1 0x24 DUP4 REVERT JUMPDEST POP DUP1 REVERT JUMPDEST DUP4 DUP1 REVERT JUMPDEST DUP5 SWAP4 SWAP2 POP CALLVALUE PUSH2 0x125 JUMPI DUP2 PUSH1 0x3 NOT CALLDATASIZE ADD SLT PUSH2 0x125 JUMPI PUSH1 0x24 SWAP2 PUSH8 0xFFFFFFFFFFFFFFFF DUP5 CALLDATALOAD DUP5 CALLDATALOAD DUP3 DUP2 GT PUSH2 0x319 JUMPI CALLDATASIZE PUSH1 0x23 DUP3 ADD SLT ISZERO PUSH2 0x319 JUMPI DUP1 DUP8 ADD CALLDATALOAD SWAP5 DUP4 DUP7 GT PUSH2 0x307 JUMPI DUP6 PUSH1 0x5 SHL SWAP2 PUSH1 0x20 SWAP7 PUSH2 0x17F DUP9 DUP6 ADD DUP5 PUSH2 0x31D JUMP JUMPDEST DUP3 MSTORE DUP7 DUP3 ADD DUP9 DUP2 SWAP5 DUP4 ADD ADD SWAP2 CALLDATASIZE DUP4 GT PUSH2 0x303 JUMPI DUP10 DUP10 SWAP2 ADD SWAP2 JUMPDEST DUP4 DUP4 LT PUSH2 0x2F3 JUMPI POP POP POP DUP4 DUP11 MSTORE POP PUSH1 0x1 DUP1 DUP8 MSTORE DUP6 DUP11 KECCAK256 SLOAD PUSH1 0x1 PUSH1 0x1 PUSH1 0xA0 SHL SUB AND SWAP3 SWAP1 DUP4 ISZERO PUSH2 0x2BC JUMPI SWAP3 SWAP1 SWAP2 DUP11 SWAP3 DUP8 MLOAD SWAP6 DUP7 SWAP6 DUP11 DUP8 ADD SWAP4 PUSH4 0x1FE543E3 PUSH1 0xE0 SHL DUP6 MSTORE PUSH1 0x64 DUP9 ADD SWAP3 DUP14 DUP10 ADD MSTORE DUP11 PUSH1 0x44 DUP10 ADD MSTORE MLOAD DUP1 SWAP3 MSTORE PUSH1 0x84 DUP8 ADD SWAP3 SWAP2 DUP7 JUMPDEST DUP13 DUP3 DUP3 LT PUSH2 0x29A JUMPI POP POP POP POP POP DUP4 SWAP5 DUP5 SWAP2 SUB SWAP6 PUSH2 0x218 PUSH1 0x1F NOT SWAP8 DUP9 DUP2 ADD DUP4 MSTORE DUP3 PUSH2 0x31D JUMP JUMPDEST MLOAD SWAP3 GAS CALL SWAP2 RETURNDATASIZE ISZERO PUSH2 0x293 JUMPI RETURNDATASIZE SWAP1 DUP2 GT PUSH2 0x281 JUMPI PUSH2 0x23E DUP6 DUP6 MLOAD SWAP4 PUSH1 0x1F DUP5 ADD AND ADD DUP4 PUSH2 0x31D JUMP JUMPDEST DUP2 MSTORE DUP7 DUP5 RETURNDATASIZE SWAP3 ADD RETURNDATACOPY JUMPDEST ISZERO PUSH2 0x250 JUMPI DUP5 DUP1 RETURN JUMPDEST MLOAD PUSH3 0x461BCD PUSH1 0xE5 SHL DUP2 MSTORE SWAP3 DUP4 ADD MSTORE PUSH1 0xF SWAP1 DUP3 ADD MSTORE PUSH15 0x10D85B1B189858DAC819985A5B1959 PUSH1 0x8A SHL PUSH1 0x44 DUP3 ADD MSTORE PUSH1 0x64 SWAP1 REVERT JUMPDEST PUSH4 0x4E487B71 PUSH1 0xE0 SHL DUP9 MSTORE PUSH1 0x41 DUP8 MSTORE DUP6 DUP9 REVERT JUMPDEST POP POP PUSH2 0x247 JUMP JUMPDEST SWAP2 SWAP5 DUP5 DUP4 SWAP3 SWAP6 SWAP9 SWAP11 POP DUP5 SWAP8 SWAP10 POP MLOAD DUP2 MSTORE ADD SWAP6 ADD SWAP2 ADD SWAP3 DUP8 SWAP7 SWAP5 SWAP3 DUP15 SWAP7 SWAP5 PUSH2 0x1F3 JUMP JUMPDEST DUP7 MLOAD PUSH3 0x461BCD PUSH1 0xE5 SHL DUP2 MSTORE DUP1 DUP12 ADD DUP10 SWAP1 MSTORE PUSH1 0x12 DUP2 DUP12 ADD MSTORE PUSH18 0x125B9D985B1A59081C995C5D595CDD081251 PUSH1 0x72 SHL PUSH1 0x44 DUP3 ADD MSTORE PUSH1 0x64 SWAP1 REVERT JUMPDEST DUP3 CALLDATALOAD DUP2 MSTORE SWAP2 DUP2 ADD SWAP2 DUP10 SWAP2 ADD PUSH2 0x198 JUMP JUMPDEST DUP12 DUP1 REVERT JUMPDEST PUSH4 0x4E487B71 PUSH1 0xE0 SHL DUP10 MSTORE PUSH1 0x41 DUP9 MSTORE DUP7 DUP10 REVERT JUMPDEST DUP8 DUP1 REVERT JUMPDEST SWAP1 PUSH1 0x1F DUP1 NOT SWAP2 ADD AND DUP2 ADD SWAP1 DUP2 LT PUSH8 0xFFFFFFFFFFFFFFFF DUP3 GT OR PUSH2 0x33F JUMPI PUSH1 0x40 MSTORE JUMP JUMPDEST PUSH4 0x4E487B71 PUSH1 0xE0 SHL PUSH1 0x0 MSTORE PUSH1 0x41 PUSH1 0x4 MSTORE PUSH1 0x24 PUSH1 0x0 REVERT INVALID LOG2 PUSH5 0x6970667358 0x22 SLT KECCAK256 0xAF 0x22 0x2A SWAP4 PREVRANDAO 0x24 EXP 0x4B 0xE1 0xD1 SWAP14 0xBA 0xD8 0xDA 0xA6 PUSH21 0x86680F0CF0714B8B2F572EAFC3BC77AF64736F6C63 NUMBER STOP ADDMOD XOR STOP CALLER "},"methodIdentifiers":{"fulfillRandomWords(uint256,uint256[])":"38ba4614","requestRandomWords((bytes32,uint256,uint16,uint32,uint32,bytes))":"9b1c385e","requestToSender(uint256)":"b678647a"}}}}}