{"contracts/SimpleMocks.sol":{"MockCCIPRouter":{"abi":[{"anonymous":false,"inputs":[{"indexed":true,"internalType":"bytes32","name":"messageId","type":"bytes32"},{"indexed":true,"internalType":"uint64","name":"destChainSelector","type":"uint64"}],"name":"MessageSent","type":"event"},{"inputs":[{"internalType":"uint64","name":"destChainSelector","type":"uint64"},{"internalType":"bytes","name":"message","type":"bytes"}],"name":"ccipSend","outputs":[{"internalType":"bytes32","name":"messageId","type":"bytes32"}],"stateMutability":"payable","type":"function"},{"inputs":[{"internalType":"uint64","name":"destChainSelector","type":"uint64"},{"internalType":"bytes","name":"message","type":"bytes"}],"name":"getFee","outputs":[{"internalType":"uint256","name":"fee","type":"uint256"}],"stateMutability":"pure","type":"function"},{"inputs":[{"internalType":"bytes32","name":"","type":"bytes32"}],"name":"messageToChain","outputs":[{"internalType":"uint64","name":"","type":"uint64"}],"stateMutability":"view","type":"function"},{"inputs":[],"name":"nextMessageId","outputs":[{"internalType":"uint256","name":"","type":"uint256"}],"stateMutability":"view","type":"function"}],"evm":{"bytecode":{"linkReferences":{},"object":"6080806040523461001a57600180556102a290816100208239f35b600080fdfe608060408181526004918236101561001657600080fd5b600092833560e01c9182632af8b511146101965750816386fa67e0146101415781639724418614610072575063eefbf17e1461005157600080fd5b3461006e578160031936011261006e576020906001549051908152f35b5080fd5b828461007d366101c7565b5060015492600019841461012e57600184016001558051926020840194428652828501523360601b606085015260548452608084019467ffffffffffffffff948087108688111761011b5760209750907f3d268d705c99ec99e84748365f374dea1d745080faad9ddfa8c2715d20b50cb0929187855251902094859384835282895282209416938467ffffffffffffffff1982541617905580a38152f35b634e487b7160e01b835260418852602483fd5b634e487b7160e01b835260118552602483fd5b83833461006e57610151366101c7565b516103e880820294925081159185041417156101835766038d7ea4c68000928301809311610183576020838351908152f35b634e487b7160e01b815260118452602490fd5b929150346101c35760203660031901126101c357358352602083815292205467ffffffffffffffff168152f35b8380fd5b9060406003198301126102515767ffffffffffffffff600435818116810361025157926024358281116102515781602382011215610251578060040135918383116102565760405193601f8401601f19908116603f011685019081118582101761025657604052828452602483830101116102515781600092602460209301838601378301015290565b600080fd5b634e487b7160e01b600052604160045260246000fdfea26469706673582212204c5df74c11a5661694bb9a530b88a070ae3c6c3cc0fae649565d2d5c3644ad2d64736f6c63430008180033","opcodes":"PUSH1 0x80 DUP1 PUSH1 0x40 MSTORE CALLVALUE PUSH2 0x1A JUMPI PUSH1 0x1 DUP1 SSTORE PUSH2 0x2A2 SWAP1 DUP2 PUSH2 0x20 DUP3 CODECOPY RETURN JUMPDEST PUSH1 0x0 DUP1 REVERT INVALID PUSH1 0x80 PUSH1 0x40 DUP2 DUP2 MSTORE PUSH1 0x4 SWAP2 DUP3 CALLDATASIZE LT ISZERO PUSH2 0x16 JUMPI PUSH1 0x0 DUP1 REVERT JUMPDEST PUSH1 0x0 SWAP3 DUP4 CALLDATALOAD PUSH1 0xE0 SHR SWAP2 DUP3 PUSH4 0x2AF8B511 EQ PUSH2 0x196 JUMPI POP DUP2 PUSH4 0x86FA67E0 EQ PUSH2 0x141 JUMPI DUP2 PUSH4 0x97244186 EQ PUSH2 0x72 JUMPI POP PUSH4 0xEEFBF17E EQ PUSH2 0x51 JUMPI PUSH1 0x0 DUP1 REVERT JUMPDEST CALLVALUE PUSH2 0x6E JUMPI DUP2 PUSH1 0x3 NOT CALLDATASIZE ADD SLT PUSH2 0x6E JUMPI PUSH1 0x20 SWAP1 PUSH1 0x1 SLOAD SWAP1 MLOAD SWAP1 DUP2 MSTORE RETURN JUMPDEST POP DUP1 REVERT JUMPDEST DUP3 DUP5 PUSH2 0x7D CALLDATASIZE PUSH2 0x1C7 JUMP JUMPDEST POP PUSH1 0x1 SLOAD SWAP3 PUSH1 0x0 NOT DUP5 EQ PUSH2 0x12E JUMPI PUSH1 0x1 DUP5 ADD PUSH1 0x1 SSTORE DUP1 MLOAD SWAP3 PUSH1 0x20 DUP5 ADD SWAP5 TIMESTAMP DUP7 MSTORE DUP3 DUP6 ADD MSTORE CALLER PUSH1 0x60 SHL PUSH1 0x60 DUP6 ADD MSTORE PUSH1 0x54 DUP5 MSTORE PUSH1 0x80 DUP5 ADD SWAP5 PUSH8 0xFFFFFFFFFFFFFFFF SWAP5 DUP1 DUP8 LT DUP7 DUP9 GT OR PUSH2 0x11B JUMPI PUSH1 0x20 SWAP8 POP SWAP1 PUSH32 0x3D268D705C99EC99E84748365F374DEA1D745080FAAD9DDFA8C2715D20B50CB0 SWAP3 SWAP2 DUP8 DUP6 MSTORE MLOAD SWAP1 KECCAK256 SWAP5 DUP6 SWAP4 DUP5 DUP4 MSTORE DUP3 DUP10 MSTORE DUP3 KECCAK256 SWAP5 AND SWAP4 DUP5 PUSH8 0xFFFFFFFFFFFFFFFF NOT DUP3 SLOAD AND OR SWAP1 SSTORE DUP1 LOG3 DUP2 MSTORE RETURN JUMPDEST PUSH4 0x4E487B71 PUSH1 0xE0 SHL DUP4 MSTORE PUSH1 0x41 DUP9 MSTORE PUSH1 0x24 DUP4 REVERT JUMPDEST PUSH4 0x4E487B71 PUSH1 0xE0 SHL DUP4 MSTORE PUSH1 0x11 DUP6 MSTORE PUSH1 0x24 DUP4 REVERT JUMPDEST DUP4 DUP4 CALLVALUE PUSH2 0x6E JUMPI PUSH2 0x151 CALLDATASIZE PUSH2 0x1C7 JUMP JUMPDEST MLOAD PUSH2 0x3E8 DUP1 DUP3 MUL SWAP5 SWAP3 POP DUP2 ISZERO SWAP2 DUP6 DIV EQ OR ISZERO PUSH2 0x183 JUMPI PUSH7 0x38D7EA4C68000 SWAP3 DUP4 ADD DUP1 SWAP4 GT PUSH2 0x183 JUMPI PUSH1 0x20 DUP4 DUP4 MLOAD SWAP1 DUP2 MSTORE RETURN JUMPDEST PUSH4 0x4E487B71 PUSH1 0xE0 SHL DUP2 MSTORE PUSH1 0x11 DUP5 MSTORE PUSH1 0x24 SWAP1 REVERT JUMPDEST SWAP3 SWAP2 POP CALLVALUE PUSH2 0x1C3 JUMPI PUSH1 0x20 CALLDATASIZE PUSH1 0x3 NOT ADD SLT PUSH2 0x1C3 JUMPI CALLDATALOAD DUP4 MSTORE PUSH1 0x20 DUP4 DUP2 MSTORE SWAP3 KECCAK256 SLOAD PUSH8 0xFFFFFFFFFFFFFFFF AND DUP2 MSTORE RETURN JUMPDEST DUP4 DUP1 REVERT JUMPDEST SWAP1 PUSH1 0x40 PUSH1 0x3 NOT DUP4 ADD SLT PUSH2 0x251 JUMPI PUSH8 0xFFFFFFFFFFFFFFFF PUSH1 0x4 CALLDATALOAD DUP2 DUP2 AND DUP2 SUB PUSH2 0x251 JUMPI SWAP3 PUSH1 0x24 CALLDATALOAD DUP3 DUP2 GT PUSH2 0x251 JUMPI DUP2 PUSH1 0x23 DUP3 ADD SLT ISZERO PUSH2 0x251 JUMPI DUP1 PUSH1 0x4 ADD CALLDATALOAD SWAP2 DUP4 DUP4 GT PUSH2 0x256 JUMPI PUSH1 0x40 MLOAD SWAP4 PUSH1 0x1F DUP5 ADD PUSH1 0x1F NOT SWAP1 DUP2 AND PUSH1 0x3F ADD AND DUP6 ADD SWAP1 DUP2 GT DUP6 DUP3 LT OR PUSH2 0x256 JUMPI PUSH1 0x40 MSTORE DUP3 DUP5 MSTORE PUSH1 0x24 DUP4 DUP4 ADD ADD GT PUSH2 0x251 JUMPI DUP2 PUSH1 0x0 SWAP3 PUSH1 0x24 PUSH1 0x20 SWAP4 ADD DUP4 DUP7 ADD CALLDATACOPY DUP4 ADD ADD MSTORE SWAP1 JUMP JUMPDEST PUSH1 0x0 DUP1 REVERT JUMPDEST PUSH4 0x4E487B71 PUSH1 0xE0 SHL PUSH1 0x0 MSTORE PUSH1 0x41 PUSH1 0x4 MSTORE PUSH1 0x24 PUSH1 0x0 REVERT INVALID LOG2 PUSH5 0x6970667358 0x22 SLT KECCAK256 0x4C TSTORE 0xF7 0x4C GT 0xA5 PUSH7 0x1694BB9A530B88 LOG0 PUSH17 0xAE3C6C3CC0FAE649565D2D5C3644AD2D64 PUSH20 0x6F6C634300081800330000000000000000000000 "},"methodIdentifiers":{"ccipSend(uint64,bytes)":"97244186","getFee(uint64,bytes)":"86fa67e0","messageToChain(bytes32)":"2af8b511","nextMessageId()":"eefbf17e"}}}}}