{"contracts/SimpleMocks.sol":{"MockFunctionsRouter":{"abi":[{"anonymous":false,"inputs":[{"indexed":true,"internalType":"bytes32","name":"requestId","type":"bytes32"},{"indexed":true,"internalType":"address","name":"requester","type":"address"}],"name":"RequestSent","type":"event"},{"inputs":[{"internalType":"bytes32","name":"requestId","type":"bytes32"},{"internalType":"bytes","name":"response","type":"bytes"},{"internalType":"bytes","name":"err","type":"bytes"}],"name":"fulfillRequest","outputs":[],"stateMutability":"nonpayable","type":"function"},{"inputs":[{"internalType":"bytes32","name":"","type":"bytes32"}],"name":"requestToSender","outputs":[{"internalType":"address","name":"","type":"address"}],"stateMutability":"view","type":"function"},{"inputs":[{"internalType":"uint64","name":"subscriptionId","type":"uint64"},{"internalType":"bytes","name":"data","type":"bytes"},{"internalType":"uint16","name":"dataVersion","type":"uint16"},{"internalType":"uint32","name":"callbackGasLimit","type":"uint32"},{"internalType":"bytes32","name":"donId","type":"bytes32"}],"name":"sendRequest","outputs":[{"internalType":"bytes32","name":"requestId","type":"bytes32"}],"stateMutability":"nonpayable","type":"function"}],"evm":{"bytecode":{"linkReferences":{},"object":"60808060405234610016576103fb908161001c8239f35b600080fdfe60806040908082526004918236101561001757600080fd5b600091823560e01c908163274ac0c3146102b65750806339b05122146101475763461d27621461004657600080fd5b346101435760a03660031901126101435767ffffffffffffffff9280358481160361013b576024359084821161013f573660238301121561013f5781013593841161013b57366024858301011161013b5760443561ffff81160361013b5760643563ffffffff81160361013b576020936100eb6054845183819460248a8401974289523360601b8a8601520184840137810187838201520360348101845201826102e5565b51902090818352828452808320336bffffffffffffffffffffffff60a01b8254161790555191817f91f0d67c2f27abd6cfc317e120d5e80b31e97b9926b65d3887e59402fb20adfb339280a38152f35b8280fd5b8380fd5b5080fd5b5082903461013b57606036600319011261013b5767ffffffffffffffff82356024358281116102b25761017d9036908601610339565b916044359081116102b2576101959036908601610339565b8186526020869052838620546001600160a01b03169290831561027a5791866101ec61020c8296946101fe84978a51948593602085019863871dad5960e01b8a526024860152606060448601526084850190610385565b83810360231901606485015290610385565b03601f1981018352826102e5565b51925af13d15610275573d6102208161031d565b9061022d845192836102e5565b81528460203d92013e5b15610240578280f35b906020606492519162461bcd60e51b8352820152600f60248201526e10d85b1b189858dac819985a5b1959608a1b6044820152fd5b610237565b845162461bcd60e51b81526020818801526012602482015271125b9d985b1a59081c995c5d595cdd08125160721b6044820152606490fd5b8580fd5b929190503461014357602036600319011261014357923581526020818152929020546001600160a01b03168152f35b90601f8019910116810190811067ffffffffffffffff82111761030757604052565b634e487b7160e01b600052604160045260246000fd5b67ffffffffffffffff811161030757601f01601f191660200190565b81601f82011215610380578035906103508261031d565b9261035e60405194856102e5565b8284526020838301011161038057816000926020809301838601378301015290565b600080fd5b919082519283825260005b8481106103b1575050826000602080949584010152601f8019910116010190565b60208183018101518483018201520161039056fea26469706673582212204bec22a0ba8525f3cf9bd019fc4888129435bc87a4d000d07534425b33ebbefa64736f6c63430008180033","opcodes":"PUSH1 0x80 DUP1 PUSH1 0x40 MSTORE CALLVALUE PUSH2 0x16 JUMPI PUSH2 0x3FB SWAP1 DUP2 PUSH2 0x1C DUP3 CODECOPY RETURN JUMPDEST PUSH1 0x0 DUP1 REVERT INVALID PUSH1 0x80 PUSH1 0x40 SWAP1 DUP1 DUP3 MSTORE PUSH1 0x4 SWAP2 DUP3 CALLDATASIZE LT ISZERO PUSH2 0x17 JUMPI PUSH1 0x0 DUP1 REVERT JUMPDEST PUSH1 0x0 SWAP2 DUP3 CALLDATALOAD PUSH1 0xE0 SHR SWAP1 DUP2 PUSH4 0x274AC0C3 EQ PUSH2 0x2B6 JUMPI POP DUP1 PUSH4 0x39B05122 EQ PUSH2 0x147 JUMPI PUSH4 0x461D2762 EQ PUSH2 0x46 JUMPI PUSH1 0x0 DUP1 REVERT JUMPDEST CALLVALUE PUSH2 0x143 JUMPI PUSH1 0xA0 CALLDATASIZE PUSH1 0x3 NOT ADD SLT PUSH2 0x143 JUMPI PUSH8 0xFFFFFFFFFFFFFFFF SWAP3 DUP1 CALLDATALOAD DUP5 DUP2 AND SUB PUSH2 0x13B JUMPI PUSH1 0x24 CALLDATALOAD SWAP1 DUP5 DUP3 GT PUSH2 0x13F JUMPI CALLDATASIZE PUSH1 0x23 DUP4 ADD SLT ISZERO PUSH2 0x13F JUMPI DUP2 ADD CALLDATALOAD SWAP4 DUP5 GT PUSH2 0x13B JUMPI CALLDATASIZE PUSH1 0x24 DUP6 DUP4 ADD ADD GT PUSH2 0x13B JUMPI PUSH1 0x44 CALLDATALOAD PUSH2 0xFFFF DUP2 AND SUB PUSH2 0x13B JUMPI PUSH1 0x64 CALLDATALOAD PUSH4 0xFFFFFFFF DUP2 AND SUB PUSH2 0x13B JUMPI PUSH1 0x20 SWAP4 PUSH2 0xEB PUSH1 0x54 DUP5 MLOAD DUP4 DUP2 SWAP5 PUSH1 0x24 DUP11 DUP5 ADD SWAP8 TIMESTAMP DUP10 MSTORE CALLER PUSH1 0x60 SHL DUP11 DUP7 ADD MSTORE ADD DUP5 DUP5 ADD CALLDATACOPY DUP2 ADD DUP8 DUP4 DUP3 ADD MSTORE SUB PUSH1 0x34 DUP2 ADD DUP5 MSTORE ADD DUP3 PUSH2 0x2E5 JUMP JUMPDEST MLOAD SWAP1 KECCAK256 SWAP1 DUP2 DUP4 MSTORE DUP3 DUP5 MSTORE DUP1 DUP4 KECCAK256 CALLER PUSH12 0xFFFFFFFFFFFFFFFFFFFFFFFF PUSH1 0xA0 SHL DUP3 SLOAD AND OR SWAP1 SSTORE MLOAD SWAP2 DUP2 PUSH32 0x91F0D67C2F27ABD6CFC317E120D5E80B31E97B9926B65D3887E59402FB20ADFB CALLER SWAP3 DUP1 LOG3 DUP2 MSTORE RETURN JUMPDEST DUP3 DUP1 REVERT JUMPDEST DUP4 DUP1 REVERT JUMPDEST POP DUP1 REVERT JUMPDEST POP DUP3 SWAP1 CALLVALUE PUSH2 0x13B JUMPI PUSH1 0x60 CALLDATASIZE PUSH1 0x3 NOT ADD SLT PUSH2 0x13B JUMPI PUSH8 0xFFFFFFFFFFFFFFFF DUP3 CALLDATALOAD PUSH1 0x24 CALLDATALOAD DUP3 DUP2 GT PUSH2 0x2B2 JUMPI PUSH2 0x17D SWAP1 CALLDATASIZE SWAP1 DUP7 ADD PUSH2 0x339 JUMP JUMPDEST SWAP2 PUSH1 0x44 CALLDATALOAD SWAP1 DUP2 GT PUSH2 0x2B2 JUMPI PUSH2 0x195 SWAP1 CALLDATASIZE SWAP1 DUP7 ADD PUSH2 0x339 JUMP JUMPDEST DUP2 DUP7 MSTORE PUSH1 0x20 DUP7 SWAP1 MSTORE DUP4 DUP7 KECCAK256 SLOAD PUSH1 0x1 PUSH1 0x1 PUSH1 0xA0 SHL SUB AND SWAP3 SWAP1 DUP4 ISZERO PUSH2 0x27A JUMPI SWAP2 DUP7 PUSH2 0x1EC PUSH2 0x20C DUP3 SWAP7 SWAP5 PUSH2 0x1FE DUP5 SWAP8 DUP11 MLOAD SWAP5 DUP6 SWAP4 PUSH1 0x20 DUP6 ADD SWAP9 PUSH4 0x871DAD59 PUSH1 0xE0 SHL DUP11 MSTORE PUSH1 0x24 DUP7 ADD MSTORE PUSH1 0x60 PUSH1 0x44 DUP7 ADD MSTORE PUSH1 0x84 DUP6 ADD SWAP1 PUSH2 0x385 JUMP JUMPDEST DUP4 DUP2 SUB PUSH1 0x23 NOT ADD PUSH1 0x64 DUP6 ADD MSTORE SWAP1 PUSH2 0x385 JUMP JUMPDEST SUB PUSH1 0x1F NOT DUP2 ADD DUP4 MSTORE DUP3 PUSH2 0x2E5 JUMP JUMPDEST MLOAD SWAP3 GAS CALL RETURNDATASIZE ISZERO PUSH2 0x275 JUMPI RETURNDATASIZE PUSH2 0x220 DUP2 PUSH2 0x31D JUMP JUMPDEST SWAP1 PUSH2 0x22D DUP5 MLOAD SWAP3 DUP4 PUSH2 0x2E5 JUMP JUMPDEST DUP2 MSTORE DUP5 PUSH1 0x20 RETURNDATASIZE SWAP3 ADD RETURNDATACOPY JUMPDEST ISZERO PUSH2 0x240 JUMPI DUP3 DUP1 RETURN JUMPDEST SWAP1 PUSH1 0x20 PUSH1 0x64 SWAP3 MLOAD SWAP2 PUSH3 0x461BCD PUSH1 0xE5 SHL DUP4 MSTORE DUP3 ADD MSTORE PUSH1 0xF PUSH1 0x24 DUP3 ADD MSTORE PUSH15 0x10D85B1B189858DAC819985A5B1959 PUSH1 0x8A SHL PUSH1 0x44 DUP3 ADD MSTORE REVERT JUMPDEST PUSH2 0x237 JUMP JUMPDEST DUP5 MLOAD PUSH3 0x461BCD PUSH1 0xE5 SHL DUP2 MSTORE PUSH1 0x20 DUP2 DUP9 ADD MSTORE PUSH1 0x12 PUSH1 0x24 DUP3 ADD MSTORE PUSH18 0x125B9D985B1A59081C995C5D595CDD081251 PUSH1 0x72 SHL PUSH1 0x44 DUP3 ADD MSTORE PUSH1 0x64 SWAP1 REVERT JUMPDEST DUP6 DUP1 REVERT JUMPDEST SWAP3 SWAP2 SWAP1 POP CALLVALUE PUSH2 0x143 JUMPI PUSH1 0x20 CALLDATASIZE PUSH1 0x3 NOT ADD SLT PUSH2 0x143 JUMPI SWAP3 CALLDATALOAD DUP2 MSTORE PUSH1 0x20 DUP2 DUP2 MSTORE SWAP3 SWAP1 KECCAK256 SLOAD PUSH1 0x1 PUSH1 0x1 PUSH1 0xA0 SHL SUB AND DUP2 MSTORE RETURN JUMPDEST SWAP1 PUSH1 0x1F DUP1 NOT SWAP2 ADD AND DUP2 ADD SWAP1 DUP2 LT PUSH8 0xFFFFFFFFFFFFFFFF DUP3 GT OR PUSH2 0x307 JUMPI PUSH1 0x40 MSTORE JUMP JUMPDEST PUSH4 0x4E487B71 PUSH1 0xE0 SHL PUSH1 0x0 MSTORE PUSH1 0x41 PUSH1 0x4 MSTORE PUSH1 0x24 PUSH1 0x0 REVERT JUMPDEST PUSH8 0xFFFFFFFFFFFFFFFF DUP2 GT PUSH2 0x307 JUMPI PUSH1 0x1F ADD PUSH1 0x1F NOT AND PUSH1 0x20 ADD SWAP1 JUMP JUMPDEST DUP2 PUSH1 0x1F DUP3 ADD SLT ISZERO PUSH2 0x380 JUMPI DUP1 CALLDATALOAD SWAP1 PUSH2 0x350 DUP3 PUSH2 0x31D JUMP JUMPDEST SWAP3 PUSH2 0x35E PUSH1 0x40 MLOAD SWAP5 DUP6 PUSH2 0x2E5 JUMP JUMPDEST DUP3 DUP5 MSTORE PUSH1 0x20 DUP4 DUP4 ADD ADD GT PUSH2 0x380 JUMPI DUP2 PUSH1 0x0 SWAP3 PUSH1 0x20 DUP1 SWAP4 ADD DUP4 DUP7 ADD CALLDATACOPY DUP4 ADD ADD MSTORE SWAP1 JUMP JUMPDEST PUSH1 0x0 DUP1 REVERT JUMPDEST SWAP2 SWAP1 DUP3 MLOAD SWAP3 DUP4 DUP3 MSTORE PUSH1 0x0 JUMPDEST DUP5 DUP2 LT PUSH2 0x3B1 JUMPI POP POP DUP3 PUSH1 0x0 PUSH1 0x20 DUP1 SWAP5 SWAP6 DUP5 ADD ADD MSTORE PUSH1 0x1F DUP1 NOT SWAP2 ADD AND ADD ADD SWAP1 JUMP JUMPDEST PUSH1 0x20 DUP2 DUP4 ADD DUP2 ADD MLOAD DUP5 DUP4 ADD DUP3 ADD MSTORE ADD PUSH2 0x390 JUMP INVALID LOG2 PUSH5 0x6970667358 0x22 SLT KECCAK256 0x4B 0xEC 0x22 LOG0 0xBA DUP6 0x25 RETURN 0xCF SWAP12 0xD0 NOT 0xFC BASEFEE DUP9 SLT SWAP5 CALLDATALOAD 0xBC DUP8 LOG4 0xD0 STOP 0xD0 PUSH22 0x34425B33EBBEFA64736F6C6343000818003300000000 "},"methodIdentifiers":{"fulfillRequest(bytes32,bytes,bytes)":"39b05122","requestToSender(bytes32)":"274ac0c3","sendRequest(uint64,bytes,uint16,uint32,bytes32)":"461d2762"}}}}}