{"contracts/SimpleMocks.sol":{"MockAutomationRegistry":{"abi":[{"anonymous":false,"inputs":[{"indexed":true,"internalType":"uint256","name":"id","type":"uint256"},{"indexed":true,"internalType":"address","name":"target","type":"address"}],"name":"UpkeepRegistered","type":"event"},{"inputs":[],"name":"nextUpkeepId","outputs":[{"internalType":"uint256","name":"","type":"uint256"}],"stateMutability":"view","type":"function"},{"inputs":[{"internalType":"uint256","name":"id","type":"uint256"},{"internalType":"bytes","name":"performData","type":"bytes"}],"name":"performUpkeep","outputs":[],"stateMutability":"nonpayable","type":"function"},{"inputs":[{"internalType":"address","name":"target","type":"address"},{"internalType":"uint32","name":"gasLimit","type":"uint32"},{"internalType":"address","name":"admin","type":"address"},{"internalType":"bytes","name":"checkData","type":"bytes"},{"internalType":"bytes","name":"offchainConfig","type":"bytes"}],"name":"registerUpkeep","outputs":[{"internalType":"uint256","name":"id","type":"uint256"}],"stateMutability":"nonpayable","type":"function"},{"inputs":[{"internalType":"uint256","name":"","type":"uint256"}],"name":"upkeeps","outputs":[{"internalType":"address","name":"target","type":"address"},{"internalType":"uint32","name":"executeGas","type":"uint32"},{"internalType":"bytes","name":"checkData","type":"bytes"},{"internalType":"bool","name":"paused","type":"bool"}],"stateMutability":"view","type":"function"}],"evm":{"bytecode":{"linkReferences":{},"object":"6080806040523461001a576001805561071e90816100208239f35b600080fdfe60806040908082526004918236101561001757600080fd5b600091823560e01c9081636ded9eae14610344575080637b748b6b146103265780637bbaf1ea146101a257638be592181461005157600080fd5b3461019e576020928360031936011261019a573582528183528082209182549360a093600190600181018551928391869181549161008e8361065a565b9283865288600182169182600014610174575050600114610137575b505050600263ffffffff999795936100cb60809460ff949997990389610694565b01541693805198899760018060a01b038116895260a01c168388015286015283519384608087015282965b85881061011f5750505060a0809550838501015215156060830152601f80199101168101030190f35b878201830151898901820152968201968896506100f6565b8852868820879350889291905b82841061015c57505050820101826100cb60ff6100aa565b80548489018601528795508894909301928101610144565b60ff19168188015293151560051b860190930193508592506100cb915060ff90506100aa565b8280fd5b5080fd5b5082903461019a578060031936011261019a5760243567ffffffffffffffff8111610322576101d49036908401610627565b83358552602085815283862080549194936001600160a01b03909216929083156102ec576002015460ff166102b95791869291838093610250606488518381948c830197634585e33b60e01b89528d60248501528160448501528484013785838284010152601f80199101168101036044810184520182610694565b51925af13d156102b4573d610264816106cc565b9061027184519283610694565b815285843d92013e5b15610283578380f35b5162461bcd60e51b815291820152600d60248201526c155c1ad9595c0819985a5b1959609a1b604482015260649150fd5b61027a565b835162461bcd60e51b8152808701869052600d60248201526c155c1ad9595c081c185d5cd959609a1b6044820152606490fd5b845162461bcd60e51b8152808801879052601060248201526f155c1ad9595c081b9bdd08199bdd5b9960821b6044820152606490fd5b8380fd5b503461019e578160031936011261019e576020906001549051908152f35b905082843461019e5760a036600319011261019e5780356001600160a01b0381811691829003610322576024359563ffffffff871680970361062357604435828116036106235767ffffffffffffffff9160643583811161061f576103ac9036908701610627565b97909360843581811161061b576103c69036908901610627565b50506001998a549760001991828a14610608578c8a018d5560808501858110858211176105f557875288855260209b8c8601918252610404816106cc565b9861041189519a8b610694565b818a5236828201116105f157818d928f92838d01378a01015286850197885260608501958b87528a8c528b8d52878c2095511685549163ffffffff60a01b905160a01b169167ffffffffffffffff60c01b16171784558b840196519081519384116105de5750610481875461065a565b601f811161059c575b509a899a9b899a99979899508c908c601f861160011461050a5794809381937fb2b260d8dc5d3268f11a016e359df280f36fa8e36b1550c67cd956bed4ae775d9b9c969360029998956104ff575b50501b9260031b1c19161790555b019051151560ff80198354169116179055519480a38152f35b0151935038806104d8565b92949391908e601f198616908c865280862095905b828210610582575050918593917fb2b260d8dc5d3268f11a016e359df280f36fa8e36b1550c67cd956bed4ae775d9b9c966002999896941061056a575b50505050811b0190556104e6565b01519060f88460031b161c191690558d80808061055c565b8385015187558f9c5095880195938401939081019061051f565b878b528b8b20601f850160051c8101918d86106105d4575b601f0160051c01905b8181106105ca575061048a565b8b81558d016105bd565b90915081906105b4565b634e487b7160e01b8b526041905260248afd5b8c80fd5b634e487b7160e01b8c526041835260248cfd5b634e487b7160e01b8b526011825260248bfd5b8880fd5b8680fd5b8480fd5b9181601f840112156106555782359167ffffffffffffffff8311610655576020838186019501011161065557565b600080fd5b90600182811c9216801561068a575b602083101461067457565b634e487b7160e01b600052602260045260246000fd5b91607f1691610669565b90601f8019910116810190811067ffffffffffffffff8211176106b657604052565b634e487b7160e01b600052604160045260246000fd5b67ffffffffffffffff81116106b657601f01601f19166020019056fea26469706673582212202574b6e9bfa75b806f21670044860581eec74721d8e77b7e2a04c5f3dd8478b364736f6c63430008180033","opcodes":"PUSH1 0x80 DUP1 PUSH1 0x40 MSTORE CALLVALUE PUSH2 0x1A JUMPI PUSH1 0x1 DUP1 SSTORE PUSH2 0x71E SWAP1 DUP2 PUSH2 0x20 DUP3 CODECOPY RETURN JUMPDEST PUSH1 0x0 DUP1 REVERT INVALID PUSH1 0x80 PUSH1 0x40 SWAP1 DUP1 DUP3 MSTORE PUSH1 0x4 SWAP2 DUP3 CALLDATASIZE LT ISZERO PUSH2 0x17 JUMPI PUSH1 0x0 DUP1 REVERT JUMPDEST PUSH1 0x0 SWAP2 DUP3 CALLDATALOAD PUSH1 0xE0 SHR SWAP1 DUP2 PUSH4 0x6DED9EAE EQ PUSH2 0x344 JUMPI POP DUP1 PUSH4 0x7B748B6B EQ PUSH2 0x326 JUMPI DUP1 PUSH4 0x7BBAF1EA EQ PUSH2 0x1A2 JUMPI PUSH4 0x8BE59218 EQ PUSH2 0x51 JUMPI PUSH1 0x0 DUP1 REVERT JUMPDEST CALLVALUE PUSH2 0x19E JUMPI PUSH1 0x20 SWAP3 DUP4 PUSH1 0x3 NOT CALLDATASIZE ADD SLT PUSH2 0x19A JUMPI CALLDATALOAD DUP3 MSTORE DUP2 DUP4 MSTORE DUP1 DUP3 KECCAK256 SWAP2 DUP3 SLOAD SWAP4 PUSH1 0xA0 SWAP4 PUSH1 0x1 SWAP1 PUSH1 0x1 DUP2 ADD DUP6 MLOAD SWAP3 DUP4 SWAP2 DUP7 SWAP2 DUP2 SLOAD SWAP2 PUSH2 0x8E DUP4 PUSH2 0x65A JUMP JUMPDEST SWAP3 DUP4 DUP7 MSTORE DUP9 PUSH1 0x1 DUP3 AND SWAP2 DUP3 PUSH1 0x0 EQ PUSH2 0x174 JUMPI POP POP PUSH1 0x1 EQ PUSH2 0x137 JUMPI JUMPDEST POP POP POP PUSH1 0x2 PUSH4 0xFFFFFFFF SWAP10 SWAP8 SWAP6 SWAP4 PUSH2 0xCB PUSH1 0x80 SWAP5 PUSH1 0xFF SWAP5 SWAP10 SWAP8 SWAP10 SUB DUP10 PUSH2 0x694 JUMP JUMPDEST ADD SLOAD AND SWAP4 DUP1 MLOAD SWAP9 DUP10 SWAP8 PUSH1 0x1 DUP1 PUSH1 0xA0 SHL SUB DUP2 AND DUP10 MSTORE PUSH1 0xA0 SHR AND DUP4 DUP9 ADD MSTORE DUP7 ADD MSTORE DUP4 MLOAD SWAP4 DUP5 PUSH1 0x80 DUP8 ADD MSTORE DUP3 SWAP7 JUMPDEST DUP6 DUP9 LT PUSH2 0x11F JUMPI POP POP POP PUSH1 0xA0 DUP1 SWAP6 POP DUP4 DUP6 ADD ADD MSTORE ISZERO ISZERO PUSH1 0x60 DUP4 ADD MSTORE PUSH1 0x1F DUP1 NOT SWAP2 ADD AND DUP2 ADD SUB ADD SWAP1 RETURN JUMPDEST DUP8 DUP3 ADD DUP4 ADD MLOAD DUP10 DUP10 ADD DUP3 ADD MSTORE SWAP7 DUP3 ADD SWAP7 DUP9 SWAP7 POP PUSH2 0xF6 JUMP JUMPDEST DUP9 MSTORE DUP7 DUP9 KECCAK256 DUP8 SWAP4 POP DUP9 SWAP3 SWAP2 SWAP1 JUMPDEST DUP3 DUP5 LT PUSH2 0x15C JUMPI POP POP POP DUP3 ADD ADD DUP3 PUSH2 0xCB PUSH1 0xFF PUSH2 0xAA JUMP JUMPDEST DUP1 SLOAD DUP5 DUP10 ADD DUP7 ADD MSTORE DUP8 SWAP6 POP DUP9 SWAP5 SWAP1 SWAP4 ADD SWAP3 DUP2 ADD PUSH2 0x144 JUMP JUMPDEST PUSH1 0xFF NOT AND DUP2 DUP9 ADD MSTORE SWAP4 ISZERO ISZERO PUSH1 0x5 SHL DUP7 ADD SWAP1 SWAP4 ADD SWAP4 POP DUP6 SWAP3 POP PUSH2 0xCB SWAP2 POP PUSH1 0xFF SWAP1 POP PUSH2 0xAA JUMP JUMPDEST DUP3 DUP1 REVERT JUMPDEST POP DUP1 REVERT JUMPDEST POP DUP3 SWAP1 CALLVALUE PUSH2 0x19A JUMPI DUP1 PUSH1 0x3 NOT CALLDATASIZE ADD SLT PUSH2 0x19A JUMPI PUSH1 0x24 CALLDATALOAD PUSH8 0xFFFFFFFFFFFFFFFF DUP2 GT PUSH2 0x322 JUMPI PUSH2 0x1D4 SWAP1 CALLDATASIZE SWAP1 DUP5 ADD PUSH2 0x627 JUMP JUMPDEST DUP4 CALLDATALOAD DUP6 MSTORE PUSH1 0x20 DUP6 DUP2 MSTORE DUP4 DUP7 KECCAK256 DUP1 SLOAD SWAP2 SWAP5 SWAP4 PUSH1 0x1 PUSH1 0x1 PUSH1 0xA0 SHL SUB SWAP1 SWAP3 AND SWAP3 SWAP1 DUP4 ISZERO PUSH2 0x2EC JUMPI PUSH1 0x2 ADD SLOAD PUSH1 0xFF AND PUSH2 0x2B9 JUMPI SWAP2 DUP7 SWAP3 SWAP2 DUP4 DUP1 SWAP4 PUSH2 0x250 PUSH1 0x64 DUP9 MLOAD DUP4 DUP2 SWAP5 DUP13 DUP4 ADD SWAP8 PUSH4 0x4585E33B PUSH1 0xE0 SHL DUP10 MSTORE DUP14 PUSH1 0x24 DUP6 ADD MSTORE DUP2 PUSH1 0x44 DUP6 ADD MSTORE DUP5 DUP5 ADD CALLDATACOPY DUP6 DUP4 DUP3 DUP5 ADD ADD MSTORE PUSH1 0x1F DUP1 NOT SWAP2 ADD AND DUP2 ADD SUB PUSH1 0x44 DUP2 ADD DUP5 MSTORE ADD DUP3 PUSH2 0x694 JUMP JUMPDEST MLOAD SWAP3 GAS CALL RETURNDATASIZE ISZERO PUSH2 0x2B4 JUMPI RETURNDATASIZE PUSH2 0x264 DUP2 PUSH2 0x6CC JUMP JUMPDEST SWAP1 PUSH2 0x271 DUP5 MLOAD SWAP3 DUP4 PUSH2 0x694 JUMP JUMPDEST DUP2 MSTORE DUP6 DUP5 RETURNDATASIZE SWAP3 ADD RETURNDATACOPY JUMPDEST ISZERO PUSH2 0x283 JUMPI DUP4 DUP1 RETURN JUMPDEST MLOAD PUSH3 0x461BCD PUSH1 0xE5 SHL DUP2 MSTORE SWAP2 DUP3 ADD MSTORE PUSH1 0xD PUSH1 0x24 DUP3 ADD MSTORE PUSH13 0x155C1AD9595C0819985A5B1959 PUSH1 0x9A SHL PUSH1 0x44 DUP3 ADD MSTORE PUSH1 0x64 SWAP2 POP REVERT JUMPDEST PUSH2 0x27A JUMP JUMPDEST DUP4 MLOAD PUSH3 0x461BCD PUSH1 0xE5 SHL DUP2 MSTORE DUP1 DUP8 ADD DUP7 SWAP1 MSTORE PUSH1 0xD PUSH1 0x24 DUP3 ADD MSTORE PUSH13 0x155C1AD9595C081C185D5CD959 PUSH1 0x9A SHL PUSH1 0x44 DUP3 ADD MSTORE PUSH1 0x64 SWAP1 REVERT JUMPDEST DUP5 MLOAD PUSH3 0x461BCD PUSH1 0xE5 SHL DUP2 MSTORE DUP1 DUP9 ADD DUP8 SWAP1 MSTORE PUSH1 0x10 PUSH1 0x24 DUP3 ADD MSTORE PUSH16 0x155C1AD9595C081B9BDD08199BDD5B99 PUSH1 0x82 SHL PUSH1 0x44 DUP3 ADD MSTORE PUSH1 0x64 SWAP1 REVERT JUMPDEST DUP4 DUP1 REVERT JUMPDEST POP CALLVALUE PUSH2 0x19E JUMPI DUP2 PUSH1 0x3 NOT CALLDATASIZE ADD SLT PUSH2 0x19E JUMPI PUSH1 0x20 SWAP1 PUSH1 0x1 SLOAD SWAP1 MLOAD SWAP1 DUP2 MSTORE RETURN JUMPDEST SWAP1 POP DUP3 DUP5 CALLVALUE PUSH2 0x19E JUMPI PUSH1 0xA0 CALLDATASIZE PUSH1 0x3 NOT ADD SLT PUSH2 0x19E JUMPI DUP1 CALLDATALOAD PUSH1 0x1 PUSH1 0x1 PUSH1 0xA0 SHL SUB DUP2 DUP2 AND SWAP2 DUP3 SWAP1 SUB PUSH2 0x322 JUMPI PUSH1 0x24 CALLDATALOAD SWAP6 PUSH4 0xFFFFFFFF DUP8 AND DUP1 SWAP8 SUB PUSH2 0x623 JUMPI PUSH1 0x44 CALLDATALOAD DUP3 DUP2 AND SUB PUSH2 0x623 JUMPI PUSH8 0xFFFFFFFFFFFFFFFF SWAP2 PUSH1 0x64 CALLDATALOAD DUP4 DUP2 GT PUSH2 0x61F JUMPI PUSH2 0x3AC SWAP1 CALLDATASIZE SWAP1 DUP8 ADD PUSH2 0x627 JUMP JUMPDEST SWAP8 SWAP1 SWAP4 PUSH1 0x84 CALLDATALOAD DUP2 DUP2 GT PUSH2 0x61B JUMPI PUSH2 0x3C6 SWAP1 CALLDATASIZE SWAP1 DUP10 ADD PUSH2 0x627 JUMP JUMPDEST POP POP PUSH1 0x1 SWAP10 DUP11 SLOAD SWAP8 PUSH1 0x0 NOT SWAP2 DUP3 DUP11 EQ PUSH2 0x608 JUMPI DUP13 DUP11 ADD DUP14 SSTORE PUSH1 0x80 DUP6 ADD DUP6 DUP2 LT DUP6 DUP3 GT OR PUSH2 0x5F5 JUMPI DUP8 MSTORE DUP9 DUP6 MSTORE PUSH1 0x20 SWAP12 DUP13 DUP7 ADD SWAP2 DUP3 MSTORE PUSH2 0x404 DUP2 PUSH2 0x6CC JUMP JUMPDEST SWAP9 PUSH2 0x411 DUP10 MLOAD SWAP11 DUP12 PUSH2 0x694 JUMP JUMPDEST DUP2 DUP11 MSTORE CALLDATASIZE DUP3 DUP3 ADD GT PUSH2 0x5F1 JUMPI DUP2 DUP14 SWAP3 DUP16 SWAP3 DUP4 DUP14 ADD CALLDATACOPY DUP11 ADD ADD MSTORE DUP7 DUP6 ADD SWAP8 DUP9 MSTORE PUSH1 0x60 DUP6 ADD SWAP6 DUP12 DUP8 MSTORE DUP11 DUP13 MSTORE DUP12 DUP14 MSTORE DUP8 DUP13 KECCAK256 SWAP6 MLOAD AND DUP6 SLOAD SWAP2 PUSH4 0xFFFFFFFF PUSH1 0xA0 SHL SWAP1 MLOAD PUSH1 0xA0 SHL AND SWAP2 PUSH8 0xFFFFFFFFFFFFFFFF PUSH1 0xC0 SHL AND OR OR DUP5 SSTORE DUP12 DUP5 ADD SWAP7 MLOAD SWAP1 DUP2 MLOAD SWAP4 DUP5 GT PUSH2 0x5DE JUMPI POP PUSH2 0x481 DUP8 SLOAD PUSH2 0x65A JUMP JUMPDEST PUSH1 0x1F DUP2 GT PUSH2 0x59C JUMPI JUMPDEST POP SWAP11 DUP10 SWAP11 SWAP12 DUP10 SWAP11 SWAP10 SWAP8 SWAP9 SWAP10 POP DUP13 SWAP1 DUP13 PUSH1 0x1F DUP7 GT PUSH1 0x1 EQ PUSH2 0x50A JUMPI SWAP5 DUP1 SWAP4 DUP2 SWAP4 PUSH32 0xB2B260D8DC5D3268F11A016E359DF280F36FA8E36B1550C67CD956BED4AE775D SWAP12 SWAP13 SWAP7 SWAP4 PUSH1 0x2 SWAP10 SWAP9 SWAP6 PUSH2 0x4FF JUMPI JUMPDEST POP POP SHL SWAP3 PUSH1 0x3 SHL SHR NOT AND OR SWAP1 SSTORE JUMPDEST ADD SWAP1 MLOAD ISZERO ISZERO PUSH1 0xFF DUP1 NOT DUP4 SLOAD AND SWAP2 AND OR SWAP1 SSTORE MLOAD SWAP5 DUP1 LOG3 DUP2 MSTORE RETURN JUMPDEST ADD MLOAD SWAP4 POP CODESIZE DUP1 PUSH2 0x4D8 JUMP JUMPDEST SWAP3 SWAP5 SWAP4 SWAP2 SWAP1 DUP15 PUSH1 0x1F NOT DUP7 AND SWAP1 DUP13 DUP7 MSTORE DUP1 DUP7 KECCAK256 SWAP6 SWAP1 JUMPDEST DUP3 DUP3 LT PUSH2 0x582 JUMPI POP POP SWAP2 DUP6 SWAP4 SWAP2 PUSH32 0xB2B260D8DC5D3268F11A016E359DF280F36FA8E36B1550C67CD956BED4AE775D SWAP12 SWAP13 SWAP7 PUSH1 0x2 SWAP10 SWAP9 SWAP7 SWAP5 LT PUSH2 0x56A JUMPI JUMPDEST POP POP POP POP DUP2 SHL ADD SWAP1 SSTORE PUSH2 0x4E6 JUMP JUMPDEST ADD MLOAD SWAP1 PUSH1 0xF8 DUP5 PUSH1 0x3 SHL AND SHR NOT AND SWAP1 SSTORE DUP14 DUP1 DUP1 DUP1 PUSH2 0x55C JUMP JUMPDEST DUP4 DUP6 ADD MLOAD DUP8 SSTORE DUP16 SWAP13 POP SWAP6 DUP9 ADD SWAP6 SWAP4 DUP5 ADD SWAP4 SWAP1 DUP2 ADD SWAP1 PUSH2 0x51F JUMP JUMPDEST DUP8 DUP12 MSTORE DUP12 DUP12 KECCAK256 PUSH1 0x1F DUP6 ADD PUSH1 0x5 SHR DUP2 ADD SWAP2 DUP14 DUP7 LT PUSH2 0x5D4 JUMPI JUMPDEST PUSH1 0x1F ADD PUSH1 0x5 SHR ADD SWAP1 JUMPDEST DUP2 DUP2 LT PUSH2 0x5CA JUMPI POP PUSH2 0x48A JUMP JUMPDEST DUP12 DUP2 SSTORE DUP14 ADD PUSH2 0x5BD JUMP JUMPDEST SWAP1 SWAP2 POP DUP2 SWAP1 PUSH2 0x5B4 JUMP JUMPDEST PUSH4 0x4E487B71 PUSH1 0xE0 SHL DUP12 MSTORE PUSH1 0x41 SWAP1 MSTORE PUSH1 0x24 DUP11 REVERT JUMPDEST DUP13 DUP1 REVERT JUMPDEST PUSH4 0x4E487B71 PUSH1 0xE0 SHL DUP13 MSTORE PUSH1 0x41 DUP4 MSTORE PUSH1 0x24 DUP13 REVERT JUMPDEST PUSH4 0x4E487B71 PUSH1 0xE0 SHL DUP12 MSTORE PUSH1 0x11 DUP3 MSTORE PUSH1 0x24 DUP12 REVERT JUMPDEST DUP9 DUP1 REVERT JUMPDEST DUP7 DUP1 REVERT JUMPDEST DUP5 DUP1 REVERT JUMPDEST SWAP2 DUP2 PUSH1 0x1F DUP5 ADD SLT ISZERO PUSH2 0x655 JUMPI DUP3 CALLDATALOAD SWAP2 PUSH8 0xFFFFFFFFFFFFFFFF DUP4 GT PUSH2 0x655 JUMPI PUSH1 0x20 DUP4 DUP2 DUP7 ADD SWAP6 ADD ADD GT PUSH2 0x655 JUMPI JUMP JUMPDEST PUSH1 0x0 DUP1 REVERT JUMPDEST SWAP1 PUSH1 0x1 DUP3 DUP2 SHR SWAP3 AND DUP1 ISZERO PUSH2 0x68A JUMPI JUMPDEST PUSH1 0x20 DUP4 LT EQ PUSH2 0x674 JUMPI JUMP JUMPDEST PUSH4 0x4E487B71 PUSH1 0xE0 SHL PUSH1 0x0 MSTORE PUSH1 0x22 PUSH1 0x4 MSTORE PUSH1 0x24 PUSH1 0x0 REVERT JUMPDEST SWAP2 PUSH1 0x7F AND SWAP2 PUSH2 0x669 JUMP JUMPDEST SWAP1 PUSH1 0x1F DUP1 NOT SWAP2 ADD AND DUP2 ADD SWAP1 DUP2 LT PUSH8 0xFFFFFFFFFFFFFFFF DUP3 GT OR PUSH2 0x6B6 JUMPI PUSH1 0x40 MSTORE JUMP JUMPDEST PUSH4 0x4E487B71 PUSH1 0xE0 SHL PUSH1 0x0 MSTORE PUSH1 0x41 PUSH1 0x4 MSTORE PUSH1 0x24 PUSH1 0x0 REVERT JUMPDEST PUSH8 0xFFFFFFFFFFFFFFFF DUP2 GT PUSH2 0x6B6 JUMPI PUSH1 0x1F ADD PUSH1 0x1F NOT AND PUSH1 0x20 ADD SWAP1 JUMP INVALID LOG2 PUSH5 0x6970667358 0x22 SLT KECCAK256 0x25 PUSH21 0xB6E9BFA75B806F21670044860581EEC74721D8E77B PUSH31 0x2A04C5F3DD8478B364736F6C63430008180033000000000000000000000000 "},"methodIdentifiers":{"nextUpkeepId()":"7b748b6b","performUpkeep(uint256,bytes)":"7bbaf1ea","registerUpkeep(address,uint32,address,bytes,bytes)":"6ded9eae","upkeeps(uint256)":"8be59218"}}}}}