{"contracts/ProofAggregatorVerifier.sol":{"Groth16Verifier":{"abi":[{"inputs":[{"internalType":"uint256[2]","name":"_pA","type":"uint256[2]"},{"internalType":"uint256[2][2]","name":"_pB","type":"uint256[2][2]"},{"internalType":"uint256[2]","name":"_pC","type":"uint256[2]"},{"internalType":"uint256[15]","name":"_pubSignals","type":"uint256[15]"}],"name":"verifyProof","outputs":[{"internalType":"bool","name":"","type":"bool"}],"stateMutability":"view","type":"function"}],"evm":{"bytecode":{"linkReferences":{},"object":"6080806040523461001657610d55908161001c8239f35b600080fdfe6080604052600436101561001257600080fd5b6000803560e01c63f054a9a31461002857600080fd5b34610131576102e03660031901126101315761004336610134565b3660c41161012d5761005436610146565b90366102e41161012957602092916101259161040060405261007861010435610154565b61008461012435610154565b61009061014435610154565b61009c61016435610154565b6100a861018435610154565b6100b46101a435610154565b6100c06101c435610154565b6100cc6101e435610154565b6100d861020435610154565b6100e461022435610154565b6100f061024435610154565b6100fc61026435610154565b61010861028435610154565b6101146102a435610154565b6101206102c435610154565b61099b565b8152f35b8280fd5b5080fd5b80fd5b9060049160441161014157565b600080fd5b9060c4916101041161014157565b7f30644e72e131a029b85045b68181585d2833e84879b9709143e1f593f0000001111561017d57565b6000805260206000f35b604051907f1ce71df9c27d680ef7e93657f4effb45d11c08784e6f140ef6f28aed70f2f82082527eb654f3603fa29fceac4608ed76d0895b91ca9916ed3641c2f88aff6989fff76020830152604082019081526107cf196040836060816007855a01fa1561017d5760409260066080939284938451905260a05160608401525a01fa1561017d57565b604051907f062bd1e2d2720b48346d392e26c0d8c8684b26b75d45d43c559096459cde2ede82527f0a0c4322bafcda2d570333773642c249890f95bd419c448e4abb8bff17700dc36020830152604082019081526107cf196040836060816007855a01fa1561017d5760409260066080939284938451905260a05160608401525a01fa1561017d57565b604051907f2b6ef10120dac6a29bbdb0baea4e146653bec969f9f1e835fc06e1c0f998766e82527f2956a763a513781fb6315e79df12250ed908bc42ffb8036ebe690fed1917c8d36020830152604082019081526107cf196040836060816007855a01fa1561017d5760409260066080939284938451905260a05160608401525a01fa1561017d57565b604051907f2562d0aebaf13e277a1d1294140e0997a1f735f108b8e0043b47c442be7fdf2382527f01c0a788c9c85d246154833e49fd44748cf36095160b753ba859e20e7ae4a5a36020830152604082019081526107cf196040836060816007855a01fa1561017d5760409260066080939284938451905260a05160608401525a01fa1561017d57565b604051907f2266c842ba516cfbc5f4e5d55092f96f16b53e217b097153d7415b7e54fe270182527f086da516f153eed35259fed783fcad7ad0ea9399b42ce168926f20c0478b8bd56020830152604082019081526107cf196040836060816007855a01fa1561017d5760409260066080939284938451905260a05160608401525a01fa1561017d57565b604051907f1802c72aaa8d2a60e4fb241a493f05a08edca960613343f7aabd651cb714061f82527f292a55cfe4ac6880267fb40d89c1100145b8365bf7d18be95f5101267f3479036020830152604082019081526107cf196040836060816007855a01fa1561017d5760409260066080939284938451905260a05160608401525a01fa1561017d57565b604051907f078d36b2ed20a15a103a4a9fdc0e5dcadc3d99ce6afee31ee4331c1ca3b89bc482527f2f435a5fe556bd3fcf08f426a5719e1fda415359d631cf5075806a052f06a11c6020830152604082019081526107cf196040836060816007855a01fa1561017d5760409260066080939284938451905260a05160608401525a01fa1561017d57565b604051907f0950924cf4dda5756151f5a1bfa8d3d1a383db5478b6b885358fa5290e87059682527f184e7ea956cb5cd6069ad63973ad9d51c1eb3e37d6f30de9235c32f1048040616020830152604082019081526107cf196040836060816007855a01fa1561017d5760409260066080939284938451905260a05160608401525a01fa1561017d57565b604051907f16c9a19b05d0f28d6dc711239009c74886ae76d11ca936920469722852fa6d6182527f2fa073dfbf135208b49ca732b53ca9754d5e8b1cdf19e339780fc17ba390cd7d6020830152604082019081526107cf196040836060816007855a01fa1561017d5760409260066080939284938451905260a05160608401525a01fa1561017d57565b604051907f05580a97f7151b9a91397672b4335b2b4c7a2533facc352d783b9628170e93f082527f15c0cc4d5bfb9cac783e90937e3856bc684d6c80a24ab3a86a536dd58d8e7e6b6020830152604082019081526107cf196040836060816007855a01fa1561017d5760409260066080939284938451905260a05160608401525a01fa1561017d57565b604051907e856b165826fc255b7dae5dd337f2d03c6f37f90b2b7c7a5014a26491f4982b82527f05d9437a6b6f83cbf67859620f4b0760afe46f526def5a1da1c42bd99297e6ae6020830152604082019081526107cf196040836060816007855a01fa1561017d5760409260066080939284938451905260a05160608401525a01fa1561017d57565b604051907f07230f49ac84aed2814e9a660fedd8270836f329ca5a1cd97e616f946d17d34482527f1ef626a778b84c1c6e2c067822e23397769c7229cecd997fdbccd9802dc60d726020830152604082019081526107cf196040836060816007855a01fa1561017d5760409260066080939284938451905260a05160608401525a01fa1561017d57565b604051907f1c7fd77ec44f21810aa54239139390f56fe281549c216a7bcbf981d28191e66482527f2ca548234dc26840acf3701c0f67335dabcfc8b936f2b51f9cf82156ed3844776020830152604082019081526107cf196040836060816007855a01fa1561017d5760409260066080939284938451905260a05160608401525a01fa1561017d57565b604051907f0aadcb7d81841c5a5562dcdb2c7d1c1b83a13673194ad7c4426ca815f3186bb482527f0b292ed8576fda6d92d6fdebf6987358c1e34eba6d3349ca4246c3c14a8dd30e6020830152604082019081526107cf196040836060816007855a01fa1561017d5760409260066080939284938451905260a05160608401525a01fa1561017d57565b604051907f2a46954138075d6639b27337794636b51e9896745ab02eca5b309e6bcaaa42fb82527f1686f5d70da4b4931f3acdbf031d52091ff977e205272ca27f306742131f9cb46020830152604082019081526107cf196040836060816007855a01fa1561017d5760409260066080939284938451905260a05160608401525a01fa1561017d57565b6020907f1237eac99a05b172c3f10479dc7225777e63ddee166050a68a5f9e18e16464c26080527f0de082c81e6ad751a728c3d21ebbccec89f875b6157895b6cc53d32be666760d60a0526109f261010435610187565b6109fe61012435610210565b610a0a6101443561029a565b610a1661016435610324565b610a22610184356103ae565b610a2e6101a435610438565b610a3a6101c4356104c2565b610a466101e43561054c565b610a52610204356105d6565b610a5e61022435610660565b610a6a610244356106ea565b610a7661026435610773565b610a82610284356107fd565b610a8e6102a435610887565b610a9a6102c435610911565b61010092818492358352837f30644e72e131a029b85045b68181585d97816a916871ca8d3c208c16d87cfd479101358103066101205260443561014052606435610160526084356101805260a4356101a0527f2d4d9aa7e302d9df41749d5507949d05dbea33fbb16c643b22f599a2be6df2e26101c0527f14bedd503c37ceb061d8ec60209fe345ce89830a19230301f076caff004d19266101e0527f0967032fcbf776d1afc985f88877f182d38480a653f2decaa9794cbc3bf3060c610200527f0e187847ad4c798374d0d6732bf501847dd68bc0e071241e0213bc7fc13db7ab610220527f304cfbd1e08a704a99f5e847d93f8c3caafddec46b7a0d379da69a4d112346a7610240527f1739c1b1a457a8c7313123d24d2f9192f896b7c63eea05a9d57f06547ad0cec8610260526080516102805260a0516102a0527f198e9393920d483a7260bfb731fb5d25f1aa493335a9e71297e485b7aef312c26102c0527f1800deef121f1e76426a00665e5c4479674322d4f75edadd46debd5cd992f6ed6102e05282610300917f090689d0585ff075ec9e99ad690c3395bc4b313370b38ef355acdadcd122975b83527f12c85ea5db8c6deb4aab71808dcb408fe3d1e7690c43d37b4ce6cc0166fa7daa610320528035610340520135610360527f156c30dbc4f4d9bf673adf2e8e9f1c2b8085ab65b7df41683d051184c47581f2610380527f107dbbe022bb007ef705b61f59c4654b7235a1ebd9afdf5e93f845ca09e9bffd6103a0527f141d94b8bc55454db374fc9e8c1e7dff1dbe7c7c125a21314aa60f7c5c706f976103c0527f22990823ba418cd1c6b4d9a9eb74d58d855564c344eeb4a31ddfbba3235a24946103e0528160086107cf195a01fa9051169056fea2646970667358221220a076cc4cd63714359fca15ee7643d5afd051d1235fb2d0f760bd16c9dd55cffa64736f6c63430008180033","opcodes":"PUSH1 0x80 DUP1 PUSH1 0x40 MSTORE CALLVALUE PUSH2 0x16 JUMPI PUSH2 0xD55 SWAP1 DUP2 PUSH2 0x1C DUP3 CODECOPY RETURN JUMPDEST PUSH1 0x0 DUP1 REVERT INVALID PUSH1 0x80 PUSH1 0x40 MSTORE PUSH1 0x4 CALLDATASIZE LT ISZERO PUSH2 0x12 JUMPI PUSH1 0x0 DUP1 REVERT JUMPDEST PUSH1 0x0 DUP1 CALLDATALOAD PUSH1 0xE0 SHR PUSH4 0xF054A9A3 EQ PUSH2 0x28 JUMPI PUSH1 0x0 DUP1 REVERT JUMPDEST CALLVALUE PUSH2 0x131 JUMPI PUSH2 0x2E0 CALLDATASIZE PUSH1 0x3 NOT ADD SLT PUSH2 0x131 JUMPI PUSH2 0x43 CALLDATASIZE PUSH2 0x134 JUMP JUMPDEST CALLDATASIZE PUSH1 0xC4 GT PUSH2 0x12D JUMPI PUSH2 0x54 CALLDATASIZE PUSH2 0x146 JUMP JUMPDEST SWAP1 CALLDATASIZE PUSH2 0x2E4 GT PUSH2 0x129 JUMPI PUSH1 0x20 SWAP3 SWAP2 PUSH2 0x125 SWAP2 PUSH2 0x400 PUSH1 0x40 MSTORE PUSH2 0x78 PUSH2 0x104 CALLDATALOAD PUSH2 0x154 JUMP JUMPDEST PUSH2 0x84 PUSH2 0x124 CALLDATALOAD PUSH2 0x154 JUMP JUMPDEST PUSH2 0x90 PUSH2 0x144 CALLDATALOAD PUSH2 0x154 JUMP JUMPDEST PUSH2 0x9C PUSH2 0x164 CALLDATALOAD PUSH2 0x154 JUMP JUMPDEST PUSH2 0xA8 PUSH2 0x184 CALLDATALOAD PUSH2 0x154 JUMP JUMPDEST PUSH2 0xB4 PUSH2 0x1A4 CALLDATALOAD PUSH2 0x154 JUMP JUMPDEST PUSH2 0xC0 PUSH2 0x1C4 CALLDATALOAD PUSH2 0x154 JUMP JUMPDEST PUSH2 0xCC PUSH2 0x1E4 CALLDATALOAD PUSH2 0x154 JUMP JUMPDEST PUSH2 0xD8 PUSH2 0x204 CALLDATALOAD PUSH2 0x154 JUMP JUMPDEST PUSH2 0xE4 PUSH2 0x224 CALLDATALOAD PUSH2 0x154 JUMP JUMPDEST PUSH2 0xF0 PUSH2 0x244 CALLDATALOAD PUSH2 0x154 JUMP JUMPDEST PUSH2 0xFC PUSH2 0x264 CALLDATALOAD PUSH2 0x154 JUMP JUMPDEST PUSH2 0x108 PUSH2 0x284 CALLDATALOAD PUSH2 0x154 JUMP JUMPDEST PUSH2 0x114 PUSH2 0x2A4 CALLDATALOAD PUSH2 0x154 JUMP JUMPDEST PUSH2 0x120 PUSH2 0x2C4 CALLDATALOAD PUSH2 0x154 JUMP JUMPDEST PUSH2 0x99B JUMP JUMPDEST DUP2 MSTORE RETURN JUMPDEST DUP3 DUP1 REVERT JUMPDEST POP DUP1 REVERT JUMPDEST DUP1 REVERT JUMPDEST SWAP1 PUSH1 0x4 SWAP2 PUSH1 0x44 GT PUSH2 0x141 JUMPI JUMP JUMPDEST PUSH1 0x0 DUP1 REVERT JUMPDEST SWAP1 PUSH1 0xC4 SWAP2 PUSH2 0x104 GT PUSH2 0x141 JUMPI JUMP JUMPDEST PUSH32 0x30644E72E131A029B85045B68181585D2833E84879B9709143E1F593F0000001 GT ISZERO PUSH2 0x17D JUMPI JUMP JUMPDEST PUSH1 0x0 DUP1 MSTORE PUSH1 0x20 PUSH1 0x0 RETURN JUMPDEST PUSH1 0x40 MLOAD SWAP1 PUSH32 0x1CE71DF9C27D680EF7E93657F4EFFB45D11C08784E6F140EF6F28AED70F2F820 DUP3 MSTORE PUSH31 0xB654F3603FA29FCEAC4608ED76D0895B91CA9916ED3641C2F88AFF6989FFF7 PUSH1 0x20 DUP4 ADD MSTORE PUSH1 0x40 DUP3 ADD SWAP1 DUP2 MSTORE PUSH2 0x7CF NOT PUSH1 0x40 DUP4 PUSH1 0x60 DUP2 PUSH1 0x7 DUP6 GAS ADD STATICCALL ISZERO PUSH2 0x17D JUMPI PUSH1 0x40 SWAP3 PUSH1 0x6 PUSH1 0x80 SWAP4 SWAP3 DUP5 SWAP4 DUP5 MLOAD SWAP1 MSTORE PUSH1 0xA0 MLOAD PUSH1 0x60 DUP5 ADD MSTORE GAS ADD STATICCALL ISZERO PUSH2 0x17D JUMPI JUMP JUMPDEST PUSH1 0x40 MLOAD SWAP1 PUSH32 0x62BD1E2D2720B48346D392E26C0D8C8684B26B75D45D43C559096459CDE2EDE DUP3 MSTORE PUSH32 0xA0C4322BAFCDA2D570333773642C249890F95BD419C448E4ABB8BFF17700DC3 PUSH1 0x20 DUP4 ADD MSTORE PUSH1 0x40 DUP3 ADD SWAP1 DUP2 MSTORE PUSH2 0x7CF NOT PUSH1 0x40 DUP4 PUSH1 0x60 DUP2 PUSH1 0x7 DUP6 GAS ADD STATICCALL ISZERO PUSH2 0x17D JUMPI PUSH1 0x40 SWAP3 PUSH1 0x6 PUSH1 0x80 SWAP4 SWAP3 DUP5 SWAP4 DUP5 MLOAD SWAP1 MSTORE PUSH1 0xA0 MLOAD PUSH1 0x60 DUP5 ADD MSTORE GAS ADD STATICCALL ISZERO PUSH2 0x17D JUMPI JUMP JUMPDEST PUSH1 0x40 MLOAD SWAP1 PUSH32 0x2B6EF10120DAC6A29BBDB0BAEA4E146653BEC969F9F1E835FC06E1C0F998766E DUP3 MSTORE PUSH32 0x2956A763A513781FB6315E79DF12250ED908BC42FFB8036EBE690FED1917C8D3 PUSH1 0x20 DUP4 ADD MSTORE PUSH1 0x40 DUP3 ADD SWAP1 DUP2 MSTORE PUSH2 0x7CF NOT PUSH1 0x40 DUP4 PUSH1 0x60 DUP2 PUSH1 0x7 DUP6 GAS ADD STATICCALL ISZERO PUSH2 0x17D JUMPI PUSH1 0x40 SWAP3 PUSH1 0x6 PUSH1 0x80 SWAP4 SWAP3 DUP5 SWAP4 DUP5 MLOAD SWAP1 MSTORE PUSH1 0xA0 MLOAD PUSH1 0x60 DUP5 ADD MSTORE GAS ADD STATICCALL ISZERO PUSH2 0x17D JUMPI JUMP JUMPDEST PUSH1 0x40 MLOAD SWAP1 PUSH32 0x2562D0AEBAF13E277A1D1294140E0997A1F735F108B8E0043B47C442BE7FDF23 DUP3 MSTORE PUSH32 0x1C0A788C9C85D246154833E49FD44748CF36095160B753BA859E20E7AE4A5A3 PUSH1 0x20 DUP4 ADD MSTORE PUSH1 0x40 DUP3 ADD SWAP1 DUP2 MSTORE PUSH2 0x7CF NOT PUSH1 0x40 DUP4 PUSH1 0x60 DUP2 PUSH1 0x7 DUP6 GAS ADD STATICCALL ISZERO PUSH2 0x17D JUMPI PUSH1 0x40 SWAP3 PUSH1 0x6 PUSH1 0x80 SWAP4 SWAP3 DUP5 SWAP4 DUP5 MLOAD SWAP1 MSTORE PUSH1 0xA0 MLOAD PUSH1 0x60 DUP5 ADD MSTORE GAS ADD STATICCALL ISZERO PUSH2 0x17D JUMPI JUMP JUMPDEST PUSH1 0x40 MLOAD SWAP1 PUSH32 0x2266C842BA516CFBC5F4E5D55092F96F16B53E217B097153D7415B7E54FE2701 DUP3 MSTORE PUSH32 0x86DA516F153EED35259FED783FCAD7AD0EA9399B42CE168926F20C0478B8BD5 PUSH1 0x20 DUP4 ADD MSTORE PUSH1 0x40 DUP3 ADD SWAP1 DUP2 MSTORE PUSH2 0x7CF NOT PUSH1 0x40 DUP4 PUSH1 0x60 DUP2 PUSH1 0x7 DUP6 GAS ADD STATICCALL ISZERO PUSH2 0x17D JUMPI PUSH1 0x40 SWAP3 PUSH1 0x6 PUSH1 0x80 SWAP4 SWAP3 DUP5 SWAP4 DUP5 MLOAD SWAP1 MSTORE PUSH1 0xA0 MLOAD PUSH1 0x60 DUP5 ADD MSTORE GAS ADD STATICCALL ISZERO PUSH2 0x17D JUMPI JUMP JUMPDEST PUSH1 0x40 MLOAD SWAP1 PUSH32 0x1802C72AAA8D2A60E4FB241A493F05A08EDCA960613343F7AABD651CB714061F DUP3 MSTORE PUSH32 0x292A55CFE4AC6880267FB40D89C1100145B8365BF7D18BE95F5101267F347903 PUSH1 0x20 DUP4 ADD MSTORE PUSH1 0x40 DUP3 ADD SWAP1 DUP2 MSTORE PUSH2 0x7CF NOT PUSH1 0x40 DUP4 PUSH1 0x60 DUP2 PUSH1 0x7 DUP6 GAS ADD STATICCALL ISZERO PUSH2 0x17D JUMPI PUSH1 0x40 SWAP3 PUSH1 0x6 PUSH1 0x80 SWAP4 SWAP3 DUP5 SWAP4 DUP5 MLOAD SWAP1 MSTORE PUSH1 0xA0 MLOAD PUSH1 0x60 DUP5 ADD MSTORE GAS ADD STATICCALL ISZERO PUSH2 0x17D JUMPI JUMP JUMPDEST PUSH1 0x40 MLOAD SWAP1 PUSH32 0x78D36B2ED20A15A103A4A9FDC0E5DCADC3D99CE6AFEE31EE4331C1CA3B89BC4 DUP3 MSTORE PUSH32 0x2F435A5FE556BD3FCF08F426A5719E1FDA415359D631CF5075806A052F06A11C PUSH1 0x20 DUP4 ADD MSTORE PUSH1 0x40 DUP3 ADD SWAP1 DUP2 MSTORE PUSH2 0x7CF NOT PUSH1 0x40 DUP4 PUSH1 0x60 DUP2 PUSH1 0x7 DUP6 GAS ADD STATICCALL ISZERO PUSH2 0x17D JUMPI PUSH1 0x40 SWAP3 PUSH1 0x6 PUSH1 0x80 SWAP4 SWAP3 DUP5 SWAP4 DUP5 MLOAD SWAP1 MSTORE PUSH1 0xA0 MLOAD PUSH1 0x60 DUP5 ADD MSTORE GAS ADD STATICCALL ISZERO PUSH2 0x17D JUMPI JUMP JUMPDEST PUSH1 0x40 MLOAD SWAP1 PUSH32 0x950924CF4DDA5756151F5A1BFA8D3D1A383DB5478B6B885358FA5290E870596 DUP3 MSTORE PUSH32 0x184E7EA956CB5CD6069AD63973AD9D51C1EB3E37D6F30DE9235C32F104804061 PUSH1 0x20 DUP4 ADD MSTORE PUSH1 0x40 DUP3 ADD SWAP1 DUP2 MSTORE PUSH2 0x7CF NOT PUSH1 0x40 DUP4 PUSH1 0x60 DUP2 PUSH1 0x7 DUP6 GAS ADD STATICCALL ISZERO PUSH2 0x17D JUMPI PUSH1 0x40 SWAP3 PUSH1 0x6 PUSH1 0x80 SWAP4 SWAP3 DUP5 SWAP4 DUP5 MLOAD SWAP1 MSTORE PUSH1 0xA0 MLOAD PUSH1 0x60 DUP5 ADD MSTORE GAS ADD STATICCALL ISZERO PUSH2 0x17D JUMPI JUMP JUMPDEST PUSH1 0x40 MLOAD SWAP1 PUSH32 0x16C9A19B05D0F28D6DC711239009C74886AE76D11CA936920469722852FA6D61 DUP3 MSTORE PUSH32 0x2FA073DFBF135208B49CA732B53CA9754D5E8B1CDF19E339780FC17BA390CD7D PUSH1 0x20 DUP4 ADD MSTORE PUSH1 0x40 DUP3 ADD SWAP1 DUP2 MSTORE PUSH2 0x7CF NOT PUSH1 0x40 DUP4 PUSH1 0x60 DUP2 PUSH1 0x7 DUP6 GAS ADD STATICCALL ISZERO PUSH2 0x17D JUMPI PUSH1 0x40 SWAP3 PUSH1 0x6 PUSH1 0x80 SWAP4 SWAP3 DUP5 SWAP4 DUP5 MLOAD SWAP1 MSTORE PUSH1 0xA0 MLOAD PUSH1 0x60 DUP5 ADD MSTORE GAS ADD STATICCALL ISZERO PUSH2 0x17D JUMPI JUMP JUMPDEST PUSH1 0x40 MLOAD SWAP1 PUSH32 0x5580A97F7151B9A91397672B4335B2B4C7A2533FACC352D783B9628170E93F0 DUP3 MSTORE PUSH32 0x15C0CC4D5BFB9CAC783E90937E3856BC684D6C80A24AB3A86A536DD58D8E7E6B PUSH1 0x20 DUP4 ADD MSTORE PUSH1 0x40 DUP3 ADD SWAP1 DUP2 MSTORE PUSH2 0x7CF NOT PUSH1 0x40 DUP4 PUSH1 0x60 DUP2 PUSH1 0x7 DUP6 GAS ADD STATICCALL ISZERO PUSH2 0x17D JUMPI PUSH1 0x40 SWAP3 PUSH1 0x6 PUSH1 0x80 SWAP4 SWAP3 DUP5 SWAP4 DUP5 MLOAD SWAP1 MSTORE PUSH1 0xA0 MLOAD PUSH1 0x60 DUP5 ADD MSTORE GAS ADD STATICCALL ISZERO PUSH2 0x17D JUMPI JUMP JUMPDEST PUSH1 0x40 MLOAD SWAP1 PUSH31 0x856B165826FC255B7DAE5DD337F2D03C6F37F90B2B7C7A5014A26491F4982B DUP3 MSTORE PUSH32 0x5D9437A6B6F83CBF67859620F4B0760AFE46F526DEF5A1DA1C42BD99297E6AE PUSH1 0x20 DUP4 ADD MSTORE PUSH1 0x40 DUP3 ADD SWAP1 DUP2 MSTORE PUSH2 0x7CF NOT PUSH1 0x40 DUP4 PUSH1 0x60 DUP2 PUSH1 0x7 DUP6 GAS ADD STATICCALL ISZERO PUSH2 0x17D JUMPI PUSH1 0x40 SWAP3 PUSH1 0x6 PUSH1 0x80 SWAP4 SWAP3 DUP5 SWAP4 DUP5 MLOAD SWAP1 MSTORE PUSH1 0xA0 MLOAD PUSH1 0x60 DUP5 ADD MSTORE GAS ADD STATICCALL ISZERO PUSH2 0x17D JUMPI JUMP JUMPDEST PUSH1 0x40 MLOAD SWAP1 PUSH32 0x7230F49AC84AED2814E9A660FEDD8270836F329CA5A1CD97E616F946D17D344 DUP3 MSTORE PUSH32 0x1EF626A778B84C1C6E2C067822E23397769C7229CECD997FDBCCD9802DC60D72 PUSH1 0x20 DUP4 ADD MSTORE PUSH1 0x40 DUP3 ADD SWAP1 DUP2 MSTORE PUSH2 0x7CF NOT PUSH1 0x40 DUP4 PUSH1 0x60 DUP2 PUSH1 0x7 DUP6 GAS ADD STATICCALL ISZERO PUSH2 0x17D JUMPI PUSH1 0x40 SWAP3 PUSH1 0x6 PUSH1 0x80 SWAP4 SWAP3 DUP5 SWAP4 DUP5 MLOAD SWAP1 MSTORE PUSH1 0xA0 MLOAD PUSH1 0x60 DUP5 ADD MSTORE GAS ADD STATICCALL ISZERO PUSH2 0x17D JUMPI JUMP JUMPDEST PUSH1 0x40 MLOAD SWAP1 PUSH32 0x1C7FD77EC44F21810AA54239139390F56FE281549C216A7BCBF981D28191E664 DUP3 MSTORE PUSH32 0x2CA548234DC26840ACF3701C0F67335DABCFC8B936F2B51F9CF82156ED384477 PUSH1 0x20 DUP4 ADD MSTORE PUSH1 0x40 DUP3 ADD SWAP1 DUP2 MSTORE PUSH2 0x7CF NOT PUSH1 0x40 DUP4 PUSH1 0x60 DUP2 PUSH1 0x7 DUP6 GAS ADD STATICCALL ISZERO PUSH2 0x17D JUMPI PUSH1 0x40 SWAP3 PUSH1 0x6 PUSH1 0x80 SWAP4 SWAP3 DUP5 SWAP4 DUP5 MLOAD SWAP1 MSTORE PUSH1 0xA0 MLOAD PUSH1 0x60 DUP5 ADD MSTORE GAS ADD STATICCALL ISZERO PUSH2 0x17D JUMPI JUMP JUMPDEST PUSH1 0x40 MLOAD SWAP1 PUSH32 0xAADCB7D81841C5A5562DCDB2C7D1C1B83A13673194AD7C4426CA815F3186BB4 DUP3 MSTORE PUSH32 0xB292ED8576FDA6D92D6FDEBF6987358C1E34EBA6D3349CA4246C3C14A8DD30E PUSH1 0x20 DUP4 ADD MSTORE PUSH1 0x40 DUP3 ADD SWAP1 DUP2 MSTORE PUSH2 0x7CF NOT PUSH1 0x40 DUP4 PUSH1 0x60 DUP2 PUSH1 0x7 DUP6 GAS ADD STATICCALL ISZERO PUSH2 0x17D JUMPI PUSH1 0x40 SWAP3 PUSH1 0x6 PUSH1 0x80 SWAP4 SWAP3 DUP5 SWAP4 DUP5 MLOAD SWAP1 MSTORE PUSH1 0xA0 MLOAD PUSH1 0x60 DUP5 ADD MSTORE GAS ADD STATICCALL ISZERO PUSH2 0x17D JUMPI JUMP JUMPDEST PUSH1 0x40 MLOAD SWAP1 PUSH32 0x2A46954138075D6639B27337794636B51E9896745AB02ECA5B309E6BCAAA42FB DUP3 MSTORE PUSH32 0x1686F5D70DA4B4931F3ACDBF031D52091FF977E205272CA27F306742131F9CB4 PUSH1 0x20 DUP4 ADD MSTORE PUSH1 0x40 DUP3 ADD SWAP1 DUP2 MSTORE PUSH2 0x7CF NOT PUSH1 0x40 DUP4 PUSH1 0x60 DUP2 PUSH1 0x7 DUP6 GAS ADD STATICCALL ISZERO PUSH2 0x17D JUMPI PUSH1 0x40 SWAP3 PUSH1 0x6 PUSH1 0x80 SWAP4 SWAP3 DUP5 SWAP4 DUP5 MLOAD SWAP1 MSTORE PUSH1 0xA0 MLOAD PUSH1 0x60 DUP5 ADD MSTORE GAS ADD STATICCALL ISZERO PUSH2 0x17D JUMPI JUMP JUMPDEST PUSH1 0x20 SWAP1 PUSH32 0x1237EAC99A05B172C3F10479DC7225777E63DDEE166050A68A5F9E18E16464C2 PUSH1 0x80 MSTORE PUSH32 0xDE082C81E6AD751A728C3D21EBBCCEC89F875B6157895B6CC53D32BE666760D PUSH1 0xA0 MSTORE PUSH2 0x9F2 PUSH2 0x104 CALLDATALOAD PUSH2 0x187 JUMP JUMPDEST PUSH2 0x9FE PUSH2 0x124 CALLDATALOAD PUSH2 0x210 JUMP JUMPDEST PUSH2 0xA0A PUSH2 0x144 CALLDATALOAD PUSH2 0x29A JUMP JUMPDEST PUSH2 0xA16 PUSH2 0x164 CALLDATALOAD PUSH2 0x324 JUMP JUMPDEST PUSH2 0xA22 PUSH2 0x184 CALLDATALOAD PUSH2 0x3AE JUMP JUMPDEST PUSH2 0xA2E PUSH2 0x1A4 CALLDATALOAD PUSH2 0x438 JUMP JUMPDEST PUSH2 0xA3A PUSH2 0x1C4 CALLDATALOAD PUSH2 0x4C2 JUMP JUMPDEST PUSH2 0xA46 PUSH2 0x1E4 CALLDATALOAD PUSH2 0x54C JUMP JUMPDEST PUSH2 0xA52 PUSH2 0x204 CALLDATALOAD PUSH2 0x5D6 JUMP JUMPDEST PUSH2 0xA5E PUSH2 0x224 CALLDATALOAD PUSH2 0x660 JUMP JUMPDEST PUSH2 0xA6A PUSH2 0x244 CALLDATALOAD PUSH2 0x6EA JUMP JUMPDEST PUSH2 0xA76 PUSH2 0x264 CALLDATALOAD PUSH2 0x773 JUMP JUMPDEST PUSH2 0xA82 PUSH2 0x284 CALLDATALOAD PUSH2 0x7FD JUMP JUMPDEST PUSH2 0xA8E PUSH2 0x2A4 CALLDATALOAD PUSH2 0x887 JUMP JUMPDEST PUSH2 0xA9A PUSH2 0x2C4 CALLDATALOAD PUSH2 0x911 JUMP JUMPDEST PUSH2 0x100 SWAP3 DUP2 DUP5 SWAP3 CALLDATALOAD DUP4 MSTORE DUP4 PUSH32 0x30644E72E131A029B85045B68181585D97816A916871CA8D3C208C16D87CFD47 SWAP2 ADD CALLDATALOAD DUP2 SUB MOD PUSH2 0x120 MSTORE PUSH1 0x44 CALLDATALOAD PUSH2 0x140 MSTORE PUSH1 0x64 CALLDATALOAD PUSH2 0x160 MSTORE PUSH1 0x84 CALLDATALOAD PUSH2 0x180 MSTORE PUSH1 0xA4 CALLDATALOAD PUSH2 0x1A0 MSTORE PUSH32 0x2D4D9AA7E302D9DF41749D5507949D05DBEA33FBB16C643B22F599A2BE6DF2E2 PUSH2 0x1C0 MSTORE PUSH32 0x14BEDD503C37CEB061D8EC60209FE345CE89830A19230301F076CAFF004D1926 PUSH2 0x1E0 MSTORE PUSH32 0x967032FCBF776D1AFC985F88877F182D38480A653F2DECAA9794CBC3BF3060C PUSH2 0x200 MSTORE PUSH32 0xE187847AD4C798374D0D6732BF501847DD68BC0E071241E0213BC7FC13DB7AB PUSH2 0x220 MSTORE PUSH32 0x304CFBD1E08A704A99F5E847D93F8C3CAAFDDEC46B7A0D379DA69A4D112346A7 PUSH2 0x240 MSTORE PUSH32 0x1739C1B1A457A8C7313123D24D2F9192F896B7C63EEA05A9D57F06547AD0CEC8 PUSH2 0x260 MSTORE PUSH1 0x80 MLOAD PUSH2 0x280 MSTORE PUSH1 0xA0 MLOAD PUSH2 0x2A0 MSTORE PUSH32 0x198E9393920D483A7260BFB731FB5D25F1AA493335A9E71297E485B7AEF312C2 PUSH2 0x2C0 MSTORE PUSH32 0x1800DEEF121F1E76426A00665E5C4479674322D4F75EDADD46DEBD5CD992F6ED PUSH2 0x2E0 MSTORE DUP3 PUSH2 0x300 SWAP2 PUSH32 0x90689D0585FF075EC9E99AD690C3395BC4B313370B38EF355ACDADCD122975B DUP4 MSTORE PUSH32 0x12C85EA5DB8C6DEB4AAB71808DCB408FE3D1E7690C43D37B4CE6CC0166FA7DAA PUSH2 0x320 MSTORE DUP1 CALLDATALOAD PUSH2 0x340 MSTORE ADD CALLDATALOAD PUSH2 0x360 MSTORE PUSH32 0x156C30DBC4F4D9BF673ADF2E8E9F1C2B8085AB65B7DF41683D051184C47581F2 PUSH2 0x380 MSTORE PUSH32 0x107DBBE022BB007EF705B61F59C4654B7235A1EBD9AFDF5E93F845CA09E9BFFD PUSH2 0x3A0 MSTORE PUSH32 0x141D94B8BC55454DB374FC9E8C1E7DFF1DBE7C7C125A21314AA60F7C5C706F97 PUSH2 0x3C0 MSTORE PUSH32 0x22990823BA418CD1C6B4D9A9EB74D58D855564C344EEB4A31DDFBBA3235A2494 PUSH2 0x3E0 MSTORE DUP2 PUSH1 0x8 PUSH2 0x7CF NOT GAS ADD STATICCALL SWAP1 MLOAD AND SWAP1 JUMP INVALID LOG2 PUSH5 0x6970667358 0x22 SLT KECCAK256 LOG0 PUSH23 0xCC4CD63714359FCA15EE7643D5AFD051D1235FB2D0F760 0xBD AND 0xC9 0xDD SSTORE 0xCF STATICCALL PUSH5 0x736F6C6343 STOP ADDMOD XOR STOP CALLER "},"methodIdentifiers":{"verifyProof(uint256[2],uint256[2][2],uint256[2],uint256[15])":"f054a9a3"}}}}}