{"contracts/NovaProofAggregator.sol":{"NovaProofAggregator":{"abi":[{"inputs":[{"internalType":"address","name":"vrfCoordinator","type":"address"},{"internalType":"address","name":"functionsRouter","type":"address"},{"internalType":"uint256","name":"vrfSubscriptionId","type":"uint256"},{"internalType":"bytes32","name":"vrfKeyHash","type":"bytes32"},{"internalType":"uint64","name":"functionsSubscriptionId","type":"uint64"},{"internalType":"bytes32","name":"functionsDonId","type":"bytes32"},{"internalType":"address","name":"groth16VerifierAddress","type":"address"},{"internalType":"address","name":"_novaVerifier","type":"address"},{"internalType":"address","name":"_baseZKContract","type":"address"}],"stateMutability":"nonpayable","type":"constructor"},{"inputs":[],"name":"EmptyArgs","type":"error"},{"inputs":[],"name":"EmptySource","type":"error"},{"inputs":[],"name":"NoInlineSecrets","type":"error"},{"inputs":[{"internalType":"address","name":"have","type":"address"},{"internalType":"address","name":"want","type":"address"}],"name":"OnlyCoordinatorCanFulfill","type":"error"},{"inputs":[{"internalType":"address","name":"have","type":"address"},{"internalType":"address","name":"owner","type":"address"},{"internalType":"address","name":"coordinator","type":"address"}],"name":"OnlyOwnerOrCoordinator","type":"error"},{"inputs":[],"name":"OnlyRouterCanFulfill","type":"error"},{"inputs":[],"name":"ZeroAddress","type":"error"},{"anonymous":false,"inputs":[{"indexed":false,"internalType":"address","name":"vrfCoordinator","type":"address"}],"name":"CoordinatorSet","type":"event"},{"anonymous":false,"inputs":[{"indexed":true,"internalType":"bytes32","name":"requestId","type":"bytes32"},{"indexed":false,"internalType":"bytes","name":"error","type":"bytes"}],"name":"FunctionsRequestError","type":"event"},{"anonymous":false,"inputs":[{"indexed":true,"internalType":"bytes32","name":"requestId","type":"bytes32"},{"indexed":false,"internalType":"string","name":"sourceChain","type":"string"},{"indexed":false,"internalType":"uint256","name":"blockNumber","type":"uint256"}],"name":"FunctionsRequestSent","type":"event"},{"anonymous":false,"inputs":[{"indexed":true,"internalType":"bytes32","name":"requestId","type":"bytes32"},{"indexed":false,"internalType":"bytes","name":"proof","type":"bytes"},{"indexed":false,"internalType":"bytes","name":"publicInputs","type":"bytes"}],"name":"FunctionsResponseReceived","type":"event"},{"anonymous":false,"inputs":[{"indexed":true,"internalType":"uint256","name":"batchId","type":"uint256"},{"indexed":false,"internalType":"bytes32","name":"aggregatedHash","type":"bytes32"},{"indexed":false,"internalType":"bool","name":"isValid","type":"bool"}],"name":"NovaFoldingCompleted","type":"event"},{"anonymous":false,"inputs":[{"indexed":true,"internalType":"uint256","name":"batchId","type":"uint256"},{"indexed":false,"internalType":"uint256[]","name":"proofIds","type":"uint256[]"},{"indexed":true,"internalType":"address","name":"requester","type":"address"}],"name":"NovaFoldingStarted","type":"event"},{"anonymous":false,"inputs":[{"indexed":true,"internalType":"address","name":"from","type":"address"},{"indexed":true,"internalType":"address","name":"to","type":"address"}],"name":"OwnershipTransferRequested","type":"event"},{"anonymous":false,"inputs":[{"indexed":true,"internalType":"address","name":"from","type":"address"},{"indexed":true,"internalType":"address","name":"to","type":"address"}],"name":"OwnershipTransferred","type":"event"},{"anonymous":false,"inputs":[{"indexed":true,"internalType":"uint256","name":"requestId","type":"uint256"},{"indexed":true,"internalType":"address","name":"requester","type":"address"},{"indexed":false,"internalType":"uint256","name":"blockNumber","type":"uint256"}],"name":"ProofRequested","type":"event"},{"anonymous":false,"inputs":[{"indexed":true,"internalType":"uint256","name":"requestId","type":"uint256"},{"indexed":false,"internalType":"bool","name":"isValid","type":"bool"},{"indexed":false,"internalType":"bytes32","name":"stateRoot","type":"bytes32"}],"name":"ProofVerified","type":"event"},{"anonymous":false,"inputs":[{"indexed":true,"internalType":"uint256","name":"requestId","type":"uint256"},{"indexed":false,"internalType":"uint256","name":"randomValue","type":"uint256"},{"indexed":false,"internalType":"uint256","name":"selectedBlock","type":"uint256"}],"name":"RandomnessReceived","type":"event"},{"anonymous":false,"inputs":[{"indexed":true,"internalType":"uint256","name":"batchId","type":"uint256"},{"indexed":false,"internalType":"uint256","name":"recursionDepth","type":"uint256"},{"indexed":false,"internalType":"bytes","name":"recursiveProof","type":"bytes"}],"name":"RecursiveProofGenerated","type":"event"},{"anonymous":false,"inputs":[{"indexed":true,"internalType":"bytes32","name":"id","type":"bytes32"}],"name":"RequestFulfilled","type":"event"},{"anonymous":false,"inputs":[{"indexed":true,"internalType":"bytes32","name":"id","type":"bytes32"}],"name":"RequestSent","type":"event"},{"inputs":[],"name":"acceptOwnership","outputs":[],"stateMutability":"nonpayable","type":"function"},{"inputs":[{"internalType":"bytes[]","name":"proofs","type":"bytes[]"},{"internalType":"bytes[]","name":"publicInputsArray","type":"bytes[]"}],"name":"aggregateProofs","outputs":[{"internalType":"bytes32","name":"aggregatedHash","type":"bytes32"}],"stateMutability":"nonpayable","type":"function"},{"inputs":[{"internalType":"uint256","name":"","type":"uint256"},{"internalType":"uint256","name":"","type":"uint256"}],"name":"aggregatedProofHashes","outputs":[{"internalType":"bytes32","name":"","type":"bytes32"}],"stateMutability":"view","type":"function"},{"inputs":[{"internalType":"address","name":"","type":"address"}],"name":"authorizedCallers","outputs":[{"internalType":"bool","name":"","type":"bool"}],"stateMutability":"view","type":"function"},{"inputs":[],"name":"baseZKContract","outputs":[{"internalType":"contract ZKProofAggregator","name":"","type":"address"}],"stateMutability":"view","type":"function"},{"inputs":[],"name":"batchCounter","outputs":[{"internalType":"uint256","name":"","type":"uint256"}],"stateMutability":"view","type":"function"},{"inputs":[{"internalType":"bytes","name":"","type":"bytes"}],"name":"checkUpkeep","outputs":[{"internalType":"bool","name":"upkeepNeeded","type":"bool"},{"internalType":"bytes","name":"","type":"bytes"}],"stateMutability":"view","type":"function"},{"inputs":[{"internalType":"uint256","name":"batchId","type":"uint256"}],"name":"continueRecursiveFolding","outputs":[],"stateMutability":"nonpayable","type":"function"},{"inputs":[],"name":"contractOwner","outputs":[{"internalType":"address","name":"","type":"address"}],"stateMutability":"view","type":"function"},{"inputs":[{"internalType":"bytes32","name":"","type":"bytes32"}],"name":"functionsRequestToProofId","outputs":[{"internalType":"uint256","name":"","type":"uint256"}],"stateMutability":"view","type":"function"},{"inputs":[{"internalType":"uint256","name":"batchId","type":"uint256"}],"name":"getFoldedInstance","outputs":[{"components":[{"internalType":"uint256","name":"stepIn","type":"uint256"},{"internalType":"uint256","name":"stepOut","type":"uint256"},{"internalType":"uint256","name":"programCounter","type":"uint256"},{"internalType":"bytes32","name":"stateRootIn","type":"bytes32"},{"internalType":"bytes32","name":"stateRootOut","type":"bytes32"},{"internalType":"bytes32","name":"nullifierHash","type":"bytes32"},{"internalType":"bool","name":"isValid","type":"bool"}],"internalType":"struct NovaProofAggregator.NovaInstance","name":"","type":"tuple"}],"stateMutability":"view","type":"function"},{"inputs":[{"internalType":"uint256","name":"requestId","type":"uint256"}],"name":"getProofRequest","outputs":[{"components":[{"internalType":"address","name":"requester","type":"address"},{"internalType":"uint256","name":"timestamp","type":"uint256"},{"internalType":"string","name":"sourceChain","type":"string"},{"internalType":"uint256","name":"blockNumber","type":"uint256"},{"internalType":"bytes32","name":"stateRoot","type":"bytes32"},{"internalType":"bool","name":"isCompleted","type":"bool"},{"internalType":"bool","name":"isValid","type":"bool"}],"internalType":"struct ZKProofAggregator.ProofRequest","name":"","type":"tuple"}],"stateMutability":"view","type":"function"},{"inputs":[{"internalType":"uint256","name":"batchId","type":"uint256"}],"name":"getRecursiveProofBatch","outputs":[{"internalType":"uint256[]","name":"proofIds","type":"uint256[]"},{"internalType":"address","name":"requester","type":"address"},{"internalType":"uint256","name":"timestamp","type":"uint256"},{"internalType":"uint256","name":"recursionDepth","type":"uint256"},{"internalType":"bytes32","name":"aggregatedHash","type":"bytes32"},{"internalType":"bool","name":"isCompleted","type":"bool"}],"stateMutability":"view","type":"function"},{"inputs":[],"name":"getSubscriptionId","outputs":[{"internalType":"uint256","name":"","type":"uint256"}],"stateMutability":"view","type":"function"},{"inputs":[],"name":"groth16Verifier","outputs":[{"internalType":"contract Groth16Verifier","name":"","type":"address"}],"stateMutability":"view","type":"function"},{"inputs":[{"internalType":"bytes32","name":"requestId","type":"bytes32"},{"internalType":"bytes","name":"response","type":"bytes"},{"internalType":"bytes","name":"err","type":"bytes"}],"name":"handleOracleFulfillment","outputs":[],"stateMutability":"nonpayable","type":"function"},{"inputs":[],"name":"initializeProofService","outputs":[],"stateMutability":"nonpayable","type":"function"},{"inputs":[{"internalType":"bytes32","name":"stateRoot","type":"bytes32"}],"name":"isStateVerified","outputs":[{"internalType":"bool","name":"","type":"bool"}],"stateMutability":"view","type":"function"},{"inputs":[],"name":"lastUpkeepTimestamp","outputs":[{"internalType":"uint256","name":"","type":"uint256"}],"stateMutability":"view","type":"function"},{"inputs":[],"name":"maxProofsPerBatch","outputs":[{"internalType":"uint256","name":"","type":"uint256"}],"stateMutability":"view","type":"function"},{"inputs":[],"name":"maxRecursionDepth","outputs":[{"internalType":"uint256","name":"","type":"uint256"}],"stateMutability":"view","type":"function"},{"inputs":[],"name":"minProofsPerBatch","outputs":[{"internalType":"uint256","name":"","type":"uint256"}],"stateMutability":"view","type":"function"},{"inputs":[],"name":"novaVerifier","outputs":[{"internalType":"address","name":"","type":"address"}],"stateMutability":"view","type":"function"},{"inputs":[],"name":"owner","outputs":[{"internalType":"address","name":"","type":"address"}],"stateMutability":"view","type":"function"},{"inputs":[{"internalType":"bytes","name":"","type":"bytes"}],"name":"performUpkeep","outputs":[],"stateMutability":"nonpayable","type":"function"},{"inputs":[{"internalType":"uint256","name":"","type":"uint256"}],"name":"proofRequests","outputs":[{"internalType":"address","name":"requester","type":"address"},{"internalType":"uint256","name":"timestamp","type":"uint256"},{"internalType":"string","name":"sourceChain","type":"string"},{"internalType":"uint256","name":"blockNumber","type":"uint256"},{"internalType":"bytes32","name":"stateRoot","type":"bytes32"},{"internalType":"bool","name":"isCompleted","type":"bool"},{"internalType":"bool","name":"isValid","type":"bool"}],"stateMutability":"view","type":"function"},{"inputs":[{"internalType":"uint256","name":"","type":"uint256"}],"name":"proofToBatch","outputs":[{"internalType":"uint256","name":"","type":"uint256"}],"stateMutability":"view","type":"function"},{"inputs":[{"internalType":"uint256","name":"requestId","type":"uint256"},{"internalType":"uint256[]","name":"randomWords","type":"uint256[]"}],"name":"rawFulfillRandomWords","outputs":[],"stateMutability":"nonpayable","type":"function"},{"inputs":[{"internalType":"uint256","name":"","type":"uint256"}],"name":"recursiveProofBatches","outputs":[{"internalType":"address","name":"requester","type":"address"},{"internalType":"uint256","name":"timestamp","type":"uint256"},{"internalType":"uint256","name":"recursionDepth","type":"uint256"},{"internalType":"bytes32","name":"aggregatedHash","type":"bytes32"},{"components":[{"internalType":"uint256","name":"stepIn","type":"uint256"},{"internalType":"uint256","name":"stepOut","type":"uint256"},{"internalType":"uint256","name":"programCounter","type":"uint256"},{"internalType":"bytes32","name":"stateRootIn","type":"bytes32"},{"internalType":"bytes32","name":"stateRootOut","type":"bytes32"},{"internalType":"bytes32","name":"nullifierHash","type":"bytes32"},{"internalType":"bool","name":"isValid","type":"bool"}],"internalType":"struct NovaProofAggregator.NovaInstance","name":"foldedInstance","type":"tuple"},{"internalType":"bool","name":"isCompleted","type":"bool"}],"stateMutability":"view","type":"function"},{"inputs":[],"name":"requestCounter","outputs":[{"internalType":"uint256","name":"","type":"uint256"}],"stateMutability":"view","type":"function"},{"inputs":[{"internalType":"string","name":"sourceChain","type":"string"},{"internalType":"uint256","name":"targetBlockNumber","type":"uint256"}],"name":"requestProofVerification","outputs":[{"internalType":"uint256","name":"requestId","type":"uint256"}],"stateMutability":"nonpayable","type":"function"},{"inputs":[],"name":"s_vrfCoordinator","outputs":[{"internalType":"contract IVRFCoordinatorV2Plus","name":"","type":"address"}],"stateMutability":"view","type":"function"},{"inputs":[{"internalType":"address","name":"caller","type":"address"},{"internalType":"bool","name":"authorized","type":"bool"}],"name":"setAuthorizedCaller","outputs":[],"stateMutability":"nonpayable","type":"function"},{"inputs":[{"internalType":"address","name":"_vrfCoordinator","type":"address"}],"name":"setCoordinator","outputs":[],"stateMutability":"nonpayable","type":"function"},{"inputs":[{"internalType":"uint64","name":"subscriptionId","type":"uint64"},{"internalType":"uint32","name":"gasLimit","type":"uint32"},{"internalType":"bytes32","name":"donId","type":"bytes32"}],"name":"setFunctionsConfig","outputs":[],"stateMutability":"nonpayable","type":"function"},{"inputs":[{"internalType":"string","name":"source","type":"string"}],"name":"setFunctionsSource","outputs":[],"stateMutability":"nonpayable","type":"function"},{"inputs":[{"internalType":"string","name":"url","type":"string"}],"name":"setProofServiceUrl","outputs":[],"stateMutability":"nonpayable","type":"function"},{"inputs":[{"internalType":"uint256","name":"newInterval","type":"uint256"}],"name":"setUpkeepInterval","outputs":[],"stateMutability":"nonpayable","type":"function"},{"inputs":[{"internalType":"uint256","name":"subscriptionId","type":"uint256"},{"internalType":"bytes32","name":"keyHash","type":"bytes32"},{"internalType":"uint32","name":"callbackGasLimit","type":"uint32"}],"name":"setVRFConfig","outputs":[],"stateMutability":"nonpayable","type":"function"},{"inputs":[{"internalType":"uint256[]","name":"proofIds","type":"uint256[]"}],"name":"startNovaFolding","outputs":[{"internalType":"uint256","name":"batchId","type":"uint256"}],"stateMutability":"nonpayable","type":"function"},{"inputs":[{"internalType":"address","name":"to","type":"address"}],"name":"transferOwnership","outputs":[],"stateMutability":"nonpayable","type":"function"},{"inputs":[{"internalType":"uint256","name":"_maxRecursionDepth","type":"uint256"},{"internalType":"uint256","name":"_minProofsPerBatch","type":"uint256"},{"internalType":"uint256","name":"_maxProofsPerBatch","type":"uint256"}],"name":"updateRecursionParams","outputs":[],"stateMutability":"nonpayable","type":"function"},{"inputs":[],"name":"upkeepInterval","outputs":[{"internalType":"uint256","name":"","type":"uint256"}],"stateMutability":"view","type":"function"},{"inputs":[{"internalType":"bytes32","name":"","type":"bytes32"}],"name":"usedNullifiers","outputs":[{"internalType":"bool","name":"","type":"bool"}],"stateMutability":"view","type":"function"},{"inputs":[{"internalType":"bytes32","name":"","type":"bytes32"}],"name":"usedProofHashes","outputs":[{"internalType":"bool","name":"","type":"bool"}],"stateMutability":"view","type":"function"},{"inputs":[{"internalType":"bytes32","name":"","type":"bytes32"}],"name":"verifiedProofs","outputs":[{"internalType":"bool","name":"","type":"bool"}],"stateMutability":"view","type":"function"},{"inputs":[{"internalType":"uint256","name":"batchId","type":"uint256"},{"internalType":"bytes","name":"proof","type":"bytes"}],"name":"verifyNovaProof","outputs":[{"internalType":"bool","name":"isValid","type":"bool"}],"stateMutability":"view","type":"function"}],"evm":{"bytecode":{"linkReferences":{},"object":"60e0346200022657601f6200559c38819003918201601f1916830192916001600160401b0391828511848610176200022b578161012092859260409788528339810103126200022657620000538262000241565b91620000626020820162000241565b9084810151606082015160808301519485168503620002265760a08301516200008e60c0850162000241565b91620000ac610100620000a460e0880162000241565b960162000241565b963315620001e257600080546001600160a01b031990811633179091556001600160a01b03999097908a168015620001d157928a979695939288740493e00000000000000000000000010003002625a0938197958c600254161760025516608052610e10600755600a549160ff1997600889600e541617600e556008556009556a0100000000000000000000600160901b039060501b169060018060b01b0319161717600a55600b551660a052336000526012602052600187600020918254161790553383601354161760135542600655601060185560026019556008601a551690601b541617601b551660c0525161534590816200025782396080518181816104bc01526142f6015260a0518161087f015260c051818181611c35015261266b0152f35b8b5163d92e233d60e01b8152600490fd5b895162461bcd60e51b815260206004820152601860248201527f43616e6e6f7420736574206f776e657220746f207a65726f00000000000000006044820152606490fd5b600080fd5b634e487b7160e01b600052604160045260246000fd5b51906001600160a01b0382168203620002265756fe6080604052600436101561001257600080fd5b60003560e01c80630ca76175146103025780631098241b146102fd57806310a14c40146102f8578063152a9526146102f3578063176d80c41461024e57806319c813be146102ee5780631bd6447a146102e95780631fe543e3146102e4578063206137aa146102df5780632091f938146102da578063223b6637146102d557806325825746146102d057806328606775146102cb57806336e0025f146102c657806339a9e4b3146102c15780633f5ef0de146102bc578063411eddd1146102b7578063454bbd29146102b2578063457b2e41146102ad5780634585e33b146102a8578063536fff6c146102a3578063569593321461029e57806357aabcac1461029957806357efe032146102945780635a74373c1461028f578063624cffd41461028a57806362625bc11461028557806368233eef14610280578063683dd7771461027b5780636e04ff0d1461027657806372e4c9f61461027157806379ba50971461026c57806384a088e5146102675780638da5cb5b146102625780638ea981171461025d578063973a814e146102585780639eccacf614610253578063a9431f231461024e578063b5cce13314610249578063ce606ee014610244578063cf23c7a81461023f578063d175d81a1461023a578063d87318b214610235578063de3d9fb714610230578063e2ecf1e21461022b578063f2fde38b146102265763fa0c7a181461022157600080fd5b611ed9565b611d91565b611d73565b611d55565b611d24565b611c64565b611c1f565b611bf6565b611ba0565b610838565b611b77565b611b59565b611ae0565b611ab7565b6119f4565b6118c7565b611899565b61184c565b611760565b611742565b6116a8565b611673565b611655565b611556565b611538565b61150c565b6114ca565b61141b565b6113b4565b61134e565b61123e565b61117f565b61113b565b611021565b610ff8565b610f7f565b610c3a565b610af3565b610ac2565b610979565b6108c1565b610869565b61076b565b610693565b610595565b61046c565b634e487b7160e01b600052604160045260246000fd5b60e081019081106001600160401b0382111761033857604052565b610307565b604081019081106001600160401b0382111761033857604052565b602081019081106001600160401b0382111761033857604052565b60c081019081106001600160401b0382111761033857604052565b90601f801991011681019081106001600160401b0382111761033857604052565b604051906103bc8261031d565b565b604051906103bc82610358565b604051906103bc82610373565b60405190608082018281106001600160401b0382111761033857604052565b6001600160401b03811161033857601f01601f191660200190565b92919261041e826103f7565b9161042c604051938461038e565b829481845281830111610449578281602093846000960137010152565b600080fd5b9080601f830112156104495781602061046993359101610412565b90565b34610449576060366003190112610449576001600160401b03600435602435828111610449576104a090369060040161044e565b91604435908111610449576104b990369060040161044e565b917f00000000000000000000000000000000000000000000000000000000000000006001600160a01b0316330361055957600092828452600460205260408420549161271083116000146105495761270f1983019283116105445761051d92613b86565b7f85e1543bf2f84fe80c6badbce3648c8539ad1df4d2b3d822938ca0538be727e68280a280f35b6120d1565b6105549250836138d9565b61051d565b60405163c6829f8360e01b8152600490fd5b602060031982011261044957600435906001600160401b038211610449576104699160040161044e565b34610449576105a33661056b565b6105b860018060a01b03601354163314611f63565b80516001600160401b038111610338576105dc816105d7600d54610cfc565b611fb3565b602080601f831160011461061e5750819061060e93600092610613575b50508160011b916000199060031b1c19161790565b600d55005b0151905038806105f9565b90601f1983169361063f600d6000526000805160206152f083398151915290565b926000905b86821061067b5750508360019510610662575b505050811b01600d55005b015160001960f88460031b161c19169055388080610657565b80600185968294968601518155019501930190610644565b346104495760203660031901126104495760043560005260166020526020604060002054604051908152f35b60005b8381106106d25750506000910152565b81810151838201526020016106c2565b906020916106fb815180928185528580860191016106bf565b601f01601f1916010190565b6020815260018060a01b0382511660208201526020820151604082015260e060c061074160408501518360608601526101008501906106e2565b9360608101516080850152608081015160a085015260a08101511515828501520151151591015290565b346104495760203660031901126104495761083460408060c0815161078f8161031d565b60009181838093528260208201526060858201528260608201528260808201528260a0820152015260043581526003602052209061082a60ff60058351946107d68661031d565b80546001600160a01b03168652600181015460208701526107f960028201610f1d565b8686015260038101546060870152600481015460808701520154818116151560a086015260081c16151560c0840152565b5191829182610707565b0390f35b3461044957602036600319011261044957600435600052600f602052602060ff604060002054166040519015158152f35b34610449576000366003190112610449576040517f00000000000000000000000000000000000000000000000000000000000000006001600160a01b03168152602090f35b6024359063ffffffff8216820361044957565b34610449576060366003190112610449576004356001600160401b0381168103610449576108ed6108ae565b61090260018060a01b03601354163314611f63565b600a80546bffffffffffffffffffffffff60501b191660509390931b67ffffffffffffffff60501b169290921760909190911b63ffffffff60901b16179055604435600b55005b9181601f84011215610449578235916001600160401b038311610449576020808501948460051b01011161044957565b34610449576040366003190112610449576004356024356001600160401b038111610449576109ac903690600401610949565b600254919290916001600160a01b031633819003610aa45750806000526004602052604060002054908115610a69576103e71943014381116105445784610a51610a307f2374d5481494ad7962d4bd1b98b91e9f3117c9b66533b2804be3d76c41a4908893610a2a610a2189610a679b612ea9565b356103e8900690565b90612eeb565b958692836003610a4a896000526003602052604060002090565b0155612ea9565b60408051913582526020820192909252a261315e565b005b60405162461bcd60e51b8152602060048201526013602482015272125b9d985b1a5908159491881c995c5d595cdd606a1b6044820152606490fd5b6044906040519063073e64fd60e21b82523360048301526024820152fd5b34610449576020366003190112610449576004356000526015602052602060ff604060002054166040519015158152f35b34610449576060366003190112610449576004356024359060443590610b2460018060a01b03601354163314611f63565b80151580610bda575b15610ba157600283101580610b97575b15610b5c57610a6792610b52610b5792601855565b601955565b601a55565b60405162461bcd60e51b8152602060048201526013602482015272496e76616c69642062617463682073697a657360681b6044820152606490fd5b5081831115610b3d565b60405162461bcd60e51b8152602060048201526011602482015270092dcecc2d8d2c840dac2f040c8cae0e8d607b1b6044820152606490fd5b506020811115610b2d565b90604051610bf28161031d565b60c060ff600683958054855260018101546020860152600281015460408601526003810154606086015260048101546080860152600581015460a08601520154161515910152565b34610449576020366003190112610449576004356000526014602052610180604060002060018060a01b0360018201541690610cf2600282015491600381015460048201549060ff600c610c9060058601610be5565b9401541694604051968752602087015260408601526060850152608084019060c08091805184526020810151602085015260408101516040850152606081015160608501526080810151608085015260a081015160a085015201511515910152565b1515610160820152f35b90600182811c92168015610d2c575b6020831014610d1657565b634e487b7160e01b600052602260045260246000fd5b91607f1691610d0b565b805460009392610d4582610cfc565b91828252602093600191600181169081600014610dad5750600114610d6c575b5050505050565b90939495506000929192528360002092846000945b838610610d9957505050500101903880808080610d65565b805485870183015294019385908201610d81565b60ff19168685015250505090151560051b010191503880808080610d65565b60405190600082600c5491610de083610cfc565b80835292602090600190818116908115610e6c5750600114610e0b575b50506103bc9250038361038e565b915092600c6000527fdf6966c971051c3d54ec59162606531493a51404a002842f56009d7e5cf4a8c7936000925b828410610e5457506103bc9450505081016020013880610dfd565b85548885018301529485019487945092810192610e39565b915050602092506103bc94915060ff191682840152151560051b8201013880610dfd565b60405190600082600d5491610ea483610cfc565b80835292602090600190818116908115610e6c5750600114610ece5750506103bc9250038361038e565b915092600d6000526000805160206152f0833981519152936000925b828410610f0557506103bc9450505081016020013880610dfd565b85548885018301529485019487945092810192610eea565b906103bc610f319260405193848092610d36565b038361038e565b959260c09592610f66929998959960018060a01b03168852602088015260e0604088015260e08701906106e2565b9660608601526080850152151560a08401521515910152565b34610449576020366003190112610449576004356000526003602052604060002060018060a01b038154169061083460018201549160405193610fd085610fc98160028601610d36565b038661038e565b600382015491600560048201549101549260405196879660ff808760081c1696169488610f38565b3461044957600036600319011261044957601b546040516001600160a01b039091168152602090f35b346104495761102f3661056b565b61104460018060a01b03601354163314611f63565b80516001600160401b0381116103385761106881611063600c54610cfc565b612002565b602080601f831160011461109e57508190611099936000926106135750508160011b916000199060031b1c19161790565b600c55005b90601f198316936110d1600c6000527fdf6966c971051c3d54ec59162606531493a51404a002842f56009d7e5cf4a8c790565b926000905b86821061110d57505083600195106110f4575b505050811b01600c55005b015160001960f88460031b161c191690553880806110e9565b806001859682949686015181550195019301906110d6565b634e487b7160e01b600052603260045260246000fd5b34610449576040366003190112610449576024356000906004358252601060205260408220805482101561117b5782526020918290200154604051908152f35b8280fd5b34610449576040366003190112610449576004356024356001600160401b038111610449576111b290369060040161044e565b9080151580611232575b6111c590612092565b6000526014602052604060002060ff600c82015416156111f75781516020928301206004919091015460405191148152f35b60405162461bcd60e51b815260206004820152601360248201527210985d18da081b9bdd0818dbdb5c1b195d1959606a1b6044820152606490fd5b506017548111156111bc565b34610449576000806003193601126113305761126560018060a01b03601354163314611f63565b611270600d54610cfc565b601f81116112e0575b50604f600d557f68747470733a2f2f6c696768742d6c696e6b2e76657263656c2e6170702f61706000805160206152f08339815191525566692f70726f766560c81b7fd7b6990105719101dabeb77144f2a3385c8033acd3af97e9423a695e81ad1eb65580f35b601f0160051c6000805160206152f0833981519152017fd7b6990105719101dabeb77144f2a3385c8033acd3af97e9423a695e81ad1eb75b8181106113255750611279565b828155600101611318565b80fd5b6001600160a01b0381160361044957565b8015150361044957565b3461044957604036600319011261044957610a6760043561136e81611333565b6024359061137b82611344565b6013546001600160a01b0391906113959083163314611f63565b16600052601260205260406000209060ff801983541691151516179055565b34610449576000366003190112610449576020601854604051908152f35b906020600319830112610449576004356001600160401b039283821161044957806023830112156104495781600401359384116104495760248483010111610449576024019190565b3461044957611429366113d2565b50506006544203428111610544576114449060075410612112565b61144d42600655565b60408051632bf7f01960e11b815260048101919091526008604482015267657468657265756d60c01b606482015260006024820152602081806084810103816000305af180156114c55761149d57005b610a679060203d6020116114be575b6114b6818361038e565b810190612152565b503d6114ac565b612161565b34610449576020366003190112610449576004356114e781611333565b60018060a01b03166000526012602052602060ff604060002054166040519015158152f35b346104495760203660031901126104495760043560005260046020526020604060002054604051908152f35b34610449576000366003190112610449576020601a54604051908152f35b34610449576040366003190112610449576004356001600160401b0381116104495761158961083491369060040161044e565b6024356115ef61159a60055461216d565b926115a484600555565b6115ac6103af565b33815290426020830152604082015282606082015260006080820152600060a0820152600060c08201526115ea846000526003602052604060002090565b61217c565b80611646576115fd8261337b565b817f7ef8ca77fdc89c79f093f2a6b2348b1fcda0beb941ce31ce9f2d9d260c4db9d2604051806116333395829190602083019252565b0390a36040519081529081906020820190565b611650818361315e565b6115fd565b34610449576000366003190112610449576020600754604051908152f35b34610449576000366003190112610449576020600654604051908152f35b6001600160401b0381116103385760051b60200190565b3461044957602080600319360112610449576004356001600160401b0381116104495736602382011215610449578060040135906116e582611691565b916116f3604051938461038e565b8083526024602084019160051b8301019136831161044957602401905b828210611733576108346117238561264e565b6040519081529081906020820190565b81358152908401908401611710565b34610449576000366003190112610449576020601754604051908152f35b346104495760203660031901126104495760043580151580611840575b61178690612092565b6000818152601460205260409020600101546001600160a01b0316330361180557806118006117c2610a67936000526014602052604060002090565b6003600c8201916117dc6117d7845460ff1690565b61293d565b016117f481546117ef6018548210612989565b61216d565b9055805460ff19169055565b61345d565b60405162461bcd60e51b81526020600482015260136024820152722737ba103130ba31b4103932b8bab2b9ba32b960691b6044820152606490fd5b5060175481111561177d565b346104495761185a366113d2565b5050600654420342811161054457600754106040519061187982610358565b6000825261083460405192839283526040602084015260408301906106e2565b34610449576020366003190112610449576118bf60018060a01b03601354163314611f63565b600435600755005b3461044957600080600319360112611330576001546001600160a01b0390811633036119455781546001600160a01b0316600080546001600160a01b0319163317905590600180546001600160a01b03191690553391167f8be0079c531659141344cd1fd0a4f28419497f9722a3daafe3b4186f6b6457e08380a380f35b60405162461bcd60e51b815260206004820152601660248201527526bab9ba10313290383937b837b9b2b21037bbb732b960511b6044820152606490fd5b90815180825260208080930193019160005b8281106119a3575050505090565b835185529381019392810192600101611995565b94919695926119d160a0959260c0885260c0880190611983565b97600180871b031660208701526040860152606085015260808401521515910152565b34610449576020806003193601126104495760043580151580611aab575b611a1b90612092565b60005260146020526040600020906001808060a01b03600184015416916002840154600385015460048601549160ff600c8801541693604051958660208a549182815201996000526020600020926000905b828210611a96575050505050611a8a85610834969798038761038e565b604051968796876119b7565b84548c529a8b019a9383019390830190611a6d565b50601754811115611a12565b34610449576000366003190112610449576000546040516001600160a01b039091168152602090f35b3461044957602036600319011261044957600435611afd81611333565b6000546001600160a01b03908116903382141580611b4b575b611b2357610a67836129e8565b60649250600254166040519163061db9c160e01b835233600484015260248301526044820152fd5b508060025416331415611b16565b34610449576000366003190112610449576020600554604051908152f35b34610449576000366003190112610449576002546040516001600160a01b039091168152602090f35b346104495760603660031901126104495760443563ffffffff811680910361044957611bd760018060a01b03601354163314611f63565b60043560085560243560095563ffffffff19600a541617600a55600080f35b34610449576000366003190112610449576013546040516001600160a01b039091168152602090f35b34610449576000366003190112610449576040517f00000000000000000000000000000000000000000000000000000000000000006001600160a01b03168152602090f35b34610449576040366003190112610449576001600160401b0360043581811161044957611c95903690600401610949565b9160243590811161044957611cae903690600401610949565b9033600052601260205260ff604060002054168015611d10575b15611cda576108349361172393612cdc565b60405162461bcd60e51b815260206004820152600e60248201526d139bdd08185d5d1a1bdc9a5e995960921b6044820152606490fd5b506013546001600160a01b03163314611cc8565b34610449576020366003190112610449576004356000526011602052602060ff604060002054166040519015158152f35b34610449576000366003190112610449576020600854604051908152f35b34610449576000366003190112610449576020601954604051908152f35b3461044957602036600319011261044957600435611dae81611333565b6000546001600160a01b039081169133839003611e4c571690338214611e0757600180546001600160a01b031916831790557fed8889f560326eb138920d842192f0eb3dd22b4f139c87a2c57538e05bae1278600080a3005b60405162461bcd60e51b815260206004820152601760248201527f43616e6e6f74207472616e7366657220746f2073656c660000000000000000006044820152606490fd5b60405162461bcd60e51b815260206004820152601660248201527527b7363c9031b0b63630b1363290313c9037bbb732b960511b6044820152606490fd5b6103bc9092919260e081019360c08091805184526020810151602085015260408101516040850152606081015160608501526080810151608085015260a081015160a085015201511515910152565b3461044957602036600319011261044957610834611f4b6005604060c06004358251611f048161031d565b600092818480935282602082015282868201528260608201528260808201528260a0820152015280151580611f57575b611f3d90612092565b815260146020522001610be5565b60405191829182611e8a565b50601754811115611f34565b15611f6a57565b60405162461bcd60e51b815260206004820152600a60248201526927b7363c9037bbb732b960b11b6044820152606490fd5b818110611fa7575050565b60008155600101611f9c565b90601f8211611fc0575050565b6103bc91600d6000526000805160206152f0833981519152906020601f840160051c83019310611ff8575b601f0160051c0190611f9c565b9091508190611feb565b90601f821161200f575050565b6103bc91600c6000527fdf6966c971051c3d54ec59162606531493a51404a002842f56009d7e5cf4a8c7906020601f840160051c83019310611ff857601f0160051c0190611f9c565b9190601f811161206757505050565b6103bc926000526020600020906020601f840160051c83019310611ff857601f0160051c0190611f9c565b1561209957565b60405162461bcd60e51b815260206004820152601060248201526f125b9d985b1a590818985d18da08125160821b6044820152606490fd5b634e487b7160e01b600052601160045260246000fd5b60001981019190821161054457565b601f1981019190821161054457565b9190820391821161054457565b1561211957565b60405162461bcd60e51b8152602060048201526011602482015270155c1ad9595c081b9bdd081b9959591959607a1b6044820152606490fd5b90816020910312610449575190565b6040513d6000823e3d90fd5b60001981146105445760010190565b815181546001600160a01b0319166001600160a01b0391909116178155600160209060208401516001840155600283019160408501518051926001600160401b038411610338576121d7846121d18754610cfc565b87612058565b602092601f851160011461226f57505093612259936122178460c0956005956103bc9a996000926106135750508160011b916000199060031b1c19161790565b90555b6060850151600382015560808501516004820155019261225261224060a0830151151590565b859060ff801983541691151516179055565b0151151590565b815461ff00191690151560081b61ff0016179055565b929190601f1985169061228787600052602060002090565b946000915b8383106122d757505050846005946103bc999894612259989460c098600195106122be575b505050811b01905561221a565b015160001960f88460031b161c191690553880806122b1565b84860151875595860195948101949181019161228c565b156122f557565b60405162461bcd60e51b8152602060048201526013602482015272125b9d985b1a59081c1c9bdbd98818dbdd5b9d606a1b6044820152606490fd5b80511561233d5760200190565b611125565b80516001101561233d5760400190565b80516002101561233d5760600190565b80516003101561233d5760800190565b80516004101561233d5760a00190565b805182101561233d5760209160051b010190565b51906103bc82611333565b81601f820112156104495780516123b7816103f7565b926123c5604051948561038e565b818452602082840101116104495761046991602080850191016106bf565b51906103bc82611344565b6020818303126104495780516001600160401b039182821161044957019160e0838203126104495761241e6103af565b9261242881612396565b84526020810151602085015260408101519283116104495761245160c0926124819483016123a1565b6040850152606081015160608501526080810151608085015261247660a082016123e3565b60a0850152016123e3565b60c082015290565b1561249057565b60405162461bcd60e51b8152602060048201526013602482015272141c9bdbd9881b9bdd0818dbdb5c1b195d1959606a1b6044820152606490fd5b156124d257565b60405162461bcd60e51b815260206004820152600d60248201526c24b73b30b634b210383937b7b360991b6044820152606490fd5b1561250e57565b60405162461bcd60e51b81526020600482015260166024820152750a0e4dedecc40c2d8e4cac2c8f240d2dc40c4c2e8c6d60531b6044820152606490fd5b908160011b918083046002149015171561054457565b8151916001600160401b03831161033857600160401b83116103385781548383558084106125be575b5060208091019160005260206000209060005b8481106125ac575050505050565b8351838201559281019260010161259e565b6125d690836000528460206000209182019101611f9c565b3861258b565b906125ef602092828151948592016106bf565b0190565b9091604093928252602082015261261382518093602086850191016106bf565b010190565b9060005b6004811061262957505050565b60019060208351930192818501550161261c565b906020610469928181520190611983565b61266981516019548110159081612930575b509291926122ee565b7f00000000000000000000000000000000000000000000000000000000000000006001600160a01b03169160005b815181101561275a578060006126b06126d09385612382565b5160405180948192630a954a9360e11b8352600483019190602083019252565b0381885afa9182156114c55761270660c060019461270b93600091612739575b5061225261270160a0830151151590565b612489565b6124cb565b61273361272c61271b8386612382565b516000526016602052604060002090565b5415612507565b01612697565b612754913d8091833e61274c818361038e565b8101906123ee565b386126f0565b5091909161276960175461216d565b9161277383601755565b612787836000526014602052604060002090565b906127928383612562565b600182810180546001600160a01b031916331790559142600282015560006003820155600c8101805460ff19169055600091600d820191600e01845b612815575b5050505050817f5d74f4c80f98633a9ce8e3f825e7019210bfb85159f33a7fceb58fa9cb8ca6216040518061280933958261263d565b0390a36104698161345d565b855184101561292b5761286661282b8588612382565b519488612842876000526016602052604060002090565b556000604096875180948192630a954a9360e11b8352600483019190602083019252565b0381875afa9182156114c5578796879361290b92600091612912575b5060808101918251916060928382018b6128d7898684519601946128b66128c487518a5192839160209b8c840196876125f3565b03601f19810183528261038e565b5190209290600052602052604060002090565b556128e06103d8565b9551865251828601525180519101209083015242908201526000838152602086905260409020612618565b01936127ce565b612925913d8091833e61274c818361038e565b38612882565b6127d3565b9050601a54101538612660565b1561294457565b60405162461bcd60e51b815260206004820152601e60248201527f50726576696f757320666f6c64696e67206e6f7420636f6d706c6574656400006044820152606490fd5b1561299057565b60405162461bcd60e51b815260206004820152601b60248201527f4d617820726563757273696f6e206465707468207265616368656400000000006044820152606490fd5b604051906129e282610358565b60008252565b6001600160a01b03168015612a3d576020817fd1a6a14209a385a964d036e404cb5cfb71f4000cdb03c9366292430787261be6926bffffffffffffffffffffffff60a01b6002541617600255604051908152a1565b60405163d92e233d60e01b8152600490fd5b15612a5657565b60405162461bcd60e51b8152602060048201526014602482015273496e76616c696420696e7075742061727261797360601b6044820152606490fd5b15612a9957565b60405162461bcd60e51b815260206004820152601c60248201527f546f6f206d616e792070726f6f667320746f20616767726567617465000000006044820152606490fd5b90612ae882611691565b612af5604051918261038e565b8281528092612b06601f1991611691565b0190602036910137565b919081101561233d5760051b81013590601e19813603018212156104495701908135916001600160401b038311610449576020018236038113610449579190565b15612b5857565b60405162461bcd60e51b815260206004820152601c60248201527f496e76616c69642070726f6f6620696e206167677265676174696f6e000000006044820152606490fd5b908092918237016000815290565b15612bb257565b60405162461bcd60e51b815260206004820152602160248201527f50726f6f6620616c7265616479207573656420696e206167677265676174696f6044820152603760f91b6064820152608490fd5b9193929093845160208096019060005b818110612c3b57505050825260601b6bffffffffffffffffffffffff191660208201526034019150565b825186529487019491870191600101612c11565b8151916001600160401b03831161033857600160401b8311610338578154838355808410612cb1575b50612c8d602080920192600052602060002090565b9060005b848110612c9f575050505050565b83518382015592810192600101612c91565b60008360005284602060002092830192015b828110612cd1575050612c78565b818155600101612cc3565b9192909281841480612ea0575b612cf290612a4f565b612cff600a851115612a92565b612d0884612ade565b9360005b818110612dca5750505050506040516020810190612d30816128b633428787612c01565b51902090612d65612d4260055461216d565b91612d4c83600555565b612d60836000526010602052604060002090565b612c4f565b612d89612d7c83600052600f602052604060002090565b805460ff19166001179055565b7f6dd2118914ad2b9a98780fafd92846eebe9361998a810f1a05f67033b17e2cdd60405180612dc48582919060206040840193600181520152565b0390a290565b80612e0f612e0a612e04612de1600195878b612b10565b612dfc612df2878c8c969596612b10565b9490923691610412565b923691610412565b906137d6565b612b51565b612e9a612d7c612e4e612e48612e2685888c612b10565b92906128b6612e36888d8d612b10565b60405195869460208601988991612b9d565b91612b9d565b519020612e7e612e79612e75612e6e846000526011602052604060002090565b5460ff1690565b1590565b612bab565b80612e89858c612382565b526000526011602052604060002090565b01612d0c565b50831515612ce9565b901561233d5790565b906001820180921161054457565b603001908160301161054457565b90612710820180921161054457565b906020820180921161054457565b9190820180921161054457565b6040519061016082018281106001600160401b038211176103385760405261013182527072696e6769667928726573756c7429293b60781b610140837f636f6e737420636861696e49643d7061727365496e7428617267735b305d293b60208201527f636f6e737420626c6f636b4e756d626572733d4a534f4e2e706172736528617260408201527f67735b315d293b636f6e737420726573756c743d7b737563636573733a74727560608201527f652c636861696e49642c626c6f636b4e756d626572732c76616c69646974794860808201527f6173683a2730783132333435363738393061626364656631323334353637383960a08201527f306162636465663132333435363738393061626364656631323334353637383960c08201527f30616263646566272c6d657461646174613a7b74696d657374616d703a4d617460e08201527f682e666c6f6f7228446174652e6e6f7728292f31303030297d7d3b72657475726101008201527f6e2046756e6374696f6e732e656e636f6465537472696e67284a534f4e2e73746101208201520152565b6040519061309d8261031d565b606060c08360008152600060208201526000604082015282808201528260808201528260a08201520152565b604051906130d682610373565b600582528160005b60a081106130ea575050565b8060606020809385010152016130de565b60405190608082018281106001600160401b038211176103385760405260038252819060005b60608082101561313b579060209182828701015201613121565b5050909150565b929190613159602091604086526040860190610d36565b930152565b907f89652d00e157965d54f5ad31af9352416c4e90b879711ec122680d4e3a1de9a690613195836000526003602052604060002090565b61319d610dcc565b80511561330d575b6132bf6132e3916131be6131b7613090565b9182614831565b6132ba60026131cb6130c9565b9501946131e76131e26131dd88610f1d565b613d34565b613ee1565b6131f082612330565b526131fa81612330565b5061322e61323b61320a89613ee1565b6128b660405193849261322860208501600190605b60f81b81520190565b906125dc565b605d60f81b815260010190565b61324482612342565b5261324e81612342565b506132676131e2613261600e5460ff1690565b60ff1690565b61327082612352565b5261327a81612352565b5061328446613ee1565b61328d82612362565b5261329781612362565b506132a0610e90565b6132a982612372565b526132b381612372565b5082613f81565b6140d0565b600a54600b54916001600160401b0363ffffffff8360901c169260501c169061429e565b936132f8856000526004602052604060002090565b5561330860405192839283613142565b0390a2565b506132e36132bf61331c612ef8565b9150506131a5565b60e060a06104699360208452805160208501526020810151604085015261ffff6040820151166060850152606081015163ffffffff80911660808601526080820151168285015201519160c08082015201906106e2565b600254600090602090613414906001600160a01b03166009546008546133f3600a5463ffffffff906133b66133ae6103be565b8a8152614378565b936133bf6103cb565b9586528886015280881c61ffff16604086015263ffffffff81831616606086015260301c16608084019063ffffffff169052565b60a0820152604051948580948193634d8e1c2f60e11b835260048301613324565b03925af180156114c55761343b9160009161343e575b506000526004602052604060002090565b55565b613457915060203d6020116114be576114b6818361038e565b3861342a565b6103bc9080600052601460205260406000206040517f2f2f204e6f766120666f6c64696e673a20636f6d707574652064657465726d6960208201527f6e697374696320616767726567617465644861736820616e642072657475726e60408201526a1030b99039ba3934b7338560a91b60608201527f636f6e73742062617463684964203d20426967496e7428617267735b305d293b606b820152600560f91b608b8201527f636f6e73742070726f6f66436f756e74203d20426967496e7428617267735b31608c820152632e949d8560e11b60ac8201526137c9816128b66137896137046135c561357660b086016020907f636f6e73742073746570496e203d20426967496e7428617267735b325d293b0a81520190565b7f2f2f2053696d706c652064657465726d696e69737469632033322d627974652081527f686578206861736820776974686f7574206574686572732e6a730a00000000006020820152603b0190565b7f66756e6374696f6e2073696d706c654861736828737472297b6c65742068313d81527f302c68323d303b666f72286c657420693d303b693c7374722e6c656e6774683b60208201527f692b2b297b636f6e73742063683d7374722e63686172436f646541742869293b60408201527f68313d282868313c3c35292d68312b6368297c303b68323d282868323c3c332960608201527f2b63682a37297c303b7d636f6e737420746f4865783d763d3e2828763e3e3e3060808201527f292e746f537472696e67283136292e706164537461727428382c27302729293b60a08201527f72657475726e20273078272b746f486578286831292b746f486578286832292b60c08201527f746f4865782868315e6832292b746f486578282868312b6832292a3133293b7d60e0820152600560f91b6101008201526101010190565b7f636f6e7374206167677265676174656448617368203d2073696d706c6548617381527f6828626174636849642e746f537472696e6728292b272c272b70726f6f66436f60208201527f756e742e746f537472696e6728292b272c272b73746570496e2e746f5374726960408201526637339414949d8560c91b606082015260670190565b7f72657475726e2046756e6374696f6e732e656e636f6465537472696e6728616781526d677265676174656448617368293b60901b6020820152602e0190565b60038254920154926143b1565b51159081156137ef575b506137ea57600190565b600090565b90505115386137e0565b1561380057565b60405162461bcd60e51b815260206004820152601960248201527f496e76616c69642046756e6374696f6e732072657175657374000000000000006044820152606490fd5b9060206104699281815201906106e2565b604051906138638261033d565b60018252607360f81b6020830152565b604051906138808261033d565b60038252621c1a5960ea1b6020830152565b6020906138a860409593828151948592016106bf565b0191825260208201520190565b6138c96020926040835260408301906106e2565b9082818303910152600081520190565b916138ee836000526004602052604060002090565b54906138fb8215156137f9565b8051613a8d57507f50348c1af87d1d2e61e0a7e9bf83a9c67f047d8de73be6b88acac8655a97581e9161330891613939613933613856565b836144bf565b61394d826000526003602052604060002090565b60058101805460ff191660011781559115613a41576139d27f6dd2118914ad2b9a98780fafd92846eebe9361998a810f1a05f67033b17e2cdd926004613a039361399e613998613873565b8961468d565b805115613a13576040516139bd816128b68b6020830195429087613892565b51902093849361010061ff0019825416179055565b01556139eb612d7c82600052600f602052604060002090565b60405191829182919060206040840193600181520152565b0390a25b604051918291826138b5565b506040516020810190613a2c816128b68b428e87613892565b519020938493805461ff001916610100179055565b50805461ff00191690557f6dd2118914ad2b9a98780fafd92846eebe9361998a810f1a05f67033b17e2cdd60405180613a8581906000602060408401938281520152565b0390a2613a07565b7f8117ad48db1a08344670d33acdeb14d7ec953b1119dafa9ab361e5e721d435629250613ada6005613acc613308946000526003602052604060002090565b01805460ff19166001179055565b60405191829182613845565b80546000918252602080832092905b828210613b03575050505090565b835485529384019360019384019390910190613af5565b600660c06103bc93805184556020810151600185015560408101516002850155606081015160038501556080810151600485015560a081015160058501550151151591019060ff801983541691151516179055565b6040906104699392815281602082015201906106e2565b91908151613d02577f788c5f43c02f6032d8146c17d8b085814337bacff42a64addf4f97ffcebdacff9150613bc5836000526014602052604060002090565b837fe72448dee39249921f3f9c2134dc1ca195a9e3882d4b52e6c3e49c775a4a4311613cef8451602086012060048501908155613c0c600c8601600160ff19825416179055565b613cd760038601956005875491613c2283612eb2565b6040516020810181613c348286613ae6565b0391613c48601f199384810183528261038e565b5190208754600185015490928c91613c9591613ca1916001600160a01b0316604080516020810196875260609290921b6bffffffffffffffffffffffff1916908201529283906054820190565b0390810183528261038e565b51902092613cad6103af565b96875260208701524260408701526060860152608085015260a0840152600160c084015201613b1a565b54604080519182526001602083015290918291820190565b0390a25461330860405192839283613b6f565b506133087f8117ad48db1a08344670d33acdeb14d7ec953b1119dafa9ab361e5e721d435629160405191829182613845565b60409081519060209082613d4b83820180936125dc565b0392613d5f601f199485810183528261038e565b51902092805182810190613d9281613d868460089067657468657265756d60c01b81520190565b0386810183528261038e565b5190208414613e9f57805167617262697472756d60c01b83820190815290613dbd8160088401613d86565b5190208414613e95578051676f7074696d69736d60c01b83820190815290613de88160088401613d86565b5190208414613e8c578051636261736560e01b83820190815290613e0f8160048401613d86565b5190208414613e82578051663837b63cb3b7b760c91b83820190815290613e398160078401613d86565b5190208414613e7957613e6690519182019282613c9585600990686176616c616e63686560b81b81520190565b51902014613e7357600190565b61a86a90565b50505050608990565b5050505061210590565b50505050600a90565b5050505061a4b190565b50505050600190565b90613eb2826103f7565b613ebf604051918261038e565b8281528092612b06601f19916103f7565b90815181101561233d570160200190565b8015613f63576000818181805b613f4b5750613efc81613ea8565b935b613f085750505090565b613f11906120e7565b90600a90613f36613f26613261848406612ec0565b60f81b6001600160f81b03191690565b841a613f428487613ed0565b53049081613efe565b9150613f58600a9161216d565b910480849291613eee565b50604051613f708161033d565b60018152600360fc1b602082015290565b815115613f8e5760a00152565b60405163fe936cb760e01b8152600490fd5b60405190613fad8261033d565b600c82526b31b7b232a637b1b0ba34b7b760a11b6020830152565b634e487b7160e01b600052602160045260246000fd5b60031115613fe857565b613fc8565b60405190613ffa8261033d565b60088252676c616e677561676560c01b6020830152565b60011115613fe857565b604051906140288261033d565b6006825265736f7572636560d01b6020830152565b6040519061404a8261033d565b60048252636172677360e01b6020830152565b6040519061406a8261033d565b600f82526e39b2b1b932ba39a637b1b0ba34b7b760891b6020830152565b604051906140958261033d565b60078252667365637265747360c81b6020830152565b604051906140b88261033d565b600982526862797465734172677360b81b6020830152565b6140d8614862565b906140ea6140e4613fa0565b836148b2565b61410781516140f881613fde565b61410181613fde565b83614974565b6141126140e4613fed565b61412c604082015161412381614011565b61410181614011565b6141376140e461401b565b6141456060820151836148b2565b60a08101805151614245575b5060808101908151516141c5575b60c0915001805151614172575b50515190565b9161417e6140e46140ab565b61418782614a15565b60005b835180518210156141b257906141ac6141a582600194612382565b5185614b2e565b0161418a565b505091506141bf81614aa1565b3861416c565b6020810180516141d481613fde565b6141dd81613fde565b156142335760c09261421661422e926141fd6141f761405d565b886148b2565b5161420781613fde565b61421081613fde565b86614974565b614227614221614088565b866148b2565b5184614b2e565b61415f565b60405163a80d31f760e01b8152600490fd5b9261425761425161403d565b846148b2565b61426083614a15565b60005b8451805182101561428b579061428561427e82600194612382565b51866148b2565b01614263565b5050925061429882614aa1565b38614151565b92906020926001600160401b039263ffffffff6142dd604051978896879663230e93b160e11b885216600487015260a0602487015260a48601906106e2565b60016044860152921660648401526084830152038160007f00000000000000000000000000000000000000000000000000000000000000006001600160a01b03165af19081156114c557600091614359575b50807f1131472297a800fee664d1d89cfa8f7676ff07189ecc53f80bbb5f4969099db8600080a290565b614372915060203d6020116114be576114b6818361038e565b3861432f565b6040519063125fa26760e31b6020830152511515602482015260248152606081018181106001600160401b038211176103385760405290565b9290916143bc613090565b928051156144ad57836132ba61445c93614449613308966132bf9560007f89652d00e157965d54f5ad31af9352416c4e90b879711ec122680d4e3a1de9a69a526000604087015260608601526144366144136130fb565b9361441d8c613ee1565b61442686612330565b5261443085612330565b50613ee1565b61443f84612342565b5261443083612342565b61445282612352565b526132b381612352565b9261446681612ece565b61447a856000526004602052604060002090565b5560405191829182919060408352600a6040840152690dcdeecc25ac4c2e8c6d60b31b6060840152602060808401930152565b6040516322ce3edd60e01b8152600490fd5b604051601160f91b6020820152806144ef6144dd60218301866125dc565b65223a7472756560d01b815260060190565b0391614503601f199384810184528361038e565b6000925b6145148251845190612105565b84116145b55760019460005b84518110156145ab5761454d61453f6145398389612eeb565b86613ed0565b516001600160f81b03191690565b61456a61455d61453f8489613ed0565b6001600160f81b03191690565b6001600160f81b03199091160361458357600101614520565b50939091945060005b6145a1576145999061216d565b929390614507565b5050505050600190565b509390919461458c565b604051601160f91b602082015291949193506145f49250908390613c95906145e09060218401613228565b67111d113a393ab29160c11b815260080190565b6000905b6146058351825190612105565b82116146855760019260005b825181101561467b5761463061453f61462a8387612eeb565b84613ed0565b61464061455d61453f8487613ed0565b6001600160f81b03199091160361465957600101614611565b5092509060005b6146735761466d9061216d565b906145f8565b505050600190565b5092919091614660565b505050600090565b916146d06146b3926146c260405194859261322860208501600190601160f91b81520190565b62111d1160e91b815260030190565b03601f19810184528361038e565b6000905b6146e18451845190612105565b82116148255760019260005b815181101561481b5761470c61453f6147068387612eeb565b88613ed0565b61471c61455d61453f8486613ed0565b6001600160f81b031990911603614735576001016146ed565b5092509060005b614750575b61474a9061216d565b906146d4565b9061475c835183612eeb565b92835b85518110806147f7575b1561477c576147779061216d565b61475f565b909392919280821161478f575050614741565b915092506147a56147a08285612105565b613ea8565b9160005b6147b38386612105565b8110156147ee57826001826147d761453f6147d16147b39686612eeb565b8b613ed0565b60001a6147e48289613ed0565b53019150506147a9565b50935050905090565b50601160f91b6001600160f81b031961481361453f848a613ed0565b161415614769565b509291909161473c565b925050506104696129d5565b8151156144ad576000808252604082015260600152565b604051906148558261033d565b6000602083606081520152565b60405161486e8161033d565b614876614848565b8082526020820160008152614889614848565b506101006020830152604051809252600082526101208201918210610449576000916040525290565b81516148f69291906001600160401b03811690601782116148f9576148e19150606060ff845192161790614ffc565b505b51906148ed614848565b5080519161522c565b50565b5060ff811161491e57614918906149108351614e03565b5082516151b8565b506148e3565b61ffff811161493d57614918906149358351614d9e565b50825161514a565b63ffffffff811161495e57614918906149568351614d39565b5082516150da565b6149189061496c8351614cc9565b508251615067565b90815191614980614848565b5082515160018101908181116105445760208501518110156149d9575b60c260206103bc96519283010153805182116149d1575b5050604051916020830152602082526149cc8261033d565b614b2e565b5238806149b4565b8160011b948286046002148315171561054457602081614a0b6103bc98614a0460c295519184614bb2565b5082614c04565b509650505061499d565b805190614a20614848565b508151516001810190818111610544576020840151811015614a6e575b609f6020809551928301015380518211614a66575b505001805190600182018092116105445752565b523880614a52565b8160011b938285046002148315171561054457602081614a978297614a04609f95519184614bb2565b5095505050614a3d565b805190614aac614848565b508151516001810190818111610544576020840151811015614afb575b60ff6020809551928301015380518211614af3575b50500180516000198101919082116105445752565b523880614ade565b8160011b938285046002148315171561054457602081614b248297614a0460ff95519184614bb2565b5095505050614ac9565b81516148f69291906001600160401b0381169060178211614b5d576148e19150604060ff845192161790614ffc565b5060ff8111614b7457614918906149108351614f97565b61ffff8111614b8b57614918906149358351614f32565b63ffffffff8111614ba457614918906149568351614ecd565b6149189061496c8351614e68565b90614bbb614848565b50601f811680614bea575b50806020830152604051908183526000825281016020019081106104495760405290565b602003602081116105445781018091116105445738614bc6565b90614c0d614848565b50805190614c19614848565b50614c278151831115615225565b82515191614c358184612eeb565b60209260208601518211614cb2575b602091865183815197820101968211614caa575b505001915b80821015614c825750600019906020036101000a019081199051169082511617905290565b909192614c9e614c98614ca49286518152612edd565b94612edd565b926120f6565b90614c5d565b523880614c58565b614cc4614cbe8361254c565b876152d8565b614c44565b614cd1614848565b508051516001810190818111610544576020830151811015614d0a575b607b60208451928301015380518211614d0657505090565b5290565b8160011b8281046002148315171561054457614d3390614d2c85519186614bb2565b5084614c04565b50614cee565b614d41614848565b508051516001810190818111610544576020830151811015614d76575b607a60208451928301015380518211614d0657505090565b8160011b8281046002148315171561054457614d9890614d2c85519186614bb2565b50614d5e565b614da6614848565b508051516001810190818111610544576020830151811015614ddb575b607960208451928301015380518211614d0657505090565b8160011b8281046002148315171561054457614dfd90614d2c85519186614bb2565b50614dc3565b614e0b614848565b508051516001810190818111610544576020830151811015614e40575b607860208451928301015380518211614d0657505090565b8160011b8281046002148315171561054457614e6290614d2c85519186614bb2565b50614e28565b614e70614848565b508051516001810190818111610544576020830151811015614ea5575b605b60208451928301015380518211614d0657505090565b8160011b8281046002148315171561054457614ec790614d2c85519186614bb2565b50614e8d565b614ed5614848565b508051516001810190818111610544576020830151811015614f0a575b605a60208451928301015380518211614d0657505090565b8160011b8281046002148315171561054457614f2c90614d2c85519186614bb2565b50614ef2565b614f3a614848565b508051516001810190818111610544576020830151811015614f6f575b605960208451928301015380518211614d0657505090565b8160011b8281046002148315171561054457614f9190614d2c85519186614bb2565b50614f57565b614f9f614848565b508051516001810190818111610544576020830151811015614fd4575b605860208451928301015380518211614d0657505090565b8160011b8281046002148315171561054457614ff690614d2c85519186614bb2565b50614fbc565b90615005614848565b508151516001810191828211610544576020840151821015615038575b60208451928301015380518211614d0657505090565b8260011b83810460021484151715610544576150619061505a86519187614bb2565b5085614c04565b50615022565b90615070614848565b5081515180600801918260081161054457602084015183116150b2575b6008845192830101906001600160401b031982511617905280518211614d0657505090565b8260011b83810460021484151715610544576150d49061505a86519187614bb2565b5061508d565b906150e3614848565b508151518060040191826004116105445760208401518311615122575b60048451928301019063ffffffff1982511617905280518211614d0657505090565b8260011b83810460021484151715610544576151449061505a86519187614bb2565b50615100565b90615153614848565b508151518060020191826002116105445760208401518311615190575b60028451928301019061ffff1982511617905280518211614d0657505090565b8260011b83810460021484151715610544576151b29061505a86519187614bb2565b50615170565b906151c1614848565b5081515180600101918260011161054457602084015183116151fd575b60018451928301019060ff1982511617905280518211614d0657505090565b8260011b838104600214841517156105445761521f9061505a86519187614bb2565b506151de565b1561044957565b9190615236614848565b506152448151831115615225565b8251519160206152548285612eeb565b9281938287015181116152c1575b8651838151978201019682116152b9575b505001915b8082101561529d5750600019906020036101000a019081199051169082511617905290565b909192614c9e614c986152b39286518152612edd565b90615278565b523880615273565b6152d36152cd8261254c565b886152d8565b615262565b906148f6916152e981519282614bb2565b50614c0456fed7b6990105719101dabeb77144f2a3385c8033acd3af97e9423a695e81ad1eb5a26469706673582212209e2b1025c6535283993e3f0b414e3a0c18fee3f7b2355ce4b5c97324500ae2b264736f6c63430008180033","opcodes":"PUSH1 0xE0 CALLVALUE PUSH3 0x226 JUMPI PUSH1 0x1F PUSH3 0x559C CODESIZE DUP2 SWAP1 SUB SWAP2 DUP3 ADD PUSH1 0x1F NOT AND DUP4 ADD SWAP3 SWAP2 PUSH1 0x1 PUSH1 0x1 PUSH1 0x40 SHL SUB SWAP2 DUP3 DUP6 GT DUP5 DUP7 LT OR PUSH3 0x22B JUMPI DUP2 PUSH2 0x120 SWAP3 DUP6 SWAP3 PUSH1 0x40 SWAP8 DUP9 MSTORE DUP4 CODECOPY DUP2 ADD SUB SLT PUSH3 0x226 JUMPI PUSH3 0x53 DUP3 PUSH3 0x241 JUMP JUMPDEST SWAP2 PUSH3 0x62 PUSH1 0x20 DUP3 ADD PUSH3 0x241 JUMP JUMPDEST SWAP1 DUP5 DUP2 ADD MLOAD PUSH1 0x60 DUP3 ADD MLOAD PUSH1 0x80 DUP4 ADD MLOAD SWAP5 DUP6 AND DUP6 SUB PUSH3 0x226 JUMPI PUSH1 0xA0 DUP4 ADD MLOAD PUSH3 0x8E PUSH1 0xC0 DUP6 ADD PUSH3 0x241 JUMP JUMPDEST SWAP2 PUSH3 0xAC PUSH2 0x100 PUSH3 0xA4 PUSH1 0xE0 DUP9 ADD PUSH3 0x241 JUMP JUMPDEST SWAP7 ADD PUSH3 0x241 JUMP JUMPDEST SWAP7 CALLER ISZERO PUSH3 0x1E2 JUMPI PUSH1 0x0 DUP1 SLOAD PUSH1 0x1 PUSH1 0x1 PUSH1 0xA0 SHL SUB NOT SWAP1 DUP2 AND CALLER OR SWAP1 SWAP2 SSTORE PUSH1 0x1 PUSH1 0x1 PUSH1 0xA0 SHL SUB SWAP10 SWAP1 SWAP8 SWAP1 DUP11 AND DUP1 ISZERO PUSH3 0x1D1 JUMPI SWAP3 DUP11 SWAP8 SWAP7 SWAP6 SWAP4 SWAP3 DUP9 PUSH21 0x493E00000000000000000000000010003002625A0 SWAP4 DUP2 SWAP8 SWAP6 DUP13 PUSH1 0x2 SLOAD AND OR PUSH1 0x2 SSTORE AND PUSH1 0x80 MSTORE PUSH2 0xE10 PUSH1 0x7 SSTORE PUSH1 0xA SLOAD SWAP2 PUSH1 0xFF NOT SWAP8 PUSH1 0x8 DUP10 PUSH1 0xE SLOAD AND OR PUSH1 0xE SSTORE PUSH1 0x8 SSTORE PUSH1 0x9 SSTORE PUSH11 0x100000000000000000000 PUSH1 0x1 PUSH1 0x90 SHL SUB SWAP1 PUSH1 0x50 SHL AND SWAP1 PUSH1 0x1 DUP1 PUSH1 0xB0 SHL SUB NOT AND OR OR PUSH1 0xA SSTORE PUSH1 0xB SSTORE AND PUSH1 0xA0 MSTORE CALLER PUSH1 0x0 MSTORE PUSH1 0x12 PUSH1 0x20 MSTORE PUSH1 0x1 DUP8 PUSH1 0x0 KECCAK256 SWAP2 DUP3 SLOAD AND OR SWAP1 SSTORE CALLER DUP4 PUSH1 0x13 SLOAD AND OR PUSH1 0x13 SSTORE TIMESTAMP PUSH1 0x6 SSTORE PUSH1 0x10 PUSH1 0x18 SSTORE PUSH1 0x2 PUSH1 0x19 SSTORE PUSH1 0x8 PUSH1 0x1A SSTORE AND SWAP1 PUSH1 0x1B SLOAD AND OR PUSH1 0x1B SSTORE AND PUSH1 0xC0 MSTORE MLOAD PUSH2 0x5345 SWAP1 DUP2 PUSH3 0x257 DUP3 CODECOPY PUSH1 0x80 MLOAD DUP2 DUP2 DUP2 PUSH2 0x4BC ADD MSTORE PUSH2 0x42F6 ADD MSTORE PUSH1 0xA0 MLOAD DUP2 PUSH2 0x87F ADD MSTORE PUSH1 0xC0 MLOAD DUP2 DUP2 DUP2 PUSH2 0x1C35 ADD MSTORE PUSH2 0x266B ADD MSTORE RETURN JUMPDEST DUP12 MLOAD PUSH4 0xD92E233D PUSH1 0xE0 SHL DUP2 MSTORE PUSH1 0x4 SWAP1 REVERT JUMPDEST DUP10 MLOAD PUSH3 0x461BCD PUSH1 0xE5 SHL DUP2 MSTORE PUSH1 0x20 PUSH1 0x4 DUP3 ADD MSTORE PUSH1 0x18 PUSH1 0x24 DUP3 ADD MSTORE PUSH32 0x43616E6E6F7420736574206F776E657220746F207A65726F0000000000000000 PUSH1 0x44 DUP3 ADD MSTORE PUSH1 0x64 SWAP1 REVERT JUMPDEST PUSH1 0x0 DUP1 REVERT JUMPDEST PUSH4 0x4E487B71 PUSH1 0xE0 SHL PUSH1 0x0 MSTORE PUSH1 0x41 PUSH1 0x4 MSTORE PUSH1 0x24 PUSH1 0x0 REVERT JUMPDEST MLOAD SWAP1 PUSH1 0x1 PUSH1 0x1 PUSH1 0xA0 SHL SUB DUP3 AND DUP3 SUB PUSH3 0x226 JUMPI JUMP INVALID PUSH1 0x80 PUSH1 0x40 MSTORE PUSH1 0x4 CALLDATASIZE LT ISZERO PUSH2 0x12 JUMPI PUSH1 0x0 DUP1 REVERT JUMPDEST PUSH1 0x0 CALLDATALOAD PUSH1 0xE0 SHR DUP1 PUSH4 0xCA76175 EQ PUSH2 0x302 JUMPI DUP1 PUSH4 0x1098241B EQ PUSH2 0x2FD JUMPI DUP1 PUSH4 0x10A14C40 EQ PUSH2 0x2F8 JUMPI DUP1 PUSH4 0x152A9526 EQ PUSH2 0x2F3 JUMPI DUP1 PUSH4 0x176D80C4 EQ PUSH2 0x24E JUMPI DUP1 PUSH4 0x19C813BE EQ PUSH2 0x2EE JUMPI DUP1 PUSH4 0x1BD6447A EQ PUSH2 0x2E9 JUMPI DUP1 PUSH4 0x1FE543E3 EQ PUSH2 0x2E4 JUMPI DUP1 PUSH4 0x206137AA EQ PUSH2 0x2DF JUMPI DUP1 PUSH4 0x2091F938 EQ PUSH2 0x2DA JUMPI DUP1 PUSH4 0x223B6637 EQ PUSH2 0x2D5 JUMPI DUP1 PUSH4 0x25825746 EQ PUSH2 0x2D0 JUMPI DUP1 PUSH4 0x28606775 EQ PUSH2 0x2CB JUMPI DUP1 PUSH4 0x36E0025F EQ PUSH2 0x2C6 JUMPI DUP1 PUSH4 0x39A9E4B3 EQ PUSH2 0x2C1 JUMPI DUP1 PUSH4 0x3F5EF0DE EQ PUSH2 0x2BC JUMPI DUP1 PUSH4 0x411EDDD1 EQ PUSH2 0x2B7 JUMPI DUP1 PUSH4 0x454BBD29 EQ PUSH2 0x2B2 JUMPI DUP1 PUSH4 0x457B2E41 EQ PUSH2 0x2AD JUMPI DUP1 PUSH4 0x4585E33B EQ PUSH2 0x2A8 JUMPI DUP1 PUSH4 0x536FFF6C EQ PUSH2 0x2A3 JUMPI DUP1 PUSH4 0x56959332 EQ PUSH2 0x29E JUMPI DUP1 PUSH4 0x57AABCAC EQ PUSH2 0x299 JUMPI DUP1 PUSH4 0x57EFE032 EQ PUSH2 0x294 JUMPI DUP1 PUSH4 0x5A74373C EQ PUSH2 0x28F JUMPI DUP1 PUSH4 0x624CFFD4 EQ PUSH2 0x28A JUMPI DUP1 PUSH4 0x62625BC1 EQ PUSH2 0x285 JUMPI DUP1 PUSH4 0x68233EEF EQ PUSH2 0x280 JUMPI DUP1 PUSH4 0x683DD777 EQ PUSH2 0x27B JUMPI DUP1 PUSH4 0x6E04FF0D EQ PUSH2 0x276 JUMPI DUP1 PUSH4 0x72E4C9F6 EQ PUSH2 0x271 JUMPI DUP1 PUSH4 0x79BA5097 EQ PUSH2 0x26C JUMPI DUP1 PUSH4 0x84A088E5 EQ PUSH2 0x267 JUMPI DUP1 PUSH4 0x8DA5CB5B EQ PUSH2 0x262 JUMPI DUP1 PUSH4 0x8EA98117 EQ PUSH2 0x25D JUMPI DUP1 PUSH4 0x973A814E EQ PUSH2 0x258 JUMPI DUP1 PUSH4 0x9ECCACF6 EQ PUSH2 0x253 JUMPI DUP1 PUSH4 0xA9431F23 EQ PUSH2 0x24E JUMPI DUP1 PUSH4 0xB5CCE133 EQ PUSH2 0x249 JUMPI DUP1 PUSH4 0xCE606EE0 EQ PUSH2 0x244 JUMPI DUP1 PUSH4 0xCF23C7A8 EQ PUSH2 0x23F JUMPI DUP1 PUSH4 0xD175D81A EQ PUSH2 0x23A JUMPI DUP1 PUSH4 0xD87318B2 EQ PUSH2 0x235 JUMPI DUP1 PUSH4 0xDE3D9FB7 EQ PUSH2 0x230 JUMPI DUP1 PUSH4 0xE2ECF1E2 EQ PUSH2 0x22B JUMPI DUP1 PUSH4 0xF2FDE38B EQ PUSH2 0x226 JUMPI PUSH4 0xFA0C7A18 EQ PUSH2 0x221 JUMPI PUSH1 0x0 DUP1 REVERT JUMPDEST PUSH2 0x1ED9 JUMP JUMPDEST PUSH2 0x1D91 JUMP JUMPDEST PUSH2 0x1D73 JUMP JUMPDEST PUSH2 0x1D55 JUMP JUMPDEST PUSH2 0x1D24 JUMP JUMPDEST PUSH2 0x1C64 JUMP JUMPDEST PUSH2 0x1C1F JUMP JUMPDEST PUSH2 0x1BF6 JUMP JUMPDEST PUSH2 0x1BA0 JUMP JUMPDEST PUSH2 0x838 JUMP JUMPDEST PUSH2 0x1B77 JUMP JUMPDEST PUSH2 0x1B59 JUMP JUMPDEST PUSH2 0x1AE0 JUMP JUMPDEST PUSH2 0x1AB7 JUMP JUMPDEST PUSH2 0x19F4 JUMP JUMPDEST PUSH2 0x18C7 JUMP JUMPDEST PUSH2 0x1899 JUMP JUMPDEST PUSH2 0x184C JUMP JUMPDEST PUSH2 0x1760 JUMP JUMPDEST PUSH2 0x1742 JUMP JUMPDEST PUSH2 0x16A8 JUMP JUMPDEST PUSH2 0x1673 JUMP JUMPDEST PUSH2 0x1655 JUMP JUMPDEST PUSH2 0x1556 JUMP JUMPDEST PUSH2 0x1538 JUMP JUMPDEST PUSH2 0x150C JUMP JUMPDEST PUSH2 0x14CA JUMP JUMPDEST PUSH2 0x141B JUMP JUMPDEST PUSH2 0x13B4 JUMP JUMPDEST PUSH2 0x134E JUMP JUMPDEST PUSH2 0x123E JUMP JUMPDEST PUSH2 0x117F JUMP JUMPDEST PUSH2 0x113B JUMP JUMPDEST PUSH2 0x1021 JUMP JUMPDEST PUSH2 0xFF8 JUMP JUMPDEST PUSH2 0xF7F JUMP JUMPDEST PUSH2 0xC3A JUMP JUMPDEST PUSH2 0xAF3 JUMP JUMPDEST PUSH2 0xAC2 JUMP JUMPDEST PUSH2 0x979 JUMP JUMPDEST PUSH2 0x8C1 JUMP JUMPDEST PUSH2 0x869 JUMP JUMPDEST PUSH2 0x76B JUMP JUMPDEST PUSH2 0x693 JUMP JUMPDEST PUSH2 0x595 JUMP JUMPDEST PUSH2 0x46C JUMP JUMPDEST PUSH4 0x4E487B71 PUSH1 0xE0 SHL PUSH1 0x0 MSTORE PUSH1 0x41 PUSH1 0x4 MSTORE PUSH1 0x24 PUSH1 0x0 REVERT JUMPDEST PUSH1 0xE0 DUP2 ADD SWAP1 DUP2 LT PUSH1 0x1 PUSH1 0x1 PUSH1 0x40 SHL SUB DUP3 GT OR PUSH2 0x338 JUMPI PUSH1 0x40 MSTORE JUMP JUMPDEST PUSH2 0x307 JUMP JUMPDEST PUSH1 0x40 DUP2 ADD SWAP1 DUP2 LT PUSH1 0x1 PUSH1 0x1 PUSH1 0x40 SHL SUB DUP3 GT OR PUSH2 0x338 JUMPI PUSH1 0x40 MSTORE JUMP JUMPDEST PUSH1 0x20 DUP2 ADD SWAP1 DUP2 LT PUSH1 0x1 PUSH1 0x1 PUSH1 0x40 SHL SUB DUP3 GT OR PUSH2 0x338 JUMPI PUSH1 0x40 MSTORE JUMP JUMPDEST PUSH1 0xC0 DUP2 ADD SWAP1 DUP2 LT PUSH1 0x1 PUSH1 0x1 PUSH1 0x40 SHL SUB DUP3 GT OR PUSH2 0x338 JUMPI PUSH1 0x40 MSTORE JUMP JUMPDEST SWAP1 PUSH1 0x1F DUP1 NOT SWAP2 ADD AND DUP2 ADD SWAP1 DUP2 LT PUSH1 0x1 PUSH1 0x1 PUSH1 0x40 SHL SUB DUP3 GT OR PUSH2 0x338 JUMPI PUSH1 0x40 MSTORE JUMP JUMPDEST PUSH1 0x40 MLOAD SWAP1 PUSH2 0x3BC DUP3 PUSH2 0x31D JUMP JUMPDEST JUMP JUMPDEST PUSH1 0x40 MLOAD SWAP1 PUSH2 0x3BC DUP3 PUSH2 0x358 JUMP JUMPDEST PUSH1 0x40 MLOAD SWAP1 PUSH2 0x3BC DUP3 PUSH2 0x373 JUMP JUMPDEST PUSH1 0x40 MLOAD SWAP1 PUSH1 0x80 DUP3 ADD DUP3 DUP2 LT PUSH1 0x1 PUSH1 0x1 PUSH1 0x40 SHL SUB DUP3 GT OR PUSH2 0x338 JUMPI PUSH1 0x40 MSTORE JUMP JUMPDEST PUSH1 0x1 PUSH1 0x1 PUSH1 0x40 SHL SUB DUP2 GT PUSH2 0x338 JUMPI PUSH1 0x1F ADD PUSH1 0x1F NOT AND PUSH1 0x20 ADD SWAP1 JUMP JUMPDEST SWAP3 SWAP2 SWAP3 PUSH2 0x41E DUP3 PUSH2 0x3F7 JUMP JUMPDEST SWAP2 PUSH2 0x42C PUSH1 0x40 MLOAD SWAP4 DUP5 PUSH2 0x38E JUMP JUMPDEST DUP3 SWAP5 DUP2 DUP5 MSTORE DUP2 DUP4 ADD GT PUSH2 0x449 JUMPI DUP3 DUP2 PUSH1 0x20 SWAP4 DUP5 PUSH1 0x0 SWAP7 ADD CALLDATACOPY ADD ADD MSTORE JUMP JUMPDEST PUSH1 0x0 DUP1 REVERT JUMPDEST SWAP1 DUP1 PUSH1 0x1F DUP4 ADD SLT ISZERO PUSH2 0x449 JUMPI DUP2 PUSH1 0x20 PUSH2 0x469 SWAP4 CALLDATALOAD SWAP2 ADD PUSH2 0x412 JUMP JUMPDEST SWAP1 JUMP JUMPDEST CALLVALUE PUSH2 0x449 JUMPI PUSH1 0x60 CALLDATASIZE PUSH1 0x3 NOT ADD SLT PUSH2 0x449 JUMPI PUSH1 0x1 PUSH1 0x1 PUSH1 0x40 SHL SUB PUSH1 0x4 CALLDATALOAD PUSH1 0x24 CALLDATALOAD DUP3 DUP2 GT PUSH2 0x449 JUMPI PUSH2 0x4A0 SWAP1 CALLDATASIZE SWAP1 PUSH1 0x4 ADD PUSH2 0x44E JUMP JUMPDEST SWAP2 PUSH1 0x44 CALLDATALOAD SWAP1 DUP2 GT PUSH2 0x449 JUMPI PUSH2 0x4B9 SWAP1 CALLDATASIZE SWAP1 PUSH1 0x4 ADD PUSH2 0x44E JUMP JUMPDEST SWAP2 PUSH32 0x0 PUSH1 0x1 PUSH1 0x1 PUSH1 0xA0 SHL SUB AND CALLER SUB PUSH2 0x559 JUMPI PUSH1 0x0 SWAP3 DUP3 DUP5 MSTORE PUSH1 0x4 PUSH1 0x20 MSTORE PUSH1 0x40 DUP5 KECCAK256 SLOAD SWAP2 PUSH2 0x2710 DUP4 GT PUSH1 0x0 EQ PUSH2 0x549 JUMPI PUSH2 0x270F NOT DUP4 ADD SWAP3 DUP4 GT PUSH2 0x544 JUMPI PUSH2 0x51D SWAP3 PUSH2 0x3B86 JUMP JUMPDEST PUSH32 0x85E1543BF2F84FE80C6BADBCE3648C8539AD1DF4D2B3D822938CA0538BE727E6 DUP3 DUP1 LOG2 DUP1 RETURN JUMPDEST PUSH2 0x20D1 JUMP JUMPDEST PUSH2 0x554 SWAP3 POP DUP4 PUSH2 0x38D9 JUMP JUMPDEST PUSH2 0x51D JUMP JUMPDEST PUSH1 0x40 MLOAD PUSH4 0xC6829F83 PUSH1 0xE0 SHL DUP2 MSTORE PUSH1 0x4 SWAP1 REVERT JUMPDEST PUSH1 0x20 PUSH1 0x3 NOT DUP3 ADD SLT PUSH2 0x449 JUMPI PUSH1 0x4 CALLDATALOAD SWAP1 PUSH1 0x1 PUSH1 0x1 PUSH1 0x40 SHL SUB DUP3 GT PUSH2 0x449 JUMPI PUSH2 0x469 SWAP2 PUSH1 0x4 ADD PUSH2 0x44E JUMP JUMPDEST CALLVALUE PUSH2 0x449 JUMPI PUSH2 0x5A3 CALLDATASIZE PUSH2 0x56B JUMP JUMPDEST PUSH2 0x5B8 PUSH1 0x1 DUP1 PUSH1 0xA0 SHL SUB PUSH1 0x13 SLOAD AND CALLER EQ PUSH2 0x1F63 JUMP JUMPDEST DUP1 MLOAD PUSH1 0x1 PUSH1 0x1 PUSH1 0x40 SHL SUB DUP2 GT PUSH2 0x338 JUMPI PUSH2 0x5DC DUP2 PUSH2 0x5D7 PUSH1 0xD SLOAD PUSH2 0xCFC JUMP JUMPDEST PUSH2 0x1FB3 JUMP JUMPDEST PUSH1 0x20 DUP1 PUSH1 0x1F DUP4 GT PUSH1 0x1 EQ PUSH2 0x61E JUMPI POP DUP2 SWAP1 PUSH2 0x60E SWAP4 PUSH1 0x0 SWAP3 PUSH2 0x613 JUMPI JUMPDEST POP POP DUP2 PUSH1 0x1 SHL SWAP2 PUSH1 0x0 NOT SWAP1 PUSH1 0x3 SHL SHR NOT AND OR SWAP1 JUMP JUMPDEST PUSH1 0xD SSTORE STOP JUMPDEST ADD MLOAD SWAP1 POP CODESIZE DUP1 PUSH2 0x5F9 JUMP JUMPDEST SWAP1 PUSH1 0x1F NOT DUP4 AND SWAP4 PUSH2 0x63F PUSH1 0xD PUSH1 0x0 MSTORE PUSH1 0x0 DUP1 MLOAD PUSH1 0x20 PUSH2 0x52F0 DUP4 CODECOPY DUP2 MLOAD SWAP2 MSTORE SWAP1 JUMP JUMPDEST SWAP3 PUSH1 0x0 SWAP1 JUMPDEST DUP7 DUP3 LT PUSH2 0x67B JUMPI POP POP DUP4 PUSH1 0x1 SWAP6 LT PUSH2 0x662 JUMPI JUMPDEST POP POP POP DUP2 SHL ADD PUSH1 0xD SSTORE STOP JUMPDEST ADD MLOAD PUSH1 0x0 NOT PUSH1 0xF8 DUP5 PUSH1 0x3 SHL AND SHR NOT AND SWAP1 SSTORE CODESIZE DUP1 DUP1 PUSH2 0x657 JUMP JUMPDEST DUP1 PUSH1 0x1 DUP6 SWAP7 DUP3 SWAP5 SWAP7 DUP7 ADD MLOAD DUP2 SSTORE ADD SWAP6 ADD SWAP4 ADD SWAP1 PUSH2 0x644 JUMP JUMPDEST CALLVALUE PUSH2 0x449 JUMPI PUSH1 0x20 CALLDATASIZE PUSH1 0x3 NOT ADD SLT PUSH2 0x449 JUMPI PUSH1 0x4 CALLDATALOAD PUSH1 0x0 MSTORE PUSH1 0x16 PUSH1 0x20 MSTORE PUSH1 0x20 PUSH1 0x40 PUSH1 0x0 KECCAK256 SLOAD PUSH1 0x40 MLOAD SWAP1 DUP2 MSTORE RETURN JUMPDEST PUSH1 0x0 JUMPDEST DUP4 DUP2 LT PUSH2 0x6D2 JUMPI POP POP PUSH1 0x0 SWAP2 ADD MSTORE JUMP JUMPDEST DUP2 DUP2 ADD MLOAD DUP4 DUP3 ADD MSTORE PUSH1 0x20 ADD PUSH2 0x6C2 JUMP JUMPDEST SWAP1 PUSH1 0x20 SWAP2 PUSH2 0x6FB DUP2 MLOAD DUP1 SWAP3 DUP2 DUP6 MSTORE DUP6 DUP1 DUP7 ADD SWAP2 ADD PUSH2 0x6BF JUMP JUMPDEST PUSH1 0x1F ADD PUSH1 0x1F NOT AND ADD ADD SWAP1 JUMP JUMPDEST PUSH1 0x20 DUP2 MSTORE PUSH1 0x1 DUP1 PUSH1 0xA0 SHL SUB DUP3 MLOAD AND PUSH1 0x20 DUP3 ADD MSTORE PUSH1 0x20 DUP3 ADD MLOAD PUSH1 0x40 DUP3 ADD MSTORE PUSH1 0xE0 PUSH1 0xC0 PUSH2 0x741 PUSH1 0x40 DUP6 ADD MLOAD DUP4 PUSH1 0x60 DUP7 ADD MSTORE PUSH2 0x100 DUP6 ADD SWAP1 PUSH2 0x6E2 JUMP JUMPDEST SWAP4 PUSH1 0x60 DUP2 ADD MLOAD PUSH1 0x80 DUP6 ADD MSTORE PUSH1 0x80 DUP2 ADD MLOAD PUSH1 0xA0 DUP6 ADD MSTORE PUSH1 0xA0 DUP2 ADD MLOAD ISZERO ISZERO DUP3 DUP6 ADD MSTORE ADD MLOAD ISZERO ISZERO SWAP2 ADD MSTORE SWAP1 JUMP JUMPDEST CALLVALUE PUSH2 0x449 JUMPI PUSH1 0x20 CALLDATASIZE PUSH1 0x3 NOT ADD SLT PUSH2 0x449 JUMPI PUSH2 0x834 PUSH1 0x40 DUP1 PUSH1 0xC0 DUP2 MLOAD PUSH2 0x78F DUP2 PUSH2 0x31D JUMP JUMPDEST PUSH1 0x0 SWAP2 DUP2 DUP4 DUP1 SWAP4 MSTORE DUP3 PUSH1 0x20 DUP3 ADD MSTORE PUSH1 0x60 DUP6 DUP3 ADD MSTORE DUP3 PUSH1 0x60 DUP3 ADD MSTORE DUP3 PUSH1 0x80 DUP3 ADD MSTORE DUP3 PUSH1 0xA0 DUP3 ADD MSTORE ADD MSTORE PUSH1 0x4 CALLDATALOAD DUP2 MSTORE PUSH1 0x3 PUSH1 0x20 MSTORE KECCAK256 SWAP1 PUSH2 0x82A PUSH1 0xFF PUSH1 0x5 DUP4 MLOAD SWAP5 PUSH2 0x7D6 DUP7 PUSH2 0x31D JUMP JUMPDEST DUP1 SLOAD PUSH1 0x1 PUSH1 0x1 PUSH1 0xA0 SHL SUB AND DUP7 MSTORE PUSH1 0x1 DUP2 ADD SLOAD PUSH1 0x20 DUP8 ADD MSTORE PUSH2 0x7F9 PUSH1 0x2 DUP3 ADD PUSH2 0xF1D JUMP JUMPDEST DUP7 DUP7 ADD MSTORE PUSH1 0x3 DUP2 ADD SLOAD PUSH1 0x60 DUP8 ADD MSTORE PUSH1 0x4 DUP2 ADD SLOAD PUSH1 0x80 DUP8 ADD MSTORE ADD SLOAD DUP2 DUP2 AND ISZERO ISZERO PUSH1 0xA0 DUP7 ADD MSTORE PUSH1 0x8 SHR AND ISZERO ISZERO PUSH1 0xC0 DUP5 ADD MSTORE JUMP JUMPDEST MLOAD SWAP2 DUP3 SWAP2 DUP3 PUSH2 0x707 JUMP JUMPDEST SUB SWAP1 RETURN JUMPDEST CALLVALUE PUSH2 0x449 JUMPI PUSH1 0x20 CALLDATASIZE PUSH1 0x3 NOT ADD SLT PUSH2 0x449 JUMPI PUSH1 0x4 CALLDATALOAD PUSH1 0x0 MSTORE PUSH1 0xF PUSH1 0x20 MSTORE PUSH1 0x20 PUSH1 0xFF PUSH1 0x40 PUSH1 0x0 KECCAK256 SLOAD AND PUSH1 0x40 MLOAD SWAP1 ISZERO ISZERO DUP2 MSTORE RETURN JUMPDEST CALLVALUE PUSH2 0x449 JUMPI PUSH1 0x0 CALLDATASIZE PUSH1 0x3 NOT ADD SLT PUSH2 0x449 JUMPI PUSH1 0x40 MLOAD PUSH32 0x0 PUSH1 0x1 PUSH1 0x1 PUSH1 0xA0 SHL SUB AND DUP2 MSTORE PUSH1 0x20 SWAP1 RETURN JUMPDEST PUSH1 0x24 CALLDATALOAD SWAP1 PUSH4 0xFFFFFFFF DUP3 AND DUP3 SUB PUSH2 0x449 JUMPI JUMP JUMPDEST CALLVALUE PUSH2 0x449 JUMPI PUSH1 0x60 CALLDATASIZE PUSH1 0x3 NOT ADD SLT PUSH2 0x449 JUMPI PUSH1 0x4 CALLDATALOAD PUSH1 0x1 PUSH1 0x1 PUSH1 0x40 SHL SUB DUP2 AND DUP2 SUB PUSH2 0x449 JUMPI PUSH2 0x8ED PUSH2 0x8AE JUMP JUMPDEST PUSH2 0x902 PUSH1 0x1 DUP1 PUSH1 0xA0 SHL SUB PUSH1 0x13 SLOAD AND CALLER EQ PUSH2 0x1F63 JUMP JUMPDEST PUSH1 0xA DUP1 SLOAD PUSH12 0xFFFFFFFFFFFFFFFFFFFFFFFF PUSH1 0x50 SHL NOT AND PUSH1 0x50 SWAP4 SWAP1 SWAP4 SHL PUSH8 0xFFFFFFFFFFFFFFFF PUSH1 0x50 SHL AND SWAP3 SWAP1 SWAP3 OR PUSH1 0x90 SWAP2 SWAP1 SWAP2 SHL PUSH4 0xFFFFFFFF PUSH1 0x90 SHL AND OR SWAP1 SSTORE PUSH1 0x44 CALLDATALOAD PUSH1 0xB SSTORE STOP JUMPDEST SWAP2 DUP2 PUSH1 0x1F DUP5 ADD SLT ISZERO PUSH2 0x449 JUMPI DUP3 CALLDATALOAD SWAP2 PUSH1 0x1 PUSH1 0x1 PUSH1 0x40 SHL SUB DUP4 GT PUSH2 0x449 JUMPI PUSH1 0x20 DUP1 DUP6 ADD SWAP5 DUP5 PUSH1 0x5 SHL ADD ADD GT PUSH2 0x449 JUMPI JUMP JUMPDEST CALLVALUE PUSH2 0x449 JUMPI PUSH1 0x40 CALLDATASIZE PUSH1 0x3 NOT ADD SLT PUSH2 0x449 JUMPI PUSH1 0x4 CALLDATALOAD PUSH1 0x24 CALLDATALOAD PUSH1 0x1 PUSH1 0x1 PUSH1 0x40 SHL SUB DUP2 GT PUSH2 0x449 JUMPI PUSH2 0x9AC SWAP1 CALLDATASIZE SWAP1 PUSH1 0x4 ADD PUSH2 0x949 JUMP JUMPDEST PUSH1 0x2 SLOAD SWAP2 SWAP3 SWAP1 SWAP2 PUSH1 0x1 PUSH1 0x1 PUSH1 0xA0 SHL SUB AND CALLER DUP2 SWAP1 SUB PUSH2 0xAA4 JUMPI POP DUP1 PUSH1 0x0 MSTORE PUSH1 0x4 PUSH1 0x20 MSTORE PUSH1 0x40 PUSH1 0x0 KECCAK256 SLOAD SWAP1 DUP2 ISZERO PUSH2 0xA69 JUMPI PUSH2 0x3E7 NOT NUMBER ADD NUMBER DUP2 GT PUSH2 0x544 JUMPI DUP5 PUSH2 0xA51 PUSH2 0xA30 PUSH32 0x2374D5481494AD7962D4BD1B98B91E9F3117C9B66533B2804BE3D76C41A49088 SWAP4 PUSH2 0xA2A PUSH2 0xA21 DUP10 PUSH2 0xA67 SWAP12 PUSH2 0x2EA9 JUMP JUMPDEST CALLDATALOAD PUSH2 0x3E8 SWAP1 MOD SWAP1 JUMP JUMPDEST SWAP1 PUSH2 0x2EEB JUMP JUMPDEST SWAP6 DUP7 SWAP3 DUP4 PUSH1 0x3 PUSH2 0xA4A DUP10 PUSH1 0x0 MSTORE PUSH1 0x3 PUSH1 0x20 MSTORE PUSH1 0x40 PUSH1 0x0 KECCAK256 SWAP1 JUMP JUMPDEST ADD SSTORE PUSH2 0x2EA9 JUMP JUMPDEST PUSH1 0x40 DUP1 MLOAD SWAP2 CALLDATALOAD DUP3 MSTORE PUSH1 0x20 DUP3 ADD SWAP3 SWAP1 SWAP3 MSTORE LOG2 PUSH2 0x315E JUMP JUMPDEST STOP JUMPDEST PUSH1 0x40 MLOAD PUSH3 0x461BCD PUSH1 0xE5 SHL DUP2 MSTORE PUSH1 0x20 PUSH1 0x4 DUP3 ADD MSTORE PUSH1 0x13 PUSH1 0x24 DUP3 ADD MSTORE PUSH19 0x125B9D985B1A5908159491881C995C5D595CDD PUSH1 0x6A SHL PUSH1 0x44 DUP3 ADD MSTORE PUSH1 0x64 SWAP1 REVERT JUMPDEST PUSH1 0x44 SWAP1 PUSH1 0x40 MLOAD SWAP1 PUSH4 0x73E64FD PUSH1 0xE2 SHL DUP3 MSTORE CALLER PUSH1 0x4 DUP4 ADD MSTORE PUSH1 0x24 DUP3 ADD MSTORE REVERT JUMPDEST CALLVALUE PUSH2 0x449 JUMPI PUSH1 0x20 CALLDATASIZE PUSH1 0x3 NOT ADD SLT PUSH2 0x449 JUMPI PUSH1 0x4 CALLDATALOAD PUSH1 0x0 MSTORE PUSH1 0x15 PUSH1 0x20 MSTORE PUSH1 0x20 PUSH1 0xFF PUSH1 0x40 PUSH1 0x0 KECCAK256 SLOAD AND PUSH1 0x40 MLOAD SWAP1 ISZERO ISZERO DUP2 MSTORE RETURN JUMPDEST CALLVALUE PUSH2 0x449 JUMPI PUSH1 0x60 CALLDATASIZE PUSH1 0x3 NOT ADD SLT PUSH2 0x449 JUMPI PUSH1 0x4 CALLDATALOAD PUSH1 0x24 CALLDATALOAD SWAP1 PUSH1 0x44 CALLDATALOAD SWAP1 PUSH2 0xB24 PUSH1 0x1 DUP1 PUSH1 0xA0 SHL SUB PUSH1 0x13 SLOAD AND CALLER EQ PUSH2 0x1F63 JUMP JUMPDEST DUP1 ISZERO ISZERO DUP1 PUSH2 0xBDA JUMPI JUMPDEST ISZERO PUSH2 0xBA1 JUMPI PUSH1 0x2 DUP4 LT ISZERO DUP1 PUSH2 0xB97 JUMPI JUMPDEST ISZERO PUSH2 0xB5C JUMPI PUSH2 0xA67 SWAP3 PUSH2 0xB52 PUSH2 0xB57 SWAP3 PUSH1 0x18 SSTORE JUMP JUMPDEST PUSH1 0x19 SSTORE JUMP JUMPDEST PUSH1 0x1A SSTORE JUMP JUMPDEST PUSH1 0x40 MLOAD PUSH3 0x461BCD PUSH1 0xE5 SHL DUP2 MSTORE PUSH1 0x20 PUSH1 0x4 DUP3 ADD MSTORE PUSH1 0x13 PUSH1 0x24 DUP3 ADD MSTORE PUSH19 0x496E76616C69642062617463682073697A6573 PUSH1 0x68 SHL PUSH1 0x44 DUP3 ADD MSTORE PUSH1 0x64 SWAP1 REVERT JUMPDEST POP DUP2 DUP4 GT ISZERO PUSH2 0xB3D JUMP JUMPDEST PUSH1 0x40 MLOAD PUSH3 0x461BCD PUSH1 0xE5 SHL DUP2 MSTORE PUSH1 0x20 PUSH1 0x4 DUP3 ADD MSTORE PUSH1 0x11 PUSH1 0x24 DUP3 ADD MSTORE PUSH17 0x92DCECC2D8D2C840DAC2F040C8CAE0E8D PUSH1 0x7B SHL PUSH1 0x44 DUP3 ADD MSTORE PUSH1 0x64 SWAP1 REVERT JUMPDEST POP PUSH1 0x20 DUP2 GT ISZERO PUSH2 0xB2D JUMP JUMPDEST SWAP1 PUSH1 0x40 MLOAD PUSH2 0xBF2 DUP2 PUSH2 0x31D JUMP JUMPDEST PUSH1 0xC0 PUSH1 0xFF PUSH1 0x6 DUP4 SWAP6 DUP1 SLOAD DUP6 MSTORE PUSH1 0x1 DUP2 ADD SLOAD PUSH1 0x20 DUP7 ADD MSTORE PUSH1 0x2 DUP2 ADD SLOAD PUSH1 0x40 DUP7 ADD MSTORE PUSH1 0x3 DUP2 ADD SLOAD PUSH1 0x60 DUP7 ADD MSTORE PUSH1 0x4 DUP2 ADD SLOAD PUSH1 0x80 DUP7 ADD MSTORE PUSH1 0x5 DUP2 ADD SLOAD PUSH1 0xA0 DUP7 ADD MSTORE ADD SLOAD AND ISZERO ISZERO SWAP2 ADD MSTORE JUMP JUMPDEST CALLVALUE PUSH2 0x449 JUMPI PUSH1 0x20 CALLDATASIZE PUSH1 0x3 NOT ADD SLT PUSH2 0x449 JUMPI PUSH1 0x4 CALLDATALOAD PUSH1 0x0 MSTORE PUSH1 0x14 PUSH1 0x20 MSTORE PUSH2 0x180 PUSH1 0x40 PUSH1 0x0 KECCAK256 PUSH1 0x1 DUP1 PUSH1 0xA0 SHL SUB PUSH1 0x1 DUP3 ADD SLOAD AND SWAP1 PUSH2 0xCF2 PUSH1 0x2 DUP3 ADD SLOAD SWAP2 PUSH1 0x3 DUP2 ADD SLOAD PUSH1 0x4 DUP3 ADD SLOAD SWAP1 PUSH1 0xFF PUSH1 0xC PUSH2 0xC90 PUSH1 0x5 DUP7 ADD PUSH2 0xBE5 JUMP JUMPDEST SWAP5 ADD SLOAD AND SWAP5 PUSH1 0x40 MLOAD SWAP7 DUP8 MSTORE PUSH1 0x20 DUP8 ADD MSTORE PUSH1 0x40 DUP7 ADD MSTORE PUSH1 0x60 DUP6 ADD MSTORE PUSH1 0x80 DUP5 ADD SWAP1 PUSH1 0xC0 DUP1 SWAP2 DUP1 MLOAD DUP5 MSTORE PUSH1 0x20 DUP2 ADD MLOAD PUSH1 0x20 DUP6 ADD MSTORE PUSH1 0x40 DUP2 ADD MLOAD PUSH1 0x40 DUP6 ADD MSTORE PUSH1 0x60 DUP2 ADD MLOAD PUSH1 0x60 DUP6 ADD MSTORE PUSH1 0x80 DUP2 ADD MLOAD PUSH1 0x80 DUP6 ADD MSTORE PUSH1 0xA0 DUP2 ADD MLOAD PUSH1 0xA0 DUP6 ADD MSTORE ADD MLOAD ISZERO ISZERO SWAP2 ADD MSTORE JUMP JUMPDEST ISZERO ISZERO PUSH2 0x160 DUP3 ADD MSTORE RETURN JUMPDEST SWAP1 PUSH1 0x1 DUP3 DUP2 SHR SWAP3 AND DUP1 ISZERO PUSH2 0xD2C JUMPI JUMPDEST PUSH1 0x20 DUP4 LT EQ PUSH2 0xD16 JUMPI JUMP JUMPDEST PUSH4 0x4E487B71 PUSH1 0xE0 SHL PUSH1 0x0 MSTORE PUSH1 0x22 PUSH1 0x4 MSTORE PUSH1 0x24 PUSH1 0x0 REVERT JUMPDEST SWAP2 PUSH1 0x7F AND SWAP2 PUSH2 0xD0B JUMP JUMPDEST DUP1 SLOAD PUSH1 0x0 SWAP4 SWAP3 PUSH2 0xD45 DUP3 PUSH2 0xCFC JUMP JUMPDEST SWAP2 DUP3 DUP3 MSTORE PUSH1 0x20 SWAP4 PUSH1 0x1 SWAP2 PUSH1 0x1 DUP2 AND SWAP1 DUP2 PUSH1 0x0 EQ PUSH2 0xDAD JUMPI POP PUSH1 0x1 EQ PUSH2 0xD6C JUMPI JUMPDEST POP POP POP POP POP JUMP JUMPDEST SWAP1 SWAP4 SWAP5 SWAP6 POP PUSH1 0x0 SWAP3 SWAP2 SWAP3 MSTORE DUP4 PUSH1 0x0 KECCAK256 SWAP3 DUP5 PUSH1 0x0 SWAP5 JUMPDEST DUP4 DUP7 LT PUSH2 0xD99 JUMPI POP POP POP POP ADD ADD SWAP1 CODESIZE DUP1 DUP1 DUP1 DUP1 PUSH2 0xD65 JUMP JUMPDEST DUP1 SLOAD DUP6 DUP8 ADD DUP4 ADD MSTORE SWAP5 ADD SWAP4 DUP6 SWAP1 DUP3 ADD PUSH2 0xD81 JUMP JUMPDEST PUSH1 0xFF NOT AND DUP7 DUP6 ADD MSTORE POP POP POP SWAP1 ISZERO ISZERO PUSH1 0x5 SHL ADD ADD SWAP2 POP CODESIZE DUP1 DUP1 DUP1 DUP1 PUSH2 0xD65 JUMP JUMPDEST PUSH1 0x40 MLOAD SWAP1 PUSH1 0x0 DUP3 PUSH1 0xC SLOAD SWAP2 PUSH2 0xDE0 DUP4 PUSH2 0xCFC JUMP JUMPDEST DUP1 DUP4 MSTORE SWAP3 PUSH1 0x20 SWAP1 PUSH1 0x1 SWAP1 DUP2 DUP2 AND SWAP1 DUP2 ISZERO PUSH2 0xE6C JUMPI POP PUSH1 0x1 EQ PUSH2 0xE0B JUMPI JUMPDEST POP POP PUSH2 0x3BC SWAP3 POP SUB DUP4 PUSH2 0x38E JUMP JUMPDEST SWAP2 POP SWAP3 PUSH1 0xC PUSH1 0x0 MSTORE PUSH32 0xDF6966C971051C3D54EC59162606531493A51404A002842F56009D7E5CF4A8C7 SWAP4 PUSH1 0x0 SWAP3 JUMPDEST DUP3 DUP5 LT PUSH2 0xE54 JUMPI POP PUSH2 0x3BC SWAP5 POP POP POP DUP2 ADD PUSH1 0x20 ADD CODESIZE DUP1 PUSH2 0xDFD JUMP JUMPDEST DUP6 SLOAD DUP9 DUP6 ADD DUP4 ADD MSTORE SWAP5 DUP6 ADD SWAP5 DUP8 SWAP5 POP SWAP3 DUP2 ADD SWAP3 PUSH2 0xE39 JUMP JUMPDEST SWAP2 POP POP PUSH1 0x20 SWAP3 POP PUSH2 0x3BC SWAP5 SWAP2 POP PUSH1 0xFF NOT AND DUP3 DUP5 ADD MSTORE ISZERO ISZERO PUSH1 0x5 SHL DUP3 ADD ADD CODESIZE DUP1 PUSH2 0xDFD JUMP JUMPDEST PUSH1 0x40 MLOAD SWAP1 PUSH1 0x0 DUP3 PUSH1 0xD SLOAD SWAP2 PUSH2 0xEA4 DUP4 PUSH2 0xCFC JUMP JUMPDEST DUP1 DUP4 MSTORE SWAP3 PUSH1 0x20 SWAP1 PUSH1 0x1 SWAP1 DUP2 DUP2 AND SWAP1 DUP2 ISZERO PUSH2 0xE6C JUMPI POP PUSH1 0x1 EQ PUSH2 0xECE JUMPI POP POP PUSH2 0x3BC SWAP3 POP SUB DUP4 PUSH2 0x38E JUMP JUMPDEST SWAP2 POP SWAP3 PUSH1 0xD PUSH1 0x0 MSTORE PUSH1 0x0 DUP1 MLOAD PUSH1 0x20 PUSH2 0x52F0 DUP4 CODECOPY DUP2 MLOAD SWAP2 MSTORE SWAP4 PUSH1 0x0 SWAP3 JUMPDEST DUP3 DUP5 LT PUSH2 0xF05 JUMPI POP PUSH2 0x3BC SWAP5 POP POP POP DUP2 ADD PUSH1 0x20 ADD CODESIZE DUP1 PUSH2 0xDFD JUMP JUMPDEST DUP6 SLOAD DUP9 DUP6 ADD DUP4 ADD MSTORE SWAP5 DUP6 ADD SWAP5 DUP8 SWAP5 POP SWAP3 DUP2 ADD SWAP3 PUSH2 0xEEA JUMP JUMPDEST SWAP1 PUSH2 0x3BC PUSH2 0xF31 SWAP3 PUSH1 0x40 MLOAD SWAP4 DUP5 DUP1 SWAP3 PUSH2 0xD36 JUMP JUMPDEST SUB DUP4 PUSH2 0x38E JUMP JUMPDEST SWAP6 SWAP3 PUSH1 0xC0 SWAP6 SWAP3 PUSH2 0xF66 SWAP3 SWAP10 SWAP9 SWAP6 SWAP10 PUSH1 0x1 DUP1 PUSH1 0xA0 SHL SUB AND DUP9 MSTORE PUSH1 0x20 DUP9 ADD MSTORE PUSH1 0xE0 PUSH1 0x40 DUP9 ADD MSTORE PUSH1 0xE0 DUP8 ADD SWAP1 PUSH2 0x6E2 JUMP JUMPDEST SWAP7 PUSH1 0x60 DUP7 ADD MSTORE PUSH1 0x80 DUP6 ADD MSTORE ISZERO ISZERO PUSH1 0xA0 DUP5 ADD MSTORE ISZERO ISZERO SWAP2 ADD MSTORE JUMP JUMPDEST CALLVALUE PUSH2 0x449 JUMPI PUSH1 0x20 CALLDATASIZE PUSH1 0x3 NOT ADD SLT PUSH2 0x449 JUMPI PUSH1 0x4 CALLDATALOAD PUSH1 0x0 MSTORE PUSH1 0x3 PUSH1 0x20 MSTORE PUSH1 0x40 PUSH1 0x0 KECCAK256 PUSH1 0x1 DUP1 PUSH1 0xA0 SHL SUB DUP2 SLOAD AND SWAP1 PUSH2 0x834 PUSH1 0x1 DUP3 ADD SLOAD SWAP2 PUSH1 0x40 MLOAD SWAP4 PUSH2 0xFD0 DUP6 PUSH2 0xFC9 DUP2 PUSH1 0x2 DUP7 ADD PUSH2 0xD36 JUMP JUMPDEST SUB DUP7 PUSH2 0x38E JUMP JUMPDEST PUSH1 0x3 DUP3 ADD SLOAD SWAP2 PUSH1 0x5 PUSH1 0x4 DUP3 ADD SLOAD SWAP2 ADD SLOAD SWAP3 PUSH1 0x40 MLOAD SWAP7 DUP8 SWAP7 PUSH1 0xFF DUP1 DUP8 PUSH1 0x8 SHR AND SWAP7 AND SWAP5 DUP9 PUSH2 0xF38 JUMP JUMPDEST CALLVALUE PUSH2 0x449 JUMPI PUSH1 0x0 CALLDATASIZE PUSH1 0x3 NOT ADD SLT PUSH2 0x449 JUMPI PUSH1 0x1B SLOAD PUSH1 0x40 MLOAD PUSH1 0x1 PUSH1 0x1 PUSH1 0xA0 SHL SUB SWAP1 SWAP2 AND DUP2 MSTORE PUSH1 0x20 SWAP1 RETURN JUMPDEST CALLVALUE PUSH2 0x449 JUMPI PUSH2 0x102F CALLDATASIZE PUSH2 0x56B JUMP JUMPDEST PUSH2 0x1044 PUSH1 0x1 DUP1 PUSH1 0xA0 SHL SUB PUSH1 0x13 SLOAD AND CALLER EQ PUSH2 0x1F63 JUMP JUMPDEST DUP1 MLOAD PUSH1 0x1 PUSH1 0x1 PUSH1 0x40 SHL SUB DUP2 GT PUSH2 0x338 JUMPI PUSH2 0x1068 DUP2 PUSH2 0x1063 PUSH1 0xC SLOAD PUSH2 0xCFC JUMP JUMPDEST PUSH2 0x2002 JUMP JUMPDEST PUSH1 0x20 DUP1 PUSH1 0x1F DUP4 GT PUSH1 0x1 EQ PUSH2 0x109E JUMPI POP DUP2 SWAP1 PUSH2 0x1099 SWAP4 PUSH1 0x0 SWAP3 PUSH2 0x613 JUMPI POP POP DUP2 PUSH1 0x1 SHL SWAP2 PUSH1 0x0 NOT SWAP1 PUSH1 0x3 SHL SHR NOT AND OR SWAP1 JUMP JUMPDEST PUSH1 0xC SSTORE STOP JUMPDEST SWAP1 PUSH1 0x1F NOT DUP4 AND SWAP4 PUSH2 0x10D1 PUSH1 0xC PUSH1 0x0 MSTORE PUSH32 0xDF6966C971051C3D54EC59162606531493A51404A002842F56009D7E5CF4A8C7 SWAP1 JUMP JUMPDEST SWAP3 PUSH1 0x0 SWAP1 JUMPDEST DUP7 DUP3 LT PUSH2 0x110D JUMPI POP POP DUP4 PUSH1 0x1 SWAP6 LT PUSH2 0x10F4 JUMPI JUMPDEST POP POP POP DUP2 SHL ADD PUSH1 0xC SSTORE STOP JUMPDEST ADD MLOAD PUSH1 0x0 NOT PUSH1 0xF8 DUP5 PUSH1 0x3 SHL AND SHR NOT AND SWAP1 SSTORE CODESIZE DUP1 DUP1 PUSH2 0x10E9 JUMP JUMPDEST DUP1 PUSH1 0x1 DUP6 SWAP7 DUP3 SWAP5 SWAP7 DUP7 ADD MLOAD DUP2 SSTORE ADD SWAP6 ADD SWAP4 ADD SWAP1 PUSH2 0x10D6 JUMP JUMPDEST PUSH4 0x4E487B71 PUSH1 0xE0 SHL PUSH1 0x0 MSTORE PUSH1 0x32 PUSH1 0x4 MSTORE PUSH1 0x24 PUSH1 0x0 REVERT JUMPDEST CALLVALUE PUSH2 0x449 JUMPI PUSH1 0x40 CALLDATASIZE PUSH1 0x3 NOT ADD SLT PUSH2 0x449 JUMPI PUSH1 0x24 CALLDATALOAD PUSH1 0x0 SWAP1 PUSH1 0x4 CALLDATALOAD DUP3 MSTORE PUSH1 0x10 PUSH1 0x20 MSTORE PUSH1 0x40 DUP3 KECCAK256 DUP1 SLOAD DUP3 LT ISZERO PUSH2 0x117B JUMPI DUP3 MSTORE PUSH1 0x20 SWAP2 DUP3 SWAP1 KECCAK256 ADD SLOAD PUSH1 0x40 MLOAD SWAP1 DUP2 MSTORE RETURN JUMPDEST DUP3 DUP1 REVERT JUMPDEST CALLVALUE PUSH2 0x449 JUMPI PUSH1 0x40 CALLDATASIZE PUSH1 0x3 NOT ADD SLT PUSH2 0x449 JUMPI PUSH1 0x4 CALLDATALOAD PUSH1 0x24 CALLDATALOAD PUSH1 0x1 PUSH1 0x1 PUSH1 0x40 SHL SUB DUP2 GT PUSH2 0x449 JUMPI PUSH2 0x11B2 SWAP1 CALLDATASIZE SWAP1 PUSH1 0x4 ADD PUSH2 0x44E JUMP JUMPDEST SWAP1 DUP1 ISZERO ISZERO DUP1 PUSH2 0x1232 JUMPI JUMPDEST PUSH2 0x11C5 SWAP1 PUSH2 0x2092 JUMP JUMPDEST PUSH1 0x0 MSTORE PUSH1 0x14 PUSH1 0x20 MSTORE PUSH1 0x40 PUSH1 0x0 KECCAK256 PUSH1 0xFF PUSH1 0xC DUP3 ADD SLOAD AND ISZERO PUSH2 0x11F7 JUMPI DUP2 MLOAD PUSH1 0x20 SWAP3 DUP4 ADD KECCAK256 PUSH1 0x4 SWAP2 SWAP1 SWAP2 ADD SLOAD PUSH1 0x40 MLOAD SWAP2 EQ DUP2 MSTORE RETURN JUMPDEST PUSH1 0x40 MLOAD PUSH3 0x461BCD PUSH1 0xE5 SHL DUP2 MSTORE PUSH1 0x20 PUSH1 0x4 DUP3 ADD MSTORE PUSH1 0x13 PUSH1 0x24 DUP3 ADD MSTORE PUSH19 0x10985D18DA081B9BDD0818DBDB5C1B195D1959 PUSH1 0x6A SHL PUSH1 0x44 DUP3 ADD MSTORE PUSH1 0x64 SWAP1 REVERT JUMPDEST POP PUSH1 0x17 SLOAD DUP2 GT ISZERO PUSH2 0x11BC JUMP JUMPDEST CALLVALUE PUSH2 0x449 JUMPI PUSH1 0x0 DUP1 PUSH1 0x3 NOT CALLDATASIZE ADD SLT PUSH2 0x1330 JUMPI PUSH2 0x1265 PUSH1 0x1 DUP1 PUSH1 0xA0 SHL SUB PUSH1 0x13 SLOAD AND CALLER EQ PUSH2 0x1F63 JUMP JUMPDEST PUSH2 0x1270 PUSH1 0xD SLOAD PUSH2 0xCFC JUMP JUMPDEST PUSH1 0x1F DUP2 GT PUSH2 0x12E0 JUMPI JUMPDEST POP PUSH1 0x4F PUSH1 0xD SSTORE PUSH32 0x68747470733A2F2F6C696768742D6C696E6B2E76657263656C2E6170702F6170 PUSH1 0x0 DUP1 MLOAD PUSH1 0x20 PUSH2 0x52F0 DUP4 CODECOPY DUP2 MLOAD SWAP2 MSTORE SSTORE PUSH7 0x692F70726F7665 PUSH1 0xC8 SHL PUSH32 0xD7B6990105719101DABEB77144F2A3385C8033ACD3AF97E9423A695E81AD1EB6 SSTORE DUP1 RETURN JUMPDEST PUSH1 0x1F ADD PUSH1 0x5 SHR PUSH1 0x0 DUP1 MLOAD PUSH1 0x20 PUSH2 0x52F0 DUP4 CODECOPY DUP2 MLOAD SWAP2 MSTORE ADD PUSH32 0xD7B6990105719101DABEB77144F2A3385C8033ACD3AF97E9423A695E81AD1EB7 JUMPDEST DUP2 DUP2 LT PUSH2 0x1325 JUMPI POP PUSH2 0x1279 JUMP JUMPDEST DUP3 DUP2 SSTORE PUSH1 0x1 ADD PUSH2 0x1318 JUMP JUMPDEST DUP1 REVERT JUMPDEST PUSH1 0x1 PUSH1 0x1 PUSH1 0xA0 SHL SUB DUP2 AND SUB PUSH2 0x449 JUMPI JUMP JUMPDEST DUP1 ISZERO ISZERO SUB PUSH2 0x449 JUMPI JUMP JUMPDEST CALLVALUE PUSH2 0x449 JUMPI PUSH1 0x40 CALLDATASIZE PUSH1 0x3 NOT ADD SLT PUSH2 0x449 JUMPI PUSH2 0xA67 PUSH1 0x4 CALLDATALOAD PUSH2 0x136E DUP2 PUSH2 0x1333 JUMP JUMPDEST PUSH1 0x24 CALLDATALOAD SWAP1 PUSH2 0x137B DUP3 PUSH2 0x1344 JUMP JUMPDEST PUSH1 0x13 SLOAD PUSH1 0x1 PUSH1 0x1 PUSH1 0xA0 SHL SUB SWAP2 SWAP1 PUSH2 0x1395 SWAP1 DUP4 AND CALLER EQ PUSH2 0x1F63 JUMP JUMPDEST AND PUSH1 0x0 MSTORE PUSH1 0x12 PUSH1 0x20 MSTORE PUSH1 0x40 PUSH1 0x0 KECCAK256 SWAP1 PUSH1 0xFF DUP1 NOT DUP4 SLOAD AND SWAP2 ISZERO ISZERO AND OR SWAP1 SSTORE JUMP JUMPDEST CALLVALUE PUSH2 0x449 JUMPI PUSH1 0x0 CALLDATASIZE PUSH1 0x3 NOT ADD SLT PUSH2 0x449 JUMPI PUSH1 0x20 PUSH1 0x18 SLOAD PUSH1 0x40 MLOAD SWAP1 DUP2 MSTORE RETURN JUMPDEST SWAP1 PUSH1 0x20 PUSH1 0x3 NOT DUP4 ADD SLT PUSH2 0x449 JUMPI PUSH1 0x4 CALLDATALOAD PUSH1 0x1 PUSH1 0x1 PUSH1 0x40 SHL SUB SWAP3 DUP4 DUP3 GT PUSH2 0x449 JUMPI DUP1 PUSH1 0x23 DUP4 ADD SLT ISZERO PUSH2 0x449 JUMPI DUP2 PUSH1 0x4 ADD CALLDATALOAD SWAP4 DUP5 GT PUSH2 0x449 JUMPI PUSH1 0x24 DUP5 DUP4 ADD ADD GT PUSH2 0x449 JUMPI PUSH1 0x24 ADD SWAP2 SWAP1 JUMP JUMPDEST CALLVALUE PUSH2 0x449 JUMPI PUSH2 0x1429 CALLDATASIZE PUSH2 0x13D2 JUMP JUMPDEST POP POP PUSH1 0x6 SLOAD TIMESTAMP SUB TIMESTAMP DUP2 GT PUSH2 0x544 JUMPI PUSH2 0x1444 SWAP1 PUSH1 0x7 SLOAD LT PUSH2 0x2112 JUMP JUMPDEST PUSH2 0x144D TIMESTAMP PUSH1 0x6 SSTORE JUMP JUMPDEST PUSH1 0x40 DUP1 MLOAD PUSH4 0x2BF7F019 PUSH1 0xE1 SHL DUP2 MSTORE PUSH1 0x4 DUP2 ADD SWAP2 SWAP1 SWAP2 MSTORE PUSH1 0x8 PUSH1 0x44 DUP3 ADD MSTORE PUSH8 0x657468657265756D PUSH1 0xC0 SHL PUSH1 0x64 DUP3 ADD MSTORE PUSH1 0x0 PUSH1 0x24 DUP3 ADD MSTORE PUSH1 0x20 DUP2 DUP1 PUSH1 0x84 DUP2 ADD SUB DUP2 PUSH1 0x0 ADDRESS GAS CALL DUP1 ISZERO PUSH2 0x14C5 JUMPI PUSH2 0x149D JUMPI STOP JUMPDEST PUSH2 0xA67 SWAP1 PUSH1 0x20 RETURNDATASIZE PUSH1 0x20 GT PUSH2 0x14BE JUMPI JUMPDEST PUSH2 0x14B6 DUP2 DUP4 PUSH2 0x38E JUMP JUMPDEST DUP2 ADD SWAP1 PUSH2 0x2152 JUMP JUMPDEST POP RETURNDATASIZE PUSH2 0x14AC JUMP JUMPDEST PUSH2 0x2161 JUMP JUMPDEST CALLVALUE PUSH2 0x449 JUMPI PUSH1 0x20 CALLDATASIZE PUSH1 0x3 NOT ADD SLT PUSH2 0x449 JUMPI PUSH1 0x4 CALLDATALOAD PUSH2 0x14E7 DUP2 PUSH2 0x1333 JUMP JUMPDEST PUSH1 0x1 DUP1 PUSH1 0xA0 SHL SUB AND PUSH1 0x0 MSTORE PUSH1 0x12 PUSH1 0x20 MSTORE PUSH1 0x20 PUSH1 0xFF PUSH1 0x40 PUSH1 0x0 KECCAK256 SLOAD AND PUSH1 0x40 MLOAD SWAP1 ISZERO ISZERO DUP2 MSTORE RETURN JUMPDEST CALLVALUE PUSH2 0x449 JUMPI PUSH1 0x20 CALLDATASIZE PUSH1 0x3 NOT ADD SLT PUSH2 0x449 JUMPI PUSH1 0x4 CALLDATALOAD PUSH1 0x0 MSTORE PUSH1 0x4 PUSH1 0x20 MSTORE PUSH1 0x20 PUSH1 0x40 PUSH1 0x0 KECCAK256 SLOAD PUSH1 0x40 MLOAD SWAP1 DUP2 MSTORE RETURN JUMPDEST CALLVALUE PUSH2 0x449 JUMPI PUSH1 0x0 CALLDATASIZE PUSH1 0x3 NOT ADD SLT PUSH2 0x449 JUMPI PUSH1 0x20 PUSH1 0x1A SLOAD PUSH1 0x40 MLOAD SWAP1 DUP2 MSTORE RETURN JUMPDEST CALLVALUE PUSH2 0x449 JUMPI PUSH1 0x40 CALLDATASIZE PUSH1 0x3 NOT ADD SLT PUSH2 0x449 JUMPI PUSH1 0x4 CALLDATALOAD PUSH1 0x1 PUSH1 0x1 PUSH1 0x40 SHL SUB DUP2 GT PUSH2 0x449 JUMPI PUSH2 0x1589 PUSH2 0x834 SWAP2 CALLDATASIZE SWAP1 PUSH1 0x4 ADD PUSH2 0x44E JUMP JUMPDEST PUSH1 0x24 CALLDATALOAD PUSH2 0x15EF PUSH2 0x159A PUSH1 0x5 SLOAD PUSH2 0x216D JUMP JUMPDEST SWAP3 PUSH2 0x15A4 DUP5 PUSH1 0x5 SSTORE JUMP JUMPDEST PUSH2 0x15AC PUSH2 0x3AF JUMP JUMPDEST CALLER DUP2 MSTORE SWAP1 TIMESTAMP PUSH1 0x20 DUP4 ADD MSTORE PUSH1 0x40 DUP3 ADD MSTORE DUP3 PUSH1 0x60 DUP3 ADD MSTORE PUSH1 0x0 PUSH1 0x80 DUP3 ADD MSTORE PUSH1 0x0 PUSH1 0xA0 DUP3 ADD MSTORE PUSH1 0x0 PUSH1 0xC0 DUP3 ADD MSTORE PUSH2 0x15EA DUP5 PUSH1 0x0 MSTORE PUSH1 0x3 PUSH1 0x20 MSTORE PUSH1 0x40 PUSH1 0x0 KECCAK256 SWAP1 JUMP JUMPDEST PUSH2 0x217C JUMP JUMPDEST DUP1 PUSH2 0x1646 JUMPI PUSH2 0x15FD DUP3 PUSH2 0x337B JUMP JUMPDEST DUP2 PUSH32 0x7EF8CA77FDC89C79F093F2A6B2348B1FCDA0BEB941CE31CE9F2D9D260C4DB9D2 PUSH1 0x40 MLOAD DUP1 PUSH2 0x1633 CALLER SWAP6 DUP3 SWAP2 SWAP1 PUSH1 0x20 DUP4 ADD SWAP3 MSTORE JUMP JUMPDEST SUB SWAP1 LOG3 PUSH1 0x40 MLOAD SWAP1 DUP2 MSTORE SWAP1 DUP2 SWAP1 PUSH1 0x20 DUP3 ADD SWAP1 JUMP JUMPDEST PUSH2 0x1650 DUP2 DUP4 PUSH2 0x315E JUMP JUMPDEST PUSH2 0x15FD JUMP JUMPDEST CALLVALUE PUSH2 0x449 JUMPI PUSH1 0x0 CALLDATASIZE PUSH1 0x3 NOT ADD SLT PUSH2 0x449 JUMPI PUSH1 0x20 PUSH1 0x7 SLOAD PUSH1 0x40 MLOAD SWAP1 DUP2 MSTORE RETURN JUMPDEST CALLVALUE PUSH2 0x449 JUMPI PUSH1 0x0 CALLDATASIZE PUSH1 0x3 NOT ADD SLT PUSH2 0x449 JUMPI PUSH1 0x20 PUSH1 0x6 SLOAD PUSH1 0x40 MLOAD SWAP1 DUP2 MSTORE RETURN JUMPDEST PUSH1 0x1 PUSH1 0x1 PUSH1 0x40 SHL SUB DUP2 GT PUSH2 0x338 JUMPI PUSH1 0x5 SHL PUSH1 0x20 ADD SWAP1 JUMP JUMPDEST CALLVALUE PUSH2 0x449 JUMPI PUSH1 0x20 DUP1 PUSH1 0x3 NOT CALLDATASIZE ADD SLT PUSH2 0x449 JUMPI PUSH1 0x4 CALLDATALOAD PUSH1 0x1 PUSH1 0x1 PUSH1 0x40 SHL SUB DUP2 GT PUSH2 0x449 JUMPI CALLDATASIZE PUSH1 0x23 DUP3 ADD SLT ISZERO PUSH2 0x449 JUMPI DUP1 PUSH1 0x4 ADD CALLDATALOAD SWAP1 PUSH2 0x16E5 DUP3 PUSH2 0x1691 JUMP JUMPDEST SWAP2 PUSH2 0x16F3 PUSH1 0x40 MLOAD SWAP4 DUP5 PUSH2 0x38E JUMP JUMPDEST DUP1 DUP4 MSTORE PUSH1 0x24 PUSH1 0x20 DUP5 ADD SWAP2 PUSH1 0x5 SHL DUP4 ADD ADD SWAP2 CALLDATASIZE DUP4 GT PUSH2 0x449 JUMPI PUSH1 0x24 ADD SWAP1 JUMPDEST DUP3 DUP3 LT PUSH2 0x1733 JUMPI PUSH2 0x834 PUSH2 0x1723 DUP6 PUSH2 0x264E JUMP JUMPDEST PUSH1 0x40 MLOAD SWAP1 DUP2 MSTORE SWAP1 DUP2 SWAP1 PUSH1 0x20 DUP3 ADD SWAP1 JUMP JUMPDEST DUP2 CALLDATALOAD DUP2 MSTORE SWAP1 DUP5 ADD SWAP1 DUP5 ADD PUSH2 0x1710 JUMP JUMPDEST CALLVALUE PUSH2 0x449 JUMPI PUSH1 0x0 CALLDATASIZE PUSH1 0x3 NOT ADD SLT PUSH2 0x449 JUMPI PUSH1 0x20 PUSH1 0x17 SLOAD PUSH1 0x40 MLOAD SWAP1 DUP2 MSTORE RETURN JUMPDEST CALLVALUE PUSH2 0x449 JUMPI PUSH1 0x20 CALLDATASIZE PUSH1 0x3 NOT ADD SLT PUSH2 0x449 JUMPI PUSH1 0x4 CALLDATALOAD DUP1 ISZERO ISZERO DUP1 PUSH2 0x1840 JUMPI JUMPDEST PUSH2 0x1786 SWAP1 PUSH2 0x2092 JUMP JUMPDEST PUSH1 0x0 DUP2 DUP2 MSTORE PUSH1 0x14 PUSH1 0x20 MSTORE PUSH1 0x40 SWAP1 KECCAK256 PUSH1 0x1 ADD SLOAD PUSH1 0x1 PUSH1 0x1 PUSH1 0xA0 SHL SUB AND CALLER SUB PUSH2 0x1805 JUMPI DUP1 PUSH2 0x1800 PUSH2 0x17C2 PUSH2 0xA67 SWAP4 PUSH1 0x0 MSTORE PUSH1 0x14 PUSH1 0x20 MSTORE PUSH1 0x40 PUSH1 0x0 KECCAK256 SWAP1 JUMP JUMPDEST PUSH1 0x3 PUSH1 0xC DUP3 ADD SWAP2 PUSH2 0x17DC PUSH2 0x17D7 DUP5 SLOAD PUSH1 0xFF AND SWAP1 JUMP JUMPDEST PUSH2 0x293D JUMP JUMPDEST ADD PUSH2 0x17F4 DUP2 SLOAD PUSH2 0x17EF PUSH1 0x18 SLOAD DUP3 LT PUSH2 0x2989 JUMP JUMPDEST PUSH2 0x216D JUMP JUMPDEST SWAP1 SSTORE DUP1 SLOAD PUSH1 0xFF NOT AND SWAP1 SSTORE JUMP JUMPDEST PUSH2 0x345D JUMP JUMPDEST PUSH1 0x40 MLOAD PUSH3 0x461BCD PUSH1 0xE5 SHL DUP2 MSTORE PUSH1 0x20 PUSH1 0x4 DUP3 ADD MSTORE PUSH1 0x13 PUSH1 0x24 DUP3 ADD MSTORE PUSH19 0x2737BA103130BA31B4103932B8BAB2B9BA32B9 PUSH1 0x69 SHL PUSH1 0x44 DUP3 ADD MSTORE PUSH1 0x64 SWAP1 REVERT JUMPDEST POP PUSH1 0x17 SLOAD DUP2 GT ISZERO PUSH2 0x177D JUMP JUMPDEST CALLVALUE PUSH2 0x449 JUMPI PUSH2 0x185A CALLDATASIZE PUSH2 0x13D2 JUMP JUMPDEST POP POP PUSH1 0x6 SLOAD TIMESTAMP SUB TIMESTAMP DUP2 GT PUSH2 0x544 JUMPI PUSH1 0x7 SLOAD LT PUSH1 0x40 MLOAD SWAP1 PUSH2 0x1879 DUP3 PUSH2 0x358 JUMP JUMPDEST PUSH1 0x0 DUP3 MSTORE PUSH2 0x834 PUSH1 0x40 MLOAD SWAP3 DUP4 SWAP3 DUP4 MSTORE PUSH1 0x40 PUSH1 0x20 DUP5 ADD MSTORE PUSH1 0x40 DUP4 ADD SWAP1 PUSH2 0x6E2 JUMP JUMPDEST CALLVALUE PUSH2 0x449 JUMPI PUSH1 0x20 CALLDATASIZE PUSH1 0x3 NOT ADD SLT PUSH2 0x449 JUMPI PUSH2 0x18BF PUSH1 0x1 DUP1 PUSH1 0xA0 SHL SUB PUSH1 0x13 SLOAD AND CALLER EQ PUSH2 0x1F63 JUMP JUMPDEST PUSH1 0x4 CALLDATALOAD PUSH1 0x7 SSTORE STOP JUMPDEST CALLVALUE PUSH2 0x449 JUMPI PUSH1 0x0 DUP1 PUSH1 0x3 NOT CALLDATASIZE ADD SLT PUSH2 0x1330 JUMPI PUSH1 0x1 SLOAD PUSH1 0x1 PUSH1 0x1 PUSH1 0xA0 SHL SUB SWAP1 DUP2 AND CALLER SUB PUSH2 0x1945 JUMPI DUP2 SLOAD PUSH1 0x1 PUSH1 0x1 PUSH1 0xA0 SHL SUB AND PUSH1 0x0 DUP1 SLOAD PUSH1 0x1 PUSH1 0x1 PUSH1 0xA0 SHL SUB NOT AND CALLER OR SWAP1 SSTORE SWAP1 PUSH1 0x1 DUP1 SLOAD PUSH1 0x1 PUSH1 0x1 PUSH1 0xA0 SHL SUB NOT AND SWAP1 SSTORE CALLER SWAP2 AND PUSH32 0x8BE0079C531659141344CD1FD0A4F28419497F9722A3DAAFE3B4186F6B6457E0 DUP4 DUP1 LOG3 DUP1 RETURN JUMPDEST PUSH1 0x40 MLOAD PUSH3 0x461BCD PUSH1 0xE5 SHL DUP2 MSTORE PUSH1 0x20 PUSH1 0x4 DUP3 ADD MSTORE PUSH1 0x16 PUSH1 0x24 DUP3 ADD MSTORE PUSH22 0x26BAB9BA10313290383937B837B9B2B21037BBB732B9 PUSH1 0x51 SHL PUSH1 0x44 DUP3 ADD MSTORE PUSH1 0x64 SWAP1 REVERT JUMPDEST SWAP1 DUP2 MLOAD DUP1 DUP3 MSTORE PUSH1 0x20 DUP1 DUP1 SWAP4 ADD SWAP4 ADD SWAP2 PUSH1 0x0 JUMPDEST DUP3 DUP2 LT PUSH2 0x19A3 JUMPI POP POP POP POP SWAP1 JUMP JUMPDEST DUP4 MLOAD DUP6 MSTORE SWAP4 DUP2 ADD SWAP4 SWAP3 DUP2 ADD SWAP3 PUSH1 0x1 ADD PUSH2 0x1995 JUMP JUMPDEST SWAP5 SWAP2 SWAP7 SWAP6 SWAP3 PUSH2 0x19D1 PUSH1 0xA0 SWAP6 SWAP3 PUSH1 0xC0 DUP9 MSTORE PUSH1 0xC0 DUP9 ADD SWAP1 PUSH2 0x1983 JUMP JUMPDEST SWAP8 PUSH1 0x1 DUP1 DUP8 SHL SUB AND PUSH1 0x20 DUP8 ADD MSTORE PUSH1 0x40 DUP7 ADD MSTORE PUSH1 0x60 DUP6 ADD MSTORE PUSH1 0x80 DUP5 ADD MSTORE ISZERO ISZERO SWAP2 ADD MSTORE JUMP JUMPDEST CALLVALUE PUSH2 0x449 JUMPI PUSH1 0x20 DUP1 PUSH1 0x3 NOT CALLDATASIZE ADD SLT PUSH2 0x449 JUMPI PUSH1 0x4 CALLDATALOAD DUP1 ISZERO ISZERO DUP1 PUSH2 0x1AAB JUMPI JUMPDEST PUSH2 0x1A1B SWAP1 PUSH2 0x2092 JUMP JUMPDEST PUSH1 0x0 MSTORE PUSH1 0x14 PUSH1 0x20 MSTORE PUSH1 0x40 PUSH1 0x0 KECCAK256 SWAP1 PUSH1 0x1 DUP1 DUP1 PUSH1 0xA0 SHL SUB PUSH1 0x1 DUP5 ADD SLOAD AND SWAP2 PUSH1 0x2 DUP5 ADD SLOAD PUSH1 0x3 DUP6 ADD SLOAD PUSH1 0x4 DUP7 ADD SLOAD SWAP2 PUSH1 0xFF PUSH1 0xC DUP9 ADD SLOAD AND SWAP4 PUSH1 0x40 MLOAD SWAP6 DUP7 PUSH1 0x20 DUP11 SLOAD SWAP2 DUP3 DUP2 MSTORE ADD SWAP10 PUSH1 0x0 MSTORE PUSH1 0x20 PUSH1 0x0 KECCAK256 SWAP3 PUSH1 0x0 SWAP1 JUMPDEST DUP3 DUP3 LT PUSH2 0x1A96 JUMPI POP POP POP POP POP PUSH2 0x1A8A DUP6 PUSH2 0x834 SWAP7 SWAP8 SWAP9 SUB DUP8 PUSH2 0x38E JUMP JUMPDEST PUSH1 0x40 MLOAD SWAP7 DUP8 SWAP7 DUP8 PUSH2 0x19B7 JUMP JUMPDEST DUP5 SLOAD DUP13 MSTORE SWAP11 DUP12 ADD SWAP11 SWAP4 DUP4 ADD SWAP4 SWAP1 DUP4 ADD SWAP1 PUSH2 0x1A6D JUMP JUMPDEST POP PUSH1 0x17 SLOAD DUP2 GT ISZERO PUSH2 0x1A12 JUMP JUMPDEST CALLVALUE PUSH2 0x449 JUMPI PUSH1 0x0 CALLDATASIZE PUSH1 0x3 NOT ADD SLT PUSH2 0x449 JUMPI PUSH1 0x0 SLOAD PUSH1 0x40 MLOAD PUSH1 0x1 PUSH1 0x1 PUSH1 0xA0 SHL SUB SWAP1 SWAP2 AND DUP2 MSTORE PUSH1 0x20 SWAP1 RETURN JUMPDEST CALLVALUE PUSH2 0x449 JUMPI PUSH1 0x20 CALLDATASIZE PUSH1 0x3 NOT ADD SLT PUSH2 0x449 JUMPI PUSH1 0x4 CALLDATALOAD PUSH2 0x1AFD DUP2 PUSH2 0x1333 JUMP JUMPDEST PUSH1 0x0 SLOAD PUSH1 0x1 PUSH1 0x1 PUSH1 0xA0 SHL SUB SWAP1 DUP2 AND SWAP1 CALLER DUP3 EQ ISZERO DUP1 PUSH2 0x1B4B JUMPI JUMPDEST PUSH2 0x1B23 JUMPI PUSH2 0xA67 DUP4 PUSH2 0x29E8 JUMP JUMPDEST PUSH1 0x64 SWAP3 POP PUSH1 0x2 SLOAD AND PUSH1 0x40 MLOAD SWAP2 PUSH4 0x61DB9C1 PUSH1 0xE0 SHL DUP4 MSTORE CALLER PUSH1 0x4 DUP5 ADD MSTORE PUSH1 0x24 DUP4 ADD MSTORE PUSH1 0x44 DUP3 ADD MSTORE REVERT JUMPDEST POP DUP1 PUSH1 0x2 SLOAD AND CALLER EQ ISZERO PUSH2 0x1B16 JUMP JUMPDEST CALLVALUE PUSH2 0x449 JUMPI PUSH1 0x0 CALLDATASIZE PUSH1 0x3 NOT ADD SLT PUSH2 0x449 JUMPI PUSH1 0x20 PUSH1 0x5 SLOAD PUSH1 0x40 MLOAD SWAP1 DUP2 MSTORE RETURN JUMPDEST CALLVALUE PUSH2 0x449 JUMPI PUSH1 0x0 CALLDATASIZE PUSH1 0x3 NOT ADD SLT PUSH2 0x449 JUMPI PUSH1 0x2 SLOAD PUSH1 0x40 MLOAD PUSH1 0x1 PUSH1 0x1 PUSH1 0xA0 SHL SUB SWAP1 SWAP2 AND DUP2 MSTORE PUSH1 0x20 SWAP1 RETURN JUMPDEST CALLVALUE PUSH2 0x449 JUMPI PUSH1 0x60 CALLDATASIZE PUSH1 0x3 NOT ADD SLT PUSH2 0x449 JUMPI PUSH1 0x44 CALLDATALOAD PUSH4 0xFFFFFFFF DUP2 AND DUP1 SWAP2 SUB PUSH2 0x449 JUMPI PUSH2 0x1BD7 PUSH1 0x1 DUP1 PUSH1 0xA0 SHL SUB PUSH1 0x13 SLOAD AND CALLER EQ PUSH2 0x1F63 JUMP JUMPDEST PUSH1 0x4 CALLDATALOAD PUSH1 0x8 SSTORE PUSH1 0x24 CALLDATALOAD PUSH1 0x9 SSTORE PUSH4 0xFFFFFFFF NOT PUSH1 0xA SLOAD AND OR PUSH1 0xA SSTORE PUSH1 0x0 DUP1 RETURN JUMPDEST CALLVALUE PUSH2 0x449 JUMPI PUSH1 0x0 CALLDATASIZE PUSH1 0x3 NOT ADD SLT PUSH2 0x449 JUMPI PUSH1 0x13 SLOAD PUSH1 0x40 MLOAD PUSH1 0x1 PUSH1 0x1 PUSH1 0xA0 SHL SUB SWAP1 SWAP2 AND DUP2 MSTORE PUSH1 0x20 SWAP1 RETURN JUMPDEST CALLVALUE PUSH2 0x449 JUMPI PUSH1 0x0 CALLDATASIZE PUSH1 0x3 NOT ADD SLT PUSH2 0x449 JUMPI PUSH1 0x40 MLOAD PUSH32 0x0 PUSH1 0x1 PUSH1 0x1 PUSH1 0xA0 SHL SUB AND DUP2 MSTORE PUSH1 0x20 SWAP1 RETURN JUMPDEST CALLVALUE PUSH2 0x449 JUMPI PUSH1 0x40 CALLDATASIZE PUSH1 0x3 NOT ADD SLT PUSH2 0x449 JUMPI PUSH1 0x1 PUSH1 0x1 PUSH1 0x40 SHL SUB PUSH1 0x4 CALLDATALOAD DUP2 DUP2 GT PUSH2 0x449 JUMPI PUSH2 0x1C95 SWAP1 CALLDATASIZE SWAP1 PUSH1 0x4 ADD PUSH2 0x949 JUMP JUMPDEST SWAP2 PUSH1 0x24 CALLDATALOAD SWAP1 DUP2 GT PUSH2 0x449 JUMPI PUSH2 0x1CAE SWAP1 CALLDATASIZE SWAP1 PUSH1 0x4 ADD PUSH2 0x949 JUMP JUMPDEST SWAP1 CALLER PUSH1 0x0 MSTORE PUSH1 0x12 PUSH1 0x20 MSTORE PUSH1 0xFF PUSH1 0x40 PUSH1 0x0 KECCAK256 SLOAD AND DUP1 ISZERO PUSH2 0x1D10 JUMPI JUMPDEST ISZERO PUSH2 0x1CDA JUMPI PUSH2 0x834 SWAP4 PUSH2 0x1723 SWAP4 PUSH2 0x2CDC JUMP JUMPDEST PUSH1 0x40 MLOAD PUSH3 0x461BCD PUSH1 0xE5 SHL DUP2 MSTORE PUSH1 0x20 PUSH1 0x4 DUP3 ADD MSTORE PUSH1 0xE PUSH1 0x24 DUP3 ADD MSTORE PUSH14 0x139BDD08185D5D1A1BDC9A5E9959 PUSH1 0x92 SHL PUSH1 0x44 DUP3 ADD MSTORE PUSH1 0x64 SWAP1 REVERT JUMPDEST POP PUSH1 0x13 SLOAD PUSH1 0x1 PUSH1 0x1 PUSH1 0xA0 SHL SUB AND CALLER EQ PUSH2 0x1CC8 JUMP JUMPDEST CALLVALUE PUSH2 0x449 JUMPI PUSH1 0x20 CALLDATASIZE PUSH1 0x3 NOT ADD SLT PUSH2 0x449 JUMPI PUSH1 0x4 CALLDATALOAD PUSH1 0x0 MSTORE PUSH1 0x11 PUSH1 0x20 MSTORE PUSH1 0x20 PUSH1 0xFF PUSH1 0x40 PUSH1 0x0 KECCAK256 SLOAD AND PUSH1 0x40 MLOAD SWAP1 ISZERO ISZERO DUP2 MSTORE RETURN JUMPDEST CALLVALUE PUSH2 0x449 JUMPI PUSH1 0x0 CALLDATASIZE PUSH1 0x3 NOT ADD SLT PUSH2 0x449 JUMPI PUSH1 0x20 PUSH1 0x8 SLOAD PUSH1 0x40 MLOAD SWAP1 DUP2 MSTORE RETURN JUMPDEST CALLVALUE PUSH2 0x449 JUMPI PUSH1 0x0 CALLDATASIZE PUSH1 0x3 NOT ADD SLT PUSH2 0x449 JUMPI PUSH1 0x20 PUSH1 0x19 SLOAD PUSH1 0x40 MLOAD SWAP1 DUP2 MSTORE RETURN JUMPDEST CALLVALUE PUSH2 0x449 JUMPI PUSH1 0x20 CALLDATASIZE PUSH1 0x3 NOT ADD SLT PUSH2 0x449 JUMPI PUSH1 0x4 CALLDATALOAD PUSH2 0x1DAE DUP2 PUSH2 0x1333 JUMP JUMPDEST PUSH1 0x0 SLOAD PUSH1 0x1 PUSH1 0x1 PUSH1 0xA0 SHL SUB SWAP1 DUP2 AND SWAP2 CALLER DUP4 SWAP1 SUB PUSH2 0x1E4C JUMPI AND SWAP1 CALLER DUP3 EQ PUSH2 0x1E07 JUMPI PUSH1 0x1 DUP1 SLOAD PUSH1 0x1 PUSH1 0x1 PUSH1 0xA0 SHL SUB NOT AND DUP4 OR SWAP1 SSTORE PUSH32 0xED8889F560326EB138920D842192F0EB3DD22B4F139C87A2C57538E05BAE1278 PUSH1 0x0 DUP1 LOG3 STOP JUMPDEST PUSH1 0x40 MLOAD PUSH3 0x461BCD PUSH1 0xE5 SHL DUP2 MSTORE PUSH1 0x20 PUSH1 0x4 DUP3 ADD MSTORE PUSH1 0x17 PUSH1 0x24 DUP3 ADD MSTORE PUSH32 0x43616E6E6F74207472616E7366657220746F2073656C66000000000000000000 PUSH1 0x44 DUP3 ADD MSTORE PUSH1 0x64 SWAP1 REVERT JUMPDEST PUSH1 0x40 MLOAD PUSH3 0x461BCD PUSH1 0xE5 SHL DUP2 MSTORE PUSH1 0x20 PUSH1 0x4 DUP3 ADD MSTORE PUSH1 0x16 PUSH1 0x24 DUP3 ADD MSTORE PUSH22 0x27B7363C9031B0B63630B1363290313C9037BBB732B9 PUSH1 0x51 SHL PUSH1 0x44 DUP3 ADD MSTORE PUSH1 0x64 SWAP1 REVERT JUMPDEST PUSH2 0x3BC SWAP1 SWAP3 SWAP2 SWAP3 PUSH1 0xE0 DUP2 ADD SWAP4 PUSH1 0xC0 DUP1 SWAP2 DUP1 MLOAD DUP5 MSTORE PUSH1 0x20 DUP2 ADD MLOAD PUSH1 0x20 DUP6 ADD MSTORE PUSH1 0x40 DUP2 ADD MLOAD PUSH1 0x40 DUP6 ADD MSTORE PUSH1 0x60 DUP2 ADD MLOAD PUSH1 0x60 DUP6 ADD MSTORE PUSH1 0x80 DUP2 ADD MLOAD PUSH1 0x80 DUP6 ADD MSTORE PUSH1 0xA0 DUP2 ADD MLOAD PUSH1 0xA0 DUP6 ADD MSTORE ADD MLOAD ISZERO ISZERO SWAP2 ADD MSTORE JUMP JUMPDEST CALLVALUE PUSH2 0x449 JUMPI PUSH1 0x20 CALLDATASIZE PUSH1 0x3 NOT ADD SLT PUSH2 0x449 JUMPI PUSH2 0x834 PUSH2 0x1F4B PUSH1 0x5 PUSH1 0x40 PUSH1 0xC0 PUSH1 0x4 CALLDATALOAD DUP3 MLOAD PUSH2 0x1F04 DUP2 PUSH2 0x31D JUMP JUMPDEST PUSH1 0x0 SWAP3 DUP2 DUP5 DUP1 SWAP4 MSTORE DUP3 PUSH1 0x20 DUP3 ADD MSTORE DUP3 DUP7 DUP3 ADD MSTORE DUP3 PUSH1 0x60 DUP3 ADD MSTORE DUP3 PUSH1 0x80 DUP3 ADD MSTORE DUP3 PUSH1 0xA0 DUP3 ADD MSTORE ADD MSTORE DUP1 ISZERO ISZERO DUP1 PUSH2 0x1F57 JUMPI JUMPDEST PUSH2 0x1F3D SWAP1 PUSH2 0x2092 JUMP JUMPDEST DUP2 MSTORE PUSH1 0x14 PUSH1 0x20 MSTORE KECCAK256 ADD PUSH2 0xBE5 JUMP JUMPDEST PUSH1 0x40 MLOAD SWAP2 DUP3 SWAP2 DUP3 PUSH2 0x1E8A JUMP JUMPDEST POP PUSH1 0x17 SLOAD DUP2 GT ISZERO PUSH2 0x1F34 JUMP JUMPDEST ISZERO PUSH2 0x1F6A JUMPI JUMP JUMPDEST PUSH1 0x40 MLOAD PUSH3 0x461BCD PUSH1 0xE5 SHL DUP2 MSTORE PUSH1 0x20 PUSH1 0x4 DUP3 ADD MSTORE PUSH1 0xA PUSH1 0x24 DUP3 ADD MSTORE PUSH10 0x27B7363C9037BBB732B9 PUSH1 0xB1 SHL PUSH1 0x44 DUP3 ADD MSTORE PUSH1 0x64 SWAP1 REVERT JUMPDEST DUP2 DUP2 LT PUSH2 0x1FA7 JUMPI POP POP JUMP JUMPDEST PUSH1 0x0 DUP2 SSTORE PUSH1 0x1 ADD PUSH2 0x1F9C JUMP JUMPDEST SWAP1 PUSH1 0x1F DUP3 GT PUSH2 0x1FC0 JUMPI POP POP JUMP JUMPDEST PUSH2 0x3BC SWAP2 PUSH1 0xD PUSH1 0x0 MSTORE PUSH1 0x0 DUP1 MLOAD PUSH1 0x20 PUSH2 0x52F0 DUP4 CODECOPY DUP2 MLOAD SWAP2 MSTORE SWAP1 PUSH1 0x20 PUSH1 0x1F DUP5 ADD PUSH1 0x5 SHR DUP4 ADD SWAP4 LT PUSH2 0x1FF8 JUMPI JUMPDEST PUSH1 0x1F ADD PUSH1 0x5 SHR ADD SWAP1 PUSH2 0x1F9C JUMP JUMPDEST SWAP1 SWAP2 POP DUP2 SWAP1 PUSH2 0x1FEB JUMP JUMPDEST SWAP1 PUSH1 0x1F DUP3 GT PUSH2 0x200F JUMPI POP POP JUMP JUMPDEST PUSH2 0x3BC SWAP2 PUSH1 0xC PUSH1 0x0 MSTORE PUSH32 0xDF6966C971051C3D54EC59162606531493A51404A002842F56009D7E5CF4A8C7 SWAP1 PUSH1 0x20 PUSH1 0x1F DUP5 ADD PUSH1 0x5 SHR DUP4 ADD SWAP4 LT PUSH2 0x1FF8 JUMPI PUSH1 0x1F ADD PUSH1 0x5 SHR ADD SWAP1 PUSH2 0x1F9C JUMP JUMPDEST SWAP2 SWAP1 PUSH1 0x1F DUP2 GT PUSH2 0x2067 JUMPI POP POP POP JUMP JUMPDEST PUSH2 0x3BC SWAP3 PUSH1 0x0 MSTORE PUSH1 0x20 PUSH1 0x0 KECCAK256 SWAP1 PUSH1 0x20 PUSH1 0x1F DUP5 ADD PUSH1 0x5 SHR DUP4 ADD SWAP4 LT PUSH2 0x1FF8 JUMPI PUSH1 0x1F ADD PUSH1 0x5 SHR ADD SWAP1 PUSH2 0x1F9C JUMP JUMPDEST ISZERO PUSH2 0x2099 JUMPI JUMP JUMPDEST PUSH1 0x40 MLOAD PUSH3 0x461BCD PUSH1 0xE5 SHL DUP2 MSTORE PUSH1 0x20 PUSH1 0x4 DUP3 ADD MSTORE PUSH1 0x10 PUSH1 0x24 DUP3 ADD MSTORE PUSH16 0x125B9D985B1A590818985D18DA081251 PUSH1 0x82 SHL PUSH1 0x44 DUP3 ADD MSTORE PUSH1 0x64 SWAP1 REVERT JUMPDEST PUSH4 0x4E487B71 PUSH1 0xE0 SHL PUSH1 0x0 MSTORE PUSH1 0x11 PUSH1 0x4 MSTORE PUSH1 0x24 PUSH1 0x0 REVERT JUMPDEST PUSH1 0x0 NOT DUP2 ADD SWAP2 SWAP1 DUP3 GT PUSH2 0x544 JUMPI JUMP JUMPDEST PUSH1 0x1F NOT DUP2 ADD SWAP2 SWAP1 DUP3 GT PUSH2 0x544 JUMPI JUMP JUMPDEST SWAP2 SWAP1 DUP3 SUB SWAP2 DUP3 GT PUSH2 0x544 JUMPI JUMP JUMPDEST ISZERO PUSH2 0x2119 JUMPI JUMP JUMPDEST PUSH1 0x40 MLOAD PUSH3 0x461BCD PUSH1 0xE5 SHL DUP2 MSTORE PUSH1 0x20 PUSH1 0x4 DUP3 ADD MSTORE PUSH1 0x11 PUSH1 0x24 DUP3 ADD MSTORE PUSH17 0x155C1AD9595C081B9BDD081B9959591959 PUSH1 0x7A SHL PUSH1 0x44 DUP3 ADD MSTORE PUSH1 0x64 SWAP1 REVERT JUMPDEST SWAP1 DUP2 PUSH1 0x20 SWAP2 SUB SLT PUSH2 0x449 JUMPI MLOAD SWAP1 JUMP JUMPDEST PUSH1 0x40 MLOAD RETURNDATASIZE PUSH1 0x0 DUP3 RETURNDATACOPY RETURNDATASIZE SWAP1 REVERT JUMPDEST PUSH1 0x0 NOT DUP2 EQ PUSH2 0x544 JUMPI PUSH1 0x1 ADD SWAP1 JUMP JUMPDEST DUP2 MLOAD DUP2 SLOAD PUSH1 0x1 PUSH1 0x1 PUSH1 0xA0 SHL SUB NOT AND PUSH1 0x1 PUSH1 0x1 PUSH1 0xA0 SHL SUB SWAP2 SWAP1 SWAP2 AND OR DUP2 SSTORE PUSH1 0x1 PUSH1 0x20 SWAP1 PUSH1 0x20 DUP5 ADD MLOAD PUSH1 0x1 DUP5 ADD SSTORE PUSH1 0x2 DUP4 ADD SWAP2 PUSH1 0x40 DUP6 ADD MLOAD DUP1 MLOAD SWAP3 PUSH1 0x1 PUSH1 0x1 PUSH1 0x40 SHL SUB DUP5 GT PUSH2 0x338 JUMPI PUSH2 0x21D7 DUP5 PUSH2 0x21D1 DUP8 SLOAD PUSH2 0xCFC JUMP JUMPDEST DUP8 PUSH2 0x2058 JUMP JUMPDEST PUSH1 0x20 SWAP3 PUSH1 0x1F DUP6 GT PUSH1 0x1 EQ PUSH2 0x226F JUMPI POP POP SWAP4 PUSH2 0x2259 SWAP4 PUSH2 0x2217 DUP5 PUSH1 0xC0 SWAP6 PUSH1 0x5 SWAP6 PUSH2 0x3BC SWAP11 SWAP10 PUSH1 0x0 SWAP3 PUSH2 0x613 JUMPI POP POP DUP2 PUSH1 0x1 SHL SWAP2 PUSH1 0x0 NOT SWAP1 PUSH1 0x3 SHL SHR NOT AND OR SWAP1 JUMP JUMPDEST SWAP1 SSTORE JUMPDEST PUSH1 0x60 DUP6 ADD MLOAD PUSH1 0x3 DUP3 ADD SSTORE PUSH1 0x80 DUP6 ADD MLOAD PUSH1 0x4 DUP3 ADD SSTORE ADD SWAP3 PUSH2 0x2252 PUSH2 0x2240 PUSH1 0xA0 DUP4 ADD MLOAD ISZERO ISZERO SWAP1 JUMP JUMPDEST DUP6 SWAP1 PUSH1 0xFF DUP1 NOT DUP4 SLOAD AND SWAP2 ISZERO ISZERO AND OR SWAP1 SSTORE JUMP JUMPDEST ADD MLOAD ISZERO ISZERO SWAP1 JUMP JUMPDEST DUP2 SLOAD PUSH2 0xFF00 NOT AND SWAP1 ISZERO ISZERO PUSH1 0x8 SHL PUSH2 0xFF00 AND OR SWAP1 SSTORE JUMP JUMPDEST SWAP3 SWAP2 SWAP1 PUSH1 0x1F NOT DUP6 AND SWAP1 PUSH2 0x2287 DUP8 PUSH1 0x0 MSTORE PUSH1 0x20 PUSH1 0x0 KECCAK256 SWAP1 JUMP JUMPDEST SWAP5 PUSH1 0x0 SWAP2 JUMPDEST DUP4 DUP4 LT PUSH2 0x22D7 JUMPI POP POP POP DUP5 PUSH1 0x5 SWAP5 PUSH2 0x3BC SWAP10 SWAP9 SWAP5 PUSH2 0x2259 SWAP9 SWAP5 PUSH1 0xC0 SWAP9 PUSH1 0x1 SWAP6 LT PUSH2 0x22BE JUMPI JUMPDEST POP POP POP DUP2 SHL ADD SWAP1 SSTORE PUSH2 0x221A JUMP JUMPDEST ADD MLOAD PUSH1 0x0 NOT PUSH1 0xF8 DUP5 PUSH1 0x3 SHL AND SHR NOT AND SWAP1 SSTORE CODESIZE DUP1 DUP1 PUSH2 0x22B1 JUMP JUMPDEST DUP5 DUP7 ADD MLOAD DUP8 SSTORE SWAP6 DUP7 ADD SWAP6 SWAP5 DUP2 ADD SWAP5 SWAP2 DUP2 ADD SWAP2 PUSH2 0x228C JUMP JUMPDEST ISZERO PUSH2 0x22F5 JUMPI JUMP JUMPDEST PUSH1 0x40 MLOAD PUSH3 0x461BCD PUSH1 0xE5 SHL DUP2 MSTORE PUSH1 0x20 PUSH1 0x4 DUP3 ADD MSTORE PUSH1 0x13 PUSH1 0x24 DUP3 ADD MSTORE PUSH19 0x125B9D985B1A59081C1C9BDBD98818DBDD5B9D PUSH1 0x6A SHL PUSH1 0x44 DUP3 ADD MSTORE PUSH1 0x64 SWAP1 REVERT JUMPDEST DUP1 MLOAD ISZERO PUSH2 0x233D JUMPI PUSH1 0x20 ADD SWAP1 JUMP JUMPDEST PUSH2 0x1125 JUMP JUMPDEST DUP1 MLOAD PUSH1 0x1 LT ISZERO PUSH2 0x233D JUMPI PUSH1 0x40 ADD SWAP1 JUMP JUMPDEST DUP1 MLOAD PUSH1 0x2 LT ISZERO PUSH2 0x233D JUMPI PUSH1 0x60 ADD SWAP1 JUMP JUMPDEST DUP1 MLOAD PUSH1 0x3 LT ISZERO PUSH2 0x233D JUMPI PUSH1 0x80 ADD SWAP1 JUMP JUMPDEST DUP1 MLOAD PUSH1 0x4 LT ISZERO PUSH2 0x233D JUMPI PUSH1 0xA0 ADD SWAP1 JUMP JUMPDEST DUP1 MLOAD DUP3 LT ISZERO PUSH2 0x233D JUMPI PUSH1 0x20 SWAP2 PUSH1 0x5 SHL ADD ADD SWAP1 JUMP JUMPDEST MLOAD SWAP1 PUSH2 0x3BC DUP3 PUSH2 0x1333 JUMP JUMPDEST DUP2 PUSH1 0x1F DUP3 ADD SLT ISZERO PUSH2 0x449 JUMPI DUP1 MLOAD PUSH2 0x23B7 DUP2 PUSH2 0x3F7 JUMP JUMPDEST SWAP3 PUSH2 0x23C5 PUSH1 0x40 MLOAD SWAP5 DUP6 PUSH2 0x38E JUMP JUMPDEST DUP2 DUP5 MSTORE PUSH1 0x20 DUP3 DUP5 ADD ADD GT PUSH2 0x449 JUMPI PUSH2 0x469 SWAP2 PUSH1 0x20 DUP1 DUP6 ADD SWAP2 ADD PUSH2 0x6BF JUMP JUMPDEST MLOAD SWAP1 PUSH2 0x3BC DUP3 PUSH2 0x1344 JUMP JUMPDEST PUSH1 0x20 DUP2 DUP4 SUB SLT PUSH2 0x449 JUMPI DUP1 MLOAD PUSH1 0x1 PUSH1 0x1 PUSH1 0x40 SHL SUB SWAP2 DUP3 DUP3 GT PUSH2 0x449 JUMPI ADD SWAP2 PUSH1 0xE0 DUP4 DUP3 SUB SLT PUSH2 0x449 JUMPI PUSH2 0x241E PUSH2 0x3AF JUMP JUMPDEST SWAP3 PUSH2 0x2428 DUP2 PUSH2 0x2396 JUMP JUMPDEST DUP5 MSTORE PUSH1 0x20 DUP2 ADD MLOAD PUSH1 0x20 DUP6 ADD MSTORE PUSH1 0x40 DUP2 ADD MLOAD SWAP3 DUP4 GT PUSH2 0x449 JUMPI PUSH2 0x2451 PUSH1 0xC0 SWAP3 PUSH2 0x2481 SWAP5 DUP4 ADD PUSH2 0x23A1 JUMP JUMPDEST PUSH1 0x40 DUP6 ADD MSTORE PUSH1 0x60 DUP2 ADD MLOAD PUSH1 0x60 DUP6 ADD MSTORE PUSH1 0x80 DUP2 ADD MLOAD PUSH1 0x80 DUP6 ADD MSTORE PUSH2 0x2476 PUSH1 0xA0 DUP3 ADD PUSH2 0x23E3 JUMP JUMPDEST PUSH1 0xA0 DUP6 ADD MSTORE ADD PUSH2 0x23E3 JUMP JUMPDEST PUSH1 0xC0 DUP3 ADD MSTORE SWAP1 JUMP JUMPDEST ISZERO PUSH2 0x2490 JUMPI JUMP JUMPDEST PUSH1 0x40 MLOAD PUSH3 0x461BCD PUSH1 0xE5 SHL DUP2 MSTORE PUSH1 0x20 PUSH1 0x4 DUP3 ADD MSTORE PUSH1 0x13 PUSH1 0x24 DUP3 ADD MSTORE PUSH19 0x141C9BDBD9881B9BDD0818DBDB5C1B195D1959 PUSH1 0x6A SHL PUSH1 0x44 DUP3 ADD MSTORE PUSH1 0x64 SWAP1 REVERT JUMPDEST ISZERO PUSH2 0x24D2 JUMPI JUMP JUMPDEST PUSH1 0x40 MLOAD PUSH3 0x461BCD PUSH1 0xE5 SHL DUP2 MSTORE PUSH1 0x20 PUSH1 0x4 DUP3 ADD MSTORE PUSH1 0xD PUSH1 0x24 DUP3 ADD MSTORE PUSH13 0x24B73B30B634B210383937B7B3 PUSH1 0x99 SHL PUSH1 0x44 DUP3 ADD MSTORE PUSH1 0x64 SWAP1 REVERT JUMPDEST ISZERO PUSH2 0x250E JUMPI JUMP JUMPDEST PUSH1 0x40 MLOAD PUSH3 0x461BCD PUSH1 0xE5 SHL DUP2 MSTORE PUSH1 0x20 PUSH1 0x4 DUP3 ADD MSTORE PUSH1 0x16 PUSH1 0x24 DUP3 ADD MSTORE PUSH22 0xA0E4DEDECC40C2D8E4CAC2C8F240D2DC40C4C2E8C6D PUSH1 0x53 SHL PUSH1 0x44 DUP3 ADD MSTORE PUSH1 0x64 SWAP1 REVERT JUMPDEST SWAP1 DUP2 PUSH1 0x1 SHL SWAP2 DUP1 DUP4 DIV PUSH1 0x2 EQ SWAP1 ISZERO OR ISZERO PUSH2 0x544 JUMPI JUMP JUMPDEST DUP2 MLOAD SWAP2 PUSH1 0x1 PUSH1 0x1 PUSH1 0x40 SHL SUB DUP4 GT PUSH2 0x338 JUMPI PUSH1 0x1 PUSH1 0x40 SHL DUP4 GT PUSH2 0x338 JUMPI DUP2 SLOAD DUP4 DUP4 SSTORE DUP1 DUP5 LT PUSH2 0x25BE JUMPI JUMPDEST POP PUSH1 0x20 DUP1 SWAP2 ADD SWAP2 PUSH1 0x0 MSTORE PUSH1 0x20 PUSH1 0x0 KECCAK256 SWAP1 PUSH1 0x0 JUMPDEST DUP5 DUP2 LT PUSH2 0x25AC JUMPI POP POP POP POP POP JUMP JUMPDEST DUP4 MLOAD DUP4 DUP3 ADD SSTORE SWAP3 DUP2 ADD SWAP3 PUSH1 0x1 ADD PUSH2 0x259E JUMP JUMPDEST PUSH2 0x25D6 SWAP1 DUP4 PUSH1 0x0 MSTORE DUP5 PUSH1 0x20 PUSH1 0x0 KECCAK256 SWAP2 DUP3 ADD SWAP2 ADD PUSH2 0x1F9C JUMP JUMPDEST CODESIZE PUSH2 0x258B JUMP JUMPDEST SWAP1 PUSH2 0x25EF PUSH1 0x20 SWAP3 DUP3 DUP2 MLOAD SWAP5 DUP6 SWAP3 ADD PUSH2 0x6BF JUMP JUMPDEST ADD SWAP1 JUMP JUMPDEST SWAP1 SWAP2 PUSH1 0x40 SWAP4 SWAP3 DUP3 MSTORE PUSH1 0x20 DUP3 ADD MSTORE PUSH2 0x2613 DUP3 MLOAD DUP1 SWAP4 PUSH1 0x20 DUP7 DUP6 ADD SWAP2 ADD PUSH2 0x6BF JUMP JUMPDEST ADD ADD SWAP1 JUMP JUMPDEST SWAP1 PUSH1 0x0 JUMPDEST PUSH1 0x4 DUP2 LT PUSH2 0x2629 JUMPI POP POP POP JUMP JUMPDEST PUSH1 0x1 SWAP1 PUSH1 0x20 DUP4 MLOAD SWAP4 ADD SWAP3 DUP2 DUP6 ADD SSTORE ADD PUSH2 0x261C JUMP JUMPDEST SWAP1 PUSH1 0x20 PUSH2 0x469 SWAP3 DUP2 DUP2 MSTORE ADD SWAP1 PUSH2 0x1983 JUMP JUMPDEST PUSH2 0x2669 DUP2 MLOAD PUSH1 0x19 SLOAD DUP2 LT ISZERO SWAP1 DUP2 PUSH2 0x2930 JUMPI JUMPDEST POP SWAP3 SWAP2 SWAP3 PUSH2 0x22EE JUMP JUMPDEST PUSH32 0x0 PUSH1 0x1 PUSH1 0x1 PUSH1 0xA0 SHL SUB AND SWAP2 PUSH1 0x0 JUMPDEST DUP2 MLOAD DUP2 LT ISZERO PUSH2 0x275A JUMPI DUP1 PUSH1 0x0 PUSH2 0x26B0 PUSH2 0x26D0 SWAP4 DUP6 PUSH2 0x2382 JUMP JUMPDEST MLOAD PUSH1 0x40 MLOAD DUP1 SWAP5 DUP2 SWAP3 PUSH4 0xA954A93 PUSH1 0xE1 SHL DUP4 MSTORE PUSH1 0x4 DUP4 ADD SWAP2 SWAP1 PUSH1 0x20 DUP4 ADD SWAP3 MSTORE JUMP JUMPDEST SUB DUP2 DUP9 GAS STATICCALL SWAP2 DUP3 ISZERO PUSH2 0x14C5 JUMPI PUSH2 0x2706 PUSH1 0xC0 PUSH1 0x1 SWAP5 PUSH2 0x270B SWAP4 PUSH1 0x0 SWAP2 PUSH2 0x2739 JUMPI JUMPDEST POP PUSH2 0x2252 PUSH2 0x2701 PUSH1 0xA0 DUP4 ADD MLOAD ISZERO ISZERO SWAP1 JUMP JUMPDEST PUSH2 0x2489 JUMP JUMPDEST PUSH2 0x24CB JUMP JUMPDEST PUSH2 0x2733 PUSH2 0x272C PUSH2 0x271B DUP4 DUP7 PUSH2 0x2382 JUMP JUMPDEST MLOAD PUSH1 0x0 MSTORE PUSH1 0x16 PUSH1 0x20 MSTORE PUSH1 0x40 PUSH1 0x0 KECCAK256 SWAP1 JUMP JUMPDEST SLOAD ISZERO PUSH2 0x2507 JUMP JUMPDEST ADD PUSH2 0x2697 JUMP JUMPDEST PUSH2 0x2754 SWAP2 RETURNDATASIZE DUP1 SWAP2 DUP4 RETURNDATACOPY PUSH2 0x274C DUP2 DUP4 PUSH2 0x38E JUMP JUMPDEST DUP2 ADD SWAP1 PUSH2 0x23EE JUMP JUMPDEST CODESIZE PUSH2 0x26F0 JUMP JUMPDEST POP SWAP2 SWAP1 SWAP2 PUSH2 0x2769 PUSH1 0x17 SLOAD PUSH2 0x216D JUMP JUMPDEST SWAP2 PUSH2 0x2773 DUP4 PUSH1 0x17 SSTORE JUMP JUMPDEST PUSH2 0x2787 DUP4 PUSH1 0x0 MSTORE PUSH1 0x14 PUSH1 0x20 MSTORE PUSH1 0x40 PUSH1 0x0 KECCAK256 SWAP1 JUMP JUMPDEST SWAP1 PUSH2 0x2792 DUP4 DUP4 PUSH2 0x2562 JUMP JUMPDEST PUSH1 0x1 DUP3 DUP2 ADD DUP1 SLOAD PUSH1 0x1 PUSH1 0x1 PUSH1 0xA0 SHL SUB NOT AND CALLER OR SWAP1 SSTORE SWAP2 TIMESTAMP PUSH1 0x2 DUP3 ADD SSTORE PUSH1 0x0 PUSH1 0x3 DUP3 ADD SSTORE PUSH1 0xC DUP2 ADD DUP1 SLOAD PUSH1 0xFF NOT AND SWAP1 SSTORE PUSH1 0x0 SWAP2 PUSH1 0xD DUP3 ADD SWAP2 PUSH1 0xE ADD DUP5 JUMPDEST PUSH2 0x2815 JUMPI JUMPDEST POP POP POP POP POP DUP2 PUSH32 0x5D74F4C80F98633A9CE8E3F825E7019210BFB85159F33A7FCEB58FA9CB8CA621 PUSH1 0x40 MLOAD DUP1 PUSH2 0x2809 CALLER SWAP6 DUP3 PUSH2 0x263D JUMP JUMPDEST SUB SWAP1 LOG3 PUSH2 0x469 DUP2 PUSH2 0x345D JUMP JUMPDEST DUP6 MLOAD DUP5 LT ISZERO PUSH2 0x292B JUMPI PUSH2 0x2866 PUSH2 0x282B DUP6 DUP9 PUSH2 0x2382 JUMP JUMPDEST MLOAD SWAP5 DUP9 PUSH2 0x2842 DUP8 PUSH1 0x0 MSTORE PUSH1 0x16 PUSH1 0x20 MSTORE PUSH1 0x40 PUSH1 0x0 KECCAK256 SWAP1 JUMP JUMPDEST SSTORE PUSH1 0x0 PUSH1 0x40 SWAP7 DUP8 MLOAD DUP1 SWAP5 DUP2 SWAP3 PUSH4 0xA954A93 PUSH1 0xE1 SHL DUP4 MSTORE PUSH1 0x4 DUP4 ADD SWAP2 SWAP1 PUSH1 0x20 DUP4 ADD SWAP3 MSTORE JUMP JUMPDEST SUB DUP2 DUP8 GAS STATICCALL SWAP2 DUP3 ISZERO PUSH2 0x14C5 JUMPI DUP8 SWAP7 DUP8 SWAP4 PUSH2 0x290B SWAP3 PUSH1 0x0 SWAP2 PUSH2 0x2912 JUMPI JUMPDEST POP PUSH1 0x80 DUP2 ADD SWAP2 DUP3 MLOAD SWAP2 PUSH1 0x60 SWAP3 DUP4 DUP3 ADD DUP12 PUSH2 0x28D7 DUP10 DUP7 DUP5 MLOAD SWAP7 ADD SWAP5 PUSH2 0x28B6 PUSH2 0x28C4 DUP8 MLOAD DUP11 MLOAD SWAP3 DUP4 SWAP2 PUSH1 0x20 SWAP12 DUP13 DUP5 ADD SWAP7 DUP8 PUSH2 0x25F3 JUMP JUMPDEST SUB PUSH1 0x1F NOT DUP2 ADD DUP4 MSTORE DUP3 PUSH2 0x38E JUMP JUMPDEST MLOAD SWAP1 KECCAK256 SWAP3 SWAP1 PUSH1 0x0 MSTORE PUSH1 0x20 MSTORE PUSH1 0x40 PUSH1 0x0 KECCAK256 SWAP1 JUMP JUMPDEST SSTORE PUSH2 0x28E0 PUSH2 0x3D8 JUMP JUMPDEST SWAP6 MLOAD DUP7 MSTORE MLOAD DUP3 DUP7 ADD MSTORE MLOAD DUP1 MLOAD SWAP2 ADD KECCAK256 SWAP1 DUP4 ADD MSTORE TIMESTAMP SWAP1 DUP3 ADD MSTORE PUSH1 0x0 DUP4 DUP2 MSTORE PUSH1 0x20 DUP7 SWAP1 MSTORE PUSH1 0x40 SWAP1 KECCAK256 PUSH2 0x2618 JUMP JUMPDEST ADD SWAP4 PUSH2 0x27CE JUMP JUMPDEST PUSH2 0x2925 SWAP2 RETURNDATASIZE DUP1 SWAP2 DUP4 RETURNDATACOPY PUSH2 0x274C DUP2 DUP4 PUSH2 0x38E JUMP JUMPDEST CODESIZE PUSH2 0x2882 JUMP JUMPDEST PUSH2 0x27D3 JUMP JUMPDEST SWAP1 POP PUSH1 0x1A SLOAD LT ISZERO CODESIZE PUSH2 0x2660 JUMP JUMPDEST ISZERO PUSH2 0x2944 JUMPI JUMP JUMPDEST PUSH1 0x40 MLOAD PUSH3 0x461BCD PUSH1 0xE5 SHL DUP2 MSTORE PUSH1 0x20 PUSH1 0x4 DUP3 ADD MSTORE PUSH1 0x1E PUSH1 0x24 DUP3 ADD MSTORE PUSH32 0x50726576696F757320666F6C64696E67206E6F7420636F6D706C657465640000 PUSH1 0x44 DUP3 ADD MSTORE PUSH1 0x64 SWAP1 REVERT JUMPDEST ISZERO PUSH2 0x2990 JUMPI JUMP JUMPDEST PUSH1 0x40 MLOAD PUSH3 0x461BCD PUSH1 0xE5 SHL DUP2 MSTORE PUSH1 0x20 PUSH1 0x4 DUP3 ADD MSTORE PUSH1 0x1B PUSH1 0x24 DUP3 ADD MSTORE PUSH32 0x4D617820726563757273696F6E20646570746820726561636865640000000000 PUSH1 0x44 DUP3 ADD MSTORE PUSH1 0x64 SWAP1 REVERT JUMPDEST PUSH1 0x40 MLOAD SWAP1 PUSH2 0x29E2 DUP3 PUSH2 0x358 JUMP JUMPDEST PUSH1 0x0 DUP3 MSTORE JUMP JUMPDEST PUSH1 0x1 PUSH1 0x1 PUSH1 0xA0 SHL SUB AND DUP1 ISZERO PUSH2 0x2A3D JUMPI PUSH1 0x20 DUP2 PUSH32 0xD1A6A14209A385A964D036E404CB5CFB71F4000CDB03C9366292430787261BE6 SWAP3 PUSH12 0xFFFFFFFFFFFFFFFFFFFFFFFF PUSH1 0xA0 SHL PUSH1 0x2 SLOAD AND OR PUSH1 0x2 SSTORE PUSH1 0x40 MLOAD SWAP1 DUP2 MSTORE LOG1 JUMP JUMPDEST PUSH1 0x40 MLOAD PUSH4 0xD92E233D PUSH1 0xE0 SHL DUP2 MSTORE PUSH1 0x4 SWAP1 REVERT JUMPDEST ISZERO PUSH2 0x2A56 JUMPI JUMP JUMPDEST PUSH1 0x40 MLOAD PUSH3 0x461BCD PUSH1 0xE5 SHL DUP2 MSTORE PUSH1 0x20 PUSH1 0x4 DUP3 ADD MSTORE PUSH1 0x14 PUSH1 0x24 DUP3 ADD MSTORE PUSH20 0x496E76616C696420696E70757420617272617973 PUSH1 0x60 SHL PUSH1 0x44 DUP3 ADD MSTORE PUSH1 0x64 SWAP1 REVERT JUMPDEST ISZERO PUSH2 0x2A99 JUMPI JUMP JUMPDEST PUSH1 0x40 MLOAD PUSH3 0x461BCD PUSH1 0xE5 SHL DUP2 MSTORE PUSH1 0x20 PUSH1 0x4 DUP3 ADD MSTORE PUSH1 0x1C PUSH1 0x24 DUP3 ADD MSTORE PUSH32 0x546F6F206D616E792070726F6F667320746F2061676772656761746500000000 PUSH1 0x44 DUP3 ADD MSTORE PUSH1 0x64 SWAP1 REVERT JUMPDEST SWAP1 PUSH2 0x2AE8 DUP3 PUSH2 0x1691 JUMP JUMPDEST PUSH2 0x2AF5 PUSH1 0x40 MLOAD SWAP2 DUP3 PUSH2 0x38E JUMP JUMPDEST DUP3 DUP2 MSTORE DUP1 SWAP3 PUSH2 0x2B06 PUSH1 0x1F NOT SWAP2 PUSH2 0x1691 JUMP JUMPDEST ADD SWAP1 PUSH1 0x20 CALLDATASIZE SWAP2 ADD CALLDATACOPY JUMP JUMPDEST SWAP2 SWAP1 DUP2 LT ISZERO PUSH2 0x233D JUMPI PUSH1 0x5 SHL DUP2 ADD CALLDATALOAD SWAP1 PUSH1 0x1E NOT DUP2 CALLDATASIZE SUB ADD DUP3 SLT ISZERO PUSH2 0x449 JUMPI ADD SWAP1 DUP2 CALLDATALOAD SWAP2 PUSH1 0x1 PUSH1 0x1 PUSH1 0x40 SHL SUB DUP4 GT PUSH2 0x449 JUMPI PUSH1 0x20 ADD DUP3 CALLDATASIZE SUB DUP2 SGT PUSH2 0x449 JUMPI SWAP2 SWAP1 JUMP JUMPDEST ISZERO PUSH2 0x2B58 JUMPI JUMP JUMPDEST PUSH1 0x40 MLOAD PUSH3 0x461BCD PUSH1 0xE5 SHL DUP2 MSTORE PUSH1 0x20 PUSH1 0x4 DUP3 ADD MSTORE PUSH1 0x1C PUSH1 0x24 DUP3 ADD MSTORE PUSH32 0x496E76616C69642070726F6F6620696E206167677265676174696F6E00000000 PUSH1 0x44 DUP3 ADD MSTORE PUSH1 0x64 SWAP1 REVERT JUMPDEST SWAP1 DUP1 SWAP3 SWAP2 DUP3 CALLDATACOPY ADD PUSH1 0x0 DUP2 MSTORE SWAP1 JUMP JUMPDEST ISZERO PUSH2 0x2BB2 JUMPI JUMP JUMPDEST PUSH1 0x40 MLOAD PUSH3 0x461BCD PUSH1 0xE5 SHL DUP2 MSTORE PUSH1 0x20 PUSH1 0x4 DUP3 ADD MSTORE PUSH1 0x21 PUSH1 0x24 DUP3 ADD MSTORE PUSH32 0x50726F6F6620616C7265616479207573656420696E206167677265676174696F PUSH1 0x44 DUP3 ADD MSTORE PUSH1 0x37 PUSH1 0xF9 SHL PUSH1 0x64 DUP3 ADD MSTORE PUSH1 0x84 SWAP1 REVERT JUMPDEST SWAP2 SWAP4 SWAP3 SWAP1 SWAP4 DUP5 MLOAD PUSH1 0x20 DUP1 SWAP7 ADD SWAP1 PUSH1 0x0 JUMPDEST DUP2 DUP2 LT PUSH2 0x2C3B JUMPI POP POP POP DUP3 MSTORE PUSH1 0x60 SHL PUSH12 0xFFFFFFFFFFFFFFFFFFFFFFFF NOT AND PUSH1 0x20 DUP3 ADD MSTORE PUSH1 0x34 ADD SWAP2 POP JUMP JUMPDEST DUP3 MLOAD DUP7 MSTORE SWAP5 DUP8 ADD SWAP5 SWAP2 DUP8 ADD SWAP2 PUSH1 0x1 ADD PUSH2 0x2C11 JUMP JUMPDEST DUP2 MLOAD SWAP2 PUSH1 0x1 PUSH1 0x1 PUSH1 0x40 SHL SUB DUP4 GT PUSH2 0x338 JUMPI PUSH1 0x1 PUSH1 0x40 SHL DUP4 GT PUSH2 0x338 JUMPI DUP2 SLOAD DUP4 DUP4 SSTORE DUP1 DUP5 LT PUSH2 0x2CB1 JUMPI JUMPDEST POP PUSH2 0x2C8D PUSH1 0x20 DUP1 SWAP3 ADD SWAP3 PUSH1 0x0 MSTORE PUSH1 0x20 PUSH1 0x0 KECCAK256 SWAP1 JUMP JUMPDEST SWAP1 PUSH1 0x0 JUMPDEST DUP5 DUP2 LT PUSH2 0x2C9F JUMPI POP POP POP POP POP JUMP JUMPDEST DUP4 MLOAD DUP4 DUP3 ADD SSTORE SWAP3 DUP2 ADD SWAP3 PUSH1 0x1 ADD PUSH2 0x2C91 JUMP JUMPDEST PUSH1 0x0 DUP4 PUSH1 0x0 MSTORE DUP5 PUSH1 0x20 PUSH1 0x0 KECCAK256 SWAP3 DUP4 ADD SWAP3 ADD JUMPDEST DUP3 DUP2 LT PUSH2 0x2CD1 JUMPI POP POP PUSH2 0x2C78 JUMP JUMPDEST DUP2 DUP2 SSTORE PUSH1 0x1 ADD PUSH2 0x2CC3 JUMP JUMPDEST SWAP2 SWAP3 SWAP1 SWAP3 DUP2 DUP5 EQ DUP1 PUSH2 0x2EA0 JUMPI JUMPDEST PUSH2 0x2CF2 SWAP1 PUSH2 0x2A4F JUMP JUMPDEST PUSH2 0x2CFF PUSH1 0xA DUP6 GT ISZERO PUSH2 0x2A92 JUMP JUMPDEST PUSH2 0x2D08 DUP5 PUSH2 0x2ADE JUMP JUMPDEST SWAP4 PUSH1 0x0 JUMPDEST DUP2 DUP2 LT PUSH2 0x2DCA JUMPI POP POP POP POP POP PUSH1 0x40 MLOAD PUSH1 0x20 DUP2 ADD SWAP1 PUSH2 0x2D30 DUP2 PUSH2 0x28B6 CALLER TIMESTAMP DUP8 DUP8 PUSH2 0x2C01 JUMP JUMPDEST MLOAD SWAP1 KECCAK256 SWAP1 PUSH2 0x2D65 PUSH2 0x2D42 PUSH1 0x5 SLOAD PUSH2 0x216D JUMP JUMPDEST SWAP2 PUSH2 0x2D4C DUP4 PUSH1 0x5 SSTORE JUMP JUMPDEST PUSH2 0x2D60 DUP4 PUSH1 0x0 MSTORE PUSH1 0x10 PUSH1 0x20 MSTORE PUSH1 0x40 PUSH1 0x0 KECCAK256 SWAP1 JUMP JUMPDEST PUSH2 0x2C4F JUMP JUMPDEST PUSH2 0x2D89 PUSH2 0x2D7C DUP4 PUSH1 0x0 MSTORE PUSH1 0xF PUSH1 0x20 MSTORE PUSH1 0x40 PUSH1 0x0 KECCAK256 SWAP1 JUMP JUMPDEST DUP1 SLOAD PUSH1 0xFF NOT AND PUSH1 0x1 OR SWAP1 SSTORE JUMP JUMPDEST PUSH32 0x6DD2118914AD2B9A98780FAFD92846EEBE9361998A810F1A05F67033B17E2CDD PUSH1 0x40 MLOAD DUP1 PUSH2 0x2DC4 DUP6 DUP3 SWAP2 SWAP1 PUSH1 0x20 PUSH1 0x40 DUP5 ADD SWAP4 PUSH1 0x1 DUP2 MSTORE ADD MSTORE JUMP JUMPDEST SUB SWAP1 LOG2 SWAP1 JUMP JUMPDEST DUP1 PUSH2 0x2E0F PUSH2 0x2E0A PUSH2 0x2E04 PUSH2 0x2DE1 PUSH1 0x1 SWAP6 DUP8 DUP12 PUSH2 0x2B10 JUMP JUMPDEST PUSH2 0x2DFC PUSH2 0x2DF2 DUP8 DUP13 DUP13 SWAP7 SWAP6 SWAP7 PUSH2 0x2B10 JUMP JUMPDEST SWAP5 SWAP1 SWAP3 CALLDATASIZE SWAP2 PUSH2 0x412 JUMP JUMPDEST SWAP3 CALLDATASIZE SWAP2 PUSH2 0x412 JUMP JUMPDEST SWAP1 PUSH2 0x37D6 JUMP JUMPDEST PUSH2 0x2B51 JUMP JUMPDEST PUSH2 0x2E9A PUSH2 0x2D7C PUSH2 0x2E4E PUSH2 0x2E48 PUSH2 0x2E26 DUP6 DUP9 DUP13 PUSH2 0x2B10 JUMP JUMPDEST SWAP3 SWAP1 PUSH2 0x28B6 PUSH2 0x2E36 DUP9 DUP14 DUP14 PUSH2 0x2B10 JUMP JUMPDEST PUSH1 0x40 MLOAD SWAP6 DUP7 SWAP5 PUSH1 0x20 DUP7 ADD SWAP9 DUP10 SWAP2 PUSH2 0x2B9D JUMP JUMPDEST SWAP2 PUSH2 0x2B9D JUMP JUMPDEST MLOAD SWAP1 KECCAK256 PUSH2 0x2E7E PUSH2 0x2E79 PUSH2 0x2E75 PUSH2 0x2E6E DUP5 PUSH1 0x0 MSTORE PUSH1 0x11 PUSH1 0x20 MSTORE PUSH1 0x40 PUSH1 0x0 KECCAK256 SWAP1 JUMP JUMPDEST SLOAD PUSH1 0xFF AND SWAP1 JUMP JUMPDEST ISZERO SWAP1 JUMP JUMPDEST PUSH2 0x2BAB JUMP JUMPDEST DUP1 PUSH2 0x2E89 DUP6 DUP13 PUSH2 0x2382 JUMP JUMPDEST MSTORE PUSH1 0x0 MSTORE PUSH1 0x11 PUSH1 0x20 MSTORE PUSH1 0x40 PUSH1 0x0 KECCAK256 SWAP1 JUMP JUMPDEST ADD PUSH2 0x2D0C JUMP JUMPDEST POP DUP4 ISZERO ISZERO PUSH2 0x2CE9 JUMP JUMPDEST SWAP1 ISZERO PUSH2 0x233D JUMPI SWAP1 JUMP JUMPDEST SWAP1 PUSH1 0x1 DUP3 ADD DUP1 SWAP3 GT PUSH2 0x544 JUMPI JUMP JUMPDEST PUSH1 0x30 ADD SWAP1 DUP2 PUSH1 0x30 GT PUSH2 0x544 JUMPI JUMP JUMPDEST SWAP1 PUSH2 0x2710 DUP3 ADD DUP1 SWAP3 GT PUSH2 0x544 JUMPI JUMP JUMPDEST SWAP1 PUSH1 0x20 DUP3 ADD DUP1 SWAP3 GT PUSH2 0x544 JUMPI JUMP JUMPDEST SWAP2 SWAP1 DUP3 ADD DUP1 SWAP3 GT PUSH2 0x544 JUMPI JUMP JUMPDEST PUSH1 0x40 MLOAD SWAP1 PUSH2 0x160 DUP3 ADD DUP3 DUP2 LT PUSH1 0x1 PUSH1 0x1 PUSH1 0x40 SHL SUB DUP3 GT OR PUSH2 0x338 JUMPI PUSH1 0x40 MSTORE PUSH2 0x131 DUP3 MSTORE PUSH17 0x72696E6769667928726573756C7429293B PUSH1 0x78 SHL PUSH2 0x140 DUP4 PUSH32 0x636F6E737420636861696E49643D7061727365496E7428617267735B305D293B PUSH1 0x20 DUP3 ADD MSTORE PUSH32 0x636F6E737420626C6F636B4E756D626572733D4A534F4E2E7061727365286172 PUSH1 0x40 DUP3 ADD MSTORE PUSH32 0x67735B315D293B636F6E737420726573756C743D7B737563636573733A747275 PUSH1 0x60 DUP3 ADD MSTORE PUSH32 0x652C636861696E49642C626C6F636B4E756D626572732C76616C696469747948 PUSH1 0x80 DUP3 ADD MSTORE PUSH32 0x6173683A27307831323334353637383930616263646566313233343536373839 PUSH1 0xA0 DUP3 ADD MSTORE PUSH32 0x3061626364656631323334353637383930616263646566313233343536373839 PUSH1 0xC0 DUP3 ADD MSTORE PUSH32 0x30616263646566272C6D657461646174613A7B74696D657374616D703A4D6174 PUSH1 0xE0 DUP3 ADD MSTORE PUSH32 0x682E666C6F6F7228446174652E6E6F7728292F31303030297D7D3B7265747572 PUSH2 0x100 DUP3 ADD MSTORE PUSH32 0x6E2046756E6374696F6E732E656E636F6465537472696E67284A534F4E2E7374 PUSH2 0x120 DUP3 ADD MSTORE ADD MSTORE JUMP JUMPDEST PUSH1 0x40 MLOAD SWAP1 PUSH2 0x309D DUP3 PUSH2 0x31D JUMP JUMPDEST PUSH1 0x60 PUSH1 0xC0 DUP4 PUSH1 0x0 DUP2 MSTORE PUSH1 0x0 PUSH1 0x20 DUP3 ADD MSTORE PUSH1 0x0 PUSH1 0x40 DUP3 ADD MSTORE DUP3 DUP1 DUP3 ADD MSTORE DUP3 PUSH1 0x80 DUP3 ADD MSTORE DUP3 PUSH1 0xA0 DUP3 ADD MSTORE ADD MSTORE JUMP JUMPDEST PUSH1 0x40 MLOAD SWAP1 PUSH2 0x30D6 DUP3 PUSH2 0x373 JUMP JUMPDEST PUSH1 0x5 DUP3 MSTORE DUP2 PUSH1 0x0 JUMPDEST PUSH1 0xA0 DUP2 LT PUSH2 0x30EA JUMPI POP POP JUMP JUMPDEST DUP1 PUSH1 0x60 PUSH1 0x20 DUP1 SWAP4 DUP6 ADD ADD MSTORE ADD PUSH2 0x30DE JUMP JUMPDEST PUSH1 0x40 MLOAD SWAP1 PUSH1 0x80 DUP3 ADD DUP3 DUP2 LT PUSH1 0x1 PUSH1 0x1 PUSH1 0x40 SHL SUB DUP3 GT OR PUSH2 0x338 JUMPI PUSH1 0x40 MSTORE PUSH1 0x3 DUP3 MSTORE DUP2 SWAP1 PUSH1 0x0 JUMPDEST PUSH1 0x60 DUP1 DUP3 LT ISZERO PUSH2 0x313B JUMPI SWAP1 PUSH1 0x20 SWAP2 DUP3 DUP3 DUP8 ADD ADD MSTORE ADD PUSH2 0x3121 JUMP JUMPDEST POP POP SWAP1 SWAP2 POP JUMP JUMPDEST SWAP3 SWAP2 SWAP1 PUSH2 0x3159 PUSH1 0x20 SWAP2 PUSH1 0x40 DUP7 MSTORE PUSH1 0x40 DUP7 ADD SWAP1 PUSH2 0xD36 JUMP JUMPDEST SWAP4 ADD MSTORE JUMP JUMPDEST SWAP1 PUSH32 0x89652D00E157965D54F5AD31AF9352416C4E90B879711EC122680D4E3A1DE9A6 SWAP1 PUSH2 0x3195 DUP4 PUSH1 0x0 MSTORE PUSH1 0x3 PUSH1 0x20 MSTORE PUSH1 0x40 PUSH1 0x0 KECCAK256 SWAP1 JUMP JUMPDEST PUSH2 0x319D PUSH2 0xDCC JUMP JUMPDEST DUP1 MLOAD ISZERO PUSH2 0x330D JUMPI JUMPDEST PUSH2 0x32BF PUSH2 0x32E3 SWAP2 PUSH2 0x31BE PUSH2 0x31B7 PUSH2 0x3090 JUMP JUMPDEST SWAP2 DUP3 PUSH2 0x4831 JUMP JUMPDEST PUSH2 0x32BA PUSH1 0x2 PUSH2 0x31CB PUSH2 0x30C9 JUMP JUMPDEST SWAP6 ADD SWAP5 PUSH2 0x31E7 PUSH2 0x31E2 PUSH2 0x31DD DUP9 PUSH2 0xF1D JUMP JUMPDEST PUSH2 0x3D34 JUMP JUMPDEST PUSH2 0x3EE1 JUMP JUMPDEST PUSH2 0x31F0 DUP3 PUSH2 0x2330 JUMP JUMPDEST MSTORE PUSH2 0x31FA DUP2 PUSH2 0x2330 JUMP JUMPDEST POP PUSH2 0x322E PUSH2 0x323B PUSH2 0x320A DUP10 PUSH2 0x3EE1 JUMP JUMPDEST PUSH2 0x28B6 PUSH1 0x40 MLOAD SWAP4 DUP5 SWAP3 PUSH2 0x3228 PUSH1 0x20 DUP6 ADD PUSH1 0x1 SWAP1 PUSH1 0x5B PUSH1 0xF8 SHL DUP2 MSTORE ADD SWAP1 JUMP JUMPDEST SWAP1 PUSH2 0x25DC JUMP JUMPDEST PUSH1 0x5D PUSH1 0xF8 SHL DUP2 MSTORE PUSH1 0x1 ADD SWAP1 JUMP JUMPDEST PUSH2 0x3244 DUP3 PUSH2 0x2342 JUMP JUMPDEST MSTORE PUSH2 0x324E DUP2 PUSH2 0x2342 JUMP JUMPDEST POP PUSH2 0x3267 PUSH2 0x31E2 PUSH2 0x3261 PUSH1 0xE SLOAD PUSH1 0xFF AND SWAP1 JUMP JUMPDEST PUSH1 0xFF AND SWAP1 JUMP JUMPDEST PUSH2 0x3270 DUP3 PUSH2 0x2352 JUMP JUMPDEST MSTORE PUSH2 0x327A DUP2 PUSH2 0x2352 JUMP JUMPDEST POP PUSH2 0x3284 CHAINID PUSH2 0x3EE1 JUMP JUMPDEST PUSH2 0x328D DUP3 PUSH2 0x2362 JUMP JUMPDEST MSTORE PUSH2 0x3297 DUP2 PUSH2 0x2362 JUMP JUMPDEST POP PUSH2 0x32A0 PUSH2 0xE90 JUMP JUMPDEST PUSH2 0x32A9 DUP3 PUSH2 0x2372 JUMP JUMPDEST MSTORE PUSH2 0x32B3 DUP2 PUSH2 0x2372 JUMP JUMPDEST POP DUP3 PUSH2 0x3F81 JUMP JUMPDEST PUSH2 0x40D0 JUMP JUMPDEST PUSH1 0xA SLOAD PUSH1 0xB SLOAD SWAP2 PUSH1 0x1 PUSH1 0x1 PUSH1 0x40 SHL SUB PUSH4 0xFFFFFFFF DUP4 PUSH1 0x90 SHR AND SWAP3 PUSH1 0x50 SHR AND SWAP1 PUSH2 0x429E JUMP JUMPDEST SWAP4 PUSH2 0x32F8 DUP6 PUSH1 0x0 MSTORE PUSH1 0x4 PUSH1 0x20 MSTORE PUSH1 0x40 PUSH1 0x0 KECCAK256 SWAP1 JUMP JUMPDEST SSTORE PUSH2 0x3308 PUSH1 0x40 MLOAD SWAP3 DUP4 SWAP3 DUP4 PUSH2 0x3142 JUMP JUMPDEST SUB SWAP1 LOG2 JUMP JUMPDEST POP PUSH2 0x32E3 PUSH2 0x32BF PUSH2 0x331C PUSH2 0x2EF8 JUMP JUMPDEST SWAP2 POP POP PUSH2 0x31A5 JUMP JUMPDEST PUSH1 0xE0 PUSH1 0xA0 PUSH2 0x469 SWAP4 PUSH1 0x20 DUP5 MSTORE DUP1 MLOAD PUSH1 0x20 DUP6 ADD MSTORE PUSH1 0x20 DUP2 ADD MLOAD PUSH1 0x40 DUP6 ADD MSTORE PUSH2 0xFFFF PUSH1 0x40 DUP3 ADD MLOAD AND PUSH1 0x60 DUP6 ADD MSTORE PUSH1 0x60 DUP2 ADD MLOAD PUSH4 0xFFFFFFFF DUP1 SWAP2 AND PUSH1 0x80 DUP7 ADD MSTORE PUSH1 0x80 DUP3 ADD MLOAD AND DUP3 DUP6 ADD MSTORE ADD MLOAD SWAP2 PUSH1 0xC0 DUP1 DUP3 ADD MSTORE ADD SWAP1 PUSH2 0x6E2 JUMP JUMPDEST PUSH1 0x2 SLOAD PUSH1 0x0 SWAP1 PUSH1 0x20 SWAP1 PUSH2 0x3414 SWAP1 PUSH1 0x1 PUSH1 0x1 PUSH1 0xA0 SHL SUB AND PUSH1 0x9 SLOAD PUSH1 0x8 SLOAD PUSH2 0x33F3 PUSH1 0xA SLOAD PUSH4 0xFFFFFFFF SWAP1 PUSH2 0x33B6 PUSH2 0x33AE PUSH2 0x3BE JUMP JUMPDEST DUP11 DUP2 MSTORE PUSH2 0x4378 JUMP JUMPDEST SWAP4 PUSH2 0x33BF PUSH2 0x3CB JUMP JUMPDEST SWAP6 DUP7 MSTORE DUP9 DUP7 ADD MSTORE DUP1 DUP9 SHR PUSH2 0xFFFF AND PUSH1 0x40 DUP7 ADD MSTORE PUSH4 0xFFFFFFFF DUP2 DUP4 AND AND PUSH1 0x60 DUP7 ADD MSTORE PUSH1 0x30 SHR AND PUSH1 0x80 DUP5 ADD SWAP1 PUSH4 0xFFFFFFFF AND SWAP1 MSTORE JUMP JUMPDEST PUSH1 0xA0 DUP3 ADD MSTORE PUSH1 0x40 MLOAD SWAP5 DUP6 DUP1 SWAP5 DUP2 SWAP4 PUSH4 0x4D8E1C2F PUSH1 0xE1 SHL DUP4 MSTORE PUSH1 0x4 DUP4 ADD PUSH2 0x3324 JUMP JUMPDEST SUB SWAP3 GAS CALL DUP1 ISZERO PUSH2 0x14C5 JUMPI PUSH2 0x343B SWAP2 PUSH1 0x0 SWAP2 PUSH2 0x343E JUMPI JUMPDEST POP PUSH1 0x0 MSTORE PUSH1 0x4 PUSH1 0x20 MSTORE PUSH1 0x40 PUSH1 0x0 KECCAK256 SWAP1 JUMP JUMPDEST SSTORE JUMP JUMPDEST PUSH2 0x3457 SWAP2 POP PUSH1 0x20 RETURNDATASIZE PUSH1 0x20 GT PUSH2 0x14BE JUMPI PUSH2 0x14B6 DUP2 DUP4 PUSH2 0x38E JUMP JUMPDEST CODESIZE PUSH2 0x342A JUMP JUMPDEST PUSH2 0x3BC SWAP1 DUP1 PUSH1 0x0 MSTORE PUSH1 0x14 PUSH1 0x20 MSTORE PUSH1 0x40 PUSH1 0x0 KECCAK256 PUSH1 0x40 MLOAD PUSH32 0x2F2F204E6F766120666F6C64696E673A20636F6D707574652064657465726D69 PUSH1 0x20 DUP3 ADD MSTORE PUSH32 0x6E697374696320616767726567617465644861736820616E642072657475726E PUSH1 0x40 DUP3 ADD MSTORE PUSH11 0x1030B99039BA3934B73385 PUSH1 0xA9 SHL PUSH1 0x60 DUP3 ADD MSTORE PUSH32 0x636F6E73742062617463684964203D20426967496E7428617267735B305D293B PUSH1 0x6B DUP3 ADD MSTORE PUSH1 0x5 PUSH1 0xF9 SHL PUSH1 0x8B DUP3 ADD MSTORE PUSH32 0x636F6E73742070726F6F66436F756E74203D20426967496E7428617267735B31 PUSH1 0x8C DUP3 ADD MSTORE PUSH4 0x2E949D85 PUSH1 0xE1 SHL PUSH1 0xAC DUP3 ADD MSTORE PUSH2 0x37C9 DUP2 PUSH2 0x28B6 PUSH2 0x3789 PUSH2 0x3704 PUSH2 0x35C5 PUSH2 0x3576 PUSH1 0xB0 DUP7 ADD PUSH1 0x20 SWAP1 PUSH32 0x636F6E73742073746570496E203D20426967496E7428617267735B325D293B0A DUP2 MSTORE ADD SWAP1 JUMP JUMPDEST PUSH32 0x2F2F2053696D706C652064657465726D696E69737469632033322D6279746520 DUP2 MSTORE PUSH32 0x686578206861736820776974686F7574206574686572732E6A730A0000000000 PUSH1 0x20 DUP3 ADD MSTORE PUSH1 0x3B ADD SWAP1 JUMP JUMPDEST PUSH32 0x66756E6374696F6E2073696D706C654861736828737472297B6C65742068313D DUP2 MSTORE PUSH32 0x302C68323D303B666F72286C657420693D303B693C7374722E6C656E6774683B PUSH1 0x20 DUP3 ADD MSTORE PUSH32 0x692B2B297B636F6E73742063683D7374722E63686172436F646541742869293B PUSH1 0x40 DUP3 ADD MSTORE PUSH32 0x68313D282868313C3C35292D68312B6368297C303B68323D282868323C3C3329 PUSH1 0x60 DUP3 ADD MSTORE PUSH32 0x2B63682A37297C303B7D636F6E737420746F4865783D763D3E2828763E3E3E30 PUSH1 0x80 DUP3 ADD MSTORE PUSH32 0x292E746F537472696E67283136292E706164537461727428382C27302729293B PUSH1 0xA0 DUP3 ADD MSTORE PUSH32 0x72657475726E20273078272B746F486578286831292B746F486578286832292B PUSH1 0xC0 DUP3 ADD MSTORE PUSH32 0x746F4865782868315E6832292B746F486578282868312B6832292A3133293B7D PUSH1 0xE0 DUP3 ADD MSTORE PUSH1 0x5 PUSH1 0xF9 SHL PUSH2 0x100 DUP3 ADD MSTORE PUSH2 0x101 ADD SWAP1 JUMP JUMPDEST PUSH32 0x636F6E7374206167677265676174656448617368203D2073696D706C65486173 DUP2 MSTORE PUSH32 0x6828626174636849642E746F537472696E6728292B272C272B70726F6F66436F PUSH1 0x20 DUP3 ADD MSTORE PUSH32 0x756E742E746F537472696E6728292B272C272B73746570496E2E746F53747269 PUSH1 0x40 DUP3 ADD MSTORE PUSH7 0x37339414949D85 PUSH1 0xC9 SHL PUSH1 0x60 DUP3 ADD MSTORE PUSH1 0x67 ADD SWAP1 JUMP JUMPDEST PUSH32 0x72657475726E2046756E6374696F6E732E656E636F6465537472696E67286167 DUP2 MSTORE PUSH14 0x677265676174656448617368293B PUSH1 0x90 SHL PUSH1 0x20 DUP3 ADD MSTORE PUSH1 0x2E ADD SWAP1 JUMP JUMPDEST PUSH1 0x3 DUP3 SLOAD SWAP3 ADD SLOAD SWAP3 PUSH2 0x43B1 JUMP JUMPDEST MLOAD ISZERO SWAP1 DUP2 ISZERO PUSH2 0x37EF JUMPI JUMPDEST POP PUSH2 0x37EA JUMPI PUSH1 0x1 SWAP1 JUMP JUMPDEST PUSH1 0x0 SWAP1 JUMP JUMPDEST SWAP1 POP MLOAD ISZERO CODESIZE PUSH2 0x37E0 JUMP JUMPDEST ISZERO PUSH2 0x3800 JUMPI JUMP JUMPDEST PUSH1 0x40 MLOAD PUSH3 0x461BCD PUSH1 0xE5 SHL DUP2 MSTORE PUSH1 0x20 PUSH1 0x4 DUP3 ADD MSTORE PUSH1 0x19 PUSH1 0x24 DUP3 ADD MSTORE PUSH32 0x496E76616C69642046756E6374696F6E73207265717565737400000000000000 PUSH1 0x44 DUP3 ADD MSTORE PUSH1 0x64 SWAP1 REVERT JUMPDEST SWAP1 PUSH1 0x20 PUSH2 0x469 SWAP3 DUP2 DUP2 MSTORE ADD SWAP1 PUSH2 0x6E2 JUMP JUMPDEST PUSH1 0x40 MLOAD SWAP1 PUSH2 0x3863 DUP3 PUSH2 0x33D JUMP JUMPDEST PUSH1 0x1 DUP3 MSTORE PUSH1 0x73 PUSH1 0xF8 SHL PUSH1 0x20 DUP4 ADD MSTORE JUMP JUMPDEST PUSH1 0x40 MLOAD SWAP1 PUSH2 0x3880 DUP3 PUSH2 0x33D JUMP JUMPDEST PUSH1 0x3 DUP3 MSTORE PUSH3 0x1C1A59 PUSH1 0xEA SHL PUSH1 0x20 DUP4 ADD MSTORE JUMP JUMPDEST PUSH1 0x20 SWAP1 PUSH2 0x38A8 PUSH1 0x40 SWAP6 SWAP4 DUP3 DUP2 MLOAD SWAP5 DUP6 SWAP3 ADD PUSH2 0x6BF JUMP JUMPDEST ADD SWAP2 DUP3 MSTORE PUSH1 0x20 DUP3 ADD MSTORE ADD SWAP1 JUMP JUMPDEST PUSH2 0x38C9 PUSH1 0x20 SWAP3 PUSH1 0x40 DUP4 MSTORE PUSH1 0x40 DUP4 ADD SWAP1 PUSH2 0x6E2 JUMP JUMPDEST SWAP1 DUP3 DUP2 DUP4 SUB SWAP2 ADD MSTORE PUSH1 0x0 DUP2 MSTORE ADD SWAP1 JUMP JUMPDEST SWAP2 PUSH2 0x38EE DUP4 PUSH1 0x0 MSTORE PUSH1 0x4 PUSH1 0x20 MSTORE PUSH1 0x40 PUSH1 0x0 KECCAK256 SWAP1 JUMP JUMPDEST SLOAD SWAP1 PUSH2 0x38FB DUP3 ISZERO ISZERO PUSH2 0x37F9 JUMP JUMPDEST DUP1 MLOAD PUSH2 0x3A8D JUMPI POP PUSH32 0x50348C1AF87D1D2E61E0A7E9BF83A9C67F047D8DE73BE6B88ACAC8655A97581E SWAP2 PUSH2 0x3308 SWAP2 PUSH2 0x3939 PUSH2 0x3933 PUSH2 0x3856 JUMP JUMPDEST DUP4 PUSH2 0x44BF JUMP JUMPDEST PUSH2 0x394D DUP3 PUSH1 0x0 MSTORE PUSH1 0x3 PUSH1 0x20 MSTORE PUSH1 0x40 PUSH1 0x0 KECCAK256 SWAP1 JUMP JUMPDEST PUSH1 0x5 DUP2 ADD DUP1 SLOAD PUSH1 0xFF NOT AND PUSH1 0x1 OR DUP2 SSTORE SWAP2 ISZERO PUSH2 0x3A41 JUMPI PUSH2 0x39D2 PUSH32 0x6DD2118914AD2B9A98780FAFD92846EEBE9361998A810F1A05F67033B17E2CDD SWAP3 PUSH1 0x4 PUSH2 0x3A03 SWAP4 PUSH2 0x399E PUSH2 0x3998 PUSH2 0x3873 JUMP JUMPDEST DUP10 PUSH2 0x468D JUMP JUMPDEST DUP1 MLOAD ISZERO PUSH2 0x3A13 JUMPI PUSH1 0x40 MLOAD PUSH2 0x39BD DUP2 PUSH2 0x28B6 DUP12 PUSH1 0x20 DUP4 ADD SWAP6 TIMESTAMP SWAP1 DUP8 PUSH2 0x3892 JUMP JUMPDEST MLOAD SWAP1 KECCAK256 SWAP4 DUP5 SWAP4 PUSH2 0x100 PUSH2 0xFF00 NOT DUP3 SLOAD AND OR SWAP1 SSTORE JUMP JUMPDEST ADD SSTORE PUSH2 0x39EB PUSH2 0x2D7C DUP3 PUSH1 0x0 MSTORE PUSH1 0xF PUSH1 0x20 MSTORE PUSH1 0x40 PUSH1 0x0 KECCAK256 SWAP1 JUMP JUMPDEST PUSH1 0x40 MLOAD SWAP2 DUP3 SWAP2 DUP3 SWAP2 SWAP1 PUSH1 0x20 PUSH1 0x40 DUP5 ADD SWAP4 PUSH1 0x1 DUP2 MSTORE ADD MSTORE JUMP JUMPDEST SUB SWAP1 LOG2 JUMPDEST PUSH1 0x40 MLOAD SWAP2 DUP3 SWAP2 DUP3 PUSH2 0x38B5 JUMP JUMPDEST POP PUSH1 0x40 MLOAD PUSH1 0x20 DUP2 ADD SWAP1 PUSH2 0x3A2C DUP2 PUSH2 0x28B6 DUP12 TIMESTAMP DUP15 DUP8 PUSH2 0x3892 JUMP JUMPDEST MLOAD SWAP1 KECCAK256 SWAP4 DUP5 SWAP4 DUP1 SLOAD PUSH2 0xFF00 NOT AND PUSH2 0x100 OR SWAP1 SSTORE JUMP JUMPDEST POP DUP1 SLOAD PUSH2 0xFF00 NOT AND SWAP1 SSTORE PUSH32 0x6DD2118914AD2B9A98780FAFD92846EEBE9361998A810F1A05F67033B17E2CDD PUSH1 0x40 MLOAD DUP1 PUSH2 0x3A85 DUP2 SWAP1 PUSH1 0x0 PUSH1 0x20 PUSH1 0x40 DUP5 ADD SWAP4 DUP3 DUP2 MSTORE ADD MSTORE JUMP JUMPDEST SUB SWAP1 LOG2 PUSH2 0x3A07 JUMP JUMPDEST PUSH32 0x8117AD48DB1A08344670D33ACDEB14D7EC953B1119DAFA9AB361E5E721D43562 SWAP3 POP PUSH2 0x3ADA PUSH1 0x5 PUSH2 0x3ACC PUSH2 0x3308 SWAP5 PUSH1 0x0 MSTORE PUSH1 0x3 PUSH1 0x20 MSTORE PUSH1 0x40 PUSH1 0x0 KECCAK256 SWAP1 JUMP JUMPDEST ADD DUP1 SLOAD PUSH1 0xFF NOT AND PUSH1 0x1 OR SWAP1 SSTORE JUMP JUMPDEST PUSH1 0x40 MLOAD SWAP2 DUP3 SWAP2 DUP3 PUSH2 0x3845 JUMP JUMPDEST DUP1 SLOAD PUSH1 0x0 SWAP2 DUP3 MSTORE PUSH1 0x20 DUP1 DUP4 KECCAK256 SWAP3 SWAP1 JUMPDEST DUP3 DUP3 LT PUSH2 0x3B03 JUMPI POP POP POP POP SWAP1 JUMP JUMPDEST DUP4 SLOAD DUP6 MSTORE SWAP4 DUP5 ADD SWAP4 PUSH1 0x1 SWAP4 DUP5 ADD SWAP4 SWAP1 SWAP2 ADD SWAP1 PUSH2 0x3AF5 JUMP JUMPDEST PUSH1 0x6 PUSH1 0xC0 PUSH2 0x3BC SWAP4 DUP1 MLOAD DUP5 SSTORE PUSH1 0x20 DUP2 ADD MLOAD PUSH1 0x1 DUP6 ADD SSTORE PUSH1 0x40 DUP2 ADD MLOAD PUSH1 0x2 DUP6 ADD SSTORE PUSH1 0x60 DUP2 ADD MLOAD PUSH1 0x3 DUP6 ADD SSTORE PUSH1 0x80 DUP2 ADD MLOAD PUSH1 0x4 DUP6 ADD SSTORE PUSH1 0xA0 DUP2 ADD MLOAD PUSH1 0x5 DUP6 ADD SSTORE ADD MLOAD ISZERO ISZERO SWAP2 ADD SWAP1 PUSH1 0xFF DUP1 NOT DUP4 SLOAD AND SWAP2 ISZERO ISZERO AND OR SWAP1 SSTORE JUMP JUMPDEST PUSH1 0x40 SWAP1 PUSH2 0x469 SWAP4 SWAP3 DUP2 MSTORE DUP2 PUSH1 0x20 DUP3 ADD MSTORE ADD SWAP1 PUSH2 0x6E2 JUMP JUMPDEST SWAP2 SWAP1 DUP2 MLOAD PUSH2 0x3D02 JUMPI PUSH32 0x788C5F43C02F6032D8146C17D8B085814337BACFF42A64ADDF4F97FFCEBDACFF SWAP2 POP PUSH2 0x3BC5 DUP4 PUSH1 0x0 MSTORE PUSH1 0x14 PUSH1 0x20 MSTORE PUSH1 0x40 PUSH1 0x0 KECCAK256 SWAP1 JUMP JUMPDEST DUP4 PUSH32 0xE72448DEE39249921F3F9C2134DC1CA195A9E3882D4B52E6C3E49C775A4A4311 PUSH2 0x3CEF DUP5 MLOAD PUSH1 0x20 DUP7 ADD KECCAK256 PUSH1 0x4 DUP6 ADD SWAP1 DUP2 SSTORE PUSH2 0x3C0C PUSH1 0xC DUP7 ADD PUSH1 0x1 PUSH1 0xFF NOT DUP3 SLOAD AND OR SWAP1 SSTORE JUMP JUMPDEST PUSH2 0x3CD7 PUSH1 0x3 DUP7 ADD SWAP6 PUSH1 0x5 DUP8 SLOAD SWAP2 PUSH2 0x3C22 DUP4 PUSH2 0x2EB2 JUMP JUMPDEST PUSH1 0x40 MLOAD PUSH1 0x20 DUP2 ADD DUP2 PUSH2 0x3C34 DUP3 DUP7 PUSH2 0x3AE6 JUMP JUMPDEST SUB SWAP2 PUSH2 0x3C48 PUSH1 0x1F NOT SWAP4 DUP5 DUP2 ADD DUP4 MSTORE DUP3 PUSH2 0x38E JUMP JUMPDEST MLOAD SWAP1 KECCAK256 DUP8 SLOAD PUSH1 0x1 DUP6 ADD SLOAD SWAP1 SWAP3 DUP13 SWAP2 PUSH2 0x3C95 SWAP2 PUSH2 0x3CA1 SWAP2 PUSH1 0x1 PUSH1 0x1 PUSH1 0xA0 SHL SUB AND PUSH1 0x40 DUP1 MLOAD PUSH1 0x20 DUP2 ADD SWAP7 DUP8 MSTORE PUSH1 0x60 SWAP3 SWAP1 SWAP3 SHL PUSH12 0xFFFFFFFFFFFFFFFFFFFFFFFF NOT AND SWAP1 DUP3 ADD MSTORE SWAP3 DUP4 SWAP1 PUSH1 0x54 DUP3 ADD SWAP1 JUMP JUMPDEST SUB SWAP1 DUP2 ADD DUP4 MSTORE DUP3 PUSH2 0x38E JUMP JUMPDEST MLOAD SWAP1 KECCAK256 SWAP3 PUSH2 0x3CAD PUSH2 0x3AF JUMP JUMPDEST SWAP7 DUP8 MSTORE PUSH1 0x20 DUP8 ADD MSTORE TIMESTAMP PUSH1 0x40 DUP8 ADD MSTORE PUSH1 0x60 DUP7 ADD MSTORE PUSH1 0x80 DUP6 ADD MSTORE PUSH1 0xA0 DUP5 ADD MSTORE PUSH1 0x1 PUSH1 0xC0 DUP5 ADD MSTORE ADD PUSH2 0x3B1A JUMP JUMPDEST SLOAD PUSH1 0x40 DUP1 MLOAD SWAP2 DUP3 MSTORE PUSH1 0x1 PUSH1 0x20 DUP4 ADD MSTORE SWAP1 SWAP2 DUP3 SWAP2 DUP3 ADD SWAP1 JUMP JUMPDEST SUB SWAP1 LOG2 SLOAD PUSH2 0x3308 PUSH1 0x40 MLOAD SWAP3 DUP4 SWAP3 DUP4 PUSH2 0x3B6F JUMP JUMPDEST POP PUSH2 0x3308 PUSH32 0x8117AD48DB1A08344670D33ACDEB14D7EC953B1119DAFA9AB361E5E721D43562 SWAP2 PUSH1 0x40 MLOAD SWAP2 DUP3 SWAP2 DUP3 PUSH2 0x3845 JUMP JUMPDEST PUSH1 0x40 SWAP1 DUP2 MLOAD SWAP1 PUSH1 0x20 SWAP1 DUP3 PUSH2 0x3D4B DUP4 DUP3 ADD DUP1 SWAP4 PUSH2 0x25DC JUMP JUMPDEST SUB SWAP3 PUSH2 0x3D5F PUSH1 0x1F NOT SWAP5 DUP6 DUP2 ADD DUP4 MSTORE DUP3 PUSH2 0x38E JUMP JUMPDEST MLOAD SWAP1 KECCAK256 SWAP3 DUP1 MLOAD DUP3 DUP2 ADD SWAP1 PUSH2 0x3D92 DUP2 PUSH2 0x3D86 DUP5 PUSH1 0x8 SWAP1 PUSH8 0x657468657265756D PUSH1 0xC0 SHL DUP2 MSTORE ADD SWAP1 JUMP JUMPDEST SUB DUP7 DUP2 ADD DUP4 MSTORE DUP3 PUSH2 0x38E JUMP JUMPDEST MLOAD SWAP1 KECCAK256 DUP5 EQ PUSH2 0x3E9F JUMPI DUP1 MLOAD PUSH8 0x617262697472756D PUSH1 0xC0 SHL DUP4 DUP3 ADD SWAP1 DUP2 MSTORE SWAP1 PUSH2 0x3DBD DUP2 PUSH1 0x8 DUP5 ADD PUSH2 0x3D86 JUMP JUMPDEST MLOAD SWAP1 KECCAK256 DUP5 EQ PUSH2 0x3E95 JUMPI DUP1 MLOAD PUSH8 0x6F7074696D69736D PUSH1 0xC0 SHL DUP4 DUP3 ADD SWAP1 DUP2 MSTORE SWAP1 PUSH2 0x3DE8 DUP2 PUSH1 0x8 DUP5 ADD PUSH2 0x3D86 JUMP JUMPDEST MLOAD SWAP1 KECCAK256 DUP5 EQ PUSH2 0x3E8C JUMPI DUP1 MLOAD PUSH4 0x62617365 PUSH1 0xE0 SHL DUP4 DUP3 ADD SWAP1 DUP2 MSTORE SWAP1 PUSH2 0x3E0F DUP2 PUSH1 0x4 DUP5 ADD PUSH2 0x3D86 JUMP JUMPDEST MLOAD SWAP1 KECCAK256 DUP5 EQ PUSH2 0x3E82 JUMPI DUP1 MLOAD PUSH7 0x3837B63CB3B7B7 PUSH1 0xC9 SHL DUP4 DUP3 ADD SWAP1 DUP2 MSTORE SWAP1 PUSH2 0x3E39 DUP2 PUSH1 0x7 DUP5 ADD PUSH2 0x3D86 JUMP JUMPDEST MLOAD SWAP1 KECCAK256 DUP5 EQ PUSH2 0x3E79 JUMPI PUSH2 0x3E66 SWAP1 MLOAD SWAP2 DUP3 ADD SWAP3 DUP3 PUSH2 0x3C95 DUP6 PUSH1 0x9 SWAP1 PUSH9 0x6176616C616E636865 PUSH1 0xB8 SHL DUP2 MSTORE ADD SWAP1 JUMP JUMPDEST MLOAD SWAP1 KECCAK256 EQ PUSH2 0x3E73 JUMPI PUSH1 0x1 SWAP1 JUMP JUMPDEST PUSH2 0xA86A SWAP1 JUMP JUMPDEST POP POP POP POP PUSH1 0x89 SWAP1 JUMP JUMPDEST POP POP POP POP PUSH2 0x2105 SWAP1 JUMP JUMPDEST POP POP POP POP PUSH1 0xA SWAP1 JUMP JUMPDEST POP POP POP POP PUSH2 0xA4B1 SWAP1 JUMP JUMPDEST POP POP POP POP PUSH1 0x1 SWAP1 JUMP JUMPDEST SWAP1 PUSH2 0x3EB2 DUP3 PUSH2 0x3F7 JUMP JUMPDEST PUSH2 0x3EBF PUSH1 0x40 MLOAD SWAP2 DUP3 PUSH2 0x38E JUMP JUMPDEST DUP3 DUP2 MSTORE DUP1 SWAP3 PUSH2 0x2B06 PUSH1 0x1F NOT SWAP2 PUSH2 0x3F7 JUMP JUMPDEST SWAP1 DUP2 MLOAD DUP2 LT ISZERO PUSH2 0x233D JUMPI ADD PUSH1 0x20 ADD SWAP1 JUMP JUMPDEST DUP1 ISZERO PUSH2 0x3F63 JUMPI PUSH1 0x0 DUP2 DUP2 DUP2 DUP1 JUMPDEST PUSH2 0x3F4B JUMPI POP PUSH2 0x3EFC DUP2 PUSH2 0x3EA8 JUMP JUMPDEST SWAP4 JUMPDEST PUSH2 0x3F08 JUMPI POP POP POP SWAP1 JUMP JUMPDEST PUSH2 0x3F11 SWAP1 PUSH2 0x20E7 JUMP JUMPDEST SWAP1 PUSH1 0xA SWAP1 PUSH2 0x3F36 PUSH2 0x3F26 PUSH2 0x3261 DUP5 DUP5 MOD PUSH2 0x2EC0 JUMP JUMPDEST PUSH1 0xF8 SHL PUSH1 0x1 PUSH1 0x1 PUSH1 0xF8 SHL SUB NOT AND SWAP1 JUMP JUMPDEST DUP5 BYTE PUSH2 0x3F42 DUP5 DUP8 PUSH2 0x3ED0 JUMP JUMPDEST MSTORE8 DIV SWAP1 DUP2 PUSH2 0x3EFE JUMP JUMPDEST SWAP2 POP PUSH2 0x3F58 PUSH1 0xA SWAP2 PUSH2 0x216D JUMP JUMPDEST SWAP2 DIV DUP1 DUP5 SWAP3 SWAP2 PUSH2 0x3EEE JUMP JUMPDEST POP PUSH1 0x40 MLOAD PUSH2 0x3F70 DUP2 PUSH2 0x33D JUMP JUMPDEST PUSH1 0x1 DUP2 MSTORE PUSH1 0x3 PUSH1 0xFC SHL PUSH1 0x20 DUP3 ADD MSTORE SWAP1 JUMP JUMPDEST DUP2 MLOAD ISZERO PUSH2 0x3F8E JUMPI PUSH1 0xA0 ADD MSTORE JUMP JUMPDEST PUSH1 0x40 MLOAD PUSH4 0xFE936CB7 PUSH1 0xE0 SHL DUP2 MSTORE PUSH1 0x4 SWAP1 REVERT JUMPDEST PUSH1 0x40 MLOAD SWAP1 PUSH2 0x3FAD DUP3 PUSH2 0x33D JUMP JUMPDEST PUSH1 0xC DUP3 MSTORE PUSH12 0x31B7B232A637B1B0BA34B7B7 PUSH1 0xA1 SHL PUSH1 0x20 DUP4 ADD MSTORE JUMP JUMPDEST PUSH4 0x4E487B71 PUSH1 0xE0 SHL PUSH1 0x0 MSTORE PUSH1 0x21 PUSH1 0x4 MSTORE PUSH1 0x24 PUSH1 0x0 REVERT JUMPDEST PUSH1 0x3 GT ISZERO PUSH2 0x3FE8 JUMPI JUMP JUMPDEST PUSH2 0x3FC8 JUMP JUMPDEST PUSH1 0x40 MLOAD SWAP1 PUSH2 0x3FFA DUP3 PUSH2 0x33D JUMP JUMPDEST PUSH1 0x8 DUP3 MSTORE PUSH8 0x6C616E6775616765 PUSH1 0xC0 SHL PUSH1 0x20 DUP4 ADD MSTORE JUMP JUMPDEST PUSH1 0x1 GT ISZERO PUSH2 0x3FE8 JUMPI JUMP JUMPDEST PUSH1 0x40 MLOAD SWAP1 PUSH2 0x4028 DUP3 PUSH2 0x33D JUMP JUMPDEST PUSH1 0x6 DUP3 MSTORE PUSH6 0x736F75726365 PUSH1 0xD0 SHL PUSH1 0x20 DUP4 ADD MSTORE JUMP JUMPDEST PUSH1 0x40 MLOAD SWAP1 PUSH2 0x404A DUP3 PUSH2 0x33D JUMP JUMPDEST PUSH1 0x4 DUP3 MSTORE PUSH4 0x61726773 PUSH1 0xE0 SHL PUSH1 0x20 DUP4 ADD MSTORE JUMP JUMPDEST PUSH1 0x40 MLOAD SWAP1 PUSH2 0x406A DUP3 PUSH2 0x33D JUMP JUMPDEST PUSH1 0xF DUP3 MSTORE PUSH15 0x39B2B1B932BA39A637B1B0BA34B7B7 PUSH1 0x89 SHL PUSH1 0x20 DUP4 ADD MSTORE JUMP JUMPDEST PUSH1 0x40 MLOAD SWAP1 PUSH2 0x4095 DUP3 PUSH2 0x33D JUMP JUMPDEST PUSH1 0x7 DUP3 MSTORE PUSH7 0x73656372657473 PUSH1 0xC8 SHL PUSH1 0x20 DUP4 ADD MSTORE JUMP JUMPDEST PUSH1 0x40 MLOAD SWAP1 PUSH2 0x40B8 DUP3 PUSH2 0x33D JUMP JUMPDEST PUSH1 0x9 DUP3 MSTORE PUSH9 0x627974657341726773 PUSH1 0xB8 SHL PUSH1 0x20 DUP4 ADD MSTORE JUMP JUMPDEST PUSH2 0x40D8 PUSH2 0x4862 JUMP JUMPDEST SWAP1 PUSH2 0x40EA PUSH2 0x40E4 PUSH2 0x3FA0 JUMP JUMPDEST DUP4 PUSH2 0x48B2 JUMP JUMPDEST PUSH2 0x4107 DUP2 MLOAD PUSH2 0x40F8 DUP2 PUSH2 0x3FDE JUMP JUMPDEST PUSH2 0x4101 DUP2 PUSH2 0x3FDE JUMP JUMPDEST DUP4 PUSH2 0x4974 JUMP JUMPDEST PUSH2 0x4112 PUSH2 0x40E4 PUSH2 0x3FED JUMP JUMPDEST PUSH2 0x412C PUSH1 0x40 DUP3 ADD MLOAD PUSH2 0x4123 DUP2 PUSH2 0x4011 JUMP JUMPDEST PUSH2 0x4101 DUP2 PUSH2 0x4011 JUMP JUMPDEST PUSH2 0x4137 PUSH2 0x40E4 PUSH2 0x401B JUMP JUMPDEST PUSH2 0x4145 PUSH1 0x60 DUP3 ADD MLOAD DUP4 PUSH2 0x48B2 JUMP JUMPDEST PUSH1 0xA0 DUP2 ADD DUP1 MLOAD MLOAD PUSH2 0x4245 JUMPI JUMPDEST POP PUSH1 0x80 DUP2 ADD SWAP1 DUP2 MLOAD MLOAD PUSH2 0x41C5 JUMPI JUMPDEST PUSH1 0xC0 SWAP2 POP ADD DUP1 MLOAD MLOAD PUSH2 0x4172 JUMPI JUMPDEST POP MLOAD MLOAD SWAP1 JUMP JUMPDEST SWAP2 PUSH2 0x417E PUSH2 0x40E4 PUSH2 0x40AB JUMP JUMPDEST PUSH2 0x4187 DUP3 PUSH2 0x4A15 JUMP JUMPDEST PUSH1 0x0 JUMPDEST DUP4 MLOAD DUP1 MLOAD DUP3 LT ISZERO PUSH2 0x41B2 JUMPI SWAP1 PUSH2 0x41AC PUSH2 0x41A5 DUP3 PUSH1 0x1 SWAP5 PUSH2 0x2382 JUMP JUMPDEST MLOAD DUP6 PUSH2 0x4B2E JUMP JUMPDEST ADD PUSH2 0x418A JUMP JUMPDEST POP POP SWAP2 POP PUSH2 0x41BF DUP2 PUSH2 0x4AA1 JUMP JUMPDEST CODESIZE PUSH2 0x416C JUMP JUMPDEST PUSH1 0x20 DUP2 ADD DUP1 MLOAD PUSH2 0x41D4 DUP2 PUSH2 0x3FDE JUMP JUMPDEST PUSH2 0x41DD DUP2 PUSH2 0x3FDE JUMP JUMPDEST ISZERO PUSH2 0x4233 JUMPI PUSH1 0xC0 SWAP3 PUSH2 0x4216 PUSH2 0x422E SWAP3 PUSH2 0x41FD PUSH2 0x41F7 PUSH2 0x405D JUMP JUMPDEST DUP9 PUSH2 0x48B2 JUMP JUMPDEST MLOAD PUSH2 0x4207 DUP2 PUSH2 0x3FDE JUMP JUMPDEST PUSH2 0x4210 DUP2 PUSH2 0x3FDE JUMP JUMPDEST DUP7 PUSH2 0x4974 JUMP JUMPDEST PUSH2 0x4227 PUSH2 0x4221 PUSH2 0x4088 JUMP JUMPDEST DUP7 PUSH2 0x48B2 JUMP JUMPDEST MLOAD DUP5 PUSH2 0x4B2E JUMP JUMPDEST PUSH2 0x415F JUMP JUMPDEST PUSH1 0x40 MLOAD PUSH4 0xA80D31F7 PUSH1 0xE0 SHL DUP2 MSTORE PUSH1 0x4 SWAP1 REVERT JUMPDEST SWAP3 PUSH2 0x4257 PUSH2 0x4251 PUSH2 0x403D JUMP JUMPDEST DUP5 PUSH2 0x48B2 JUMP JUMPDEST PUSH2 0x4260 DUP4 PUSH2 0x4A15 JUMP JUMPDEST PUSH1 0x0 JUMPDEST DUP5 MLOAD DUP1 MLOAD DUP3 LT ISZERO PUSH2 0x428B JUMPI SWAP1 PUSH2 0x4285 PUSH2 0x427E DUP3 PUSH1 0x1 SWAP5 PUSH2 0x2382 JUMP JUMPDEST MLOAD DUP7 PUSH2 0x48B2 JUMP JUMPDEST ADD PUSH2 0x4263 JUMP JUMPDEST POP POP SWAP3 POP PUSH2 0x4298 DUP3 PUSH2 0x4AA1 JUMP JUMPDEST CODESIZE PUSH2 0x4151 JUMP JUMPDEST SWAP3 SWAP1 PUSH1 0x20 SWAP3 PUSH1 0x1 PUSH1 0x1 PUSH1 0x40 SHL SUB SWAP3 PUSH4 0xFFFFFFFF PUSH2 0x42DD PUSH1 0x40 MLOAD SWAP8 DUP9 SWAP7 DUP8 SWAP7 PUSH4 0x230E93B1 PUSH1 0xE1 SHL DUP9 MSTORE AND PUSH1 0x4 DUP8 ADD MSTORE PUSH1 0xA0 PUSH1 0x24 DUP8 ADD MSTORE PUSH1 0xA4 DUP7 ADD SWAP1 PUSH2 0x6E2 JUMP JUMPDEST PUSH1 0x1 PUSH1 0x44 DUP7 ADD MSTORE SWAP3 AND PUSH1 0x64 DUP5 ADD MSTORE PUSH1 0x84 DUP4 ADD MSTORE SUB DUP2 PUSH1 0x0 PUSH32 0x0 PUSH1 0x1 PUSH1 0x1 PUSH1 0xA0 SHL SUB AND GAS CALL SWAP1 DUP2 ISZERO PUSH2 0x14C5 JUMPI PUSH1 0x0 SWAP2 PUSH2 0x4359 JUMPI JUMPDEST POP DUP1 PUSH32 0x1131472297A800FEE664D1D89CFA8F7676FF07189ECC53F80BBB5F4969099DB8 PUSH1 0x0 DUP1 LOG2 SWAP1 JUMP JUMPDEST PUSH2 0x4372 SWAP2 POP PUSH1 0x20 RETURNDATASIZE PUSH1 0x20 GT PUSH2 0x14BE JUMPI PUSH2 0x14B6 DUP2 DUP4 PUSH2 0x38E JUMP JUMPDEST CODESIZE PUSH2 0x432F JUMP JUMPDEST PUSH1 0x40 MLOAD SWAP1 PUSH4 0x125FA267 PUSH1 0xE3 SHL PUSH1 0x20 DUP4 ADD MSTORE MLOAD ISZERO ISZERO PUSH1 0x24 DUP3 ADD MSTORE PUSH1 0x24 DUP2 MSTORE PUSH1 0x60 DUP2 ADD DUP2 DUP2 LT PUSH1 0x1 PUSH1 0x1 PUSH1 0x40 SHL SUB DUP3 GT OR PUSH2 0x338 JUMPI PUSH1 0x40 MSTORE SWAP1 JUMP JUMPDEST SWAP3 SWAP1 SWAP2 PUSH2 0x43BC PUSH2 0x3090 JUMP JUMPDEST SWAP3 DUP1 MLOAD ISZERO PUSH2 0x44AD JUMPI DUP4 PUSH2 0x32BA PUSH2 0x445C SWAP4 PUSH2 0x4449 PUSH2 0x3308 SWAP7 PUSH2 0x32BF SWAP6 PUSH1 0x0 PUSH32 0x89652D00E157965D54F5AD31AF9352416C4E90B879711EC122680D4E3A1DE9A6 SWAP11 MSTORE PUSH1 0x0 PUSH1 0x40 DUP8 ADD MSTORE PUSH1 0x60 DUP7 ADD MSTORE PUSH2 0x4436 PUSH2 0x4413 PUSH2 0x30FB JUMP JUMPDEST SWAP4 PUSH2 0x441D DUP13 PUSH2 0x3EE1 JUMP JUMPDEST PUSH2 0x4426 DUP7 PUSH2 0x2330 JUMP JUMPDEST MSTORE PUSH2 0x4430 DUP6 PUSH2 0x2330 JUMP JUMPDEST POP PUSH2 0x3EE1 JUMP JUMPDEST PUSH2 0x443F DUP5 PUSH2 0x2342 JUMP JUMPDEST MSTORE PUSH2 0x4430 DUP4 PUSH2 0x2342 JUMP JUMPDEST PUSH2 0x4452 DUP3 PUSH2 0x2352 JUMP JUMPDEST MSTORE PUSH2 0x32B3 DUP2 PUSH2 0x2352 JUMP JUMPDEST SWAP3 PUSH2 0x4466 DUP2 PUSH2 0x2ECE JUMP JUMPDEST PUSH2 0x447A DUP6 PUSH1 0x0 MSTORE PUSH1 0x4 PUSH1 0x20 MSTORE PUSH1 0x40 PUSH1 0x0 KECCAK256 SWAP1 JUMP JUMPDEST SSTORE PUSH1 0x40 MLOAD SWAP2 DUP3 SWAP2 DUP3 SWAP2 SWAP1 PUSH1 0x40 DUP4 MSTORE PUSH1 0xA PUSH1 0x40 DUP5 ADD MSTORE PUSH10 0xDCDEECC25AC4C2E8C6D PUSH1 0xB3 SHL PUSH1 0x60 DUP5 ADD MSTORE PUSH1 0x20 PUSH1 0x80 DUP5 ADD SWAP4 ADD MSTORE JUMP JUMPDEST PUSH1 0x40 MLOAD PUSH4 0x22CE3EDD PUSH1 0xE0 SHL DUP2 MSTORE PUSH1 0x4 SWAP1 REVERT JUMPDEST PUSH1 0x40 MLOAD PUSH1 0x11 PUSH1 0xF9 SHL PUSH1 0x20 DUP3 ADD MSTORE DUP1 PUSH2 0x44EF PUSH2 0x44DD PUSH1 0x21 DUP4 ADD DUP7 PUSH2 0x25DC JUMP JUMPDEST PUSH6 0x223A74727565 PUSH1 0xD0 SHL DUP2 MSTORE PUSH1 0x6 ADD SWAP1 JUMP JUMPDEST SUB SWAP2 PUSH2 0x4503 PUSH1 0x1F NOT SWAP4 DUP5 DUP2 ADD DUP5 MSTORE DUP4 PUSH2 0x38E JUMP JUMPDEST PUSH1 0x0 SWAP3 JUMPDEST PUSH2 0x4514 DUP3 MLOAD DUP5 MLOAD SWAP1 PUSH2 0x2105 JUMP JUMPDEST DUP5 GT PUSH2 0x45B5 JUMPI PUSH1 0x1 SWAP5 PUSH1 0x0 JUMPDEST DUP5 MLOAD DUP2 LT ISZERO PUSH2 0x45AB JUMPI PUSH2 0x454D PUSH2 0x453F PUSH2 0x4539 DUP4 DUP10 PUSH2 0x2EEB JUMP JUMPDEST DUP7 PUSH2 0x3ED0 JUMP JUMPDEST MLOAD PUSH1 0x1 PUSH1 0x1 PUSH1 0xF8 SHL SUB NOT AND SWAP1 JUMP JUMPDEST PUSH2 0x456A PUSH2 0x455D PUSH2 0x453F DUP5 DUP10 PUSH2 0x3ED0 JUMP JUMPDEST PUSH1 0x1 PUSH1 0x1 PUSH1 0xF8 SHL SUB NOT AND SWAP1 JUMP JUMPDEST PUSH1 0x1 PUSH1 0x1 PUSH1 0xF8 SHL SUB NOT SWAP1 SWAP2 AND SUB PUSH2 0x4583 JUMPI PUSH1 0x1 ADD PUSH2 0x4520 JUMP JUMPDEST POP SWAP4 SWAP1 SWAP2 SWAP5 POP PUSH1 0x0 JUMPDEST PUSH2 0x45A1 JUMPI PUSH2 0x4599 SWAP1 PUSH2 0x216D JUMP JUMPDEST SWAP3 SWAP4 SWAP1 PUSH2 0x4507 JUMP JUMPDEST POP POP POP POP POP PUSH1 0x1 SWAP1 JUMP JUMPDEST POP SWAP4 SWAP1 SWAP2 SWAP5 PUSH2 0x458C JUMP JUMPDEST PUSH1 0x40 MLOAD PUSH1 0x11 PUSH1 0xF9 SHL PUSH1 0x20 DUP3 ADD MSTORE SWAP2 SWAP5 SWAP2 SWAP4 POP PUSH2 0x45F4 SWAP3 POP SWAP1 DUP4 SWAP1 PUSH2 0x3C95 SWAP1 PUSH2 0x45E0 SWAP1 PUSH1 0x21 DUP5 ADD PUSH2 0x3228 JUMP JUMPDEST PUSH8 0x111D113A393AB291 PUSH1 0xC1 SHL DUP2 MSTORE PUSH1 0x8 ADD SWAP1 JUMP JUMPDEST PUSH1 0x0 SWAP1 JUMPDEST PUSH2 0x4605 DUP4 MLOAD DUP3 MLOAD SWAP1 PUSH2 0x2105 JUMP JUMPDEST DUP3 GT PUSH2 0x4685 JUMPI PUSH1 0x1 SWAP3 PUSH1 0x0 JUMPDEST DUP3 MLOAD DUP2 LT ISZERO PUSH2 0x467B JUMPI PUSH2 0x4630 PUSH2 0x453F PUSH2 0x462A DUP4 DUP8 PUSH2 0x2EEB JUMP JUMPDEST DUP5 PUSH2 0x3ED0 JUMP JUMPDEST PUSH2 0x4640 PUSH2 0x455D PUSH2 0x453F DUP5 DUP8 PUSH2 0x3ED0 JUMP JUMPDEST PUSH1 0x1 PUSH1 0x1 PUSH1 0xF8 SHL SUB NOT SWAP1 SWAP2 AND SUB PUSH2 0x4659 JUMPI PUSH1 0x1 ADD PUSH2 0x4611 JUMP JUMPDEST POP SWAP3 POP SWAP1 PUSH1 0x0 JUMPDEST PUSH2 0x4673 JUMPI PUSH2 0x466D SWAP1 PUSH2 0x216D JUMP JUMPDEST SWAP1 PUSH2 0x45F8 JUMP JUMPDEST POP POP POP PUSH1 0x1 SWAP1 JUMP JUMPDEST POP SWAP3 SWAP2 SWAP1 SWAP2 PUSH2 0x4660 JUMP JUMPDEST POP POP POP PUSH1 0x0 SWAP1 JUMP JUMPDEST SWAP2 PUSH2 0x46D0 PUSH2 0x46B3 SWAP3 PUSH2 0x46C2 PUSH1 0x40 MLOAD SWAP5 DUP6 SWAP3 PUSH2 0x3228 PUSH1 0x20 DUP6 ADD PUSH1 0x1 SWAP1 PUSH1 0x11 PUSH1 0xF9 SHL DUP2 MSTORE ADD SWAP1 JUMP JUMPDEST PUSH3 0x111D11 PUSH1 0xE9 SHL DUP2 MSTORE PUSH1 0x3 ADD SWAP1 JUMP JUMPDEST SUB PUSH1 0x1F NOT DUP2 ADD DUP5 MSTORE DUP4 PUSH2 0x38E JUMP JUMPDEST PUSH1 0x0 SWAP1 JUMPDEST PUSH2 0x46E1 DUP5 MLOAD DUP5 MLOAD SWAP1 PUSH2 0x2105 JUMP JUMPDEST DUP3 GT PUSH2 0x4825 JUMPI PUSH1 0x1 SWAP3 PUSH1 0x0 JUMPDEST DUP2 MLOAD DUP2 LT ISZERO PUSH2 0x481B JUMPI PUSH2 0x470C PUSH2 0x453F PUSH2 0x4706 DUP4 DUP8 PUSH2 0x2EEB JUMP JUMPDEST DUP9 PUSH2 0x3ED0 JUMP JUMPDEST PUSH2 0x471C PUSH2 0x455D PUSH2 0x453F DUP5 DUP7 PUSH2 0x3ED0 JUMP JUMPDEST PUSH1 0x1 PUSH1 0x1 PUSH1 0xF8 SHL SUB NOT SWAP1 SWAP2 AND SUB PUSH2 0x4735 JUMPI PUSH1 0x1 ADD PUSH2 0x46ED JUMP JUMPDEST POP SWAP3 POP SWAP1 PUSH1 0x0 JUMPDEST PUSH2 0x4750 JUMPI JUMPDEST PUSH2 0x474A SWAP1 PUSH2 0x216D JUMP JUMPDEST SWAP1 PUSH2 0x46D4 JUMP JUMPDEST SWAP1 PUSH2 0x475C DUP4 MLOAD DUP4 PUSH2 0x2EEB JUMP JUMPDEST SWAP3 DUP4 JUMPDEST DUP6 MLOAD DUP2 LT DUP1 PUSH2 0x47F7 JUMPI JUMPDEST ISZERO PUSH2 0x477C JUMPI PUSH2 0x4777 SWAP1 PUSH2 0x216D JUMP JUMPDEST PUSH2 0x475F JUMP JUMPDEST SWAP1 SWAP4 SWAP3 SWAP2 SWAP3 DUP1 DUP3 GT PUSH2 0x478F JUMPI POP POP PUSH2 0x4741 JUMP JUMPDEST SWAP2 POP SWAP3 POP PUSH2 0x47A5 PUSH2 0x47A0 DUP3 DUP6 PUSH2 0x2105 JUMP JUMPDEST PUSH2 0x3EA8 JUMP JUMPDEST SWAP2 PUSH1 0x0 JUMPDEST PUSH2 0x47B3 DUP4 DUP7 PUSH2 0x2105 JUMP JUMPDEST DUP2 LT ISZERO PUSH2 0x47EE JUMPI DUP3 PUSH1 0x1 DUP3 PUSH2 0x47D7 PUSH2 0x453F PUSH2 0x47D1 PUSH2 0x47B3 SWAP7 DUP7 PUSH2 0x2EEB JUMP JUMPDEST DUP12 PUSH2 0x3ED0 JUMP JUMPDEST PUSH1 0x0 BYTE PUSH2 0x47E4 DUP3 DUP10 PUSH2 0x3ED0 JUMP JUMPDEST MSTORE8 ADD SWAP2 POP POP PUSH2 0x47A9 JUMP JUMPDEST POP SWAP4 POP POP SWAP1 POP SWAP1 JUMP JUMPDEST POP PUSH1 0x11 PUSH1 0xF9 SHL PUSH1 0x1 PUSH1 0x1 PUSH1 0xF8 SHL SUB NOT PUSH2 0x4813 PUSH2 0x453F DUP5 DUP11 PUSH2 0x3ED0 JUMP JUMPDEST AND EQ ISZERO PUSH2 0x4769 JUMP JUMPDEST POP SWAP3 SWAP2 SWAP1 SWAP2 PUSH2 0x473C JUMP JUMPDEST SWAP3 POP POP POP PUSH2 0x469 PUSH2 0x29D5 JUMP JUMPDEST DUP2 MLOAD ISZERO PUSH2 0x44AD JUMPI PUSH1 0x0 DUP1 DUP3 MSTORE PUSH1 0x40 DUP3 ADD MSTORE PUSH1 0x60 ADD MSTORE JUMP JUMPDEST PUSH1 0x40 MLOAD SWAP1 PUSH2 0x4855 DUP3 PUSH2 0x33D JUMP JUMPDEST PUSH1 0x0 PUSH1 0x20 DUP4 PUSH1 0x60 DUP2 MSTORE ADD MSTORE JUMP JUMPDEST PUSH1 0x40 MLOAD PUSH2 0x486E DUP2 PUSH2 0x33D JUMP JUMPDEST PUSH2 0x4876 PUSH2 0x4848 JUMP JUMPDEST DUP1 DUP3 MSTORE PUSH1 0x20 DUP3 ADD PUSH1 0x0 DUP2 MSTORE PUSH2 0x4889 PUSH2 0x4848 JUMP JUMPDEST POP PUSH2 0x100 PUSH1 0x20 DUP4 ADD MSTORE PUSH1 0x40 MLOAD DUP1 SWAP3 MSTORE PUSH1 0x0 DUP3 MSTORE PUSH2 0x120 DUP3 ADD SWAP2 DUP3 LT PUSH2 0x449 JUMPI PUSH1 0x0 SWAP2 PUSH1 0x40 MSTORE MSTORE SWAP1 JUMP JUMPDEST DUP2 MLOAD PUSH2 0x48F6 SWAP3 SWAP2 SWAP1 PUSH1 0x1 PUSH1 0x1 PUSH1 0x40 SHL SUB DUP2 AND SWAP1 PUSH1 0x17 DUP3 GT PUSH2 0x48F9 JUMPI PUSH2 0x48E1 SWAP2 POP PUSH1 0x60 PUSH1 0xFF DUP5 MLOAD SWAP3 AND OR SWAP1 PUSH2 0x4FFC JUMP JUMPDEST POP JUMPDEST MLOAD SWAP1 PUSH2 0x48ED PUSH2 0x4848 JUMP JUMPDEST POP DUP1 MLOAD SWAP2 PUSH2 0x522C JUMP JUMPDEST POP JUMP JUMPDEST POP PUSH1 0xFF DUP2 GT PUSH2 0x491E JUMPI PUSH2 0x4918 SWAP1 PUSH2 0x4910 DUP4 MLOAD PUSH2 0x4E03 JUMP JUMPDEST POP DUP3 MLOAD PUSH2 0x51B8 JUMP JUMPDEST POP PUSH2 0x48E3 JUMP JUMPDEST PUSH2 0xFFFF DUP2 GT PUSH2 0x493D JUMPI PUSH2 0x4918 SWAP1 PUSH2 0x4935 DUP4 MLOAD PUSH2 0x4D9E JUMP JUMPDEST POP DUP3 MLOAD PUSH2 0x514A JUMP JUMPDEST PUSH4 0xFFFFFFFF DUP2 GT PUSH2 0x495E JUMPI PUSH2 0x4918 SWAP1 PUSH2 0x4956 DUP4 MLOAD PUSH2 0x4D39 JUMP JUMPDEST POP DUP3 MLOAD PUSH2 0x50DA JUMP JUMPDEST PUSH2 0x4918 SWAP1 PUSH2 0x496C DUP4 MLOAD PUSH2 0x4CC9 JUMP JUMPDEST POP DUP3 MLOAD PUSH2 0x5067 JUMP JUMPDEST SWAP1 DUP2 MLOAD SWAP2 PUSH2 0x4980 PUSH2 0x4848 JUMP JUMPDEST POP DUP3 MLOAD MLOAD PUSH1 0x1 DUP2 ADD SWAP1 DUP2 DUP2 GT PUSH2 0x544 JUMPI PUSH1 0x20 DUP6 ADD MLOAD DUP2 LT ISZERO PUSH2 0x49D9 JUMPI JUMPDEST PUSH1 0xC2 PUSH1 0x20 PUSH2 0x3BC SWAP7 MLOAD SWAP3 DUP4 ADD ADD MSTORE8 DUP1 MLOAD DUP3 GT PUSH2 0x49D1 JUMPI JUMPDEST POP POP PUSH1 0x40 MLOAD SWAP2 PUSH1 0x20 DUP4 ADD MSTORE PUSH1 0x20 DUP3 MSTORE PUSH2 0x49CC DUP3 PUSH2 0x33D JUMP JUMPDEST PUSH2 0x4B2E JUMP JUMPDEST MSTORE CODESIZE DUP1 PUSH2 0x49B4 JUMP JUMPDEST DUP2 PUSH1 0x1 SHL SWAP5 DUP3 DUP7 DIV PUSH1 0x2 EQ DUP4 ISZERO OR ISZERO PUSH2 0x544 JUMPI PUSH1 0x20 DUP2 PUSH2 0x4A0B PUSH2 0x3BC SWAP9 PUSH2 0x4A04 PUSH1 0xC2 SWAP6 MLOAD SWAP2 DUP5 PUSH2 0x4BB2 JUMP JUMPDEST POP DUP3 PUSH2 0x4C04 JUMP JUMPDEST POP SWAP7 POP POP POP PUSH2 0x499D JUMP JUMPDEST DUP1 MLOAD SWAP1 PUSH2 0x4A20 PUSH2 0x4848 JUMP JUMPDEST POP DUP2 MLOAD MLOAD PUSH1 0x1 DUP2 ADD SWAP1 DUP2 DUP2 GT PUSH2 0x544 JUMPI PUSH1 0x20 DUP5 ADD MLOAD DUP2 LT ISZERO PUSH2 0x4A6E JUMPI JUMPDEST PUSH1 0x9F PUSH1 0x20 DUP1 SWAP6 MLOAD SWAP3 DUP4 ADD ADD MSTORE8 DUP1 MLOAD DUP3 GT PUSH2 0x4A66 JUMPI JUMPDEST POP POP ADD DUP1 MLOAD SWAP1 PUSH1 0x1 DUP3 ADD DUP1 SWAP3 GT PUSH2 0x544 JUMPI MSTORE JUMP JUMPDEST MSTORE CODESIZE DUP1 PUSH2 0x4A52 JUMP JUMPDEST DUP2 PUSH1 0x1 SHL SWAP4 DUP3 DUP6 DIV PUSH1 0x2 EQ DUP4 ISZERO OR ISZERO PUSH2 0x544 JUMPI PUSH1 0x20 DUP2 PUSH2 0x4A97 DUP3 SWAP8 PUSH2 0x4A04 PUSH1 0x9F SWAP6 MLOAD SWAP2 DUP5 PUSH2 0x4BB2 JUMP JUMPDEST POP SWAP6 POP POP POP PUSH2 0x4A3D JUMP JUMPDEST DUP1 MLOAD SWAP1 PUSH2 0x4AAC PUSH2 0x4848 JUMP JUMPDEST POP DUP2 MLOAD MLOAD PUSH1 0x1 DUP2 ADD SWAP1 DUP2 DUP2 GT PUSH2 0x544 JUMPI PUSH1 0x20 DUP5 ADD MLOAD DUP2 LT ISZERO PUSH2 0x4AFB JUMPI JUMPDEST PUSH1 0xFF PUSH1 0x20 DUP1 SWAP6 MLOAD SWAP3 DUP4 ADD ADD MSTORE8 DUP1 MLOAD DUP3 GT PUSH2 0x4AF3 JUMPI JUMPDEST POP POP ADD DUP1 MLOAD PUSH1 0x0 NOT DUP2 ADD SWAP2 SWAP1 DUP3 GT PUSH2 0x544 JUMPI MSTORE JUMP JUMPDEST MSTORE CODESIZE DUP1 PUSH2 0x4ADE JUMP JUMPDEST DUP2 PUSH1 0x1 SHL SWAP4 DUP3 DUP6 DIV PUSH1 0x2 EQ DUP4 ISZERO OR ISZERO PUSH2 0x544 JUMPI PUSH1 0x20 DUP2 PUSH2 0x4B24 DUP3 SWAP8 PUSH2 0x4A04 PUSH1 0xFF SWAP6 MLOAD SWAP2 DUP5 PUSH2 0x4BB2 JUMP JUMPDEST POP SWAP6 POP POP POP PUSH2 0x4AC9 JUMP JUMPDEST DUP2 MLOAD PUSH2 0x48F6 SWAP3 SWAP2 SWAP1 PUSH1 0x1 PUSH1 0x1 PUSH1 0x40 SHL SUB DUP2 AND SWAP1 PUSH1 0x17 DUP3 GT PUSH2 0x4B5D JUMPI PUSH2 0x48E1 SWAP2 POP PUSH1 0x40 PUSH1 0xFF DUP5 MLOAD SWAP3 AND OR SWAP1 PUSH2 0x4FFC JUMP JUMPDEST POP PUSH1 0xFF DUP2 GT PUSH2 0x4B74 JUMPI PUSH2 0x4918 SWAP1 PUSH2 0x4910 DUP4 MLOAD PUSH2 0x4F97 JUMP JUMPDEST PUSH2 0xFFFF DUP2 GT PUSH2 0x4B8B JUMPI PUSH2 0x4918 SWAP1 PUSH2 0x4935 DUP4 MLOAD PUSH2 0x4F32 JUMP JUMPDEST PUSH4 0xFFFFFFFF DUP2 GT PUSH2 0x4BA4 JUMPI PUSH2 0x4918 SWAP1 PUSH2 0x4956 DUP4 MLOAD PUSH2 0x4ECD JUMP JUMPDEST PUSH2 0x4918 SWAP1 PUSH2 0x496C DUP4 MLOAD PUSH2 0x4E68 JUMP JUMPDEST SWAP1 PUSH2 0x4BBB PUSH2 0x4848 JUMP JUMPDEST POP PUSH1 0x1F DUP2 AND DUP1 PUSH2 0x4BEA JUMPI JUMPDEST POP DUP1 PUSH1 0x20 DUP4 ADD MSTORE PUSH1 0x40 MLOAD SWAP1 DUP2 DUP4 MSTORE PUSH1 0x0 DUP3 MSTORE DUP2 ADD PUSH1 0x20 ADD SWAP1 DUP2 LT PUSH2 0x449 JUMPI PUSH1 0x40 MSTORE SWAP1 JUMP JUMPDEST PUSH1 0x20 SUB PUSH1 0x20 DUP2 GT PUSH2 0x544 JUMPI DUP2 ADD DUP1 SWAP2 GT PUSH2 0x544 JUMPI CODESIZE PUSH2 0x4BC6 JUMP JUMPDEST SWAP1 PUSH2 0x4C0D PUSH2 0x4848 JUMP JUMPDEST POP DUP1 MLOAD SWAP1 PUSH2 0x4C19 PUSH2 0x4848 JUMP JUMPDEST POP PUSH2 0x4C27 DUP2 MLOAD DUP4 GT ISZERO PUSH2 0x5225 JUMP JUMPDEST DUP3 MLOAD MLOAD SWAP2 PUSH2 0x4C35 DUP2 DUP5 PUSH2 0x2EEB JUMP JUMPDEST PUSH1 0x20 SWAP3 PUSH1 0x20 DUP7 ADD MLOAD DUP3 GT PUSH2 0x4CB2 JUMPI JUMPDEST PUSH1 0x20 SWAP2 DUP7 MLOAD DUP4 DUP2 MLOAD SWAP8 DUP3 ADD ADD SWAP7 DUP3 GT PUSH2 0x4CAA JUMPI JUMPDEST POP POP ADD SWAP2 JUMPDEST DUP1 DUP3 LT ISZERO PUSH2 0x4C82 JUMPI POP PUSH1 0x0 NOT SWAP1 PUSH1 0x20 SUB PUSH2 0x100 EXP ADD SWAP1 DUP2 NOT SWAP1 MLOAD AND SWAP1 DUP3 MLOAD AND OR SWAP1 MSTORE SWAP1 JUMP JUMPDEST SWAP1 SWAP2 SWAP3 PUSH2 0x4C9E PUSH2 0x4C98 PUSH2 0x4CA4 SWAP3 DUP7 MLOAD DUP2 MSTORE PUSH2 0x2EDD JUMP JUMPDEST SWAP5 PUSH2 0x2EDD JUMP JUMPDEST SWAP3 PUSH2 0x20F6 JUMP JUMPDEST SWAP1 PUSH2 0x4C5D JUMP JUMPDEST MSTORE CODESIZE DUP1 PUSH2 0x4C58 JUMP JUMPDEST PUSH2 0x4CC4 PUSH2 0x4CBE DUP4 PUSH2 0x254C JUMP JUMPDEST DUP8 PUSH2 0x52D8 JUMP JUMPDEST PUSH2 0x4C44 JUMP JUMPDEST PUSH2 0x4CD1 PUSH2 0x4848 JUMP JUMPDEST POP DUP1 MLOAD MLOAD PUSH1 0x1 DUP2 ADD SWAP1 DUP2 DUP2 GT PUSH2 0x544 JUMPI PUSH1 0x20 DUP4 ADD MLOAD DUP2 LT ISZERO PUSH2 0x4D0A JUMPI JUMPDEST PUSH1 0x7B PUSH1 0x20 DUP5 MLOAD SWAP3 DUP4 ADD ADD MSTORE8 DUP1 MLOAD DUP3 GT PUSH2 0x4D06 JUMPI POP POP SWAP1 JUMP JUMPDEST MSTORE SWAP1 JUMP JUMPDEST DUP2 PUSH1 0x1 SHL DUP3 DUP2 DIV PUSH1 0x2 EQ DUP4 ISZERO OR ISZERO PUSH2 0x544 JUMPI PUSH2 0x4D33 SWAP1 PUSH2 0x4D2C DUP6 MLOAD SWAP2 DUP7 PUSH2 0x4BB2 JUMP JUMPDEST POP DUP5 PUSH2 0x4C04 JUMP JUMPDEST POP PUSH2 0x4CEE JUMP JUMPDEST PUSH2 0x4D41 PUSH2 0x4848 JUMP JUMPDEST POP DUP1 MLOAD MLOAD PUSH1 0x1 DUP2 ADD SWAP1 DUP2 DUP2 GT PUSH2 0x544 JUMPI PUSH1 0x20 DUP4 ADD MLOAD DUP2 LT ISZERO PUSH2 0x4D76 JUMPI JUMPDEST PUSH1 0x7A PUSH1 0x20 DUP5 MLOAD SWAP3 DUP4 ADD ADD MSTORE8 DUP1 MLOAD DUP3 GT PUSH2 0x4D06 JUMPI POP POP SWAP1 JUMP JUMPDEST DUP2 PUSH1 0x1 SHL DUP3 DUP2 DIV PUSH1 0x2 EQ DUP4 ISZERO OR ISZERO PUSH2 0x544 JUMPI PUSH2 0x4D98 SWAP1 PUSH2 0x4D2C DUP6 MLOAD SWAP2 DUP7 PUSH2 0x4BB2 JUMP JUMPDEST POP PUSH2 0x4D5E JUMP JUMPDEST PUSH2 0x4DA6 PUSH2 0x4848 JUMP JUMPDEST POP DUP1 MLOAD MLOAD PUSH1 0x1 DUP2 ADD SWAP1 DUP2 DUP2 GT PUSH2 0x544 JUMPI PUSH1 0x20 DUP4 ADD MLOAD DUP2 LT ISZERO PUSH2 0x4DDB JUMPI JUMPDEST PUSH1 0x79 PUSH1 0x20 DUP5 MLOAD SWAP3 DUP4 ADD ADD MSTORE8 DUP1 MLOAD DUP3 GT PUSH2 0x4D06 JUMPI POP POP SWAP1 JUMP JUMPDEST DUP2 PUSH1 0x1 SHL DUP3 DUP2 DIV PUSH1 0x2 EQ DUP4 ISZERO OR ISZERO PUSH2 0x544 JUMPI PUSH2 0x4DFD SWAP1 PUSH2 0x4D2C DUP6 MLOAD SWAP2 DUP7 PUSH2 0x4BB2 JUMP JUMPDEST POP PUSH2 0x4DC3 JUMP JUMPDEST PUSH2 0x4E0B PUSH2 0x4848 JUMP JUMPDEST POP DUP1 MLOAD MLOAD PUSH1 0x1 DUP2 ADD SWAP1 DUP2 DUP2 GT PUSH2 0x544 JUMPI PUSH1 0x20 DUP4 ADD MLOAD DUP2 LT ISZERO PUSH2 0x4E40 JUMPI JUMPDEST PUSH1 0x78 PUSH1 0x20 DUP5 MLOAD SWAP3 DUP4 ADD ADD MSTORE8 DUP1 MLOAD DUP3 GT PUSH2 0x4D06 JUMPI POP POP SWAP1 JUMP JUMPDEST DUP2 PUSH1 0x1 SHL DUP3 DUP2 DIV PUSH1 0x2 EQ DUP4 ISZERO OR ISZERO PUSH2 0x544 JUMPI PUSH2 0x4E62 SWAP1 PUSH2 0x4D2C DUP6 MLOAD SWAP2 DUP7 PUSH2 0x4BB2 JUMP JUMPDEST POP PUSH2 0x4E28 JUMP JUMPDEST PUSH2 0x4E70 PUSH2 0x4848 JUMP JUMPDEST POP DUP1 MLOAD MLOAD PUSH1 0x1 DUP2 ADD SWAP1 DUP2 DUP2 GT PUSH2 0x544 JUMPI PUSH1 0x20 DUP4 ADD MLOAD DUP2 LT ISZERO PUSH2 0x4EA5 JUMPI JUMPDEST PUSH1 0x5B PUSH1 0x20 DUP5 MLOAD SWAP3 DUP4 ADD ADD MSTORE8 DUP1 MLOAD DUP3 GT PUSH2 0x4D06 JUMPI POP POP SWAP1 JUMP JUMPDEST DUP2 PUSH1 0x1 SHL DUP3 DUP2 DIV PUSH1 0x2 EQ DUP4 ISZERO OR ISZERO PUSH2 0x544 JUMPI PUSH2 0x4EC7 SWAP1 PUSH2 0x4D2C DUP6 MLOAD SWAP2 DUP7 PUSH2 0x4BB2 JUMP JUMPDEST POP PUSH2 0x4E8D JUMP JUMPDEST PUSH2 0x4ED5 PUSH2 0x4848 JUMP JUMPDEST POP DUP1 MLOAD MLOAD PUSH1 0x1 DUP2 ADD SWAP1 DUP2 DUP2 GT PUSH2 0x544 JUMPI PUSH1 0x20 DUP4 ADD MLOAD DUP2 LT ISZERO PUSH2 0x4F0A JUMPI JUMPDEST PUSH1 0x5A PUSH1 0x20 DUP5 MLOAD SWAP3 DUP4 ADD ADD MSTORE8 DUP1 MLOAD DUP3 GT PUSH2 0x4D06 JUMPI POP POP SWAP1 JUMP JUMPDEST DUP2 PUSH1 0x1 SHL DUP3 DUP2 DIV PUSH1 0x2 EQ DUP4 ISZERO OR ISZERO PUSH2 0x544 JUMPI PUSH2 0x4F2C SWAP1 PUSH2 0x4D2C DUP6 MLOAD SWAP2 DUP7 PUSH2 0x4BB2 JUMP JUMPDEST POP PUSH2 0x4EF2 JUMP JUMPDEST PUSH2 0x4F3A PUSH2 0x4848 JUMP JUMPDEST POP DUP1 MLOAD MLOAD PUSH1 0x1 DUP2 ADD SWAP1 DUP2 DUP2 GT PUSH2 0x544 JUMPI PUSH1 0x20 DUP4 ADD MLOAD DUP2 LT ISZERO PUSH2 0x4F6F JUMPI JUMPDEST PUSH1 0x59 PUSH1 0x20 DUP5 MLOAD SWAP3 DUP4 ADD ADD MSTORE8 DUP1 MLOAD DUP3 GT PUSH2 0x4D06 JUMPI POP POP SWAP1 JUMP JUMPDEST DUP2 PUSH1 0x1 SHL DUP3 DUP2 DIV PUSH1 0x2 EQ DUP4 ISZERO OR ISZERO PUSH2 0x544 JUMPI PUSH2 0x4F91 SWAP1 PUSH2 0x4D2C DUP6 MLOAD SWAP2 DUP7 PUSH2 0x4BB2 JUMP JUMPDEST POP PUSH2 0x4F57 JUMP JUMPDEST PUSH2 0x4F9F PUSH2 0x4848 JUMP JUMPDEST POP DUP1 MLOAD MLOAD PUSH1 0x1 DUP2 ADD SWAP1 DUP2 DUP2 GT PUSH2 0x544 JUMPI PUSH1 0x20 DUP4 ADD MLOAD DUP2 LT ISZERO PUSH2 0x4FD4 JUMPI JUMPDEST PUSH1 0x58 PUSH1 0x20 DUP5 MLOAD SWAP3 DUP4 ADD ADD MSTORE8 DUP1 MLOAD DUP3 GT PUSH2 0x4D06 JUMPI POP POP SWAP1 JUMP JUMPDEST DUP2 PUSH1 0x1 SHL DUP3 DUP2 DIV PUSH1 0x2 EQ DUP4 ISZERO OR ISZERO PUSH2 0x544 JUMPI PUSH2 0x4FF6 SWAP1 PUSH2 0x4D2C DUP6 MLOAD SWAP2 DUP7 PUSH2 0x4BB2 JUMP JUMPDEST POP PUSH2 0x4FBC JUMP JUMPDEST SWAP1 PUSH2 0x5005 PUSH2 0x4848 JUMP JUMPDEST POP DUP2 MLOAD MLOAD PUSH1 0x1 DUP2 ADD SWAP2 DUP3 DUP3 GT PUSH2 0x544 JUMPI PUSH1 0x20 DUP5 ADD MLOAD DUP3 LT ISZERO PUSH2 0x5038 JUMPI JUMPDEST PUSH1 0x20 DUP5 MLOAD SWAP3 DUP4 ADD ADD MSTORE8 DUP1 MLOAD DUP3 GT PUSH2 0x4D06 JUMPI POP POP SWAP1 JUMP JUMPDEST DUP3 PUSH1 0x1 SHL DUP4 DUP2 DIV PUSH1 0x2 EQ DUP5 ISZERO OR ISZERO PUSH2 0x544 JUMPI PUSH2 0x5061 SWAP1 PUSH2 0x505A DUP7 MLOAD SWAP2 DUP8 PUSH2 0x4BB2 JUMP JUMPDEST POP DUP6 PUSH2 0x4C04 JUMP JUMPDEST POP PUSH2 0x5022 JUMP JUMPDEST SWAP1 PUSH2 0x5070 PUSH2 0x4848 JUMP JUMPDEST POP DUP2 MLOAD MLOAD DUP1 PUSH1 0x8 ADD SWAP2 DUP3 PUSH1 0x8 GT PUSH2 0x544 JUMPI PUSH1 0x20 DUP5 ADD MLOAD DUP4 GT PUSH2 0x50B2 JUMPI JUMPDEST PUSH1 0x8 DUP5 MLOAD SWAP3 DUP4 ADD ADD SWAP1 PUSH1 0x1 PUSH1 0x1 PUSH1 0x40 SHL SUB NOT DUP3 MLOAD AND OR SWAP1 MSTORE DUP1 MLOAD DUP3 GT PUSH2 0x4D06 JUMPI POP POP SWAP1 JUMP JUMPDEST DUP3 PUSH1 0x1 SHL DUP4 DUP2 DIV PUSH1 0x2 EQ DUP5 ISZERO OR ISZERO PUSH2 0x544 JUMPI PUSH2 0x50D4 SWAP1 PUSH2 0x505A DUP7 MLOAD SWAP2 DUP8 PUSH2 0x4BB2 JUMP JUMPDEST POP PUSH2 0x508D JUMP JUMPDEST SWAP1 PUSH2 0x50E3 PUSH2 0x4848 JUMP JUMPDEST POP DUP2 MLOAD MLOAD DUP1 PUSH1 0x4 ADD SWAP2 DUP3 PUSH1 0x4 GT PUSH2 0x544 JUMPI PUSH1 0x20 DUP5 ADD MLOAD DUP4 GT PUSH2 0x5122 JUMPI JUMPDEST PUSH1 0x4 DUP5 MLOAD SWAP3 DUP4 ADD ADD SWAP1 PUSH4 0xFFFFFFFF NOT DUP3 MLOAD AND OR SWAP1 MSTORE DUP1 MLOAD DUP3 GT PUSH2 0x4D06 JUMPI POP POP SWAP1 JUMP JUMPDEST DUP3 PUSH1 0x1 SHL DUP4 DUP2 DIV PUSH1 0x2 EQ DUP5 ISZERO OR ISZERO PUSH2 0x544 JUMPI PUSH2 0x5144 SWAP1 PUSH2 0x505A DUP7 MLOAD SWAP2 DUP8 PUSH2 0x4BB2 JUMP JUMPDEST POP PUSH2 0x5100 JUMP JUMPDEST SWAP1 PUSH2 0x5153 PUSH2 0x4848 JUMP JUMPDEST POP DUP2 MLOAD MLOAD DUP1 PUSH1 0x2 ADD SWAP2 DUP3 PUSH1 0x2 GT PUSH2 0x544 JUMPI PUSH1 0x20 DUP5 ADD MLOAD DUP4 GT PUSH2 0x5190 JUMPI JUMPDEST PUSH1 0x2 DUP5 MLOAD SWAP3 DUP4 ADD ADD SWAP1 PUSH2 0xFFFF NOT DUP3 MLOAD AND OR SWAP1 MSTORE DUP1 MLOAD DUP3 GT PUSH2 0x4D06 JUMPI POP POP SWAP1 JUMP JUMPDEST DUP3 PUSH1 0x1 SHL DUP4 DUP2 DIV PUSH1 0x2 EQ DUP5 ISZERO OR ISZERO PUSH2 0x544 JUMPI PUSH2 0x51B2 SWAP1 PUSH2 0x505A DUP7 MLOAD SWAP2 DUP8 PUSH2 0x4BB2 JUMP JUMPDEST POP PUSH2 0x5170 JUMP JUMPDEST SWAP1 PUSH2 0x51C1 PUSH2 0x4848 JUMP JUMPDEST POP DUP2 MLOAD MLOAD DUP1 PUSH1 0x1 ADD SWAP2 DUP3 PUSH1 0x1 GT PUSH2 0x544 JUMPI PUSH1 0x20 DUP5 ADD MLOAD DUP4 GT PUSH2 0x51FD JUMPI JUMPDEST PUSH1 0x1 DUP5 MLOAD SWAP3 DUP4 ADD ADD SWAP1 PUSH1 0xFF NOT DUP3 MLOAD AND OR SWAP1 MSTORE DUP1 MLOAD DUP3 GT PUSH2 0x4D06 JUMPI POP POP SWAP1 JUMP JUMPDEST DUP3 PUSH1 0x1 SHL DUP4 DUP2 DIV PUSH1 0x2 EQ DUP5 ISZERO OR ISZERO PUSH2 0x544 JUMPI PUSH2 0x521F SWAP1 PUSH2 0x505A DUP7 MLOAD SWAP2 DUP8 PUSH2 0x4BB2 JUMP JUMPDEST POP PUSH2 0x51DE JUMP JUMPDEST ISZERO PUSH2 0x449 JUMPI JUMP JUMPDEST SWAP2 SWAP1 PUSH2 0x5236 PUSH2 0x4848 JUMP JUMPDEST POP PUSH2 0x5244 DUP2 MLOAD DUP4 GT ISZERO PUSH2 0x5225 JUMP JUMPDEST DUP3 MLOAD MLOAD SWAP2 PUSH1 0x20 PUSH2 0x5254 DUP3 DUP6 PUSH2 0x2EEB JUMP JUMPDEST SWAP3 DUP2 SWAP4 DUP3 DUP8 ADD MLOAD DUP2 GT PUSH2 0x52C1 JUMPI JUMPDEST DUP7 MLOAD DUP4 DUP2 MLOAD SWAP8 DUP3 ADD ADD SWAP7 DUP3 GT PUSH2 0x52B9 JUMPI JUMPDEST POP POP ADD SWAP2 JUMPDEST DUP1 DUP3 LT ISZERO PUSH2 0x529D JUMPI POP PUSH1 0x0 NOT SWAP1 PUSH1 0x20 SUB PUSH2 0x100 EXP ADD SWAP1 DUP2 NOT SWAP1 MLOAD AND SWAP1 DUP3 MLOAD AND OR SWAP1 MSTORE SWAP1 JUMP JUMPDEST SWAP1 SWAP2 SWAP3 PUSH2 0x4C9E PUSH2 0x4C98 PUSH2 0x52B3 SWAP3 DUP7 MLOAD DUP2 MSTORE PUSH2 0x2EDD JUMP JUMPDEST SWAP1 PUSH2 0x5278 JUMP JUMPDEST MSTORE CODESIZE DUP1 PUSH2 0x5273 JUMP JUMPDEST PUSH2 0x52D3 PUSH2 0x52CD DUP3 PUSH2 0x254C JUMP JUMPDEST DUP9 PUSH2 0x52D8 JUMP JUMPDEST PUSH2 0x5262 JUMP JUMPDEST SWAP1 PUSH2 0x48F6 SWAP2 PUSH2 0x52E9 DUP2 MLOAD SWAP3 DUP3 PUSH2 0x4BB2 JUMP JUMPDEST POP PUSH2 0x4C04 JUMP INVALID 0xD7 0xB6 SWAP10 ADD SDIV PUSH18 0x9101DABEB77144F2A3385C8033ACD3AF97E9 TIMESTAMP GASPRICE PUSH10 0x5E81AD1EB5A264697066 PUSH20 0x582212209E2B1025C6535283993E3F0B414E3A0C XOR INVALID 0xE3 0xF7 0xB2 CALLDATALOAD TLOAD 0xE4 0xB5 0xC9 PUSH20 0x24500AE2B264736F6C6343000818003300000000 "},"methodIdentifiers":{"acceptOwnership()":"79ba5097","aggregateProofs(bytes[],bytes[])":"d175d81a","aggregatedProofHashes(uint256,uint256)":"39a9e4b3","authorizedCallers(address)":"536fff6c","baseZKContract()":"cf23c7a8","batchCounter()":"68233eef","checkUpkeep(bytes)":"6e04ff0d","continueRecursiveFolding(uint256)":"683dd777","contractOwner()":"ce606ee0","functionsRequestToProofId(bytes32)":"56959332","getFoldedInstance(uint256)":"fa0c7a18","getProofRequest(uint256)":"152a9526","getRecursiveProofBatch(uint256)":"84a088e5","getSubscriptionId()":"de3d9fb7","groth16Verifier()":"19c813be","handleOracleFulfillment(bytes32,bytes,bytes)":"0ca76175","initializeProofService()":"411eddd1","isStateVerified(bytes32)":"a9431f23","lastUpkeepTimestamp()":"624cffd4","maxProofsPerBatch()":"57aabcac","maxRecursionDepth()":"457b2e41","minProofsPerBatch()":"e2ecf1e2","novaVerifier()":"28606775","owner()":"8da5cb5b","performUpkeep(bytes)":"4585e33b","proofRequests(uint256)":"25825746","proofToBatch(uint256)":"10a14c40","rawFulfillRandomWords(uint256,uint256[])":"1fe543e3","recursiveProofBatches(uint256)":"223b6637","requestCounter()":"973a814e","requestProofVerification(string,uint256)":"57efe032","s_vrfCoordinator()":"9eccacf6","setAuthorizedCaller(address,bool)":"454bbd29","setCoordinator(address)":"8ea98117","setFunctionsConfig(uint64,uint32,bytes32)":"1bd6447a","setFunctionsSource(string)":"36e0025f","setProofServiceUrl(string)":"1098241b","setUpkeepInterval(uint256)":"72e4c9f6","setVRFConfig(uint256,bytes32,uint32)":"b5cce133","startNovaFolding(uint256[])":"62625bc1","transferOwnership(address)":"f2fde38b","updateRecursionParams(uint256,uint256,uint256)":"2091f938","upkeepInterval()":"5a74373c","usedNullifiers(bytes32)":"206137aa","usedProofHashes(bytes32)":"d87318b2","verifiedProofs(bytes32)":"176d80c4","verifyNovaProof(uint256,bytes)":"3f5ef0de"}}}}}