{"contracts/ZKProofAggregator.sol":{"ZKProofAggregator":{"abi":[{"inputs":[{"internalType":"address","name":"vrfCoordinator","type":"address"},{"internalType":"address","name":"functionsRouter","type":"address"},{"internalType":"uint256","name":"vrfSubscriptionId","type":"uint256"},{"internalType":"bytes32","name":"vrfKeyHash","type":"bytes32"},{"internalType":"uint64","name":"functionsSubscriptionId","type":"uint64"},{"internalType":"bytes32","name":"functionsDonId","type":"bytes32"},{"internalType":"address","name":"groth16VerifierAddress","type":"address"}],"stateMutability":"nonpayable","type":"constructor"},{"inputs":[],"name":"EmptyArgs","type":"error"},{"inputs":[],"name":"EmptySource","type":"error"},{"inputs":[],"name":"NoInlineSecrets","type":"error"},{"inputs":[{"internalType":"address","name":"have","type":"address"},{"internalType":"address","name":"want","type":"address"}],"name":"OnlyCoordinatorCanFulfill","type":"error"},{"inputs":[{"internalType":"address","name":"have","type":"address"},{"internalType":"address","name":"owner","type":"address"},{"internalType":"address","name":"coordinator","type":"address"}],"name":"OnlyOwnerOrCoordinator","type":"error"},{"inputs":[],"name":"OnlyRouterCanFulfill","type":"error"},{"inputs":[],"name":"ZeroAddress","type":"error"},{"anonymous":false,"inputs":[{"indexed":false,"internalType":"address","name":"vrfCoordinator","type":"address"}],"name":"CoordinatorSet","type":"event"},{"anonymous":false,"inputs":[{"indexed":true,"internalType":"bytes32","name":"requestId","type":"bytes32"},{"indexed":false,"internalType":"bytes","name":"error","type":"bytes"}],"name":"FunctionsRequestError","type":"event"},{"anonymous":false,"inputs":[{"indexed":true,"internalType":"bytes32","name":"requestId","type":"bytes32"},{"indexed":false,"internalType":"string","name":"sourceChain","type":"string"},{"indexed":false,"internalType":"uint256","name":"blockNumber","type":"uint256"}],"name":"FunctionsRequestSent","type":"event"},{"anonymous":false,"inputs":[{"indexed":true,"internalType":"bytes32","name":"requestId","type":"bytes32"},{"indexed":false,"internalType":"bytes","name":"proof","type":"bytes"},{"indexed":false,"internalType":"bytes","name":"publicInputs","type":"bytes"}],"name":"FunctionsResponseReceived","type":"event"},{"anonymous":false,"inputs":[{"indexed":true,"internalType":"address","name":"from","type":"address"},{"indexed":true,"internalType":"address","name":"to","type":"address"}],"name":"OwnershipTransferRequested","type":"event"},{"anonymous":false,"inputs":[{"indexed":true,"internalType":"address","name":"from","type":"address"},{"indexed":true,"internalType":"address","name":"to","type":"address"}],"name":"OwnershipTransferred","type":"event"},{"anonymous":false,"inputs":[{"indexed":true,"internalType":"uint256","name":"requestId","type":"uint256"},{"indexed":true,"internalType":"address","name":"requester","type":"address"},{"indexed":false,"internalType":"uint256","name":"blockNumber","type":"uint256"}],"name":"ProofRequested","type":"event"},{"anonymous":false,"inputs":[{"indexed":true,"internalType":"uint256","name":"requestId","type":"uint256"},{"indexed":false,"internalType":"bool","name":"isValid","type":"bool"},{"indexed":false,"internalType":"bytes32","name":"stateRoot","type":"bytes32"}],"name":"ProofVerified","type":"event"},{"anonymous":false,"inputs":[{"indexed":true,"internalType":"uint256","name":"requestId","type":"uint256"},{"indexed":false,"internalType":"uint256","name":"randomValue","type":"uint256"},{"indexed":false,"internalType":"uint256","name":"selectedBlock","type":"uint256"}],"name":"RandomnessReceived","type":"event"},{"anonymous":false,"inputs":[{"indexed":true,"internalType":"bytes32","name":"id","type":"bytes32"}],"name":"RequestFulfilled","type":"event"},{"anonymous":false,"inputs":[{"indexed":true,"internalType":"bytes32","name":"id","type":"bytes32"}],"name":"RequestSent","type":"event"},{"inputs":[],"name":"acceptOwnership","outputs":[],"stateMutability":"nonpayable","type":"function"},{"inputs":[{"internalType":"bytes[]","name":"proofs","type":"bytes[]"},{"internalType":"bytes[]","name":"publicInputsArray","type":"bytes[]"}],"name":"aggregateProofs","outputs":[{"internalType":"bytes32","name":"aggregatedHash","type":"bytes32"}],"stateMutability":"nonpayable","type":"function"},{"inputs":[{"internalType":"uint256","name":"","type":"uint256"},{"internalType":"uint256","name":"","type":"uint256"}],"name":"aggregatedProofHashes","outputs":[{"internalType":"bytes32","name":"","type":"bytes32"}],"stateMutability":"view","type":"function"},{"inputs":[{"internalType":"address","name":"","type":"address"}],"name":"authorizedCallers","outputs":[{"internalType":"bool","name":"","type":"bool"}],"stateMutability":"view","type":"function"},{"inputs":[{"internalType":"bytes","name":"","type":"bytes"}],"name":"checkUpkeep","outputs":[{"internalType":"bool","name":"upkeepNeeded","type":"bool"},{"internalType":"bytes","name":"","type":"bytes"}],"stateMutability":"view","type":"function"},{"inputs":[],"name":"contractOwner","outputs":[{"internalType":"address","name":"","type":"address"}],"stateMutability":"view","type":"function"},{"inputs":[{"internalType":"bytes32","name":"","type":"bytes32"}],"name":"functionsRequestToProofId","outputs":[{"internalType":"uint256","name":"","type":"uint256"}],"stateMutability":"view","type":"function"},{"inputs":[{"internalType":"uint256","name":"requestId","type":"uint256"}],"name":"getProofRequest","outputs":[{"components":[{"internalType":"address","name":"requester","type":"address"},{"internalType":"uint256","name":"timestamp","type":"uint256"},{"internalType":"string","name":"sourceChain","type":"string"},{"internalType":"uint256","name":"blockNumber","type":"uint256"},{"internalType":"bytes32","name":"stateRoot","type":"bytes32"},{"internalType":"bool","name":"isCompleted","type":"bool"},{"internalType":"bool","name":"isValid","type":"bool"}],"internalType":"struct ZKProofAggregator.ProofRequest","name":"","type":"tuple"}],"stateMutability":"view","type":"function"},{"inputs":[],"name":"getSubscriptionId","outputs":[{"internalType":"uint256","name":"","type":"uint256"}],"stateMutability":"view","type":"function"},{"inputs":[],"name":"groth16Verifier","outputs":[{"internalType":"contract Groth16Verifier","name":"","type":"address"}],"stateMutability":"view","type":"function"},{"inputs":[{"internalType":"bytes32","name":"requestId","type":"bytes32"},{"internalType":"bytes","name":"response","type":"bytes"},{"internalType":"bytes","name":"err","type":"bytes"}],"name":"handleOracleFulfillment","outputs":[],"stateMutability":"nonpayable","type":"function"},{"inputs":[{"internalType":"bytes32","name":"stateRoot","type":"bytes32"}],"name":"isStateVerified","outputs":[{"internalType":"bool","name":"","type":"bool"}],"stateMutability":"view","type":"function"},{"inputs":[],"name":"lastUpkeepTimestamp","outputs":[{"internalType":"uint256","name":"","type":"uint256"}],"stateMutability":"view","type":"function"},{"inputs":[],"name":"owner","outputs":[{"internalType":"address","name":"","type":"address"}],"stateMutability":"view","type":"function"},{"inputs":[{"internalType":"bytes","name":"","type":"bytes"}],"name":"performUpkeep","outputs":[],"stateMutability":"nonpayable","type":"function"},{"inputs":[{"internalType":"uint256","name":"","type":"uint256"}],"name":"proofRequests","outputs":[{"internalType":"address","name":"requester","type":"address"},{"internalType":"uint256","name":"timestamp","type":"uint256"},{"internalType":"string","name":"sourceChain","type":"string"},{"internalType":"uint256","name":"blockNumber","type":"uint256"},{"internalType":"bytes32","name":"stateRoot","type":"bytes32"},{"internalType":"bool","name":"isCompleted","type":"bool"},{"internalType":"bool","name":"isValid","type":"bool"}],"stateMutability":"view","type":"function"},{"inputs":[{"internalType":"uint256","name":"requestId","type":"uint256"},{"internalType":"uint256[]","name":"randomWords","type":"uint256[]"}],"name":"rawFulfillRandomWords","outputs":[],"stateMutability":"nonpayable","type":"function"},{"inputs":[],"name":"requestCounter","outputs":[{"internalType":"uint256","name":"","type":"uint256"}],"stateMutability":"view","type":"function"},{"inputs":[{"internalType":"string","name":"sourceChain","type":"string"},{"internalType":"uint256","name":"targetBlockNumber","type":"uint256"}],"name":"requestProofVerification","outputs":[{"internalType":"uint256","name":"requestId","type":"uint256"}],"stateMutability":"nonpayable","type":"function"},{"inputs":[],"name":"s_vrfCoordinator","outputs":[{"internalType":"contract IVRFCoordinatorV2Plus","name":"","type":"address"}],"stateMutability":"view","type":"function"},{"inputs":[{"internalType":"address","name":"caller","type":"address"},{"internalType":"bool","name":"authorized","type":"bool"}],"name":"setAuthorizedCaller","outputs":[],"stateMutability":"nonpayable","type":"function"},{"inputs":[{"internalType":"address","name":"_vrfCoordinator","type":"address"}],"name":"setCoordinator","outputs":[],"stateMutability":"nonpayable","type":"function"},{"inputs":[{"internalType":"uint64","name":"subscriptionId","type":"uint64"},{"internalType":"uint32","name":"gasLimit","type":"uint32"},{"internalType":"bytes32","name":"donId","type":"bytes32"}],"name":"setFunctionsConfig","outputs":[],"stateMutability":"nonpayable","type":"function"},{"inputs":[{"internalType":"string","name":"source","type":"string"}],"name":"setFunctionsSource","outputs":[],"stateMutability":"nonpayable","type":"function"},{"inputs":[{"internalType":"string","name":"url","type":"string"}],"name":"setProofServiceUrl","outputs":[],"stateMutability":"nonpayable","type":"function"},{"inputs":[{"internalType":"uint256","name":"newInterval","type":"uint256"}],"name":"setUpkeepInterval","outputs":[],"stateMutability":"nonpayable","type":"function"},{"inputs":[{"internalType":"uint256","name":"subscriptionId","type":"uint256"},{"internalType":"bytes32","name":"keyHash","type":"bytes32"},{"internalType":"uint32","name":"callbackGasLimit","type":"uint32"}],"name":"setVRFConfig","outputs":[],"stateMutability":"nonpayable","type":"function"},{"inputs":[{"internalType":"address","name":"to","type":"address"}],"name":"transferOwnership","outputs":[],"stateMutability":"nonpayable","type":"function"},{"inputs":[],"name":"upkeepInterval","outputs":[{"internalType":"uint256","name":"","type":"uint256"}],"stateMutability":"view","type":"function"},{"inputs":[{"internalType":"bytes32","name":"","type":"bytes32"}],"name":"usedProofHashes","outputs":[{"internalType":"bool","name":"","type":"bool"}],"stateMutability":"view","type":"function"},{"inputs":[{"internalType":"bytes32","name":"","type":"bytes32"}],"name":"verifiedProofs","outputs":[{"internalType":"bool","name":"","type":"bool"}],"stateMutability":"view","type":"function"}],"evm":{"bytecode":{"linkReferences":{},"object":"60c034620001d257601f62003dfb38819003918201601f19168301926001600160401b0392909183851183861017620001d7578160e09284926040978852833981010312620001d2576200005381620001ed565b6200006160208301620001ed565b928483015192606081015160808201519283168303620001d2576200008e60c060a08401519301620001ed565b9233156200018e57600080546001600160a01b03199081163317909155966001600160a01b0395861680156200017d57740493e00000000000000000000000010003002625a093929187918a600254161760025516608052610e10600755600a549160ff1997600889600e541617600e556008556009556a0100000000000000000000600160901b039060501b169060018060b01b0319161717600a55600b551660a05233600052601260205260018360002091825416179055339060135416176013554260065551613bf8908162000203823960805181818161039c0152613037015260a051816107070152f35b895163d92e233d60e01b8152600490fd5b875162461bcd60e51b815260206004820152601860248201527f43616e6e6f7420736574206f776e657220746f207a65726f00000000000000006044820152606490fd5b600080fd5b634e487b7160e01b600052604160045260246000fd5b51906001600160a01b0382168203620001d25756fe6080604052600436101561001257600080fd5b60003560e01c80630ca76175146102025780631098241b146101fd578063152a9526146101f8578063176d80c41461018f57806319c813be146101f35780631bd6447a146101ee5780631fe543e3146101e957806325825746146101e457806336e0025f146101df57806339a9e4b3146101da578063454bbd29146101d55780634585e33b146101d0578063536fff6c146101cb57806356959332146101c657806357efe032146101c15780635a74373c146101bc578063624cffd4146101b75780636e04ff0d146101b257806372e4c9f6146101ad57806379ba5097146101a85780638da5cb5b146101a35780638ea981171461019e578063973a814e146101995780639eccacf614610194578063a9431f231461018f578063b5cce1331461018a578063ce606ee014610185578063d175d81a14610180578063d87318b21461017b578063de3d9fb7146101765763f2fde38b1461017157600080fd5b61148d565b61146f565b61143e565b61136e565b611345565b6112ef565b6106c0565b6112c6565b6112a8565b611233565b61120a565b61114b565b61111d565b6110d0565b6110b2565b611094565b610f95565b610f69565b610f2a565b610e7b565b610dd1565b610d77565b610c5d565b610be4565b610801565b610749565b6106f1565b6105f3565b610437565b61034d565b634e487b7160e01b600052604160045260246000fd5b60e081019081106001600160401b0382111761023857604052565b610207565b604081019081106001600160401b0382111761023857604052565b602081019081106001600160401b0382111761023857604052565b60c081019081106001600160401b0382111761023857604052565b90601f801991011681019081106001600160401b0382111761023857604052565b604051906102bc8261021d565b565b604051906102bc82610258565b604051906102bc82610273565b6001600160401b03811161023857601f01601f191660200190565b9291926102ff826102d8565b9161030d604051938461028e565b82948184528183011161032a578281602093846000960137010152565b600080fd5b9080601f8301121561032a5781602061034a933591016102f3565b90565b3461032a57606036600319011261032a576004356001600160401b0360243581811161032a5761038190369060040161032f565b9060443590811161032a5761039a90369060040161032f565b7f00000000000000000000000000000000000000000000000000000000000000006001600160a01b031633036103fb576103d49183611fff565b7f85e1543bf2f84fe80c6badbce3648c8539ad1df4d2b3d822938ca0538be727e6600080a2005b60405163c6829f8360e01b8152600490fd5b602060031982011261032a57600435906001600160401b03821161032a5761034a9160040161032f565b3461032a576104453661040d565b61045a60018060a01b03601354163314611582565b80516001600160401b0381116102385761047e81610479600d5461094f565b6115bb565b602080601f83116001146104c0575081906104b0936000926104b5575b50508160011b916000199060031b1c19161790565b600d55005b01519050388061049b565b90601f198316936104f3600d6000527fd7b6990105719101dabeb77144f2a3385c8033acd3af97e9423a695e81ad1eb590565b926000905b86821061052f5750508360019510610516575b505050811b01600d55005b015160001960f88460031b161c1916905538808061050b565b806001859682949686015181550195019301906104f8565b60005b83811061055a5750506000910152565b818101518382015260200161054a565b9060209161058381518092818552858086019101610547565b601f01601f1916010190565b6020815260018060a01b0382511660208201526020820151604082015260e060c06105c9604085015183606086015261010085019061056a565b9360608101516080850152608081015160a085015260a08101511515828501520151151591015290565b3461032a57602036600319011261032a576106bc60408060c081516106178161021d565b60009181838093528260208201526060858201528260608201528260808201528260a082015201526004358152600360205220906106b260ff600583519461065e8661021d565b80546001600160a01b031686526001810154602087015261068160028201610b82565b8686015260038101546060870152600481015460808701520154818116151560a086015260081c16151560c0840152565b519182918261058f565b0390f35b3461032a57602036600319011261032a57600435600052600f602052602060ff604060002054166040519015158152f35b3461032a57600036600319011261032a576040517f00000000000000000000000000000000000000000000000000000000000000006001600160a01b03168152602090f35b6024359063ffffffff8216820361032a57565b3461032a57606036600319011261032a576004356001600160401b038116810361032a57610775610736565b61078a60018060a01b03601354163314611582565b600a80546bffffffffffffffffffffffff60501b191660509390931b67ffffffffffffffff60501b169290921760909190911b63ffffffff60901b16179055604435600b55005b9181601f8401121561032a578235916001600160401b03831161032a576020808501948460051b01011161032a57565b3461032a57604036600319011261032a576004356024356001600160401b03811161032a576108349036906004016107d1565b600254919290916001600160a01b03163381900361093157508060005260046020526040600020549081156108f6576103e71943014381116108f157846108d96108b87f2374d5481494ad7962d4bd1b98b91e9f3117c9b66533b2804be3d76c41a49088936108b26108a9896108ef9b612271565b356103e8900690565b90612296565b9586928360036108d2896000526003602052604060002090565b0155612271565b60408051913582526020820192909252a26124c2565b005b6116f5565b60405162461bcd60e51b8152602060048201526013602482015272125b9d985b1a5908159491881c995c5d595cdd606a1b6044820152606490fd5b6044906040519063073e64fd60e21b82523360048301526024820152fd5b90600182811c9216801561097f575b602083101461096957565b634e487b7160e01b600052602260045260246000fd5b91607f169161095e565b8054600093926109988261094f565b91828252602093600191600181169081600014610a0057506001146109bf575b5050505050565b90939495506000929192528360002092846000945b8386106109ec575050505001019038808080806109b8565b8054858701830152940193859082016109d4565b60ff19168685015250505090151560051b0101915038808080806109b8565b60405190600082600c5491610a338361094f565b80835292602090600190818116908115610abf5750600114610a5e575b50506102bc9250038361028e565b915092600c6000527fdf6966c971051c3d54ec59162606531493a51404a002842f56009d7e5cf4a8c7936000925b828410610aa757506102bc9450505081016020013880610a50565b85548885018301529485019487945092810192610a8c565b915050602092506102bc94915060ff191682840152151560051b8201013880610a50565b60405190600082600d5491610af78361094f565b80835292602090600190818116908115610abf5750600114610b215750506102bc9250038361028e565b915092600d6000527fd7b6990105719101dabeb77144f2a3385c8033acd3af97e9423a695e81ad1eb5936000925b828410610b6a57506102bc9450505081016020013880610a50565b85548885018301529485019487945092810192610b4f565b906102bc610b969260405193848092610989565b038361028e565b959260c09592610bcb929998959960018060a01b03168852602088015260e0604088015260e087019061056a565b9660608601526080850152151560a08401521515910152565b3461032a57602036600319011261032a576004356000526003602052604060002060018060a01b03815416906106bc60018201549160405193610c3585610c2e8160028601610989565b038661028e565b600382015491600560048201549101549260405196879660ff808760081c1696169488610b9d565b3461032a57610c6b3661040d565b610c8060018060a01b03601354163314611582565b80516001600160401b03811161023857610ca481610c9f600c5461094f565b61162d565b602080601f8311600114610cda57508190610cd5936000926104b55750508160011b916000199060031b1c19161790565b600c55005b90601f19831693610d0d600c6000527fdf6966c971051c3d54ec59162606531493a51404a002842f56009d7e5cf4a8c790565b926000905b868210610d495750508360019510610d30575b505050811b01600c55005b015160001960f88460031b161c19169055388080610d25565b80600185968294968601518155019501930190610d12565b634e487b7160e01b600052603260045260246000fd5b3461032a57604036600319011261032a5760243560009060043582526010602052604082208054821015610db75782526020918290200154604051908152f35b8280fd5b600435906001600160a01b038216820361032a57565b3461032a57604036600319011261032a57610dea610dbb565b602435801515810361032a576013546108ef926001600160a01b0391610e139083163314611582565b16600052601260205260406000209060ff801983541691151516179055565b90602060031983011261032a576004356001600160401b039283821161032a578060238301121561032a57816004013593841161032a576024848301011161032a576024019190565b3461032a57610e8936610e32565b505060065442034281116108f157610ea49060075410611736565b610ead42600655565b60408051632bf7f01960e11b815260048101919091526008604482015267657468657265756d60c01b606482015260006024820152602081806084810103816000305af18015610f2557610efd57005b6108ef9060203d602011610f1e575b610f16818361028e565b810190611776565b503d610f0c565b611785565b3461032a57602036600319011261032a576001600160a01b03610f4b610dbb565b166000526012602052602060ff604060002054166040519015158152f35b3461032a57602036600319011261032a5760043560005260046020526020604060002054604051908152f35b3461032a57604036600319011261032a576004356001600160401b03811161032a57610fc86106bc91369060040161032f565b60243561102e610fd9600554611791565b92610fe384600555565b610feb6102af565b33815290426020830152604082015282606082015260006080820152600060a0820152600060c0820152611029846000526003602052604060002090565b6117a0565b806110855761103c826126d4565b817f7ef8ca77fdc89c79f093f2a6b2348b1fcda0beb941ce31ce9f2d9d260c4db9d2604051806110723395829190602083019252565b0390a36040519081529081906020820190565b61108f81836124c2565b61103c565b3461032a57600036600319011261032a576020600754604051908152f35b3461032a57600036600319011261032a576020600654604051908152f35b3461032a576110de36610e32565b505060065442034281116108f15760075410604051906110fd82610258565b600082526106bc604051928392835260406020840152604083019061056a565b3461032a57602036600319011261032a5761114360018060a01b03601354163314611582565b600435600755005b3461032a57600080600319360112611207576001546001600160a01b0390811633036111c95781546001600160a01b0316600080546001600160a01b0319163317905590600180546001600160a01b03191690553391167f8be0079c531659141344cd1fd0a4f28419497f9722a3daafe3b4186f6b6457e08380a380f35b60405162461bcd60e51b815260206004820152601660248201527526bab9ba10313290383937b837b9b2b21037bbb732b960511b6044820152606490fd5b80fd5b3461032a57600036600319011261032a576000546040516001600160a01b039091168152602090f35b3461032a57602036600319011261032a5761124c610dbb565b6000546001600160a01b0390811690338214158061129a575b611272576108ef83611925565b60649250600254166040519163061db9c160e01b835233600484015260248301526044820152fd5b508060025416331415611265565b3461032a57600036600319011261032a576020600554604051908152f35b3461032a57600036600319011261032a576002546040516001600160a01b039091168152602090f35b3461032a57606036600319011261032a5760443563ffffffff811680910361032a5761132660018060a01b03601354163314611582565b60043560085560243560095563ffffffff19600a541617600a55600080f35b3461032a57600036600319011261032a576013546040516001600160a01b039091168152602090f35b3461032a57604036600319011261032a576001600160401b0360043581811161032a5761139f9036906004016107d1565b9160243590811161032a576113b89036906004016107d1565b9033600052601260205260ff60406000205416801561142a575b156113f4576106bc936113e493611cb1565b6040519081529081906020820190565b60405162461bcd60e51b815260206004820152600e60248201526d139bdd08185d5d1a1bdc9a5e995960921b6044820152606490fd5b506013546001600160a01b031633146113d2565b3461032a57602036600319011261032a576004356000526011602052602060ff604060002054166040519015158152f35b3461032a57600036600319011261032a576020600854604051908152f35b3461032a57602036600319011261032a576114a6610dbb565b6000546001600160a01b0390811691338390036115445716903382146114ff57600180546001600160a01b031916831790557fed8889f560326eb138920d842192f0eb3dd22b4f139c87a2c57538e05bae1278600080a3005b60405162461bcd60e51b815260206004820152601760248201527f43616e6e6f74207472616e7366657220746f2073656c660000000000000000006044820152606490fd5b60405162461bcd60e51b815260206004820152601660248201527527b7363c9031b0b63630b1363290313c9037bbb732b960511b6044820152606490fd5b1561158957565b60405162461bcd60e51b815260206004820152600a60248201526927b7363c9037bbb732b960b11b6044820152606490fd5b601f81116115c7575050565b600090600d6000527fd7b6990105719101dabeb77144f2a3385c8033acd3af97e9423a695e81ad1eb5906020601f850160051c83019410611623575b601f0160051c01915b82811061161857505050565b81815560010161160c565b9092508290611603565b601f8111611639575050565b600090600c6000527fdf6966c971051c3d54ec59162606531493a51404a002842f56009d7e5cf4a8c7906020601f850160051c83019410611695575b601f0160051c01915b82811061168a57505050565b81815560010161167e565b9092508290611675565b90601f81116116ad57505050565b6000916000526020600020906020601f850160051c830194106116eb575b601f0160051c01915b8281106116e057505050565b8181556001016116d4565b90925082906116cb565b634e487b7160e01b600052601160045260246000fd5b6000198101919082116108f157565b601f198101919082116108f157565b919082039182116108f157565b1561173d57565b60405162461bcd60e51b8152602060048201526011602482015270155c1ad9595c081b9bdd081b9959591959607a1b6044820152606490fd5b9081602091031261032a575190565b6040513d6000823e3d90fd5b60001981146108f15760010190565b815181546001600160a01b0319166001600160a01b0391909116178155600160209060208401516001840155600283019160408501518051926001600160401b038411610238576117fb846117f5875461094f565b8761169f565b602092601f85116001146118935750509361187d9361183b8460c0956005956102bc9a996000926104b55750508160011b916000199060031b1c19161790565b90555b6060850151600382015560808501516004820155019261187661186460a0830151151590565b859060ff801983541691151516179055565b0151151590565b815461ff00191690151560081b61ff0016179055565b929190601f198516906118ab87600052602060002090565b946000915b8383106118fb57505050846005946102bc99989461187d989460c098600195106118e2575b505050811b01905561183e565b015160001960f88460031b161c191690553880806118d5565b8486015187559586019594810194918101916118b0565b6040519061191f82610258565b60008252565b6001600160a01b0316801561197a576020817fd1a6a14209a385a964d036e404cb5cfb71f4000cdb03c9366292430787261be6926bffffffffffffffffffffffff60a01b6002541617600255604051908152a1565b60405163d92e233d60e01b8152600490fd5b1561199357565b60405162461bcd60e51b8152602060048201526014602482015273496e76616c696420696e7075742061727261797360601b6044820152606490fd5b156119d657565b60405162461bcd60e51b815260206004820152601c60248201527f546f6f206d616e792070726f6f667320746f20616767726567617465000000006044820152606490fd5b6001600160401b0381116102385760051b60200190565b90611a3c82611a1b565b611a49604051918261028e565b8281528092611a5a601f1991611a1b565b0190602036910137565b9190811015611aa55760051b81013590601e198136030182121561032a5701908135916001600160401b03831161032a57602001823603811361032a579190565b610d61565b15611ab157565b60405162461bcd60e51b815260206004820152601c60248201527f496e76616c69642070726f6f6620696e206167677265676174696f6e000000006044820152606490fd5b908092918237016000815290565b15611b0b57565b60405162461bcd60e51b815260206004820152602160248201527f50726f6f6620616c7265616479207573656420696e206167677265676174696f6044820152603760f91b6064820152608490fd5b805115611aa55760200190565b805160011015611aa55760400190565b805160021015611aa55760600190565b805160031015611aa55760800190565b805160041015611aa55760a00190565b8051821015611aa55760209160051b010190565b9193929093845160208096019060005b818110611bf557505050825260601b6bffffffffffffffffffffffff191660208201526034019150565b825186529487019491870191600101611bcb565b908160011b91808304600214901517156108f157565b8151916001600160401b03831161023857680100000000000000008311610238578154838355808410611c86575b50611c62602080920192600052602060002090565b9060005b848110611c74575050505050565b83518382015592810192600101611c66565b60008360005284602060002092830192015b828110611ca6575050611c4d565b818155600101611c98565b9192909281841480611e83575b611cc79061198c565b611cd4600a8511156119cf565b611cdd84611a32565b9360005b818110611dad5750505050506040516020810190611d1381611d0533428787611bbb565b03601f19810183528261028e565b51902090611d48611d25600554611791565b91611d2f83600555565b611d43836000526010602052604060002090565b611c1f565b611d6c611d5f83600052600f602052604060002090565b805460ff19166001179055565b7f6dd2118914ad2b9a98780fafd92846eebe9361998a810f1a05f67033b17e2cdd60405180611da78582919060206040840193600181520152565b0390a290565b80611df2611ded611de7611dc4600195878b611a64565b611ddf611dd5878c8c969596611a64565b94909236916102f3565b9236916102f3565b906127b6565b611aaa565b611e7d611d5f611e31611e2b611e0985888c611a64565b9290611d05611e19888d8d611a64565b60405195869460208601988991611af6565b91611af6565b519020611e61611e5c611e58611e51846000526011602052604060002090565b5460ff1690565b1590565b611b04565b80611e6c858c611ba7565b526000526011602052604060002090565b01611ce1565b50831515611cbe565b15611e9357565b60405162461bcd60e51b815260206004820152601960248201527f496e76616c69642046756e6374696f6e732072657175657374000000000000006044820152606490fd5b90602061034a92818152019061056a565b60405190611ef68261023d565b60078252667375636365737360c81b6020830152565b60405190611f198261023d565b600c82526b3430b9a932b0b6283937b7b360a11b6020830152565b60405190611f418261023d565b600c82526b0ecc2d8d2c8d2e8f290c2e6d60a31b6020830152565b90611f6f60209282815194859201610547565b0190565b6020929190611f89849282815194859201610547565b019081520190565b60405190611f9e8261023d565b6005825264383937b7b360d91b6020830152565b60405190611fbf8261023d565b600d82526c7075626c69635369676e616c7360981b6020830152565b611fef60209260408352604083019061056a565b9082818303910152600081520190565b91612014836000526004602052604060002090565b5490612021821515611e8c565b805161221857507f50348c1af87d1d2e61e0a7e9bf83a9c67f047d8de73be6b88acac8655a97581e916121749161205f612059611ee9565b836127ea565b612073826000526003602052604060002090565b60058101805460ff191660011781559091156121d4577f6dd2118914ad2b9a98780fafd92846eebe9361998a810f1a05f67033b17e2cdd916120bc6120b6611f0c565b866127ea565b156121bf576120d26120cc611f91565b866128fe565b6120e36120dd611fb2565b876128fe565b81511515806121b5575b1561217957612133926121649492611d0561211e600494604051928391612118602084018097611f5c565b90611f5c565b51902093849361010061ff0019825416179055565b015561214c611d5f82600052600f602052604060002090565b60405191829182919060206040840193600181520152565b0390a25b60405191829182611fdb565b0390a2565b50506121ad91600461213392612196612190611f34565b896128fe565b60405161211e81611d056020820194429086611f73565b0390a2612168565b50805115156120ed565b6121ad91600461213392612196612190611f34565b805461ff0019169055507f6dd2118914ad2b9a98780fafd92846eebe9361998a810f1a05f67033b17e2cdd604051806121ad81906000602060408401938281520152565b7f8117ad48db1a08344670d33acdeb14d7ec953b1119dafa9ab361e5e721d4356292506122656005612257612174946000526003602052604060002090565b01805460ff19166001179055565b60405191829182611ed8565b9015611aa55790565b60300190816030116108f157565b90602082018092116108f157565b919082018092116108f157565b6040519061016082018281106001600160401b038211176102385760405261013182527072696e6769667928726573756c7429293b60781b610140837f636f6e737420636861696e49643d7061727365496e7428617267735b305d293b60208201527f636f6e737420626c6f636b4e756d626572733d4a534f4e2e706172736528617260408201527f67735b315d293b636f6e737420726573756c743d7b737563636573733a74727560608201527f652c636861696e49642c626c6f636b4e756d626572732c76616c69646974794860808201527f6173683a2730783132333435363738393061626364656631323334353637383960a08201527f306162636465663132333435363738393061626364656631323334353637383960c08201527f30616263646566272c6d657461646174613a7b74696d657374616d703a4d617460e08201527f682e666c6f6f7228446174652e6e6f7728292f31303030297d7d3b72657475726101008201527f6e2046756e6374696f6e732e656e636f6465537472696e67284a534f4e2e73746101208201520152565b604051906124488261021d565b606060c08360008152600060208201526000604082015282808201528260808201528260a08201520152565b6040519061248182610273565b600582528160005b60a08110612495575050565b806060602080938501015201612489565b9291906124bd602091604086526040860190610989565b930152565b907f89652d00e157965d54f5ad31af9352416c4e90b879711ec122680d4e3a1de9a6906124f9836000526003602052604060002090565b612501610a1f565b805115612666575b61261d6126419161252261251b61243b565b91826130f2565b612618600261252f612474565b95019461254b61254661254188610b82565b612aa2565b612c22565b61255482611b5a565b5261255e81611b5a565b5061258c61259961256e89612c22565b611d0560405193849261211860208501600190605b60f81b81520190565b605d60f81b815260010190565b6125a282611b67565b526125ac81611b67565b506125c56125466125bf600e5460ff1690565b60ff1690565b6125ce82611b77565b526125d881611b77565b506125e246612c22565b6125eb82611b87565b526125f581611b87565b506125fe610ae3565b61260782611b97565b5261261181611b97565b5082612cc2565b612e11565b600a54600b54916001600160401b0363ffffffff8360901c169260501c1690612fdf565b93612656856000526004602052604060002090565b55612174604051928392836124a6565b5061264161261d6126756122a3565b915050612509565b60e060a061034a9360208452805160208501526020810151604085015261ffff6040820151166060850152606081015163ffffffff80911660808601526080820151168285015201519160c080820152019061056a565b60025460009060209061276d906001600160a01b031660095460085461274c600a5463ffffffff9061270f6127076102be565b8a81526130b9565b936127186102cb565b9586528886015280881c61ffff16604086015263ffffffff81831616606086015260301c16608084019063ffffffff169052565b60a0820152604051948580948193634d8e1c2f60e11b83526004830161267d565b03925af18015610f255761279491600091612797575b506000526004602052604060002090565b55565b6127b0915060203d602011610f1e57610f16818361028e565b38612783565b51159081156127cf575b506127ca57600190565b600090565b90505115386127c0565b908151811015611aa5570160200190565b604051601160f91b60208201529091612822908290611d05906128109060218401612118565b65223a7472756560d01b815260060190565b6000905b6128338351825190611729565b82116128ce5760019260005b82518110156128c45761286c61285e6128588387612296565b846127d9565b516001600160f81b03191690565b61288961287c61285e84876127d9565b6001600160f81b03191690565b6001600160f81b0319909116036128a25760010161283f565b5092509060005b6128bc576128b690611791565b90612826565b505050600190565b50929190916128a9565b505050600090565b906128e0826102d8565b6128ed604051918261028e565b8281528092611a5a601f19916102d8565b916129416129249261293360405194859261211860208501600190601160f91b81520190565b62111d1160e91b815260030190565b03601f19810184528361028e565b6000905b6129528451845190611729565b8211612a965760019260005b8151811015612a8c5761297d61285e6129778387612296565b886127d9565b61298d61287c61285e84866127d9565b6001600160f81b0319909116036129a65760010161295e565b5092509060005b6129c1575b6129bb90611791565b90612945565b906129cd835183612296565b92835b8551811080612a68575b156129ed576129e890611791565b6129d0565b9093929192808211612a005750506129b2565b91509250612a16612a118285611729565b6128d6565b9160005b612a248386611729565b811015612a5f5782600182612a4861285e612a42612a249686612296565b8b6127d9565b60001a612a5582896127d9565b5301915050612a1a565b50935050905090565b50601160f91b6001600160f81b0319612a8461285e848a6127d9565b1614156129da565b50929190916129ad565b9250505061034a611912565b60409081519060209082612ab98382018093611f5c565b0392612acd601f199485810183528261028e565b51902092805182810190612b0081612af48460089067657468657265756d60c01b81520190565b0386810183528261028e565b5190208414612c1957805167617262697472756d60c01b83820190815290612b2b8160088401612af4565b5190208414612c0f578051676f7074696d69736d60c01b83820190815290612b568160088401612af4565b5190208414612c06578051636261736560e01b83820190815290612b7d8160048401612af4565b5190208414612bfc578051663837b63cb3b7b760c91b83820190815290612ba78160078401612af4565b5190208414612bf357612be090519182019282612bd485600990686176616c616e63686560b81b81520190565b0390810183528261028e565b51902014612bed57600190565b61a86a90565b50505050608990565b5050505061210590565b50505050600a90565b5050505061a4b190565b50505050600190565b8015612ca4576000818181805b612c8c5750612c3d816128d6565b935b612c495750505090565b612c529061170b565b90600a90612c77612c676125bf84840661227a565b60f81b6001600160f81b03191690565b841a612c8384876127d9565b53049081612c3f565b9150612c99600a91611791565b910480849291612c2f565b50604051612cb18161023d565b60018152600360fc1b602082015290565b815115612ccf5760a00152565b60405163fe936cb760e01b8152600490fd5b60405190612cee8261023d565b600c82526b31b7b232a637b1b0ba34b7b760a11b6020830152565b634e487b7160e01b600052602160045260246000fd5b60031115612d2957565b612d09565b60405190612d3b8261023d565b60088252676c616e677561676560c01b6020830152565b60011115612d2957565b60405190612d698261023d565b6006825265736f7572636560d01b6020830152565b60405190612d8b8261023d565b60048252636172677360e01b6020830152565b60405190612dab8261023d565b600f82526e39b2b1b932ba39a637b1b0ba34b7b760891b6020830152565b60405190612dd68261023d565b60078252667365637265747360c81b6020830152565b60405190612df98261023d565b600982526862797465734172677360b81b6020830152565b612e19613135565b90612e2b612e25612ce1565b83613185565b612e488151612e3981612d1f565b612e4281612d1f565b83613247565b612e53612e25612d2e565b612e6d6040820151612e6481612d52565b612e4281612d52565b612e78612e25612d5c565b612e86606082015183613185565b60a08101805151612f86575b506080810190815151612f06575b60c0915001805151612eb3575b50515190565b91612ebf612e25612dec565b612ec8826132e8565b60005b83518051821015612ef35790612eed612ee682600194611ba7565b5185613401565b01612ecb565b50509150612f0081613374565b38612ead565b602081018051612f1581612d1f565b612f1e81612d1f565b15612f745760c092612f57612f6f92612f3e612f38612d9e565b88613185565b51612f4881612d1f565b612f5181612d1f565b86613247565b612f68612f62612dc9565b86613185565b5184613401565b612ea0565b60405163a80d31f760e01b8152600490fd5b92612f98612f92612d7e565b84613185565b612fa1836132e8565b60005b84518051821015612fcc5790612fc6612fbf82600194611ba7565b5186613185565b01612fa4565b50509250612fd982613374565b38612e92565b92906020926001600160401b039263ffffffff61301e604051978896879663230e93b160e11b885216600487015260a0602487015260a486019061056a565b60016044860152921660648401526084830152038160007f00000000000000000000000000000000000000000000000000000000000000006001600160a01b03165af1908115610f255760009161309a575b50807f1131472297a800fee664d1d89cfa8f7676ff07189ecc53f80bbb5f4969099db8600080a290565b6130b3915060203d602011610f1e57610f16818361028e565b38613070565b6040519063125fa26760e31b6020830152511515602482015260248152606081018181106001600160401b038211176102385760405290565b815115613109576000808252604082015260600152565b6040516322ce3edd60e01b8152600490fd5b604051906131288261023d565b6000602083606081520152565b6040516131418161023d565b61314961311b565b808252602082016000815261315c61311b565b50610100602083015260405180925260008252610120820191821061032a576000916040525290565b81516131c99291906001600160401b03811690601782116131cc576131b49150606060ff8451921617906138cf565b505b51906131c061311b565b50805191613aff565b50565b5060ff81116131f1576131eb906131e383516136d6565b508251613a8b565b506131b6565b61ffff8111613210576131eb906132088351613671565b508251613a1d565b63ffffffff8111613231576131eb90613229835161360c565b5082516139ad565b6131eb9061323f835161359c565b50825161393a565b9081519161325361311b565b5082515160018101908181116108f15760208501518110156132ac575b60c260206102bc96519283010153805182116132a4575b50506040519160208301526020825261329f8261023d565b613401565b523880613287565b8160011b94828604600214831517156108f1576020816132de6102bc986132d760c295519184613485565b50826134d7565b5096505050613270565b8051906132f361311b565b5081515160018101908181116108f1576020840151811015613341575b609f6020809551928301015380518211613339575b505001805190600182018092116108f15752565b523880613325565b8160011b93828504600214831517156108f15760208161336a82976132d7609f95519184613485565b5095505050613310565b80519061337f61311b565b5081515160018101908181116108f15760208401518110156133ce575b60ff60208095519283010153805182116133c6575b50500180516000198101919082116108f15752565b5238806133b1565b8160011b93828504600214831517156108f1576020816133f782976132d760ff95519184613485565b509550505061339c565b81516131c99291906001600160401b0381169060178211613430576131b49150604060ff8451921617906138cf565b5060ff8111613447576131eb906131e3835161386a565b61ffff811161345e576131eb906132088351613805565b63ffffffff8111613477576131eb9061322983516137a0565b6131eb9061323f835161373b565b9061348e61311b565b50601f8116806134bd575b508060208301526040519081835260008252810160200190811061032a5760405290565b602003602081116108f15781018091116108f15738613499565b906134e061311b565b508051906134ec61311b565b506134fa8151831115613af8565b825151916135088184612296565b60209260208601518211613585575b60209186518381519782010196821161357d575b505001915b808210156135555750600019906020036101000a019081199051169082511617905290565b90919261357161356b6135779286518152612288565b94612288565b9261171a565b90613530565b52388061352b565b61359761359183611c09565b87613bab565b613517565b6135a461311b565b5080515160018101908181116108f15760208301518110156135dd575b607b602084519283010153805182116135d957505090565b5290565b8160011b828104600214831517156108f157613606906135ff85519186613485565b50846134d7565b506135c1565b61361461311b565b5080515160018101908181116108f1576020830151811015613649575b607a602084519283010153805182116135d957505090565b8160011b828104600214831517156108f15761366b906135ff85519186613485565b50613631565b61367961311b565b5080515160018101908181116108f15760208301518110156136ae575b6079602084519283010153805182116135d957505090565b8160011b828104600214831517156108f1576136d0906135ff85519186613485565b50613696565b6136de61311b565b5080515160018101908181116108f1576020830151811015613713575b6078602084519283010153805182116135d957505090565b8160011b828104600214831517156108f157613735906135ff85519186613485565b506136fb565b61374361311b565b5080515160018101908181116108f1576020830151811015613778575b605b602084519283010153805182116135d957505090565b8160011b828104600214831517156108f15761379a906135ff85519186613485565b50613760565b6137a861311b565b5080515160018101908181116108f15760208301518110156137dd575b605a602084519283010153805182116135d957505090565b8160011b828104600214831517156108f1576137ff906135ff85519186613485565b506137c5565b61380d61311b565b5080515160018101908181116108f1576020830151811015613842575b6059602084519283010153805182116135d957505090565b8160011b828104600214831517156108f157613864906135ff85519186613485565b5061382a565b61387261311b565b5080515160018101908181116108f15760208301518110156138a7575b6058602084519283010153805182116135d957505090565b8160011b828104600214831517156108f1576138c9906135ff85519186613485565b5061388f565b906138d861311b565b5081515160018101918282116108f157602084015182101561390b575b602084519283010153805182116135d957505090565b8260011b838104600214841517156108f1576139349061392d86519187613485565b50856134d7565b506138f5565b9061394361311b565b508151518060080191826008116108f15760208401518311613985575b6008845192830101906001600160401b0319825116179052805182116135d957505090565b8260011b838104600214841517156108f1576139a79061392d86519187613485565b50613960565b906139b661311b565b508151518060040191826004116108f157602084015183116139f5575b60048451928301019063ffffffff19825116179052805182116135d957505090565b8260011b838104600214841517156108f157613a179061392d86519187613485565b506139d3565b90613a2661311b565b508151518060020191826002116108f15760208401518311613a63575b60028451928301019061ffff19825116179052805182116135d957505090565b8260011b838104600214841517156108f157613a859061392d86519187613485565b50613a43565b90613a9461311b565b508151518060010191826001116108f15760208401518311613ad0575b60018451928301019060ff19825116179052805182116135d957505090565b8260011b838104600214841517156108f157613af29061392d86519187613485565b50613ab1565b1561032a57565b9190613b0961311b565b50613b178151831115613af8565b825151916020613b278285612296565b928193828701518111613b94575b865183815197820101968211613b8c575b505001915b80821015613b705750600019906020036101000a019081199051169082511617905290565b90919261357161356b613b869286518152612288565b90613b4b565b523880613b46565b613ba6613ba082611c09565b88613bab565b613b35565b906131c991613bbc81519282613485565b506134d756fea2646970667358221220c195559d0b91aeebb2e489d679a51f3db2874b723660320d7a20e6e0d37372e664736f6c63430008180033","opcodes":"PUSH1 0xC0 CALLVALUE PUSH3 0x1D2 JUMPI PUSH1 0x1F PUSH3 0x3DFB CODESIZE DUP2 SWAP1 SUB SWAP2 DUP3 ADD PUSH1 0x1F NOT AND DUP4 ADD SWAP3 PUSH1 0x1 PUSH1 0x1 PUSH1 0x40 SHL SUB SWAP3 SWAP1 SWAP2 DUP4 DUP6 GT DUP4 DUP7 LT OR PUSH3 0x1D7 JUMPI DUP2 PUSH1 0xE0 SWAP3 DUP5 SWAP3 PUSH1 0x40 SWAP8 DUP9 MSTORE DUP4 CODECOPY DUP2 ADD SUB SLT PUSH3 0x1D2 JUMPI PUSH3 0x53 DUP2 PUSH3 0x1ED JUMP JUMPDEST PUSH3 0x61 PUSH1 0x20 DUP4 ADD PUSH3 0x1ED JUMP JUMPDEST SWAP3 DUP5 DUP4 ADD MLOAD SWAP3 PUSH1 0x60 DUP2 ADD MLOAD PUSH1 0x80 DUP3 ADD MLOAD SWAP3 DUP4 AND DUP4 SUB PUSH3 0x1D2 JUMPI PUSH3 0x8E PUSH1 0xC0 PUSH1 0xA0 DUP5 ADD MLOAD SWAP4 ADD PUSH3 0x1ED JUMP JUMPDEST SWAP3 CALLER ISZERO PUSH3 0x18E JUMPI PUSH1 0x0 DUP1 SLOAD PUSH1 0x1 PUSH1 0x1 PUSH1 0xA0 SHL SUB NOT SWAP1 DUP2 AND CALLER OR SWAP1 SWAP2 SSTORE SWAP7 PUSH1 0x1 PUSH1 0x1 PUSH1 0xA0 SHL SUB SWAP6 DUP7 AND DUP1 ISZERO PUSH3 0x17D JUMPI PUSH21 0x493E00000000000000000000000010003002625A0 SWAP4 SWAP3 SWAP2 DUP8 SWAP2 DUP11 PUSH1 0x2 SLOAD AND OR PUSH1 0x2 SSTORE AND PUSH1 0x80 MSTORE PUSH2 0xE10 PUSH1 0x7 SSTORE PUSH1 0xA SLOAD SWAP2 PUSH1 0xFF NOT SWAP8 PUSH1 0x8 DUP10 PUSH1 0xE SLOAD AND OR PUSH1 0xE SSTORE PUSH1 0x8 SSTORE PUSH1 0x9 SSTORE PUSH11 0x100000000000000000000 PUSH1 0x1 PUSH1 0x90 SHL SUB SWAP1 PUSH1 0x50 SHL AND SWAP1 PUSH1 0x1 DUP1 PUSH1 0xB0 SHL SUB NOT AND OR OR PUSH1 0xA SSTORE PUSH1 0xB SSTORE AND PUSH1 0xA0 MSTORE CALLER PUSH1 0x0 MSTORE PUSH1 0x12 PUSH1 0x20 MSTORE PUSH1 0x1 DUP4 PUSH1 0x0 KECCAK256 SWAP2 DUP3 SLOAD AND OR SWAP1 SSTORE CALLER SWAP1 PUSH1 0x13 SLOAD AND OR PUSH1 0x13 SSTORE TIMESTAMP PUSH1 0x6 SSTORE MLOAD PUSH2 0x3BF8 SWAP1 DUP2 PUSH3 0x203 DUP3 CODECOPY PUSH1 0x80 MLOAD DUP2 DUP2 DUP2 PUSH2 0x39C ADD MSTORE PUSH2 0x3037 ADD MSTORE PUSH1 0xA0 MLOAD DUP2 PUSH2 0x707 ADD MSTORE RETURN JUMPDEST DUP10 MLOAD PUSH4 0xD92E233D PUSH1 0xE0 SHL DUP2 MSTORE PUSH1 0x4 SWAP1 REVERT JUMPDEST DUP8 MLOAD PUSH3 0x461BCD PUSH1 0xE5 SHL DUP2 MSTORE PUSH1 0x20 PUSH1 0x4 DUP3 ADD MSTORE PUSH1 0x18 PUSH1 0x24 DUP3 ADD MSTORE PUSH32 0x43616E6E6F7420736574206F776E657220746F207A65726F0000000000000000 PUSH1 0x44 DUP3 ADD MSTORE PUSH1 0x64 SWAP1 REVERT JUMPDEST PUSH1 0x0 DUP1 REVERT JUMPDEST PUSH4 0x4E487B71 PUSH1 0xE0 SHL PUSH1 0x0 MSTORE PUSH1 0x41 PUSH1 0x4 MSTORE PUSH1 0x24 PUSH1 0x0 REVERT JUMPDEST MLOAD SWAP1 PUSH1 0x1 PUSH1 0x1 PUSH1 0xA0 SHL SUB DUP3 AND DUP3 SUB PUSH3 0x1D2 JUMPI JUMP INVALID PUSH1 0x80 PUSH1 0x40 MSTORE PUSH1 0x4 CALLDATASIZE LT ISZERO PUSH2 0x12 JUMPI PUSH1 0x0 DUP1 REVERT JUMPDEST PUSH1 0x0 CALLDATALOAD PUSH1 0xE0 SHR DUP1 PUSH4 0xCA76175 EQ PUSH2 0x202 JUMPI DUP1 PUSH4 0x1098241B EQ PUSH2 0x1FD JUMPI DUP1 PUSH4 0x152A9526 EQ PUSH2 0x1F8 JUMPI DUP1 PUSH4 0x176D80C4 EQ PUSH2 0x18F JUMPI DUP1 PUSH4 0x19C813BE EQ PUSH2 0x1F3 JUMPI DUP1 PUSH4 0x1BD6447A EQ PUSH2 0x1EE JUMPI DUP1 PUSH4 0x1FE543E3 EQ PUSH2 0x1E9 JUMPI DUP1 PUSH4 0x25825746 EQ PUSH2 0x1E4 JUMPI DUP1 PUSH4 0x36E0025F EQ PUSH2 0x1DF JUMPI DUP1 PUSH4 0x39A9E4B3 EQ PUSH2 0x1DA JUMPI DUP1 PUSH4 0x454BBD29 EQ PUSH2 0x1D5 JUMPI DUP1 PUSH4 0x4585E33B EQ PUSH2 0x1D0 JUMPI DUP1 PUSH4 0x536FFF6C EQ PUSH2 0x1CB JUMPI DUP1 PUSH4 0x56959332 EQ PUSH2 0x1C6 JUMPI DUP1 PUSH4 0x57EFE032 EQ PUSH2 0x1C1 JUMPI DUP1 PUSH4 0x5A74373C EQ PUSH2 0x1BC JUMPI DUP1 PUSH4 0x624CFFD4 EQ PUSH2 0x1B7 JUMPI DUP1 PUSH4 0x6E04FF0D EQ PUSH2 0x1B2 JUMPI DUP1 PUSH4 0x72E4C9F6 EQ PUSH2 0x1AD JUMPI DUP1 PUSH4 0x79BA5097 EQ PUSH2 0x1A8 JUMPI DUP1 PUSH4 0x8DA5CB5B EQ PUSH2 0x1A3 JUMPI DUP1 PUSH4 0x8EA98117 EQ PUSH2 0x19E JUMPI DUP1 PUSH4 0x973A814E EQ PUSH2 0x199 JUMPI DUP1 PUSH4 0x9ECCACF6 EQ PUSH2 0x194 JUMPI DUP1 PUSH4 0xA9431F23 EQ PUSH2 0x18F JUMPI DUP1 PUSH4 0xB5CCE133 EQ PUSH2 0x18A JUMPI DUP1 PUSH4 0xCE606EE0 EQ PUSH2 0x185 JUMPI DUP1 PUSH4 0xD175D81A EQ PUSH2 0x180 JUMPI DUP1 PUSH4 0xD87318B2 EQ PUSH2 0x17B JUMPI DUP1 PUSH4 0xDE3D9FB7 EQ PUSH2 0x176 JUMPI PUSH4 0xF2FDE38B EQ PUSH2 0x171 JUMPI PUSH1 0x0 DUP1 REVERT JUMPDEST PUSH2 0x148D JUMP JUMPDEST PUSH2 0x146F JUMP JUMPDEST PUSH2 0x143E JUMP JUMPDEST PUSH2 0x136E JUMP JUMPDEST PUSH2 0x1345 JUMP JUMPDEST PUSH2 0x12EF JUMP JUMPDEST PUSH2 0x6C0 JUMP JUMPDEST PUSH2 0x12C6 JUMP JUMPDEST PUSH2 0x12A8 JUMP JUMPDEST PUSH2 0x1233 JUMP JUMPDEST PUSH2 0x120A JUMP JUMPDEST PUSH2 0x114B JUMP JUMPDEST PUSH2 0x111D JUMP JUMPDEST PUSH2 0x10D0 JUMP JUMPDEST PUSH2 0x10B2 JUMP JUMPDEST PUSH2 0x1094 JUMP JUMPDEST PUSH2 0xF95 JUMP JUMPDEST PUSH2 0xF69 JUMP JUMPDEST PUSH2 0xF2A JUMP JUMPDEST PUSH2 0xE7B JUMP JUMPDEST PUSH2 0xDD1 JUMP JUMPDEST PUSH2 0xD77 JUMP JUMPDEST PUSH2 0xC5D JUMP JUMPDEST PUSH2 0xBE4 JUMP JUMPDEST PUSH2 0x801 JUMP JUMPDEST PUSH2 0x749 JUMP JUMPDEST PUSH2 0x6F1 JUMP JUMPDEST PUSH2 0x5F3 JUMP JUMPDEST PUSH2 0x437 JUMP JUMPDEST PUSH2 0x34D JUMP JUMPDEST PUSH4 0x4E487B71 PUSH1 0xE0 SHL PUSH1 0x0 MSTORE PUSH1 0x41 PUSH1 0x4 MSTORE PUSH1 0x24 PUSH1 0x0 REVERT JUMPDEST PUSH1 0xE0 DUP2 ADD SWAP1 DUP2 LT PUSH1 0x1 PUSH1 0x1 PUSH1 0x40 SHL SUB DUP3 GT OR PUSH2 0x238 JUMPI PUSH1 0x40 MSTORE JUMP JUMPDEST PUSH2 0x207 JUMP JUMPDEST PUSH1 0x40 DUP2 ADD SWAP1 DUP2 LT PUSH1 0x1 PUSH1 0x1 PUSH1 0x40 SHL SUB DUP3 GT OR PUSH2 0x238 JUMPI PUSH1 0x40 MSTORE JUMP JUMPDEST PUSH1 0x20 DUP2 ADD SWAP1 DUP2 LT PUSH1 0x1 PUSH1 0x1 PUSH1 0x40 SHL SUB DUP3 GT OR PUSH2 0x238 JUMPI PUSH1 0x40 MSTORE JUMP JUMPDEST PUSH1 0xC0 DUP2 ADD SWAP1 DUP2 LT PUSH1 0x1 PUSH1 0x1 PUSH1 0x40 SHL SUB DUP3 GT OR PUSH2 0x238 JUMPI PUSH1 0x40 MSTORE JUMP JUMPDEST SWAP1 PUSH1 0x1F DUP1 NOT SWAP2 ADD AND DUP2 ADD SWAP1 DUP2 LT PUSH1 0x1 PUSH1 0x1 PUSH1 0x40 SHL SUB DUP3 GT OR PUSH2 0x238 JUMPI PUSH1 0x40 MSTORE JUMP JUMPDEST PUSH1 0x40 MLOAD SWAP1 PUSH2 0x2BC DUP3 PUSH2 0x21D JUMP JUMPDEST JUMP JUMPDEST PUSH1 0x40 MLOAD SWAP1 PUSH2 0x2BC DUP3 PUSH2 0x258 JUMP JUMPDEST PUSH1 0x40 MLOAD SWAP1 PUSH2 0x2BC DUP3 PUSH2 0x273 JUMP JUMPDEST PUSH1 0x1 PUSH1 0x1 PUSH1 0x40 SHL SUB DUP2 GT PUSH2 0x238 JUMPI PUSH1 0x1F ADD PUSH1 0x1F NOT AND PUSH1 0x20 ADD SWAP1 JUMP JUMPDEST SWAP3 SWAP2 SWAP3 PUSH2 0x2FF DUP3 PUSH2 0x2D8 JUMP JUMPDEST SWAP2 PUSH2 0x30D PUSH1 0x40 MLOAD SWAP4 DUP5 PUSH2 0x28E JUMP JUMPDEST DUP3 SWAP5 DUP2 DUP5 MSTORE DUP2 DUP4 ADD GT PUSH2 0x32A JUMPI DUP3 DUP2 PUSH1 0x20 SWAP4 DUP5 PUSH1 0x0 SWAP7 ADD CALLDATACOPY ADD ADD MSTORE JUMP JUMPDEST PUSH1 0x0 DUP1 REVERT JUMPDEST SWAP1 DUP1 PUSH1 0x1F DUP4 ADD SLT ISZERO PUSH2 0x32A JUMPI DUP2 PUSH1 0x20 PUSH2 0x34A SWAP4 CALLDATALOAD SWAP2 ADD PUSH2 0x2F3 JUMP JUMPDEST SWAP1 JUMP JUMPDEST CALLVALUE PUSH2 0x32A JUMPI PUSH1 0x60 CALLDATASIZE PUSH1 0x3 NOT ADD SLT PUSH2 0x32A JUMPI PUSH1 0x4 CALLDATALOAD PUSH1 0x1 PUSH1 0x1 PUSH1 0x40 SHL SUB PUSH1 0x24 CALLDATALOAD DUP2 DUP2 GT PUSH2 0x32A JUMPI PUSH2 0x381 SWAP1 CALLDATASIZE SWAP1 PUSH1 0x4 ADD PUSH2 0x32F JUMP JUMPDEST SWAP1 PUSH1 0x44 CALLDATALOAD SWAP1 DUP2 GT PUSH2 0x32A JUMPI PUSH2 0x39A SWAP1 CALLDATASIZE SWAP1 PUSH1 0x4 ADD PUSH2 0x32F JUMP JUMPDEST PUSH32 0x0 PUSH1 0x1 PUSH1 0x1 PUSH1 0xA0 SHL SUB AND CALLER SUB PUSH2 0x3FB JUMPI PUSH2 0x3D4 SWAP2 DUP4 PUSH2 0x1FFF JUMP JUMPDEST PUSH32 0x85E1543BF2F84FE80C6BADBCE3648C8539AD1DF4D2B3D822938CA0538BE727E6 PUSH1 0x0 DUP1 LOG2 STOP JUMPDEST PUSH1 0x40 MLOAD PUSH4 0xC6829F83 PUSH1 0xE0 SHL DUP2 MSTORE PUSH1 0x4 SWAP1 REVERT JUMPDEST PUSH1 0x20 PUSH1 0x3 NOT DUP3 ADD SLT PUSH2 0x32A JUMPI PUSH1 0x4 CALLDATALOAD SWAP1 PUSH1 0x1 PUSH1 0x1 PUSH1 0x40 SHL SUB DUP3 GT PUSH2 0x32A JUMPI PUSH2 0x34A SWAP2 PUSH1 0x4 ADD PUSH2 0x32F JUMP JUMPDEST CALLVALUE PUSH2 0x32A JUMPI PUSH2 0x445 CALLDATASIZE PUSH2 0x40D JUMP JUMPDEST PUSH2 0x45A PUSH1 0x1 DUP1 PUSH1 0xA0 SHL SUB PUSH1 0x13 SLOAD AND CALLER EQ PUSH2 0x1582 JUMP JUMPDEST DUP1 MLOAD PUSH1 0x1 PUSH1 0x1 PUSH1 0x40 SHL SUB DUP2 GT PUSH2 0x238 JUMPI PUSH2 0x47E DUP2 PUSH2 0x479 PUSH1 0xD SLOAD PUSH2 0x94F JUMP JUMPDEST PUSH2 0x15BB JUMP JUMPDEST PUSH1 0x20 DUP1 PUSH1 0x1F DUP4 GT PUSH1 0x1 EQ PUSH2 0x4C0 JUMPI POP DUP2 SWAP1 PUSH2 0x4B0 SWAP4 PUSH1 0x0 SWAP3 PUSH2 0x4B5 JUMPI JUMPDEST POP POP DUP2 PUSH1 0x1 SHL SWAP2 PUSH1 0x0 NOT SWAP1 PUSH1 0x3 SHL SHR NOT AND OR SWAP1 JUMP JUMPDEST PUSH1 0xD SSTORE STOP JUMPDEST ADD MLOAD SWAP1 POP CODESIZE DUP1 PUSH2 0x49B JUMP JUMPDEST SWAP1 PUSH1 0x1F NOT DUP4 AND SWAP4 PUSH2 0x4F3 PUSH1 0xD PUSH1 0x0 MSTORE PUSH32 0xD7B6990105719101DABEB77144F2A3385C8033ACD3AF97E9423A695E81AD1EB5 SWAP1 JUMP JUMPDEST SWAP3 PUSH1 0x0 SWAP1 JUMPDEST DUP7 DUP3 LT PUSH2 0x52F JUMPI POP POP DUP4 PUSH1 0x1 SWAP6 LT PUSH2 0x516 JUMPI JUMPDEST POP POP POP DUP2 SHL ADD PUSH1 0xD SSTORE STOP JUMPDEST ADD MLOAD PUSH1 0x0 NOT PUSH1 0xF8 DUP5 PUSH1 0x3 SHL AND SHR NOT AND SWAP1 SSTORE CODESIZE DUP1 DUP1 PUSH2 0x50B JUMP JUMPDEST DUP1 PUSH1 0x1 DUP6 SWAP7 DUP3 SWAP5 SWAP7 DUP7 ADD MLOAD DUP2 SSTORE ADD SWAP6 ADD SWAP4 ADD SWAP1 PUSH2 0x4F8 JUMP JUMPDEST PUSH1 0x0 JUMPDEST DUP4 DUP2 LT PUSH2 0x55A JUMPI POP POP PUSH1 0x0 SWAP2 ADD MSTORE JUMP JUMPDEST DUP2 DUP2 ADD MLOAD DUP4 DUP3 ADD MSTORE PUSH1 0x20 ADD PUSH2 0x54A JUMP JUMPDEST SWAP1 PUSH1 0x20 SWAP2 PUSH2 0x583 DUP2 MLOAD DUP1 SWAP3 DUP2 DUP6 MSTORE DUP6 DUP1 DUP7 ADD SWAP2 ADD PUSH2 0x547 JUMP JUMPDEST PUSH1 0x1F ADD PUSH1 0x1F NOT AND ADD ADD SWAP1 JUMP JUMPDEST PUSH1 0x20 DUP2 MSTORE PUSH1 0x1 DUP1 PUSH1 0xA0 SHL SUB DUP3 MLOAD AND PUSH1 0x20 DUP3 ADD MSTORE PUSH1 0x20 DUP3 ADD MLOAD PUSH1 0x40 DUP3 ADD MSTORE PUSH1 0xE0 PUSH1 0xC0 PUSH2 0x5C9 PUSH1 0x40 DUP6 ADD MLOAD DUP4 PUSH1 0x60 DUP7 ADD MSTORE PUSH2 0x100 DUP6 ADD SWAP1 PUSH2 0x56A JUMP JUMPDEST SWAP4 PUSH1 0x60 DUP2 ADD MLOAD PUSH1 0x80 DUP6 ADD MSTORE PUSH1 0x80 DUP2 ADD MLOAD PUSH1 0xA0 DUP6 ADD MSTORE PUSH1 0xA0 DUP2 ADD MLOAD ISZERO ISZERO DUP3 DUP6 ADD MSTORE ADD MLOAD ISZERO ISZERO SWAP2 ADD MSTORE SWAP1 JUMP JUMPDEST CALLVALUE PUSH2 0x32A JUMPI PUSH1 0x20 CALLDATASIZE PUSH1 0x3 NOT ADD SLT PUSH2 0x32A JUMPI PUSH2 0x6BC PUSH1 0x40 DUP1 PUSH1 0xC0 DUP2 MLOAD PUSH2 0x617 DUP2 PUSH2 0x21D JUMP JUMPDEST PUSH1 0x0 SWAP2 DUP2 DUP4 DUP1 SWAP4 MSTORE DUP3 PUSH1 0x20 DUP3 ADD MSTORE PUSH1 0x60 DUP6 DUP3 ADD MSTORE DUP3 PUSH1 0x60 DUP3 ADD MSTORE DUP3 PUSH1 0x80 DUP3 ADD MSTORE DUP3 PUSH1 0xA0 DUP3 ADD MSTORE ADD MSTORE PUSH1 0x4 CALLDATALOAD DUP2 MSTORE PUSH1 0x3 PUSH1 0x20 MSTORE KECCAK256 SWAP1 PUSH2 0x6B2 PUSH1 0xFF PUSH1 0x5 DUP4 MLOAD SWAP5 PUSH2 0x65E DUP7 PUSH2 0x21D JUMP JUMPDEST DUP1 SLOAD PUSH1 0x1 PUSH1 0x1 PUSH1 0xA0 SHL SUB AND DUP7 MSTORE PUSH1 0x1 DUP2 ADD SLOAD PUSH1 0x20 DUP8 ADD MSTORE PUSH2 0x681 PUSH1 0x2 DUP3 ADD PUSH2 0xB82 JUMP JUMPDEST DUP7 DUP7 ADD MSTORE PUSH1 0x3 DUP2 ADD SLOAD PUSH1 0x60 DUP8 ADD MSTORE PUSH1 0x4 DUP2 ADD SLOAD PUSH1 0x80 DUP8 ADD MSTORE ADD SLOAD DUP2 DUP2 AND ISZERO ISZERO PUSH1 0xA0 DUP7 ADD MSTORE PUSH1 0x8 SHR AND ISZERO ISZERO PUSH1 0xC0 DUP5 ADD MSTORE JUMP JUMPDEST MLOAD SWAP2 DUP3 SWAP2 DUP3 PUSH2 0x58F JUMP JUMPDEST SUB SWAP1 RETURN JUMPDEST CALLVALUE PUSH2 0x32A JUMPI PUSH1 0x20 CALLDATASIZE PUSH1 0x3 NOT ADD SLT PUSH2 0x32A JUMPI PUSH1 0x4 CALLDATALOAD PUSH1 0x0 MSTORE PUSH1 0xF PUSH1 0x20 MSTORE PUSH1 0x20 PUSH1 0xFF PUSH1 0x40 PUSH1 0x0 KECCAK256 SLOAD AND PUSH1 0x40 MLOAD SWAP1 ISZERO ISZERO DUP2 MSTORE RETURN JUMPDEST CALLVALUE PUSH2 0x32A JUMPI PUSH1 0x0 CALLDATASIZE PUSH1 0x3 NOT ADD SLT PUSH2 0x32A JUMPI PUSH1 0x40 MLOAD PUSH32 0x0 PUSH1 0x1 PUSH1 0x1 PUSH1 0xA0 SHL SUB AND DUP2 MSTORE PUSH1 0x20 SWAP1 RETURN JUMPDEST PUSH1 0x24 CALLDATALOAD SWAP1 PUSH4 0xFFFFFFFF DUP3 AND DUP3 SUB PUSH2 0x32A JUMPI JUMP JUMPDEST CALLVALUE PUSH2 0x32A JUMPI PUSH1 0x60 CALLDATASIZE PUSH1 0x3 NOT ADD SLT PUSH2 0x32A JUMPI PUSH1 0x4 CALLDATALOAD PUSH1 0x1 PUSH1 0x1 PUSH1 0x40 SHL SUB DUP2 AND DUP2 SUB PUSH2 0x32A JUMPI PUSH2 0x775 PUSH2 0x736 JUMP JUMPDEST PUSH2 0x78A PUSH1 0x1 DUP1 PUSH1 0xA0 SHL SUB PUSH1 0x13 SLOAD AND CALLER EQ PUSH2 0x1582 JUMP JUMPDEST PUSH1 0xA DUP1 SLOAD PUSH12 0xFFFFFFFFFFFFFFFFFFFFFFFF PUSH1 0x50 SHL NOT AND PUSH1 0x50 SWAP4 SWAP1 SWAP4 SHL PUSH8 0xFFFFFFFFFFFFFFFF PUSH1 0x50 SHL AND SWAP3 SWAP1 SWAP3 OR PUSH1 0x90 SWAP2 SWAP1 SWAP2 SHL PUSH4 0xFFFFFFFF PUSH1 0x90 SHL AND OR SWAP1 SSTORE PUSH1 0x44 CALLDATALOAD PUSH1 0xB SSTORE STOP JUMPDEST SWAP2 DUP2 PUSH1 0x1F DUP5 ADD SLT ISZERO PUSH2 0x32A JUMPI DUP3 CALLDATALOAD SWAP2 PUSH1 0x1 PUSH1 0x1 PUSH1 0x40 SHL SUB DUP4 GT PUSH2 0x32A JUMPI PUSH1 0x20 DUP1 DUP6 ADD SWAP5 DUP5 PUSH1 0x5 SHL ADD ADD GT PUSH2 0x32A JUMPI JUMP JUMPDEST CALLVALUE PUSH2 0x32A JUMPI PUSH1 0x40 CALLDATASIZE PUSH1 0x3 NOT ADD SLT PUSH2 0x32A JUMPI PUSH1 0x4 CALLDATALOAD PUSH1 0x24 CALLDATALOAD PUSH1 0x1 PUSH1 0x1 PUSH1 0x40 SHL SUB DUP2 GT PUSH2 0x32A JUMPI PUSH2 0x834 SWAP1 CALLDATASIZE SWAP1 PUSH1 0x4 ADD PUSH2 0x7D1 JUMP JUMPDEST PUSH1 0x2 SLOAD SWAP2 SWAP3 SWAP1 SWAP2 PUSH1 0x1 PUSH1 0x1 PUSH1 0xA0 SHL SUB AND CALLER DUP2 SWAP1 SUB PUSH2 0x931 JUMPI POP DUP1 PUSH1 0x0 MSTORE PUSH1 0x4 PUSH1 0x20 MSTORE PUSH1 0x40 PUSH1 0x0 KECCAK256 SLOAD SWAP1 DUP2 ISZERO PUSH2 0x8F6 JUMPI PUSH2 0x3E7 NOT NUMBER ADD NUMBER DUP2 GT PUSH2 0x8F1 JUMPI DUP5 PUSH2 0x8D9 PUSH2 0x8B8 PUSH32 0x2374D5481494AD7962D4BD1B98B91E9F3117C9B66533B2804BE3D76C41A49088 SWAP4 PUSH2 0x8B2 PUSH2 0x8A9 DUP10 PUSH2 0x8EF SWAP12 PUSH2 0x2271 JUMP JUMPDEST CALLDATALOAD PUSH2 0x3E8 SWAP1 MOD SWAP1 JUMP JUMPDEST SWAP1 PUSH2 0x2296 JUMP JUMPDEST SWAP6 DUP7 SWAP3 DUP4 PUSH1 0x3 PUSH2 0x8D2 DUP10 PUSH1 0x0 MSTORE PUSH1 0x3 PUSH1 0x20 MSTORE PUSH1 0x40 PUSH1 0x0 KECCAK256 SWAP1 JUMP JUMPDEST ADD SSTORE PUSH2 0x2271 JUMP JUMPDEST PUSH1 0x40 DUP1 MLOAD SWAP2 CALLDATALOAD DUP3 MSTORE PUSH1 0x20 DUP3 ADD SWAP3 SWAP1 SWAP3 MSTORE LOG2 PUSH2 0x24C2 JUMP JUMPDEST STOP JUMPDEST PUSH2 0x16F5 JUMP JUMPDEST PUSH1 0x40 MLOAD PUSH3 0x461BCD PUSH1 0xE5 SHL DUP2 MSTORE PUSH1 0x20 PUSH1 0x4 DUP3 ADD MSTORE PUSH1 0x13 PUSH1 0x24 DUP3 ADD MSTORE PUSH19 0x125B9D985B1A5908159491881C995C5D595CDD PUSH1 0x6A SHL PUSH1 0x44 DUP3 ADD MSTORE PUSH1 0x64 SWAP1 REVERT JUMPDEST PUSH1 0x44 SWAP1 PUSH1 0x40 MLOAD SWAP1 PUSH4 0x73E64FD PUSH1 0xE2 SHL DUP3 MSTORE CALLER PUSH1 0x4 DUP4 ADD MSTORE PUSH1 0x24 DUP3 ADD MSTORE REVERT JUMPDEST SWAP1 PUSH1 0x1 DUP3 DUP2 SHR SWAP3 AND DUP1 ISZERO PUSH2 0x97F JUMPI JUMPDEST PUSH1 0x20 DUP4 LT EQ PUSH2 0x969 JUMPI JUMP JUMPDEST PUSH4 0x4E487B71 PUSH1 0xE0 SHL PUSH1 0x0 MSTORE PUSH1 0x22 PUSH1 0x4 MSTORE PUSH1 0x24 PUSH1 0x0 REVERT JUMPDEST SWAP2 PUSH1 0x7F AND SWAP2 PUSH2 0x95E JUMP JUMPDEST DUP1 SLOAD PUSH1 0x0 SWAP4 SWAP3 PUSH2 0x998 DUP3 PUSH2 0x94F JUMP JUMPDEST SWAP2 DUP3 DUP3 MSTORE PUSH1 0x20 SWAP4 PUSH1 0x1 SWAP2 PUSH1 0x1 DUP2 AND SWAP1 DUP2 PUSH1 0x0 EQ PUSH2 0xA00 JUMPI POP PUSH1 0x1 EQ PUSH2 0x9BF JUMPI JUMPDEST POP POP POP POP POP JUMP JUMPDEST SWAP1 SWAP4 SWAP5 SWAP6 POP PUSH1 0x0 SWAP3 SWAP2 SWAP3 MSTORE DUP4 PUSH1 0x0 KECCAK256 SWAP3 DUP5 PUSH1 0x0 SWAP5 JUMPDEST DUP4 DUP7 LT PUSH2 0x9EC JUMPI POP POP POP POP ADD ADD SWAP1 CODESIZE DUP1 DUP1 DUP1 DUP1 PUSH2 0x9B8 JUMP JUMPDEST DUP1 SLOAD DUP6 DUP8 ADD DUP4 ADD MSTORE SWAP5 ADD SWAP4 DUP6 SWAP1 DUP3 ADD PUSH2 0x9D4 JUMP JUMPDEST PUSH1 0xFF NOT AND DUP7 DUP6 ADD MSTORE POP POP POP SWAP1 ISZERO ISZERO PUSH1 0x5 SHL ADD ADD SWAP2 POP CODESIZE DUP1 DUP1 DUP1 DUP1 PUSH2 0x9B8 JUMP JUMPDEST PUSH1 0x40 MLOAD SWAP1 PUSH1 0x0 DUP3 PUSH1 0xC SLOAD SWAP2 PUSH2 0xA33 DUP4 PUSH2 0x94F JUMP JUMPDEST DUP1 DUP4 MSTORE SWAP3 PUSH1 0x20 SWAP1 PUSH1 0x1 SWAP1 DUP2 DUP2 AND SWAP1 DUP2 ISZERO PUSH2 0xABF JUMPI POP PUSH1 0x1 EQ PUSH2 0xA5E JUMPI JUMPDEST POP POP PUSH2 0x2BC SWAP3 POP SUB DUP4 PUSH2 0x28E JUMP JUMPDEST SWAP2 POP SWAP3 PUSH1 0xC PUSH1 0x0 MSTORE PUSH32 0xDF6966C971051C3D54EC59162606531493A51404A002842F56009D7E5CF4A8C7 SWAP4 PUSH1 0x0 SWAP3 JUMPDEST DUP3 DUP5 LT PUSH2 0xAA7 JUMPI POP PUSH2 0x2BC SWAP5 POP POP POP DUP2 ADD PUSH1 0x20 ADD CODESIZE DUP1 PUSH2 0xA50 JUMP JUMPDEST DUP6 SLOAD DUP9 DUP6 ADD DUP4 ADD MSTORE SWAP5 DUP6 ADD SWAP5 DUP8 SWAP5 POP SWAP3 DUP2 ADD SWAP3 PUSH2 0xA8C JUMP JUMPDEST SWAP2 POP POP PUSH1 0x20 SWAP3 POP PUSH2 0x2BC SWAP5 SWAP2 POP PUSH1 0xFF NOT AND DUP3 DUP5 ADD MSTORE ISZERO ISZERO PUSH1 0x5 SHL DUP3 ADD ADD CODESIZE DUP1 PUSH2 0xA50 JUMP JUMPDEST PUSH1 0x40 MLOAD SWAP1 PUSH1 0x0 DUP3 PUSH1 0xD SLOAD SWAP2 PUSH2 0xAF7 DUP4 PUSH2 0x94F JUMP JUMPDEST DUP1 DUP4 MSTORE SWAP3 PUSH1 0x20 SWAP1 PUSH1 0x1 SWAP1 DUP2 DUP2 AND SWAP1 DUP2 ISZERO PUSH2 0xABF JUMPI POP PUSH1 0x1 EQ PUSH2 0xB21 JUMPI POP POP PUSH2 0x2BC SWAP3 POP SUB DUP4 PUSH2 0x28E JUMP JUMPDEST SWAP2 POP SWAP3 PUSH1 0xD PUSH1 0x0 MSTORE PUSH32 0xD7B6990105719101DABEB77144F2A3385C8033ACD3AF97E9423A695E81AD1EB5 SWAP4 PUSH1 0x0 SWAP3 JUMPDEST DUP3 DUP5 LT PUSH2 0xB6A JUMPI POP PUSH2 0x2BC SWAP5 POP POP POP DUP2 ADD PUSH1 0x20 ADD CODESIZE DUP1 PUSH2 0xA50 JUMP JUMPDEST DUP6 SLOAD DUP9 DUP6 ADD DUP4 ADD MSTORE SWAP5 DUP6 ADD SWAP5 DUP8 SWAP5 POP SWAP3 DUP2 ADD SWAP3 PUSH2 0xB4F JUMP JUMPDEST SWAP1 PUSH2 0x2BC PUSH2 0xB96 SWAP3 PUSH1 0x40 MLOAD SWAP4 DUP5 DUP1 SWAP3 PUSH2 0x989 JUMP JUMPDEST SUB DUP4 PUSH2 0x28E JUMP JUMPDEST SWAP6 SWAP3 PUSH1 0xC0 SWAP6 SWAP3 PUSH2 0xBCB SWAP3 SWAP10 SWAP9 SWAP6 SWAP10 PUSH1 0x1 DUP1 PUSH1 0xA0 SHL SUB AND DUP9 MSTORE PUSH1 0x20 DUP9 ADD MSTORE PUSH1 0xE0 PUSH1 0x40 DUP9 ADD MSTORE PUSH1 0xE0 DUP8 ADD SWAP1 PUSH2 0x56A JUMP JUMPDEST SWAP7 PUSH1 0x60 DUP7 ADD MSTORE PUSH1 0x80 DUP6 ADD MSTORE ISZERO ISZERO PUSH1 0xA0 DUP5 ADD MSTORE ISZERO ISZERO SWAP2 ADD MSTORE JUMP JUMPDEST CALLVALUE PUSH2 0x32A JUMPI PUSH1 0x20 CALLDATASIZE PUSH1 0x3 NOT ADD SLT PUSH2 0x32A JUMPI PUSH1 0x4 CALLDATALOAD PUSH1 0x0 MSTORE PUSH1 0x3 PUSH1 0x20 MSTORE PUSH1 0x40 PUSH1 0x0 KECCAK256 PUSH1 0x1 DUP1 PUSH1 0xA0 SHL SUB DUP2 SLOAD AND SWAP1 PUSH2 0x6BC PUSH1 0x1 DUP3 ADD SLOAD SWAP2 PUSH1 0x40 MLOAD SWAP4 PUSH2 0xC35 DUP6 PUSH2 0xC2E DUP2 PUSH1 0x2 DUP7 ADD PUSH2 0x989 JUMP JUMPDEST SUB DUP7 PUSH2 0x28E JUMP JUMPDEST PUSH1 0x3 DUP3 ADD SLOAD SWAP2 PUSH1 0x5 PUSH1 0x4 DUP3 ADD SLOAD SWAP2 ADD SLOAD SWAP3 PUSH1 0x40 MLOAD SWAP7 DUP8 SWAP7 PUSH1 0xFF DUP1 DUP8 PUSH1 0x8 SHR AND SWAP7 AND SWAP5 DUP9 PUSH2 0xB9D JUMP JUMPDEST CALLVALUE PUSH2 0x32A JUMPI PUSH2 0xC6B CALLDATASIZE PUSH2 0x40D JUMP JUMPDEST PUSH2 0xC80 PUSH1 0x1 DUP1 PUSH1 0xA0 SHL SUB PUSH1 0x13 SLOAD AND CALLER EQ PUSH2 0x1582 JUMP JUMPDEST DUP1 MLOAD PUSH1 0x1 PUSH1 0x1 PUSH1 0x40 SHL SUB DUP2 GT PUSH2 0x238 JUMPI PUSH2 0xCA4 DUP2 PUSH2 0xC9F PUSH1 0xC SLOAD PUSH2 0x94F JUMP JUMPDEST PUSH2 0x162D JUMP JUMPDEST PUSH1 0x20 DUP1 PUSH1 0x1F DUP4 GT PUSH1 0x1 EQ PUSH2 0xCDA JUMPI POP DUP2 SWAP1 PUSH2 0xCD5 SWAP4 PUSH1 0x0 SWAP3 PUSH2 0x4B5 JUMPI POP POP DUP2 PUSH1 0x1 SHL SWAP2 PUSH1 0x0 NOT SWAP1 PUSH1 0x3 SHL SHR NOT AND OR SWAP1 JUMP JUMPDEST PUSH1 0xC SSTORE STOP JUMPDEST SWAP1 PUSH1 0x1F NOT DUP4 AND SWAP4 PUSH2 0xD0D PUSH1 0xC PUSH1 0x0 MSTORE PUSH32 0xDF6966C971051C3D54EC59162606531493A51404A002842F56009D7E5CF4A8C7 SWAP1 JUMP JUMPDEST SWAP3 PUSH1 0x0 SWAP1 JUMPDEST DUP7 DUP3 LT PUSH2 0xD49 JUMPI POP POP DUP4 PUSH1 0x1 SWAP6 LT PUSH2 0xD30 JUMPI JUMPDEST POP POP POP DUP2 SHL ADD PUSH1 0xC SSTORE STOP JUMPDEST ADD MLOAD PUSH1 0x0 NOT PUSH1 0xF8 DUP5 PUSH1 0x3 SHL AND SHR NOT AND SWAP1 SSTORE CODESIZE DUP1 DUP1 PUSH2 0xD25 JUMP JUMPDEST DUP1 PUSH1 0x1 DUP6 SWAP7 DUP3 SWAP5 SWAP7 DUP7 ADD MLOAD DUP2 SSTORE ADD SWAP6 ADD SWAP4 ADD SWAP1 PUSH2 0xD12 JUMP JUMPDEST PUSH4 0x4E487B71 PUSH1 0xE0 SHL PUSH1 0x0 MSTORE PUSH1 0x32 PUSH1 0x4 MSTORE PUSH1 0x24 PUSH1 0x0 REVERT JUMPDEST CALLVALUE PUSH2 0x32A JUMPI PUSH1 0x40 CALLDATASIZE PUSH1 0x3 NOT ADD SLT PUSH2 0x32A JUMPI PUSH1 0x24 CALLDATALOAD PUSH1 0x0 SWAP1 PUSH1 0x4 CALLDATALOAD DUP3 MSTORE PUSH1 0x10 PUSH1 0x20 MSTORE PUSH1 0x40 DUP3 KECCAK256 DUP1 SLOAD DUP3 LT ISZERO PUSH2 0xDB7 JUMPI DUP3 MSTORE PUSH1 0x20 SWAP2 DUP3 SWAP1 KECCAK256 ADD SLOAD PUSH1 0x40 MLOAD SWAP1 DUP2 MSTORE RETURN JUMPDEST DUP3 DUP1 REVERT JUMPDEST PUSH1 0x4 CALLDATALOAD SWAP1 PUSH1 0x1 PUSH1 0x1 PUSH1 0xA0 SHL SUB DUP3 AND DUP3 SUB PUSH2 0x32A JUMPI JUMP JUMPDEST CALLVALUE PUSH2 0x32A JUMPI PUSH1 0x40 CALLDATASIZE PUSH1 0x3 NOT ADD SLT PUSH2 0x32A JUMPI PUSH2 0xDEA PUSH2 0xDBB JUMP JUMPDEST PUSH1 0x24 CALLDATALOAD DUP1 ISZERO ISZERO DUP2 SUB PUSH2 0x32A JUMPI PUSH1 0x13 SLOAD PUSH2 0x8EF SWAP3 PUSH1 0x1 PUSH1 0x1 PUSH1 0xA0 SHL SUB SWAP2 PUSH2 0xE13 SWAP1 DUP4 AND CALLER EQ PUSH2 0x1582 JUMP JUMPDEST AND PUSH1 0x0 MSTORE PUSH1 0x12 PUSH1 0x20 MSTORE PUSH1 0x40 PUSH1 0x0 KECCAK256 SWAP1 PUSH1 0xFF DUP1 NOT DUP4 SLOAD AND SWAP2 ISZERO ISZERO AND OR SWAP1 SSTORE JUMP JUMPDEST SWAP1 PUSH1 0x20 PUSH1 0x3 NOT DUP4 ADD SLT PUSH2 0x32A JUMPI PUSH1 0x4 CALLDATALOAD PUSH1 0x1 PUSH1 0x1 PUSH1 0x40 SHL SUB SWAP3 DUP4 DUP3 GT PUSH2 0x32A JUMPI DUP1 PUSH1 0x23 DUP4 ADD SLT ISZERO PUSH2 0x32A JUMPI DUP2 PUSH1 0x4 ADD CALLDATALOAD SWAP4 DUP5 GT PUSH2 0x32A JUMPI PUSH1 0x24 DUP5 DUP4 ADD ADD GT PUSH2 0x32A JUMPI PUSH1 0x24 ADD SWAP2 SWAP1 JUMP JUMPDEST CALLVALUE PUSH2 0x32A JUMPI PUSH2 0xE89 CALLDATASIZE PUSH2 0xE32 JUMP JUMPDEST POP POP PUSH1 0x6 SLOAD TIMESTAMP SUB TIMESTAMP DUP2 GT PUSH2 0x8F1 JUMPI PUSH2 0xEA4 SWAP1 PUSH1 0x7 SLOAD LT PUSH2 0x1736 JUMP JUMPDEST PUSH2 0xEAD TIMESTAMP PUSH1 0x6 SSTORE JUMP JUMPDEST PUSH1 0x40 DUP1 MLOAD PUSH4 0x2BF7F019 PUSH1 0xE1 SHL DUP2 MSTORE PUSH1 0x4 DUP2 ADD SWAP2 SWAP1 SWAP2 MSTORE PUSH1 0x8 PUSH1 0x44 DUP3 ADD MSTORE PUSH8 0x657468657265756D PUSH1 0xC0 SHL PUSH1 0x64 DUP3 ADD MSTORE PUSH1 0x0 PUSH1 0x24 DUP3 ADD MSTORE PUSH1 0x20 DUP2 DUP1 PUSH1 0x84 DUP2 ADD SUB DUP2 PUSH1 0x0 ADDRESS GAS CALL DUP1 ISZERO PUSH2 0xF25 JUMPI PUSH2 0xEFD JUMPI STOP JUMPDEST PUSH2 0x8EF SWAP1 PUSH1 0x20 RETURNDATASIZE PUSH1 0x20 GT PUSH2 0xF1E JUMPI JUMPDEST PUSH2 0xF16 DUP2 DUP4 PUSH2 0x28E JUMP JUMPDEST DUP2 ADD SWAP1 PUSH2 0x1776 JUMP JUMPDEST POP RETURNDATASIZE PUSH2 0xF0C JUMP JUMPDEST PUSH2 0x1785 JUMP JUMPDEST CALLVALUE PUSH2 0x32A JUMPI PUSH1 0x20 CALLDATASIZE PUSH1 0x3 NOT ADD SLT PUSH2 0x32A JUMPI PUSH1 0x1 PUSH1 0x1 PUSH1 0xA0 SHL SUB PUSH2 0xF4B PUSH2 0xDBB JUMP JUMPDEST AND PUSH1 0x0 MSTORE PUSH1 0x12 PUSH1 0x20 MSTORE PUSH1 0x20 PUSH1 0xFF PUSH1 0x40 PUSH1 0x0 KECCAK256 SLOAD AND PUSH1 0x40 MLOAD SWAP1 ISZERO ISZERO DUP2 MSTORE RETURN JUMPDEST CALLVALUE PUSH2 0x32A JUMPI PUSH1 0x20 CALLDATASIZE PUSH1 0x3 NOT ADD SLT PUSH2 0x32A JUMPI PUSH1 0x4 CALLDATALOAD PUSH1 0x0 MSTORE PUSH1 0x4 PUSH1 0x20 MSTORE PUSH1 0x20 PUSH1 0x40 PUSH1 0x0 KECCAK256 SLOAD PUSH1 0x40 MLOAD SWAP1 DUP2 MSTORE RETURN JUMPDEST CALLVALUE PUSH2 0x32A JUMPI PUSH1 0x40 CALLDATASIZE PUSH1 0x3 NOT ADD SLT PUSH2 0x32A JUMPI PUSH1 0x4 CALLDATALOAD PUSH1 0x1 PUSH1 0x1 PUSH1 0x40 SHL SUB DUP2 GT PUSH2 0x32A JUMPI PUSH2 0xFC8 PUSH2 0x6BC SWAP2 CALLDATASIZE SWAP1 PUSH1 0x4 ADD PUSH2 0x32F JUMP JUMPDEST PUSH1 0x24 CALLDATALOAD PUSH2 0x102E PUSH2 0xFD9 PUSH1 0x5 SLOAD PUSH2 0x1791 JUMP JUMPDEST SWAP3 PUSH2 0xFE3 DUP5 PUSH1 0x5 SSTORE JUMP JUMPDEST PUSH2 0xFEB PUSH2 0x2AF JUMP JUMPDEST CALLER DUP2 MSTORE SWAP1 TIMESTAMP PUSH1 0x20 DUP4 ADD MSTORE PUSH1 0x40 DUP3 ADD MSTORE DUP3 PUSH1 0x60 DUP3 ADD MSTORE PUSH1 0x0 PUSH1 0x80 DUP3 ADD MSTORE PUSH1 0x0 PUSH1 0xA0 DUP3 ADD MSTORE PUSH1 0x0 PUSH1 0xC0 DUP3 ADD MSTORE PUSH2 0x1029 DUP5 PUSH1 0x0 MSTORE PUSH1 0x3 PUSH1 0x20 MSTORE PUSH1 0x40 PUSH1 0x0 KECCAK256 SWAP1 JUMP JUMPDEST PUSH2 0x17A0 JUMP JUMPDEST DUP1 PUSH2 0x1085 JUMPI PUSH2 0x103C DUP3 PUSH2 0x26D4 JUMP JUMPDEST DUP2 PUSH32 0x7EF8CA77FDC89C79F093F2A6B2348B1FCDA0BEB941CE31CE9F2D9D260C4DB9D2 PUSH1 0x40 MLOAD DUP1 PUSH2 0x1072 CALLER SWAP6 DUP3 SWAP2 SWAP1 PUSH1 0x20 DUP4 ADD SWAP3 MSTORE JUMP JUMPDEST SUB SWAP1 LOG3 PUSH1 0x40 MLOAD SWAP1 DUP2 MSTORE SWAP1 DUP2 SWAP1 PUSH1 0x20 DUP3 ADD SWAP1 JUMP JUMPDEST PUSH2 0x108F DUP2 DUP4 PUSH2 0x24C2 JUMP JUMPDEST PUSH2 0x103C JUMP JUMPDEST CALLVALUE PUSH2 0x32A JUMPI PUSH1 0x0 CALLDATASIZE PUSH1 0x3 NOT ADD SLT PUSH2 0x32A JUMPI PUSH1 0x20 PUSH1 0x7 SLOAD PUSH1 0x40 MLOAD SWAP1 DUP2 MSTORE RETURN JUMPDEST CALLVALUE PUSH2 0x32A JUMPI PUSH1 0x0 CALLDATASIZE PUSH1 0x3 NOT ADD SLT PUSH2 0x32A JUMPI PUSH1 0x20 PUSH1 0x6 SLOAD PUSH1 0x40 MLOAD SWAP1 DUP2 MSTORE RETURN JUMPDEST CALLVALUE PUSH2 0x32A JUMPI PUSH2 0x10DE CALLDATASIZE PUSH2 0xE32 JUMP JUMPDEST POP POP PUSH1 0x6 SLOAD TIMESTAMP SUB TIMESTAMP DUP2 GT PUSH2 0x8F1 JUMPI PUSH1 0x7 SLOAD LT PUSH1 0x40 MLOAD SWAP1 PUSH2 0x10FD DUP3 PUSH2 0x258 JUMP JUMPDEST PUSH1 0x0 DUP3 MSTORE PUSH2 0x6BC PUSH1 0x40 MLOAD SWAP3 DUP4 SWAP3 DUP4 MSTORE PUSH1 0x40 PUSH1 0x20 DUP5 ADD MSTORE PUSH1 0x40 DUP4 ADD SWAP1 PUSH2 0x56A JUMP JUMPDEST CALLVALUE PUSH2 0x32A JUMPI PUSH1 0x20 CALLDATASIZE PUSH1 0x3 NOT ADD SLT PUSH2 0x32A JUMPI PUSH2 0x1143 PUSH1 0x1 DUP1 PUSH1 0xA0 SHL SUB PUSH1 0x13 SLOAD AND CALLER EQ PUSH2 0x1582 JUMP JUMPDEST PUSH1 0x4 CALLDATALOAD PUSH1 0x7 SSTORE STOP JUMPDEST CALLVALUE PUSH2 0x32A JUMPI PUSH1 0x0 DUP1 PUSH1 0x3 NOT CALLDATASIZE ADD SLT PUSH2 0x1207 JUMPI PUSH1 0x1 SLOAD PUSH1 0x1 PUSH1 0x1 PUSH1 0xA0 SHL SUB SWAP1 DUP2 AND CALLER SUB PUSH2 0x11C9 JUMPI DUP2 SLOAD PUSH1 0x1 PUSH1 0x1 PUSH1 0xA0 SHL SUB AND PUSH1 0x0 DUP1 SLOAD PUSH1 0x1 PUSH1 0x1 PUSH1 0xA0 SHL SUB NOT AND CALLER OR SWAP1 SSTORE SWAP1 PUSH1 0x1 DUP1 SLOAD PUSH1 0x1 PUSH1 0x1 PUSH1 0xA0 SHL SUB NOT AND SWAP1 SSTORE CALLER SWAP2 AND PUSH32 0x8BE0079C531659141344CD1FD0A4F28419497F9722A3DAAFE3B4186F6B6457E0 DUP4 DUP1 LOG3 DUP1 RETURN JUMPDEST PUSH1 0x40 MLOAD PUSH3 0x461BCD PUSH1 0xE5 SHL DUP2 MSTORE PUSH1 0x20 PUSH1 0x4 DUP3 ADD MSTORE PUSH1 0x16 PUSH1 0x24 DUP3 ADD MSTORE PUSH22 0x26BAB9BA10313290383937B837B9B2B21037BBB732B9 PUSH1 0x51 SHL PUSH1 0x44 DUP3 ADD MSTORE PUSH1 0x64 SWAP1 REVERT JUMPDEST DUP1 REVERT JUMPDEST CALLVALUE PUSH2 0x32A JUMPI PUSH1 0x0 CALLDATASIZE PUSH1 0x3 NOT ADD SLT PUSH2 0x32A JUMPI PUSH1 0x0 SLOAD PUSH1 0x40 MLOAD PUSH1 0x1 PUSH1 0x1 PUSH1 0xA0 SHL SUB SWAP1 SWAP2 AND DUP2 MSTORE PUSH1 0x20 SWAP1 RETURN JUMPDEST CALLVALUE PUSH2 0x32A JUMPI PUSH1 0x20 CALLDATASIZE PUSH1 0x3 NOT ADD SLT PUSH2 0x32A JUMPI PUSH2 0x124C PUSH2 0xDBB JUMP JUMPDEST PUSH1 0x0 SLOAD PUSH1 0x1 PUSH1 0x1 PUSH1 0xA0 SHL SUB SWAP1 DUP2 AND SWAP1 CALLER DUP3 EQ ISZERO DUP1 PUSH2 0x129A JUMPI JUMPDEST PUSH2 0x1272 JUMPI PUSH2 0x8EF DUP4 PUSH2 0x1925 JUMP JUMPDEST PUSH1 0x64 SWAP3 POP PUSH1 0x2 SLOAD AND PUSH1 0x40 MLOAD SWAP2 PUSH4 0x61DB9C1 PUSH1 0xE0 SHL DUP4 MSTORE CALLER PUSH1 0x4 DUP5 ADD MSTORE PUSH1 0x24 DUP4 ADD MSTORE PUSH1 0x44 DUP3 ADD MSTORE REVERT JUMPDEST POP DUP1 PUSH1 0x2 SLOAD AND CALLER EQ ISZERO PUSH2 0x1265 JUMP JUMPDEST CALLVALUE PUSH2 0x32A JUMPI PUSH1 0x0 CALLDATASIZE PUSH1 0x3 NOT ADD SLT PUSH2 0x32A JUMPI PUSH1 0x20 PUSH1 0x5 SLOAD PUSH1 0x40 MLOAD SWAP1 DUP2 MSTORE RETURN JUMPDEST CALLVALUE PUSH2 0x32A JUMPI PUSH1 0x0 CALLDATASIZE PUSH1 0x3 NOT ADD SLT PUSH2 0x32A JUMPI PUSH1 0x2 SLOAD PUSH1 0x40 MLOAD PUSH1 0x1 PUSH1 0x1 PUSH1 0xA0 SHL SUB SWAP1 SWAP2 AND DUP2 MSTORE PUSH1 0x20 SWAP1 RETURN JUMPDEST CALLVALUE PUSH2 0x32A JUMPI PUSH1 0x60 CALLDATASIZE PUSH1 0x3 NOT ADD SLT PUSH2 0x32A JUMPI PUSH1 0x44 CALLDATALOAD PUSH4 0xFFFFFFFF DUP2 AND DUP1 SWAP2 SUB PUSH2 0x32A JUMPI PUSH2 0x1326 PUSH1 0x1 DUP1 PUSH1 0xA0 SHL SUB PUSH1 0x13 SLOAD AND CALLER EQ PUSH2 0x1582 JUMP JUMPDEST PUSH1 0x4 CALLDATALOAD PUSH1 0x8 SSTORE PUSH1 0x24 CALLDATALOAD PUSH1 0x9 SSTORE PUSH4 0xFFFFFFFF NOT PUSH1 0xA SLOAD AND OR PUSH1 0xA SSTORE PUSH1 0x0 DUP1 RETURN JUMPDEST CALLVALUE PUSH2 0x32A JUMPI PUSH1 0x0 CALLDATASIZE PUSH1 0x3 NOT ADD SLT PUSH2 0x32A JUMPI PUSH1 0x13 SLOAD PUSH1 0x40 MLOAD PUSH1 0x1 PUSH1 0x1 PUSH1 0xA0 SHL SUB SWAP1 SWAP2 AND DUP2 MSTORE PUSH1 0x20 SWAP1 RETURN JUMPDEST CALLVALUE PUSH2 0x32A JUMPI PUSH1 0x40 CALLDATASIZE PUSH1 0x3 NOT ADD SLT PUSH2 0x32A JUMPI PUSH1 0x1 PUSH1 0x1 PUSH1 0x40 SHL SUB PUSH1 0x4 CALLDATALOAD DUP2 DUP2 GT PUSH2 0x32A JUMPI PUSH2 0x139F SWAP1 CALLDATASIZE SWAP1 PUSH1 0x4 ADD PUSH2 0x7D1 JUMP JUMPDEST SWAP2 PUSH1 0x24 CALLDATALOAD SWAP1 DUP2 GT PUSH2 0x32A JUMPI PUSH2 0x13B8 SWAP1 CALLDATASIZE SWAP1 PUSH1 0x4 ADD PUSH2 0x7D1 JUMP JUMPDEST SWAP1 CALLER PUSH1 0x0 MSTORE PUSH1 0x12 PUSH1 0x20 MSTORE PUSH1 0xFF PUSH1 0x40 PUSH1 0x0 KECCAK256 SLOAD AND DUP1 ISZERO PUSH2 0x142A JUMPI JUMPDEST ISZERO PUSH2 0x13F4 JUMPI PUSH2 0x6BC SWAP4 PUSH2 0x13E4 SWAP4 PUSH2 0x1CB1 JUMP JUMPDEST PUSH1 0x40 MLOAD SWAP1 DUP2 MSTORE SWAP1 DUP2 SWAP1 PUSH1 0x20 DUP3 ADD SWAP1 JUMP JUMPDEST PUSH1 0x40 MLOAD PUSH3 0x461BCD PUSH1 0xE5 SHL DUP2 MSTORE PUSH1 0x20 PUSH1 0x4 DUP3 ADD MSTORE PUSH1 0xE PUSH1 0x24 DUP3 ADD MSTORE PUSH14 0x139BDD08185D5D1A1BDC9A5E9959 PUSH1 0x92 SHL PUSH1 0x44 DUP3 ADD MSTORE PUSH1 0x64 SWAP1 REVERT JUMPDEST POP PUSH1 0x13 SLOAD PUSH1 0x1 PUSH1 0x1 PUSH1 0xA0 SHL SUB AND CALLER EQ PUSH2 0x13D2 JUMP JUMPDEST CALLVALUE PUSH2 0x32A JUMPI PUSH1 0x20 CALLDATASIZE PUSH1 0x3 NOT ADD SLT PUSH2 0x32A JUMPI PUSH1 0x4 CALLDATALOAD PUSH1 0x0 MSTORE PUSH1 0x11 PUSH1 0x20 MSTORE PUSH1 0x20 PUSH1 0xFF PUSH1 0x40 PUSH1 0x0 KECCAK256 SLOAD AND PUSH1 0x40 MLOAD SWAP1 ISZERO ISZERO DUP2 MSTORE RETURN JUMPDEST CALLVALUE PUSH2 0x32A JUMPI PUSH1 0x0 CALLDATASIZE PUSH1 0x3 NOT ADD SLT PUSH2 0x32A JUMPI PUSH1 0x20 PUSH1 0x8 SLOAD PUSH1 0x40 MLOAD SWAP1 DUP2 MSTORE RETURN JUMPDEST CALLVALUE PUSH2 0x32A JUMPI PUSH1 0x20 CALLDATASIZE PUSH1 0x3 NOT ADD SLT PUSH2 0x32A JUMPI PUSH2 0x14A6 PUSH2 0xDBB JUMP JUMPDEST PUSH1 0x0 SLOAD PUSH1 0x1 PUSH1 0x1 PUSH1 0xA0 SHL SUB SWAP1 DUP2 AND SWAP2 CALLER DUP4 SWAP1 SUB PUSH2 0x1544 JUMPI AND SWAP1 CALLER DUP3 EQ PUSH2 0x14FF JUMPI PUSH1 0x1 DUP1 SLOAD PUSH1 0x1 PUSH1 0x1 PUSH1 0xA0 SHL SUB NOT AND DUP4 OR SWAP1 SSTORE PUSH32 0xED8889F560326EB138920D842192F0EB3DD22B4F139C87A2C57538E05BAE1278 PUSH1 0x0 DUP1 LOG3 STOP JUMPDEST PUSH1 0x40 MLOAD PUSH3 0x461BCD PUSH1 0xE5 SHL DUP2 MSTORE PUSH1 0x20 PUSH1 0x4 DUP3 ADD MSTORE PUSH1 0x17 PUSH1 0x24 DUP3 ADD MSTORE PUSH32 0x43616E6E6F74207472616E7366657220746F2073656C66000000000000000000 PUSH1 0x44 DUP3 ADD MSTORE PUSH1 0x64 SWAP1 REVERT JUMPDEST PUSH1 0x40 MLOAD PUSH3 0x461BCD PUSH1 0xE5 SHL DUP2 MSTORE PUSH1 0x20 PUSH1 0x4 DUP3 ADD MSTORE PUSH1 0x16 PUSH1 0x24 DUP3 ADD MSTORE PUSH22 0x27B7363C9031B0B63630B1363290313C9037BBB732B9 PUSH1 0x51 SHL PUSH1 0x44 DUP3 ADD MSTORE PUSH1 0x64 SWAP1 REVERT JUMPDEST ISZERO PUSH2 0x1589 JUMPI JUMP JUMPDEST PUSH1 0x40 MLOAD PUSH3 0x461BCD PUSH1 0xE5 SHL DUP2 MSTORE PUSH1 0x20 PUSH1 0x4 DUP3 ADD MSTORE PUSH1 0xA PUSH1 0x24 DUP3 ADD MSTORE PUSH10 0x27B7363C9037BBB732B9 PUSH1 0xB1 SHL PUSH1 0x44 DUP3 ADD MSTORE PUSH1 0x64 SWAP1 REVERT JUMPDEST PUSH1 0x1F DUP2 GT PUSH2 0x15C7 JUMPI POP POP JUMP JUMPDEST PUSH1 0x0 SWAP1 PUSH1 0xD PUSH1 0x0 MSTORE PUSH32 0xD7B6990105719101DABEB77144F2A3385C8033ACD3AF97E9423A695E81AD1EB5 SWAP1 PUSH1 0x20 PUSH1 0x1F DUP6 ADD PUSH1 0x5 SHR DUP4 ADD SWAP5 LT PUSH2 0x1623 JUMPI JUMPDEST PUSH1 0x1F ADD PUSH1 0x5 SHR ADD SWAP2 JUMPDEST DUP3 DUP2 LT PUSH2 0x1618 JUMPI POP POP POP JUMP JUMPDEST DUP2 DUP2 SSTORE PUSH1 0x1 ADD PUSH2 0x160C JUMP JUMPDEST SWAP1 SWAP3 POP DUP3 SWAP1 PUSH2 0x1603 JUMP JUMPDEST PUSH1 0x1F DUP2 GT PUSH2 0x1639 JUMPI POP POP JUMP JUMPDEST PUSH1 0x0 SWAP1 PUSH1 0xC PUSH1 0x0 MSTORE PUSH32 0xDF6966C971051C3D54EC59162606531493A51404A002842F56009D7E5CF4A8C7 SWAP1 PUSH1 0x20 PUSH1 0x1F DUP6 ADD PUSH1 0x5 SHR DUP4 ADD SWAP5 LT PUSH2 0x1695 JUMPI JUMPDEST PUSH1 0x1F ADD PUSH1 0x5 SHR ADD SWAP2 JUMPDEST DUP3 DUP2 LT PUSH2 0x168A JUMPI POP POP POP JUMP JUMPDEST DUP2 DUP2 SSTORE PUSH1 0x1 ADD PUSH2 0x167E JUMP JUMPDEST SWAP1 SWAP3 POP DUP3 SWAP1 PUSH2 0x1675 JUMP JUMPDEST SWAP1 PUSH1 0x1F DUP2 GT PUSH2 0x16AD JUMPI POP POP POP JUMP JUMPDEST PUSH1 0x0 SWAP2 PUSH1 0x0 MSTORE PUSH1 0x20 PUSH1 0x0 KECCAK256 SWAP1 PUSH1 0x20 PUSH1 0x1F DUP6 ADD PUSH1 0x5 SHR DUP4 ADD SWAP5 LT PUSH2 0x16EB JUMPI JUMPDEST PUSH1 0x1F ADD PUSH1 0x5 SHR ADD SWAP2 JUMPDEST DUP3 DUP2 LT PUSH2 0x16E0 JUMPI POP POP POP JUMP JUMPDEST DUP2 DUP2 SSTORE PUSH1 0x1 ADD PUSH2 0x16D4 JUMP JUMPDEST SWAP1 SWAP3 POP DUP3 SWAP1 PUSH2 0x16CB JUMP JUMPDEST PUSH4 0x4E487B71 PUSH1 0xE0 SHL PUSH1 0x0 MSTORE PUSH1 0x11 PUSH1 0x4 MSTORE PUSH1 0x24 PUSH1 0x0 REVERT JUMPDEST PUSH1 0x0 NOT DUP2 ADD SWAP2 SWAP1 DUP3 GT PUSH2 0x8F1 JUMPI JUMP JUMPDEST PUSH1 0x1F NOT DUP2 ADD SWAP2 SWAP1 DUP3 GT PUSH2 0x8F1 JUMPI JUMP JUMPDEST SWAP2 SWAP1 DUP3 SUB SWAP2 DUP3 GT PUSH2 0x8F1 JUMPI JUMP JUMPDEST ISZERO PUSH2 0x173D JUMPI JUMP JUMPDEST PUSH1 0x40 MLOAD PUSH3 0x461BCD PUSH1 0xE5 SHL DUP2 MSTORE PUSH1 0x20 PUSH1 0x4 DUP3 ADD MSTORE PUSH1 0x11 PUSH1 0x24 DUP3 ADD MSTORE PUSH17 0x155C1AD9595C081B9BDD081B9959591959 PUSH1 0x7A SHL PUSH1 0x44 DUP3 ADD MSTORE PUSH1 0x64 SWAP1 REVERT JUMPDEST SWAP1 DUP2 PUSH1 0x20 SWAP2 SUB SLT PUSH2 0x32A JUMPI MLOAD SWAP1 JUMP JUMPDEST PUSH1 0x40 MLOAD RETURNDATASIZE PUSH1 0x0 DUP3 RETURNDATACOPY RETURNDATASIZE SWAP1 REVERT JUMPDEST PUSH1 0x0 NOT DUP2 EQ PUSH2 0x8F1 JUMPI PUSH1 0x1 ADD SWAP1 JUMP JUMPDEST DUP2 MLOAD DUP2 SLOAD PUSH1 0x1 PUSH1 0x1 PUSH1 0xA0 SHL SUB NOT AND PUSH1 0x1 PUSH1 0x1 PUSH1 0xA0 SHL SUB SWAP2 SWAP1 SWAP2 AND OR DUP2 SSTORE PUSH1 0x1 PUSH1 0x20 SWAP1 PUSH1 0x20 DUP5 ADD MLOAD PUSH1 0x1 DUP5 ADD SSTORE PUSH1 0x2 DUP4 ADD SWAP2 PUSH1 0x40 DUP6 ADD MLOAD DUP1 MLOAD SWAP3 PUSH1 0x1 PUSH1 0x1 PUSH1 0x40 SHL SUB DUP5 GT PUSH2 0x238 JUMPI PUSH2 0x17FB DUP5 PUSH2 0x17F5 DUP8 SLOAD PUSH2 0x94F JUMP JUMPDEST DUP8 PUSH2 0x169F JUMP JUMPDEST PUSH1 0x20 SWAP3 PUSH1 0x1F DUP6 GT PUSH1 0x1 EQ PUSH2 0x1893 JUMPI POP POP SWAP4 PUSH2 0x187D SWAP4 PUSH2 0x183B DUP5 PUSH1 0xC0 SWAP6 PUSH1 0x5 SWAP6 PUSH2 0x2BC SWAP11 SWAP10 PUSH1 0x0 SWAP3 PUSH2 0x4B5 JUMPI POP POP DUP2 PUSH1 0x1 SHL SWAP2 PUSH1 0x0 NOT SWAP1 PUSH1 0x3 SHL SHR NOT AND OR SWAP1 JUMP JUMPDEST SWAP1 SSTORE JUMPDEST PUSH1 0x60 DUP6 ADD MLOAD PUSH1 0x3 DUP3 ADD SSTORE PUSH1 0x80 DUP6 ADD MLOAD PUSH1 0x4 DUP3 ADD SSTORE ADD SWAP3 PUSH2 0x1876 PUSH2 0x1864 PUSH1 0xA0 DUP4 ADD MLOAD ISZERO ISZERO SWAP1 JUMP JUMPDEST DUP6 SWAP1 PUSH1 0xFF DUP1 NOT DUP4 SLOAD AND SWAP2 ISZERO ISZERO AND OR SWAP1 SSTORE JUMP JUMPDEST ADD MLOAD ISZERO ISZERO SWAP1 JUMP JUMPDEST DUP2 SLOAD PUSH2 0xFF00 NOT AND SWAP1 ISZERO ISZERO PUSH1 0x8 SHL PUSH2 0xFF00 AND OR SWAP1 SSTORE JUMP JUMPDEST SWAP3 SWAP2 SWAP1 PUSH1 0x1F NOT DUP6 AND SWAP1 PUSH2 0x18AB DUP8 PUSH1 0x0 MSTORE PUSH1 0x20 PUSH1 0x0 KECCAK256 SWAP1 JUMP JUMPDEST SWAP5 PUSH1 0x0 SWAP2 JUMPDEST DUP4 DUP4 LT PUSH2 0x18FB JUMPI POP POP POP DUP5 PUSH1 0x5 SWAP5 PUSH2 0x2BC SWAP10 SWAP9 SWAP5 PUSH2 0x187D SWAP9 SWAP5 PUSH1 0xC0 SWAP9 PUSH1 0x1 SWAP6 LT PUSH2 0x18E2 JUMPI JUMPDEST POP POP POP DUP2 SHL ADD SWAP1 SSTORE PUSH2 0x183E JUMP JUMPDEST ADD MLOAD PUSH1 0x0 NOT PUSH1 0xF8 DUP5 PUSH1 0x3 SHL AND SHR NOT AND SWAP1 SSTORE CODESIZE DUP1 DUP1 PUSH2 0x18D5 JUMP JUMPDEST DUP5 DUP7 ADD MLOAD DUP8 SSTORE SWAP6 DUP7 ADD SWAP6 SWAP5 DUP2 ADD SWAP5 SWAP2 DUP2 ADD SWAP2 PUSH2 0x18B0 JUMP JUMPDEST PUSH1 0x40 MLOAD SWAP1 PUSH2 0x191F DUP3 PUSH2 0x258 JUMP JUMPDEST PUSH1 0x0 DUP3 MSTORE JUMP JUMPDEST PUSH1 0x1 PUSH1 0x1 PUSH1 0xA0 SHL SUB AND DUP1 ISZERO PUSH2 0x197A JUMPI PUSH1 0x20 DUP2 PUSH32 0xD1A6A14209A385A964D036E404CB5CFB71F4000CDB03C9366292430787261BE6 SWAP3 PUSH12 0xFFFFFFFFFFFFFFFFFFFFFFFF PUSH1 0xA0 SHL PUSH1 0x2 SLOAD AND OR PUSH1 0x2 SSTORE PUSH1 0x40 MLOAD SWAP1 DUP2 MSTORE LOG1 JUMP JUMPDEST PUSH1 0x40 MLOAD PUSH4 0xD92E233D PUSH1 0xE0 SHL DUP2 MSTORE PUSH1 0x4 SWAP1 REVERT JUMPDEST ISZERO PUSH2 0x1993 JUMPI JUMP JUMPDEST PUSH1 0x40 MLOAD PUSH3 0x461BCD PUSH1 0xE5 SHL DUP2 MSTORE PUSH1 0x20 PUSH1 0x4 DUP3 ADD MSTORE PUSH1 0x14 PUSH1 0x24 DUP3 ADD MSTORE PUSH20 0x496E76616C696420696E70757420617272617973 PUSH1 0x60 SHL PUSH1 0x44 DUP3 ADD MSTORE PUSH1 0x64 SWAP1 REVERT JUMPDEST ISZERO PUSH2 0x19D6 JUMPI JUMP JUMPDEST PUSH1 0x40 MLOAD PUSH3 0x461BCD PUSH1 0xE5 SHL DUP2 MSTORE PUSH1 0x20 PUSH1 0x4 DUP3 ADD MSTORE PUSH1 0x1C PUSH1 0x24 DUP3 ADD MSTORE PUSH32 0x546F6F206D616E792070726F6F667320746F2061676772656761746500000000 PUSH1 0x44 DUP3 ADD MSTORE PUSH1 0x64 SWAP1 REVERT JUMPDEST PUSH1 0x1 PUSH1 0x1 PUSH1 0x40 SHL SUB DUP2 GT PUSH2 0x238 JUMPI PUSH1 0x5 SHL PUSH1 0x20 ADD SWAP1 JUMP JUMPDEST SWAP1 PUSH2 0x1A3C DUP3 PUSH2 0x1A1B JUMP JUMPDEST PUSH2 0x1A49 PUSH1 0x40 MLOAD SWAP2 DUP3 PUSH2 0x28E JUMP JUMPDEST DUP3 DUP2 MSTORE DUP1 SWAP3 PUSH2 0x1A5A PUSH1 0x1F NOT SWAP2 PUSH2 0x1A1B JUMP JUMPDEST ADD SWAP1 PUSH1 0x20 CALLDATASIZE SWAP2 ADD CALLDATACOPY JUMP JUMPDEST SWAP2 SWAP1 DUP2 LT ISZERO PUSH2 0x1AA5 JUMPI PUSH1 0x5 SHL DUP2 ADD CALLDATALOAD SWAP1 PUSH1 0x1E NOT DUP2 CALLDATASIZE SUB ADD DUP3 SLT ISZERO PUSH2 0x32A JUMPI ADD SWAP1 DUP2 CALLDATALOAD SWAP2 PUSH1 0x1 PUSH1 0x1 PUSH1 0x40 SHL SUB DUP4 GT PUSH2 0x32A JUMPI PUSH1 0x20 ADD DUP3 CALLDATASIZE SUB DUP2 SGT PUSH2 0x32A JUMPI SWAP2 SWAP1 JUMP JUMPDEST PUSH2 0xD61 JUMP JUMPDEST ISZERO PUSH2 0x1AB1 JUMPI JUMP JUMPDEST PUSH1 0x40 MLOAD PUSH3 0x461BCD PUSH1 0xE5 SHL DUP2 MSTORE PUSH1 0x20 PUSH1 0x4 DUP3 ADD MSTORE PUSH1 0x1C PUSH1 0x24 DUP3 ADD MSTORE PUSH32 0x496E76616C69642070726F6F6620696E206167677265676174696F6E00000000 PUSH1 0x44 DUP3 ADD MSTORE PUSH1 0x64 SWAP1 REVERT JUMPDEST SWAP1 DUP1 SWAP3 SWAP2 DUP3 CALLDATACOPY ADD PUSH1 0x0 DUP2 MSTORE SWAP1 JUMP JUMPDEST ISZERO PUSH2 0x1B0B JUMPI JUMP JUMPDEST PUSH1 0x40 MLOAD PUSH3 0x461BCD PUSH1 0xE5 SHL DUP2 MSTORE PUSH1 0x20 PUSH1 0x4 DUP3 ADD MSTORE PUSH1 0x21 PUSH1 0x24 DUP3 ADD MSTORE PUSH32 0x50726F6F6620616C7265616479207573656420696E206167677265676174696F PUSH1 0x44 DUP3 ADD MSTORE PUSH1 0x37 PUSH1 0xF9 SHL PUSH1 0x64 DUP3 ADD MSTORE PUSH1 0x84 SWAP1 REVERT JUMPDEST DUP1 MLOAD ISZERO PUSH2 0x1AA5 JUMPI PUSH1 0x20 ADD SWAP1 JUMP JUMPDEST DUP1 MLOAD PUSH1 0x1 LT ISZERO PUSH2 0x1AA5 JUMPI PUSH1 0x40 ADD SWAP1 JUMP JUMPDEST DUP1 MLOAD PUSH1 0x2 LT ISZERO PUSH2 0x1AA5 JUMPI PUSH1 0x60 ADD SWAP1 JUMP JUMPDEST DUP1 MLOAD PUSH1 0x3 LT ISZERO PUSH2 0x1AA5 JUMPI PUSH1 0x80 ADD SWAP1 JUMP JUMPDEST DUP1 MLOAD PUSH1 0x4 LT ISZERO PUSH2 0x1AA5 JUMPI PUSH1 0xA0 ADD SWAP1 JUMP JUMPDEST DUP1 MLOAD DUP3 LT ISZERO PUSH2 0x1AA5 JUMPI PUSH1 0x20 SWAP2 PUSH1 0x5 SHL ADD ADD SWAP1 JUMP JUMPDEST SWAP2 SWAP4 SWAP3 SWAP1 SWAP4 DUP5 MLOAD PUSH1 0x20 DUP1 SWAP7 ADD SWAP1 PUSH1 0x0 JUMPDEST DUP2 DUP2 LT PUSH2 0x1BF5 JUMPI POP POP POP DUP3 MSTORE PUSH1 0x60 SHL PUSH12 0xFFFFFFFFFFFFFFFFFFFFFFFF NOT AND PUSH1 0x20 DUP3 ADD MSTORE PUSH1 0x34 ADD SWAP2 POP JUMP JUMPDEST DUP3 MLOAD DUP7 MSTORE SWAP5 DUP8 ADD SWAP5 SWAP2 DUP8 ADD SWAP2 PUSH1 0x1 ADD PUSH2 0x1BCB JUMP JUMPDEST SWAP1 DUP2 PUSH1 0x1 SHL SWAP2 DUP1 DUP4 DIV PUSH1 0x2 EQ SWAP1 ISZERO OR ISZERO PUSH2 0x8F1 JUMPI JUMP JUMPDEST DUP2 MLOAD SWAP2 PUSH1 0x1 PUSH1 0x1 PUSH1 0x40 SHL SUB DUP4 GT PUSH2 0x238 JUMPI PUSH9 0x10000000000000000 DUP4 GT PUSH2 0x238 JUMPI DUP2 SLOAD DUP4 DUP4 SSTORE DUP1 DUP5 LT PUSH2 0x1C86 JUMPI JUMPDEST POP PUSH2 0x1C62 PUSH1 0x20 DUP1 SWAP3 ADD SWAP3 PUSH1 0x0 MSTORE PUSH1 0x20 PUSH1 0x0 KECCAK256 SWAP1 JUMP JUMPDEST SWAP1 PUSH1 0x0 JUMPDEST DUP5 DUP2 LT PUSH2 0x1C74 JUMPI POP POP POP POP POP JUMP JUMPDEST DUP4 MLOAD DUP4 DUP3 ADD SSTORE SWAP3 DUP2 ADD SWAP3 PUSH1 0x1 ADD PUSH2 0x1C66 JUMP JUMPDEST PUSH1 0x0 DUP4 PUSH1 0x0 MSTORE DUP5 PUSH1 0x20 PUSH1 0x0 KECCAK256 SWAP3 DUP4 ADD SWAP3 ADD JUMPDEST DUP3 DUP2 LT PUSH2 0x1CA6 JUMPI POP POP PUSH2 0x1C4D JUMP JUMPDEST DUP2 DUP2 SSTORE PUSH1 0x1 ADD PUSH2 0x1C98 JUMP JUMPDEST SWAP2 SWAP3 SWAP1 SWAP3 DUP2 DUP5 EQ DUP1 PUSH2 0x1E83 JUMPI JUMPDEST PUSH2 0x1CC7 SWAP1 PUSH2 0x198C JUMP JUMPDEST PUSH2 0x1CD4 PUSH1 0xA DUP6 GT ISZERO PUSH2 0x19CF JUMP JUMPDEST PUSH2 0x1CDD DUP5 PUSH2 0x1A32 JUMP JUMPDEST SWAP4 PUSH1 0x0 JUMPDEST DUP2 DUP2 LT PUSH2 0x1DAD JUMPI POP POP POP POP POP PUSH1 0x40 MLOAD PUSH1 0x20 DUP2 ADD SWAP1 PUSH2 0x1D13 DUP2 PUSH2 0x1D05 CALLER TIMESTAMP DUP8 DUP8 PUSH2 0x1BBB JUMP JUMPDEST SUB PUSH1 0x1F NOT DUP2 ADD DUP4 MSTORE DUP3 PUSH2 0x28E JUMP JUMPDEST MLOAD SWAP1 KECCAK256 SWAP1 PUSH2 0x1D48 PUSH2 0x1D25 PUSH1 0x5 SLOAD PUSH2 0x1791 JUMP JUMPDEST SWAP2 PUSH2 0x1D2F DUP4 PUSH1 0x5 SSTORE JUMP JUMPDEST PUSH2 0x1D43 DUP4 PUSH1 0x0 MSTORE PUSH1 0x10 PUSH1 0x20 MSTORE PUSH1 0x40 PUSH1 0x0 KECCAK256 SWAP1 JUMP JUMPDEST PUSH2 0x1C1F JUMP JUMPDEST PUSH2 0x1D6C PUSH2 0x1D5F DUP4 PUSH1 0x0 MSTORE PUSH1 0xF PUSH1 0x20 MSTORE PUSH1 0x40 PUSH1 0x0 KECCAK256 SWAP1 JUMP JUMPDEST DUP1 SLOAD PUSH1 0xFF NOT AND PUSH1 0x1 OR SWAP1 SSTORE JUMP JUMPDEST PUSH32 0x6DD2118914AD2B9A98780FAFD92846EEBE9361998A810F1A05F67033B17E2CDD PUSH1 0x40 MLOAD DUP1 PUSH2 0x1DA7 DUP6 DUP3 SWAP2 SWAP1 PUSH1 0x20 PUSH1 0x40 DUP5 ADD SWAP4 PUSH1 0x1 DUP2 MSTORE ADD MSTORE JUMP JUMPDEST SUB SWAP1 LOG2 SWAP1 JUMP JUMPDEST DUP1 PUSH2 0x1DF2 PUSH2 0x1DED PUSH2 0x1DE7 PUSH2 0x1DC4 PUSH1 0x1 SWAP6 DUP8 DUP12 PUSH2 0x1A64 JUMP JUMPDEST PUSH2 0x1DDF PUSH2 0x1DD5 DUP8 DUP13 DUP13 SWAP7 SWAP6 SWAP7 PUSH2 0x1A64 JUMP JUMPDEST SWAP5 SWAP1 SWAP3 CALLDATASIZE SWAP2 PUSH2 0x2F3 JUMP JUMPDEST SWAP3 CALLDATASIZE SWAP2 PUSH2 0x2F3 JUMP JUMPDEST SWAP1 PUSH2 0x27B6 JUMP JUMPDEST PUSH2 0x1AAA JUMP JUMPDEST PUSH2 0x1E7D PUSH2 0x1D5F PUSH2 0x1E31 PUSH2 0x1E2B PUSH2 0x1E09 DUP6 DUP9 DUP13 PUSH2 0x1A64 JUMP JUMPDEST SWAP3 SWAP1 PUSH2 0x1D05 PUSH2 0x1E19 DUP9 DUP14 DUP14 PUSH2 0x1A64 JUMP JUMPDEST PUSH1 0x40 MLOAD SWAP6 DUP7 SWAP5 PUSH1 0x20 DUP7 ADD SWAP9 DUP10 SWAP2 PUSH2 0x1AF6 JUMP JUMPDEST SWAP2 PUSH2 0x1AF6 JUMP JUMPDEST MLOAD SWAP1 KECCAK256 PUSH2 0x1E61 PUSH2 0x1E5C PUSH2 0x1E58 PUSH2 0x1E51 DUP5 PUSH1 0x0 MSTORE PUSH1 0x11 PUSH1 0x20 MSTORE PUSH1 0x40 PUSH1 0x0 KECCAK256 SWAP1 JUMP JUMPDEST SLOAD PUSH1 0xFF AND SWAP1 JUMP JUMPDEST ISZERO SWAP1 JUMP JUMPDEST PUSH2 0x1B04 JUMP JUMPDEST DUP1 PUSH2 0x1E6C DUP6 DUP13 PUSH2 0x1BA7 JUMP JUMPDEST MSTORE PUSH1 0x0 MSTORE PUSH1 0x11 PUSH1 0x20 MSTORE PUSH1 0x40 PUSH1 0x0 KECCAK256 SWAP1 JUMP JUMPDEST ADD PUSH2 0x1CE1 JUMP JUMPDEST POP DUP4 ISZERO ISZERO PUSH2 0x1CBE JUMP JUMPDEST ISZERO PUSH2 0x1E93 JUMPI JUMP JUMPDEST PUSH1 0x40 MLOAD PUSH3 0x461BCD PUSH1 0xE5 SHL DUP2 MSTORE PUSH1 0x20 PUSH1 0x4 DUP3 ADD MSTORE PUSH1 0x19 PUSH1 0x24 DUP3 ADD MSTORE PUSH32 0x496E76616C69642046756E6374696F6E73207265717565737400000000000000 PUSH1 0x44 DUP3 ADD MSTORE PUSH1 0x64 SWAP1 REVERT JUMPDEST SWAP1 PUSH1 0x20 PUSH2 0x34A SWAP3 DUP2 DUP2 MSTORE ADD SWAP1 PUSH2 0x56A JUMP JUMPDEST PUSH1 0x40 MLOAD SWAP1 PUSH2 0x1EF6 DUP3 PUSH2 0x23D JUMP JUMPDEST PUSH1 0x7 DUP3 MSTORE PUSH7 0x73756363657373 PUSH1 0xC8 SHL PUSH1 0x20 DUP4 ADD MSTORE JUMP JUMPDEST PUSH1 0x40 MLOAD SWAP1 PUSH2 0x1F19 DUP3 PUSH2 0x23D JUMP JUMPDEST PUSH1 0xC DUP3 MSTORE PUSH12 0x3430B9A932B0B6283937B7B3 PUSH1 0xA1 SHL PUSH1 0x20 DUP4 ADD MSTORE JUMP JUMPDEST PUSH1 0x40 MLOAD SWAP1 PUSH2 0x1F41 DUP3 PUSH2 0x23D JUMP JUMPDEST PUSH1 0xC DUP3 MSTORE PUSH12 0xECC2D8D2C8D2E8F290C2E6D PUSH1 0xA3 SHL PUSH1 0x20 DUP4 ADD MSTORE JUMP JUMPDEST SWAP1 PUSH2 0x1F6F PUSH1 0x20 SWAP3 DUP3 DUP2 MLOAD SWAP5 DUP6 SWAP3 ADD PUSH2 0x547 JUMP JUMPDEST ADD SWAP1 JUMP JUMPDEST PUSH1 0x20 SWAP3 SWAP2 SWAP1 PUSH2 0x1F89 DUP5 SWAP3 DUP3 DUP2 MLOAD SWAP5 DUP6 SWAP3 ADD PUSH2 0x547 JUMP JUMPDEST ADD SWAP1 DUP2 MSTORE ADD SWAP1 JUMP JUMPDEST PUSH1 0x40 MLOAD SWAP1 PUSH2 0x1F9E DUP3 PUSH2 0x23D JUMP JUMPDEST PUSH1 0x5 DUP3 MSTORE PUSH5 0x383937B7B3 PUSH1 0xD9 SHL PUSH1 0x20 DUP4 ADD MSTORE JUMP JUMPDEST PUSH1 0x40 MLOAD SWAP1 PUSH2 0x1FBF DUP3 PUSH2 0x23D JUMP JUMPDEST PUSH1 0xD DUP3 MSTORE PUSH13 0x7075626C69635369676E616C73 PUSH1 0x98 SHL PUSH1 0x20 DUP4 ADD MSTORE JUMP JUMPDEST PUSH2 0x1FEF PUSH1 0x20 SWAP3 PUSH1 0x40 DUP4 MSTORE PUSH1 0x40 DUP4 ADD SWAP1 PUSH2 0x56A JUMP JUMPDEST SWAP1 DUP3 DUP2 DUP4 SUB SWAP2 ADD MSTORE PUSH1 0x0 DUP2 MSTORE ADD SWAP1 JUMP JUMPDEST SWAP2 PUSH2 0x2014 DUP4 PUSH1 0x0 MSTORE PUSH1 0x4 PUSH1 0x20 MSTORE PUSH1 0x40 PUSH1 0x0 KECCAK256 SWAP1 JUMP JUMPDEST SLOAD SWAP1 PUSH2 0x2021 DUP3 ISZERO ISZERO PUSH2 0x1E8C JUMP JUMPDEST DUP1 MLOAD PUSH2 0x2218 JUMPI POP PUSH32 0x50348C1AF87D1D2E61E0A7E9BF83A9C67F047D8DE73BE6B88ACAC8655A97581E SWAP2 PUSH2 0x2174 SWAP2 PUSH2 0x205F PUSH2 0x2059 PUSH2 0x1EE9 JUMP JUMPDEST DUP4 PUSH2 0x27EA JUMP JUMPDEST PUSH2 0x2073 DUP3 PUSH1 0x0 MSTORE PUSH1 0x3 PUSH1 0x20 MSTORE PUSH1 0x40 PUSH1 0x0 KECCAK256 SWAP1 JUMP JUMPDEST PUSH1 0x5 DUP2 ADD DUP1 SLOAD PUSH1 0xFF NOT AND PUSH1 0x1 OR DUP2 SSTORE SWAP1 SWAP2 ISZERO PUSH2 0x21D4 JUMPI PUSH32 0x6DD2118914AD2B9A98780FAFD92846EEBE9361998A810F1A05F67033B17E2CDD SWAP2 PUSH2 0x20BC PUSH2 0x20B6 PUSH2 0x1F0C JUMP JUMPDEST DUP7 PUSH2 0x27EA JUMP JUMPDEST ISZERO PUSH2 0x21BF JUMPI PUSH2 0x20D2 PUSH2 0x20CC PUSH2 0x1F91 JUMP JUMPDEST DUP7 PUSH2 0x28FE JUMP JUMPDEST PUSH2 0x20E3 PUSH2 0x20DD PUSH2 0x1FB2 JUMP JUMPDEST DUP8 PUSH2 0x28FE JUMP JUMPDEST DUP2 MLOAD ISZERO ISZERO DUP1 PUSH2 0x21B5 JUMPI JUMPDEST ISZERO PUSH2 0x2179 JUMPI PUSH2 0x2133 SWAP3 PUSH2 0x2164 SWAP5 SWAP3 PUSH2 0x1D05 PUSH2 0x211E PUSH1 0x4 SWAP5 PUSH1 0x40 MLOAD SWAP3 DUP4 SWAP2 PUSH2 0x2118 PUSH1 0x20 DUP5 ADD DUP1 SWAP8 PUSH2 0x1F5C JUMP JUMPDEST SWAP1 PUSH2 0x1F5C JUMP JUMPDEST MLOAD SWAP1 KECCAK256 SWAP4 DUP5 SWAP4 PUSH2 0x100 PUSH2 0xFF00 NOT DUP3 SLOAD AND OR SWAP1 SSTORE JUMP JUMPDEST ADD SSTORE PUSH2 0x214C PUSH2 0x1D5F DUP3 PUSH1 0x0 MSTORE PUSH1 0xF PUSH1 0x20 MSTORE PUSH1 0x40 PUSH1 0x0 KECCAK256 SWAP1 JUMP JUMPDEST PUSH1 0x40 MLOAD SWAP2 DUP3 SWAP2 DUP3 SWAP2 SWAP1 PUSH1 0x20 PUSH1 0x40 DUP5 ADD SWAP4 PUSH1 0x1 DUP2 MSTORE ADD MSTORE JUMP JUMPDEST SUB SWAP1 LOG2 JUMPDEST PUSH1 0x40 MLOAD SWAP2 DUP3 SWAP2 DUP3 PUSH2 0x1FDB JUMP JUMPDEST SUB SWAP1 LOG2 JUMP JUMPDEST POP POP PUSH2 0x21AD SWAP2 PUSH1 0x4 PUSH2 0x2133 SWAP3 PUSH2 0x2196 PUSH2 0x2190 PUSH2 0x1F34 JUMP JUMPDEST DUP10 PUSH2 0x28FE JUMP JUMPDEST PUSH1 0x40 MLOAD PUSH2 0x211E DUP2 PUSH2 0x1D05 PUSH1 0x20 DUP3 ADD SWAP5 TIMESTAMP SWAP1 DUP7 PUSH2 0x1F73 JUMP JUMPDEST SUB SWAP1 LOG2 PUSH2 0x2168 JUMP JUMPDEST POP DUP1 MLOAD ISZERO ISZERO PUSH2 0x20ED JUMP JUMPDEST PUSH2 0x21AD SWAP2 PUSH1 0x4 PUSH2 0x2133 SWAP3 PUSH2 0x2196 PUSH2 0x2190 PUSH2 0x1F34 JUMP JUMPDEST DUP1 SLOAD PUSH2 0xFF00 NOT AND SWAP1 SSTORE POP PUSH32 0x6DD2118914AD2B9A98780FAFD92846EEBE9361998A810F1A05F67033B17E2CDD PUSH1 0x40 MLOAD DUP1 PUSH2 0x21AD DUP2 SWAP1 PUSH1 0x0 PUSH1 0x20 PUSH1 0x40 DUP5 ADD SWAP4 DUP3 DUP2 MSTORE ADD MSTORE JUMP JUMPDEST PUSH32 0x8117AD48DB1A08344670D33ACDEB14D7EC953B1119DAFA9AB361E5E721D43562 SWAP3 POP PUSH2 0x2265 PUSH1 0x5 PUSH2 0x2257 PUSH2 0x2174 SWAP5 PUSH1 0x0 MSTORE PUSH1 0x3 PUSH1 0x20 MSTORE PUSH1 0x40 PUSH1 0x0 KECCAK256 SWAP1 JUMP JUMPDEST ADD DUP1 SLOAD PUSH1 0xFF NOT AND PUSH1 0x1 OR SWAP1 SSTORE JUMP JUMPDEST PUSH1 0x40 MLOAD SWAP2 DUP3 SWAP2 DUP3 PUSH2 0x1ED8 JUMP JUMPDEST SWAP1 ISZERO PUSH2 0x1AA5 JUMPI SWAP1 JUMP JUMPDEST PUSH1 0x30 ADD SWAP1 DUP2 PUSH1 0x30 GT PUSH2 0x8F1 JUMPI JUMP JUMPDEST SWAP1 PUSH1 0x20 DUP3 ADD DUP1 SWAP3 GT PUSH2 0x8F1 JUMPI JUMP JUMPDEST SWAP2 SWAP1 DUP3 ADD DUP1 SWAP3 GT PUSH2 0x8F1 JUMPI JUMP JUMPDEST PUSH1 0x40 MLOAD SWAP1 PUSH2 0x160 DUP3 ADD DUP3 DUP2 LT PUSH1 0x1 PUSH1 0x1 PUSH1 0x40 SHL SUB DUP3 GT OR PUSH2 0x238 JUMPI PUSH1 0x40 MSTORE PUSH2 0x131 DUP3 MSTORE PUSH17 0x72696E6769667928726573756C7429293B PUSH1 0x78 SHL PUSH2 0x140 DUP4 PUSH32 0x636F6E737420636861696E49643D7061727365496E7428617267735B305D293B PUSH1 0x20 DUP3 ADD MSTORE PUSH32 0x636F6E737420626C6F636B4E756D626572733D4A534F4E2E7061727365286172 PUSH1 0x40 DUP3 ADD MSTORE PUSH32 0x67735B315D293B636F6E737420726573756C743D7B737563636573733A747275 PUSH1 0x60 DUP3 ADD MSTORE PUSH32 0x652C636861696E49642C626C6F636B4E756D626572732C76616C696469747948 PUSH1 0x80 DUP3 ADD MSTORE PUSH32 0x6173683A27307831323334353637383930616263646566313233343536373839 PUSH1 0xA0 DUP3 ADD MSTORE PUSH32 0x3061626364656631323334353637383930616263646566313233343536373839 PUSH1 0xC0 DUP3 ADD MSTORE PUSH32 0x30616263646566272C6D657461646174613A7B74696D657374616D703A4D6174 PUSH1 0xE0 DUP3 ADD MSTORE PUSH32 0x682E666C6F6F7228446174652E6E6F7728292F31303030297D7D3B7265747572 PUSH2 0x100 DUP3 ADD MSTORE PUSH32 0x6E2046756E6374696F6E732E656E636F6465537472696E67284A534F4E2E7374 PUSH2 0x120 DUP3 ADD MSTORE ADD MSTORE JUMP JUMPDEST PUSH1 0x40 MLOAD SWAP1 PUSH2 0x2448 DUP3 PUSH2 0x21D JUMP JUMPDEST PUSH1 0x60 PUSH1 0xC0 DUP4 PUSH1 0x0 DUP2 MSTORE PUSH1 0x0 PUSH1 0x20 DUP3 ADD MSTORE PUSH1 0x0 PUSH1 0x40 DUP3 ADD MSTORE DUP3 DUP1 DUP3 ADD MSTORE DUP3 PUSH1 0x80 DUP3 ADD MSTORE DUP3 PUSH1 0xA0 DUP3 ADD MSTORE ADD MSTORE JUMP JUMPDEST PUSH1 0x40 MLOAD SWAP1 PUSH2 0x2481 DUP3 PUSH2 0x273 JUMP JUMPDEST PUSH1 0x5 DUP3 MSTORE DUP2 PUSH1 0x0 JUMPDEST PUSH1 0xA0 DUP2 LT PUSH2 0x2495 JUMPI POP POP JUMP JUMPDEST DUP1 PUSH1 0x60 PUSH1 0x20 DUP1 SWAP4 DUP6 ADD ADD MSTORE ADD PUSH2 0x2489 JUMP JUMPDEST SWAP3 SWAP2 SWAP1 PUSH2 0x24BD PUSH1 0x20 SWAP2 PUSH1 0x40 DUP7 MSTORE PUSH1 0x40 DUP7 ADD SWAP1 PUSH2 0x989 JUMP JUMPDEST SWAP4 ADD MSTORE JUMP JUMPDEST SWAP1 PUSH32 0x89652D00E157965D54F5AD31AF9352416C4E90B879711EC122680D4E3A1DE9A6 SWAP1 PUSH2 0x24F9 DUP4 PUSH1 0x0 MSTORE PUSH1 0x3 PUSH1 0x20 MSTORE PUSH1 0x40 PUSH1 0x0 KECCAK256 SWAP1 JUMP JUMPDEST PUSH2 0x2501 PUSH2 0xA1F JUMP JUMPDEST DUP1 MLOAD ISZERO PUSH2 0x2666 JUMPI JUMPDEST PUSH2 0x261D PUSH2 0x2641 SWAP2 PUSH2 0x2522 PUSH2 0x251B PUSH2 0x243B JUMP JUMPDEST SWAP2 DUP3 PUSH2 0x30F2 JUMP JUMPDEST PUSH2 0x2618 PUSH1 0x2 PUSH2 0x252F PUSH2 0x2474 JUMP JUMPDEST SWAP6 ADD SWAP5 PUSH2 0x254B PUSH2 0x2546 PUSH2 0x2541 DUP9 PUSH2 0xB82 JUMP JUMPDEST PUSH2 0x2AA2 JUMP JUMPDEST PUSH2 0x2C22 JUMP JUMPDEST PUSH2 0x2554 DUP3 PUSH2 0x1B5A JUMP JUMPDEST MSTORE PUSH2 0x255E DUP2 PUSH2 0x1B5A JUMP JUMPDEST POP PUSH2 0x258C PUSH2 0x2599 PUSH2 0x256E DUP10 PUSH2 0x2C22 JUMP JUMPDEST PUSH2 0x1D05 PUSH1 0x40 MLOAD SWAP4 DUP5 SWAP3 PUSH2 0x2118 PUSH1 0x20 DUP6 ADD PUSH1 0x1 SWAP1 PUSH1 0x5B PUSH1 0xF8 SHL DUP2 MSTORE ADD SWAP1 JUMP JUMPDEST PUSH1 0x5D PUSH1 0xF8 SHL DUP2 MSTORE PUSH1 0x1 ADD SWAP1 JUMP JUMPDEST PUSH2 0x25A2 DUP3 PUSH2 0x1B67 JUMP JUMPDEST MSTORE PUSH2 0x25AC DUP2 PUSH2 0x1B67 JUMP JUMPDEST POP PUSH2 0x25C5 PUSH2 0x2546 PUSH2 0x25BF PUSH1 0xE SLOAD PUSH1 0xFF AND SWAP1 JUMP JUMPDEST PUSH1 0xFF AND SWAP1 JUMP JUMPDEST PUSH2 0x25CE DUP3 PUSH2 0x1B77 JUMP JUMPDEST MSTORE PUSH2 0x25D8 DUP2 PUSH2 0x1B77 JUMP JUMPDEST POP PUSH2 0x25E2 CHAINID PUSH2 0x2C22 JUMP JUMPDEST PUSH2 0x25EB DUP3 PUSH2 0x1B87 JUMP JUMPDEST MSTORE PUSH2 0x25F5 DUP2 PUSH2 0x1B87 JUMP JUMPDEST POP PUSH2 0x25FE PUSH2 0xAE3 JUMP JUMPDEST PUSH2 0x2607 DUP3 PUSH2 0x1B97 JUMP JUMPDEST MSTORE PUSH2 0x2611 DUP2 PUSH2 0x1B97 JUMP JUMPDEST POP DUP3 PUSH2 0x2CC2 JUMP JUMPDEST PUSH2 0x2E11 JUMP JUMPDEST PUSH1 0xA SLOAD PUSH1 0xB SLOAD SWAP2 PUSH1 0x1 PUSH1 0x1 PUSH1 0x40 SHL SUB PUSH4 0xFFFFFFFF DUP4 PUSH1 0x90 SHR AND SWAP3 PUSH1 0x50 SHR AND SWAP1 PUSH2 0x2FDF JUMP JUMPDEST SWAP4 PUSH2 0x2656 DUP6 PUSH1 0x0 MSTORE PUSH1 0x4 PUSH1 0x20 MSTORE PUSH1 0x40 PUSH1 0x0 KECCAK256 SWAP1 JUMP JUMPDEST SSTORE PUSH2 0x2174 PUSH1 0x40 MLOAD SWAP3 DUP4 SWAP3 DUP4 PUSH2 0x24A6 JUMP JUMPDEST POP PUSH2 0x2641 PUSH2 0x261D PUSH2 0x2675 PUSH2 0x22A3 JUMP JUMPDEST SWAP2 POP POP PUSH2 0x2509 JUMP JUMPDEST PUSH1 0xE0 PUSH1 0xA0 PUSH2 0x34A SWAP4 PUSH1 0x20 DUP5 MSTORE DUP1 MLOAD PUSH1 0x20 DUP6 ADD MSTORE PUSH1 0x20 DUP2 ADD MLOAD PUSH1 0x40 DUP6 ADD MSTORE PUSH2 0xFFFF PUSH1 0x40 DUP3 ADD MLOAD AND PUSH1 0x60 DUP6 ADD MSTORE PUSH1 0x60 DUP2 ADD MLOAD PUSH4 0xFFFFFFFF DUP1 SWAP2 AND PUSH1 0x80 DUP7 ADD MSTORE PUSH1 0x80 DUP3 ADD MLOAD AND DUP3 DUP6 ADD MSTORE ADD MLOAD SWAP2 PUSH1 0xC0 DUP1 DUP3 ADD MSTORE ADD SWAP1 PUSH2 0x56A JUMP JUMPDEST PUSH1 0x2 SLOAD PUSH1 0x0 SWAP1 PUSH1 0x20 SWAP1 PUSH2 0x276D SWAP1 PUSH1 0x1 PUSH1 0x1 PUSH1 0xA0 SHL SUB AND PUSH1 0x9 SLOAD PUSH1 0x8 SLOAD PUSH2 0x274C PUSH1 0xA SLOAD PUSH4 0xFFFFFFFF SWAP1 PUSH2 0x270F PUSH2 0x2707 PUSH2 0x2BE JUMP JUMPDEST DUP11 DUP2 MSTORE PUSH2 0x30B9 JUMP JUMPDEST SWAP4 PUSH2 0x2718 PUSH2 0x2CB JUMP JUMPDEST SWAP6 DUP7 MSTORE DUP9 DUP7 ADD MSTORE DUP1 DUP9 SHR PUSH2 0xFFFF AND PUSH1 0x40 DUP7 ADD MSTORE PUSH4 0xFFFFFFFF DUP2 DUP4 AND AND PUSH1 0x60 DUP7 ADD MSTORE PUSH1 0x30 SHR AND PUSH1 0x80 DUP5 ADD SWAP1 PUSH4 0xFFFFFFFF AND SWAP1 MSTORE JUMP JUMPDEST PUSH1 0xA0 DUP3 ADD MSTORE PUSH1 0x40 MLOAD SWAP5 DUP6 DUP1 SWAP5 DUP2 SWAP4 PUSH4 0x4D8E1C2F PUSH1 0xE1 SHL DUP4 MSTORE PUSH1 0x4 DUP4 ADD PUSH2 0x267D JUMP JUMPDEST SUB SWAP3 GAS CALL DUP1 ISZERO PUSH2 0xF25 JUMPI PUSH2 0x2794 SWAP2 PUSH1 0x0 SWAP2 PUSH2 0x2797 JUMPI JUMPDEST POP PUSH1 0x0 MSTORE PUSH1 0x4 PUSH1 0x20 MSTORE PUSH1 0x40 PUSH1 0x0 KECCAK256 SWAP1 JUMP JUMPDEST SSTORE JUMP JUMPDEST PUSH2 0x27B0 SWAP2 POP PUSH1 0x20 RETURNDATASIZE PUSH1 0x20 GT PUSH2 0xF1E JUMPI PUSH2 0xF16 DUP2 DUP4 PUSH2 0x28E JUMP JUMPDEST CODESIZE PUSH2 0x2783 JUMP JUMPDEST MLOAD ISZERO SWAP1 DUP2 ISZERO PUSH2 0x27CF JUMPI JUMPDEST POP PUSH2 0x27CA JUMPI PUSH1 0x1 SWAP1 JUMP JUMPDEST PUSH1 0x0 SWAP1 JUMP JUMPDEST SWAP1 POP MLOAD ISZERO CODESIZE PUSH2 0x27C0 JUMP JUMPDEST SWAP1 DUP2 MLOAD DUP2 LT ISZERO PUSH2 0x1AA5 JUMPI ADD PUSH1 0x20 ADD SWAP1 JUMP JUMPDEST PUSH1 0x40 MLOAD PUSH1 0x11 PUSH1 0xF9 SHL PUSH1 0x20 DUP3 ADD MSTORE SWAP1 SWAP2 PUSH2 0x2822 SWAP1 DUP3 SWAP1 PUSH2 0x1D05 SWAP1 PUSH2 0x2810 SWAP1 PUSH1 0x21 DUP5 ADD PUSH2 0x2118 JUMP JUMPDEST PUSH6 0x223A74727565 PUSH1 0xD0 SHL DUP2 MSTORE PUSH1 0x6 ADD SWAP1 JUMP JUMPDEST PUSH1 0x0 SWAP1 JUMPDEST PUSH2 0x2833 DUP4 MLOAD DUP3 MLOAD SWAP1 PUSH2 0x1729 JUMP JUMPDEST DUP3 GT PUSH2 0x28CE JUMPI PUSH1 0x1 SWAP3 PUSH1 0x0 JUMPDEST DUP3 MLOAD DUP2 LT ISZERO PUSH2 0x28C4 JUMPI PUSH2 0x286C PUSH2 0x285E PUSH2 0x2858 DUP4 DUP8 PUSH2 0x2296 JUMP JUMPDEST DUP5 PUSH2 0x27D9 JUMP JUMPDEST MLOAD PUSH1 0x1 PUSH1 0x1 PUSH1 0xF8 SHL SUB NOT AND SWAP1 JUMP JUMPDEST PUSH2 0x2889 PUSH2 0x287C PUSH2 0x285E DUP5 DUP8 PUSH2 0x27D9 JUMP JUMPDEST PUSH1 0x1 PUSH1 0x1 PUSH1 0xF8 SHL SUB NOT AND SWAP1 JUMP JUMPDEST PUSH1 0x1 PUSH1 0x1 PUSH1 0xF8 SHL SUB NOT SWAP1 SWAP2 AND SUB PUSH2 0x28A2 JUMPI PUSH1 0x1 ADD PUSH2 0x283F JUMP JUMPDEST POP SWAP3 POP SWAP1 PUSH1 0x0 JUMPDEST PUSH2 0x28BC JUMPI PUSH2 0x28B6 SWAP1 PUSH2 0x1791 JUMP JUMPDEST SWAP1 PUSH2 0x2826 JUMP JUMPDEST POP POP POP PUSH1 0x1 SWAP1 JUMP JUMPDEST POP SWAP3 SWAP2 SWAP1 SWAP2 PUSH2 0x28A9 JUMP JUMPDEST POP POP POP PUSH1 0x0 SWAP1 JUMP JUMPDEST SWAP1 PUSH2 0x28E0 DUP3 PUSH2 0x2D8 JUMP JUMPDEST PUSH2 0x28ED PUSH1 0x40 MLOAD SWAP2 DUP3 PUSH2 0x28E JUMP JUMPDEST DUP3 DUP2 MSTORE DUP1 SWAP3 PUSH2 0x1A5A PUSH1 0x1F NOT SWAP2 PUSH2 0x2D8 JUMP JUMPDEST SWAP2 PUSH2 0x2941 PUSH2 0x2924 SWAP3 PUSH2 0x2933 PUSH1 0x40 MLOAD SWAP5 DUP6 SWAP3 PUSH2 0x2118 PUSH1 0x20 DUP6 ADD PUSH1 0x1 SWAP1 PUSH1 0x11 PUSH1 0xF9 SHL DUP2 MSTORE ADD SWAP1 JUMP JUMPDEST PUSH3 0x111D11 PUSH1 0xE9 SHL DUP2 MSTORE PUSH1 0x3 ADD SWAP1 JUMP JUMPDEST SUB PUSH1 0x1F NOT DUP2 ADD DUP5 MSTORE DUP4 PUSH2 0x28E JUMP JUMPDEST PUSH1 0x0 SWAP1 JUMPDEST PUSH2 0x2952 DUP5 MLOAD DUP5 MLOAD SWAP1 PUSH2 0x1729 JUMP JUMPDEST DUP3 GT PUSH2 0x2A96 JUMPI PUSH1 0x1 SWAP3 PUSH1 0x0 JUMPDEST DUP2 MLOAD DUP2 LT ISZERO PUSH2 0x2A8C JUMPI PUSH2 0x297D PUSH2 0x285E PUSH2 0x2977 DUP4 DUP8 PUSH2 0x2296 JUMP JUMPDEST DUP9 PUSH2 0x27D9 JUMP JUMPDEST PUSH2 0x298D PUSH2 0x287C PUSH2 0x285E DUP5 DUP7 PUSH2 0x27D9 JUMP JUMPDEST PUSH1 0x1 PUSH1 0x1 PUSH1 0xF8 SHL SUB NOT SWAP1 SWAP2 AND SUB PUSH2 0x29A6 JUMPI PUSH1 0x1 ADD PUSH2 0x295E JUMP JUMPDEST POP SWAP3 POP SWAP1 PUSH1 0x0 JUMPDEST PUSH2 0x29C1 JUMPI JUMPDEST PUSH2 0x29BB SWAP1 PUSH2 0x1791 JUMP JUMPDEST SWAP1 PUSH2 0x2945 JUMP JUMPDEST SWAP1 PUSH2 0x29CD DUP4 MLOAD DUP4 PUSH2 0x2296 JUMP JUMPDEST SWAP3 DUP4 JUMPDEST DUP6 MLOAD DUP2 LT DUP1 PUSH2 0x2A68 JUMPI JUMPDEST ISZERO PUSH2 0x29ED JUMPI PUSH2 0x29E8 SWAP1 PUSH2 0x1791 JUMP JUMPDEST PUSH2 0x29D0 JUMP JUMPDEST SWAP1 SWAP4 SWAP3 SWAP2 SWAP3 DUP1 DUP3 GT PUSH2 0x2A00 JUMPI POP POP PUSH2 0x29B2 JUMP JUMPDEST SWAP2 POP SWAP3 POP PUSH2 0x2A16 PUSH2 0x2A11 DUP3 DUP6 PUSH2 0x1729 JUMP JUMPDEST PUSH2 0x28D6 JUMP JUMPDEST SWAP2 PUSH1 0x0 JUMPDEST PUSH2 0x2A24 DUP4 DUP7 PUSH2 0x1729 JUMP JUMPDEST DUP2 LT ISZERO PUSH2 0x2A5F JUMPI DUP3 PUSH1 0x1 DUP3 PUSH2 0x2A48 PUSH2 0x285E PUSH2 0x2A42 PUSH2 0x2A24 SWAP7 DUP7 PUSH2 0x2296 JUMP JUMPDEST DUP12 PUSH2 0x27D9 JUMP JUMPDEST PUSH1 0x0 BYTE PUSH2 0x2A55 DUP3 DUP10 PUSH2 0x27D9 JUMP JUMPDEST MSTORE8 ADD SWAP2 POP POP PUSH2 0x2A1A JUMP JUMPDEST POP SWAP4 POP POP SWAP1 POP SWAP1 JUMP JUMPDEST POP PUSH1 0x11 PUSH1 0xF9 SHL PUSH1 0x1 PUSH1 0x1 PUSH1 0xF8 SHL SUB NOT PUSH2 0x2A84 PUSH2 0x285E DUP5 DUP11 PUSH2 0x27D9 JUMP JUMPDEST AND EQ ISZERO PUSH2 0x29DA JUMP JUMPDEST POP SWAP3 SWAP2 SWAP1 SWAP2 PUSH2 0x29AD JUMP JUMPDEST SWAP3 POP POP POP PUSH2 0x34A PUSH2 0x1912 JUMP JUMPDEST PUSH1 0x40 SWAP1 DUP2 MLOAD SWAP1 PUSH1 0x20 SWAP1 DUP3 PUSH2 0x2AB9 DUP4 DUP3 ADD DUP1 SWAP4 PUSH2 0x1F5C JUMP JUMPDEST SUB SWAP3 PUSH2 0x2ACD PUSH1 0x1F NOT SWAP5 DUP6 DUP2 ADD DUP4 MSTORE DUP3 PUSH2 0x28E JUMP JUMPDEST MLOAD SWAP1 KECCAK256 SWAP3 DUP1 MLOAD DUP3 DUP2 ADD SWAP1 PUSH2 0x2B00 DUP2 PUSH2 0x2AF4 DUP5 PUSH1 0x8 SWAP1 PUSH8 0x657468657265756D PUSH1 0xC0 SHL DUP2 MSTORE ADD SWAP1 JUMP JUMPDEST SUB DUP7 DUP2 ADD DUP4 MSTORE DUP3 PUSH2 0x28E JUMP JUMPDEST MLOAD SWAP1 KECCAK256 DUP5 EQ PUSH2 0x2C19 JUMPI DUP1 MLOAD PUSH8 0x617262697472756D PUSH1 0xC0 SHL DUP4 DUP3 ADD SWAP1 DUP2 MSTORE SWAP1 PUSH2 0x2B2B DUP2 PUSH1 0x8 DUP5 ADD PUSH2 0x2AF4 JUMP JUMPDEST MLOAD SWAP1 KECCAK256 DUP5 EQ PUSH2 0x2C0F JUMPI DUP1 MLOAD PUSH8 0x6F7074696D69736D PUSH1 0xC0 SHL DUP4 DUP3 ADD SWAP1 DUP2 MSTORE SWAP1 PUSH2 0x2B56 DUP2 PUSH1 0x8 DUP5 ADD PUSH2 0x2AF4 JUMP JUMPDEST MLOAD SWAP1 KECCAK256 DUP5 EQ PUSH2 0x2C06 JUMPI DUP1 MLOAD PUSH4 0x62617365 PUSH1 0xE0 SHL DUP4 DUP3 ADD SWAP1 DUP2 MSTORE SWAP1 PUSH2 0x2B7D DUP2 PUSH1 0x4 DUP5 ADD PUSH2 0x2AF4 JUMP JUMPDEST MLOAD SWAP1 KECCAK256 DUP5 EQ PUSH2 0x2BFC JUMPI DUP1 MLOAD PUSH7 0x3837B63CB3B7B7 PUSH1 0xC9 SHL DUP4 DUP3 ADD SWAP1 DUP2 MSTORE SWAP1 PUSH2 0x2BA7 DUP2 PUSH1 0x7 DUP5 ADD PUSH2 0x2AF4 JUMP JUMPDEST MLOAD SWAP1 KECCAK256 DUP5 EQ PUSH2 0x2BF3 JUMPI PUSH2 0x2BE0 SWAP1 MLOAD SWAP2 DUP3 ADD SWAP3 DUP3 PUSH2 0x2BD4 DUP6 PUSH1 0x9 SWAP1 PUSH9 0x6176616C616E636865 PUSH1 0xB8 SHL DUP2 MSTORE ADD SWAP1 JUMP JUMPDEST SUB SWAP1 DUP2 ADD DUP4 MSTORE DUP3 PUSH2 0x28E JUMP JUMPDEST MLOAD SWAP1 KECCAK256 EQ PUSH2 0x2BED JUMPI PUSH1 0x1 SWAP1 JUMP JUMPDEST PUSH2 0xA86A SWAP1 JUMP JUMPDEST POP POP POP POP PUSH1 0x89 SWAP1 JUMP JUMPDEST POP POP POP POP PUSH2 0x2105 SWAP1 JUMP JUMPDEST POP POP POP POP PUSH1 0xA SWAP1 JUMP JUMPDEST POP POP POP POP PUSH2 0xA4B1 SWAP1 JUMP JUMPDEST POP POP POP POP PUSH1 0x1 SWAP1 JUMP JUMPDEST DUP1 ISZERO PUSH2 0x2CA4 JUMPI PUSH1 0x0 DUP2 DUP2 DUP2 DUP1 JUMPDEST PUSH2 0x2C8C JUMPI POP PUSH2 0x2C3D DUP2 PUSH2 0x28D6 JUMP JUMPDEST SWAP4 JUMPDEST PUSH2 0x2C49 JUMPI POP POP POP SWAP1 JUMP JUMPDEST PUSH2 0x2C52 SWAP1 PUSH2 0x170B JUMP JUMPDEST SWAP1 PUSH1 0xA SWAP1 PUSH2 0x2C77 PUSH2 0x2C67 PUSH2 0x25BF DUP5 DUP5 MOD PUSH2 0x227A JUMP JUMPDEST PUSH1 0xF8 SHL PUSH1 0x1 PUSH1 0x1 PUSH1 0xF8 SHL SUB NOT AND SWAP1 JUMP JUMPDEST DUP5 BYTE PUSH2 0x2C83 DUP5 DUP8 PUSH2 0x27D9 JUMP JUMPDEST MSTORE8 DIV SWAP1 DUP2 PUSH2 0x2C3F JUMP JUMPDEST SWAP2 POP PUSH2 0x2C99 PUSH1 0xA SWAP2 PUSH2 0x1791 JUMP JUMPDEST SWAP2 DIV DUP1 DUP5 SWAP3 SWAP2 PUSH2 0x2C2F JUMP JUMPDEST POP PUSH1 0x40 MLOAD PUSH2 0x2CB1 DUP2 PUSH2 0x23D JUMP JUMPDEST PUSH1 0x1 DUP2 MSTORE PUSH1 0x3 PUSH1 0xFC SHL PUSH1 0x20 DUP3 ADD MSTORE SWAP1 JUMP JUMPDEST DUP2 MLOAD ISZERO PUSH2 0x2CCF JUMPI PUSH1 0xA0 ADD MSTORE JUMP JUMPDEST PUSH1 0x40 MLOAD PUSH4 0xFE936CB7 PUSH1 0xE0 SHL DUP2 MSTORE PUSH1 0x4 SWAP1 REVERT JUMPDEST PUSH1 0x40 MLOAD SWAP1 PUSH2 0x2CEE DUP3 PUSH2 0x23D JUMP JUMPDEST PUSH1 0xC DUP3 MSTORE PUSH12 0x31B7B232A637B1B0BA34B7B7 PUSH1 0xA1 SHL PUSH1 0x20 DUP4 ADD MSTORE JUMP JUMPDEST PUSH4 0x4E487B71 PUSH1 0xE0 SHL PUSH1 0x0 MSTORE PUSH1 0x21 PUSH1 0x4 MSTORE PUSH1 0x24 PUSH1 0x0 REVERT JUMPDEST PUSH1 0x3 GT ISZERO PUSH2 0x2D29 JUMPI JUMP JUMPDEST PUSH2 0x2D09 JUMP JUMPDEST PUSH1 0x40 MLOAD SWAP1 PUSH2 0x2D3B DUP3 PUSH2 0x23D JUMP JUMPDEST PUSH1 0x8 DUP3 MSTORE PUSH8 0x6C616E6775616765 PUSH1 0xC0 SHL PUSH1 0x20 DUP4 ADD MSTORE JUMP JUMPDEST PUSH1 0x1 GT ISZERO PUSH2 0x2D29 JUMPI JUMP JUMPDEST PUSH1 0x40 MLOAD SWAP1 PUSH2 0x2D69 DUP3 PUSH2 0x23D JUMP JUMPDEST PUSH1 0x6 DUP3 MSTORE PUSH6 0x736F75726365 PUSH1 0xD0 SHL PUSH1 0x20 DUP4 ADD MSTORE JUMP JUMPDEST PUSH1 0x40 MLOAD SWAP1 PUSH2 0x2D8B DUP3 PUSH2 0x23D JUMP JUMPDEST PUSH1 0x4 DUP3 MSTORE PUSH4 0x61726773 PUSH1 0xE0 SHL PUSH1 0x20 DUP4 ADD MSTORE JUMP JUMPDEST PUSH1 0x40 MLOAD SWAP1 PUSH2 0x2DAB DUP3 PUSH2 0x23D JUMP JUMPDEST PUSH1 0xF DUP3 MSTORE PUSH15 0x39B2B1B932BA39A637B1B0BA34B7B7 PUSH1 0x89 SHL PUSH1 0x20 DUP4 ADD MSTORE JUMP JUMPDEST PUSH1 0x40 MLOAD SWAP1 PUSH2 0x2DD6 DUP3 PUSH2 0x23D JUMP JUMPDEST PUSH1 0x7 DUP3 MSTORE PUSH7 0x73656372657473 PUSH1 0xC8 SHL PUSH1 0x20 DUP4 ADD MSTORE JUMP JUMPDEST PUSH1 0x40 MLOAD SWAP1 PUSH2 0x2DF9 DUP3 PUSH2 0x23D JUMP JUMPDEST PUSH1 0x9 DUP3 MSTORE PUSH9 0x627974657341726773 PUSH1 0xB8 SHL PUSH1 0x20 DUP4 ADD MSTORE JUMP JUMPDEST PUSH2 0x2E19 PUSH2 0x3135 JUMP JUMPDEST SWAP1 PUSH2 0x2E2B PUSH2 0x2E25 PUSH2 0x2CE1 JUMP JUMPDEST DUP4 PUSH2 0x3185 JUMP JUMPDEST PUSH2 0x2E48 DUP2 MLOAD PUSH2 0x2E39 DUP2 PUSH2 0x2D1F JUMP JUMPDEST PUSH2 0x2E42 DUP2 PUSH2 0x2D1F JUMP JUMPDEST DUP4 PUSH2 0x3247 JUMP JUMPDEST PUSH2 0x2E53 PUSH2 0x2E25 PUSH2 0x2D2E JUMP JUMPDEST PUSH2 0x2E6D PUSH1 0x40 DUP3 ADD MLOAD PUSH2 0x2E64 DUP2 PUSH2 0x2D52 JUMP JUMPDEST PUSH2 0x2E42 DUP2 PUSH2 0x2D52 JUMP JUMPDEST PUSH2 0x2E78 PUSH2 0x2E25 PUSH2 0x2D5C JUMP JUMPDEST PUSH2 0x2E86 PUSH1 0x60 DUP3 ADD MLOAD DUP4 PUSH2 0x3185 JUMP JUMPDEST PUSH1 0xA0 DUP2 ADD DUP1 MLOAD MLOAD PUSH2 0x2F86 JUMPI JUMPDEST POP PUSH1 0x80 DUP2 ADD SWAP1 DUP2 MLOAD MLOAD PUSH2 0x2F06 JUMPI JUMPDEST PUSH1 0xC0 SWAP2 POP ADD DUP1 MLOAD MLOAD PUSH2 0x2EB3 JUMPI JUMPDEST POP MLOAD MLOAD SWAP1 JUMP JUMPDEST SWAP2 PUSH2 0x2EBF PUSH2 0x2E25 PUSH2 0x2DEC JUMP JUMPDEST PUSH2 0x2EC8 DUP3 PUSH2 0x32E8 JUMP JUMPDEST PUSH1 0x0 JUMPDEST DUP4 MLOAD DUP1 MLOAD DUP3 LT ISZERO PUSH2 0x2EF3 JUMPI SWAP1 PUSH2 0x2EED PUSH2 0x2EE6 DUP3 PUSH1 0x1 SWAP5 PUSH2 0x1BA7 JUMP JUMPDEST MLOAD DUP6 PUSH2 0x3401 JUMP JUMPDEST ADD PUSH2 0x2ECB JUMP JUMPDEST POP POP SWAP2 POP PUSH2 0x2F00 DUP2 PUSH2 0x3374 JUMP JUMPDEST CODESIZE PUSH2 0x2EAD JUMP JUMPDEST PUSH1 0x20 DUP2 ADD DUP1 MLOAD PUSH2 0x2F15 DUP2 PUSH2 0x2D1F JUMP JUMPDEST PUSH2 0x2F1E DUP2 PUSH2 0x2D1F JUMP JUMPDEST ISZERO PUSH2 0x2F74 JUMPI PUSH1 0xC0 SWAP3 PUSH2 0x2F57 PUSH2 0x2F6F SWAP3 PUSH2 0x2F3E PUSH2 0x2F38 PUSH2 0x2D9E JUMP JUMPDEST DUP9 PUSH2 0x3185 JUMP JUMPDEST MLOAD PUSH2 0x2F48 DUP2 PUSH2 0x2D1F JUMP JUMPDEST PUSH2 0x2F51 DUP2 PUSH2 0x2D1F JUMP JUMPDEST DUP7 PUSH2 0x3247 JUMP JUMPDEST PUSH2 0x2F68 PUSH2 0x2F62 PUSH2 0x2DC9 JUMP JUMPDEST DUP7 PUSH2 0x3185 JUMP JUMPDEST MLOAD DUP5 PUSH2 0x3401 JUMP JUMPDEST PUSH2 0x2EA0 JUMP JUMPDEST PUSH1 0x40 MLOAD PUSH4 0xA80D31F7 PUSH1 0xE0 SHL DUP2 MSTORE PUSH1 0x4 SWAP1 REVERT JUMPDEST SWAP3 PUSH2 0x2F98 PUSH2 0x2F92 PUSH2 0x2D7E JUMP JUMPDEST DUP5 PUSH2 0x3185 JUMP JUMPDEST PUSH2 0x2FA1 DUP4 PUSH2 0x32E8 JUMP JUMPDEST PUSH1 0x0 JUMPDEST DUP5 MLOAD DUP1 MLOAD DUP3 LT ISZERO PUSH2 0x2FCC JUMPI SWAP1 PUSH2 0x2FC6 PUSH2 0x2FBF DUP3 PUSH1 0x1 SWAP5 PUSH2 0x1BA7 JUMP JUMPDEST MLOAD DUP7 PUSH2 0x3185 JUMP JUMPDEST ADD PUSH2 0x2FA4 JUMP JUMPDEST POP POP SWAP3 POP PUSH2 0x2FD9 DUP3 PUSH2 0x3374 JUMP JUMPDEST CODESIZE PUSH2 0x2E92 JUMP JUMPDEST SWAP3 SWAP1 PUSH1 0x20 SWAP3 PUSH1 0x1 PUSH1 0x1 PUSH1 0x40 SHL SUB SWAP3 PUSH4 0xFFFFFFFF PUSH2 0x301E PUSH1 0x40 MLOAD SWAP8 DUP9 SWAP7 DUP8 SWAP7 PUSH4 0x230E93B1 PUSH1 0xE1 SHL DUP9 MSTORE AND PUSH1 0x4 DUP8 ADD MSTORE PUSH1 0xA0 PUSH1 0x24 DUP8 ADD MSTORE PUSH1 0xA4 DUP7 ADD SWAP1 PUSH2 0x56A JUMP JUMPDEST PUSH1 0x1 PUSH1 0x44 DUP7 ADD MSTORE SWAP3 AND PUSH1 0x64 DUP5 ADD MSTORE PUSH1 0x84 DUP4 ADD MSTORE SUB DUP2 PUSH1 0x0 PUSH32 0x0 PUSH1 0x1 PUSH1 0x1 PUSH1 0xA0 SHL SUB AND GAS CALL SWAP1 DUP2 ISZERO PUSH2 0xF25 JUMPI PUSH1 0x0 SWAP2 PUSH2 0x309A JUMPI JUMPDEST POP DUP1 PUSH32 0x1131472297A800FEE664D1D89CFA8F7676FF07189ECC53F80BBB5F4969099DB8 PUSH1 0x0 DUP1 LOG2 SWAP1 JUMP JUMPDEST PUSH2 0x30B3 SWAP2 POP PUSH1 0x20 RETURNDATASIZE PUSH1 0x20 GT PUSH2 0xF1E JUMPI PUSH2 0xF16 DUP2 DUP4 PUSH2 0x28E JUMP JUMPDEST CODESIZE PUSH2 0x3070 JUMP JUMPDEST PUSH1 0x40 MLOAD SWAP1 PUSH4 0x125FA267 PUSH1 0xE3 SHL PUSH1 0x20 DUP4 ADD MSTORE MLOAD ISZERO ISZERO PUSH1 0x24 DUP3 ADD MSTORE PUSH1 0x24 DUP2 MSTORE PUSH1 0x60 DUP2 ADD DUP2 DUP2 LT PUSH1 0x1 PUSH1 0x1 PUSH1 0x40 SHL SUB DUP3 GT OR PUSH2 0x238 JUMPI PUSH1 0x40 MSTORE SWAP1 JUMP JUMPDEST DUP2 MLOAD ISZERO PUSH2 0x3109 JUMPI PUSH1 0x0 DUP1 DUP3 MSTORE PUSH1 0x40 DUP3 ADD MSTORE PUSH1 0x60 ADD MSTORE JUMP JUMPDEST PUSH1 0x40 MLOAD PUSH4 0x22CE3EDD PUSH1 0xE0 SHL DUP2 MSTORE PUSH1 0x4 SWAP1 REVERT JUMPDEST PUSH1 0x40 MLOAD SWAP1 PUSH2 0x3128 DUP3 PUSH2 0x23D JUMP JUMPDEST PUSH1 0x0 PUSH1 0x20 DUP4 PUSH1 0x60 DUP2 MSTORE ADD MSTORE JUMP JUMPDEST PUSH1 0x40 MLOAD PUSH2 0x3141 DUP2 PUSH2 0x23D JUMP JUMPDEST PUSH2 0x3149 PUSH2 0x311B JUMP JUMPDEST DUP1 DUP3 MSTORE PUSH1 0x20 DUP3 ADD PUSH1 0x0 DUP2 MSTORE PUSH2 0x315C PUSH2 0x311B JUMP JUMPDEST POP PUSH2 0x100 PUSH1 0x20 DUP4 ADD MSTORE PUSH1 0x40 MLOAD DUP1 SWAP3 MSTORE PUSH1 0x0 DUP3 MSTORE PUSH2 0x120 DUP3 ADD SWAP2 DUP3 LT PUSH2 0x32A JUMPI PUSH1 0x0 SWAP2 PUSH1 0x40 MSTORE MSTORE SWAP1 JUMP JUMPDEST DUP2 MLOAD PUSH2 0x31C9 SWAP3 SWAP2 SWAP1 PUSH1 0x1 PUSH1 0x1 PUSH1 0x40 SHL SUB DUP2 AND SWAP1 PUSH1 0x17 DUP3 GT PUSH2 0x31CC JUMPI PUSH2 0x31B4 SWAP2 POP PUSH1 0x60 PUSH1 0xFF DUP5 MLOAD SWAP3 AND OR SWAP1 PUSH2 0x38CF JUMP JUMPDEST POP JUMPDEST MLOAD SWAP1 PUSH2 0x31C0 PUSH2 0x311B JUMP JUMPDEST POP DUP1 MLOAD SWAP2 PUSH2 0x3AFF JUMP JUMPDEST POP JUMP JUMPDEST POP PUSH1 0xFF DUP2 GT PUSH2 0x31F1 JUMPI PUSH2 0x31EB SWAP1 PUSH2 0x31E3 DUP4 MLOAD PUSH2 0x36D6 JUMP JUMPDEST POP DUP3 MLOAD PUSH2 0x3A8B JUMP JUMPDEST POP PUSH2 0x31B6 JUMP JUMPDEST PUSH2 0xFFFF DUP2 GT PUSH2 0x3210 JUMPI PUSH2 0x31EB SWAP1 PUSH2 0x3208 DUP4 MLOAD PUSH2 0x3671 JUMP JUMPDEST POP DUP3 MLOAD PUSH2 0x3A1D JUMP JUMPDEST PUSH4 0xFFFFFFFF DUP2 GT PUSH2 0x3231 JUMPI PUSH2 0x31EB SWAP1 PUSH2 0x3229 DUP4 MLOAD PUSH2 0x360C JUMP JUMPDEST POP DUP3 MLOAD PUSH2 0x39AD JUMP JUMPDEST PUSH2 0x31EB SWAP1 PUSH2 0x323F DUP4 MLOAD PUSH2 0x359C JUMP JUMPDEST POP DUP3 MLOAD PUSH2 0x393A JUMP JUMPDEST SWAP1 DUP2 MLOAD SWAP2 PUSH2 0x3253 PUSH2 0x311B JUMP JUMPDEST POP DUP3 MLOAD MLOAD PUSH1 0x1 DUP2 ADD SWAP1 DUP2 DUP2 GT PUSH2 0x8F1 JUMPI PUSH1 0x20 DUP6 ADD MLOAD DUP2 LT ISZERO PUSH2 0x32AC JUMPI JUMPDEST PUSH1 0xC2 PUSH1 0x20 PUSH2 0x2BC SWAP7 MLOAD SWAP3 DUP4 ADD ADD MSTORE8 DUP1 MLOAD DUP3 GT PUSH2 0x32A4 JUMPI JUMPDEST POP POP PUSH1 0x40 MLOAD SWAP2 PUSH1 0x20 DUP4 ADD MSTORE PUSH1 0x20 DUP3 MSTORE PUSH2 0x329F DUP3 PUSH2 0x23D JUMP JUMPDEST PUSH2 0x3401 JUMP JUMPDEST MSTORE CODESIZE DUP1 PUSH2 0x3287 JUMP JUMPDEST DUP2 PUSH1 0x1 SHL SWAP5 DUP3 DUP7 DIV PUSH1 0x2 EQ DUP4 ISZERO OR ISZERO PUSH2 0x8F1 JUMPI PUSH1 0x20 DUP2 PUSH2 0x32DE PUSH2 0x2BC SWAP9 PUSH2 0x32D7 PUSH1 0xC2 SWAP6 MLOAD SWAP2 DUP5 PUSH2 0x3485 JUMP JUMPDEST POP DUP3 PUSH2 0x34D7 JUMP JUMPDEST POP SWAP7 POP POP POP PUSH2 0x3270 JUMP JUMPDEST DUP1 MLOAD SWAP1 PUSH2 0x32F3 PUSH2 0x311B JUMP JUMPDEST POP DUP2 MLOAD MLOAD PUSH1 0x1 DUP2 ADD SWAP1 DUP2 DUP2 GT PUSH2 0x8F1 JUMPI PUSH1 0x20 DUP5 ADD MLOAD DUP2 LT ISZERO PUSH2 0x3341 JUMPI JUMPDEST PUSH1 0x9F PUSH1 0x20 DUP1 SWAP6 MLOAD SWAP3 DUP4 ADD ADD MSTORE8 DUP1 MLOAD DUP3 GT PUSH2 0x3339 JUMPI JUMPDEST POP POP ADD DUP1 MLOAD SWAP1 PUSH1 0x1 DUP3 ADD DUP1 SWAP3 GT PUSH2 0x8F1 JUMPI MSTORE JUMP JUMPDEST MSTORE CODESIZE DUP1 PUSH2 0x3325 JUMP JUMPDEST DUP2 PUSH1 0x1 SHL SWAP4 DUP3 DUP6 DIV PUSH1 0x2 EQ DUP4 ISZERO OR ISZERO PUSH2 0x8F1 JUMPI PUSH1 0x20 DUP2 PUSH2 0x336A DUP3 SWAP8 PUSH2 0x32D7 PUSH1 0x9F SWAP6 MLOAD SWAP2 DUP5 PUSH2 0x3485 JUMP JUMPDEST POP SWAP6 POP POP POP PUSH2 0x3310 JUMP JUMPDEST DUP1 MLOAD SWAP1 PUSH2 0x337F PUSH2 0x311B JUMP JUMPDEST POP DUP2 MLOAD MLOAD PUSH1 0x1 DUP2 ADD SWAP1 DUP2 DUP2 GT PUSH2 0x8F1 JUMPI PUSH1 0x20 DUP5 ADD MLOAD DUP2 LT ISZERO PUSH2 0x33CE JUMPI JUMPDEST PUSH1 0xFF PUSH1 0x20 DUP1 SWAP6 MLOAD SWAP3 DUP4 ADD ADD MSTORE8 DUP1 MLOAD DUP3 GT PUSH2 0x33C6 JUMPI JUMPDEST POP POP ADD DUP1 MLOAD PUSH1 0x0 NOT DUP2 ADD SWAP2 SWAP1 DUP3 GT PUSH2 0x8F1 JUMPI MSTORE JUMP JUMPDEST MSTORE CODESIZE DUP1 PUSH2 0x33B1 JUMP JUMPDEST DUP2 PUSH1 0x1 SHL SWAP4 DUP3 DUP6 DIV PUSH1 0x2 EQ DUP4 ISZERO OR ISZERO PUSH2 0x8F1 JUMPI PUSH1 0x20 DUP2 PUSH2 0x33F7 DUP3 SWAP8 PUSH2 0x32D7 PUSH1 0xFF SWAP6 MLOAD SWAP2 DUP5 PUSH2 0x3485 JUMP JUMPDEST POP SWAP6 POP POP POP PUSH2 0x339C JUMP JUMPDEST DUP2 MLOAD PUSH2 0x31C9 SWAP3 SWAP2 SWAP1 PUSH1 0x1 PUSH1 0x1 PUSH1 0x40 SHL SUB DUP2 AND SWAP1 PUSH1 0x17 DUP3 GT PUSH2 0x3430 JUMPI PUSH2 0x31B4 SWAP2 POP PUSH1 0x40 PUSH1 0xFF DUP5 MLOAD SWAP3 AND OR SWAP1 PUSH2 0x38CF JUMP JUMPDEST POP PUSH1 0xFF DUP2 GT PUSH2 0x3447 JUMPI PUSH2 0x31EB SWAP1 PUSH2 0x31E3 DUP4 MLOAD PUSH2 0x386A JUMP JUMPDEST PUSH2 0xFFFF DUP2 GT PUSH2 0x345E JUMPI PUSH2 0x31EB SWAP1 PUSH2 0x3208 DUP4 MLOAD PUSH2 0x3805 JUMP JUMPDEST PUSH4 0xFFFFFFFF DUP2 GT PUSH2 0x3477 JUMPI PUSH2 0x31EB SWAP1 PUSH2 0x3229 DUP4 MLOAD PUSH2 0x37A0 JUMP JUMPDEST PUSH2 0x31EB SWAP1 PUSH2 0x323F DUP4 MLOAD PUSH2 0x373B JUMP JUMPDEST SWAP1 PUSH2 0x348E PUSH2 0x311B JUMP JUMPDEST POP PUSH1 0x1F DUP2 AND DUP1 PUSH2 0x34BD JUMPI JUMPDEST POP DUP1 PUSH1 0x20 DUP4 ADD MSTORE PUSH1 0x40 MLOAD SWAP1 DUP2 DUP4 MSTORE PUSH1 0x0 DUP3 MSTORE DUP2 ADD PUSH1 0x20 ADD SWAP1 DUP2 LT PUSH2 0x32A JUMPI PUSH1 0x40 MSTORE SWAP1 JUMP JUMPDEST PUSH1 0x20 SUB PUSH1 0x20 DUP2 GT PUSH2 0x8F1 JUMPI DUP2 ADD DUP1 SWAP2 GT PUSH2 0x8F1 JUMPI CODESIZE PUSH2 0x3499 JUMP JUMPDEST SWAP1 PUSH2 0x34E0 PUSH2 0x311B JUMP JUMPDEST POP DUP1 MLOAD SWAP1 PUSH2 0x34EC PUSH2 0x311B JUMP JUMPDEST POP PUSH2 0x34FA DUP2 MLOAD DUP4 GT ISZERO PUSH2 0x3AF8 JUMP JUMPDEST DUP3 MLOAD MLOAD SWAP2 PUSH2 0x3508 DUP2 DUP5 PUSH2 0x2296 JUMP JUMPDEST PUSH1 0x20 SWAP3 PUSH1 0x20 DUP7 ADD MLOAD DUP3 GT PUSH2 0x3585 JUMPI JUMPDEST PUSH1 0x20 SWAP2 DUP7 MLOAD DUP4 DUP2 MLOAD SWAP8 DUP3 ADD ADD SWAP7 DUP3 GT PUSH2 0x357D JUMPI JUMPDEST POP POP ADD SWAP2 JUMPDEST DUP1 DUP3 LT ISZERO PUSH2 0x3555 JUMPI POP PUSH1 0x0 NOT SWAP1 PUSH1 0x20 SUB PUSH2 0x100 EXP ADD SWAP1 DUP2 NOT SWAP1 MLOAD AND SWAP1 DUP3 MLOAD AND OR SWAP1 MSTORE SWAP1 JUMP JUMPDEST SWAP1 SWAP2 SWAP3 PUSH2 0x3571 PUSH2 0x356B PUSH2 0x3577 SWAP3 DUP7 MLOAD DUP2 MSTORE PUSH2 0x2288 JUMP JUMPDEST SWAP5 PUSH2 0x2288 JUMP JUMPDEST SWAP3 PUSH2 0x171A JUMP JUMPDEST SWAP1 PUSH2 0x3530 JUMP JUMPDEST MSTORE CODESIZE DUP1 PUSH2 0x352B JUMP JUMPDEST PUSH2 0x3597 PUSH2 0x3591 DUP4 PUSH2 0x1C09 JUMP JUMPDEST DUP8 PUSH2 0x3BAB JUMP JUMPDEST PUSH2 0x3517 JUMP JUMPDEST PUSH2 0x35A4 PUSH2 0x311B JUMP JUMPDEST POP DUP1 MLOAD MLOAD PUSH1 0x1 DUP2 ADD SWAP1 DUP2 DUP2 GT PUSH2 0x8F1 JUMPI PUSH1 0x20 DUP4 ADD MLOAD DUP2 LT ISZERO PUSH2 0x35DD JUMPI JUMPDEST PUSH1 0x7B PUSH1 0x20 DUP5 MLOAD SWAP3 DUP4 ADD ADD MSTORE8 DUP1 MLOAD DUP3 GT PUSH2 0x35D9 JUMPI POP POP SWAP1 JUMP JUMPDEST MSTORE SWAP1 JUMP JUMPDEST DUP2 PUSH1 0x1 SHL DUP3 DUP2 DIV PUSH1 0x2 EQ DUP4 ISZERO OR ISZERO PUSH2 0x8F1 JUMPI PUSH2 0x3606 SWAP1 PUSH2 0x35FF DUP6 MLOAD SWAP2 DUP7 PUSH2 0x3485 JUMP JUMPDEST POP DUP5 PUSH2 0x34D7 JUMP JUMPDEST POP PUSH2 0x35C1 JUMP JUMPDEST PUSH2 0x3614 PUSH2 0x311B JUMP JUMPDEST POP DUP1 MLOAD MLOAD PUSH1 0x1 DUP2 ADD SWAP1 DUP2 DUP2 GT PUSH2 0x8F1 JUMPI PUSH1 0x20 DUP4 ADD MLOAD DUP2 LT ISZERO PUSH2 0x3649 JUMPI JUMPDEST PUSH1 0x7A PUSH1 0x20 DUP5 MLOAD SWAP3 DUP4 ADD ADD MSTORE8 DUP1 MLOAD DUP3 GT PUSH2 0x35D9 JUMPI POP POP SWAP1 JUMP JUMPDEST DUP2 PUSH1 0x1 SHL DUP3 DUP2 DIV PUSH1 0x2 EQ DUP4 ISZERO OR ISZERO PUSH2 0x8F1 JUMPI PUSH2 0x366B SWAP1 PUSH2 0x35FF DUP6 MLOAD SWAP2 DUP7 PUSH2 0x3485 JUMP JUMPDEST POP PUSH2 0x3631 JUMP JUMPDEST PUSH2 0x3679 PUSH2 0x311B JUMP JUMPDEST POP DUP1 MLOAD MLOAD PUSH1 0x1 DUP2 ADD SWAP1 DUP2 DUP2 GT PUSH2 0x8F1 JUMPI PUSH1 0x20 DUP4 ADD MLOAD DUP2 LT ISZERO PUSH2 0x36AE JUMPI JUMPDEST PUSH1 0x79 PUSH1 0x20 DUP5 MLOAD SWAP3 DUP4 ADD ADD MSTORE8 DUP1 MLOAD DUP3 GT PUSH2 0x35D9 JUMPI POP POP SWAP1 JUMP JUMPDEST DUP2 PUSH1 0x1 SHL DUP3 DUP2 DIV PUSH1 0x2 EQ DUP4 ISZERO OR ISZERO PUSH2 0x8F1 JUMPI PUSH2 0x36D0 SWAP1 PUSH2 0x35FF DUP6 MLOAD SWAP2 DUP7 PUSH2 0x3485 JUMP JUMPDEST POP PUSH2 0x3696 JUMP JUMPDEST PUSH2 0x36DE PUSH2 0x311B JUMP JUMPDEST POP DUP1 MLOAD MLOAD PUSH1 0x1 DUP2 ADD SWAP1 DUP2 DUP2 GT PUSH2 0x8F1 JUMPI PUSH1 0x20 DUP4 ADD MLOAD DUP2 LT ISZERO PUSH2 0x3713 JUMPI JUMPDEST PUSH1 0x78 PUSH1 0x20 DUP5 MLOAD SWAP3 DUP4 ADD ADD MSTORE8 DUP1 MLOAD DUP3 GT PUSH2 0x35D9 JUMPI POP POP SWAP1 JUMP JUMPDEST DUP2 PUSH1 0x1 SHL DUP3 DUP2 DIV PUSH1 0x2 EQ DUP4 ISZERO OR ISZERO PUSH2 0x8F1 JUMPI PUSH2 0x3735 SWAP1 PUSH2 0x35FF DUP6 MLOAD SWAP2 DUP7 PUSH2 0x3485 JUMP JUMPDEST POP PUSH2 0x36FB JUMP JUMPDEST PUSH2 0x3743 PUSH2 0x311B JUMP JUMPDEST POP DUP1 MLOAD MLOAD PUSH1 0x1 DUP2 ADD SWAP1 DUP2 DUP2 GT PUSH2 0x8F1 JUMPI PUSH1 0x20 DUP4 ADD MLOAD DUP2 LT ISZERO PUSH2 0x3778 JUMPI JUMPDEST PUSH1 0x5B PUSH1 0x20 DUP5 MLOAD SWAP3 DUP4 ADD ADD MSTORE8 DUP1 MLOAD DUP3 GT PUSH2 0x35D9 JUMPI POP POP SWAP1 JUMP JUMPDEST DUP2 PUSH1 0x1 SHL DUP3 DUP2 DIV PUSH1 0x2 EQ DUP4 ISZERO OR ISZERO PUSH2 0x8F1 JUMPI PUSH2 0x379A SWAP1 PUSH2 0x35FF DUP6 MLOAD SWAP2 DUP7 PUSH2 0x3485 JUMP JUMPDEST POP PUSH2 0x3760 JUMP JUMPDEST PUSH2 0x37A8 PUSH2 0x311B JUMP JUMPDEST POP DUP1 MLOAD MLOAD PUSH1 0x1 DUP2 ADD SWAP1 DUP2 DUP2 GT PUSH2 0x8F1 JUMPI PUSH1 0x20 DUP4 ADD MLOAD DUP2 LT ISZERO PUSH2 0x37DD JUMPI JUMPDEST PUSH1 0x5A PUSH1 0x20 DUP5 MLOAD SWAP3 DUP4 ADD ADD MSTORE8 DUP1 MLOAD DUP3 GT PUSH2 0x35D9 JUMPI POP POP SWAP1 JUMP JUMPDEST DUP2 PUSH1 0x1 SHL DUP3 DUP2 DIV PUSH1 0x2 EQ DUP4 ISZERO OR ISZERO PUSH2 0x8F1 JUMPI PUSH2 0x37FF SWAP1 PUSH2 0x35FF DUP6 MLOAD SWAP2 DUP7 PUSH2 0x3485 JUMP JUMPDEST POP PUSH2 0x37C5 JUMP JUMPDEST PUSH2 0x380D PUSH2 0x311B JUMP JUMPDEST POP DUP1 MLOAD MLOAD PUSH1 0x1 DUP2 ADD SWAP1 DUP2 DUP2 GT PUSH2 0x8F1 JUMPI PUSH1 0x20 DUP4 ADD MLOAD DUP2 LT ISZERO PUSH2 0x3842 JUMPI JUMPDEST PUSH1 0x59 PUSH1 0x20 DUP5 MLOAD SWAP3 DUP4 ADD ADD MSTORE8 DUP1 MLOAD DUP3 GT PUSH2 0x35D9 JUMPI POP POP SWAP1 JUMP JUMPDEST DUP2 PUSH1 0x1 SHL DUP3 DUP2 DIV PUSH1 0x2 EQ DUP4 ISZERO OR ISZERO PUSH2 0x8F1 JUMPI PUSH2 0x3864 SWAP1 PUSH2 0x35FF DUP6 MLOAD SWAP2 DUP7 PUSH2 0x3485 JUMP JUMPDEST POP PUSH2 0x382A JUMP JUMPDEST PUSH2 0x3872 PUSH2 0x311B JUMP JUMPDEST POP DUP1 MLOAD MLOAD PUSH1 0x1 DUP2 ADD SWAP1 DUP2 DUP2 GT PUSH2 0x8F1 JUMPI PUSH1 0x20 DUP4 ADD MLOAD DUP2 LT ISZERO PUSH2 0x38A7 JUMPI JUMPDEST PUSH1 0x58 PUSH1 0x20 DUP5 MLOAD SWAP3 DUP4 ADD ADD MSTORE8 DUP1 MLOAD DUP3 GT PUSH2 0x35D9 JUMPI POP POP SWAP1 JUMP JUMPDEST DUP2 PUSH1 0x1 SHL DUP3 DUP2 DIV PUSH1 0x2 EQ DUP4 ISZERO OR ISZERO PUSH2 0x8F1 JUMPI PUSH2 0x38C9 SWAP1 PUSH2 0x35FF DUP6 MLOAD SWAP2 DUP7 PUSH2 0x3485 JUMP JUMPDEST POP PUSH2 0x388F JUMP JUMPDEST SWAP1 PUSH2 0x38D8 PUSH2 0x311B JUMP JUMPDEST POP DUP2 MLOAD MLOAD PUSH1 0x1 DUP2 ADD SWAP2 DUP3 DUP3 GT PUSH2 0x8F1 JUMPI PUSH1 0x20 DUP5 ADD MLOAD DUP3 LT ISZERO PUSH2 0x390B JUMPI JUMPDEST PUSH1 0x20 DUP5 MLOAD SWAP3 DUP4 ADD ADD MSTORE8 DUP1 MLOAD DUP3 GT PUSH2 0x35D9 JUMPI POP POP SWAP1 JUMP JUMPDEST DUP3 PUSH1 0x1 SHL DUP4 DUP2 DIV PUSH1 0x2 EQ DUP5 ISZERO OR ISZERO PUSH2 0x8F1 JUMPI PUSH2 0x3934 SWAP1 PUSH2 0x392D DUP7 MLOAD SWAP2 DUP8 PUSH2 0x3485 JUMP JUMPDEST POP DUP6 PUSH2 0x34D7 JUMP JUMPDEST POP PUSH2 0x38F5 JUMP JUMPDEST SWAP1 PUSH2 0x3943 PUSH2 0x311B JUMP JUMPDEST POP DUP2 MLOAD MLOAD DUP1 PUSH1 0x8 ADD SWAP2 DUP3 PUSH1 0x8 GT PUSH2 0x8F1 JUMPI PUSH1 0x20 DUP5 ADD MLOAD DUP4 GT PUSH2 0x3985 JUMPI JUMPDEST PUSH1 0x8 DUP5 MLOAD SWAP3 DUP4 ADD ADD SWAP1 PUSH1 0x1 PUSH1 0x1 PUSH1 0x40 SHL SUB NOT DUP3 MLOAD AND OR SWAP1 MSTORE DUP1 MLOAD DUP3 GT PUSH2 0x35D9 JUMPI POP POP SWAP1 JUMP JUMPDEST DUP3 PUSH1 0x1 SHL DUP4 DUP2 DIV PUSH1 0x2 EQ DUP5 ISZERO OR ISZERO PUSH2 0x8F1 JUMPI PUSH2 0x39A7 SWAP1 PUSH2 0x392D DUP7 MLOAD SWAP2 DUP8 PUSH2 0x3485 JUMP JUMPDEST POP PUSH2 0x3960 JUMP JUMPDEST SWAP1 PUSH2 0x39B6 PUSH2 0x311B JUMP JUMPDEST POP DUP2 MLOAD MLOAD DUP1 PUSH1 0x4 ADD SWAP2 DUP3 PUSH1 0x4 GT PUSH2 0x8F1 JUMPI PUSH1 0x20 DUP5 ADD MLOAD DUP4 GT PUSH2 0x39F5 JUMPI JUMPDEST PUSH1 0x4 DUP5 MLOAD SWAP3 DUP4 ADD ADD SWAP1 PUSH4 0xFFFFFFFF NOT DUP3 MLOAD AND OR SWAP1 MSTORE DUP1 MLOAD DUP3 GT PUSH2 0x35D9 JUMPI POP POP SWAP1 JUMP JUMPDEST DUP3 PUSH1 0x1 SHL DUP4 DUP2 DIV PUSH1 0x2 EQ DUP5 ISZERO OR ISZERO PUSH2 0x8F1 JUMPI PUSH2 0x3A17 SWAP1 PUSH2 0x392D DUP7 MLOAD SWAP2 DUP8 PUSH2 0x3485 JUMP JUMPDEST POP PUSH2 0x39D3 JUMP JUMPDEST SWAP1 PUSH2 0x3A26 PUSH2 0x311B JUMP JUMPDEST POP DUP2 MLOAD MLOAD DUP1 PUSH1 0x2 ADD SWAP2 DUP3 PUSH1 0x2 GT PUSH2 0x8F1 JUMPI PUSH1 0x20 DUP5 ADD MLOAD DUP4 GT PUSH2 0x3A63 JUMPI JUMPDEST PUSH1 0x2 DUP5 MLOAD SWAP3 DUP4 ADD ADD SWAP1 PUSH2 0xFFFF NOT DUP3 MLOAD AND OR SWAP1 MSTORE DUP1 MLOAD DUP3 GT PUSH2 0x35D9 JUMPI POP POP SWAP1 JUMP JUMPDEST DUP3 PUSH1 0x1 SHL DUP4 DUP2 DIV PUSH1 0x2 EQ DUP5 ISZERO OR ISZERO PUSH2 0x8F1 JUMPI PUSH2 0x3A85 SWAP1 PUSH2 0x392D DUP7 MLOAD SWAP2 DUP8 PUSH2 0x3485 JUMP JUMPDEST POP PUSH2 0x3A43 JUMP JUMPDEST SWAP1 PUSH2 0x3A94 PUSH2 0x311B JUMP JUMPDEST POP DUP2 MLOAD MLOAD DUP1 PUSH1 0x1 ADD SWAP2 DUP3 PUSH1 0x1 GT PUSH2 0x8F1 JUMPI PUSH1 0x20 DUP5 ADD MLOAD DUP4 GT PUSH2 0x3AD0 JUMPI JUMPDEST PUSH1 0x1 DUP5 MLOAD SWAP3 DUP4 ADD ADD SWAP1 PUSH1 0xFF NOT DUP3 MLOAD AND OR SWAP1 MSTORE DUP1 MLOAD DUP3 GT PUSH2 0x35D9 JUMPI POP POP SWAP1 JUMP JUMPDEST DUP3 PUSH1 0x1 SHL DUP4 DUP2 DIV PUSH1 0x2 EQ DUP5 ISZERO OR ISZERO PUSH2 0x8F1 JUMPI PUSH2 0x3AF2 SWAP1 PUSH2 0x392D DUP7 MLOAD SWAP2 DUP8 PUSH2 0x3485 JUMP JUMPDEST POP PUSH2 0x3AB1 JUMP JUMPDEST ISZERO PUSH2 0x32A JUMPI JUMP JUMPDEST SWAP2 SWAP1 PUSH2 0x3B09 PUSH2 0x311B JUMP JUMPDEST POP PUSH2 0x3B17 DUP2 MLOAD DUP4 GT ISZERO PUSH2 0x3AF8 JUMP JUMPDEST DUP3 MLOAD MLOAD SWAP2 PUSH1 0x20 PUSH2 0x3B27 DUP3 DUP6 PUSH2 0x2296 JUMP JUMPDEST SWAP3 DUP2 SWAP4 DUP3 DUP8 ADD MLOAD DUP2 GT PUSH2 0x3B94 JUMPI JUMPDEST DUP7 MLOAD DUP4 DUP2 MLOAD SWAP8 DUP3 ADD ADD SWAP7 DUP3 GT PUSH2 0x3B8C JUMPI JUMPDEST POP POP ADD SWAP2 JUMPDEST DUP1 DUP3 LT ISZERO PUSH2 0x3B70 JUMPI POP PUSH1 0x0 NOT SWAP1 PUSH1 0x20 SUB PUSH2 0x100 EXP ADD SWAP1 DUP2 NOT SWAP1 MLOAD AND SWAP1 DUP3 MLOAD AND OR SWAP1 MSTORE SWAP1 JUMP JUMPDEST SWAP1 SWAP2 SWAP3 PUSH2 0x3571 PUSH2 0x356B PUSH2 0x3B86 SWAP3 DUP7 MLOAD DUP2 MSTORE PUSH2 0x2288 JUMP JUMPDEST SWAP1 PUSH2 0x3B4B JUMP JUMPDEST MSTORE CODESIZE DUP1 PUSH2 0x3B46 JUMP JUMPDEST PUSH2 0x3BA6 PUSH2 0x3BA0 DUP3 PUSH2 0x1C09 JUMP JUMPDEST DUP9 PUSH2 0x3BAB JUMP JUMPDEST PUSH2 0x3B35 JUMP JUMPDEST SWAP1 PUSH2 0x31C9 SWAP2 PUSH2 0x3BBC DUP2 MLOAD SWAP3 DUP3 PUSH2 0x3485 JUMP JUMPDEST POP PUSH2 0x34D7 JUMP INVALID LOG2 PUSH5 0x6970667358 0x22 SLT KECCAK256 0xC1 SWAP6 SSTORE SWAP14 SIGNEXTEND SWAP2 0xAE 0xEB 0xB2 0xE4 DUP10 0xD6 PUSH26 0xA51F3DB2874B723660320D7A20E6E0D37372E664736F6C634300 ADDMOD XOR STOP CALLER "},"methodIdentifiers":{"acceptOwnership()":"79ba5097","aggregateProofs(bytes[],bytes[])":"d175d81a","aggregatedProofHashes(uint256,uint256)":"39a9e4b3","authorizedCallers(address)":"536fff6c","checkUpkeep(bytes)":"6e04ff0d","contractOwner()":"ce606ee0","functionsRequestToProofId(bytes32)":"56959332","getProofRequest(uint256)":"152a9526","getSubscriptionId()":"de3d9fb7","groth16Verifier()":"19c813be","handleOracleFulfillment(bytes32,bytes,bytes)":"0ca76175","isStateVerified(bytes32)":"a9431f23","lastUpkeepTimestamp()":"624cffd4","owner()":"8da5cb5b","performUpkeep(bytes)":"4585e33b","proofRequests(uint256)":"25825746","rawFulfillRandomWords(uint256,uint256[])":"1fe543e3","requestCounter()":"973a814e","requestProofVerification(string,uint256)":"57efe032","s_vrfCoordinator()":"9eccacf6","setAuthorizedCaller(address,bool)":"454bbd29","setCoordinator(address)":"8ea98117","setFunctionsConfig(uint64,uint32,bytes32)":"1bd6447a","setFunctionsSource(string)":"36e0025f","setProofServiceUrl(string)":"1098241b","setUpkeepInterval(uint256)":"72e4c9f6","setVRFConfig(uint256,bytes32,uint32)":"b5cce133","transferOwnership(address)":"f2fde38b","upkeepInterval()":"5a74373c","usedProofHashes(bytes32)":"d87318b2","verifiedProofs(bytes32)":"176d80c4"}}}}}