{"contracts/NovaProofAggregator.sol":{"NovaProofAggregator":{"abi":[{"inputs":[{"internalType":"address","name":"vrfCoordinator","type":"address"},{"internalType":"address","name":"functionsRouter","type":"address"},{"internalType":"uint256","name":"vrfSubscriptionId","type":"uint256"},{"internalType":"bytes32","name":"vrfKeyHash","type":"bytes32"},{"internalType":"uint64","name":"functionsSubscriptionId","type":"uint64"},{"internalType":"bytes32","name":"functionsDonId","type":"bytes32"},{"internalType":"address","name":"groth16VerifierAddress","type":"address"},{"internalType":"address","name":"_novaVerifier","type":"address"}],"stateMutability":"nonpayable","type":"constructor"},{"inputs":[],"name":"EmptyArgs","type":"error"},{"inputs":[],"name":"EmptySource","type":"error"},{"inputs":[],"name":"NoInlineSecrets","type":"error"},{"inputs":[{"internalType":"address","name":"have","type":"address"},{"internalType":"address","name":"want","type":"address"}],"name":"OnlyCoordinatorCanFulfill","type":"error"},{"inputs":[{"internalType":"address","name":"have","type":"address"},{"internalType":"address","name":"owner","type":"address"},{"internalType":"address","name":"coordinator","type":"address"}],"name":"OnlyOwnerOrCoordinator","type":"error"},{"inputs":[],"name":"OnlyRouterCanFulfill","type":"error"},{"inputs":[],"name":"ZeroAddress","type":"error"},{"anonymous":false,"inputs":[{"indexed":false,"internalType":"address","name":"vrfCoordinator","type":"address"}],"name":"CoordinatorSet","type":"event"},{"anonymous":false,"inputs":[{"indexed":true,"internalType":"bytes32","name":"requestId","type":"bytes32"},{"indexed":false,"internalType":"bytes","name":"err","type":"bytes"}],"name":"FunctionsRequestError","type":"event"},{"anonymous":false,"inputs":[{"indexed":true,"internalType":"bytes32","name":"requestId","type":"bytes32"},{"indexed":false,"internalType":"string","name":"sourceChain","type":"string"},{"indexed":false,"internalType":"uint256","name":"blockNumber","type":"uint256"}],"name":"FunctionsRequestSent","type":"event"},{"anonymous":false,"inputs":[{"indexed":true,"internalType":"bytes32","name":"requestId","type":"bytes32"},{"indexed":false,"internalType":"bytes","name":"proof","type":"bytes"},{"indexed":false,"internalType":"bytes","name":"publicInputs","type":"bytes"}],"name":"FunctionsResponseReceived","type":"event"},{"anonymous":false,"inputs":[{"indexed":true,"internalType":"uint256","name":"batchId","type":"uint256"},{"indexed":false,"internalType":"bytes32","name":"aggregatedHash","type":"bytes32"},{"indexed":false,"internalType":"bool","name":"isValid","type":"bool"}],"name":"NovaFoldingCompleted","type":"event"},{"anonymous":false,"inputs":[{"indexed":true,"internalType":"uint256","name":"batchId","type":"uint256"},{"indexed":false,"internalType":"uint256[]","name":"proofIds","type":"uint256[]"},{"indexed":true,"internalType":"address","name":"requester","type":"address"}],"name":"NovaFoldingStarted","type":"event"},{"anonymous":false,"inputs":[{"indexed":true,"internalType":"address","name":"from","type":"address"},{"indexed":true,"internalType":"address","name":"to","type":"address"}],"name":"OwnershipTransferRequested","type":"event"},{"anonymous":false,"inputs":[{"indexed":true,"internalType":"address","name":"from","type":"address"},{"indexed":true,"internalType":"address","name":"to","type":"address"}],"name":"OwnershipTransferred","type":"event"},{"anonymous":false,"inputs":[{"indexed":true,"internalType":"uint256","name":"requestId","type":"uint256"},{"indexed":true,"internalType":"address","name":"requester","type":"address"},{"indexed":false,"internalType":"uint256","name":"blockNumber","type":"uint256"}],"name":"ProofRequested","type":"event"},{"anonymous":false,"inputs":[{"indexed":true,"internalType":"uint256","name":"requestId","type":"uint256"},{"indexed":false,"internalType":"bool","name":"isValid","type":"bool"},{"indexed":false,"internalType":"bytes32","name":"stateRoot","type":"bytes32"}],"name":"ProofVerified","type":"event"},{"anonymous":false,"inputs":[{"indexed":true,"internalType":"uint256","name":"requestId","type":"uint256"},{"indexed":false,"internalType":"uint256","name":"randomValue","type":"uint256"},{"indexed":false,"internalType":"uint256","name":"selectedBlock","type":"uint256"}],"name":"RandomnessReceived","type":"event"},{"anonymous":false,"inputs":[{"indexed":true,"internalType":"uint256","name":"batchId","type":"uint256"},{"indexed":false,"internalType":"uint256","name":"recursionDepth","type":"uint256"},{"indexed":false,"internalType":"bytes","name":"recursiveProof","type":"bytes"}],"name":"RecursiveProofGenerated","type":"event"},{"anonymous":false,"inputs":[{"indexed":true,"internalType":"bytes32","name":"id","type":"bytes32"}],"name":"RequestFulfilled","type":"event"},{"anonymous":false,"inputs":[{"indexed":true,"internalType":"bytes32","name":"id","type":"bytes32"}],"name":"RequestSent","type":"event"},{"inputs":[],"name":"acceptOwnership","outputs":[],"stateMutability":"nonpayable","type":"function"},{"inputs":[{"internalType":"bytes[]","name":"proofs","type":"bytes[]"},{"internalType":"bytes[]","name":"publicInputsArray","type":"bytes[]"}],"name":"aggregateProofs","outputs":[{"internalType":"bytes32","name":"aggregatedHash","type":"bytes32"}],"stateMutability":"nonpayable","type":"function"},{"inputs":[{"internalType":"uint256","name":"","type":"uint256"},{"internalType":"uint256","name":"","type":"uint256"}],"name":"aggregatedProofHashes","outputs":[{"internalType":"bytes32","name":"","type":"bytes32"}],"stateMutability":"view","type":"function"},{"inputs":[{"internalType":"address","name":"","type":"address"}],"name":"authorizedCallers","outputs":[{"internalType":"bool","name":"","type":"bool"}],"stateMutability":"view","type":"function"},{"inputs":[],"name":"batchCounter","outputs":[{"internalType":"uint256","name":"","type":"uint256"}],"stateMutability":"view","type":"function"},{"inputs":[{"internalType":"bytes","name":"","type":"bytes"}],"name":"checkUpkeep","outputs":[{"internalType":"bool","name":"upkeepNeeded","type":"bool"},{"internalType":"bytes","name":"","type":"bytes"}],"stateMutability":"view","type":"function"},{"inputs":[{"internalType":"uint256","name":"batchId","type":"uint256"}],"name":"continueRecursiveFolding","outputs":[],"stateMutability":"nonpayable","type":"function"},{"inputs":[],"name":"contractOwner","outputs":[{"internalType":"address","name":"","type":"address"}],"stateMutability":"view","type":"function"},{"inputs":[{"internalType":"bytes32","name":"","type":"bytes32"}],"name":"functionsRequestToProofId","outputs":[{"internalType":"uint256","name":"","type":"uint256"}],"stateMutability":"view","type":"function"},{"inputs":[{"internalType":"uint256","name":"batchId","type":"uint256"}],"name":"getFoldedInstance","outputs":[{"components":[{"internalType":"uint256","name":"stepIn","type":"uint256"},{"internalType":"uint256","name":"stepOut","type":"uint256"},{"internalType":"uint256","name":"programCounter","type":"uint256"},{"internalType":"bytes32","name":"stateRootIn","type":"bytes32"},{"internalType":"bytes32","name":"stateRootOut","type":"bytes32"},{"internalType":"bytes32","name":"nullifierHash","type":"bytes32"},{"internalType":"bool","name":"isValid","type":"bool"}],"internalType":"struct NovaProofAggregator.NovaInstance","name":"","type":"tuple"}],"stateMutability":"view","type":"function"},{"inputs":[{"internalType":"uint256","name":"requestId","type":"uint256"}],"name":"getProofRequest","outputs":[{"components":[{"internalType":"address","name":"requester","type":"address"},{"internalType":"uint256","name":"timestamp","type":"uint256"},{"internalType":"string","name":"sourceChain","type":"string"},{"internalType":"uint256","name":"blockNumber","type":"uint256"},{"internalType":"bytes32","name":"stateRoot","type":"bytes32"},{"internalType":"bool","name":"isCompleted","type":"bool"},{"internalType":"bool","name":"isValid","type":"bool"}],"internalType":"struct ZKProofAggregator.ProofRequest","name":"","type":"tuple"}],"stateMutability":"view","type":"function"},{"inputs":[{"internalType":"uint256","name":"batchId","type":"uint256"}],"name":"getRecursiveProofBatch","outputs":[{"internalType":"uint256[]","name":"proofIds","type":"uint256[]"},{"internalType":"address","name":"requester","type":"address"},{"internalType":"uint256","name":"timestamp","type":"uint256"},{"internalType":"uint256","name":"recursionDepth","type":"uint256"},{"internalType":"bytes32","name":"aggregatedHash","type":"bytes32"},{"internalType":"bool","name":"isCompleted","type":"bool"}],"stateMutability":"view","type":"function"},{"inputs":[],"name":"getSubscriptionId","outputs":[{"internalType":"uint256","name":"","type":"uint256"}],"stateMutability":"view","type":"function"},{"inputs":[],"name":"groth16Verifier","outputs":[{"internalType":"contract Groth16Verifier","name":"","type":"address"}],"stateMutability":"view","type":"function"},{"inputs":[{"internalType":"bytes32","name":"requestId","type":"bytes32"},{"internalType":"bytes","name":"response","type":"bytes"},{"internalType":"bytes","name":"err","type":"bytes"}],"name":"handleOracleFulfillment","outputs":[],"stateMutability":"nonpayable","type":"function"},{"inputs":[{"internalType":"bytes32","name":"stateRoot","type":"bytes32"}],"name":"isStateVerified","outputs":[{"internalType":"bool","name":"","type":"bool"}],"stateMutability":"view","type":"function"},{"inputs":[],"name":"lastUpkeepTimestamp","outputs":[{"internalType":"uint256","name":"","type":"uint256"}],"stateMutability":"view","type":"function"},{"inputs":[],"name":"maxProofsPerBatch","outputs":[{"internalType":"uint256","name":"","type":"uint256"}],"stateMutability":"view","type":"function"},{"inputs":[],"name":"maxRecursionDepth","outputs":[{"internalType":"uint256","name":"","type":"uint256"}],"stateMutability":"view","type":"function"},{"inputs":[],"name":"minProofsPerBatch","outputs":[{"internalType":"uint256","name":"","type":"uint256"}],"stateMutability":"view","type":"function"},{"inputs":[],"name":"novaVerifier","outputs":[{"internalType":"address","name":"","type":"address"}],"stateMutability":"view","type":"function"},{"inputs":[],"name":"owner","outputs":[{"internalType":"address","name":"","type":"address"}],"stateMutability":"view","type":"function"},{"inputs":[{"internalType":"bytes","name":"","type":"bytes"}],"name":"performUpkeep","outputs":[],"stateMutability":"nonpayable","type":"function"},{"inputs":[{"internalType":"uint256","name":"","type":"uint256"}],"name":"proofRequests","outputs":[{"internalType":"address","name":"requester","type":"address"},{"internalType":"uint256","name":"timestamp","type":"uint256"},{"internalType":"string","name":"sourceChain","type":"string"},{"internalType":"uint256","name":"blockNumber","type":"uint256"},{"internalType":"bytes32","name":"stateRoot","type":"bytes32"},{"internalType":"bool","name":"isCompleted","type":"bool"},{"internalType":"bool","name":"isValid","type":"bool"}],"stateMutability":"view","type":"function"},{"inputs":[{"internalType":"uint256","name":"","type":"uint256"}],"name":"proofToBatch","outputs":[{"internalType":"uint256","name":"","type":"uint256"}],"stateMutability":"view","type":"function"},{"inputs":[{"internalType":"uint256","name":"requestId","type":"uint256"},{"internalType":"uint256[]","name":"randomWords","type":"uint256[]"}],"name":"rawFulfillRandomWords","outputs":[],"stateMutability":"nonpayable","type":"function"},{"inputs":[{"internalType":"uint256","name":"","type":"uint256"}],"name":"recursiveProofBatches","outputs":[{"internalType":"address","name":"requester","type":"address"},{"internalType":"uint256","name":"timestamp","type":"uint256"},{"internalType":"uint256","name":"recursionDepth","type":"uint256"},{"internalType":"bytes32","name":"aggregatedHash","type":"bytes32"},{"components":[{"internalType":"uint256","name":"stepIn","type":"uint256"},{"internalType":"uint256","name":"stepOut","type":"uint256"},{"internalType":"uint256","name":"programCounter","type":"uint256"},{"internalType":"bytes32","name":"stateRootIn","type":"bytes32"},{"internalType":"bytes32","name":"stateRootOut","type":"bytes32"},{"internalType":"bytes32","name":"nullifierHash","type":"bytes32"},{"internalType":"bool","name":"isValid","type":"bool"}],"internalType":"struct NovaProofAggregator.NovaInstance","name":"foldedInstance","type":"tuple"},{"internalType":"bool","name":"isCompleted","type":"bool"}],"stateMutability":"view","type":"function"},{"inputs":[],"name":"requestCounter","outputs":[{"internalType":"uint256","name":"","type":"uint256"}],"stateMutability":"view","type":"function"},{"inputs":[{"internalType":"string","name":"sourceChain","type":"string"},{"internalType":"uint256","name":"targetBlockNumber","type":"uint256"}],"name":"requestProofVerification","outputs":[{"internalType":"uint256","name":"requestId","type":"uint256"}],"stateMutability":"nonpayable","type":"function"},{"inputs":[],"name":"s_vrfCoordinator","outputs":[{"internalType":"contract IVRFCoordinatorV2Plus","name":"","type":"address"}],"stateMutability":"view","type":"function"},{"inputs":[{"internalType":"address","name":"caller","type":"address"},{"internalType":"bool","name":"authorized","type":"bool"}],"name":"setAuthorizedCaller","outputs":[],"stateMutability":"nonpayable","type":"function"},{"inputs":[{"internalType":"address","name":"_vrfCoordinator","type":"address"}],"name":"setCoordinator","outputs":[],"stateMutability":"nonpayable","type":"function"},{"inputs":[{"internalType":"uint64","name":"subscriptionId","type":"uint64"},{"internalType":"uint32","name":"gasLimit","type":"uint32"},{"internalType":"bytes32","name":"donId","type":"bytes32"}],"name":"setFunctionsConfig","outputs":[],"stateMutability":"nonpayable","type":"function"},{"inputs":[{"internalType":"uint256","name":"newInterval","type":"uint256"}],"name":"setUpkeepInterval","outputs":[],"stateMutability":"nonpayable","type":"function"},{"inputs":[{"internalType":"uint256","name":"subscriptionId","type":"uint256"},{"internalType":"bytes32","name":"keyHash","type":"bytes32"},{"internalType":"uint32","name":"callbackGasLimit","type":"uint32"}],"name":"setVRFConfig","outputs":[],"stateMutability":"nonpayable","type":"function"},{"inputs":[{"internalType":"uint256[]","name":"proofIds","type":"uint256[]"}],"name":"startNovaFolding","outputs":[{"internalType":"uint256","name":"batchId","type":"uint256"}],"stateMutability":"nonpayable","type":"function"},{"inputs":[{"internalType":"address","name":"to","type":"address"}],"name":"transferOwnership","outputs":[],"stateMutability":"nonpayable","type":"function"},{"inputs":[{"internalType":"uint256","name":"_maxRecursionDepth","type":"uint256"},{"internalType":"uint256","name":"_minProofsPerBatch","type":"uint256"},{"internalType":"uint256","name":"_maxProofsPerBatch","type":"uint256"}],"name":"updateRecursionParams","outputs":[],"stateMutability":"nonpayable","type":"function"},{"inputs":[],"name":"upkeepInterval","outputs":[{"internalType":"uint256","name":"","type":"uint256"}],"stateMutability":"view","type":"function"},{"inputs":[{"internalType":"bytes32","name":"","type":"bytes32"}],"name":"usedNullifiers","outputs":[{"internalType":"bool","name":"","type":"bool"}],"stateMutability":"view","type":"function"},{"inputs":[{"internalType":"bytes32","name":"","type":"bytes32"}],"name":"usedProofHashes","outputs":[{"internalType":"bool","name":"","type":"bool"}],"stateMutability":"view","type":"function"},{"inputs":[{"internalType":"bytes32","name":"","type":"bytes32"}],"name":"verifiedProofs","outputs":[{"internalType":"bool","name":"","type":"bool"}],"stateMutability":"view","type":"function"},{"inputs":[{"internalType":"uint256","name":"batchId","type":"uint256"},{"internalType":"bytes","name":"proof","type":"bytes"}],"name":"verifyNovaProof","outputs":[{"internalType":"bool","name":"isValid","type":"bool"}],"stateMutability":"view","type":"function"}],"evm":{"bytecode":{"linkReferences":{},"object":"60c034620001fa57601f62004c0b38819003918201601f1916830192916001600160401b039182851184861017620001ff57816101009285926040978852833981010312620001fa57620000538262000215565b90620000626020840162000215565b92848101519160608201519260808301519182168203620001fa5760a0830151916200009f60e06200009760c0870162000215565b950162000215565b943315620001b657600080546001600160a01b03199081163317909155976001600160a01b039788168015620001a5579188740493e00000000000000000000000010003002625a0949281989796948c600254161760025516608052610e10600755600a54926008556009556a0100000000000000000000600160901b039060501b169060018060b01b0319161717600a55600b551660a05233600052600f60205283600020600160ff19825416179055338360105416176010554260065560106015556002601655600860175516906018541617601855516149e090816200022b823960805181818161048e0152613d36015260a051818181610729015261339c0152f35b8a5163d92e233d60e01b8152600490fd5b885162461bcd60e51b815260206004820152601860248201527f43616e6e6f7420736574206f776e657220746f207a65726f00000000000000006044820152606490fd5b600080fd5b634e487b7160e01b600052604160045260246000fd5b51906001600160a01b0382168203620001fa5756fe6080604052600436101561001257600080fd5b60003560e01c80630ca76175146102c257806310a14c40146102bd578063152a9526146102b8578063176d80c41461021d57806319c813be146102b35780631bd6447a146102ae5780631fe543e3146102a9578063206137aa146102a45780632091f9381461029f578063223b66371461029a5780632582574614610295578063286067751461029057806339a9e4b31461028b5780633f5ef0de14610286578063454bbd2914610281578063457b2e411461027c5780634585e33b14610277578063536fff6c14610272578063569593321461026d57806357aabcac1461026857806357efe032146102635780635a74373c1461025e578063624cffd41461025957806362625bc11461025457806368233eef1461024f578063683dd7771461024a5780636e04ff0d1461024557806372e4c9f61461024057806379ba50971461023b57806384a088e5146102365780638da5cb5b146102315780638ea981171461022c578063973a814e146102275780639eccacf614610222578063a9431f231461021d578063b5cce13314610218578063ce606ee014610213578063d175d81a1461020e578063d87318b214610209578063de3d9fb714610204578063e2ecf1e2146101ff578063f2fde38b146101fa5763fa0c7a18146101f557600080fd5b6119fe565b6118ba565b61189c565b61187e565b61184d565b61178d565b611764565b61170e565b6106e2565b6116e5565b6116c7565b611652565b611629565b611566565b611436565b611408565b6113bb565b6112cf565b6112b1565b611217565b6111e2565b6111c4565b6110b4565b611096565b61106a565b61102b565b610f7c565b610f15565b610eb3565b610dd4565b610d90565b610d51565b610cd8565b610ae4565b61099d565b61096c565b610823565b61076b565b610713565b610615565b61053d565b61043e565b634e487b7160e01b600052604160045260246000fd5b60e081019081106001600160401b038211176102f857604052565b6102c7565b604081019081106001600160401b038211176102f857604052565b602081019081106001600160401b038211176102f857604052565b606081019081106001600160401b038211176102f857604052565b90601f801991011681019081106001600160401b038211176102f857604052565b6040519061037c826102dd565b565b6040519061037c82610318565b6040519060c082018281106001600160401b038211176102f857604052565b60405190608082018281106001600160401b038211176102f857604052565b6001600160401b0381116102f857601f01601f191660200190565b9291926103f0826103c9565b916103fe604051938461034e565b82948184528183011161041b578281602093846000960137010152565b600080fd5b9080601f8301121561041b5781602061043b933591016103e4565b90565b3461041b57606036600319011261041b576001600160401b0360043560243582811161041b57610472903690600401610420565b9160443590811161041b5761048b903690600401610420565b917f00000000000000000000000000000000000000000000000000000000000000006001600160a01b0316330361052b576000928284526004602052604084205491612710831160001461051b5761270f198301928311610516576104ef92613734565b7f85e1543bf2f84fe80c6badbce3648c8539ad1df4d2b3d822938ca0538be727e68280a280f35b611b00565b610526925083613520565b6104ef565b60405163c6829f8360e01b8152600490fd5b3461041b57602036600319011261041b5760043560005260136020526020604060002054604051908152f35b60005b83811061057c5750506000910152565b818101518382015260200161056c565b906020916105a581518092818552858086019101610569565b601f01601f1916010190565b6020815260018060a01b0382511660208201526020820151604082015260e060c06105eb604085015183606086015261010085019061058c565b9360608101516080850152608081015160a085015260a08101511515828501520151151591015290565b3461041b57602036600319011261041b576106de60408060c08151610639816102dd565b60009181838093528260208201526060858201528260608201528260808201528260a082015201526004358152600360205220906106d460ff6005835194610680866102dd565b80546001600160a01b03168652600181015460208701526106a360028201610c76565b8686015260038101546060870152600481015460808701520154818116151560a086015260081c16151560c0840152565b51918291826105b1565b0390f35b3461041b57602036600319011261041b57600435600052600c602052602060ff604060002054166040519015158152f35b3461041b57600036600319011261041b576040517f00000000000000000000000000000000000000000000000000000000000000006001600160a01b03168152602090f35b6024359063ffffffff8216820361041b57565b3461041b57606036600319011261041b576004356001600160401b038116810361041b57610797610758565b6107ac60018060a01b03601054163314611a88565b600a80546bffffffffffffffffffffffff60501b191660509390931b67ffffffffffffffff60501b169290921760909190911b63ffffffff60901b16179055604435600b55005b9181601f8401121561041b578235916001600160401b03831161041b576020808501948460051b01011161041b57565b3461041b57604036600319011261041b576004356024356001600160401b03811161041b576108569036906004016107f3565b600254919290916001600160a01b03163381900361094e5750806000526004602052604060002054908115610913576103e719430143811161051657846108fb6108da7f2374d5481494ad7962d4bd1b98b91e9f3117c9b66533b2804be3d76c41a49088936108d46108cb896109119b612847565b356103e8900690565b90612889565b9586928360036108f4896000526003602052604060002090565b0155612847565b60408051913582526020820192909252a2612967565b005b60405162461bcd60e51b8152602060048201526013602482015272125b9d985b1a5908159491881c995c5d595cdd606a1b6044820152606490fd5b6044906040519063073e64fd60e21b82523360048301526024820152fd5b3461041b57602036600319011261041b576004356000526012602052602060ff604060002054166040519015158152f35b3461041b57606036600319011261041b5760043560243590604435906109ce60018060a01b03601054163314611a88565b80151580610a84575b15610a4b57600283101580610a41575b15610a0657610911926109fc610a0192601555565b601655565b601755565b60405162461bcd60e51b8152602060048201526013602482015272496e76616c69642062617463682073697a657360681b6044820152606490fd5b50818311156109e7565b60405162461bcd60e51b8152602060048201526011602482015270092dcecc2d8d2c840dac2f040c8cae0e8d607b1b6044820152606490fd5b5060208111156109d7565b90604051610a9c816102dd565b60c060ff600683958054855260018101546020860152600281015460408601526003810154606086015260048101546080860152600581015460a08601520154161515910152565b3461041b57602036600319011261041b576004356000526011602052610180604060002060018060a01b0360018201541690610b9c600282015491600381015460048201549060ff600c610b3a60058601610a8f565b9401541694604051968752602087015260408601526060850152608084019060c08091805184526020810151602085015260408101516040850152606081015160608501526080810151608085015260a081015160a085015201511515910152565b1515610160820152f35b90600182811c92168015610bd6575b6020831014610bc057565b634e487b7160e01b600052602260045260246000fd5b91607f1691610bb5565b805460009392610bef82610ba6565b91828252602093600191600181169081600014610c575750600114610c16575b5050505050565b90939495506000929192528360002092846000945b838610610c4357505050500101903880808080610c0f565b805485870183015294019385908201610c2b565b60ff19168685015250505090151560051b010191503880808080610c0f565b9061037c610c8a9260405193848092610be0565b038361034e565b959260c09592610cbf929998959960018060a01b03168852602088015260e0604088015260e087019061058c565b9660608601526080850152151560a08401521515910152565b3461041b57602036600319011261041b576004356000526003602052604060002060018060a01b03815416906106de60018201549160405193610d2985610d228160028601610be0565b038661034e565b600382015491600560048201549101549260405196879660ff808760081c1696169488610c91565b3461041b57600036600319011261041b576018546040516001600160a01b039091168152602090f35b634e487b7160e01b600052603260045260246000fd5b3461041b57604036600319011261041b576024356000906004358252600d602052604082208054821015610dd05782526020918290200154604051908152f35b8280fd5b3461041b57604036600319011261041b576004356024356001600160401b03811161041b57610e07903690600401610420565b9080151580610e87575b610e1a90611ac1565b6000526011602052604060002060ff600c8201541615610e4c5781516020928301206004919091015460405191148152f35b60405162461bcd60e51b815260206004820152601360248201527210985d18da081b9bdd0818dbdb5c1b195d1959606a1b6044820152606490fd5b50601454811115610e11565b600435906001600160a01b038216820361041b57565b8015150361041b57565b3461041b57604036600319011261041b57610911610ecf610e93565b60243590610edc82610ea9565b6010546001600160a01b039190610ef69083163314611a88565b16600052600f60205260406000209060ff801983541691151516179055565b3461041b57600036600319011261041b576020601554604051908152f35b90602060031983011261041b576004356001600160401b039283821161041b578060238301121561041b57816004013593841161041b576024848301011161041b576024019190565b3461041b57610f8a36610f33565b5050600654420342811161051657610fa59060075410611b34565b610fae42600655565b60408051632bf7f01960e11b815260048101919091526008604482015267657468657265756d60c01b606482015260006024820152602081806084810103816000305af1801561102657610ffe57005b6109119060203d60201161101f575b611017818361034e565b810190611b74565b503d61100d565b611b83565b3461041b57602036600319011261041b576001600160a01b0361104c610e93565b16600052600f602052602060ff604060002054166040519015158152f35b3461041b57602036600319011261041b5760043560005260046020526020604060002054604051908152f35b3461041b57600036600319011261041b576020601754604051908152f35b3461041b57604036600319011261041b576004356001600160401b03811161041b573660238201121561041b576110f86106de9136906024816004013591016103e4565b60243561115e611109600554611b8f565b9261111384600555565b61111b61036f565b33815290426020830152604082015282606082015260006080820152600060a0820152600060c0820152611159846000526003602052604060002090565b611bfa565b806111b55761116c82612c79565b817f7ef8ca77fdc89c79f093f2a6b2348b1fcda0beb941ce31ce9f2d9d260c4db9d2604051806111a23395829190602083019252565b0390a36040519081529081906020820190565b6111bf8183612967565b61116c565b3461041b57600036600319011261041b576020600754604051908152f35b3461041b57600036600319011261041b576020600654604051908152f35b6001600160401b0381116102f85760051b60200190565b3461041b5760208060031936011261041b576004356001600160401b03811161041b573660238201121561041b5780600401359061125482611200565b91611262604051938461034e565b8083526024602084019160051b8301019136831161041b57602401905b8282106112a2576106de6112928561202e565b6040519081529081906020820190565b8135815290840190840161127f565b3461041b57600036600319011261041b576020601454604051908152f35b3461041b57602036600319011261041b57600435801515806113af575b6112f590611ac1565b6000818152601160205260409020600101546001600160a01b03163303611374578061136f611331610911936000526011602052604060002090565b6003600c82019161134b611346845460ff1690565b6122ee565b01611363815461135e601554821061233a565b611b8f565b9055805460ff19169055565b612d5b565b60405162461bcd60e51b81526020600482015260136024820152722737ba103130ba31b4103932b8bab2b9ba32b960691b6044820152606490fd5b506014548111156112ec565b3461041b576113c936610f33565b505060065442034281116105165760075410604051906113e882610318565b600082526106de604051928392835260406020840152604083019061058c565b3461041b57602036600319011261041b5761142e60018060a01b03601054163314611a88565b600435600755005b3461041b576000806003193601126114f2576001546001600160a01b0390811633036114b45781546001600160a01b0316600080546001600160a01b0319163317905590600180546001600160a01b03191690553391167f8be0079c531659141344cd1fd0a4f28419497f9722a3daafe3b4186f6b6457e08380a380f35b60405162461bcd60e51b815260206004820152601660248201527526bab9ba10313290383937b837b9b2b21037bbb732b960511b6044820152606490fd5b80fd5b90815180825260208080930193019160005b828110611515575050505090565b835185529381019392810192600101611507565b949196959261154360a0959260c0885260c08801906114f5565b97600180871b031660208701526040860152606085015260808401521515910152565b3461041b5760208060031936011261041b576004358015158061161d575b61158d90611ac1565b60005260116020526040600020906001808060a01b03600184015416916002840154600385015460048601549160ff600c8801541693604051958660208a549182815201996000526020600020926000905b8282106116085750505050506115fc856106de969798038761034e565b60405196879687611529565b84548c529a8b019a93830193908301906115df565b50601454811115611584565b3461041b57600036600319011261041b576000546040516001600160a01b039091168152602090f35b3461041b57602036600319011261041b5761166b610e93565b6000546001600160a01b039081169033821415806116b9575b6116915761091183612386565b60649250600254166040519163061db9c160e01b835233600484015260248301526044820152fd5b508060025416331415611684565b3461041b57600036600319011261041b576020600554604051908152f35b3461041b57600036600319011261041b576002546040516001600160a01b039091168152602090f35b3461041b57606036600319011261041b5760443563ffffffff811680910361041b5761174560018060a01b03601054163314611a88565b60043560085560243560095563ffffffff19600a541617600a55600080f35b3461041b57600036600319011261041b576010546040516001600160a01b039091168152602090f35b3461041b57604036600319011261041b576001600160401b0360043581811161041b576117be9036906004016107f3565b9160243590811161041b576117d79036906004016107f3565b9033600052600f60205260ff604060002054168015611839575b15611803576106de936112929361267a565b60405162461bcd60e51b815260206004820152600e60248201526d139bdd08185d5d1a1bdc9a5e995960921b6044820152606490fd5b506010546001600160a01b031633146117f1565b3461041b57602036600319011261041b57600435600052600e602052602060ff604060002054166040519015158152f35b3461041b57600036600319011261041b576020600854604051908152f35b3461041b57600036600319011261041b576020601654604051908152f35b3461041b57602036600319011261041b576118d3610e93565b6000546001600160a01b03908116913383900361197157169033821461192c57600180546001600160a01b031916831790557fed8889f560326eb138920d842192f0eb3dd22b4f139c87a2c57538e05bae1278600080a3005b60405162461bcd60e51b815260206004820152601760248201527f43616e6e6f74207472616e7366657220746f2073656c660000000000000000006044820152606490fd5b60405162461bcd60e51b815260206004820152601660248201527527b7363c9031b0b63630b1363290313c9037bbb732b960511b6044820152606490fd5b61037c9092919260e081019360c08091805184526020810151602085015260408101516040850152606081015160608501526080810151608085015260a081015160a085015201511515910152565b3461041b57602036600319011261041b576106de611a706005604060c06004358251611a29816102dd565b600092818480935282602082015282868201528260608201528260808201528260a0820152015280151580611a7c575b611a6290611ac1565b815260116020522001610a8f565b604051918291826119af565b50601454811115611a59565b15611a8f57565b60405162461bcd60e51b815260206004820152600a60248201526927b7363c9037bbb732b960b11b6044820152606490fd5b15611ac857565b60405162461bcd60e51b815260206004820152601060248201526f125b9d985b1a590818985d18da08125160821b6044820152606490fd5b634e487b7160e01b600052601160045260246000fd5b60001981019190821161051657565b601f1981019190821161051657565b15611b3b57565b60405162461bcd60e51b8152602060048201526011602482015270155c1ad9595c081b9bdd081b9959591959607a1b6044820152606490fd5b9081602091031261041b575190565b6040513d6000823e3d90fd5b60001981146105165760010190565b818110611ba9575050565b60008155600101611b9e565b9190601f8111611bc457505050565b61037c926000526020600020906020601f840160051c83019310611bf0575b601f0160051c0190611b9e565b9091508190611be3565b815181546001600160a01b0319166001600160a01b0391909116178155600160209060208401516001840155600283019160408501518051926001600160401b0384116102f857611c5584611c4f8754610ba6565b87611bb5565b602092601f8511600114611cf957505093611cd893611c968460c09560059561037c9a99600092611cee575b50508160011b916000199060031b1c19161790565b90555b60608501516003820155608085015160048201550192611cd1611cbf60a0830151151590565b859060ff801983541691151516179055565b0151151590565b815461ff00191690151560081b61ff0016179055565b015190503880611c81565b929190601f19851690611d1187600052602060002090565b946000915b838310611d61575050508460059461037c999894611cd8989460c09860019510611d48575b505050811b019055611c99565b015160001960f88460031b161c19169055388080611d3b565b848601518755958601959481019491810191611d16565b15611d7f57565b60405162461bcd60e51b8152602060048201526013602482015272125b9d985b1a59081c1c9bdbd98818dbdd5b9d606a1b6044820152606490fd5b805115611dc75760200190565b610d7a565b805160011015611dc75760400190565b805160021015611dc75760600190565b8051821015611dc75760209160051b010190565b15611e0757565b60405162461bcd60e51b8152602060048201526013602482015272141c9bdbd9881b9bdd0818dbdb5c1b195d1959606a1b6044820152606490fd5b15611e4957565b60405162461bcd60e51b815260206004820152600d60248201526c24b73b30b634b210383937b7b360991b6044820152606490fd5b15611e8557565b60405162461bcd60e51b81526020600482015260166024820152750a0e4dedecc40c2d8e4cac2c8f240d2dc40c4c2e8c6d60531b6044820152606490fd5b908160011b918083046002149015171561051657565b8151916001600160401b0383116102f857600160401b83116102f8578154838355808410611f35575b5060208091019160005260206000209060005b848110611f23575050505050565b83518382015592810192600101611f15565b611f4d90836000528460206000209182019101611b9e565b38611f02565b9290835260209160208401526040926000938254611f7081610ba6565b93600191808316908115611fd45750600114611f90575b50505050505090565b909192939496955060005260206000206000905b858210611fc1575050505060409293500101388080808080611f87565b8054858301850152908701908201611fa4565b949650505050506040935060ff191683830152801515020101388080808080611f87565b9060005b6004811061200957505050565b600190602083519301928185015501611ffc565b90602061043b9281815201906114f5565b612046815160165481101590816122e1575b50611d78565b60005b81518110156120da576001906120ac6120a7600561208f61208a82612082612071888b611dec565b516000526003602052604060002090565b015460ff1690565b611e00565b61209c6120718588611dec565b015460081c60ff1690565b611e42565b6120d46120cd6120bc8386611dec565b516000526013602052604060002090565b5415611e7e565b01612049565b506120e6601454611b8f565b906120f082601455565b612104826000526011602052604060002090565b61210e8282611ed9565b600181810180546001600160a01b03191633179055908160029142600282015560039060006003820155612149600c820160ff198154169055565b600093600e600d83019201935b61219e575b505050505050817f5d74f4c80f98633a9ce8e3f825e7019210bfb85159f33a7fceb58fa9cb8ca6216040518061219233958261201d565b0390a361043b81612d5b565b86518510156122dc5785856122d56121b783988b611dec565b518b6121cd826000526013602052604060002090565b55600490816121e6826000526003602052604060002090565b0154906122b3876122ad8b612205856000526003602052604060002090565b0154938b6122608a85612222856000526003602052604060002090565b019861223f61224d60409b8c5192839160209d8e84019687611f53565b03601f19810183528261034e565b5190209290600052602052604060002090565b556122696103aa565b9661227e826000526003602052604060002090565b015487528c612297826000526003602052604060002090565b0154858801526000526003602052604060002090565b01610c76565b8051910120908201524260608201526000838152602089905260409020611ff8565b0194612156565b61215b565b9050601754101538612040565b156122f557565b60405162461bcd60e51b815260206004820152601e60248201527f50726576696f757320666f6c64696e67206e6f7420636f6d706c6574656400006044820152606490fd5b1561234157565b60405162461bcd60e51b815260206004820152601b60248201527f4d617820726563757273696f6e206465707468207265616368656400000000006044820152606490fd5b6001600160a01b031680156123db576020817fd1a6a14209a385a964d036e404cb5cfb71f4000cdb03c9366292430787261be6926bffffffffffffffffffffffff60a01b6002541617600255604051908152a1565b60405163d92e233d60e01b8152600490fd5b156123f457565b60405162461bcd60e51b8152602060048201526014602482015273496e76616c696420696e7075742061727261797360601b6044820152606490fd5b1561243757565b60405162461bcd60e51b815260206004820152601c60248201527f546f6f206d616e792070726f6f667320746f20616767726567617465000000006044820152606490fd5b9061248682611200565b612493604051918261034e565b82815280926124a4601f1991611200565b0190602036910137565b9190811015611dc75760051b81013590601e198136030182121561041b5701908135916001600160401b03831161041b57602001823603811361041b579190565b156124f657565b60405162461bcd60e51b815260206004820152601c60248201527f496e76616c69642070726f6f6620696e206167677265676174696f6e000000006044820152606490fd5b908092918237016000815290565b1561255057565b60405162461bcd60e51b815260206004820152602160248201527f50726f6f6620616c7265616479207573656420696e206167677265676174696f6044820152603760f91b6064820152608490fd5b9193929093845160208096019060005b8181106125d957505050825260601b6bffffffffffffffffffffffff191660208201526034019150565b8251865294870194918701916001016125af565b8151916001600160401b0383116102f857600160401b83116102f857815483835580841061264f575b5061262b602080920192600052602060002090565b9060005b84811061263d575050505050565b8351838201559281019260010161262f565b60008360005284602060002092830192015b82811061266f575050612616565b818155600101612661565b919290928184148061283e575b612690906123ed565b61269d600a851115612430565b6126a68461247c565b9360005b81811061276857505050505060405160208101906126ce8161223f3342878761259f565b519020906127036126e0600554611b8f565b916126ea83600555565b6126fe83600052600d602052604060002090565b6125ed565b61272761271a83600052600c602052604060002090565b805460ff19166001179055565b7f6dd2118914ad2b9a98780fafd92846eebe9361998a810f1a05f67033b17e2cdd604051806127628582919060206040840193600181520152565b0390a290565b806127ad6127a86127a261277f600195878b6124ae565b61279a612790878c8c9695966124ae565b94909236916103e4565b9236916103e4565b906132fd565b6124ef565b61283861271a6127ec6127e66127c485888c6124ae565b929061223f6127d4888d8d6124ae565b6040519586946020860198899161253b565b9161253b565b51902061281c61281761281361280c84600052600e602052604060002090565b5460ff1690565b1590565b612549565b80612827858c611dec565b52600052600e602052604060002090565b016126aa565b50831515612687565b9015611dc75790565b906001820180921161051657565b603001908160301161051657565b90612710820180921161051657565b906020820180921161051657565b9190820180921161051657565b604051906128a3826102dd565b606060c08360008152600060208201526000604082015282808201528260808201528260a08201520152565b604090604051916128df83610333565b600283528260005b8281106128f357505050565b8060606020809385010152016128e7565b60405190608082018281106001600160401b038211176102f85760405260038252819060005b60608082101561294457906020918282870101520161292a565b5050909150565b929190612962602091604086526040860190610be0565b930152565b907f89652d00e157965d54f5ad31af9352416c4e90b879711ec122680d4e3a1de9a69061299e836000526003602052604060002090565b612bf8612bd4604051612b6d8161223f612af8612ab7612a5e612a236129eb60208701601c907f636f6e737420736f75726365436861696e203d20617267735b305d3b0000000081520190565b7f636f6e737420626c6f636b4e756d626572203d207061727365496e7428617267815265735b315d293b60d01b602082015260260190565b7f2f2f20466574636820626c6f636b206461746120616e642067656e6572617465815268102d2590383937b7b360b91b602082015260290190565b7f636f6e737420626c6f636b44617461203d206177616974206665746368426c6f81527f636b4461746128736f75726365436861696e2c20626c6f636b4e756d626572296020820152603b60f81b604082015260410190565b7f636f6e73742070726f6f66203d2061776169742067656e65726174655a4b507281526e6f6f6628626c6f636b44617461293b60881b6020820152602f0190565b7f72657475726e2046756e6374696f6e732e656e636f6465537472696e67284a5381527f4f4e2e737472696e67696679287b70726f6f662c207075626c6963496e70757460208201527f733a20626c6f636b446174612e7374617465526f6f747d29293b0000000000006040820152605a0190565b612b7f612b78612896565b9182613eec565b612bcf6002612b8c6128cf565b950194612b9886610c76565b612ba182611dba565b52612bab81611dba565b50612bb58761391b565b612bbe82611dcc565b52612bc881611dcc565b50826139c1565b613b10565b600a54600b54916001600160401b0363ffffffff8360901c169260501c1690613cde565b93612c0d856000526004602052604060002090565b55612c1d6040519283928361294b565b0390a2565b60e060a061043b9360208452805160208501526020810151604085015261ffff6040820151166060850152606081015163ffffffff80911660808601526080820151168285015201519160c080820152019061058c565b600254600090602090612d12906001600160a01b0316600954600854612cf1600a5463ffffffff90612cb4612cac61037e565b8a8152613db8565b93612cbd61038b565b9586528886015280881c61ffff16604086015263ffffffff81831616606086015260301c16608084019063ffffffff169052565b60a0820152604051948580948193634d8e1c2f60e11b835260048301612c22565b03925af1801561102657612d3991600091612d3c575b506000526004602052604060002090565b55565b612d55915060203d60201161101f57611017818361034e565b38612d28565b806000526011602052604060002060405190602082017f636f6e73742062617463684964203d207061727365496e7428617267735b305d90526040820161293b60f01b90528160428101612de1906025907f636f6e73742070726f6f66436f756e74203d207061727365496e7428617267738152645b315d293b60d81b60208201520190565b7f636f6e73742073746570496e203d207061727365496e7428617267735b325d298152603b60f81b60208201526021017f2f2f2047656e6572617465204e6f7661207265637572736976652070726f6f66815275202d2073696d706c696669656420666f722064656d6f60501b60208201526036017f636f6e7374206167677265676174656448617368203d206574686572732e757481526d0d2d8e65cd6cac6c6c2d6646a6c560931b6020820152602e017f20206574686572732e7574696c732e64656661756c74416269436f6465722e658152650dcc6dec8ca560d31b60208201526026017f202020205b2775696e74323536272c202775696e74323536272c202775696e748152650c8d4d89d74b60d21b60208201526026017f202020205b626174636849642c2070726f6f66436f756e742c2073746570496e8152605d60f81b60208201526021016220202960e81b815260030161293b60f01b81526002017f636f6e737420666f6c646564496e7374616e6365203d207b000000000000000081526018017008081cdd195c125b8e881cdd195c125b8b607a1b81526011017508081cdd195c13dd5d0e881cdd195c125b880ac80c4b60521b81526016017f202070726f6772616d436f756e7465723a20446174652e6e6f7728292c0000008152601d017f20207374617465526f6f74496e3a2061676772656761746564486173682c00008152601e017f20207374617465526f6f744f75743a2061676772656761746564486173682c008152601f017f20206e756c6c6966696572486173683a206574686572732e7574696c732e6b6581527f6363616b323536286167677265676174656448617368292c000000000000000060208201526038016e2020697356616c69643a207472756560881b8152600f01617d3b60f01b81526002017f72657475726e2046756e6374696f6e732e656e636f6465537472696e67284a5381526d4f4e2e737472696e67696679287b60901b6020820152602e0172080818985d18da12590e8818985d18da12590b606a1b81526013017f202061676772656761746564486173683a2061676772656761746564486173688152600b60fa1b60208201526021017f2020666f6c646564496e7374616e63653a20666f6c646564496e7374616e63658152600b60fa1b60208201526021017f202072656375727369766550726f6f663a2061676772656761746564486173688152602001637d29293b60e01b815260040103601f1981018352613182908361034e565b805490600301549161037c93613dde565b604051906131a0826102fd565b6040368337565b6040906040516131b6816102fd565b809260005b8181106131c757505050565b60209082516131d5816102fd565b8336823781850152016131bb565b602090818184031261041b578051906001600160401b03821161041b57019180601f8401121561041b57825161321881611200565b93613226604051958661034e565b818552838086019260051b82010192831161041b578301905b82821061324d575050505090565b8151815290830190830161323f565b9081602091031261041b575161043b81610ea9565b6000915b6002831061328257505050565b600190825181526020809101920192019190613275565b9091949392946132ac8261012094613271565b600060408381015b600283106132e057505050506132d261043b949560c0830190613271565b8161010082015201906114f5565b602082826132f16001948851613271565b019401920191926132b4565b9061010091828151036133ff57613312613193565b61331a6131a7565b9061339861337d613329613193565b9560209786898098015186526040810151888701526060810151875260808101518888015260a0810151604088015260c0810151606088015260e081015189520151868801528580825183010191016131e3565b6040516361971b8760e11b8152958694859460048601613299565b03817f00000000000000000000000000000000000000000000000000000000000000006001600160a01b03165afa918215611026576000926133d957505090565b61043b9250803d106133f8575b6133f0818361034e565b81019061325c565b503d6133e6565b505050600090565b1561340e57565b60405162461bcd60e51b815260206004820152601960248201527f496e76616c69642046756e6374696f6e732072657175657374000000000000006044820152606490fd5b81601f8201121561041b578051613469816103c9565b92613477604051948561034e565b8184526020828401011161041b5761043b9160208085019101610569565b91909160408184031261041b578051926001600160401b039384811161041b57816134c1918401613453565b93602083015190811161041b5761043b9201613453565b90916134ef61043b9360408452604084019061058c565b91602081840391015261058c565b602081519101519060208110613511575090565b6000199060200360031b1b1690565b90613535826000526004602052604060002090565b5492613542841515613407565b5161365a579061361c6135be613582846020807f6dd2118914ad2b9a98780fafd92846eebe9361998a810f1a05f67033b17e2cdd97518301019101613495565b939084917f50348c1af87d1d2e61e0a7e9bf83a9c67f047d8de73be6b88acac8655a97581e604051806135b68686836134d8565b0390a26132fd565b91826135d4866000526003602052604060002090565b61360582600583016135ed81600160ff19825416179055565b9061ff00825491151560081b169061ff001916179055565b6004613610846134fd565b910155613636576134fd565b604080519215158352602083019190915281908101612c1d565b61365561271a613645836134fd565b600052600c602052604060002090565b6134fd565b5050600561367561037c926000526003602052604060002090565b01805460ff19166001179055565b90602061043b92818152019061058c565b80546000918252602080832092905b8282106136b1575050505090565b8354855293840193600193840193909101906136a3565b600660c061037c93805184556020810151600185015560408101516002850155606081015160038501556080810151600485015560a081015160058501550151151591019060ff801983541691151516179055565b60409061043b93928152816020820152019061058c565b919081516138b0577f788c5f43c02f6032d8146c17d8b085814337bacff42a64addf4f97ffcebdacff9150613773836000526011602052604060002090565b837fe72448dee39249921f3f9c2134dc1ca195a9e3882d4b52e6c3e49c775a4a431161389d84516020860120600485019081556137ba600c8601600160ff19825416179055565b613885600386019560058754916137d083612850565b60405160208101816137e28286613694565b03916137f6601f199384810183528261034e565b5190208754600185015490928c916138439161384f916001600160a01b0316604080516020810196875260609290921b6bffffffffffffffffffffffff1916908201529283906054820190565b0390810183528261034e565b5190209261385b61036f565b96875260208701524260408701526060860152608085015260a0840152600160c0840152016136c8565b54604080519182526001602083015290918291820190565b0390a254612c1d6040519283928361371d565b50612c1d7f8117ad48db1a08344670d33acdeb14d7ec953b1119dafa9ab361e5e721d435629160405191829182613683565b906138ec826103c9565b6138f9604051918261034e565b82815280926124a4601f19916103c9565b908151811015611dc7570160200190565b80156139a3576000818181805b61398b5750613936816138e2565b935b6139425750505090565b61394b90611b16565b90600a9061397661396661396084840661285e565b60ff1690565b60f81b6001600160f81b03191690565b841a613982848761390a565b53049081613938565b9150613998600a91611b8f565b910480849291613928565b506040516139b0816102fd565b60018152600360fc1b602082015290565b8151156139ce5760a00152565b60405163fe936cb760e01b8152600490fd5b604051906139ed826102fd565b600c82526b31b7b232a637b1b0ba34b7b760a11b6020830152565b634e487b7160e01b600052602160045260246000fd5b60031115613a2857565b613a08565b60405190613a3a826102fd565b60088252676c616e677561676560c01b6020830152565b60011115613a2857565b60405190613a68826102fd565b6006825265736f7572636560d01b6020830152565b60405190613a8a826102fd565b60048252636172677360e01b6020830152565b60405190613aaa826102fd565b600f82526e39b2b1b932ba39a637b1b0ba34b7b760891b6020830152565b60405190613ad5826102fd565b60078252667365637265747360c81b6020830152565b60405190613af8826102fd565b600982526862797465734172677360b81b6020830152565b613b18613f1d565b90613b2a613b246139e0565b83613f6d565b613b478151613b3881613a1e565b613b4181613a1e565b8361402f565b613b52613b24613a2d565b613b6c6040820151613b6381613a51565b613b4181613a51565b613b77613b24613a5b565b613b85606082015183613f6d565b60a08101805151613c85575b506080810190815151613c05575b60c0915001805151613bb2575b50515190565b91613bbe613b24613aeb565b613bc7826140d0565b60005b83518051821015613bf25790613bec613be582600194611dec565b51856141e9565b01613bca565b50509150613bff8161415c565b38613bac565b602081018051613c1481613a1e565b613c1d81613a1e565b15613c735760c092613c56613c6e92613c3d613c37613a9d565b88613f6d565b51613c4781613a1e565b613c5081613a1e565b8661402f565b613c67613c61613ac8565b86613f6d565b51846141e9565b613b9f565b60405163a80d31f760e01b8152600490fd5b92613c97613c91613a7d565b84613f6d565b613ca0836140d0565b60005b84518051821015613ccb5790613cc5613cbe82600194611dec565b5186613f6d565b01613ca3565b50509250613cd88261415c565b38613b91565b92906020926001600160401b039263ffffffff613d1d604051978896879663230e93b160e11b885216600487015260a0602487015260a486019061058c565b60016044860152921660648401526084830152038160007f00000000000000000000000000000000000000000000000000000000000000006001600160a01b03165af190811561102657600091613d99575b50807f1131472297a800fee664d1d89cfa8f7676ff07189ecc53f80bbb5f4969099db8600080a290565b613db2915060203d60201161101f57611017818361034e565b38613d6f565b6040519063125fa26760e31b602083015251151560248201526024815261043b81610333565b929091613de9612896565b92805115613eda5783612bcf613e8993613e76612c1d96612bd49560007f89652d00e157965d54f5ad31af9352416c4e90b879711ec122680d4e3a1de9a69a52600060408701526060860152613e63613e40612904565b93613e4a8c61391b565b613e5386611dba565b52613e5d85611dba565b5061391b565b613e6c84611dcc565b52613e5d83611dcc565b613e7f82611ddc565b52612bc881611ddc565b92613e938161286c565b613ea7856000526004602052604060002090565b5560405191829182919060408352600a6040840152690dcdeecc25ac4c2e8c6d60b31b6060840152602060808401930152565b6040516322ce3edd60e01b8152600490fd5b815115613eda576000808252604082015260600152565b60405190613f10826102fd565b6000602083606081520152565b604051613f29816102fd565b613f31613f03565b8082526020820160008152613f44613f03565b50610100602083015260405180925260008252610120820191821061041b576000916040525290565b8151613fb19291906001600160401b0381169060178211613fb457613f9c9150606060ff8451921617906146b7565b505b5190613fa8613f03565b508051916148e7565b50565b5060ff8111613fd957613fd390613fcb83516144be565b508251614873565b50613f9e565b61ffff8111613ff857613fd390613ff08351614459565b508251614805565b63ffffffff811161401957613fd39061401183516143f4565b508251614795565b613fd3906140278351614384565b508251614722565b9081519161403b613f03565b508251516001810190818111610516576020850151811015614094575b60c2602061037c965192830101538051821161408c575b505060405191602083015260208252614087826102fd565b6141e9565b52388061406f565b8160011b9482860460021483151715610516576020816140c661037c986140bf60c29551918461426d565b50826142bf565b5096505050614058565b8051906140db613f03565b508151516001810190818111610516576020840151811015614129575b609f6020809551928301015380518211614121575b505001805190600182018092116105165752565b52388061410d565b8160011b93828504600214831517156105165760208161415282976140bf609f9551918461426d565b50955050506140f8565b805190614167613f03565b5081515160018101908181116105165760208401518110156141b6575b60ff60208095519283010153805182116141ae575b50500180516000198101919082116105165752565b523880614199565b8160011b9382850460021483151715610516576020816141df82976140bf60ff9551918461426d565b5095505050614184565b8151613fb19291906001600160401b038116906017821161421857613f9c9150604060ff8451921617906146b7565b5060ff811161422f57613fd390613fcb8351614652565b61ffff811161424657613fd390613ff083516145ed565b63ffffffff811161425f57613fd3906140118351614588565b613fd3906140278351614523565b90614276613f03565b50601f8116806142a5575b508060208301526040519081835260008252810160200190811061041b5760405290565b602003602081116105165781018091116105165738614281565b906142c8613f03565b508051906142d4613f03565b506142e281518311156148e0565b825151916142f08184612889565b6020926020860151821161436d575b602091865183815197820101968211614365575b505001915b8082101561433d5750600019906020036101000a019081199051169082511617905290565b90919261435961435361435f928651815261287b565b9461287b565b92611b25565b90614318565b523880614313565b61437f61437983611ec3565b87614993565b6142ff565b61438c613f03565b5080515160018101908181116105165760208301518110156143c5575b607b602084519283010153805182116143c157505090565b5290565b8160011b82810460021483151715610516576143ee906143e78551918661426d565b50846142bf565b506143a9565b6143fc613f03565b508051516001810190818111610516576020830151811015614431575b607a602084519283010153805182116143c157505090565b8160011b8281046002148315171561051657614453906143e78551918661426d565b50614419565b614461613f03565b508051516001810190818111610516576020830151811015614496575b6079602084519283010153805182116143c157505090565b8160011b82810460021483151715610516576144b8906143e78551918661426d565b5061447e565b6144c6613f03565b5080515160018101908181116105165760208301518110156144fb575b6078602084519283010153805182116143c157505090565b8160011b828104600214831517156105165761451d906143e78551918661426d565b506144e3565b61452b613f03565b508051516001810190818111610516576020830151811015614560575b605b602084519283010153805182116143c157505090565b8160011b8281046002148315171561051657614582906143e78551918661426d565b50614548565b614590613f03565b5080515160018101908181116105165760208301518110156145c5575b605a602084519283010153805182116143c157505090565b8160011b82810460021483151715610516576145e7906143e78551918661426d565b506145ad565b6145f5613f03565b50805151600181019081811161051657602083015181101561462a575b6059602084519283010153805182116143c157505090565b8160011b828104600214831517156105165761464c906143e78551918661426d565b50614612565b61465a613f03565b50805151600181019081811161051657602083015181101561468f575b6058602084519283010153805182116143c157505090565b8160011b82810460021483151715610516576146b1906143e78551918661426d565b50614677565b906146c0613f03565b5081515160018101918282116105165760208401518210156146f3575b602084519283010153805182116143c157505090565b8260011b838104600214841517156105165761471c906147158651918761426d565b50856142bf565b506146dd565b9061472b613f03565b50815151806008019182600811610516576020840151831161476d575b6008845192830101906001600160401b0319825116179052805182116143c157505090565b8260011b838104600214841517156105165761478f906147158651918761426d565b50614748565b9061479e613f03565b5081515180600401918260041161051657602084015183116147dd575b60048451928301019063ffffffff19825116179052805182116143c157505090565b8260011b83810460021484151715610516576147ff906147158651918761426d565b506147bb565b9061480e613f03565b50815151806002019182600211610516576020840151831161484b575b60028451928301019061ffff19825116179052805182116143c157505090565b8260011b838104600214841517156105165761486d906147158651918761426d565b5061482b565b9061487c613f03565b5081515180600101918260011161051657602084015183116148b8575b60018451928301019060ff19825116179052805182116143c157505090565b8260011b83810460021484151715610516576148da906147158651918761426d565b50614899565b1561041b57565b91906148f1613f03565b506148ff81518311156148e0565b82515191602061490f8285612889565b92819382870151811161497c575b865183815197820101968211614974575b505001915b808210156149585750600019906020036101000a019081199051169082511617905290565b90919261435961435361496e928651815261287b565b90614933565b52388061492e565b61498e61498882611ec3565b88614993565b61491d565b90613fb1916149a48151928261426d565b506142bf56fea26469706673582212206a1cf55de4812777033fb9e724d2d8fce2b72becb611dd5926cf314a78477a6664736f6c63430008180033","opcodes":"PUSH1 0xC0 CALLVALUE PUSH3 0x1FA JUMPI PUSH1 0x1F PUSH3 0x4C0B CODESIZE DUP2 SWAP1 SUB SWAP2 DUP3 ADD PUSH1 0x1F NOT AND DUP4 ADD SWAP3 SWAP2 PUSH1 0x1 PUSH1 0x1 PUSH1 0x40 SHL SUB SWAP2 DUP3 DUP6 GT DUP5 DUP7 LT OR PUSH3 0x1FF JUMPI DUP2 PUSH2 0x100 SWAP3 DUP6 SWAP3 PUSH1 0x40 SWAP8 DUP9 MSTORE DUP4 CODECOPY DUP2 ADD SUB SLT PUSH3 0x1FA JUMPI PUSH3 0x53 DUP3 PUSH3 0x215 JUMP JUMPDEST SWAP1 PUSH3 0x62 PUSH1 0x20 DUP5 ADD PUSH3 0x215 JUMP JUMPDEST SWAP3 DUP5 DUP2 ADD MLOAD SWAP2 PUSH1 0x60 DUP3 ADD MLOAD SWAP3 PUSH1 0x80 DUP4 ADD MLOAD SWAP2 DUP3 AND DUP3 SUB PUSH3 0x1FA JUMPI PUSH1 0xA0 DUP4 ADD MLOAD SWAP2 PUSH3 0x9F PUSH1 0xE0 PUSH3 0x97 PUSH1 0xC0 DUP8 ADD PUSH3 0x215 JUMP JUMPDEST SWAP6 ADD PUSH3 0x215 JUMP JUMPDEST SWAP5 CALLER ISZERO PUSH3 0x1B6 JUMPI PUSH1 0x0 DUP1 SLOAD PUSH1 0x1 PUSH1 0x1 PUSH1 0xA0 SHL SUB NOT SWAP1 DUP2 AND CALLER OR SWAP1 SWAP2 SSTORE SWAP8 PUSH1 0x1 PUSH1 0x1 PUSH1 0xA0 SHL SUB SWAP8 DUP9 AND DUP1 ISZERO PUSH3 0x1A5 JUMPI SWAP2 DUP9 PUSH21 0x493E00000000000000000000000010003002625A0 SWAP5 SWAP3 DUP2 SWAP9 SWAP8 SWAP7 SWAP5 DUP13 PUSH1 0x2 SLOAD AND OR PUSH1 0x2 SSTORE AND PUSH1 0x80 MSTORE PUSH2 0xE10 PUSH1 0x7 SSTORE PUSH1 0xA SLOAD SWAP3 PUSH1 0x8 SSTORE PUSH1 0x9 SSTORE PUSH11 0x100000000000000000000 PUSH1 0x1 PUSH1 0x90 SHL SUB SWAP1 PUSH1 0x50 SHL AND SWAP1 PUSH1 0x1 DUP1 PUSH1 0xB0 SHL SUB NOT AND OR OR PUSH1 0xA SSTORE PUSH1 0xB SSTORE AND PUSH1 0xA0 MSTORE CALLER PUSH1 0x0 MSTORE PUSH1 0xF PUSH1 0x20 MSTORE DUP4 PUSH1 0x0 KECCAK256 PUSH1 0x1 PUSH1 0xFF NOT DUP3 SLOAD AND OR SWAP1 SSTORE CALLER DUP4 PUSH1 0x10 SLOAD AND OR PUSH1 0x10 SSTORE TIMESTAMP PUSH1 0x6 SSTORE PUSH1 0x10 PUSH1 0x15 SSTORE PUSH1 0x2 PUSH1 0x16 SSTORE PUSH1 0x8 PUSH1 0x17 SSTORE AND SWAP1 PUSH1 0x18 SLOAD AND OR PUSH1 0x18 SSTORE MLOAD PUSH2 0x49E0 SWAP1 DUP2 PUSH3 0x22B DUP3 CODECOPY PUSH1 0x80 MLOAD DUP2 DUP2 DUP2 PUSH2 0x48E ADD MSTORE PUSH2 0x3D36 ADD MSTORE PUSH1 0xA0 MLOAD DUP2 DUP2 DUP2 PUSH2 0x729 ADD MSTORE PUSH2 0x339C ADD MSTORE RETURN JUMPDEST DUP11 MLOAD PUSH4 0xD92E233D PUSH1 0xE0 SHL DUP2 MSTORE PUSH1 0x4 SWAP1 REVERT JUMPDEST DUP9 MLOAD PUSH3 0x461BCD PUSH1 0xE5 SHL DUP2 MSTORE PUSH1 0x20 PUSH1 0x4 DUP3 ADD MSTORE PUSH1 0x18 PUSH1 0x24 DUP3 ADD MSTORE PUSH32 0x43616E6E6F7420736574206F776E657220746F207A65726F0000000000000000 PUSH1 0x44 DUP3 ADD MSTORE PUSH1 0x64 SWAP1 REVERT JUMPDEST PUSH1 0x0 DUP1 REVERT JUMPDEST PUSH4 0x4E487B71 PUSH1 0xE0 SHL PUSH1 0x0 MSTORE PUSH1 0x41 PUSH1 0x4 MSTORE PUSH1 0x24 PUSH1 0x0 REVERT JUMPDEST MLOAD SWAP1 PUSH1 0x1 PUSH1 0x1 PUSH1 0xA0 SHL SUB DUP3 AND DUP3 SUB PUSH3 0x1FA JUMPI JUMP INVALID PUSH1 0x80 PUSH1 0x40 MSTORE PUSH1 0x4 CALLDATASIZE LT ISZERO PUSH2 0x12 JUMPI PUSH1 0x0 DUP1 REVERT JUMPDEST PUSH1 0x0 CALLDATALOAD PUSH1 0xE0 SHR DUP1 PUSH4 0xCA76175 EQ PUSH2 0x2C2 JUMPI DUP1 PUSH4 0x10A14C40 EQ PUSH2 0x2BD JUMPI DUP1 PUSH4 0x152A9526 EQ PUSH2 0x2B8 JUMPI DUP1 PUSH4 0x176D80C4 EQ PUSH2 0x21D JUMPI DUP1 PUSH4 0x19C813BE EQ PUSH2 0x2B3 JUMPI DUP1 PUSH4 0x1BD6447A EQ PUSH2 0x2AE JUMPI DUP1 PUSH4 0x1FE543E3 EQ PUSH2 0x2A9 JUMPI DUP1 PUSH4 0x206137AA EQ PUSH2 0x2A4 JUMPI DUP1 PUSH4 0x2091F938 EQ PUSH2 0x29F JUMPI DUP1 PUSH4 0x223B6637 EQ PUSH2 0x29A JUMPI DUP1 PUSH4 0x25825746 EQ PUSH2 0x295 JUMPI DUP1 PUSH4 0x28606775 EQ PUSH2 0x290 JUMPI DUP1 PUSH4 0x39A9E4B3 EQ PUSH2 0x28B JUMPI DUP1 PUSH4 0x3F5EF0DE EQ PUSH2 0x286 JUMPI DUP1 PUSH4 0x454BBD29 EQ PUSH2 0x281 JUMPI DUP1 PUSH4 0x457B2E41 EQ PUSH2 0x27C JUMPI DUP1 PUSH4 0x4585E33B EQ PUSH2 0x277 JUMPI DUP1 PUSH4 0x536FFF6C EQ PUSH2 0x272 JUMPI DUP1 PUSH4 0x56959332 EQ PUSH2 0x26D JUMPI DUP1 PUSH4 0x57AABCAC EQ PUSH2 0x268 JUMPI DUP1 PUSH4 0x57EFE032 EQ PUSH2 0x263 JUMPI DUP1 PUSH4 0x5A74373C EQ PUSH2 0x25E JUMPI DUP1 PUSH4 0x624CFFD4 EQ PUSH2 0x259 JUMPI DUP1 PUSH4 0x62625BC1 EQ PUSH2 0x254 JUMPI DUP1 PUSH4 0x68233EEF EQ PUSH2 0x24F JUMPI DUP1 PUSH4 0x683DD777 EQ PUSH2 0x24A JUMPI DUP1 PUSH4 0x6E04FF0D EQ PUSH2 0x245 JUMPI DUP1 PUSH4 0x72E4C9F6 EQ PUSH2 0x240 JUMPI DUP1 PUSH4 0x79BA5097 EQ PUSH2 0x23B JUMPI DUP1 PUSH4 0x84A088E5 EQ PUSH2 0x236 JUMPI DUP1 PUSH4 0x8DA5CB5B EQ PUSH2 0x231 JUMPI DUP1 PUSH4 0x8EA98117 EQ PUSH2 0x22C JUMPI DUP1 PUSH4 0x973A814E EQ PUSH2 0x227 JUMPI DUP1 PUSH4 0x9ECCACF6 EQ PUSH2 0x222 JUMPI DUP1 PUSH4 0xA9431F23 EQ PUSH2 0x21D JUMPI DUP1 PUSH4 0xB5CCE133 EQ PUSH2 0x218 JUMPI DUP1 PUSH4 0xCE606EE0 EQ PUSH2 0x213 JUMPI DUP1 PUSH4 0xD175D81A EQ PUSH2 0x20E JUMPI DUP1 PUSH4 0xD87318B2 EQ PUSH2 0x209 JUMPI DUP1 PUSH4 0xDE3D9FB7 EQ PUSH2 0x204 JUMPI DUP1 PUSH4 0xE2ECF1E2 EQ PUSH2 0x1FF JUMPI DUP1 PUSH4 0xF2FDE38B EQ PUSH2 0x1FA JUMPI PUSH4 0xFA0C7A18 EQ PUSH2 0x1F5 JUMPI PUSH1 0x0 DUP1 REVERT JUMPDEST PUSH2 0x19FE JUMP JUMPDEST PUSH2 0x18BA JUMP JUMPDEST PUSH2 0x189C JUMP JUMPDEST PUSH2 0x187E JUMP JUMPDEST PUSH2 0x184D JUMP JUMPDEST PUSH2 0x178D JUMP JUMPDEST PUSH2 0x1764 JUMP JUMPDEST PUSH2 0x170E JUMP JUMPDEST PUSH2 0x6E2 JUMP JUMPDEST PUSH2 0x16E5 JUMP JUMPDEST PUSH2 0x16C7 JUMP JUMPDEST PUSH2 0x1652 JUMP JUMPDEST PUSH2 0x1629 JUMP JUMPDEST PUSH2 0x1566 JUMP JUMPDEST PUSH2 0x1436 JUMP JUMPDEST PUSH2 0x1408 JUMP JUMPDEST PUSH2 0x13BB JUMP JUMPDEST PUSH2 0x12CF JUMP JUMPDEST PUSH2 0x12B1 JUMP JUMPDEST PUSH2 0x1217 JUMP JUMPDEST PUSH2 0x11E2 JUMP JUMPDEST PUSH2 0x11C4 JUMP JUMPDEST PUSH2 0x10B4 JUMP JUMPDEST PUSH2 0x1096 JUMP JUMPDEST PUSH2 0x106A JUMP JUMPDEST PUSH2 0x102B JUMP JUMPDEST PUSH2 0xF7C JUMP JUMPDEST PUSH2 0xF15 JUMP JUMPDEST PUSH2 0xEB3 JUMP JUMPDEST PUSH2 0xDD4 JUMP JUMPDEST PUSH2 0xD90 JUMP JUMPDEST PUSH2 0xD51 JUMP JUMPDEST PUSH2 0xCD8 JUMP JUMPDEST PUSH2 0xAE4 JUMP JUMPDEST PUSH2 0x99D JUMP JUMPDEST PUSH2 0x96C JUMP JUMPDEST PUSH2 0x823 JUMP JUMPDEST PUSH2 0x76B JUMP JUMPDEST PUSH2 0x713 JUMP JUMPDEST PUSH2 0x615 JUMP JUMPDEST PUSH2 0x53D JUMP JUMPDEST PUSH2 0x43E JUMP JUMPDEST PUSH4 0x4E487B71 PUSH1 0xE0 SHL PUSH1 0x0 MSTORE PUSH1 0x41 PUSH1 0x4 MSTORE PUSH1 0x24 PUSH1 0x0 REVERT JUMPDEST PUSH1 0xE0 DUP2 ADD SWAP1 DUP2 LT PUSH1 0x1 PUSH1 0x1 PUSH1 0x40 SHL SUB DUP3 GT OR PUSH2 0x2F8 JUMPI PUSH1 0x40 MSTORE JUMP JUMPDEST PUSH2 0x2C7 JUMP JUMPDEST PUSH1 0x40 DUP2 ADD SWAP1 DUP2 LT PUSH1 0x1 PUSH1 0x1 PUSH1 0x40 SHL SUB DUP3 GT OR PUSH2 0x2F8 JUMPI PUSH1 0x40 MSTORE JUMP JUMPDEST PUSH1 0x20 DUP2 ADD SWAP1 DUP2 LT PUSH1 0x1 PUSH1 0x1 PUSH1 0x40 SHL SUB DUP3 GT OR PUSH2 0x2F8 JUMPI PUSH1 0x40 MSTORE JUMP JUMPDEST PUSH1 0x60 DUP2 ADD SWAP1 DUP2 LT PUSH1 0x1 PUSH1 0x1 PUSH1 0x40 SHL SUB DUP3 GT OR PUSH2 0x2F8 JUMPI PUSH1 0x40 MSTORE JUMP JUMPDEST SWAP1 PUSH1 0x1F DUP1 NOT SWAP2 ADD AND DUP2 ADD SWAP1 DUP2 LT PUSH1 0x1 PUSH1 0x1 PUSH1 0x40 SHL SUB DUP3 GT OR PUSH2 0x2F8 JUMPI PUSH1 0x40 MSTORE JUMP JUMPDEST PUSH1 0x40 MLOAD SWAP1 PUSH2 0x37C DUP3 PUSH2 0x2DD JUMP JUMPDEST JUMP JUMPDEST PUSH1 0x40 MLOAD SWAP1 PUSH2 0x37C DUP3 PUSH2 0x318 JUMP JUMPDEST PUSH1 0x40 MLOAD SWAP1 PUSH1 0xC0 DUP3 ADD DUP3 DUP2 LT PUSH1 0x1 PUSH1 0x1 PUSH1 0x40 SHL SUB DUP3 GT OR PUSH2 0x2F8 JUMPI PUSH1 0x40 MSTORE JUMP JUMPDEST PUSH1 0x40 MLOAD SWAP1 PUSH1 0x80 DUP3 ADD DUP3 DUP2 LT PUSH1 0x1 PUSH1 0x1 PUSH1 0x40 SHL SUB DUP3 GT OR PUSH2 0x2F8 JUMPI PUSH1 0x40 MSTORE JUMP JUMPDEST PUSH1 0x1 PUSH1 0x1 PUSH1 0x40 SHL SUB DUP2 GT PUSH2 0x2F8 JUMPI PUSH1 0x1F ADD PUSH1 0x1F NOT AND PUSH1 0x20 ADD SWAP1 JUMP JUMPDEST SWAP3 SWAP2 SWAP3 PUSH2 0x3F0 DUP3 PUSH2 0x3C9 JUMP JUMPDEST SWAP2 PUSH2 0x3FE PUSH1 0x40 MLOAD SWAP4 DUP5 PUSH2 0x34E JUMP JUMPDEST DUP3 SWAP5 DUP2 DUP5 MSTORE DUP2 DUP4 ADD GT PUSH2 0x41B JUMPI DUP3 DUP2 PUSH1 0x20 SWAP4 DUP5 PUSH1 0x0 SWAP7 ADD CALLDATACOPY ADD ADD MSTORE JUMP JUMPDEST PUSH1 0x0 DUP1 REVERT JUMPDEST SWAP1 DUP1 PUSH1 0x1F DUP4 ADD SLT ISZERO PUSH2 0x41B JUMPI DUP2 PUSH1 0x20 PUSH2 0x43B SWAP4 CALLDATALOAD SWAP2 ADD PUSH2 0x3E4 JUMP JUMPDEST SWAP1 JUMP JUMPDEST CALLVALUE PUSH2 0x41B JUMPI PUSH1 0x60 CALLDATASIZE PUSH1 0x3 NOT ADD SLT PUSH2 0x41B JUMPI PUSH1 0x1 PUSH1 0x1 PUSH1 0x40 SHL SUB PUSH1 0x4 CALLDATALOAD PUSH1 0x24 CALLDATALOAD DUP3 DUP2 GT PUSH2 0x41B JUMPI PUSH2 0x472 SWAP1 CALLDATASIZE SWAP1 PUSH1 0x4 ADD PUSH2 0x420 JUMP JUMPDEST SWAP2 PUSH1 0x44 CALLDATALOAD SWAP1 DUP2 GT PUSH2 0x41B JUMPI PUSH2 0x48B SWAP1 CALLDATASIZE SWAP1 PUSH1 0x4 ADD PUSH2 0x420 JUMP JUMPDEST SWAP2 PUSH32 0x0 PUSH1 0x1 PUSH1 0x1 PUSH1 0xA0 SHL SUB AND CALLER SUB PUSH2 0x52B JUMPI PUSH1 0x0 SWAP3 DUP3 DUP5 MSTORE PUSH1 0x4 PUSH1 0x20 MSTORE PUSH1 0x40 DUP5 KECCAK256 SLOAD SWAP2 PUSH2 0x2710 DUP4 GT PUSH1 0x0 EQ PUSH2 0x51B JUMPI PUSH2 0x270F NOT DUP4 ADD SWAP3 DUP4 GT PUSH2 0x516 JUMPI PUSH2 0x4EF SWAP3 PUSH2 0x3734 JUMP JUMPDEST PUSH32 0x85E1543BF2F84FE80C6BADBCE3648C8539AD1DF4D2B3D822938CA0538BE727E6 DUP3 DUP1 LOG2 DUP1 RETURN JUMPDEST PUSH2 0x1B00 JUMP JUMPDEST PUSH2 0x526 SWAP3 POP DUP4 PUSH2 0x3520 JUMP JUMPDEST PUSH2 0x4EF JUMP JUMPDEST PUSH1 0x40 MLOAD PUSH4 0xC6829F83 PUSH1 0xE0 SHL DUP2 MSTORE PUSH1 0x4 SWAP1 REVERT JUMPDEST CALLVALUE PUSH2 0x41B JUMPI PUSH1 0x20 CALLDATASIZE PUSH1 0x3 NOT ADD SLT PUSH2 0x41B JUMPI PUSH1 0x4 CALLDATALOAD PUSH1 0x0 MSTORE PUSH1 0x13 PUSH1 0x20 MSTORE PUSH1 0x20 PUSH1 0x40 PUSH1 0x0 KECCAK256 SLOAD PUSH1 0x40 MLOAD SWAP1 DUP2 MSTORE RETURN JUMPDEST PUSH1 0x0 JUMPDEST DUP4 DUP2 LT PUSH2 0x57C JUMPI POP POP PUSH1 0x0 SWAP2 ADD MSTORE JUMP JUMPDEST DUP2 DUP2 ADD MLOAD DUP4 DUP3 ADD MSTORE PUSH1 0x20 ADD PUSH2 0x56C JUMP JUMPDEST SWAP1 PUSH1 0x20 SWAP2 PUSH2 0x5A5 DUP2 MLOAD DUP1 SWAP3 DUP2 DUP6 MSTORE DUP6 DUP1 DUP7 ADD SWAP2 ADD PUSH2 0x569 JUMP JUMPDEST PUSH1 0x1F ADD PUSH1 0x1F NOT AND ADD ADD SWAP1 JUMP JUMPDEST PUSH1 0x20 DUP2 MSTORE PUSH1 0x1 DUP1 PUSH1 0xA0 SHL SUB DUP3 MLOAD AND PUSH1 0x20 DUP3 ADD MSTORE PUSH1 0x20 DUP3 ADD MLOAD PUSH1 0x40 DUP3 ADD MSTORE PUSH1 0xE0 PUSH1 0xC0 PUSH2 0x5EB PUSH1 0x40 DUP6 ADD MLOAD DUP4 PUSH1 0x60 DUP7 ADD MSTORE PUSH2 0x100 DUP6 ADD SWAP1 PUSH2 0x58C JUMP JUMPDEST SWAP4 PUSH1 0x60 DUP2 ADD MLOAD PUSH1 0x80 DUP6 ADD MSTORE PUSH1 0x80 DUP2 ADD MLOAD PUSH1 0xA0 DUP6 ADD MSTORE PUSH1 0xA0 DUP2 ADD MLOAD ISZERO ISZERO DUP3 DUP6 ADD MSTORE ADD MLOAD ISZERO ISZERO SWAP2 ADD MSTORE SWAP1 JUMP JUMPDEST CALLVALUE PUSH2 0x41B JUMPI PUSH1 0x20 CALLDATASIZE PUSH1 0x3 NOT ADD SLT PUSH2 0x41B JUMPI PUSH2 0x6DE PUSH1 0x40 DUP1 PUSH1 0xC0 DUP2 MLOAD PUSH2 0x639 DUP2 PUSH2 0x2DD JUMP JUMPDEST PUSH1 0x0 SWAP2 DUP2 DUP4 DUP1 SWAP4 MSTORE DUP3 PUSH1 0x20 DUP3 ADD MSTORE PUSH1 0x60 DUP6 DUP3 ADD MSTORE DUP3 PUSH1 0x60 DUP3 ADD MSTORE DUP3 PUSH1 0x80 DUP3 ADD MSTORE DUP3 PUSH1 0xA0 DUP3 ADD MSTORE ADD MSTORE PUSH1 0x4 CALLDATALOAD DUP2 MSTORE PUSH1 0x3 PUSH1 0x20 MSTORE KECCAK256 SWAP1 PUSH2 0x6D4 PUSH1 0xFF PUSH1 0x5 DUP4 MLOAD SWAP5 PUSH2 0x680 DUP7 PUSH2 0x2DD JUMP JUMPDEST DUP1 SLOAD PUSH1 0x1 PUSH1 0x1 PUSH1 0xA0 SHL SUB AND DUP7 MSTORE PUSH1 0x1 DUP2 ADD SLOAD PUSH1 0x20 DUP8 ADD MSTORE PUSH2 0x6A3 PUSH1 0x2 DUP3 ADD PUSH2 0xC76 JUMP JUMPDEST DUP7 DUP7 ADD MSTORE PUSH1 0x3 DUP2 ADD SLOAD PUSH1 0x60 DUP8 ADD MSTORE PUSH1 0x4 DUP2 ADD SLOAD PUSH1 0x80 DUP8 ADD MSTORE ADD SLOAD DUP2 DUP2 AND ISZERO ISZERO PUSH1 0xA0 DUP7 ADD MSTORE PUSH1 0x8 SHR AND ISZERO ISZERO PUSH1 0xC0 DUP5 ADD MSTORE JUMP JUMPDEST MLOAD SWAP2 DUP3 SWAP2 DUP3 PUSH2 0x5B1 JUMP JUMPDEST SUB SWAP1 RETURN JUMPDEST CALLVALUE PUSH2 0x41B JUMPI PUSH1 0x20 CALLDATASIZE PUSH1 0x3 NOT ADD SLT PUSH2 0x41B JUMPI PUSH1 0x4 CALLDATALOAD PUSH1 0x0 MSTORE PUSH1 0xC PUSH1 0x20 MSTORE PUSH1 0x20 PUSH1 0xFF PUSH1 0x40 PUSH1 0x0 KECCAK256 SLOAD AND PUSH1 0x40 MLOAD SWAP1 ISZERO ISZERO DUP2 MSTORE RETURN JUMPDEST CALLVALUE PUSH2 0x41B JUMPI PUSH1 0x0 CALLDATASIZE PUSH1 0x3 NOT ADD SLT PUSH2 0x41B JUMPI PUSH1 0x40 MLOAD PUSH32 0x0 PUSH1 0x1 PUSH1 0x1 PUSH1 0xA0 SHL SUB AND DUP2 MSTORE PUSH1 0x20 SWAP1 RETURN JUMPDEST PUSH1 0x24 CALLDATALOAD SWAP1 PUSH4 0xFFFFFFFF DUP3 AND DUP3 SUB PUSH2 0x41B JUMPI JUMP JUMPDEST CALLVALUE PUSH2 0x41B JUMPI PUSH1 0x60 CALLDATASIZE PUSH1 0x3 NOT ADD SLT PUSH2 0x41B JUMPI PUSH1 0x4 CALLDATALOAD PUSH1 0x1 PUSH1 0x1 PUSH1 0x40 SHL SUB DUP2 AND DUP2 SUB PUSH2 0x41B JUMPI PUSH2 0x797 PUSH2 0x758 JUMP JUMPDEST PUSH2 0x7AC PUSH1 0x1 DUP1 PUSH1 0xA0 SHL SUB PUSH1 0x10 SLOAD AND CALLER EQ PUSH2 0x1A88 JUMP JUMPDEST PUSH1 0xA DUP1 SLOAD PUSH12 0xFFFFFFFFFFFFFFFFFFFFFFFF PUSH1 0x50 SHL NOT AND PUSH1 0x50 SWAP4 SWAP1 SWAP4 SHL PUSH8 0xFFFFFFFFFFFFFFFF PUSH1 0x50 SHL AND SWAP3 SWAP1 SWAP3 OR PUSH1 0x90 SWAP2 SWAP1 SWAP2 SHL PUSH4 0xFFFFFFFF PUSH1 0x90 SHL AND OR SWAP1 SSTORE PUSH1 0x44 CALLDATALOAD PUSH1 0xB SSTORE STOP JUMPDEST SWAP2 DUP2 PUSH1 0x1F DUP5 ADD SLT ISZERO PUSH2 0x41B JUMPI DUP3 CALLDATALOAD SWAP2 PUSH1 0x1 PUSH1 0x1 PUSH1 0x40 SHL SUB DUP4 GT PUSH2 0x41B JUMPI PUSH1 0x20 DUP1 DUP6 ADD SWAP5 DUP5 PUSH1 0x5 SHL ADD ADD GT PUSH2 0x41B JUMPI JUMP JUMPDEST CALLVALUE PUSH2 0x41B JUMPI PUSH1 0x40 CALLDATASIZE PUSH1 0x3 NOT ADD SLT PUSH2 0x41B JUMPI PUSH1 0x4 CALLDATALOAD PUSH1 0x24 CALLDATALOAD PUSH1 0x1 PUSH1 0x1 PUSH1 0x40 SHL SUB DUP2 GT PUSH2 0x41B JUMPI PUSH2 0x856 SWAP1 CALLDATASIZE SWAP1 PUSH1 0x4 ADD PUSH2 0x7F3 JUMP JUMPDEST PUSH1 0x2 SLOAD SWAP2 SWAP3 SWAP1 SWAP2 PUSH1 0x1 PUSH1 0x1 PUSH1 0xA0 SHL SUB AND CALLER DUP2 SWAP1 SUB PUSH2 0x94E JUMPI POP DUP1 PUSH1 0x0 MSTORE PUSH1 0x4 PUSH1 0x20 MSTORE PUSH1 0x40 PUSH1 0x0 KECCAK256 SLOAD SWAP1 DUP2 ISZERO PUSH2 0x913 JUMPI PUSH2 0x3E7 NOT NUMBER ADD NUMBER DUP2 GT PUSH2 0x516 JUMPI DUP5 PUSH2 0x8FB PUSH2 0x8DA PUSH32 0x2374D5481494AD7962D4BD1B98B91E9F3117C9B66533B2804BE3D76C41A49088 SWAP4 PUSH2 0x8D4 PUSH2 0x8CB DUP10 PUSH2 0x911 SWAP12 PUSH2 0x2847 JUMP JUMPDEST CALLDATALOAD PUSH2 0x3E8 SWAP1 MOD SWAP1 JUMP JUMPDEST SWAP1 PUSH2 0x2889 JUMP JUMPDEST SWAP6 DUP7 SWAP3 DUP4 PUSH1 0x3 PUSH2 0x8F4 DUP10 PUSH1 0x0 MSTORE PUSH1 0x3 PUSH1 0x20 MSTORE PUSH1 0x40 PUSH1 0x0 KECCAK256 SWAP1 JUMP JUMPDEST ADD SSTORE PUSH2 0x2847 JUMP JUMPDEST PUSH1 0x40 DUP1 MLOAD SWAP2 CALLDATALOAD DUP3 MSTORE PUSH1 0x20 DUP3 ADD SWAP3 SWAP1 SWAP3 MSTORE LOG2 PUSH2 0x2967 JUMP JUMPDEST STOP JUMPDEST PUSH1 0x40 MLOAD PUSH3 0x461BCD PUSH1 0xE5 SHL DUP2 MSTORE PUSH1 0x20 PUSH1 0x4 DUP3 ADD MSTORE PUSH1 0x13 PUSH1 0x24 DUP3 ADD MSTORE PUSH19 0x125B9D985B1A5908159491881C995C5D595CDD PUSH1 0x6A SHL PUSH1 0x44 DUP3 ADD MSTORE PUSH1 0x64 SWAP1 REVERT JUMPDEST PUSH1 0x44 SWAP1 PUSH1 0x40 MLOAD SWAP1 PUSH4 0x73E64FD PUSH1 0xE2 SHL DUP3 MSTORE CALLER PUSH1 0x4 DUP4 ADD MSTORE PUSH1 0x24 DUP3 ADD MSTORE REVERT JUMPDEST CALLVALUE PUSH2 0x41B JUMPI PUSH1 0x20 CALLDATASIZE PUSH1 0x3 NOT ADD SLT PUSH2 0x41B JUMPI PUSH1 0x4 CALLDATALOAD PUSH1 0x0 MSTORE PUSH1 0x12 PUSH1 0x20 MSTORE PUSH1 0x20 PUSH1 0xFF PUSH1 0x40 PUSH1 0x0 KECCAK256 SLOAD AND PUSH1 0x40 MLOAD SWAP1 ISZERO ISZERO DUP2 MSTORE RETURN JUMPDEST CALLVALUE PUSH2 0x41B JUMPI PUSH1 0x60 CALLDATASIZE PUSH1 0x3 NOT ADD SLT PUSH2 0x41B JUMPI PUSH1 0x4 CALLDATALOAD PUSH1 0x24 CALLDATALOAD SWAP1 PUSH1 0x44 CALLDATALOAD SWAP1 PUSH2 0x9CE PUSH1 0x1 DUP1 PUSH1 0xA0 SHL SUB PUSH1 0x10 SLOAD AND CALLER EQ PUSH2 0x1A88 JUMP JUMPDEST DUP1 ISZERO ISZERO DUP1 PUSH2 0xA84 JUMPI JUMPDEST ISZERO PUSH2 0xA4B JUMPI PUSH1 0x2 DUP4 LT ISZERO DUP1 PUSH2 0xA41 JUMPI JUMPDEST ISZERO PUSH2 0xA06 JUMPI PUSH2 0x911 SWAP3 PUSH2 0x9FC PUSH2 0xA01 SWAP3 PUSH1 0x15 SSTORE JUMP JUMPDEST PUSH1 0x16 SSTORE JUMP JUMPDEST PUSH1 0x17 SSTORE JUMP JUMPDEST PUSH1 0x40 MLOAD PUSH3 0x461BCD PUSH1 0xE5 SHL DUP2 MSTORE PUSH1 0x20 PUSH1 0x4 DUP3 ADD MSTORE PUSH1 0x13 PUSH1 0x24 DUP3 ADD MSTORE PUSH19 0x496E76616C69642062617463682073697A6573 PUSH1 0x68 SHL PUSH1 0x44 DUP3 ADD MSTORE PUSH1 0x64 SWAP1 REVERT JUMPDEST POP DUP2 DUP4 GT ISZERO PUSH2 0x9E7 JUMP JUMPDEST PUSH1 0x40 MLOAD PUSH3 0x461BCD PUSH1 0xE5 SHL DUP2 MSTORE PUSH1 0x20 PUSH1 0x4 DUP3 ADD MSTORE PUSH1 0x11 PUSH1 0x24 DUP3 ADD MSTORE PUSH17 0x92DCECC2D8D2C840DAC2F040C8CAE0E8D PUSH1 0x7B SHL PUSH1 0x44 DUP3 ADD MSTORE PUSH1 0x64 SWAP1 REVERT JUMPDEST POP PUSH1 0x20 DUP2 GT ISZERO PUSH2 0x9D7 JUMP JUMPDEST SWAP1 PUSH1 0x40 MLOAD PUSH2 0xA9C DUP2 PUSH2 0x2DD JUMP JUMPDEST PUSH1 0xC0 PUSH1 0xFF PUSH1 0x6 DUP4 SWAP6 DUP1 SLOAD DUP6 MSTORE PUSH1 0x1 DUP2 ADD SLOAD PUSH1 0x20 DUP7 ADD MSTORE PUSH1 0x2 DUP2 ADD SLOAD PUSH1 0x40 DUP7 ADD MSTORE PUSH1 0x3 DUP2 ADD SLOAD PUSH1 0x60 DUP7 ADD MSTORE PUSH1 0x4 DUP2 ADD SLOAD PUSH1 0x80 DUP7 ADD MSTORE PUSH1 0x5 DUP2 ADD SLOAD PUSH1 0xA0 DUP7 ADD MSTORE ADD SLOAD AND ISZERO ISZERO SWAP2 ADD MSTORE JUMP JUMPDEST CALLVALUE PUSH2 0x41B JUMPI PUSH1 0x20 CALLDATASIZE PUSH1 0x3 NOT ADD SLT PUSH2 0x41B JUMPI PUSH1 0x4 CALLDATALOAD PUSH1 0x0 MSTORE PUSH1 0x11 PUSH1 0x20 MSTORE PUSH2 0x180 PUSH1 0x40 PUSH1 0x0 KECCAK256 PUSH1 0x1 DUP1 PUSH1 0xA0 SHL SUB PUSH1 0x1 DUP3 ADD SLOAD AND SWAP1 PUSH2 0xB9C PUSH1 0x2 DUP3 ADD SLOAD SWAP2 PUSH1 0x3 DUP2 ADD SLOAD PUSH1 0x4 DUP3 ADD SLOAD SWAP1 PUSH1 0xFF PUSH1 0xC PUSH2 0xB3A PUSH1 0x5 DUP7 ADD PUSH2 0xA8F JUMP JUMPDEST SWAP5 ADD SLOAD AND SWAP5 PUSH1 0x40 MLOAD SWAP7 DUP8 MSTORE PUSH1 0x20 DUP8 ADD MSTORE PUSH1 0x40 DUP7 ADD MSTORE PUSH1 0x60 DUP6 ADD MSTORE PUSH1 0x80 DUP5 ADD SWAP1 PUSH1 0xC0 DUP1 SWAP2 DUP1 MLOAD DUP5 MSTORE PUSH1 0x20 DUP2 ADD MLOAD PUSH1 0x20 DUP6 ADD MSTORE PUSH1 0x40 DUP2 ADD MLOAD PUSH1 0x40 DUP6 ADD MSTORE PUSH1 0x60 DUP2 ADD MLOAD PUSH1 0x60 DUP6 ADD MSTORE PUSH1 0x80 DUP2 ADD MLOAD PUSH1 0x80 DUP6 ADD MSTORE PUSH1 0xA0 DUP2 ADD MLOAD PUSH1 0xA0 DUP6 ADD MSTORE ADD MLOAD ISZERO ISZERO SWAP2 ADD MSTORE JUMP JUMPDEST ISZERO ISZERO PUSH2 0x160 DUP3 ADD MSTORE RETURN JUMPDEST SWAP1 PUSH1 0x1 DUP3 DUP2 SHR SWAP3 AND DUP1 ISZERO PUSH2 0xBD6 JUMPI JUMPDEST PUSH1 0x20 DUP4 LT EQ PUSH2 0xBC0 JUMPI JUMP JUMPDEST PUSH4 0x4E487B71 PUSH1 0xE0 SHL PUSH1 0x0 MSTORE PUSH1 0x22 PUSH1 0x4 MSTORE PUSH1 0x24 PUSH1 0x0 REVERT JUMPDEST SWAP2 PUSH1 0x7F AND SWAP2 PUSH2 0xBB5 JUMP JUMPDEST DUP1 SLOAD PUSH1 0x0 SWAP4 SWAP3 PUSH2 0xBEF DUP3 PUSH2 0xBA6 JUMP JUMPDEST SWAP2 DUP3 DUP3 MSTORE PUSH1 0x20 SWAP4 PUSH1 0x1 SWAP2 PUSH1 0x1 DUP2 AND SWAP1 DUP2 PUSH1 0x0 EQ PUSH2 0xC57 JUMPI POP PUSH1 0x1 EQ PUSH2 0xC16 JUMPI JUMPDEST POP POP POP POP POP JUMP JUMPDEST SWAP1 SWAP4 SWAP5 SWAP6 POP PUSH1 0x0 SWAP3 SWAP2 SWAP3 MSTORE DUP4 PUSH1 0x0 KECCAK256 SWAP3 DUP5 PUSH1 0x0 SWAP5 JUMPDEST DUP4 DUP7 LT PUSH2 0xC43 JUMPI POP POP POP POP ADD ADD SWAP1 CODESIZE DUP1 DUP1 DUP1 DUP1 PUSH2 0xC0F JUMP JUMPDEST DUP1 SLOAD DUP6 DUP8 ADD DUP4 ADD MSTORE SWAP5 ADD SWAP4 DUP6 SWAP1 DUP3 ADD PUSH2 0xC2B JUMP JUMPDEST PUSH1 0xFF NOT AND DUP7 DUP6 ADD MSTORE POP POP POP SWAP1 ISZERO ISZERO PUSH1 0x5 SHL ADD ADD SWAP2 POP CODESIZE DUP1 DUP1 DUP1 DUP1 PUSH2 0xC0F JUMP JUMPDEST SWAP1 PUSH2 0x37C PUSH2 0xC8A SWAP3 PUSH1 0x40 MLOAD SWAP4 DUP5 DUP1 SWAP3 PUSH2 0xBE0 JUMP JUMPDEST SUB DUP4 PUSH2 0x34E JUMP JUMPDEST SWAP6 SWAP3 PUSH1 0xC0 SWAP6 SWAP3 PUSH2 0xCBF SWAP3 SWAP10 SWAP9 SWAP6 SWAP10 PUSH1 0x1 DUP1 PUSH1 0xA0 SHL SUB AND DUP9 MSTORE PUSH1 0x20 DUP9 ADD MSTORE PUSH1 0xE0 PUSH1 0x40 DUP9 ADD MSTORE PUSH1 0xE0 DUP8 ADD SWAP1 PUSH2 0x58C JUMP JUMPDEST SWAP7 PUSH1 0x60 DUP7 ADD MSTORE PUSH1 0x80 DUP6 ADD MSTORE ISZERO ISZERO PUSH1 0xA0 DUP5 ADD MSTORE ISZERO ISZERO SWAP2 ADD MSTORE JUMP JUMPDEST CALLVALUE PUSH2 0x41B JUMPI PUSH1 0x20 CALLDATASIZE PUSH1 0x3 NOT ADD SLT PUSH2 0x41B JUMPI PUSH1 0x4 CALLDATALOAD PUSH1 0x0 MSTORE PUSH1 0x3 PUSH1 0x20 MSTORE PUSH1 0x40 PUSH1 0x0 KECCAK256 PUSH1 0x1 DUP1 PUSH1 0xA0 SHL SUB DUP2 SLOAD AND SWAP1 PUSH2 0x6DE PUSH1 0x1 DUP3 ADD SLOAD SWAP2 PUSH1 0x40 MLOAD SWAP4 PUSH2 0xD29 DUP6 PUSH2 0xD22 DUP2 PUSH1 0x2 DUP7 ADD PUSH2 0xBE0 JUMP JUMPDEST SUB DUP7 PUSH2 0x34E JUMP JUMPDEST PUSH1 0x3 DUP3 ADD SLOAD SWAP2 PUSH1 0x5 PUSH1 0x4 DUP3 ADD SLOAD SWAP2 ADD SLOAD SWAP3 PUSH1 0x40 MLOAD SWAP7 DUP8 SWAP7 PUSH1 0xFF DUP1 DUP8 PUSH1 0x8 SHR AND SWAP7 AND SWAP5 DUP9 PUSH2 0xC91 JUMP JUMPDEST CALLVALUE PUSH2 0x41B JUMPI PUSH1 0x0 CALLDATASIZE PUSH1 0x3 NOT ADD SLT PUSH2 0x41B JUMPI PUSH1 0x18 SLOAD PUSH1 0x40 MLOAD PUSH1 0x1 PUSH1 0x1 PUSH1 0xA0 SHL SUB SWAP1 SWAP2 AND DUP2 MSTORE PUSH1 0x20 SWAP1 RETURN JUMPDEST PUSH4 0x4E487B71 PUSH1 0xE0 SHL PUSH1 0x0 MSTORE PUSH1 0x32 PUSH1 0x4 MSTORE PUSH1 0x24 PUSH1 0x0 REVERT JUMPDEST CALLVALUE PUSH2 0x41B JUMPI PUSH1 0x40 CALLDATASIZE PUSH1 0x3 NOT ADD SLT PUSH2 0x41B JUMPI PUSH1 0x24 CALLDATALOAD PUSH1 0x0 SWAP1 PUSH1 0x4 CALLDATALOAD DUP3 MSTORE PUSH1 0xD PUSH1 0x20 MSTORE PUSH1 0x40 DUP3 KECCAK256 DUP1 SLOAD DUP3 LT ISZERO PUSH2 0xDD0 JUMPI DUP3 MSTORE PUSH1 0x20 SWAP2 DUP3 SWAP1 KECCAK256 ADD SLOAD PUSH1 0x40 MLOAD SWAP1 DUP2 MSTORE RETURN JUMPDEST DUP3 DUP1 REVERT JUMPDEST CALLVALUE PUSH2 0x41B JUMPI PUSH1 0x40 CALLDATASIZE PUSH1 0x3 NOT ADD SLT PUSH2 0x41B JUMPI PUSH1 0x4 CALLDATALOAD PUSH1 0x24 CALLDATALOAD PUSH1 0x1 PUSH1 0x1 PUSH1 0x40 SHL SUB DUP2 GT PUSH2 0x41B JUMPI PUSH2 0xE07 SWAP1 CALLDATASIZE SWAP1 PUSH1 0x4 ADD PUSH2 0x420 JUMP JUMPDEST SWAP1 DUP1 ISZERO ISZERO DUP1 PUSH2 0xE87 JUMPI JUMPDEST PUSH2 0xE1A SWAP1 PUSH2 0x1AC1 JUMP JUMPDEST PUSH1 0x0 MSTORE PUSH1 0x11 PUSH1 0x20 MSTORE PUSH1 0x40 PUSH1 0x0 KECCAK256 PUSH1 0xFF PUSH1 0xC DUP3 ADD SLOAD AND ISZERO PUSH2 0xE4C JUMPI DUP2 MLOAD PUSH1 0x20 SWAP3 DUP4 ADD KECCAK256 PUSH1 0x4 SWAP2 SWAP1 SWAP2 ADD SLOAD PUSH1 0x40 MLOAD SWAP2 EQ DUP2 MSTORE RETURN JUMPDEST PUSH1 0x40 MLOAD PUSH3 0x461BCD PUSH1 0xE5 SHL DUP2 MSTORE PUSH1 0x20 PUSH1 0x4 DUP3 ADD MSTORE PUSH1 0x13 PUSH1 0x24 DUP3 ADD MSTORE PUSH19 0x10985D18DA081B9BDD0818DBDB5C1B195D1959 PUSH1 0x6A SHL PUSH1 0x44 DUP3 ADD MSTORE PUSH1 0x64 SWAP1 REVERT JUMPDEST POP PUSH1 0x14 SLOAD DUP2 GT ISZERO PUSH2 0xE11 JUMP JUMPDEST PUSH1 0x4 CALLDATALOAD SWAP1 PUSH1 0x1 PUSH1 0x1 PUSH1 0xA0 SHL SUB DUP3 AND DUP3 SUB PUSH2 0x41B JUMPI JUMP JUMPDEST DUP1 ISZERO ISZERO SUB PUSH2 0x41B JUMPI JUMP JUMPDEST CALLVALUE PUSH2 0x41B JUMPI PUSH1 0x40 CALLDATASIZE PUSH1 0x3 NOT ADD SLT PUSH2 0x41B JUMPI PUSH2 0x911 PUSH2 0xECF PUSH2 0xE93 JUMP JUMPDEST PUSH1 0x24 CALLDATALOAD SWAP1 PUSH2 0xEDC DUP3 PUSH2 0xEA9 JUMP JUMPDEST PUSH1 0x10 SLOAD PUSH1 0x1 PUSH1 0x1 PUSH1 0xA0 SHL SUB SWAP2 SWAP1 PUSH2 0xEF6 SWAP1 DUP4 AND CALLER EQ PUSH2 0x1A88 JUMP JUMPDEST AND PUSH1 0x0 MSTORE PUSH1 0xF PUSH1 0x20 MSTORE PUSH1 0x40 PUSH1 0x0 KECCAK256 SWAP1 PUSH1 0xFF DUP1 NOT DUP4 SLOAD AND SWAP2 ISZERO ISZERO AND OR SWAP1 SSTORE JUMP JUMPDEST CALLVALUE PUSH2 0x41B JUMPI PUSH1 0x0 CALLDATASIZE PUSH1 0x3 NOT ADD SLT PUSH2 0x41B JUMPI PUSH1 0x20 PUSH1 0x15 SLOAD PUSH1 0x40 MLOAD SWAP1 DUP2 MSTORE RETURN JUMPDEST SWAP1 PUSH1 0x20 PUSH1 0x3 NOT DUP4 ADD SLT PUSH2 0x41B JUMPI PUSH1 0x4 CALLDATALOAD PUSH1 0x1 PUSH1 0x1 PUSH1 0x40 SHL SUB SWAP3 DUP4 DUP3 GT PUSH2 0x41B JUMPI DUP1 PUSH1 0x23 DUP4 ADD SLT ISZERO PUSH2 0x41B JUMPI DUP2 PUSH1 0x4 ADD CALLDATALOAD SWAP4 DUP5 GT PUSH2 0x41B JUMPI PUSH1 0x24 DUP5 DUP4 ADD ADD GT PUSH2 0x41B JUMPI PUSH1 0x24 ADD SWAP2 SWAP1 JUMP JUMPDEST CALLVALUE PUSH2 0x41B JUMPI PUSH2 0xF8A CALLDATASIZE PUSH2 0xF33 JUMP JUMPDEST POP POP PUSH1 0x6 SLOAD TIMESTAMP SUB TIMESTAMP DUP2 GT PUSH2 0x516 JUMPI PUSH2 0xFA5 SWAP1 PUSH1 0x7 SLOAD LT PUSH2 0x1B34 JUMP JUMPDEST PUSH2 0xFAE TIMESTAMP PUSH1 0x6 SSTORE JUMP JUMPDEST PUSH1 0x40 DUP1 MLOAD PUSH4 0x2BF7F019 PUSH1 0xE1 SHL DUP2 MSTORE PUSH1 0x4 DUP2 ADD SWAP2 SWAP1 SWAP2 MSTORE PUSH1 0x8 PUSH1 0x44 DUP3 ADD MSTORE PUSH8 0x657468657265756D PUSH1 0xC0 SHL PUSH1 0x64 DUP3 ADD MSTORE PUSH1 0x0 PUSH1 0x24 DUP3 ADD MSTORE PUSH1 0x20 DUP2 DUP1 PUSH1 0x84 DUP2 ADD SUB DUP2 PUSH1 0x0 ADDRESS GAS CALL DUP1 ISZERO PUSH2 0x1026 JUMPI PUSH2 0xFFE JUMPI STOP JUMPDEST PUSH2 0x911 SWAP1 PUSH1 0x20 RETURNDATASIZE PUSH1 0x20 GT PUSH2 0x101F JUMPI JUMPDEST PUSH2 0x1017 DUP2 DUP4 PUSH2 0x34E JUMP JUMPDEST DUP2 ADD SWAP1 PUSH2 0x1B74 JUMP JUMPDEST POP RETURNDATASIZE PUSH2 0x100D JUMP JUMPDEST PUSH2 0x1B83 JUMP JUMPDEST CALLVALUE PUSH2 0x41B JUMPI PUSH1 0x20 CALLDATASIZE PUSH1 0x3 NOT ADD SLT PUSH2 0x41B JUMPI PUSH1 0x1 PUSH1 0x1 PUSH1 0xA0 SHL SUB PUSH2 0x104C PUSH2 0xE93 JUMP JUMPDEST AND PUSH1 0x0 MSTORE PUSH1 0xF PUSH1 0x20 MSTORE PUSH1 0x20 PUSH1 0xFF PUSH1 0x40 PUSH1 0x0 KECCAK256 SLOAD AND PUSH1 0x40 MLOAD SWAP1 ISZERO ISZERO DUP2 MSTORE RETURN JUMPDEST CALLVALUE PUSH2 0x41B JUMPI PUSH1 0x20 CALLDATASIZE PUSH1 0x3 NOT ADD SLT PUSH2 0x41B JUMPI PUSH1 0x4 CALLDATALOAD PUSH1 0x0 MSTORE PUSH1 0x4 PUSH1 0x20 MSTORE PUSH1 0x20 PUSH1 0x40 PUSH1 0x0 KECCAK256 SLOAD PUSH1 0x40 MLOAD SWAP1 DUP2 MSTORE RETURN JUMPDEST CALLVALUE PUSH2 0x41B JUMPI PUSH1 0x0 CALLDATASIZE PUSH1 0x3 NOT ADD SLT PUSH2 0x41B JUMPI PUSH1 0x20 PUSH1 0x17 SLOAD PUSH1 0x40 MLOAD SWAP1 DUP2 MSTORE RETURN JUMPDEST CALLVALUE PUSH2 0x41B JUMPI PUSH1 0x40 CALLDATASIZE PUSH1 0x3 NOT ADD SLT PUSH2 0x41B JUMPI PUSH1 0x4 CALLDATALOAD PUSH1 0x1 PUSH1 0x1 PUSH1 0x40 SHL SUB DUP2 GT PUSH2 0x41B JUMPI CALLDATASIZE PUSH1 0x23 DUP3 ADD SLT ISZERO PUSH2 0x41B JUMPI PUSH2 0x10F8 PUSH2 0x6DE SWAP2 CALLDATASIZE SWAP1 PUSH1 0x24 DUP2 PUSH1 0x4 ADD CALLDATALOAD SWAP2 ADD PUSH2 0x3E4 JUMP JUMPDEST PUSH1 0x24 CALLDATALOAD PUSH2 0x115E PUSH2 0x1109 PUSH1 0x5 SLOAD PUSH2 0x1B8F JUMP JUMPDEST SWAP3 PUSH2 0x1113 DUP5 PUSH1 0x5 SSTORE JUMP JUMPDEST PUSH2 0x111B PUSH2 0x36F JUMP JUMPDEST CALLER DUP2 MSTORE SWAP1 TIMESTAMP PUSH1 0x20 DUP4 ADD MSTORE PUSH1 0x40 DUP3 ADD MSTORE DUP3 PUSH1 0x60 DUP3 ADD MSTORE PUSH1 0x0 PUSH1 0x80 DUP3 ADD MSTORE PUSH1 0x0 PUSH1 0xA0 DUP3 ADD MSTORE PUSH1 0x0 PUSH1 0xC0 DUP3 ADD MSTORE PUSH2 0x1159 DUP5 PUSH1 0x0 MSTORE PUSH1 0x3 PUSH1 0x20 MSTORE PUSH1 0x40 PUSH1 0x0 KECCAK256 SWAP1 JUMP JUMPDEST PUSH2 0x1BFA JUMP JUMPDEST DUP1 PUSH2 0x11B5 JUMPI PUSH2 0x116C DUP3 PUSH2 0x2C79 JUMP JUMPDEST DUP2 PUSH32 0x7EF8CA77FDC89C79F093F2A6B2348B1FCDA0BEB941CE31CE9F2D9D260C4DB9D2 PUSH1 0x40 MLOAD DUP1 PUSH2 0x11A2 CALLER SWAP6 DUP3 SWAP2 SWAP1 PUSH1 0x20 DUP4 ADD SWAP3 MSTORE JUMP JUMPDEST SUB SWAP1 LOG3 PUSH1 0x40 MLOAD SWAP1 DUP2 MSTORE SWAP1 DUP2 SWAP1 PUSH1 0x20 DUP3 ADD SWAP1 JUMP JUMPDEST PUSH2 0x11BF DUP2 DUP4 PUSH2 0x2967 JUMP JUMPDEST PUSH2 0x116C JUMP JUMPDEST CALLVALUE PUSH2 0x41B JUMPI PUSH1 0x0 CALLDATASIZE PUSH1 0x3 NOT ADD SLT PUSH2 0x41B JUMPI PUSH1 0x20 PUSH1 0x7 SLOAD PUSH1 0x40 MLOAD SWAP1 DUP2 MSTORE RETURN JUMPDEST CALLVALUE PUSH2 0x41B JUMPI PUSH1 0x0 CALLDATASIZE PUSH1 0x3 NOT ADD SLT PUSH2 0x41B JUMPI PUSH1 0x20 PUSH1 0x6 SLOAD PUSH1 0x40 MLOAD SWAP1 DUP2 MSTORE RETURN JUMPDEST PUSH1 0x1 PUSH1 0x1 PUSH1 0x40 SHL SUB DUP2 GT PUSH2 0x2F8 JUMPI PUSH1 0x5 SHL PUSH1 0x20 ADD SWAP1 JUMP JUMPDEST CALLVALUE PUSH2 0x41B JUMPI PUSH1 0x20 DUP1 PUSH1 0x3 NOT CALLDATASIZE ADD SLT PUSH2 0x41B JUMPI PUSH1 0x4 CALLDATALOAD PUSH1 0x1 PUSH1 0x1 PUSH1 0x40 SHL SUB DUP2 GT PUSH2 0x41B JUMPI CALLDATASIZE PUSH1 0x23 DUP3 ADD SLT ISZERO PUSH2 0x41B JUMPI DUP1 PUSH1 0x4 ADD CALLDATALOAD SWAP1 PUSH2 0x1254 DUP3 PUSH2 0x1200 JUMP JUMPDEST SWAP2 PUSH2 0x1262 PUSH1 0x40 MLOAD SWAP4 DUP5 PUSH2 0x34E JUMP JUMPDEST DUP1 DUP4 MSTORE PUSH1 0x24 PUSH1 0x20 DUP5 ADD SWAP2 PUSH1 0x5 SHL DUP4 ADD ADD SWAP2 CALLDATASIZE DUP4 GT PUSH2 0x41B JUMPI PUSH1 0x24 ADD SWAP1 JUMPDEST DUP3 DUP3 LT PUSH2 0x12A2 JUMPI PUSH2 0x6DE PUSH2 0x1292 DUP6 PUSH2 0x202E JUMP JUMPDEST PUSH1 0x40 MLOAD SWAP1 DUP2 MSTORE SWAP1 DUP2 SWAP1 PUSH1 0x20 DUP3 ADD SWAP1 JUMP JUMPDEST DUP2 CALLDATALOAD DUP2 MSTORE SWAP1 DUP5 ADD SWAP1 DUP5 ADD PUSH2 0x127F JUMP JUMPDEST CALLVALUE PUSH2 0x41B JUMPI PUSH1 0x0 CALLDATASIZE PUSH1 0x3 NOT ADD SLT PUSH2 0x41B JUMPI PUSH1 0x20 PUSH1 0x14 SLOAD PUSH1 0x40 MLOAD SWAP1 DUP2 MSTORE RETURN JUMPDEST CALLVALUE PUSH2 0x41B JUMPI PUSH1 0x20 CALLDATASIZE PUSH1 0x3 NOT ADD SLT PUSH2 0x41B JUMPI PUSH1 0x4 CALLDATALOAD DUP1 ISZERO ISZERO DUP1 PUSH2 0x13AF JUMPI JUMPDEST PUSH2 0x12F5 SWAP1 PUSH2 0x1AC1 JUMP JUMPDEST PUSH1 0x0 DUP2 DUP2 MSTORE PUSH1 0x11 PUSH1 0x20 MSTORE PUSH1 0x40 SWAP1 KECCAK256 PUSH1 0x1 ADD SLOAD PUSH1 0x1 PUSH1 0x1 PUSH1 0xA0 SHL SUB AND CALLER SUB PUSH2 0x1374 JUMPI DUP1 PUSH2 0x136F PUSH2 0x1331 PUSH2 0x911 SWAP4 PUSH1 0x0 MSTORE PUSH1 0x11 PUSH1 0x20 MSTORE PUSH1 0x40 PUSH1 0x0 KECCAK256 SWAP1 JUMP JUMPDEST PUSH1 0x3 PUSH1 0xC DUP3 ADD SWAP2 PUSH2 0x134B PUSH2 0x1346 DUP5 SLOAD PUSH1 0xFF AND SWAP1 JUMP JUMPDEST PUSH2 0x22EE JUMP JUMPDEST ADD PUSH2 0x1363 DUP2 SLOAD PUSH2 0x135E PUSH1 0x15 SLOAD DUP3 LT PUSH2 0x233A JUMP JUMPDEST PUSH2 0x1B8F JUMP JUMPDEST SWAP1 SSTORE DUP1 SLOAD PUSH1 0xFF NOT AND SWAP1 SSTORE JUMP JUMPDEST PUSH2 0x2D5B JUMP JUMPDEST PUSH1 0x40 MLOAD PUSH3 0x461BCD PUSH1 0xE5 SHL DUP2 MSTORE PUSH1 0x20 PUSH1 0x4 DUP3 ADD MSTORE PUSH1 0x13 PUSH1 0x24 DUP3 ADD MSTORE PUSH19 0x2737BA103130BA31B4103932B8BAB2B9BA32B9 PUSH1 0x69 SHL PUSH1 0x44 DUP3 ADD MSTORE PUSH1 0x64 SWAP1 REVERT JUMPDEST POP PUSH1 0x14 SLOAD DUP2 GT ISZERO PUSH2 0x12EC JUMP JUMPDEST CALLVALUE PUSH2 0x41B JUMPI PUSH2 0x13C9 CALLDATASIZE PUSH2 0xF33 JUMP JUMPDEST POP POP PUSH1 0x6 SLOAD TIMESTAMP SUB TIMESTAMP DUP2 GT PUSH2 0x516 JUMPI PUSH1 0x7 SLOAD LT PUSH1 0x40 MLOAD SWAP1 PUSH2 0x13E8 DUP3 PUSH2 0x318 JUMP JUMPDEST PUSH1 0x0 DUP3 MSTORE PUSH2 0x6DE PUSH1 0x40 MLOAD SWAP3 DUP4 SWAP3 DUP4 MSTORE PUSH1 0x40 PUSH1 0x20 DUP5 ADD MSTORE PUSH1 0x40 DUP4 ADD SWAP1 PUSH2 0x58C JUMP JUMPDEST CALLVALUE PUSH2 0x41B JUMPI PUSH1 0x20 CALLDATASIZE PUSH1 0x3 NOT ADD SLT PUSH2 0x41B JUMPI PUSH2 0x142E PUSH1 0x1 DUP1 PUSH1 0xA0 SHL SUB PUSH1 0x10 SLOAD AND CALLER EQ PUSH2 0x1A88 JUMP JUMPDEST PUSH1 0x4 CALLDATALOAD PUSH1 0x7 SSTORE STOP JUMPDEST CALLVALUE PUSH2 0x41B JUMPI PUSH1 0x0 DUP1 PUSH1 0x3 NOT CALLDATASIZE ADD SLT PUSH2 0x14F2 JUMPI PUSH1 0x1 SLOAD PUSH1 0x1 PUSH1 0x1 PUSH1 0xA0 SHL SUB SWAP1 DUP2 AND CALLER SUB PUSH2 0x14B4 JUMPI DUP2 SLOAD PUSH1 0x1 PUSH1 0x1 PUSH1 0xA0 SHL SUB AND PUSH1 0x0 DUP1 SLOAD PUSH1 0x1 PUSH1 0x1 PUSH1 0xA0 SHL SUB NOT AND CALLER OR SWAP1 SSTORE SWAP1 PUSH1 0x1 DUP1 SLOAD PUSH1 0x1 PUSH1 0x1 PUSH1 0xA0 SHL SUB NOT AND SWAP1 SSTORE CALLER SWAP2 AND PUSH32 0x8BE0079C531659141344CD1FD0A4F28419497F9722A3DAAFE3B4186F6B6457E0 DUP4 DUP1 LOG3 DUP1 RETURN JUMPDEST PUSH1 0x40 MLOAD PUSH3 0x461BCD PUSH1 0xE5 SHL DUP2 MSTORE PUSH1 0x20 PUSH1 0x4 DUP3 ADD MSTORE PUSH1 0x16 PUSH1 0x24 DUP3 ADD MSTORE PUSH22 0x26BAB9BA10313290383937B837B9B2B21037BBB732B9 PUSH1 0x51 SHL PUSH1 0x44 DUP3 ADD MSTORE PUSH1 0x64 SWAP1 REVERT JUMPDEST DUP1 REVERT JUMPDEST SWAP1 DUP2 MLOAD DUP1 DUP3 MSTORE PUSH1 0x20 DUP1 DUP1 SWAP4 ADD SWAP4 ADD SWAP2 PUSH1 0x0 JUMPDEST DUP3 DUP2 LT PUSH2 0x1515 JUMPI POP POP POP POP SWAP1 JUMP JUMPDEST DUP4 MLOAD DUP6 MSTORE SWAP4 DUP2 ADD SWAP4 SWAP3 DUP2 ADD SWAP3 PUSH1 0x1 ADD PUSH2 0x1507 JUMP JUMPDEST SWAP5 SWAP2 SWAP7 SWAP6 SWAP3 PUSH2 0x1543 PUSH1 0xA0 SWAP6 SWAP3 PUSH1 0xC0 DUP9 MSTORE PUSH1 0xC0 DUP9 ADD SWAP1 PUSH2 0x14F5 JUMP JUMPDEST SWAP8 PUSH1 0x1 DUP1 DUP8 SHL SUB AND PUSH1 0x20 DUP8 ADD MSTORE PUSH1 0x40 DUP7 ADD MSTORE PUSH1 0x60 DUP6 ADD MSTORE PUSH1 0x80 DUP5 ADD MSTORE ISZERO ISZERO SWAP2 ADD MSTORE JUMP JUMPDEST CALLVALUE PUSH2 0x41B JUMPI PUSH1 0x20 DUP1 PUSH1 0x3 NOT CALLDATASIZE ADD SLT PUSH2 0x41B JUMPI PUSH1 0x4 CALLDATALOAD DUP1 ISZERO ISZERO DUP1 PUSH2 0x161D JUMPI JUMPDEST PUSH2 0x158D SWAP1 PUSH2 0x1AC1 JUMP JUMPDEST PUSH1 0x0 MSTORE PUSH1 0x11 PUSH1 0x20 MSTORE PUSH1 0x40 PUSH1 0x0 KECCAK256 SWAP1 PUSH1 0x1 DUP1 DUP1 PUSH1 0xA0 SHL SUB PUSH1 0x1 DUP5 ADD SLOAD AND SWAP2 PUSH1 0x2 DUP5 ADD SLOAD PUSH1 0x3 DUP6 ADD SLOAD PUSH1 0x4 DUP7 ADD SLOAD SWAP2 PUSH1 0xFF PUSH1 0xC DUP9 ADD SLOAD AND SWAP4 PUSH1 0x40 MLOAD SWAP6 DUP7 PUSH1 0x20 DUP11 SLOAD SWAP2 DUP3 DUP2 MSTORE ADD SWAP10 PUSH1 0x0 MSTORE PUSH1 0x20 PUSH1 0x0 KECCAK256 SWAP3 PUSH1 0x0 SWAP1 JUMPDEST DUP3 DUP3 LT PUSH2 0x1608 JUMPI POP POP POP POP POP PUSH2 0x15FC DUP6 PUSH2 0x6DE SWAP7 SWAP8 SWAP9 SUB DUP8 PUSH2 0x34E JUMP JUMPDEST PUSH1 0x40 MLOAD SWAP7 DUP8 SWAP7 DUP8 PUSH2 0x1529 JUMP JUMPDEST DUP5 SLOAD DUP13 MSTORE SWAP11 DUP12 ADD SWAP11 SWAP4 DUP4 ADD SWAP4 SWAP1 DUP4 ADD SWAP1 PUSH2 0x15DF JUMP JUMPDEST POP PUSH1 0x14 SLOAD DUP2 GT ISZERO PUSH2 0x1584 JUMP JUMPDEST CALLVALUE PUSH2 0x41B JUMPI PUSH1 0x0 CALLDATASIZE PUSH1 0x3 NOT ADD SLT PUSH2 0x41B JUMPI PUSH1 0x0 SLOAD PUSH1 0x40 MLOAD PUSH1 0x1 PUSH1 0x1 PUSH1 0xA0 SHL SUB SWAP1 SWAP2 AND DUP2 MSTORE PUSH1 0x20 SWAP1 RETURN JUMPDEST CALLVALUE PUSH2 0x41B JUMPI PUSH1 0x20 CALLDATASIZE PUSH1 0x3 NOT ADD SLT PUSH2 0x41B JUMPI PUSH2 0x166B PUSH2 0xE93 JUMP JUMPDEST PUSH1 0x0 SLOAD PUSH1 0x1 PUSH1 0x1 PUSH1 0xA0 SHL SUB SWAP1 DUP2 AND SWAP1 CALLER DUP3 EQ ISZERO DUP1 PUSH2 0x16B9 JUMPI JUMPDEST PUSH2 0x1691 JUMPI PUSH2 0x911 DUP4 PUSH2 0x2386 JUMP JUMPDEST PUSH1 0x64 SWAP3 POP PUSH1 0x2 SLOAD AND PUSH1 0x40 MLOAD SWAP2 PUSH4 0x61DB9C1 PUSH1 0xE0 SHL DUP4 MSTORE CALLER PUSH1 0x4 DUP5 ADD MSTORE PUSH1 0x24 DUP4 ADD MSTORE PUSH1 0x44 DUP3 ADD MSTORE REVERT JUMPDEST POP DUP1 PUSH1 0x2 SLOAD AND CALLER EQ ISZERO PUSH2 0x1684 JUMP JUMPDEST CALLVALUE PUSH2 0x41B JUMPI PUSH1 0x0 CALLDATASIZE PUSH1 0x3 NOT ADD SLT PUSH2 0x41B JUMPI PUSH1 0x20 PUSH1 0x5 SLOAD PUSH1 0x40 MLOAD SWAP1 DUP2 MSTORE RETURN JUMPDEST CALLVALUE PUSH2 0x41B JUMPI PUSH1 0x0 CALLDATASIZE PUSH1 0x3 NOT ADD SLT PUSH2 0x41B JUMPI PUSH1 0x2 SLOAD PUSH1 0x40 MLOAD PUSH1 0x1 PUSH1 0x1 PUSH1 0xA0 SHL SUB SWAP1 SWAP2 AND DUP2 MSTORE PUSH1 0x20 SWAP1 RETURN JUMPDEST CALLVALUE PUSH2 0x41B JUMPI PUSH1 0x60 CALLDATASIZE PUSH1 0x3 NOT ADD SLT PUSH2 0x41B JUMPI PUSH1 0x44 CALLDATALOAD PUSH4 0xFFFFFFFF DUP2 AND DUP1 SWAP2 SUB PUSH2 0x41B JUMPI PUSH2 0x1745 PUSH1 0x1 DUP1 PUSH1 0xA0 SHL SUB PUSH1 0x10 SLOAD AND CALLER EQ PUSH2 0x1A88 JUMP JUMPDEST PUSH1 0x4 CALLDATALOAD PUSH1 0x8 SSTORE PUSH1 0x24 CALLDATALOAD PUSH1 0x9 SSTORE PUSH4 0xFFFFFFFF NOT PUSH1 0xA SLOAD AND OR PUSH1 0xA SSTORE PUSH1 0x0 DUP1 RETURN JUMPDEST CALLVALUE PUSH2 0x41B JUMPI PUSH1 0x0 CALLDATASIZE PUSH1 0x3 NOT ADD SLT PUSH2 0x41B JUMPI PUSH1 0x10 SLOAD PUSH1 0x40 MLOAD PUSH1 0x1 PUSH1 0x1 PUSH1 0xA0 SHL SUB SWAP1 SWAP2 AND DUP2 MSTORE PUSH1 0x20 SWAP1 RETURN JUMPDEST CALLVALUE PUSH2 0x41B JUMPI PUSH1 0x40 CALLDATASIZE PUSH1 0x3 NOT ADD SLT PUSH2 0x41B JUMPI PUSH1 0x1 PUSH1 0x1 PUSH1 0x40 SHL SUB PUSH1 0x4 CALLDATALOAD DUP2 DUP2 GT PUSH2 0x41B JUMPI PUSH2 0x17BE SWAP1 CALLDATASIZE SWAP1 PUSH1 0x4 ADD PUSH2 0x7F3 JUMP JUMPDEST SWAP2 PUSH1 0x24 CALLDATALOAD SWAP1 DUP2 GT PUSH2 0x41B JUMPI PUSH2 0x17D7 SWAP1 CALLDATASIZE SWAP1 PUSH1 0x4 ADD PUSH2 0x7F3 JUMP JUMPDEST SWAP1 CALLER PUSH1 0x0 MSTORE PUSH1 0xF PUSH1 0x20 MSTORE PUSH1 0xFF PUSH1 0x40 PUSH1 0x0 KECCAK256 SLOAD AND DUP1 ISZERO PUSH2 0x1839 JUMPI JUMPDEST ISZERO PUSH2 0x1803 JUMPI PUSH2 0x6DE SWAP4 PUSH2 0x1292 SWAP4 PUSH2 0x267A JUMP JUMPDEST PUSH1 0x40 MLOAD PUSH3 0x461BCD PUSH1 0xE5 SHL DUP2 MSTORE PUSH1 0x20 PUSH1 0x4 DUP3 ADD MSTORE PUSH1 0xE PUSH1 0x24 DUP3 ADD MSTORE PUSH14 0x139BDD08185D5D1A1BDC9A5E9959 PUSH1 0x92 SHL PUSH1 0x44 DUP3 ADD MSTORE PUSH1 0x64 SWAP1 REVERT JUMPDEST POP PUSH1 0x10 SLOAD PUSH1 0x1 PUSH1 0x1 PUSH1 0xA0 SHL SUB AND CALLER EQ PUSH2 0x17F1 JUMP JUMPDEST CALLVALUE PUSH2 0x41B JUMPI PUSH1 0x20 CALLDATASIZE PUSH1 0x3 NOT ADD SLT PUSH2 0x41B JUMPI PUSH1 0x4 CALLDATALOAD PUSH1 0x0 MSTORE PUSH1 0xE PUSH1 0x20 MSTORE PUSH1 0x20 PUSH1 0xFF PUSH1 0x40 PUSH1 0x0 KECCAK256 SLOAD AND PUSH1 0x40 MLOAD SWAP1 ISZERO ISZERO DUP2 MSTORE RETURN JUMPDEST CALLVALUE PUSH2 0x41B JUMPI PUSH1 0x0 CALLDATASIZE PUSH1 0x3 NOT ADD SLT PUSH2 0x41B JUMPI PUSH1 0x20 PUSH1 0x8 SLOAD PUSH1 0x40 MLOAD SWAP1 DUP2 MSTORE RETURN JUMPDEST CALLVALUE PUSH2 0x41B JUMPI PUSH1 0x0 CALLDATASIZE PUSH1 0x3 NOT ADD SLT PUSH2 0x41B JUMPI PUSH1 0x20 PUSH1 0x16 SLOAD PUSH1 0x40 MLOAD SWAP1 DUP2 MSTORE RETURN JUMPDEST CALLVALUE PUSH2 0x41B JUMPI PUSH1 0x20 CALLDATASIZE PUSH1 0x3 NOT ADD SLT PUSH2 0x41B JUMPI PUSH2 0x18D3 PUSH2 0xE93 JUMP JUMPDEST PUSH1 0x0 SLOAD PUSH1 0x1 PUSH1 0x1 PUSH1 0xA0 SHL SUB SWAP1 DUP2 AND SWAP2 CALLER DUP4 SWAP1 SUB PUSH2 0x1971 JUMPI AND SWAP1 CALLER DUP3 EQ PUSH2 0x192C JUMPI PUSH1 0x1 DUP1 SLOAD PUSH1 0x1 PUSH1 0x1 PUSH1 0xA0 SHL SUB NOT AND DUP4 OR SWAP1 SSTORE PUSH32 0xED8889F560326EB138920D842192F0EB3DD22B4F139C87A2C57538E05BAE1278 PUSH1 0x0 DUP1 LOG3 STOP JUMPDEST PUSH1 0x40 MLOAD PUSH3 0x461BCD PUSH1 0xE5 SHL DUP2 MSTORE PUSH1 0x20 PUSH1 0x4 DUP3 ADD MSTORE PUSH1 0x17 PUSH1 0x24 DUP3 ADD MSTORE PUSH32 0x43616E6E6F74207472616E7366657220746F2073656C66000000000000000000 PUSH1 0x44 DUP3 ADD MSTORE PUSH1 0x64 SWAP1 REVERT JUMPDEST PUSH1 0x40 MLOAD PUSH3 0x461BCD PUSH1 0xE5 SHL DUP2 MSTORE PUSH1 0x20 PUSH1 0x4 DUP3 ADD MSTORE PUSH1 0x16 PUSH1 0x24 DUP3 ADD MSTORE PUSH22 0x27B7363C9031B0B63630B1363290313C9037BBB732B9 PUSH1 0x51 SHL PUSH1 0x44 DUP3 ADD MSTORE PUSH1 0x64 SWAP1 REVERT JUMPDEST PUSH2 0x37C SWAP1 SWAP3 SWAP2 SWAP3 PUSH1 0xE0 DUP2 ADD SWAP4 PUSH1 0xC0 DUP1 SWAP2 DUP1 MLOAD DUP5 MSTORE PUSH1 0x20 DUP2 ADD MLOAD PUSH1 0x20 DUP6 ADD MSTORE PUSH1 0x40 DUP2 ADD MLOAD PUSH1 0x40 DUP6 ADD MSTORE PUSH1 0x60 DUP2 ADD MLOAD PUSH1 0x60 DUP6 ADD MSTORE PUSH1 0x80 DUP2 ADD MLOAD PUSH1 0x80 DUP6 ADD MSTORE PUSH1 0xA0 DUP2 ADD MLOAD PUSH1 0xA0 DUP6 ADD MSTORE ADD MLOAD ISZERO ISZERO SWAP2 ADD MSTORE JUMP JUMPDEST CALLVALUE PUSH2 0x41B JUMPI PUSH1 0x20 CALLDATASIZE PUSH1 0x3 NOT ADD SLT PUSH2 0x41B JUMPI PUSH2 0x6DE PUSH2 0x1A70 PUSH1 0x5 PUSH1 0x40 PUSH1 0xC0 PUSH1 0x4 CALLDATALOAD DUP3 MLOAD PUSH2 0x1A29 DUP2 PUSH2 0x2DD JUMP JUMPDEST PUSH1 0x0 SWAP3 DUP2 DUP5 DUP1 SWAP4 MSTORE DUP3 PUSH1 0x20 DUP3 ADD MSTORE DUP3 DUP7 DUP3 ADD MSTORE DUP3 PUSH1 0x60 DUP3 ADD MSTORE DUP3 PUSH1 0x80 DUP3 ADD MSTORE DUP3 PUSH1 0xA0 DUP3 ADD MSTORE ADD MSTORE DUP1 ISZERO ISZERO DUP1 PUSH2 0x1A7C JUMPI JUMPDEST PUSH2 0x1A62 SWAP1 PUSH2 0x1AC1 JUMP JUMPDEST DUP2 MSTORE PUSH1 0x11 PUSH1 0x20 MSTORE KECCAK256 ADD PUSH2 0xA8F JUMP JUMPDEST PUSH1 0x40 MLOAD SWAP2 DUP3 SWAP2 DUP3 PUSH2 0x19AF JUMP JUMPDEST POP PUSH1 0x14 SLOAD DUP2 GT ISZERO PUSH2 0x1A59 JUMP JUMPDEST ISZERO PUSH2 0x1A8F JUMPI JUMP JUMPDEST PUSH1 0x40 MLOAD PUSH3 0x461BCD PUSH1 0xE5 SHL DUP2 MSTORE PUSH1 0x20 PUSH1 0x4 DUP3 ADD MSTORE PUSH1 0xA PUSH1 0x24 DUP3 ADD MSTORE PUSH10 0x27B7363C9037BBB732B9 PUSH1 0xB1 SHL PUSH1 0x44 DUP3 ADD MSTORE PUSH1 0x64 SWAP1 REVERT JUMPDEST ISZERO PUSH2 0x1AC8 JUMPI JUMP JUMPDEST PUSH1 0x40 MLOAD PUSH3 0x461BCD PUSH1 0xE5 SHL DUP2 MSTORE PUSH1 0x20 PUSH1 0x4 DUP3 ADD MSTORE PUSH1 0x10 PUSH1 0x24 DUP3 ADD MSTORE PUSH16 0x125B9D985B1A590818985D18DA081251 PUSH1 0x82 SHL PUSH1 0x44 DUP3 ADD MSTORE PUSH1 0x64 SWAP1 REVERT JUMPDEST PUSH4 0x4E487B71 PUSH1 0xE0 SHL PUSH1 0x0 MSTORE PUSH1 0x11 PUSH1 0x4 MSTORE PUSH1 0x24 PUSH1 0x0 REVERT JUMPDEST PUSH1 0x0 NOT DUP2 ADD SWAP2 SWAP1 DUP3 GT PUSH2 0x516 JUMPI JUMP JUMPDEST PUSH1 0x1F NOT DUP2 ADD SWAP2 SWAP1 DUP3 GT PUSH2 0x516 JUMPI JUMP JUMPDEST ISZERO PUSH2 0x1B3B JUMPI JUMP JUMPDEST PUSH1 0x40 MLOAD PUSH3 0x461BCD PUSH1 0xE5 SHL DUP2 MSTORE PUSH1 0x20 PUSH1 0x4 DUP3 ADD MSTORE PUSH1 0x11 PUSH1 0x24 DUP3 ADD MSTORE PUSH17 0x155C1AD9595C081B9BDD081B9959591959 PUSH1 0x7A SHL PUSH1 0x44 DUP3 ADD MSTORE PUSH1 0x64 SWAP1 REVERT JUMPDEST SWAP1 DUP2 PUSH1 0x20 SWAP2 SUB SLT PUSH2 0x41B JUMPI MLOAD SWAP1 JUMP JUMPDEST PUSH1 0x40 MLOAD RETURNDATASIZE PUSH1 0x0 DUP3 RETURNDATACOPY RETURNDATASIZE SWAP1 REVERT JUMPDEST PUSH1 0x0 NOT DUP2 EQ PUSH2 0x516 JUMPI PUSH1 0x1 ADD SWAP1 JUMP JUMPDEST DUP2 DUP2 LT PUSH2 0x1BA9 JUMPI POP POP JUMP JUMPDEST PUSH1 0x0 DUP2 SSTORE PUSH1 0x1 ADD PUSH2 0x1B9E JUMP JUMPDEST SWAP2 SWAP1 PUSH1 0x1F DUP2 GT PUSH2 0x1BC4 JUMPI POP POP POP JUMP JUMPDEST PUSH2 0x37C SWAP3 PUSH1 0x0 MSTORE PUSH1 0x20 PUSH1 0x0 KECCAK256 SWAP1 PUSH1 0x20 PUSH1 0x1F DUP5 ADD PUSH1 0x5 SHR DUP4 ADD SWAP4 LT PUSH2 0x1BF0 JUMPI JUMPDEST PUSH1 0x1F ADD PUSH1 0x5 SHR ADD SWAP1 PUSH2 0x1B9E JUMP JUMPDEST SWAP1 SWAP2 POP DUP2 SWAP1 PUSH2 0x1BE3 JUMP JUMPDEST DUP2 MLOAD DUP2 SLOAD PUSH1 0x1 PUSH1 0x1 PUSH1 0xA0 SHL SUB NOT AND PUSH1 0x1 PUSH1 0x1 PUSH1 0xA0 SHL SUB SWAP2 SWAP1 SWAP2 AND OR DUP2 SSTORE PUSH1 0x1 PUSH1 0x20 SWAP1 PUSH1 0x20 DUP5 ADD MLOAD PUSH1 0x1 DUP5 ADD SSTORE PUSH1 0x2 DUP4 ADD SWAP2 PUSH1 0x40 DUP6 ADD MLOAD DUP1 MLOAD SWAP3 PUSH1 0x1 PUSH1 0x1 PUSH1 0x40 SHL SUB DUP5 GT PUSH2 0x2F8 JUMPI PUSH2 0x1C55 DUP5 PUSH2 0x1C4F DUP8 SLOAD PUSH2 0xBA6 JUMP JUMPDEST DUP8 PUSH2 0x1BB5 JUMP JUMPDEST PUSH1 0x20 SWAP3 PUSH1 0x1F DUP6 GT PUSH1 0x1 EQ PUSH2 0x1CF9 JUMPI POP POP SWAP4 PUSH2 0x1CD8 SWAP4 PUSH2 0x1C96 DUP5 PUSH1 0xC0 SWAP6 PUSH1 0x5 SWAP6 PUSH2 0x37C SWAP11 SWAP10 PUSH1 0x0 SWAP3 PUSH2 0x1CEE JUMPI JUMPDEST POP POP DUP2 PUSH1 0x1 SHL SWAP2 PUSH1 0x0 NOT SWAP1 PUSH1 0x3 SHL SHR NOT AND OR SWAP1 JUMP JUMPDEST SWAP1 SSTORE JUMPDEST PUSH1 0x60 DUP6 ADD MLOAD PUSH1 0x3 DUP3 ADD SSTORE PUSH1 0x80 DUP6 ADD MLOAD PUSH1 0x4 DUP3 ADD SSTORE ADD SWAP3 PUSH2 0x1CD1 PUSH2 0x1CBF PUSH1 0xA0 DUP4 ADD MLOAD ISZERO ISZERO SWAP1 JUMP JUMPDEST DUP6 SWAP1 PUSH1 0xFF DUP1 NOT DUP4 SLOAD AND SWAP2 ISZERO ISZERO AND OR SWAP1 SSTORE JUMP JUMPDEST ADD MLOAD ISZERO ISZERO SWAP1 JUMP JUMPDEST DUP2 SLOAD PUSH2 0xFF00 NOT AND SWAP1 ISZERO ISZERO PUSH1 0x8 SHL PUSH2 0xFF00 AND OR SWAP1 SSTORE JUMP JUMPDEST ADD MLOAD SWAP1 POP CODESIZE DUP1 PUSH2 0x1C81 JUMP JUMPDEST SWAP3 SWAP2 SWAP1 PUSH1 0x1F NOT DUP6 AND SWAP1 PUSH2 0x1D11 DUP8 PUSH1 0x0 MSTORE PUSH1 0x20 PUSH1 0x0 KECCAK256 SWAP1 JUMP JUMPDEST SWAP5 PUSH1 0x0 SWAP2 JUMPDEST DUP4 DUP4 LT PUSH2 0x1D61 JUMPI POP POP POP DUP5 PUSH1 0x5 SWAP5 PUSH2 0x37C SWAP10 SWAP9 SWAP5 PUSH2 0x1CD8 SWAP9 SWAP5 PUSH1 0xC0 SWAP9 PUSH1 0x1 SWAP6 LT PUSH2 0x1D48 JUMPI JUMPDEST POP POP POP DUP2 SHL ADD SWAP1 SSTORE PUSH2 0x1C99 JUMP JUMPDEST ADD MLOAD PUSH1 0x0 NOT PUSH1 0xF8 DUP5 PUSH1 0x3 SHL AND SHR NOT AND SWAP1 SSTORE CODESIZE DUP1 DUP1 PUSH2 0x1D3B JUMP JUMPDEST DUP5 DUP7 ADD MLOAD DUP8 SSTORE SWAP6 DUP7 ADD SWAP6 SWAP5 DUP2 ADD SWAP5 SWAP2 DUP2 ADD SWAP2 PUSH2 0x1D16 JUMP JUMPDEST ISZERO PUSH2 0x1D7F JUMPI JUMP JUMPDEST PUSH1 0x40 MLOAD PUSH3 0x461BCD PUSH1 0xE5 SHL DUP2 MSTORE PUSH1 0x20 PUSH1 0x4 DUP3 ADD MSTORE PUSH1 0x13 PUSH1 0x24 DUP3 ADD MSTORE PUSH19 0x125B9D985B1A59081C1C9BDBD98818DBDD5B9D PUSH1 0x6A SHL PUSH1 0x44 DUP3 ADD MSTORE PUSH1 0x64 SWAP1 REVERT JUMPDEST DUP1 MLOAD ISZERO PUSH2 0x1DC7 JUMPI PUSH1 0x20 ADD SWAP1 JUMP JUMPDEST PUSH2 0xD7A JUMP JUMPDEST DUP1 MLOAD PUSH1 0x1 LT ISZERO PUSH2 0x1DC7 JUMPI PUSH1 0x40 ADD SWAP1 JUMP JUMPDEST DUP1 MLOAD PUSH1 0x2 LT ISZERO PUSH2 0x1DC7 JUMPI PUSH1 0x60 ADD SWAP1 JUMP JUMPDEST DUP1 MLOAD DUP3 LT ISZERO PUSH2 0x1DC7 JUMPI PUSH1 0x20 SWAP2 PUSH1 0x5 SHL ADD ADD SWAP1 JUMP JUMPDEST ISZERO PUSH2 0x1E07 JUMPI JUMP JUMPDEST PUSH1 0x40 MLOAD PUSH3 0x461BCD PUSH1 0xE5 SHL DUP2 MSTORE PUSH1 0x20 PUSH1 0x4 DUP3 ADD MSTORE PUSH1 0x13 PUSH1 0x24 DUP3 ADD MSTORE PUSH19 0x141C9BDBD9881B9BDD0818DBDB5C1B195D1959 PUSH1 0x6A SHL PUSH1 0x44 DUP3 ADD MSTORE PUSH1 0x64 SWAP1 REVERT JUMPDEST ISZERO PUSH2 0x1E49 JUMPI JUMP JUMPDEST PUSH1 0x40 MLOAD PUSH3 0x461BCD PUSH1 0xE5 SHL DUP2 MSTORE PUSH1 0x20 PUSH1 0x4 DUP3 ADD MSTORE PUSH1 0xD PUSH1 0x24 DUP3 ADD MSTORE PUSH13 0x24B73B30B634B210383937B7B3 PUSH1 0x99 SHL PUSH1 0x44 DUP3 ADD MSTORE PUSH1 0x64 SWAP1 REVERT JUMPDEST ISZERO PUSH2 0x1E85 JUMPI JUMP JUMPDEST PUSH1 0x40 MLOAD PUSH3 0x461BCD PUSH1 0xE5 SHL DUP2 MSTORE PUSH1 0x20 PUSH1 0x4 DUP3 ADD MSTORE PUSH1 0x16 PUSH1 0x24 DUP3 ADD MSTORE PUSH22 0xA0E4DEDECC40C2D8E4CAC2C8F240D2DC40C4C2E8C6D PUSH1 0x53 SHL PUSH1 0x44 DUP3 ADD MSTORE PUSH1 0x64 SWAP1 REVERT JUMPDEST SWAP1 DUP2 PUSH1 0x1 SHL SWAP2 DUP1 DUP4 DIV PUSH1 0x2 EQ SWAP1 ISZERO OR ISZERO PUSH2 0x516 JUMPI JUMP JUMPDEST DUP2 MLOAD SWAP2 PUSH1 0x1 PUSH1 0x1 PUSH1 0x40 SHL SUB DUP4 GT PUSH2 0x2F8 JUMPI PUSH1 0x1 PUSH1 0x40 SHL DUP4 GT PUSH2 0x2F8 JUMPI DUP2 SLOAD DUP4 DUP4 SSTORE DUP1 DUP5 LT PUSH2 0x1F35 JUMPI JUMPDEST POP PUSH1 0x20 DUP1 SWAP2 ADD SWAP2 PUSH1 0x0 MSTORE PUSH1 0x20 PUSH1 0x0 KECCAK256 SWAP1 PUSH1 0x0 JUMPDEST DUP5 DUP2 LT PUSH2 0x1F23 JUMPI POP POP POP POP POP JUMP JUMPDEST DUP4 MLOAD DUP4 DUP3 ADD SSTORE SWAP3 DUP2 ADD SWAP3 PUSH1 0x1 ADD PUSH2 0x1F15 JUMP JUMPDEST PUSH2 0x1F4D SWAP1 DUP4 PUSH1 0x0 MSTORE DUP5 PUSH1 0x20 PUSH1 0x0 KECCAK256 SWAP2 DUP3 ADD SWAP2 ADD PUSH2 0x1B9E JUMP JUMPDEST CODESIZE PUSH2 0x1F02 JUMP JUMPDEST SWAP3 SWAP1 DUP4 MSTORE PUSH1 0x20 SWAP2 PUSH1 0x20 DUP5 ADD MSTORE PUSH1 0x40 SWAP3 PUSH1 0x0 SWAP4 DUP3 SLOAD PUSH2 0x1F70 DUP2 PUSH2 0xBA6 JUMP JUMPDEST SWAP4 PUSH1 0x1 SWAP2 DUP1 DUP4 AND SWAP1 DUP2 ISZERO PUSH2 0x1FD4 JUMPI POP PUSH1 0x1 EQ PUSH2 0x1F90 JUMPI JUMPDEST POP POP POP POP POP POP SWAP1 JUMP JUMPDEST SWAP1 SWAP2 SWAP3 SWAP4 SWAP5 SWAP7 SWAP6 POP PUSH1 0x0 MSTORE PUSH1 0x20 PUSH1 0x0 KECCAK256 PUSH1 0x0 SWAP1 JUMPDEST DUP6 DUP3 LT PUSH2 0x1FC1 JUMPI POP POP POP POP PUSH1 0x40 SWAP3 SWAP4 POP ADD ADD CODESIZE DUP1 DUP1 DUP1 DUP1 DUP1 PUSH2 0x1F87 JUMP JUMPDEST DUP1 SLOAD DUP6 DUP4 ADD DUP6 ADD MSTORE SWAP1 DUP8 ADD SWAP1 DUP3 ADD PUSH2 0x1FA4 JUMP JUMPDEST SWAP5 SWAP7 POP POP POP POP POP PUSH1 0x40 SWAP4 POP PUSH1 0xFF NOT AND DUP4 DUP4 ADD MSTORE DUP1 ISZERO ISZERO MUL ADD ADD CODESIZE DUP1 DUP1 DUP1 DUP1 DUP1 PUSH2 0x1F87 JUMP JUMPDEST SWAP1 PUSH1 0x0 JUMPDEST PUSH1 0x4 DUP2 LT PUSH2 0x2009 JUMPI POP POP POP JUMP JUMPDEST PUSH1 0x1 SWAP1 PUSH1 0x20 DUP4 MLOAD SWAP4 ADD SWAP3 DUP2 DUP6 ADD SSTORE ADD PUSH2 0x1FFC JUMP JUMPDEST SWAP1 PUSH1 0x20 PUSH2 0x43B SWAP3 DUP2 DUP2 MSTORE ADD SWAP1 PUSH2 0x14F5 JUMP JUMPDEST PUSH2 0x2046 DUP2 MLOAD PUSH1 0x16 SLOAD DUP2 LT ISZERO SWAP1 DUP2 PUSH2 0x22E1 JUMPI JUMPDEST POP PUSH2 0x1D78 JUMP JUMPDEST PUSH1 0x0 JUMPDEST DUP2 MLOAD DUP2 LT ISZERO PUSH2 0x20DA JUMPI PUSH1 0x1 SWAP1 PUSH2 0x20AC PUSH2 0x20A7 PUSH1 0x5 PUSH2 0x208F PUSH2 0x208A DUP3 PUSH2 0x2082 PUSH2 0x2071 DUP9 DUP12 PUSH2 0x1DEC JUMP JUMPDEST MLOAD PUSH1 0x0 MSTORE PUSH1 0x3 PUSH1 0x20 MSTORE PUSH1 0x40 PUSH1 0x0 KECCAK256 SWAP1 JUMP JUMPDEST ADD SLOAD PUSH1 0xFF AND SWAP1 JUMP JUMPDEST PUSH2 0x1E00 JUMP JUMPDEST PUSH2 0x209C PUSH2 0x2071 DUP6 DUP9 PUSH2 0x1DEC JUMP JUMPDEST ADD SLOAD PUSH1 0x8 SHR PUSH1 0xFF AND SWAP1 JUMP JUMPDEST PUSH2 0x1E42 JUMP JUMPDEST PUSH2 0x20D4 PUSH2 0x20CD PUSH2 0x20BC DUP4 DUP7 PUSH2 0x1DEC JUMP JUMPDEST MLOAD PUSH1 0x0 MSTORE PUSH1 0x13 PUSH1 0x20 MSTORE PUSH1 0x40 PUSH1 0x0 KECCAK256 SWAP1 JUMP JUMPDEST SLOAD ISZERO PUSH2 0x1E7E JUMP JUMPDEST ADD PUSH2 0x2049 JUMP JUMPDEST POP PUSH2 0x20E6 PUSH1 0x14 SLOAD PUSH2 0x1B8F JUMP JUMPDEST SWAP1 PUSH2 0x20F0 DUP3 PUSH1 0x14 SSTORE JUMP JUMPDEST PUSH2 0x2104 DUP3 PUSH1 0x0 MSTORE PUSH1 0x11 PUSH1 0x20 MSTORE PUSH1 0x40 PUSH1 0x0 KECCAK256 SWAP1 JUMP JUMPDEST PUSH2 0x210E DUP3 DUP3 PUSH2 0x1ED9 JUMP JUMPDEST PUSH1 0x1 DUP2 DUP2 ADD DUP1 SLOAD PUSH1 0x1 PUSH1 0x1 PUSH1 0xA0 SHL SUB NOT AND CALLER OR SWAP1 SSTORE SWAP1 DUP2 PUSH1 0x2 SWAP2 TIMESTAMP PUSH1 0x2 DUP3 ADD SSTORE PUSH1 0x3 SWAP1 PUSH1 0x0 PUSH1 0x3 DUP3 ADD SSTORE PUSH2 0x2149 PUSH1 0xC DUP3 ADD PUSH1 0xFF NOT DUP2 SLOAD AND SWAP1 SSTORE JUMP JUMPDEST PUSH1 0x0 SWAP4 PUSH1 0xE PUSH1 0xD DUP4 ADD SWAP3 ADD SWAP4 JUMPDEST PUSH2 0x219E JUMPI JUMPDEST POP POP POP POP POP POP DUP2 PUSH32 0x5D74F4C80F98633A9CE8E3F825E7019210BFB85159F33A7FCEB58FA9CB8CA621 PUSH1 0x40 MLOAD DUP1 PUSH2 0x2192 CALLER SWAP6 DUP3 PUSH2 0x201D JUMP JUMPDEST SUB SWAP1 LOG3 PUSH2 0x43B DUP2 PUSH2 0x2D5B JUMP JUMPDEST DUP7 MLOAD DUP6 LT ISZERO PUSH2 0x22DC JUMPI DUP6 DUP6 PUSH2 0x22D5 PUSH2 0x21B7 DUP4 SWAP9 DUP12 PUSH2 0x1DEC JUMP JUMPDEST MLOAD DUP12 PUSH2 0x21CD DUP3 PUSH1 0x0 MSTORE PUSH1 0x13 PUSH1 0x20 MSTORE PUSH1 0x40 PUSH1 0x0 KECCAK256 SWAP1 JUMP JUMPDEST SSTORE PUSH1 0x4 SWAP1 DUP2 PUSH2 0x21E6 DUP3 PUSH1 0x0 MSTORE PUSH1 0x3 PUSH1 0x20 MSTORE PUSH1 0x40 PUSH1 0x0 KECCAK256 SWAP1 JUMP JUMPDEST ADD SLOAD SWAP1 PUSH2 0x22B3 DUP8 PUSH2 0x22AD DUP12 PUSH2 0x2205 DUP6 PUSH1 0x0 MSTORE PUSH1 0x3 PUSH1 0x20 MSTORE PUSH1 0x40 PUSH1 0x0 KECCAK256 SWAP1 JUMP JUMPDEST ADD SLOAD SWAP4 DUP12 PUSH2 0x2260 DUP11 DUP6 PUSH2 0x2222 DUP6 PUSH1 0x0 MSTORE PUSH1 0x3 PUSH1 0x20 MSTORE PUSH1 0x40 PUSH1 0x0 KECCAK256 SWAP1 JUMP JUMPDEST ADD SWAP9 PUSH2 0x223F PUSH2 0x224D PUSH1 0x40 SWAP12 DUP13 MLOAD SWAP3 DUP4 SWAP2 PUSH1 0x20 SWAP14 DUP15 DUP5 ADD SWAP7 DUP8 PUSH2 0x1F53 JUMP JUMPDEST SUB PUSH1 0x1F NOT DUP2 ADD DUP4 MSTORE DUP3 PUSH2 0x34E JUMP JUMPDEST MLOAD SWAP1 KECCAK256 SWAP3 SWAP1 PUSH1 0x0 MSTORE PUSH1 0x20 MSTORE PUSH1 0x40 PUSH1 0x0 KECCAK256 SWAP1 JUMP JUMPDEST SSTORE PUSH2 0x2269 PUSH2 0x3AA JUMP JUMPDEST SWAP7 PUSH2 0x227E DUP3 PUSH1 0x0 MSTORE PUSH1 0x3 PUSH1 0x20 MSTORE PUSH1 0x40 PUSH1 0x0 KECCAK256 SWAP1 JUMP JUMPDEST ADD SLOAD DUP8 MSTORE DUP13 PUSH2 0x2297 DUP3 PUSH1 0x0 MSTORE PUSH1 0x3 PUSH1 0x20 MSTORE PUSH1 0x40 PUSH1 0x0 KECCAK256 SWAP1 JUMP JUMPDEST ADD SLOAD DUP6 DUP9 ADD MSTORE PUSH1 0x0 MSTORE PUSH1 0x3 PUSH1 0x20 MSTORE PUSH1 0x40 PUSH1 0x0 KECCAK256 SWAP1 JUMP JUMPDEST ADD PUSH2 0xC76 JUMP JUMPDEST DUP1 MLOAD SWAP2 ADD KECCAK256 SWAP1 DUP3 ADD MSTORE TIMESTAMP PUSH1 0x60 DUP3 ADD MSTORE PUSH1 0x0 DUP4 DUP2 MSTORE PUSH1 0x20 DUP10 SWAP1 MSTORE PUSH1 0x40 SWAP1 KECCAK256 PUSH2 0x1FF8 JUMP JUMPDEST ADD SWAP5 PUSH2 0x2156 JUMP JUMPDEST PUSH2 0x215B JUMP JUMPDEST SWAP1 POP PUSH1 0x17 SLOAD LT ISZERO CODESIZE PUSH2 0x2040 JUMP JUMPDEST ISZERO PUSH2 0x22F5 JUMPI JUMP JUMPDEST PUSH1 0x40 MLOAD PUSH3 0x461BCD PUSH1 0xE5 SHL DUP2 MSTORE PUSH1 0x20 PUSH1 0x4 DUP3 ADD MSTORE PUSH1 0x1E PUSH1 0x24 DUP3 ADD MSTORE PUSH32 0x50726576696F757320666F6C64696E67206E6F7420636F6D706C657465640000 PUSH1 0x44 DUP3 ADD MSTORE PUSH1 0x64 SWAP1 REVERT JUMPDEST ISZERO PUSH2 0x2341 JUMPI JUMP JUMPDEST PUSH1 0x40 MLOAD PUSH3 0x461BCD PUSH1 0xE5 SHL DUP2 MSTORE PUSH1 0x20 PUSH1 0x4 DUP3 ADD MSTORE PUSH1 0x1B PUSH1 0x24 DUP3 ADD MSTORE PUSH32 0x4D617820726563757273696F6E20646570746820726561636865640000000000 PUSH1 0x44 DUP3 ADD MSTORE PUSH1 0x64 SWAP1 REVERT JUMPDEST PUSH1 0x1 PUSH1 0x1 PUSH1 0xA0 SHL SUB AND DUP1 ISZERO PUSH2 0x23DB JUMPI PUSH1 0x20 DUP2 PUSH32 0xD1A6A14209A385A964D036E404CB5CFB71F4000CDB03C9366292430787261BE6 SWAP3 PUSH12 0xFFFFFFFFFFFFFFFFFFFFFFFF PUSH1 0xA0 SHL PUSH1 0x2 SLOAD AND OR PUSH1 0x2 SSTORE PUSH1 0x40 MLOAD SWAP1 DUP2 MSTORE LOG1 JUMP JUMPDEST PUSH1 0x40 MLOAD PUSH4 0xD92E233D PUSH1 0xE0 SHL DUP2 MSTORE PUSH1 0x4 SWAP1 REVERT JUMPDEST ISZERO PUSH2 0x23F4 JUMPI JUMP JUMPDEST PUSH1 0x40 MLOAD PUSH3 0x461BCD PUSH1 0xE5 SHL DUP2 MSTORE PUSH1 0x20 PUSH1 0x4 DUP3 ADD MSTORE PUSH1 0x14 PUSH1 0x24 DUP3 ADD MSTORE PUSH20 0x496E76616C696420696E70757420617272617973 PUSH1 0x60 SHL PUSH1 0x44 DUP3 ADD MSTORE PUSH1 0x64 SWAP1 REVERT JUMPDEST ISZERO PUSH2 0x2437 JUMPI JUMP JUMPDEST PUSH1 0x40 MLOAD PUSH3 0x461BCD PUSH1 0xE5 SHL DUP2 MSTORE PUSH1 0x20 PUSH1 0x4 DUP3 ADD MSTORE PUSH1 0x1C PUSH1 0x24 DUP3 ADD MSTORE PUSH32 0x546F6F206D616E792070726F6F667320746F2061676772656761746500000000 PUSH1 0x44 DUP3 ADD MSTORE PUSH1 0x64 SWAP1 REVERT JUMPDEST SWAP1 PUSH2 0x2486 DUP3 PUSH2 0x1200 JUMP JUMPDEST PUSH2 0x2493 PUSH1 0x40 MLOAD SWAP2 DUP3 PUSH2 0x34E JUMP JUMPDEST DUP3 DUP2 MSTORE DUP1 SWAP3 PUSH2 0x24A4 PUSH1 0x1F NOT SWAP2 PUSH2 0x1200 JUMP JUMPDEST ADD SWAP1 PUSH1 0x20 CALLDATASIZE SWAP2 ADD CALLDATACOPY JUMP JUMPDEST SWAP2 SWAP1 DUP2 LT ISZERO PUSH2 0x1DC7 JUMPI PUSH1 0x5 SHL DUP2 ADD CALLDATALOAD SWAP1 PUSH1 0x1E NOT DUP2 CALLDATASIZE SUB ADD DUP3 SLT ISZERO PUSH2 0x41B JUMPI ADD SWAP1 DUP2 CALLDATALOAD SWAP2 PUSH1 0x1 PUSH1 0x1 PUSH1 0x40 SHL SUB DUP4 GT PUSH2 0x41B JUMPI PUSH1 0x20 ADD DUP3 CALLDATASIZE SUB DUP2 SGT PUSH2 0x41B JUMPI SWAP2 SWAP1 JUMP JUMPDEST ISZERO PUSH2 0x24F6 JUMPI JUMP JUMPDEST PUSH1 0x40 MLOAD PUSH3 0x461BCD PUSH1 0xE5 SHL DUP2 MSTORE PUSH1 0x20 PUSH1 0x4 DUP3 ADD MSTORE PUSH1 0x1C PUSH1 0x24 DUP3 ADD MSTORE PUSH32 0x496E76616C69642070726F6F6620696E206167677265676174696F6E00000000 PUSH1 0x44 DUP3 ADD MSTORE PUSH1 0x64 SWAP1 REVERT JUMPDEST SWAP1 DUP1 SWAP3 SWAP2 DUP3 CALLDATACOPY ADD PUSH1 0x0 DUP2 MSTORE SWAP1 JUMP JUMPDEST ISZERO PUSH2 0x2550 JUMPI JUMP JUMPDEST PUSH1 0x40 MLOAD PUSH3 0x461BCD PUSH1 0xE5 SHL DUP2 MSTORE PUSH1 0x20 PUSH1 0x4 DUP3 ADD MSTORE PUSH1 0x21 PUSH1 0x24 DUP3 ADD MSTORE PUSH32 0x50726F6F6620616C7265616479207573656420696E206167677265676174696F PUSH1 0x44 DUP3 ADD MSTORE PUSH1 0x37 PUSH1 0xF9 SHL PUSH1 0x64 DUP3 ADD MSTORE PUSH1 0x84 SWAP1 REVERT JUMPDEST SWAP2 SWAP4 SWAP3 SWAP1 SWAP4 DUP5 MLOAD PUSH1 0x20 DUP1 SWAP7 ADD SWAP1 PUSH1 0x0 JUMPDEST DUP2 DUP2 LT PUSH2 0x25D9 JUMPI POP POP POP DUP3 MSTORE PUSH1 0x60 SHL PUSH12 0xFFFFFFFFFFFFFFFFFFFFFFFF NOT AND PUSH1 0x20 DUP3 ADD MSTORE PUSH1 0x34 ADD SWAP2 POP JUMP JUMPDEST DUP3 MLOAD DUP7 MSTORE SWAP5 DUP8 ADD SWAP5 SWAP2 DUP8 ADD SWAP2 PUSH1 0x1 ADD PUSH2 0x25AF JUMP JUMPDEST DUP2 MLOAD SWAP2 PUSH1 0x1 PUSH1 0x1 PUSH1 0x40 SHL SUB DUP4 GT PUSH2 0x2F8 JUMPI PUSH1 0x1 PUSH1 0x40 SHL DUP4 GT PUSH2 0x2F8 JUMPI DUP2 SLOAD DUP4 DUP4 SSTORE DUP1 DUP5 LT PUSH2 0x264F JUMPI JUMPDEST POP PUSH2 0x262B PUSH1 0x20 DUP1 SWAP3 ADD SWAP3 PUSH1 0x0 MSTORE PUSH1 0x20 PUSH1 0x0 KECCAK256 SWAP1 JUMP JUMPDEST SWAP1 PUSH1 0x0 JUMPDEST DUP5 DUP2 LT PUSH2 0x263D JUMPI POP POP POP POP POP JUMP JUMPDEST DUP4 MLOAD DUP4 DUP3 ADD SSTORE SWAP3 DUP2 ADD SWAP3 PUSH1 0x1 ADD PUSH2 0x262F JUMP JUMPDEST PUSH1 0x0 DUP4 PUSH1 0x0 MSTORE DUP5 PUSH1 0x20 PUSH1 0x0 KECCAK256 SWAP3 DUP4 ADD SWAP3 ADD JUMPDEST DUP3 DUP2 LT PUSH2 0x266F JUMPI POP POP PUSH2 0x2616 JUMP JUMPDEST DUP2 DUP2 SSTORE PUSH1 0x1 ADD PUSH2 0x2661 JUMP JUMPDEST SWAP2 SWAP3 SWAP1 SWAP3 DUP2 DUP5 EQ DUP1 PUSH2 0x283E JUMPI JUMPDEST PUSH2 0x2690 SWAP1 PUSH2 0x23ED JUMP JUMPDEST PUSH2 0x269D PUSH1 0xA DUP6 GT ISZERO PUSH2 0x2430 JUMP JUMPDEST PUSH2 0x26A6 DUP5 PUSH2 0x247C JUMP JUMPDEST SWAP4 PUSH1 0x0 JUMPDEST DUP2 DUP2 LT PUSH2 0x2768 JUMPI POP POP POP POP POP PUSH1 0x40 MLOAD PUSH1 0x20 DUP2 ADD SWAP1 PUSH2 0x26CE DUP2 PUSH2 0x223F CALLER TIMESTAMP DUP8 DUP8 PUSH2 0x259F JUMP JUMPDEST MLOAD SWAP1 KECCAK256 SWAP1 PUSH2 0x2703 PUSH2 0x26E0 PUSH1 0x5 SLOAD PUSH2 0x1B8F JUMP JUMPDEST SWAP2 PUSH2 0x26EA DUP4 PUSH1 0x5 SSTORE JUMP JUMPDEST PUSH2 0x26FE DUP4 PUSH1 0x0 MSTORE PUSH1 0xD PUSH1 0x20 MSTORE PUSH1 0x40 PUSH1 0x0 KECCAK256 SWAP1 JUMP JUMPDEST PUSH2 0x25ED JUMP JUMPDEST PUSH2 0x2727 PUSH2 0x271A DUP4 PUSH1 0x0 MSTORE PUSH1 0xC PUSH1 0x20 MSTORE PUSH1 0x40 PUSH1 0x0 KECCAK256 SWAP1 JUMP JUMPDEST DUP1 SLOAD PUSH1 0xFF NOT AND PUSH1 0x1 OR SWAP1 SSTORE JUMP JUMPDEST PUSH32 0x6DD2118914AD2B9A98780FAFD92846EEBE9361998A810F1A05F67033B17E2CDD PUSH1 0x40 MLOAD DUP1 PUSH2 0x2762 DUP6 DUP3 SWAP2 SWAP1 PUSH1 0x20 PUSH1 0x40 DUP5 ADD SWAP4 PUSH1 0x1 DUP2 MSTORE ADD MSTORE JUMP JUMPDEST SUB SWAP1 LOG2 SWAP1 JUMP JUMPDEST DUP1 PUSH2 0x27AD PUSH2 0x27A8 PUSH2 0x27A2 PUSH2 0x277F PUSH1 0x1 SWAP6 DUP8 DUP12 PUSH2 0x24AE JUMP JUMPDEST PUSH2 0x279A PUSH2 0x2790 DUP8 DUP13 DUP13 SWAP7 SWAP6 SWAP7 PUSH2 0x24AE JUMP JUMPDEST SWAP5 SWAP1 SWAP3 CALLDATASIZE SWAP2 PUSH2 0x3E4 JUMP JUMPDEST SWAP3 CALLDATASIZE SWAP2 PUSH2 0x3E4 JUMP JUMPDEST SWAP1 PUSH2 0x32FD JUMP JUMPDEST PUSH2 0x24EF JUMP JUMPDEST PUSH2 0x2838 PUSH2 0x271A PUSH2 0x27EC PUSH2 0x27E6 PUSH2 0x27C4 DUP6 DUP9 DUP13 PUSH2 0x24AE JUMP JUMPDEST SWAP3 SWAP1 PUSH2 0x223F PUSH2 0x27D4 DUP9 DUP14 DUP14 PUSH2 0x24AE JUMP JUMPDEST PUSH1 0x40 MLOAD SWAP6 DUP7 SWAP5 PUSH1 0x20 DUP7 ADD SWAP9 DUP10 SWAP2 PUSH2 0x253B JUMP JUMPDEST SWAP2 PUSH2 0x253B JUMP JUMPDEST MLOAD SWAP1 KECCAK256 PUSH2 0x281C PUSH2 0x2817 PUSH2 0x2813 PUSH2 0x280C DUP5 PUSH1 0x0 MSTORE PUSH1 0xE PUSH1 0x20 MSTORE PUSH1 0x40 PUSH1 0x0 KECCAK256 SWAP1 JUMP JUMPDEST SLOAD PUSH1 0xFF AND SWAP1 JUMP JUMPDEST ISZERO SWAP1 JUMP JUMPDEST PUSH2 0x2549 JUMP JUMPDEST DUP1 PUSH2 0x2827 DUP6 DUP13 PUSH2 0x1DEC JUMP JUMPDEST MSTORE PUSH1 0x0 MSTORE PUSH1 0xE PUSH1 0x20 MSTORE PUSH1 0x40 PUSH1 0x0 KECCAK256 SWAP1 JUMP JUMPDEST ADD PUSH2 0x26AA JUMP JUMPDEST POP DUP4 ISZERO ISZERO PUSH2 0x2687 JUMP JUMPDEST SWAP1 ISZERO PUSH2 0x1DC7 JUMPI SWAP1 JUMP JUMPDEST SWAP1 PUSH1 0x1 DUP3 ADD DUP1 SWAP3 GT PUSH2 0x516 JUMPI JUMP JUMPDEST PUSH1 0x30 ADD SWAP1 DUP2 PUSH1 0x30 GT PUSH2 0x516 JUMPI JUMP JUMPDEST SWAP1 PUSH2 0x2710 DUP3 ADD DUP1 SWAP3 GT PUSH2 0x516 JUMPI JUMP JUMPDEST SWAP1 PUSH1 0x20 DUP3 ADD DUP1 SWAP3 GT PUSH2 0x516 JUMPI JUMP JUMPDEST SWAP2 SWAP1 DUP3 ADD DUP1 SWAP3 GT PUSH2 0x516 JUMPI JUMP JUMPDEST PUSH1 0x40 MLOAD SWAP1 PUSH2 0x28A3 DUP3 PUSH2 0x2DD JUMP JUMPDEST PUSH1 0x60 PUSH1 0xC0 DUP4 PUSH1 0x0 DUP2 MSTORE PUSH1 0x0 PUSH1 0x20 DUP3 ADD MSTORE PUSH1 0x0 PUSH1 0x40 DUP3 ADD MSTORE DUP3 DUP1 DUP3 ADD MSTORE DUP3 PUSH1 0x80 DUP3 ADD MSTORE DUP3 PUSH1 0xA0 DUP3 ADD MSTORE ADD MSTORE JUMP JUMPDEST PUSH1 0x40 SWAP1 PUSH1 0x40 MLOAD SWAP2 PUSH2 0x28DF DUP4 PUSH2 0x333 JUMP JUMPDEST PUSH1 0x2 DUP4 MSTORE DUP3 PUSH1 0x0 JUMPDEST DUP3 DUP2 LT PUSH2 0x28F3 JUMPI POP POP POP JUMP JUMPDEST DUP1 PUSH1 0x60 PUSH1 0x20 DUP1 SWAP4 DUP6 ADD ADD MSTORE ADD PUSH2 0x28E7 JUMP JUMPDEST PUSH1 0x40 MLOAD SWAP1 PUSH1 0x80 DUP3 ADD DUP3 DUP2 LT PUSH1 0x1 PUSH1 0x1 PUSH1 0x40 SHL SUB DUP3 GT OR PUSH2 0x2F8 JUMPI PUSH1 0x40 MSTORE PUSH1 0x3 DUP3 MSTORE DUP2 SWAP1 PUSH1 0x0 JUMPDEST PUSH1 0x60 DUP1 DUP3 LT ISZERO PUSH2 0x2944 JUMPI SWAP1 PUSH1 0x20 SWAP2 DUP3 DUP3 DUP8 ADD ADD MSTORE ADD PUSH2 0x292A JUMP JUMPDEST POP POP SWAP1 SWAP2 POP JUMP JUMPDEST SWAP3 SWAP2 SWAP1 PUSH2 0x2962 PUSH1 0x20 SWAP2 PUSH1 0x40 DUP7 MSTORE PUSH1 0x40 DUP7 ADD SWAP1 PUSH2 0xBE0 JUMP JUMPDEST SWAP4 ADD MSTORE JUMP JUMPDEST SWAP1 PUSH32 0x89652D00E157965D54F5AD31AF9352416C4E90B879711EC122680D4E3A1DE9A6 SWAP1 PUSH2 0x299E DUP4 PUSH1 0x0 MSTORE PUSH1 0x3 PUSH1 0x20 MSTORE PUSH1 0x40 PUSH1 0x0 KECCAK256 SWAP1 JUMP JUMPDEST PUSH2 0x2BF8 PUSH2 0x2BD4 PUSH1 0x40 MLOAD PUSH2 0x2B6D DUP2 PUSH2 0x223F PUSH2 0x2AF8 PUSH2 0x2AB7 PUSH2 0x2A5E PUSH2 0x2A23 PUSH2 0x29EB PUSH1 0x20 DUP8 ADD PUSH1 0x1C SWAP1 PUSH32 0x636F6E737420736F75726365436861696E203D20617267735B305D3B00000000 DUP2 MSTORE ADD SWAP1 JUMP JUMPDEST PUSH32 0x636F6E737420626C6F636B4E756D626572203D207061727365496E7428617267 DUP2 MSTORE PUSH6 0x735B315D293B PUSH1 0xD0 SHL PUSH1 0x20 DUP3 ADD MSTORE PUSH1 0x26 ADD SWAP1 JUMP JUMPDEST PUSH32 0x2F2F20466574636820626C6F636B206461746120616E642067656E6572617465 DUP2 MSTORE PUSH9 0x102D2590383937B7B3 PUSH1 0xB9 SHL PUSH1 0x20 DUP3 ADD MSTORE PUSH1 0x29 ADD SWAP1 JUMP JUMPDEST PUSH32 0x636F6E737420626C6F636B44617461203D206177616974206665746368426C6F DUP2 MSTORE PUSH32 0x636B4461746128736F75726365436861696E2C20626C6F636B4E756D62657229 PUSH1 0x20 DUP3 ADD MSTORE PUSH1 0x3B PUSH1 0xF8 SHL PUSH1 0x40 DUP3 ADD MSTORE PUSH1 0x41 ADD SWAP1 JUMP JUMPDEST PUSH32 0x636F6E73742070726F6F66203D2061776169742067656E65726174655A4B5072 DUP2 MSTORE PUSH15 0x6F6F6628626C6F636B44617461293B PUSH1 0x88 SHL PUSH1 0x20 DUP3 ADD MSTORE PUSH1 0x2F ADD SWAP1 JUMP JUMPDEST PUSH32 0x72657475726E2046756E6374696F6E732E656E636F6465537472696E67284A53 DUP2 MSTORE PUSH32 0x4F4E2E737472696E67696679287B70726F6F662C207075626C6963496E707574 PUSH1 0x20 DUP3 ADD MSTORE PUSH32 0x733A20626C6F636B446174612E7374617465526F6F747D29293B000000000000 PUSH1 0x40 DUP3 ADD MSTORE PUSH1 0x5A ADD SWAP1 JUMP JUMPDEST PUSH2 0x2B7F PUSH2 0x2B78 PUSH2 0x2896 JUMP JUMPDEST SWAP2 DUP3 PUSH2 0x3EEC JUMP JUMPDEST PUSH2 0x2BCF PUSH1 0x2 PUSH2 0x2B8C PUSH2 0x28CF JUMP JUMPDEST SWAP6 ADD SWAP5 PUSH2 0x2B98 DUP7 PUSH2 0xC76 JUMP JUMPDEST PUSH2 0x2BA1 DUP3 PUSH2 0x1DBA JUMP JUMPDEST MSTORE PUSH2 0x2BAB DUP2 PUSH2 0x1DBA JUMP JUMPDEST POP PUSH2 0x2BB5 DUP8 PUSH2 0x391B JUMP JUMPDEST PUSH2 0x2BBE DUP3 PUSH2 0x1DCC JUMP JUMPDEST MSTORE PUSH2 0x2BC8 DUP2 PUSH2 0x1DCC JUMP JUMPDEST POP DUP3 PUSH2 0x39C1 JUMP JUMPDEST PUSH2 0x3B10 JUMP JUMPDEST PUSH1 0xA SLOAD PUSH1 0xB SLOAD SWAP2 PUSH1 0x1 PUSH1 0x1 PUSH1 0x40 SHL SUB PUSH4 0xFFFFFFFF DUP4 PUSH1 0x90 SHR AND SWAP3 PUSH1 0x50 SHR AND SWAP1 PUSH2 0x3CDE JUMP JUMPDEST SWAP4 PUSH2 0x2C0D DUP6 PUSH1 0x0 MSTORE PUSH1 0x4 PUSH1 0x20 MSTORE PUSH1 0x40 PUSH1 0x0 KECCAK256 SWAP1 JUMP JUMPDEST SSTORE PUSH2 0x2C1D PUSH1 0x40 MLOAD SWAP3 DUP4 SWAP3 DUP4 PUSH2 0x294B JUMP JUMPDEST SUB SWAP1 LOG2 JUMP JUMPDEST PUSH1 0xE0 PUSH1 0xA0 PUSH2 0x43B SWAP4 PUSH1 0x20 DUP5 MSTORE DUP1 MLOAD PUSH1 0x20 DUP6 ADD MSTORE PUSH1 0x20 DUP2 ADD MLOAD PUSH1 0x40 DUP6 ADD MSTORE PUSH2 0xFFFF PUSH1 0x40 DUP3 ADD MLOAD AND PUSH1 0x60 DUP6 ADD MSTORE PUSH1 0x60 DUP2 ADD MLOAD PUSH4 0xFFFFFFFF DUP1 SWAP2 AND PUSH1 0x80 DUP7 ADD MSTORE PUSH1 0x80 DUP3 ADD MLOAD AND DUP3 DUP6 ADD MSTORE ADD MLOAD SWAP2 PUSH1 0xC0 DUP1 DUP3 ADD MSTORE ADD SWAP1 PUSH2 0x58C JUMP JUMPDEST PUSH1 0x2 SLOAD PUSH1 0x0 SWAP1 PUSH1 0x20 SWAP1 PUSH2 0x2D12 SWAP1 PUSH1 0x1 PUSH1 0x1 PUSH1 0xA0 SHL SUB AND PUSH1 0x9 SLOAD PUSH1 0x8 SLOAD PUSH2 0x2CF1 PUSH1 0xA SLOAD PUSH4 0xFFFFFFFF SWAP1 PUSH2 0x2CB4 PUSH2 0x2CAC PUSH2 0x37E JUMP JUMPDEST DUP11 DUP2 MSTORE PUSH2 0x3DB8 JUMP JUMPDEST SWAP4 PUSH2 0x2CBD PUSH2 0x38B JUMP JUMPDEST SWAP6 DUP7 MSTORE DUP9 DUP7 ADD MSTORE DUP1 DUP9 SHR PUSH2 0xFFFF AND PUSH1 0x40 DUP7 ADD MSTORE PUSH4 0xFFFFFFFF DUP2 DUP4 AND AND PUSH1 0x60 DUP7 ADD MSTORE PUSH1 0x30 SHR AND PUSH1 0x80 DUP5 ADD SWAP1 PUSH4 0xFFFFFFFF AND SWAP1 MSTORE JUMP JUMPDEST PUSH1 0xA0 DUP3 ADD MSTORE PUSH1 0x40 MLOAD SWAP5 DUP6 DUP1 SWAP5 DUP2 SWAP4 PUSH4 0x4D8E1C2F PUSH1 0xE1 SHL DUP4 MSTORE PUSH1 0x4 DUP4 ADD PUSH2 0x2C22 JUMP JUMPDEST SUB SWAP3 GAS CALL DUP1 ISZERO PUSH2 0x1026 JUMPI PUSH2 0x2D39 SWAP2 PUSH1 0x0 SWAP2 PUSH2 0x2D3C JUMPI JUMPDEST POP PUSH1 0x0 MSTORE PUSH1 0x4 PUSH1 0x20 MSTORE PUSH1 0x40 PUSH1 0x0 KECCAK256 SWAP1 JUMP JUMPDEST SSTORE JUMP JUMPDEST PUSH2 0x2D55 SWAP2 POP PUSH1 0x20 RETURNDATASIZE PUSH1 0x20 GT PUSH2 0x101F JUMPI PUSH2 0x1017 DUP2 DUP4 PUSH2 0x34E JUMP JUMPDEST CODESIZE PUSH2 0x2D28 JUMP JUMPDEST DUP1 PUSH1 0x0 MSTORE PUSH1 0x11 PUSH1 0x20 MSTORE PUSH1 0x40 PUSH1 0x0 KECCAK256 PUSH1 0x40 MLOAD SWAP1 PUSH1 0x20 DUP3 ADD PUSH32 0x636F6E73742062617463684964203D207061727365496E7428617267735B305D SWAP1 MSTORE PUSH1 0x40 DUP3 ADD PUSH2 0x293B PUSH1 0xF0 SHL SWAP1 MSTORE DUP2 PUSH1 0x42 DUP2 ADD PUSH2 0x2DE1 SWAP1 PUSH1 0x25 SWAP1 PUSH32 0x636F6E73742070726F6F66436F756E74203D207061727365496E742861726773 DUP2 MSTORE PUSH5 0x5B315D293B PUSH1 0xD8 SHL PUSH1 0x20 DUP3 ADD MSTORE ADD SWAP1 JUMP JUMPDEST PUSH32 0x636F6E73742073746570496E203D207061727365496E7428617267735B325D29 DUP2 MSTORE PUSH1 0x3B PUSH1 0xF8 SHL PUSH1 0x20 DUP3 ADD MSTORE PUSH1 0x21 ADD PUSH32 0x2F2F2047656E6572617465204E6F7661207265637572736976652070726F6F66 DUP2 MSTORE PUSH22 0x202D2073696D706C696669656420666F722064656D6F PUSH1 0x50 SHL PUSH1 0x20 DUP3 ADD MSTORE PUSH1 0x36 ADD PUSH32 0x636F6E7374206167677265676174656448617368203D206574686572732E7574 DUP2 MSTORE PUSH14 0xD2D8E65CD6CAC6C6C2D6646A6C5 PUSH1 0x93 SHL PUSH1 0x20 DUP3 ADD MSTORE PUSH1 0x2E ADD PUSH32 0x20206574686572732E7574696C732E64656661756C74416269436F6465722E65 DUP2 MSTORE PUSH6 0xDCC6DEC8CA5 PUSH1 0xD3 SHL PUSH1 0x20 DUP3 ADD MSTORE PUSH1 0x26 ADD PUSH32 0x202020205B2775696E74323536272C202775696E74323536272C202775696E74 DUP2 MSTORE PUSH6 0xC8D4D89D74B PUSH1 0xD2 SHL PUSH1 0x20 DUP3 ADD MSTORE PUSH1 0x26 ADD PUSH32 0x202020205B626174636849642C2070726F6F66436F756E742C2073746570496E DUP2 MSTORE PUSH1 0x5D PUSH1 0xF8 SHL PUSH1 0x20 DUP3 ADD MSTORE PUSH1 0x21 ADD PUSH3 0x202029 PUSH1 0xE8 SHL DUP2 MSTORE PUSH1 0x3 ADD PUSH2 0x293B PUSH1 0xF0 SHL DUP2 MSTORE PUSH1 0x2 ADD PUSH32 0x636F6E737420666F6C646564496E7374616E6365203D207B0000000000000000 DUP2 MSTORE PUSH1 0x18 ADD PUSH17 0x8081CDD195C125B8E881CDD195C125B8B PUSH1 0x7A SHL DUP2 MSTORE PUSH1 0x11 ADD PUSH22 0x8081CDD195C13DD5D0E881CDD195C125B880AC80C4B PUSH1 0x52 SHL DUP2 MSTORE PUSH1 0x16 ADD PUSH32 0x202070726F6772616D436F756E7465723A20446174652E6E6F7728292C000000 DUP2 MSTORE PUSH1 0x1D ADD PUSH32 0x20207374617465526F6F74496E3A2061676772656761746564486173682C0000 DUP2 MSTORE PUSH1 0x1E ADD PUSH32 0x20207374617465526F6F744F75743A2061676772656761746564486173682C00 DUP2 MSTORE PUSH1 0x1F ADD PUSH32 0x20206E756C6C6966696572486173683A206574686572732E7574696C732E6B65 DUP2 MSTORE PUSH32 0x6363616B323536286167677265676174656448617368292C0000000000000000 PUSH1 0x20 DUP3 ADD MSTORE PUSH1 0x38 ADD PUSH15 0x2020697356616C69643A2074727565 PUSH1 0x88 SHL DUP2 MSTORE PUSH1 0xF ADD PUSH2 0x7D3B PUSH1 0xF0 SHL DUP2 MSTORE PUSH1 0x2 ADD PUSH32 0x72657475726E2046756E6374696F6E732E656E636F6465537472696E67284A53 DUP2 MSTORE PUSH14 0x4F4E2E737472696E67696679287B PUSH1 0x90 SHL PUSH1 0x20 DUP3 ADD MSTORE PUSH1 0x2E ADD PUSH19 0x80818985D18DA12590E8818985D18DA12590B PUSH1 0x6A SHL DUP2 MSTORE PUSH1 0x13 ADD PUSH32 0x202061676772656761746564486173683A206167677265676174656448617368 DUP2 MSTORE PUSH1 0xB PUSH1 0xFA SHL PUSH1 0x20 DUP3 ADD MSTORE PUSH1 0x21 ADD PUSH32 0x2020666F6C646564496E7374616E63653A20666F6C646564496E7374616E6365 DUP2 MSTORE PUSH1 0xB PUSH1 0xFA SHL PUSH1 0x20 DUP3 ADD MSTORE PUSH1 0x21 ADD PUSH32 0x202072656375727369766550726F6F663A206167677265676174656448617368 DUP2 MSTORE PUSH1 0x20 ADD PUSH4 0x7D29293B PUSH1 0xE0 SHL DUP2 MSTORE PUSH1 0x4 ADD SUB PUSH1 0x1F NOT DUP2 ADD DUP4 MSTORE PUSH2 0x3182 SWAP1 DUP4 PUSH2 0x34E JUMP JUMPDEST DUP1 SLOAD SWAP1 PUSH1 0x3 ADD SLOAD SWAP2 PUSH2 0x37C SWAP4 PUSH2 0x3DDE JUMP JUMPDEST PUSH1 0x40 MLOAD SWAP1 PUSH2 0x31A0 DUP3 PUSH2 0x2FD JUMP JUMPDEST PUSH1 0x40 CALLDATASIZE DUP4 CALLDATACOPY JUMP JUMPDEST PUSH1 0x40 SWAP1 PUSH1 0x40 MLOAD PUSH2 0x31B6 DUP2 PUSH2 0x2FD JUMP JUMPDEST DUP1 SWAP3 PUSH1 0x0 JUMPDEST DUP2 DUP2 LT PUSH2 0x31C7 JUMPI POP POP POP JUMP JUMPDEST PUSH1 0x20 SWAP1 DUP3 MLOAD PUSH2 0x31D5 DUP2 PUSH2 0x2FD JUMP JUMPDEST DUP4 CALLDATASIZE DUP3 CALLDATACOPY DUP2 DUP6 ADD MSTORE ADD PUSH2 0x31BB JUMP JUMPDEST PUSH1 0x20 SWAP1 DUP2 DUP2 DUP5 SUB SLT PUSH2 0x41B JUMPI DUP1 MLOAD SWAP1 PUSH1 0x1 PUSH1 0x1 PUSH1 0x40 SHL SUB DUP3 GT PUSH2 0x41B JUMPI ADD SWAP2 DUP1 PUSH1 0x1F DUP5 ADD SLT ISZERO PUSH2 0x41B JUMPI DUP3 MLOAD PUSH2 0x3218 DUP2 PUSH2 0x1200 JUMP JUMPDEST SWAP4 PUSH2 0x3226 PUSH1 0x40 MLOAD SWAP6 DUP7 PUSH2 0x34E JUMP JUMPDEST DUP2 DUP6 MSTORE DUP4 DUP1 DUP7 ADD SWAP3 PUSH1 0x5 SHL DUP3 ADD ADD SWAP3 DUP4 GT PUSH2 0x41B JUMPI DUP4 ADD SWAP1 JUMPDEST DUP3 DUP3 LT PUSH2 0x324D JUMPI POP POP POP POP SWAP1 JUMP JUMPDEST DUP2 MLOAD DUP2 MSTORE SWAP1 DUP4 ADD SWAP1 DUP4 ADD PUSH2 0x323F JUMP JUMPDEST SWAP1 DUP2 PUSH1 0x20 SWAP2 SUB SLT PUSH2 0x41B JUMPI MLOAD PUSH2 0x43B DUP2 PUSH2 0xEA9 JUMP JUMPDEST PUSH1 0x0 SWAP2 JUMPDEST PUSH1 0x2 DUP4 LT PUSH2 0x3282 JUMPI POP POP POP JUMP JUMPDEST PUSH1 0x1 SWAP1 DUP3 MLOAD DUP2 MSTORE PUSH1 0x20 DUP1 SWAP2 ADD SWAP3 ADD SWAP3 ADD SWAP2 SWAP1 PUSH2 0x3275 JUMP JUMPDEST SWAP1 SWAP2 SWAP5 SWAP4 SWAP3 SWAP5 PUSH2 0x32AC DUP3 PUSH2 0x120 SWAP5 PUSH2 0x3271 JUMP JUMPDEST PUSH1 0x0 PUSH1 0x40 DUP4 DUP2 ADD JUMPDEST PUSH1 0x2 DUP4 LT PUSH2 0x32E0 JUMPI POP POP POP POP PUSH2 0x32D2 PUSH2 0x43B SWAP5 SWAP6 PUSH1 0xC0 DUP4 ADD SWAP1 PUSH2 0x3271 JUMP JUMPDEST DUP2 PUSH2 0x100 DUP3 ADD MSTORE ADD SWAP1 PUSH2 0x14F5 JUMP JUMPDEST PUSH1 0x20 DUP3 DUP3 PUSH2 0x32F1 PUSH1 0x1 SWAP5 DUP9 MLOAD PUSH2 0x3271 JUMP JUMPDEST ADD SWAP5 ADD SWAP3 ADD SWAP2 SWAP3 PUSH2 0x32B4 JUMP JUMPDEST SWAP1 PUSH2 0x100 SWAP2 DUP3 DUP2 MLOAD SUB PUSH2 0x33FF JUMPI PUSH2 0x3312 PUSH2 0x3193 JUMP JUMPDEST PUSH2 0x331A PUSH2 0x31A7 JUMP JUMPDEST SWAP1 PUSH2 0x3398 PUSH2 0x337D PUSH2 0x3329 PUSH2 0x3193 JUMP JUMPDEST SWAP6 PUSH1 0x20 SWAP8 DUP7 DUP10 DUP1 SWAP9 ADD MLOAD DUP7 MSTORE PUSH1 0x40 DUP2 ADD MLOAD DUP9 DUP8 ADD MSTORE PUSH1 0x60 DUP2 ADD MLOAD DUP8 MSTORE PUSH1 0x80 DUP2 ADD MLOAD DUP9 DUP9 ADD MSTORE PUSH1 0xA0 DUP2 ADD MLOAD PUSH1 0x40 DUP9 ADD MSTORE PUSH1 0xC0 DUP2 ADD MLOAD PUSH1 0x60 DUP9 ADD MSTORE PUSH1 0xE0 DUP2 ADD MLOAD DUP10 MSTORE ADD MLOAD DUP7 DUP9 ADD MSTORE DUP6 DUP1 DUP3 MLOAD DUP4 ADD ADD SWAP2 ADD PUSH2 0x31E3 JUMP JUMPDEST PUSH1 0x40 MLOAD PUSH4 0x61971B87 PUSH1 0xE1 SHL DUP2 MSTORE SWAP6 DUP7 SWAP5 DUP6 SWAP5 PUSH1 0x4 DUP7 ADD PUSH2 0x3299 JUMP JUMPDEST SUB DUP2 PUSH32 0x0 PUSH1 0x1 PUSH1 0x1 PUSH1 0xA0 SHL SUB AND GAS STATICCALL SWAP2 DUP3 ISZERO PUSH2 0x1026 JUMPI PUSH1 0x0 SWAP3 PUSH2 0x33D9 JUMPI POP POP SWAP1 JUMP JUMPDEST PUSH2 0x43B SWAP3 POP DUP1 RETURNDATASIZE LT PUSH2 0x33F8 JUMPI JUMPDEST PUSH2 0x33F0 DUP2 DUP4 PUSH2 0x34E JUMP JUMPDEST DUP2 ADD SWAP1 PUSH2 0x325C JUMP JUMPDEST POP RETURNDATASIZE PUSH2 0x33E6 JUMP JUMPDEST POP POP POP PUSH1 0x0 SWAP1 JUMP JUMPDEST ISZERO PUSH2 0x340E JUMPI JUMP JUMPDEST PUSH1 0x40 MLOAD PUSH3 0x461BCD PUSH1 0xE5 SHL DUP2 MSTORE PUSH1 0x20 PUSH1 0x4 DUP3 ADD MSTORE PUSH1 0x19 PUSH1 0x24 DUP3 ADD MSTORE PUSH32 0x496E76616C69642046756E6374696F6E73207265717565737400000000000000 PUSH1 0x44 DUP3 ADD MSTORE PUSH1 0x64 SWAP1 REVERT JUMPDEST DUP2 PUSH1 0x1F DUP3 ADD SLT ISZERO PUSH2 0x41B JUMPI DUP1 MLOAD PUSH2 0x3469 DUP2 PUSH2 0x3C9 JUMP JUMPDEST SWAP3 PUSH2 0x3477 PUSH1 0x40 MLOAD SWAP5 DUP6 PUSH2 0x34E JUMP JUMPDEST DUP2 DUP5 MSTORE PUSH1 0x20 DUP3 DUP5 ADD ADD GT PUSH2 0x41B JUMPI PUSH2 0x43B SWAP2 PUSH1 0x20 DUP1 DUP6 ADD SWAP2 ADD PUSH2 0x569 JUMP JUMPDEST SWAP2 SWAP1 SWAP2 PUSH1 0x40 DUP2 DUP5 SUB SLT PUSH2 0x41B JUMPI DUP1 MLOAD SWAP3 PUSH1 0x1 PUSH1 0x1 PUSH1 0x40 SHL SUB SWAP4 DUP5 DUP2 GT PUSH2 0x41B JUMPI DUP2 PUSH2 0x34C1 SWAP2 DUP5 ADD PUSH2 0x3453 JUMP JUMPDEST SWAP4 PUSH1 0x20 DUP4 ADD MLOAD SWAP1 DUP2 GT PUSH2 0x41B JUMPI PUSH2 0x43B SWAP3 ADD PUSH2 0x3453 JUMP JUMPDEST SWAP1 SWAP2 PUSH2 0x34EF PUSH2 0x43B SWAP4 PUSH1 0x40 DUP5 MSTORE PUSH1 0x40 DUP5 ADD SWAP1 PUSH2 0x58C JUMP JUMPDEST SWAP2 PUSH1 0x20 DUP2 DUP5 SUB SWAP2 ADD MSTORE PUSH2 0x58C JUMP JUMPDEST PUSH1 0x20 DUP2 MLOAD SWAP2 ADD MLOAD SWAP1 PUSH1 0x20 DUP2 LT PUSH2 0x3511 JUMPI POP SWAP1 JUMP JUMPDEST PUSH1 0x0 NOT SWAP1 PUSH1 0x20 SUB PUSH1 0x3 SHL SHL AND SWAP1 JUMP JUMPDEST SWAP1 PUSH2 0x3535 DUP3 PUSH1 0x0 MSTORE PUSH1 0x4 PUSH1 0x20 MSTORE PUSH1 0x40 PUSH1 0x0 KECCAK256 SWAP1 JUMP JUMPDEST SLOAD SWAP3 PUSH2 0x3542 DUP5 ISZERO ISZERO PUSH2 0x3407 JUMP JUMPDEST MLOAD PUSH2 0x365A JUMPI SWAP1 PUSH2 0x361C PUSH2 0x35BE PUSH2 0x3582 DUP5 PUSH1 0x20 DUP1 PUSH32 0x6DD2118914AD2B9A98780FAFD92846EEBE9361998A810F1A05F67033B17E2CDD SWAP8 MLOAD DUP4 ADD ADD SWAP2 ADD PUSH2 0x3495 JUMP JUMPDEST SWAP4 SWAP1 DUP5 SWAP2 PUSH32 0x50348C1AF87D1D2E61E0A7E9BF83A9C67F047D8DE73BE6B88ACAC8655A97581E PUSH1 0x40 MLOAD DUP1 PUSH2 0x35B6 DUP7 DUP7 DUP4 PUSH2 0x34D8 JUMP JUMPDEST SUB SWAP1 LOG2 PUSH2 0x32FD JUMP JUMPDEST SWAP2 DUP3 PUSH2 0x35D4 DUP7 PUSH1 0x0 MSTORE PUSH1 0x3 PUSH1 0x20 MSTORE PUSH1 0x40 PUSH1 0x0 KECCAK256 SWAP1 JUMP JUMPDEST PUSH2 0x3605 DUP3 PUSH1 0x5 DUP4 ADD PUSH2 0x35ED DUP2 PUSH1 0x1 PUSH1 0xFF NOT DUP3 SLOAD AND OR SWAP1 SSTORE JUMP JUMPDEST SWAP1 PUSH2 0xFF00 DUP3 SLOAD SWAP2 ISZERO ISZERO PUSH1 0x8 SHL AND SWAP1 PUSH2 0xFF00 NOT AND OR SWAP1 SSTORE JUMP JUMPDEST PUSH1 0x4 PUSH2 0x3610 DUP5 PUSH2 0x34FD JUMP JUMPDEST SWAP2 ADD SSTORE PUSH2 0x3636 JUMPI PUSH2 0x34FD JUMP JUMPDEST PUSH1 0x40 DUP1 MLOAD SWAP3 ISZERO ISZERO DUP4 MSTORE PUSH1 0x20 DUP4 ADD SWAP2 SWAP1 SWAP2 MSTORE DUP2 SWAP1 DUP2 ADD PUSH2 0x2C1D JUMP JUMPDEST PUSH2 0x3655 PUSH2 0x271A PUSH2 0x3645 DUP4 PUSH2 0x34FD JUMP JUMPDEST PUSH1 0x0 MSTORE PUSH1 0xC PUSH1 0x20 MSTORE PUSH1 0x40 PUSH1 0x0 KECCAK256 SWAP1 JUMP JUMPDEST PUSH2 0x34FD JUMP JUMPDEST POP POP PUSH1 0x5 PUSH2 0x3675 PUSH2 0x37C SWAP3 PUSH1 0x0 MSTORE PUSH1 0x3 PUSH1 0x20 MSTORE PUSH1 0x40 PUSH1 0x0 KECCAK256 SWAP1 JUMP JUMPDEST ADD DUP1 SLOAD PUSH1 0xFF NOT AND PUSH1 0x1 OR SWAP1 SSTORE JUMP JUMPDEST SWAP1 PUSH1 0x20 PUSH2 0x43B SWAP3 DUP2 DUP2 MSTORE ADD SWAP1 PUSH2 0x58C JUMP JUMPDEST DUP1 SLOAD PUSH1 0x0 SWAP2 DUP3 MSTORE PUSH1 0x20 DUP1 DUP4 KECCAK256 SWAP3 SWAP1 JUMPDEST DUP3 DUP3 LT PUSH2 0x36B1 JUMPI POP POP POP POP SWAP1 JUMP JUMPDEST DUP4 SLOAD DUP6 MSTORE SWAP4 DUP5 ADD SWAP4 PUSH1 0x1 SWAP4 DUP5 ADD SWAP4 SWAP1 SWAP2 ADD SWAP1 PUSH2 0x36A3 JUMP JUMPDEST PUSH1 0x6 PUSH1 0xC0 PUSH2 0x37C SWAP4 DUP1 MLOAD DUP5 SSTORE PUSH1 0x20 DUP2 ADD MLOAD PUSH1 0x1 DUP6 ADD SSTORE PUSH1 0x40 DUP2 ADD MLOAD PUSH1 0x2 DUP6 ADD SSTORE PUSH1 0x60 DUP2 ADD MLOAD PUSH1 0x3 DUP6 ADD SSTORE PUSH1 0x80 DUP2 ADD MLOAD PUSH1 0x4 DUP6 ADD SSTORE PUSH1 0xA0 DUP2 ADD MLOAD PUSH1 0x5 DUP6 ADD SSTORE ADD MLOAD ISZERO ISZERO SWAP2 ADD SWAP1 PUSH1 0xFF DUP1 NOT DUP4 SLOAD AND SWAP2 ISZERO ISZERO AND OR SWAP1 SSTORE JUMP JUMPDEST PUSH1 0x40 SWAP1 PUSH2 0x43B SWAP4 SWAP3 DUP2 MSTORE DUP2 PUSH1 0x20 DUP3 ADD MSTORE ADD SWAP1 PUSH2 0x58C JUMP JUMPDEST SWAP2 SWAP1 DUP2 MLOAD PUSH2 0x38B0 JUMPI PUSH32 0x788C5F43C02F6032D8146C17D8B085814337BACFF42A64ADDF4F97FFCEBDACFF SWAP2 POP PUSH2 0x3773 DUP4 PUSH1 0x0 MSTORE PUSH1 0x11 PUSH1 0x20 MSTORE PUSH1 0x40 PUSH1 0x0 KECCAK256 SWAP1 JUMP JUMPDEST DUP4 PUSH32 0xE72448DEE39249921F3F9C2134DC1CA195A9E3882D4B52E6C3E49C775A4A4311 PUSH2 0x389D DUP5 MLOAD PUSH1 0x20 DUP7 ADD KECCAK256 PUSH1 0x4 DUP6 ADD SWAP1 DUP2 SSTORE PUSH2 0x37BA PUSH1 0xC DUP7 ADD PUSH1 0x1 PUSH1 0xFF NOT DUP3 SLOAD AND OR SWAP1 SSTORE JUMP JUMPDEST PUSH2 0x3885 PUSH1 0x3 DUP7 ADD SWAP6 PUSH1 0x5 DUP8 SLOAD SWAP2 PUSH2 0x37D0 DUP4 PUSH2 0x2850 JUMP JUMPDEST PUSH1 0x40 MLOAD PUSH1 0x20 DUP2 ADD DUP2 PUSH2 0x37E2 DUP3 DUP7 PUSH2 0x3694 JUMP JUMPDEST SUB SWAP2 PUSH2 0x37F6 PUSH1 0x1F NOT SWAP4 DUP5 DUP2 ADD DUP4 MSTORE DUP3 PUSH2 0x34E JUMP JUMPDEST MLOAD SWAP1 KECCAK256 DUP8 SLOAD PUSH1 0x1 DUP6 ADD SLOAD SWAP1 SWAP3 DUP13 SWAP2 PUSH2 0x3843 SWAP2 PUSH2 0x384F SWAP2 PUSH1 0x1 PUSH1 0x1 PUSH1 0xA0 SHL SUB AND PUSH1 0x40 DUP1 MLOAD PUSH1 0x20 DUP2 ADD SWAP7 DUP8 MSTORE PUSH1 0x60 SWAP3 SWAP1 SWAP3 SHL PUSH12 0xFFFFFFFFFFFFFFFFFFFFFFFF NOT AND SWAP1 DUP3 ADD MSTORE SWAP3 DUP4 SWAP1 PUSH1 0x54 DUP3 ADD SWAP1 JUMP JUMPDEST SUB SWAP1 DUP2 ADD DUP4 MSTORE DUP3 PUSH2 0x34E JUMP JUMPDEST MLOAD SWAP1 KECCAK256 SWAP3 PUSH2 0x385B PUSH2 0x36F JUMP JUMPDEST SWAP7 DUP8 MSTORE PUSH1 0x20 DUP8 ADD MSTORE TIMESTAMP PUSH1 0x40 DUP8 ADD MSTORE PUSH1 0x60 DUP7 ADD MSTORE PUSH1 0x80 DUP6 ADD MSTORE PUSH1 0xA0 DUP5 ADD MSTORE PUSH1 0x1 PUSH1 0xC0 DUP5 ADD MSTORE ADD PUSH2 0x36C8 JUMP JUMPDEST SLOAD PUSH1 0x40 DUP1 MLOAD SWAP2 DUP3 MSTORE PUSH1 0x1 PUSH1 0x20 DUP4 ADD MSTORE SWAP1 SWAP2 DUP3 SWAP2 DUP3 ADD SWAP1 JUMP JUMPDEST SUB SWAP1 LOG2 SLOAD PUSH2 0x2C1D PUSH1 0x40 MLOAD SWAP3 DUP4 SWAP3 DUP4 PUSH2 0x371D JUMP JUMPDEST POP PUSH2 0x2C1D PUSH32 0x8117AD48DB1A08344670D33ACDEB14D7EC953B1119DAFA9AB361E5E721D43562 SWAP2 PUSH1 0x40 MLOAD SWAP2 DUP3 SWAP2 DUP3 PUSH2 0x3683 JUMP JUMPDEST SWAP1 PUSH2 0x38EC DUP3 PUSH2 0x3C9 JUMP JUMPDEST PUSH2 0x38F9 PUSH1 0x40 MLOAD SWAP2 DUP3 PUSH2 0x34E JUMP JUMPDEST DUP3 DUP2 MSTORE DUP1 SWAP3 PUSH2 0x24A4 PUSH1 0x1F NOT SWAP2 PUSH2 0x3C9 JUMP JUMPDEST SWAP1 DUP2 MLOAD DUP2 LT ISZERO PUSH2 0x1DC7 JUMPI ADD PUSH1 0x20 ADD SWAP1 JUMP JUMPDEST DUP1 ISZERO PUSH2 0x39A3 JUMPI PUSH1 0x0 DUP2 DUP2 DUP2 DUP1 JUMPDEST PUSH2 0x398B JUMPI POP PUSH2 0x3936 DUP2 PUSH2 0x38E2 JUMP JUMPDEST SWAP4 JUMPDEST PUSH2 0x3942 JUMPI POP POP POP SWAP1 JUMP JUMPDEST PUSH2 0x394B SWAP1 PUSH2 0x1B16 JUMP JUMPDEST SWAP1 PUSH1 0xA SWAP1 PUSH2 0x3976 PUSH2 0x3966 PUSH2 0x3960 DUP5 DUP5 MOD PUSH2 0x285E JUMP JUMPDEST PUSH1 0xFF AND SWAP1 JUMP JUMPDEST PUSH1 0xF8 SHL PUSH1 0x1 PUSH1 0x1 PUSH1 0xF8 SHL SUB NOT AND SWAP1 JUMP JUMPDEST DUP5 BYTE PUSH2 0x3982 DUP5 DUP8 PUSH2 0x390A JUMP JUMPDEST MSTORE8 DIV SWAP1 DUP2 PUSH2 0x3938 JUMP JUMPDEST SWAP2 POP PUSH2 0x3998 PUSH1 0xA SWAP2 PUSH2 0x1B8F JUMP JUMPDEST SWAP2 DIV DUP1 DUP5 SWAP3 SWAP2 PUSH2 0x3928 JUMP JUMPDEST POP PUSH1 0x40 MLOAD PUSH2 0x39B0 DUP2 PUSH2 0x2FD JUMP JUMPDEST PUSH1 0x1 DUP2 MSTORE PUSH1 0x3 PUSH1 0xFC SHL PUSH1 0x20 DUP3 ADD MSTORE SWAP1 JUMP JUMPDEST DUP2 MLOAD ISZERO PUSH2 0x39CE JUMPI PUSH1 0xA0 ADD MSTORE JUMP JUMPDEST PUSH1 0x40 MLOAD PUSH4 0xFE936CB7 PUSH1 0xE0 SHL DUP2 MSTORE PUSH1 0x4 SWAP1 REVERT JUMPDEST PUSH1 0x40 MLOAD SWAP1 PUSH2 0x39ED DUP3 PUSH2 0x2FD JUMP JUMPDEST PUSH1 0xC DUP3 MSTORE PUSH12 0x31B7B232A637B1B0BA34B7B7 PUSH1 0xA1 SHL PUSH1 0x20 DUP4 ADD MSTORE JUMP JUMPDEST PUSH4 0x4E487B71 PUSH1 0xE0 SHL PUSH1 0x0 MSTORE PUSH1 0x21 PUSH1 0x4 MSTORE PUSH1 0x24 PUSH1 0x0 REVERT JUMPDEST PUSH1 0x3 GT ISZERO PUSH2 0x3A28 JUMPI JUMP JUMPDEST PUSH2 0x3A08 JUMP JUMPDEST PUSH1 0x40 MLOAD SWAP1 PUSH2 0x3A3A DUP3 PUSH2 0x2FD JUMP JUMPDEST PUSH1 0x8 DUP3 MSTORE PUSH8 0x6C616E6775616765 PUSH1 0xC0 SHL PUSH1 0x20 DUP4 ADD MSTORE JUMP JUMPDEST PUSH1 0x1 GT ISZERO PUSH2 0x3A28 JUMPI JUMP JUMPDEST PUSH1 0x40 MLOAD SWAP1 PUSH2 0x3A68 DUP3 PUSH2 0x2FD JUMP JUMPDEST PUSH1 0x6 DUP3 MSTORE PUSH6 0x736F75726365 PUSH1 0xD0 SHL PUSH1 0x20 DUP4 ADD MSTORE JUMP JUMPDEST PUSH1 0x40 MLOAD SWAP1 PUSH2 0x3A8A DUP3 PUSH2 0x2FD JUMP JUMPDEST PUSH1 0x4 DUP3 MSTORE PUSH4 0x61726773 PUSH1 0xE0 SHL PUSH1 0x20 DUP4 ADD MSTORE JUMP JUMPDEST PUSH1 0x40 MLOAD SWAP1 PUSH2 0x3AAA DUP3 PUSH2 0x2FD JUMP JUMPDEST PUSH1 0xF DUP3 MSTORE PUSH15 0x39B2B1B932BA39A637B1B0BA34B7B7 PUSH1 0x89 SHL PUSH1 0x20 DUP4 ADD MSTORE JUMP JUMPDEST PUSH1 0x40 MLOAD SWAP1 PUSH2 0x3AD5 DUP3 PUSH2 0x2FD JUMP JUMPDEST PUSH1 0x7 DUP3 MSTORE PUSH7 0x73656372657473 PUSH1 0xC8 SHL PUSH1 0x20 DUP4 ADD MSTORE JUMP JUMPDEST PUSH1 0x40 MLOAD SWAP1 PUSH2 0x3AF8 DUP3 PUSH2 0x2FD JUMP JUMPDEST PUSH1 0x9 DUP3 MSTORE PUSH9 0x627974657341726773 PUSH1 0xB8 SHL PUSH1 0x20 DUP4 ADD MSTORE JUMP JUMPDEST PUSH2 0x3B18 PUSH2 0x3F1D JUMP JUMPDEST SWAP1 PUSH2 0x3B2A PUSH2 0x3B24 PUSH2 0x39E0 JUMP JUMPDEST DUP4 PUSH2 0x3F6D JUMP JUMPDEST PUSH2 0x3B47 DUP2 MLOAD PUSH2 0x3B38 DUP2 PUSH2 0x3A1E JUMP JUMPDEST PUSH2 0x3B41 DUP2 PUSH2 0x3A1E JUMP JUMPDEST DUP4 PUSH2 0x402F JUMP JUMPDEST PUSH2 0x3B52 PUSH2 0x3B24 PUSH2 0x3A2D JUMP JUMPDEST PUSH2 0x3B6C PUSH1 0x40 DUP3 ADD MLOAD PUSH2 0x3B63 DUP2 PUSH2 0x3A51 JUMP JUMPDEST PUSH2 0x3B41 DUP2 PUSH2 0x3A51 JUMP JUMPDEST PUSH2 0x3B77 PUSH2 0x3B24 PUSH2 0x3A5B JUMP JUMPDEST PUSH2 0x3B85 PUSH1 0x60 DUP3 ADD MLOAD DUP4 PUSH2 0x3F6D JUMP JUMPDEST PUSH1 0xA0 DUP2 ADD DUP1 MLOAD MLOAD PUSH2 0x3C85 JUMPI JUMPDEST POP PUSH1 0x80 DUP2 ADD SWAP1 DUP2 MLOAD MLOAD PUSH2 0x3C05 JUMPI JUMPDEST PUSH1 0xC0 SWAP2 POP ADD DUP1 MLOAD MLOAD PUSH2 0x3BB2 JUMPI JUMPDEST POP MLOAD MLOAD SWAP1 JUMP JUMPDEST SWAP2 PUSH2 0x3BBE PUSH2 0x3B24 PUSH2 0x3AEB JUMP JUMPDEST PUSH2 0x3BC7 DUP3 PUSH2 0x40D0 JUMP JUMPDEST PUSH1 0x0 JUMPDEST DUP4 MLOAD DUP1 MLOAD DUP3 LT ISZERO PUSH2 0x3BF2 JUMPI SWAP1 PUSH2 0x3BEC PUSH2 0x3BE5 DUP3 PUSH1 0x1 SWAP5 PUSH2 0x1DEC JUMP JUMPDEST MLOAD DUP6 PUSH2 0x41E9 JUMP JUMPDEST ADD PUSH2 0x3BCA JUMP JUMPDEST POP POP SWAP2 POP PUSH2 0x3BFF DUP2 PUSH2 0x415C JUMP JUMPDEST CODESIZE PUSH2 0x3BAC JUMP JUMPDEST PUSH1 0x20 DUP2 ADD DUP1 MLOAD PUSH2 0x3C14 DUP2 PUSH2 0x3A1E JUMP JUMPDEST PUSH2 0x3C1D DUP2 PUSH2 0x3A1E JUMP JUMPDEST ISZERO PUSH2 0x3C73 JUMPI PUSH1 0xC0 SWAP3 PUSH2 0x3C56 PUSH2 0x3C6E SWAP3 PUSH2 0x3C3D PUSH2 0x3C37 PUSH2 0x3A9D JUMP JUMPDEST DUP9 PUSH2 0x3F6D JUMP JUMPDEST MLOAD PUSH2 0x3C47 DUP2 PUSH2 0x3A1E JUMP JUMPDEST PUSH2 0x3C50 DUP2 PUSH2 0x3A1E JUMP JUMPDEST DUP7 PUSH2 0x402F JUMP JUMPDEST PUSH2 0x3C67 PUSH2 0x3C61 PUSH2 0x3AC8 JUMP JUMPDEST DUP7 PUSH2 0x3F6D JUMP JUMPDEST MLOAD DUP5 PUSH2 0x41E9 JUMP JUMPDEST PUSH2 0x3B9F JUMP JUMPDEST PUSH1 0x40 MLOAD PUSH4 0xA80D31F7 PUSH1 0xE0 SHL DUP2 MSTORE PUSH1 0x4 SWAP1 REVERT JUMPDEST SWAP3 PUSH2 0x3C97 PUSH2 0x3C91 PUSH2 0x3A7D JUMP JUMPDEST DUP5 PUSH2 0x3F6D JUMP JUMPDEST PUSH2 0x3CA0 DUP4 PUSH2 0x40D0 JUMP JUMPDEST PUSH1 0x0 JUMPDEST DUP5 MLOAD DUP1 MLOAD DUP3 LT ISZERO PUSH2 0x3CCB JUMPI SWAP1 PUSH2 0x3CC5 PUSH2 0x3CBE DUP3 PUSH1 0x1 SWAP5 PUSH2 0x1DEC JUMP JUMPDEST MLOAD DUP7 PUSH2 0x3F6D JUMP JUMPDEST ADD PUSH2 0x3CA3 JUMP JUMPDEST POP POP SWAP3 POP PUSH2 0x3CD8 DUP3 PUSH2 0x415C JUMP JUMPDEST CODESIZE PUSH2 0x3B91 JUMP JUMPDEST SWAP3 SWAP1 PUSH1 0x20 SWAP3 PUSH1 0x1 PUSH1 0x1 PUSH1 0x40 SHL SUB SWAP3 PUSH4 0xFFFFFFFF PUSH2 0x3D1D PUSH1 0x40 MLOAD SWAP8 DUP9 SWAP7 DUP8 SWAP7 PUSH4 0x230E93B1 PUSH1 0xE1 SHL DUP9 MSTORE AND PUSH1 0x4 DUP8 ADD MSTORE PUSH1 0xA0 PUSH1 0x24 DUP8 ADD MSTORE PUSH1 0xA4 DUP7 ADD SWAP1 PUSH2 0x58C JUMP JUMPDEST PUSH1 0x1 PUSH1 0x44 DUP7 ADD MSTORE SWAP3 AND PUSH1 0x64 DUP5 ADD MSTORE PUSH1 0x84 DUP4 ADD MSTORE SUB DUP2 PUSH1 0x0 PUSH32 0x0 PUSH1 0x1 PUSH1 0x1 PUSH1 0xA0 SHL SUB AND GAS CALL SWAP1 DUP2 ISZERO PUSH2 0x1026 JUMPI PUSH1 0x0 SWAP2 PUSH2 0x3D99 JUMPI JUMPDEST POP DUP1 PUSH32 0x1131472297A800FEE664D1D89CFA8F7676FF07189ECC53F80BBB5F4969099DB8 PUSH1 0x0 DUP1 LOG2 SWAP1 JUMP JUMPDEST PUSH2 0x3DB2 SWAP2 POP PUSH1 0x20 RETURNDATASIZE PUSH1 0x20 GT PUSH2 0x101F JUMPI PUSH2 0x1017 DUP2 DUP4 PUSH2 0x34E JUMP JUMPDEST CODESIZE PUSH2 0x3D6F JUMP JUMPDEST PUSH1 0x40 MLOAD SWAP1 PUSH4 0x125FA267 PUSH1 0xE3 SHL PUSH1 0x20 DUP4 ADD MSTORE MLOAD ISZERO ISZERO PUSH1 0x24 DUP3 ADD MSTORE PUSH1 0x24 DUP2 MSTORE PUSH2 0x43B DUP2 PUSH2 0x333 JUMP JUMPDEST SWAP3 SWAP1 SWAP2 PUSH2 0x3DE9 PUSH2 0x2896 JUMP JUMPDEST SWAP3 DUP1 MLOAD ISZERO PUSH2 0x3EDA JUMPI DUP4 PUSH2 0x2BCF PUSH2 0x3E89 SWAP4 PUSH2 0x3E76 PUSH2 0x2C1D SWAP7 PUSH2 0x2BD4 SWAP6 PUSH1 0x0 PUSH32 0x89652D00E157965D54F5AD31AF9352416C4E90B879711EC122680D4E3A1DE9A6 SWAP11 MSTORE PUSH1 0x0 PUSH1 0x40 DUP8 ADD MSTORE PUSH1 0x60 DUP7 ADD MSTORE PUSH2 0x3E63 PUSH2 0x3E40 PUSH2 0x2904 JUMP JUMPDEST SWAP4 PUSH2 0x3E4A DUP13 PUSH2 0x391B JUMP JUMPDEST PUSH2 0x3E53 DUP7 PUSH2 0x1DBA JUMP JUMPDEST MSTORE PUSH2 0x3E5D DUP6 PUSH2 0x1DBA JUMP JUMPDEST POP PUSH2 0x391B JUMP JUMPDEST PUSH2 0x3E6C DUP5 PUSH2 0x1DCC JUMP JUMPDEST MSTORE PUSH2 0x3E5D DUP4 PUSH2 0x1DCC JUMP JUMPDEST PUSH2 0x3E7F DUP3 PUSH2 0x1DDC JUMP JUMPDEST MSTORE PUSH2 0x2BC8 DUP2 PUSH2 0x1DDC JUMP JUMPDEST SWAP3 PUSH2 0x3E93 DUP2 PUSH2 0x286C JUMP JUMPDEST PUSH2 0x3EA7 DUP6 PUSH1 0x0 MSTORE PUSH1 0x4 PUSH1 0x20 MSTORE PUSH1 0x40 PUSH1 0x0 KECCAK256 SWAP1 JUMP JUMPDEST SSTORE PUSH1 0x40 MLOAD SWAP2 DUP3 SWAP2 DUP3 SWAP2 SWAP1 PUSH1 0x40 DUP4 MSTORE PUSH1 0xA PUSH1 0x40 DUP5 ADD MSTORE PUSH10 0xDCDEECC25AC4C2E8C6D PUSH1 0xB3 SHL PUSH1 0x60 DUP5 ADD MSTORE PUSH1 0x20 PUSH1 0x80 DUP5 ADD SWAP4 ADD MSTORE JUMP JUMPDEST PUSH1 0x40 MLOAD PUSH4 0x22CE3EDD PUSH1 0xE0 SHL DUP2 MSTORE PUSH1 0x4 SWAP1 REVERT JUMPDEST DUP2 MLOAD ISZERO PUSH2 0x3EDA JUMPI PUSH1 0x0 DUP1 DUP3 MSTORE PUSH1 0x40 DUP3 ADD MSTORE PUSH1 0x60 ADD MSTORE JUMP JUMPDEST PUSH1 0x40 MLOAD SWAP1 PUSH2 0x3F10 DUP3 PUSH2 0x2FD JUMP JUMPDEST PUSH1 0x0 PUSH1 0x20 DUP4 PUSH1 0x60 DUP2 MSTORE ADD MSTORE JUMP JUMPDEST PUSH1 0x40 MLOAD PUSH2 0x3F29 DUP2 PUSH2 0x2FD JUMP JUMPDEST PUSH2 0x3F31 PUSH2 0x3F03 JUMP JUMPDEST DUP1 DUP3 MSTORE PUSH1 0x20 DUP3 ADD PUSH1 0x0 DUP2 MSTORE PUSH2 0x3F44 PUSH2 0x3F03 JUMP JUMPDEST POP PUSH2 0x100 PUSH1 0x20 DUP4 ADD MSTORE PUSH1 0x40 MLOAD DUP1 SWAP3 MSTORE PUSH1 0x0 DUP3 MSTORE PUSH2 0x120 DUP3 ADD SWAP2 DUP3 LT PUSH2 0x41B JUMPI PUSH1 0x0 SWAP2 PUSH1 0x40 MSTORE MSTORE SWAP1 JUMP JUMPDEST DUP2 MLOAD PUSH2 0x3FB1 SWAP3 SWAP2 SWAP1 PUSH1 0x1 PUSH1 0x1 PUSH1 0x40 SHL SUB DUP2 AND SWAP1 PUSH1 0x17 DUP3 GT PUSH2 0x3FB4 JUMPI PUSH2 0x3F9C SWAP2 POP PUSH1 0x60 PUSH1 0xFF DUP5 MLOAD SWAP3 AND OR SWAP1 PUSH2 0x46B7 JUMP JUMPDEST POP JUMPDEST MLOAD SWAP1 PUSH2 0x3FA8 PUSH2 0x3F03 JUMP JUMPDEST POP DUP1 MLOAD SWAP2 PUSH2 0x48E7 JUMP JUMPDEST POP JUMP JUMPDEST POP PUSH1 0xFF DUP2 GT PUSH2 0x3FD9 JUMPI PUSH2 0x3FD3 SWAP1 PUSH2 0x3FCB DUP4 MLOAD PUSH2 0x44BE JUMP JUMPDEST POP DUP3 MLOAD PUSH2 0x4873 JUMP JUMPDEST POP PUSH2 0x3F9E JUMP JUMPDEST PUSH2 0xFFFF DUP2 GT PUSH2 0x3FF8 JUMPI PUSH2 0x3FD3 SWAP1 PUSH2 0x3FF0 DUP4 MLOAD PUSH2 0x4459 JUMP JUMPDEST POP DUP3 MLOAD PUSH2 0x4805 JUMP JUMPDEST PUSH4 0xFFFFFFFF DUP2 GT PUSH2 0x4019 JUMPI PUSH2 0x3FD3 SWAP1 PUSH2 0x4011 DUP4 MLOAD PUSH2 0x43F4 JUMP JUMPDEST POP DUP3 MLOAD PUSH2 0x4795 JUMP JUMPDEST PUSH2 0x3FD3 SWAP1 PUSH2 0x4027 DUP4 MLOAD PUSH2 0x4384 JUMP JUMPDEST POP DUP3 MLOAD PUSH2 0x4722 JUMP JUMPDEST SWAP1 DUP2 MLOAD SWAP2 PUSH2 0x403B PUSH2 0x3F03 JUMP JUMPDEST POP DUP3 MLOAD MLOAD PUSH1 0x1 DUP2 ADD SWAP1 DUP2 DUP2 GT PUSH2 0x516 JUMPI PUSH1 0x20 DUP6 ADD MLOAD DUP2 LT ISZERO PUSH2 0x4094 JUMPI JUMPDEST PUSH1 0xC2 PUSH1 0x20 PUSH2 0x37C SWAP7 MLOAD SWAP3 DUP4 ADD ADD MSTORE8 DUP1 MLOAD DUP3 GT PUSH2 0x408C JUMPI JUMPDEST POP POP PUSH1 0x40 MLOAD SWAP2 PUSH1 0x20 DUP4 ADD MSTORE PUSH1 0x20 DUP3 MSTORE PUSH2 0x4087 DUP3 PUSH2 0x2FD JUMP JUMPDEST PUSH2 0x41E9 JUMP JUMPDEST MSTORE CODESIZE DUP1 PUSH2 0x406F JUMP JUMPDEST DUP2 PUSH1 0x1 SHL SWAP5 DUP3 DUP7 DIV PUSH1 0x2 EQ DUP4 ISZERO OR ISZERO PUSH2 0x516 JUMPI PUSH1 0x20 DUP2 PUSH2 0x40C6 PUSH2 0x37C SWAP9 PUSH2 0x40BF PUSH1 0xC2 SWAP6 MLOAD SWAP2 DUP5 PUSH2 0x426D JUMP JUMPDEST POP DUP3 PUSH2 0x42BF JUMP JUMPDEST POP SWAP7 POP POP POP PUSH2 0x4058 JUMP JUMPDEST DUP1 MLOAD SWAP1 PUSH2 0x40DB PUSH2 0x3F03 JUMP JUMPDEST POP DUP2 MLOAD MLOAD PUSH1 0x1 DUP2 ADD SWAP1 DUP2 DUP2 GT PUSH2 0x516 JUMPI PUSH1 0x20 DUP5 ADD MLOAD DUP2 LT ISZERO PUSH2 0x4129 JUMPI JUMPDEST PUSH1 0x9F PUSH1 0x20 DUP1 SWAP6 MLOAD SWAP3 DUP4 ADD ADD MSTORE8 DUP1 MLOAD DUP3 GT PUSH2 0x4121 JUMPI JUMPDEST POP POP ADD DUP1 MLOAD SWAP1 PUSH1 0x1 DUP3 ADD DUP1 SWAP3 GT PUSH2 0x516 JUMPI MSTORE JUMP JUMPDEST MSTORE CODESIZE DUP1 PUSH2 0x410D JUMP JUMPDEST DUP2 PUSH1 0x1 SHL SWAP4 DUP3 DUP6 DIV PUSH1 0x2 EQ DUP4 ISZERO OR ISZERO PUSH2 0x516 JUMPI PUSH1 0x20 DUP2 PUSH2 0x4152 DUP3 SWAP8 PUSH2 0x40BF PUSH1 0x9F SWAP6 MLOAD SWAP2 DUP5 PUSH2 0x426D JUMP JUMPDEST POP SWAP6 POP POP POP PUSH2 0x40F8 JUMP JUMPDEST DUP1 MLOAD SWAP1 PUSH2 0x4167 PUSH2 0x3F03 JUMP JUMPDEST POP DUP2 MLOAD MLOAD PUSH1 0x1 DUP2 ADD SWAP1 DUP2 DUP2 GT PUSH2 0x516 JUMPI PUSH1 0x20 DUP5 ADD MLOAD DUP2 LT ISZERO PUSH2 0x41B6 JUMPI JUMPDEST PUSH1 0xFF PUSH1 0x20 DUP1 SWAP6 MLOAD SWAP3 DUP4 ADD ADD MSTORE8 DUP1 MLOAD DUP3 GT PUSH2 0x41AE JUMPI JUMPDEST POP POP ADD DUP1 MLOAD PUSH1 0x0 NOT DUP2 ADD SWAP2 SWAP1 DUP3 GT PUSH2 0x516 JUMPI MSTORE JUMP JUMPDEST MSTORE CODESIZE DUP1 PUSH2 0x4199 JUMP JUMPDEST DUP2 PUSH1 0x1 SHL SWAP4 DUP3 DUP6 DIV PUSH1 0x2 EQ DUP4 ISZERO OR ISZERO PUSH2 0x516 JUMPI PUSH1 0x20 DUP2 PUSH2 0x41DF DUP3 SWAP8 PUSH2 0x40BF PUSH1 0xFF SWAP6 MLOAD SWAP2 DUP5 PUSH2 0x426D JUMP JUMPDEST POP SWAP6 POP POP POP PUSH2 0x4184 JUMP JUMPDEST DUP2 MLOAD PUSH2 0x3FB1 SWAP3 SWAP2 SWAP1 PUSH1 0x1 PUSH1 0x1 PUSH1 0x40 SHL SUB DUP2 AND SWAP1 PUSH1 0x17 DUP3 GT PUSH2 0x4218 JUMPI PUSH2 0x3F9C SWAP2 POP PUSH1 0x40 PUSH1 0xFF DUP5 MLOAD SWAP3 AND OR SWAP1 PUSH2 0x46B7 JUMP JUMPDEST POP PUSH1 0xFF DUP2 GT PUSH2 0x422F JUMPI PUSH2 0x3FD3 SWAP1 PUSH2 0x3FCB DUP4 MLOAD PUSH2 0x4652 JUMP JUMPDEST PUSH2 0xFFFF DUP2 GT PUSH2 0x4246 JUMPI PUSH2 0x3FD3 SWAP1 PUSH2 0x3FF0 DUP4 MLOAD PUSH2 0x45ED JUMP JUMPDEST PUSH4 0xFFFFFFFF DUP2 GT PUSH2 0x425F JUMPI PUSH2 0x3FD3 SWAP1 PUSH2 0x4011 DUP4 MLOAD PUSH2 0x4588 JUMP JUMPDEST PUSH2 0x3FD3 SWAP1 PUSH2 0x4027 DUP4 MLOAD PUSH2 0x4523 JUMP JUMPDEST SWAP1 PUSH2 0x4276 PUSH2 0x3F03 JUMP JUMPDEST POP PUSH1 0x1F DUP2 AND DUP1 PUSH2 0x42A5 JUMPI JUMPDEST POP DUP1 PUSH1 0x20 DUP4 ADD MSTORE PUSH1 0x40 MLOAD SWAP1 DUP2 DUP4 MSTORE PUSH1 0x0 DUP3 MSTORE DUP2 ADD PUSH1 0x20 ADD SWAP1 DUP2 LT PUSH2 0x41B JUMPI PUSH1 0x40 MSTORE SWAP1 JUMP JUMPDEST PUSH1 0x20 SUB PUSH1 0x20 DUP2 GT PUSH2 0x516 JUMPI DUP2 ADD DUP1 SWAP2 GT PUSH2 0x516 JUMPI CODESIZE PUSH2 0x4281 JUMP JUMPDEST SWAP1 PUSH2 0x42C8 PUSH2 0x3F03 JUMP JUMPDEST POP DUP1 MLOAD SWAP1 PUSH2 0x42D4 PUSH2 0x3F03 JUMP JUMPDEST POP PUSH2 0x42E2 DUP2 MLOAD DUP4 GT ISZERO PUSH2 0x48E0 JUMP JUMPDEST DUP3 MLOAD MLOAD SWAP2 PUSH2 0x42F0 DUP2 DUP5 PUSH2 0x2889 JUMP JUMPDEST PUSH1 0x20 SWAP3 PUSH1 0x20 DUP7 ADD MLOAD DUP3 GT PUSH2 0x436D JUMPI JUMPDEST PUSH1 0x20 SWAP2 DUP7 MLOAD DUP4 DUP2 MLOAD SWAP8 DUP3 ADD ADD SWAP7 DUP3 GT PUSH2 0x4365 JUMPI JUMPDEST POP POP ADD SWAP2 JUMPDEST DUP1 DUP3 LT ISZERO PUSH2 0x433D JUMPI POP PUSH1 0x0 NOT SWAP1 PUSH1 0x20 SUB PUSH2 0x100 EXP ADD SWAP1 DUP2 NOT SWAP1 MLOAD AND SWAP1 DUP3 MLOAD AND OR SWAP1 MSTORE SWAP1 JUMP JUMPDEST SWAP1 SWAP2 SWAP3 PUSH2 0x4359 PUSH2 0x4353 PUSH2 0x435F SWAP3 DUP7 MLOAD DUP2 MSTORE PUSH2 0x287B JUMP JUMPDEST SWAP5 PUSH2 0x287B JUMP JUMPDEST SWAP3 PUSH2 0x1B25 JUMP JUMPDEST SWAP1 PUSH2 0x4318 JUMP JUMPDEST MSTORE CODESIZE DUP1 PUSH2 0x4313 JUMP JUMPDEST PUSH2 0x437F PUSH2 0x4379 DUP4 PUSH2 0x1EC3 JUMP JUMPDEST DUP8 PUSH2 0x4993 JUMP JUMPDEST PUSH2 0x42FF JUMP JUMPDEST PUSH2 0x438C PUSH2 0x3F03 JUMP JUMPDEST POP DUP1 MLOAD MLOAD PUSH1 0x1 DUP2 ADD SWAP1 DUP2 DUP2 GT PUSH2 0x516 JUMPI PUSH1 0x20 DUP4 ADD MLOAD DUP2 LT ISZERO PUSH2 0x43C5 JUMPI JUMPDEST PUSH1 0x7B PUSH1 0x20 DUP5 MLOAD SWAP3 DUP4 ADD ADD MSTORE8 DUP1 MLOAD DUP3 GT PUSH2 0x43C1 JUMPI POP POP SWAP1 JUMP JUMPDEST MSTORE SWAP1 JUMP JUMPDEST DUP2 PUSH1 0x1 SHL DUP3 DUP2 DIV PUSH1 0x2 EQ DUP4 ISZERO OR ISZERO PUSH2 0x516 JUMPI PUSH2 0x43EE SWAP1 PUSH2 0x43E7 DUP6 MLOAD SWAP2 DUP7 PUSH2 0x426D JUMP JUMPDEST POP DUP5 PUSH2 0x42BF JUMP JUMPDEST POP PUSH2 0x43A9 JUMP JUMPDEST PUSH2 0x43FC PUSH2 0x3F03 JUMP JUMPDEST POP DUP1 MLOAD MLOAD PUSH1 0x1 DUP2 ADD SWAP1 DUP2 DUP2 GT PUSH2 0x516 JUMPI PUSH1 0x20 DUP4 ADD MLOAD DUP2 LT ISZERO PUSH2 0x4431 JUMPI JUMPDEST PUSH1 0x7A PUSH1 0x20 DUP5 MLOAD SWAP3 DUP4 ADD ADD MSTORE8 DUP1 MLOAD DUP3 GT PUSH2 0x43C1 JUMPI POP POP SWAP1 JUMP JUMPDEST DUP2 PUSH1 0x1 SHL DUP3 DUP2 DIV PUSH1 0x2 EQ DUP4 ISZERO OR ISZERO PUSH2 0x516 JUMPI PUSH2 0x4453 SWAP1 PUSH2 0x43E7 DUP6 MLOAD SWAP2 DUP7 PUSH2 0x426D JUMP JUMPDEST POP PUSH2 0x4419 JUMP JUMPDEST PUSH2 0x4461 PUSH2 0x3F03 JUMP JUMPDEST POP DUP1 MLOAD MLOAD PUSH1 0x1 DUP2 ADD SWAP1 DUP2 DUP2 GT PUSH2 0x516 JUMPI PUSH1 0x20 DUP4 ADD MLOAD DUP2 LT ISZERO PUSH2 0x4496 JUMPI JUMPDEST PUSH1 0x79 PUSH1 0x20 DUP5 MLOAD SWAP3 DUP4 ADD ADD MSTORE8 DUP1 MLOAD DUP3 GT PUSH2 0x43C1 JUMPI POP POP SWAP1 JUMP JUMPDEST DUP2 PUSH1 0x1 SHL DUP3 DUP2 DIV PUSH1 0x2 EQ DUP4 ISZERO OR ISZERO PUSH2 0x516 JUMPI PUSH2 0x44B8 SWAP1 PUSH2 0x43E7 DUP6 MLOAD SWAP2 DUP7 PUSH2 0x426D JUMP JUMPDEST POP PUSH2 0x447E JUMP JUMPDEST PUSH2 0x44C6 PUSH2 0x3F03 JUMP JUMPDEST POP DUP1 MLOAD MLOAD PUSH1 0x1 DUP2 ADD SWAP1 DUP2 DUP2 GT PUSH2 0x516 JUMPI PUSH1 0x20 DUP4 ADD MLOAD DUP2 LT ISZERO PUSH2 0x44FB JUMPI JUMPDEST PUSH1 0x78 PUSH1 0x20 DUP5 MLOAD SWAP3 DUP4 ADD ADD MSTORE8 DUP1 MLOAD DUP3 GT PUSH2 0x43C1 JUMPI POP POP SWAP1 JUMP JUMPDEST DUP2 PUSH1 0x1 SHL DUP3 DUP2 DIV PUSH1 0x2 EQ DUP4 ISZERO OR ISZERO PUSH2 0x516 JUMPI PUSH2 0x451D SWAP1 PUSH2 0x43E7 DUP6 MLOAD SWAP2 DUP7 PUSH2 0x426D JUMP JUMPDEST POP PUSH2 0x44E3 JUMP JUMPDEST PUSH2 0x452B PUSH2 0x3F03 JUMP JUMPDEST POP DUP1 MLOAD MLOAD PUSH1 0x1 DUP2 ADD SWAP1 DUP2 DUP2 GT PUSH2 0x516 JUMPI PUSH1 0x20 DUP4 ADD MLOAD DUP2 LT ISZERO PUSH2 0x4560 JUMPI JUMPDEST PUSH1 0x5B PUSH1 0x20 DUP5 MLOAD SWAP3 DUP4 ADD ADD MSTORE8 DUP1 MLOAD DUP3 GT PUSH2 0x43C1 JUMPI POP POP SWAP1 JUMP JUMPDEST DUP2 PUSH1 0x1 SHL DUP3 DUP2 DIV PUSH1 0x2 EQ DUP4 ISZERO OR ISZERO PUSH2 0x516 JUMPI PUSH2 0x4582 SWAP1 PUSH2 0x43E7 DUP6 MLOAD SWAP2 DUP7 PUSH2 0x426D JUMP JUMPDEST POP PUSH2 0x4548 JUMP JUMPDEST PUSH2 0x4590 PUSH2 0x3F03 JUMP JUMPDEST POP DUP1 MLOAD MLOAD PUSH1 0x1 DUP2 ADD SWAP1 DUP2 DUP2 GT PUSH2 0x516 JUMPI PUSH1 0x20 DUP4 ADD MLOAD DUP2 LT ISZERO PUSH2 0x45C5 JUMPI JUMPDEST PUSH1 0x5A PUSH1 0x20 DUP5 MLOAD SWAP3 DUP4 ADD ADD MSTORE8 DUP1 MLOAD DUP3 GT PUSH2 0x43C1 JUMPI POP POP SWAP1 JUMP JUMPDEST DUP2 PUSH1 0x1 SHL DUP3 DUP2 DIV PUSH1 0x2 EQ DUP4 ISZERO OR ISZERO PUSH2 0x516 JUMPI PUSH2 0x45E7 SWAP1 PUSH2 0x43E7 DUP6 MLOAD SWAP2 DUP7 PUSH2 0x426D JUMP JUMPDEST POP PUSH2 0x45AD JUMP JUMPDEST PUSH2 0x45F5 PUSH2 0x3F03 JUMP JUMPDEST POP DUP1 MLOAD MLOAD PUSH1 0x1 DUP2 ADD SWAP1 DUP2 DUP2 GT PUSH2 0x516 JUMPI PUSH1 0x20 DUP4 ADD MLOAD DUP2 LT ISZERO PUSH2 0x462A JUMPI JUMPDEST PUSH1 0x59 PUSH1 0x20 DUP5 MLOAD SWAP3 DUP4 ADD ADD MSTORE8 DUP1 MLOAD DUP3 GT PUSH2 0x43C1 JUMPI POP POP SWAP1 JUMP JUMPDEST DUP2 PUSH1 0x1 SHL DUP3 DUP2 DIV PUSH1 0x2 EQ DUP4 ISZERO OR ISZERO PUSH2 0x516 JUMPI PUSH2 0x464C SWAP1 PUSH2 0x43E7 DUP6 MLOAD SWAP2 DUP7 PUSH2 0x426D JUMP JUMPDEST POP PUSH2 0x4612 JUMP JUMPDEST PUSH2 0x465A PUSH2 0x3F03 JUMP JUMPDEST POP DUP1 MLOAD MLOAD PUSH1 0x1 DUP2 ADD SWAP1 DUP2 DUP2 GT PUSH2 0x516 JUMPI PUSH1 0x20 DUP4 ADD MLOAD DUP2 LT ISZERO PUSH2 0x468F JUMPI JUMPDEST PUSH1 0x58 PUSH1 0x20 DUP5 MLOAD SWAP3 DUP4 ADD ADD MSTORE8 DUP1 MLOAD DUP3 GT PUSH2 0x43C1 JUMPI POP POP SWAP1 JUMP JUMPDEST DUP2 PUSH1 0x1 SHL DUP3 DUP2 DIV PUSH1 0x2 EQ DUP4 ISZERO OR ISZERO PUSH2 0x516 JUMPI PUSH2 0x46B1 SWAP1 PUSH2 0x43E7 DUP6 MLOAD SWAP2 DUP7 PUSH2 0x426D JUMP JUMPDEST POP PUSH2 0x4677 JUMP JUMPDEST SWAP1 PUSH2 0x46C0 PUSH2 0x3F03 JUMP JUMPDEST POP DUP2 MLOAD MLOAD PUSH1 0x1 DUP2 ADD SWAP2 DUP3 DUP3 GT PUSH2 0x516 JUMPI PUSH1 0x20 DUP5 ADD MLOAD DUP3 LT ISZERO PUSH2 0x46F3 JUMPI JUMPDEST PUSH1 0x20 DUP5 MLOAD SWAP3 DUP4 ADD ADD MSTORE8 DUP1 MLOAD DUP3 GT PUSH2 0x43C1 JUMPI POP POP SWAP1 JUMP JUMPDEST DUP3 PUSH1 0x1 SHL DUP4 DUP2 DIV PUSH1 0x2 EQ DUP5 ISZERO OR ISZERO PUSH2 0x516 JUMPI PUSH2 0x471C SWAP1 PUSH2 0x4715 DUP7 MLOAD SWAP2 DUP8 PUSH2 0x426D JUMP JUMPDEST POP DUP6 PUSH2 0x42BF JUMP JUMPDEST POP PUSH2 0x46DD JUMP JUMPDEST SWAP1 PUSH2 0x472B PUSH2 0x3F03 JUMP JUMPDEST POP DUP2 MLOAD MLOAD DUP1 PUSH1 0x8 ADD SWAP2 DUP3 PUSH1 0x8 GT PUSH2 0x516 JUMPI PUSH1 0x20 DUP5 ADD MLOAD DUP4 GT PUSH2 0x476D JUMPI JUMPDEST PUSH1 0x8 DUP5 MLOAD SWAP3 DUP4 ADD ADD SWAP1 PUSH1 0x1 PUSH1 0x1 PUSH1 0x40 SHL SUB NOT DUP3 MLOAD AND OR SWAP1 MSTORE DUP1 MLOAD DUP3 GT PUSH2 0x43C1 JUMPI POP POP SWAP1 JUMP JUMPDEST DUP3 PUSH1 0x1 SHL DUP4 DUP2 DIV PUSH1 0x2 EQ DUP5 ISZERO OR ISZERO PUSH2 0x516 JUMPI PUSH2 0x478F SWAP1 PUSH2 0x4715 DUP7 MLOAD SWAP2 DUP8 PUSH2 0x426D JUMP JUMPDEST POP PUSH2 0x4748 JUMP JUMPDEST SWAP1 PUSH2 0x479E PUSH2 0x3F03 JUMP JUMPDEST POP DUP2 MLOAD MLOAD DUP1 PUSH1 0x4 ADD SWAP2 DUP3 PUSH1 0x4 GT PUSH2 0x516 JUMPI PUSH1 0x20 DUP5 ADD MLOAD DUP4 GT PUSH2 0x47DD JUMPI JUMPDEST PUSH1 0x4 DUP5 MLOAD SWAP3 DUP4 ADD ADD SWAP1 PUSH4 0xFFFFFFFF NOT DUP3 MLOAD AND OR SWAP1 MSTORE DUP1 MLOAD DUP3 GT PUSH2 0x43C1 JUMPI POP POP SWAP1 JUMP JUMPDEST DUP3 PUSH1 0x1 SHL DUP4 DUP2 DIV PUSH1 0x2 EQ DUP5 ISZERO OR ISZERO PUSH2 0x516 JUMPI PUSH2 0x47FF SWAP1 PUSH2 0x4715 DUP7 MLOAD SWAP2 DUP8 PUSH2 0x426D JUMP JUMPDEST POP PUSH2 0x47BB JUMP JUMPDEST SWAP1 PUSH2 0x480E PUSH2 0x3F03 JUMP JUMPDEST POP DUP2 MLOAD MLOAD DUP1 PUSH1 0x2 ADD SWAP2 DUP3 PUSH1 0x2 GT PUSH2 0x516 JUMPI PUSH1 0x20 DUP5 ADD MLOAD DUP4 GT PUSH2 0x484B JUMPI JUMPDEST PUSH1 0x2 DUP5 MLOAD SWAP3 DUP4 ADD ADD SWAP1 PUSH2 0xFFFF NOT DUP3 MLOAD AND OR SWAP1 MSTORE DUP1 MLOAD DUP3 GT PUSH2 0x43C1 JUMPI POP POP SWAP1 JUMP JUMPDEST DUP3 PUSH1 0x1 SHL DUP4 DUP2 DIV PUSH1 0x2 EQ DUP5 ISZERO OR ISZERO PUSH2 0x516 JUMPI PUSH2 0x486D SWAP1 PUSH2 0x4715 DUP7 MLOAD SWAP2 DUP8 PUSH2 0x426D JUMP JUMPDEST POP PUSH2 0x482B JUMP JUMPDEST SWAP1 PUSH2 0x487C PUSH2 0x3F03 JUMP JUMPDEST POP DUP2 MLOAD MLOAD DUP1 PUSH1 0x1 ADD SWAP2 DUP3 PUSH1 0x1 GT PUSH2 0x516 JUMPI PUSH1 0x20 DUP5 ADD MLOAD DUP4 GT PUSH2 0x48B8 JUMPI JUMPDEST PUSH1 0x1 DUP5 MLOAD SWAP3 DUP4 ADD ADD SWAP1 PUSH1 0xFF NOT DUP3 MLOAD AND OR SWAP1 MSTORE DUP1 MLOAD DUP3 GT PUSH2 0x43C1 JUMPI POP POP SWAP1 JUMP JUMPDEST DUP3 PUSH1 0x1 SHL DUP4 DUP2 DIV PUSH1 0x2 EQ DUP5 ISZERO OR ISZERO PUSH2 0x516 JUMPI PUSH2 0x48DA SWAP1 PUSH2 0x4715 DUP7 MLOAD SWAP2 DUP8 PUSH2 0x426D JUMP JUMPDEST POP PUSH2 0x4899 JUMP JUMPDEST ISZERO PUSH2 0x41B JUMPI JUMP JUMPDEST SWAP2 SWAP1 PUSH2 0x48F1 PUSH2 0x3F03 JUMP JUMPDEST POP PUSH2 0x48FF DUP2 MLOAD DUP4 GT ISZERO PUSH2 0x48E0 JUMP JUMPDEST DUP3 MLOAD MLOAD SWAP2 PUSH1 0x20 PUSH2 0x490F DUP3 DUP6 PUSH2 0x2889 JUMP JUMPDEST SWAP3 DUP2 SWAP4 DUP3 DUP8 ADD MLOAD DUP2 GT PUSH2 0x497C JUMPI JUMPDEST DUP7 MLOAD DUP4 DUP2 MLOAD SWAP8 DUP3 ADD ADD SWAP7 DUP3 GT PUSH2 0x4974 JUMPI JUMPDEST POP POP ADD SWAP2 JUMPDEST DUP1 DUP3 LT ISZERO PUSH2 0x4958 JUMPI POP PUSH1 0x0 NOT SWAP1 PUSH1 0x20 SUB PUSH2 0x100 EXP ADD SWAP1 DUP2 NOT SWAP1 MLOAD AND SWAP1 DUP3 MLOAD AND OR SWAP1 MSTORE SWAP1 JUMP JUMPDEST SWAP1 SWAP2 SWAP3 PUSH2 0x4359 PUSH2 0x4353 PUSH2 0x496E SWAP3 DUP7 MLOAD DUP2 MSTORE PUSH2 0x287B JUMP JUMPDEST SWAP1 PUSH2 0x4933 JUMP JUMPDEST MSTORE CODESIZE DUP1 PUSH2 0x492E JUMP JUMPDEST PUSH2 0x498E PUSH2 0x4988 DUP3 PUSH2 0x1EC3 JUMP JUMPDEST DUP9 PUSH2 0x4993 JUMP JUMPDEST PUSH2 0x491D JUMP JUMPDEST SWAP1 PUSH2 0x3FB1 SWAP2 PUSH2 0x49A4 DUP2 MLOAD SWAP3 DUP3 PUSH2 0x426D JUMP JUMPDEST POP PUSH2 0x42BF JUMP INVALID LOG2 PUSH5 0x6970667358 0x22 SLT KECCAK256 PUSH11 0x1CF55DE4812777033FB9E7 0x24 0xD2 0xD8 0xFC 0xE2 0xB7 0x2B 0xEC 0xB6 GT 0xDD MSIZE 0x26 0xCF BALANCE BLOBBASEFEE PUSH25 0x477A6664736F6C634300081800330000000000000000000000 "},"methodIdentifiers":{"acceptOwnership()":"79ba5097","aggregateProofs(bytes[],bytes[])":"d175d81a","aggregatedProofHashes(uint256,uint256)":"39a9e4b3","authorizedCallers(address)":"536fff6c","batchCounter()":"68233eef","checkUpkeep(bytes)":"6e04ff0d","continueRecursiveFolding(uint256)":"683dd777","contractOwner()":"ce606ee0","functionsRequestToProofId(bytes32)":"56959332","getFoldedInstance(uint256)":"fa0c7a18","getProofRequest(uint256)":"152a9526","getRecursiveProofBatch(uint256)":"84a088e5","getSubscriptionId()":"de3d9fb7","groth16Verifier()":"19c813be","handleOracleFulfillment(bytes32,bytes,bytes)":"0ca76175","isStateVerified(bytes32)":"a9431f23","lastUpkeepTimestamp()":"624cffd4","maxProofsPerBatch()":"57aabcac","maxRecursionDepth()":"457b2e41","minProofsPerBatch()":"e2ecf1e2","novaVerifier()":"28606775","owner()":"8da5cb5b","performUpkeep(bytes)":"4585e33b","proofRequests(uint256)":"25825746","proofToBatch(uint256)":"10a14c40","rawFulfillRandomWords(uint256,uint256[])":"1fe543e3","recursiveProofBatches(uint256)":"223b6637","requestCounter()":"973a814e","requestProofVerification(string,uint256)":"57efe032","s_vrfCoordinator()":"9eccacf6","setAuthorizedCaller(address,bool)":"454bbd29","setCoordinator(address)":"8ea98117","setFunctionsConfig(uint64,uint32,bytes32)":"1bd6447a","setUpkeepInterval(uint256)":"72e4c9f6","setVRFConfig(uint256,bytes32,uint32)":"b5cce133","startNovaFolding(uint256[])":"62625bc1","transferOwnership(address)":"f2fde38b","updateRecursionParams(uint256,uint256,uint256)":"2091f938","upkeepInterval()":"5a74373c","usedNullifiers(bytes32)":"206137aa","usedProofHashes(bytes32)":"d87318b2","verifiedProofs(bytes32)":"176d80c4","verifyNovaProof(uint256,bytes)":"3f5ef0de"}}}}}