{"contracts/ZKProofAggregator.sol":{"ZKProofAggregator":{"abi":[{"inputs":[{"internalType":"address","name":"vrfCoordinator","type":"address"},{"internalType":"address","name":"functionsRouter","type":"address"},{"internalType":"uint256","name":"vrfSubscriptionId","type":"uint256"},{"internalType":"bytes32","name":"vrfKeyHash","type":"bytes32"},{"internalType":"uint64","name":"functionsSubscriptionId","type":"uint64"},{"internalType":"bytes32","name":"functionsDonId","type":"bytes32"},{"internalType":"address","name":"groth16VerifierAddress","type":"address"}],"stateMutability":"nonpayable","type":"constructor"},{"inputs":[],"name":"EmptyArgs","type":"error"},{"inputs":[],"name":"EmptySource","type":"error"},{"inputs":[],"name":"NoInlineSecrets","type":"error"},{"inputs":[{"internalType":"address","name":"have","type":"address"},{"internalType":"address","name":"want","type":"address"}],"name":"OnlyCoordinatorCanFulfill","type":"error"},{"inputs":[{"internalType":"address","name":"have","type":"address"},{"internalType":"address","name":"owner","type":"address"},{"internalType":"address","name":"coordinator","type":"address"}],"name":"OnlyOwnerOrCoordinator","type":"error"},{"inputs":[],"name":"OnlyRouterCanFulfill","type":"error"},{"inputs":[],"name":"ZeroAddress","type":"error"},{"anonymous":false,"inputs":[{"indexed":false,"internalType":"address","name":"vrfCoordinator","type":"address"}],"name":"CoordinatorSet","type":"event"},{"anonymous":false,"inputs":[{"indexed":true,"internalType":"bytes32","name":"requestId","type":"bytes32"},{"indexed":false,"internalType":"string","name":"sourceChain","type":"string"},{"indexed":false,"internalType":"uint256","name":"blockNumber","type":"uint256"}],"name":"FunctionsRequestSent","type":"event"},{"anonymous":false,"inputs":[{"indexed":true,"internalType":"bytes32","name":"requestId","type":"bytes32"},{"indexed":false,"internalType":"bytes","name":"proof","type":"bytes"},{"indexed":false,"internalType":"bytes","name":"publicInputs","type":"bytes"}],"name":"FunctionsResponseReceived","type":"event"},{"anonymous":false,"inputs":[{"indexed":true,"internalType":"address","name":"from","type":"address"},{"indexed":true,"internalType":"address","name":"to","type":"address"}],"name":"OwnershipTransferRequested","type":"event"},{"anonymous":false,"inputs":[{"indexed":true,"internalType":"address","name":"from","type":"address"},{"indexed":true,"internalType":"address","name":"to","type":"address"}],"name":"OwnershipTransferred","type":"event"},{"anonymous":false,"inputs":[{"indexed":true,"internalType":"uint256","name":"requestId","type":"uint256"},{"indexed":true,"internalType":"address","name":"requester","type":"address"},{"indexed":false,"internalType":"uint256","name":"blockNumber","type":"uint256"}],"name":"ProofRequested","type":"event"},{"anonymous":false,"inputs":[{"indexed":true,"internalType":"uint256","name":"requestId","type":"uint256"},{"indexed":false,"internalType":"bool","name":"isValid","type":"bool"},{"indexed":false,"internalType":"bytes32","name":"stateRoot","type":"bytes32"}],"name":"ProofVerified","type":"event"},{"anonymous":false,"inputs":[{"indexed":true,"internalType":"uint256","name":"requestId","type":"uint256"},{"indexed":false,"internalType":"uint256","name":"randomValue","type":"uint256"},{"indexed":false,"internalType":"uint256","name":"selectedBlock","type":"uint256"}],"name":"RandomnessReceived","type":"event"},{"anonymous":false,"inputs":[{"indexed":true,"internalType":"bytes32","name":"id","type":"bytes32"}],"name":"RequestFulfilled","type":"event"},{"anonymous":false,"inputs":[{"indexed":true,"internalType":"bytes32","name":"id","type":"bytes32"}],"name":"RequestSent","type":"event"},{"inputs":[],"name":"acceptOwnership","outputs":[],"stateMutability":"nonpayable","type":"function"},{"inputs":[{"internalType":"bytes[]","name":"proofs","type":"bytes[]"},{"internalType":"bytes[]","name":"publicInputsArray","type":"bytes[]"}],"name":"aggregateProofs","outputs":[{"internalType":"bytes32","name":"aggregatedHash","type":"bytes32"}],"stateMutability":"nonpayable","type":"function"},{"inputs":[{"internalType":"uint256","name":"","type":"uint256"},{"internalType":"uint256","name":"","type":"uint256"}],"name":"aggregatedProofHashes","outputs":[{"internalType":"bytes32","name":"","type":"bytes32"}],"stateMutability":"view","type":"function"},{"inputs":[{"internalType":"address","name":"","type":"address"}],"name":"authorizedCallers","outputs":[{"internalType":"bool","name":"","type":"bool"}],"stateMutability":"view","type":"function"},{"inputs":[{"internalType":"bytes","name":"","type":"bytes"}],"name":"checkUpkeep","outputs":[{"internalType":"bool","name":"upkeepNeeded","type":"bool"},{"internalType":"bytes","name":"","type":"bytes"}],"stateMutability":"view","type":"function"},{"inputs":[],"name":"contractOwner","outputs":[{"internalType":"address","name":"","type":"address"}],"stateMutability":"view","type":"function"},{"inputs":[{"internalType":"bytes32","name":"","type":"bytes32"}],"name":"functionsRequestToProofId","outputs":[{"internalType":"uint256","name":"","type":"uint256"}],"stateMutability":"view","type":"function"},{"inputs":[{"internalType":"uint256","name":"requestId","type":"uint256"}],"name":"getProofRequest","outputs":[{"components":[{"internalType":"address","name":"requester","type":"address"},{"internalType":"uint256","name":"timestamp","type":"uint256"},{"internalType":"string","name":"sourceChain","type":"string"},{"internalType":"uint256","name":"blockNumber","type":"uint256"},{"internalType":"bytes32","name":"stateRoot","type":"bytes32"},{"internalType":"bool","name":"isCompleted","type":"bool"},{"internalType":"bool","name":"isValid","type":"bool"}],"internalType":"struct ZKProofAggregator.ProofRequest","name":"","type":"tuple"}],"stateMutability":"view","type":"function"},{"inputs":[],"name":"getSubscriptionId","outputs":[{"internalType":"uint256","name":"","type":"uint256"}],"stateMutability":"view","type":"function"},{"inputs":[],"name":"groth16Verifier","outputs":[{"internalType":"contract Groth16Verifier","name":"","type":"address"}],"stateMutability":"view","type":"function"},{"inputs":[{"internalType":"bytes32","name":"requestId","type":"bytes32"},{"internalType":"bytes","name":"response","type":"bytes"},{"internalType":"bytes","name":"err","type":"bytes"}],"name":"handleOracleFulfillment","outputs":[],"stateMutability":"nonpayable","type":"function"},{"inputs":[{"internalType":"bytes32","name":"stateRoot","type":"bytes32"}],"name":"isStateVerified","outputs":[{"internalType":"bool","name":"","type":"bool"}],"stateMutability":"view","type":"function"},{"inputs":[],"name":"lastUpkeepTimestamp","outputs":[{"internalType":"uint256","name":"","type":"uint256"}],"stateMutability":"view","type":"function"},{"inputs":[],"name":"owner","outputs":[{"internalType":"address","name":"","type":"address"}],"stateMutability":"view","type":"function"},{"inputs":[{"internalType":"bytes","name":"","type":"bytes"}],"name":"performUpkeep","outputs":[],"stateMutability":"nonpayable","type":"function"},{"inputs":[{"internalType":"uint256","name":"","type":"uint256"}],"name":"proofRequests","outputs":[{"internalType":"address","name":"requester","type":"address"},{"internalType":"uint256","name":"timestamp","type":"uint256"},{"internalType":"string","name":"sourceChain","type":"string"},{"internalType":"uint256","name":"blockNumber","type":"uint256"},{"internalType":"bytes32","name":"stateRoot","type":"bytes32"},{"internalType":"bool","name":"isCompleted","type":"bool"},{"internalType":"bool","name":"isValid","type":"bool"}],"stateMutability":"view","type":"function"},{"inputs":[{"internalType":"uint256","name":"requestId","type":"uint256"},{"internalType":"uint256[]","name":"randomWords","type":"uint256[]"}],"name":"rawFulfillRandomWords","outputs":[],"stateMutability":"nonpayable","type":"function"},{"inputs":[],"name":"requestCounter","outputs":[{"internalType":"uint256","name":"","type":"uint256"}],"stateMutability":"view","type":"function"},{"inputs":[{"internalType":"string","name":"sourceChain","type":"string"},{"internalType":"uint256","name":"targetBlockNumber","type":"uint256"}],"name":"requestProofVerification","outputs":[{"internalType":"uint256","name":"requestId","type":"uint256"}],"stateMutability":"nonpayable","type":"function"},{"inputs":[],"name":"s_vrfCoordinator","outputs":[{"internalType":"contract IVRFCoordinatorV2Plus","name":"","type":"address"}],"stateMutability":"view","type":"function"},{"inputs":[{"internalType":"address","name":"caller","type":"address"},{"internalType":"bool","name":"authorized","type":"bool"}],"name":"setAuthorizedCaller","outputs":[],"stateMutability":"nonpayable","type":"function"},{"inputs":[{"internalType":"address","name":"_vrfCoordinator","type":"address"}],"name":"setCoordinator","outputs":[],"stateMutability":"nonpayable","type":"function"},{"inputs":[{"internalType":"uint64","name":"subscriptionId","type":"uint64"},{"internalType":"uint32","name":"gasLimit","type":"uint32"},{"internalType":"bytes32","name":"donId","type":"bytes32"}],"name":"setFunctionsConfig","outputs":[],"stateMutability":"nonpayable","type":"function"},{"inputs":[{"internalType":"uint256","name":"newInterval","type":"uint256"}],"name":"setUpkeepInterval","outputs":[],"stateMutability":"nonpayable","type":"function"},{"inputs":[{"internalType":"uint256","name":"subscriptionId","type":"uint256"},{"internalType":"bytes32","name":"keyHash","type":"bytes32"},{"internalType":"uint32","name":"callbackGasLimit","type":"uint32"}],"name":"setVRFConfig","outputs":[],"stateMutability":"nonpayable","type":"function"},{"inputs":[{"internalType":"address","name":"to","type":"address"}],"name":"transferOwnership","outputs":[],"stateMutability":"nonpayable","type":"function"},{"inputs":[],"name":"upkeepInterval","outputs":[{"internalType":"uint256","name":"","type":"uint256"}],"stateMutability":"view","type":"function"},{"inputs":[{"internalType":"bytes32","name":"","type":"bytes32"}],"name":"usedProofHashes","outputs":[{"internalType":"bool","name":"","type":"bool"}],"stateMutability":"view","type":"function"},{"inputs":[{"internalType":"bytes32","name":"","type":"bytes32"}],"name":"verifiedProofs","outputs":[{"internalType":"bool","name":"","type":"bool"}],"stateMutability":"view","type":"function"}],"evm":{"bytecode":{"linkReferences":{},"object":"60c034620001cd57601f620035a038819003918201601f1916830192916001600160401b039182851184861017620001d2578160e09285926040978852833981010312620001cd576200005282620001e8565b906200006160208401620001e8565b928481015160608201519260808301519081168103620001cd576200008e60c060a08501519401620001e8565b9333156200018957600080546001600160a01b03199081163317909155966001600160a01b0396871680156200017857740493e00000000000000000000000010003002625a09493929188918a600254161760025516608052610e10600755600a54926008556009556a0100000000000000000000600160901b039060501b169060018060b01b0319161717600a55600b551660a05233600052600f60205281600020600160ff198254161790553390601054161760105542600655516133a29081620001fe823960805181818161038e01526127f4015260a0518181816105bf01526123350152f35b895163d92e233d60e01b8152600490fd5b875162461bcd60e51b815260206004820152601860248201527f43616e6e6f7420736574206f776e657220746f207a65726f00000000000000006044820152606490fd5b600080fd5b634e487b7160e01b600052604160045260246000fd5b51906001600160a01b0382168203620001cd5756fe6080604052600436101561001257600080fd5b60003560e01c80630ca76175146101e2578063152a9526146101dd578063176d80c41461017957806319c813be146101d85780631bd6447a146101d35780631fe543e3146101ce57806325825746146101c957806339a9e4b3146101c4578063454bbd29146101bf5780634585e33b146101ba578063536fff6c146101b557806356959332146101b057806357efe032146101ab5780635a74373c146101a6578063624cffd4146101a15780636e04ff0d1461019c57806372e4c9f61461019757806379ba5097146101925780638da5cb5b1461018d5780638ea9811714610188578063973a814e146101835780639eccacf61461017e578063a9431f2314610179578063b5cce13314610174578063ce606ee01461016f578063d175d81a1461016a578063d87318b214610165578063de3d9fb7146101605763f2fde38b1461015b57600080fd5b6110fa565b6110dc565b6110ab565b610fdb565b610fb2565b610f5c565b610578565b610f33565b610f15565b610ea0565b610e77565b610db8565b610d8a565b610d3d565b610d1f565b610d01565b610bf1565b610bc5565b610b86565b610ad7565b610a2c565b6109c8565b610939565b6106b9565b610601565b6105a9565b6104ab565b61033f565b634e487b7160e01b600052604160045260246000fd5b60e081019081106001600160401b0382111761021857604052565b6101e7565b604081019081106001600160401b0382111761021857604052565b602081019081106001600160401b0382111761021857604052565b606081019081106001600160401b0382111761021857604052565b90601f801991011681019081106001600160401b0382111761021857604052565b6040519061029c826101fd565b565b6040519061029c82610238565b6040519060c082018281106001600160401b0382111761021857604052565b6001600160401b03811161021857601f01601f191660200190565b9291926102f1826102ca565b916102ff604051938461026e565b82948184528183011161031c578281602093846000960137010152565b600080fd5b9080601f8301121561031c5781602061033c933591016102e5565b90565b3461031c57606036600319011261031c576004356001600160401b0360243581811161031c57610373903690600401610321565b9060443590811161031c5761038c903690600401610321565b7f00000000000000000000000000000000000000000000000000000000000000006001600160a01b031633036103ed576103c69183611aea565b7f85e1543bf2f84fe80c6badbce3648c8539ad1df4d2b3d822938ca0538be727e6600080a2005b60405163c6829f8360e01b8152600490fd5b60005b8381106104125750506000910152565b8181015183820152602001610402565b9060209161043b815180928185528580860191016103ff565b601f01601f1916010190565b6020815260018060a01b0382511660208201526020820151604082015260e060c06104816040850151836060860152610100850190610422565b9360608101516080850152608081015160a085015260a08101511515828501520151151591015290565b3461031c57602036600319011261031c5761057460408060c081516104cf816101fd565b60009181838093528260208201526060858201528260608201528260808201528260a0820152015260043581526003602052209061056a60ff6005835194610516866101fd565b80546001600160a01b0316865260018101546020870152610539600282016108d7565b8686015260038101546060870152600481015460808701520154818116151560a086015260081c16151560c0840152565b5191829182610447565b0390f35b3461031c57602036600319011261031c57600435600052600c602052602060ff604060002054166040519015158152f35b3461031c57600036600319011261031c576040517f00000000000000000000000000000000000000000000000000000000000000006001600160a01b03168152602090f35b6024359063ffffffff8216820361031c57565b3461031c57606036600319011261031c576004356001600160401b038116810361031c5761062d6105ee565b61064260018060a01b036010541633146111ef565b600a80546bffffffffffffffffffffffff60501b191660509390931b67ffffffffffffffff60501b169290921760909190911b63ffffffff60901b16179055604435600b55005b9181601f8401121561031c578235916001600160401b03831161031c576020808501948460051b01011161031c57565b3461031c57604036600319011261031c576004356024356001600160401b03811161031c576106ec903690600401610689565b600254919290916001600160a01b0316338190036107e957508060005260046020526040600020549081156107ae576103e71943014381116107a957846107916107707f2374d5481494ad7962d4bd1b98b91e9f3117c9b66533b2804be3d76c41a490889361076a610761896107a79b611c4e565b356103e8900690565b90611c73565b95869283600361078a896000526003602052604060002090565b0155611c4e565b60408051913582526020820192909252a2611d0a565b005b611228565b60405162461bcd60e51b8152602060048201526013602482015272125b9d985b1a5908159491881c995c5d595cdd606a1b6044820152606490fd5b6044906040519063073e64fd60e21b82523360048301526024820152fd5b90600182811c92168015610837575b602083101461082157565b634e487b7160e01b600052602260045260246000fd5b91607f1691610816565b80546000939261085082610807565b918282526020936001916001811690816000146108b85750600114610877575b5050505050565b90939495506000929192528360002092846000945b8386106108a457505050500101903880808080610870565b80548587018301529401938590820161088c565b60ff19168685015250505090151560051b010191503880808080610870565b9061029c6108eb9260405193848092610841565b038361026e565b959260c09592610920929998959960018060a01b03168852602088015260e0604088015260e0870190610422565b9660608601526080850152151560a08401521515910152565b3461031c57602036600319011261031c576004356000526003602052604060002060018060a01b03815416906105746001820154916040519361098a856109838160028601610841565b038661026e565b600382015491600560048201549101549260405196879660ff808760081c16961694886108f2565b634e487b7160e01b600052603260045260246000fd5b3461031c57604036600319011261031c576024356000906004358252600d602052604082208054821015610a085782526020918290200154604051908152f35b8280fd5b600435906001600160a01b038216820361031c57565b8015150361031c57565b3461031c57604036600319011261031c576107a7610a48610a0c565b60243590610a5582610a22565b6010546001600160a01b039190610a6f90831633146111ef565b16600052600f60205260406000209060ff801983541691151516179055565b90602060031983011261031c576004356001600160401b039283821161031c578060238301121561031c57816004013593841161031c576024848301011161031c576024019190565b3461031c57610ae536610a8e565b505060065442034281116107a957610b00906007541061125c565b610b0942600655565b60408051632bf7f01960e11b815260048101919091526008604482015267657468657265756d60c01b606482015260006024820152602081806084810103816000305af18015610b8157610b5957005b6107a79060203d602011610b7a575b610b72818361026e565b81019061129c565b503d610b68565b6112ab565b3461031c57602036600319011261031c576001600160a01b03610ba7610a0c565b16600052600f602052602060ff604060002054166040519015158152f35b3461031c57602036600319011261031c5760043560005260046020526020604060002054604051908152f35b3461031c57604036600319011261031c576004356001600160401b03811161031c573660238201121561031c57610c356105749136906024816004013591016102e5565b602435610c9b610c466005546112b7565b92610c5084600555565b610c5861028f565b33815290426020830152604082015282606082015260006080820152600060a0820152600060c0820152610c96846000526003602052604060002090565b61131c565b80610cf257610ca982612017565b817f7ef8ca77fdc89c79f093f2a6b2348b1fcda0beb941ce31ce9f2d9d260c4db9d260405180610cdf3395829190602083019252565b0390a36040519081529081906020820190565b610cfc8183611d0a565b610ca9565b3461031c57600036600319011261031c576020600754604051908152f35b3461031c57600036600319011261031c576020600654604051908152f35b3461031c57610d4b36610a8e565b505060065442034281116107a9576007541060405190610d6a82610238565b600082526105746040519283928352604060208401526040830190610422565b3461031c57602036600319011261031c57610db060018060a01b036010541633146111ef565b600435600755005b3461031c57600080600319360112610e74576001546001600160a01b039081163303610e365781546001600160a01b0316600080546001600160a01b0319163317905590600180546001600160a01b03191690553391167f8be0079c531659141344cd1fd0a4f28419497f9722a3daafe3b4186f6b6457e08380a380f35b60405162461bcd60e51b815260206004820152601660248201527526bab9ba10313290383937b837b9b2b21037bbb732b960511b6044820152606490fd5b80fd5b3461031c57600036600319011261031c576000546040516001600160a01b039091168152602090f35b3461031c57602036600319011261031c57610eb9610a0c565b6000546001600160a01b03908116903382141580610f07575b610edf576107a78361149a565b60649250600254166040519163061db9c160e01b835233600484015260248301526044820152fd5b508060025416331415610ed2565b3461031c57600036600319011261031c576020600554604051908152f35b3461031c57600036600319011261031c576002546040516001600160a01b039091168152602090f35b3461031c57606036600319011261031c5760443563ffffffff811680910361031c57610f9360018060a01b036010541633146111ef565b60043560085560243560095563ffffffff19600a541617600a55600080f35b3461031c57600036600319011261031c576010546040516001600160a01b039091168152602090f35b3461031c57604036600319011261031c576001600160401b0360043581811161031c5761100c903690600401610689565b9160243590811161031c57611025903690600401610689565b9033600052600f60205260ff604060002054168015611097575b156110615761057493611051936117f6565b6040519081529081906020820190565b60405162461bcd60e51b815260206004820152600e60248201526d139bdd08185d5d1a1bdc9a5e995960921b6044820152606490fd5b506010546001600160a01b0316331461103f565b3461031c57602036600319011261031c57600435600052600e602052602060ff604060002054166040519015158152f35b3461031c57600036600319011261031c576020600854604051908152f35b3461031c57602036600319011261031c57611113610a0c565b6000546001600160a01b0390811691338390036111b157169033821461116c57600180546001600160a01b031916831790557fed8889f560326eb138920d842192f0eb3dd22b4f139c87a2c57538e05bae1278600080a3005b60405162461bcd60e51b815260206004820152601760248201527f43616e6e6f74207472616e7366657220746f2073656c660000000000000000006044820152606490fd5b60405162461bcd60e51b815260206004820152601660248201527527b7363c9031b0b63630b1363290313c9037bbb732b960511b6044820152606490fd5b156111f657565b60405162461bcd60e51b815260206004820152600a60248201526927b7363c9037bbb732b960b11b6044820152606490fd5b634e487b7160e01b600052601160045260246000fd5b6000198101919082116107a957565b601f198101919082116107a957565b1561126357565b60405162461bcd60e51b8152602060048201526011602482015270155c1ad9595c081b9bdd081b9959591959607a1b6044820152606490fd5b9081602091031261031c575190565b6040513d6000823e3d90fd5b60001981146107a95760010190565b90601f81116112d457505050565b6000916000526020600020906020601f850160051c83019410611312575b601f0160051c01915b82811061130757505050565b8181556001016112fb565b90925082906112f2565b815181546001600160a01b0319166001600160a01b0391909116178155600160209060208401516001840155600283019160408501518051926001600160401b03841161021857611377846113718754610807565b876112c6565b602092601f851160011461141b575050936113fa936113b88460c09560059561029c9a99600092611410575b50508160011b916000199060031b1c19161790565b90555b606085015160038201556080850151600482015501926113f36113e160a0830151151590565b859060ff801983541691151516179055565b0151151590565b815461ff00191690151560081b61ff0016179055565b0151905038806113a3565b929190601f1985169061143387600052602060002090565b946000915b838310611483575050508460059461029c9998946113fa989460c0986001951061146a575b505050811b0190556113bb565b015160001960f88460031b161c1916905538808061145d565b848601518755958601959481019491810191611438565b6001600160a01b031680156114ef576020817fd1a6a14209a385a964d036e404cb5cfb71f4000cdb03c9366292430787261be6926bffffffffffffffffffffffff60a01b6002541617600255604051908152a1565b60405163d92e233d60e01b8152600490fd5b1561150857565b60405162461bcd60e51b8152602060048201526014602482015273496e76616c696420696e7075742061727261797360601b6044820152606490fd5b1561154b57565b60405162461bcd60e51b815260206004820152601c60248201527f546f6f206d616e792070726f6f667320746f20616767726567617465000000006044820152606490fd5b6001600160401b0381116102185760051b60200190565b906115b182611590565b6115be604051918261026e565b82815280926115cf601f1991611590565b0190602036910137565b919081101561161a5760051b81013590601e198136030182121561031c5701908135916001600160401b03831161031c57602001823603811361031c579190565b6109b2565b1561162657565b60405162461bcd60e51b815260206004820152601c60248201527f496e76616c69642070726f6f6620696e206167677265676174696f6e000000006044820152606490fd5b908092918237016000815290565b1561168057565b60405162461bcd60e51b815260206004820152602160248201527f50726f6f6620616c7265616479207573656420696e206167677265676174696f6044820152603760f91b6064820152608490fd5b80511561161a5760200190565b80516001101561161a5760400190565b805182101561161a5760209160051b010190565b9193929093845160208096019060005b81811061173a57505050825260601b6bffffffffffffffffffffffff191660208201526034019150565b825186529487019491870191600101611710565b908160011b91808304600214901517156107a957565b8151916001600160401b038311610218576801000000000000000083116102185781548383558084106117cb575b506117a7602080920192600052602060002090565b9060005b8481106117b9575050505050565b835183820155928101926001016117ab565b60008360005284602060002092830192015b8281106117eb575050611792565b8181556001016117dd565b91929092818414806119c8575b61180c90611501565b611819600a851115611544565b611822846115a7565b9360005b8181106118f257505050505060405160208101906118588161184a33428787611700565b03601f19810183528261026e565b5190209061188d61186a6005546112b7565b9161187483600555565b61188883600052600d602052604060002090565b611764565b6118b16118a483600052600c602052604060002090565b805460ff19166001179055565b7f6dd2118914ad2b9a98780fafd92846eebe9361998a810f1a05f67033b17e2cdd604051806118ec8582919060206040840193600181520152565b0390a290565b8061193761193261192c611909600195878b6115d9565b61192461191a878c8c9695966115d9565b94909236916102e5565b9236916102e5565b90612296565b61161f565b6119c26118a461197661197061194e85888c6115d9565b929061184a61195e888d8d6115d9565b6040519586946020860198899161166b565b9161166b565b5190206119a66119a161199d61199684600052600e602052604060002090565b5460ff1690565b1590565b611679565b806119b1858c6116ec565b52600052600e602052604060002090565b01611826565b50831515611803565b156119d857565b60405162461bcd60e51b815260206004820152601960248201527f496e76616c69642046756e6374696f6e732072657175657374000000000000006044820152606490fd5b81601f8201121561031c578051611a33816102ca565b92611a41604051948561026e565b8184526020828401011161031c5761033c91602080850191016103ff565b91909160408184031261031c578051926001600160401b039384811161031c5781611a8b918401611a1d565b93602083015190811161031c5761033c9201611a1d565b9091611ab961033c93604084526040840190610422565b916020818403910152610422565b602081519101519060208110611adb575090565b6000199060200360031b1b1690565b90611aff826000526004602052604060002090565b5492611b0c8415156119d1565b51611c255790611be6611b88611b4c846020807f6dd2118914ad2b9a98780fafd92846eebe9361998a810f1a05f67033b17e2cdd97518301019101611a5f565b939084917f50348c1af87d1d2e61e0a7e9bf83a9c67f047d8de73be6b88acac8655a97581e60405180611b80868683611aa2565b0390a2612296565b9182611b9e866000526003602052604060002090565b611bcf8260058301611bb781600160ff19825416179055565b9061ff00825491151560081b169061ff001916179055565b6004611bda84611ac7565b910155611c0157611ac7565b6040805192151583526020830191909152819081015b0390a2565b611c206118a4611c1083611ac7565b600052600c602052604060002090565b611ac7565b50506005611c4061029c926000526003602052604060002090565b01805460ff19166001179055565b901561161a5790565b60300190816030116107a957565b90602082018092116107a957565b919082018092116107a957565b60405190611c8d826101fd565b606060c08360008152600060208201526000604082015282808201528260808201528260a08201520152565b60409060405191611cc983610253565b600283528260005b828110611cdd57505050565b806060602080938501015201611cd1565b929190611d05602091604086526040860190610841565b930152565b907f89652d00e157965d54f5ad31af9352416c4e90b879711ec122680d4e3a1de9a690611d41836000526003602052604060002090565b611f9b611f77604051611f108161184a611e9b611e5a611e01611dc6611d8e60208701601c907f636f6e737420736f75726365436861696e203d20617267735b305d3b0000000081520190565b7f636f6e737420626c6f636b4e756d626572203d207061727365496e7428617267815265735b315d293b60d01b602082015260260190565b7f2f2f20466574636820626c6f636b206461746120616e642067656e6572617465815268102d2590383937b7b360b91b602082015260290190565b7f636f6e737420626c6f636b44617461203d206177616974206665746368426c6f81527f636b4461746128736f75726365436861696e2c20626c6f636b4e756d626572296020820152603b60f81b604082015260410190565b7f636f6e73742070726f6f66203d2061776169742067656e65726174655a4b507281526e6f6f6628626c6f636b44617461293b60881b6020820152602f0190565b7f72657475726e2046756e6374696f6e732e656e636f6465537472696e67284a5381527f4f4e2e737472696e67696679287b70726f6f662c207075626c6963496e70757460208201527f733a20626c6f636b446174612e7374617465526f6f747d29293b0000000000006040820152605a0190565b611f22611f1b611c80565b918261289c565b611f726002611f2f611cb9565b950194611f3b866108d7565b611f44826116cf565b52611f4e816116cf565b50611f58876123d9565b611f61826116dc565b52611f6b816116dc565b508261247f565b6125ce565b600a54600b54916001600160401b0363ffffffff8360901c169260501c169061279c565b93611fb0856000526004602052604060002090565b55611bfc60405192839283611cee565b60e060a061033c9360208452805160208501526020810151604085015261ffff6040820151166060850152606081015163ffffffff80911660808601526080820151168285015201519160c0808201520190610422565b6002546000906020906120b0906001600160a01b031660095460085461208f600a5463ffffffff9061205261204a61029e565b8a8152612876565b9361205b6102ab565b9586528886015280881c61ffff16604086015263ffffffff81831616606086015260301c16608084019063ffffffff169052565b60a0820152604051948580948193634d8e1c2f60e11b835260048301611fc0565b03925af18015610b81576120d7916000916120da575b506000526004602052604060002090565b55565b6120f3915060203d602011610b7a57610b72818361026e565b386120c6565b604051906121068261021d565b6040368337565b60409060405161211c8161021d565b809260005b81811061212d57505050565b602090825161213b8161021d565b833682378185015201612121565b602090818184031261031c578051906001600160401b03821161031c57019180601f8401121561031c57825161217e81611590565b9361218c604051958661026e565b818552838086019260051b82010192831161031c578301905b8282106121b3575050505090565b815181529083019083016121a5565b9081602091031261031c575161033c81610a22565b6000915b600283106121e857505050565b6001908251815260208091019201920191906121db565b919093926101209161221484848101976121d7565b600060408581015b6002831061227357505050509061223b839260c06101409501906121d7565b6101008201528251809452019160208092019160005b82811061225f575050505090565b835185529381019392810192600101612251565b60208282612287600194889d9c9d516121d7565b0194019201919297969761221c565b906101009182815103612398576122ab6120f9565b6122b361210d565b906123316123166122c26120f9565b9560209786898098015186526040810151888701526060810151875260808101518888015260a0810151604088015260c0810151606088015260e08101518952015186880152858082518301019101612149565b6040516361971b8760e11b81529586948594600486016121ff565b03817f00000000000000000000000000000000000000000000000000000000000000006001600160a01b03165afa918215610b815760009261237257505090565b61033c9250803d10612391575b612389818361026e565b8101906121c2565b503d61237f565b505050600090565b906123aa826102ca565b6123b7604051918261026e565b82815280926115cf601f19916102ca565b90815181101561161a570160200190565b8015612461576000818181805b61244957506123f4816123a0565b935b6124005750505090565b6124099061123e565b90600a9061243461242461241e848406611c57565b60ff1690565b60f81b6001600160f81b03191690565b841a61244084876123c8565b530490816123f6565b9150612456600a916112b7565b9104808492916123e6565b5060405161246e8161021d565b60018152600360fc1b602082015290565b81511561248c5760a00152565b60405163fe936cb760e01b8152600490fd5b604051906124ab8261021d565b600c82526b31b7b232a637b1b0ba34b7b760a11b6020830152565b634e487b7160e01b600052602160045260246000fd5b600311156124e657565b6124c6565b604051906124f88261021d565b60088252676c616e677561676560c01b6020830152565b600111156124e657565b604051906125268261021d565b6006825265736f7572636560d01b6020830152565b604051906125488261021d565b60048252636172677360e01b6020830152565b604051906125688261021d565b600f82526e39b2b1b932ba39a637b1b0ba34b7b760891b6020830152565b604051906125938261021d565b60078252667365637265747360c81b6020830152565b604051906125b68261021d565b600982526862797465734172677360b81b6020830152565b6125d66128df565b906125e86125e261249e565b8361292f565b61260581516125f6816124dc565b6125ff816124dc565b836129f1565b6126106125e26124eb565b61262a60408201516126218161250f565b6125ff8161250f565b6126356125e2612519565b61264360608201518361292f565b60a08101805151612743575b5060808101908151516126c3575b60c0915001805151612670575b50515190565b9161267c6125e26125a9565b61268582612a92565b60005b835180518210156126b057906126aa6126a3826001946116ec565b5185612bab565b01612688565b505091506126bd81612b1e565b3861266a565b6020810180516126d2816124dc565b6126db816124dc565b156127315760c09261271461272c926126fb6126f561255b565b8861292f565b51612705816124dc565b61270e816124dc565b866129f1565b61272561271f612586565b8661292f565b5184612bab565b61265d565b60405163a80d31f760e01b8152600490fd5b9261275561274f61253b565b8461292f565b61275e83612a92565b60005b84518051821015612789579061278361277c826001946116ec565b518661292f565b01612761565b5050925061279682612b1e565b3861264f565b92906020926001600160401b039263ffffffff6127db604051978896879663230e93b160e11b885216600487015260a0602487015260a4860190610422565b60016044860152921660648401526084830152038160007f00000000000000000000000000000000000000000000000000000000000000006001600160a01b03165af1908115610b8157600091612857575b50807f1131472297a800fee664d1d89cfa8f7676ff07189ecc53f80bbb5f4969099db8600080a290565b612870915060203d602011610b7a57610b72818361026e565b3861282d565b6040519063125fa26760e31b602083015251151560248201526024815261033c81610253565b8151156128b3576000808252604082015260600152565b6040516322ce3edd60e01b8152600490fd5b604051906128d28261021d565b6000602083606081520152565b6040516128eb8161021d565b6128f36128c5565b80825260208201600081526129066128c5565b50610100602083015260405180925260008252610120820191821061031c576000916040525290565b81516129739291906001600160401b03811690601782116129765761295e9150606060ff845192161790613079565b505b519061296a6128c5565b508051916132a9565b50565b5060ff811161299b576129959061298d8351612e80565b508251613235565b50612960565b61ffff81116129ba57612995906129b28351612e1b565b5082516131c7565b63ffffffff81116129db57612995906129d38351612db6565b508251613157565b612995906129e98351612d46565b5082516130e4565b908151916129fd6128c5565b5082515160018101908181116107a9576020850151811015612a56575b60c2602061029c9651928301015380518211612a4e575b505060405191602083015260208252612a498261021d565b612bab565b523880612a31565b8160011b94828604600214831517156107a957602081612a8861029c98612a8160c295519184612c2f565b5082612c81565b5096505050612a1a565b805190612a9d6128c5565b5081515160018101908181116107a9576020840151811015612aeb575b609f6020809551928301015380518211612ae3575b505001805190600182018092116107a95752565b523880612acf565b8160011b93828504600214831517156107a957602081612b148297612a81609f95519184612c2f565b5095505050612aba565b805190612b296128c5565b5081515160018101908181116107a9576020840151811015612b78575b60ff6020809551928301015380518211612b70575b50500180516000198101919082116107a95752565b523880612b5b565b8160011b93828504600214831517156107a957602081612ba18297612a8160ff95519184612c2f565b5095505050612b46565b81516129739291906001600160401b0381169060178211612bda5761295e9150604060ff845192161790613079565b5060ff8111612bf1576129959061298d8351613014565b61ffff8111612c0857612995906129b28351612faf565b63ffffffff8111612c2157612995906129d38351612f4a565b612995906129e98351612ee5565b90612c386128c5565b50601f811680612c67575b508060208301526040519081835260008252810160200190811061031c5760405290565b602003602081116107a95781018091116107a95738612c43565b90612c8a6128c5565b50805190612c966128c5565b50612ca481518311156132a2565b82515191612cb28184611c73565b60209260208601518211612d2f575b602091865183815197820101968211612d27575b505001915b80821015612cff5750600019906020036101000a019081199051169082511617905290565b909192612d1b612d15612d219286518152611c65565b94611c65565b9261124d565b90612cda565b523880612cd5565b612d41612d3b8361174e565b87613355565b612cc1565b612d4e6128c5565b5080515160018101908181116107a9576020830151811015612d87575b607b60208451928301015380518211612d8357505090565b5290565b8160011b828104600214831517156107a957612db090612da985519186612c2f565b5084612c81565b50612d6b565b612dbe6128c5565b5080515160018101908181116107a9576020830151811015612df3575b607a60208451928301015380518211612d8357505090565b8160011b828104600214831517156107a957612e1590612da985519186612c2f565b50612ddb565b612e236128c5565b5080515160018101908181116107a9576020830151811015612e58575b607960208451928301015380518211612d8357505090565b8160011b828104600214831517156107a957612e7a90612da985519186612c2f565b50612e40565b612e886128c5565b5080515160018101908181116107a9576020830151811015612ebd575b607860208451928301015380518211612d8357505090565b8160011b828104600214831517156107a957612edf90612da985519186612c2f565b50612ea5565b612eed6128c5565b5080515160018101908181116107a9576020830151811015612f22575b605b60208451928301015380518211612d8357505090565b8160011b828104600214831517156107a957612f4490612da985519186612c2f565b50612f0a565b612f526128c5565b5080515160018101908181116107a9576020830151811015612f87575b605a60208451928301015380518211612d8357505090565b8160011b828104600214831517156107a957612fa990612da985519186612c2f565b50612f6f565b612fb76128c5565b5080515160018101908181116107a9576020830151811015612fec575b605960208451928301015380518211612d8357505090565b8160011b828104600214831517156107a95761300e90612da985519186612c2f565b50612fd4565b61301c6128c5565b5080515160018101908181116107a9576020830151811015613051575b605860208451928301015380518211612d8357505090565b8160011b828104600214831517156107a95761307390612da985519186612c2f565b50613039565b906130826128c5565b5081515160018101918282116107a95760208401518210156130b5575b60208451928301015380518211612d8357505090565b8260011b838104600214841517156107a9576130de906130d786519187612c2f565b5085612c81565b5061309f565b906130ed6128c5565b508151518060080191826008116107a9576020840151831161312f575b6008845192830101906001600160401b031982511617905280518211612d8357505090565b8260011b838104600214841517156107a957613151906130d786519187612c2f565b5061310a565b906131606128c5565b508151518060040191826004116107a9576020840151831161319f575b60048451928301019063ffffffff1982511617905280518211612d8357505090565b8260011b838104600214841517156107a9576131c1906130d786519187612c2f565b5061317d565b906131d06128c5565b508151518060020191826002116107a9576020840151831161320d575b60028451928301019061ffff1982511617905280518211612d8357505090565b8260011b838104600214841517156107a95761322f906130d786519187612c2f565b506131ed565b9061323e6128c5565b508151518060010191826001116107a9576020840151831161327a575b60018451928301019060ff1982511617905280518211612d8357505090565b8260011b838104600214841517156107a95761329c906130d786519187612c2f565b5061325b565b1561031c57565b91906132b36128c5565b506132c181518311156132a2565b8251519160206132d18285611c73565b92819382870151811161333e575b865183815197820101968211613336575b505001915b8082101561331a5750600019906020036101000a019081199051169082511617905290565b909192612d1b612d156133309286518152611c65565b906132f5565b5238806132f0565b61335061334a8261174e565b88613355565b6132df565b906129739161336681519282612c2f565b50612c8156fea2646970667358221220bc0bcd3e95cbe298dcb1b4046e2667598c76ae474e81a554a2ca186cabe2a03064736f6c63430008180033","opcodes":"PUSH1 0xC0 CALLVALUE PUSH3 0x1CD JUMPI PUSH1 0x1F PUSH3 0x35A0 CODESIZE DUP2 SWAP1 SUB SWAP2 DUP3 ADD PUSH1 0x1F NOT AND DUP4 ADD SWAP3 SWAP2 PUSH1 0x1 PUSH1 0x1 PUSH1 0x40 SHL SUB SWAP2 DUP3 DUP6 GT DUP5 DUP7 LT OR PUSH3 0x1D2 JUMPI DUP2 PUSH1 0xE0 SWAP3 DUP6 SWAP3 PUSH1 0x40 SWAP8 DUP9 MSTORE DUP4 CODECOPY DUP2 ADD SUB SLT PUSH3 0x1CD JUMPI PUSH3 0x52 DUP3 PUSH3 0x1E8 JUMP JUMPDEST SWAP1 PUSH3 0x61 PUSH1 0x20 DUP5 ADD PUSH3 0x1E8 JUMP JUMPDEST SWAP3 DUP5 DUP2 ADD MLOAD PUSH1 0x60 DUP3 ADD MLOAD SWAP3 PUSH1 0x80 DUP4 ADD MLOAD SWAP1 DUP2 AND DUP2 SUB PUSH3 0x1CD JUMPI PUSH3 0x8E PUSH1 0xC0 PUSH1 0xA0 DUP6 ADD MLOAD SWAP5 ADD PUSH3 0x1E8 JUMP JUMPDEST SWAP4 CALLER ISZERO PUSH3 0x189 JUMPI PUSH1 0x0 DUP1 SLOAD PUSH1 0x1 PUSH1 0x1 PUSH1 0xA0 SHL SUB NOT SWAP1 DUP2 AND CALLER OR SWAP1 SWAP2 SSTORE SWAP7 PUSH1 0x1 PUSH1 0x1 PUSH1 0xA0 SHL SUB SWAP7 DUP8 AND DUP1 ISZERO PUSH3 0x178 JUMPI PUSH21 0x493E00000000000000000000000010003002625A0 SWAP5 SWAP4 SWAP3 SWAP2 DUP9 SWAP2 DUP11 PUSH1 0x2 SLOAD AND OR PUSH1 0x2 SSTORE AND PUSH1 0x80 MSTORE PUSH2 0xE10 PUSH1 0x7 SSTORE PUSH1 0xA SLOAD SWAP3 PUSH1 0x8 SSTORE PUSH1 0x9 SSTORE PUSH11 0x100000000000000000000 PUSH1 0x1 PUSH1 0x90 SHL SUB SWAP1 PUSH1 0x50 SHL AND SWAP1 PUSH1 0x1 DUP1 PUSH1 0xB0 SHL SUB NOT AND OR OR PUSH1 0xA SSTORE PUSH1 0xB SSTORE AND PUSH1 0xA0 MSTORE CALLER PUSH1 0x0 MSTORE PUSH1 0xF PUSH1 0x20 MSTORE DUP2 PUSH1 0x0 KECCAK256 PUSH1 0x1 PUSH1 0xFF NOT DUP3 SLOAD AND OR SWAP1 SSTORE CALLER SWAP1 PUSH1 0x10 SLOAD AND OR PUSH1 0x10 SSTORE TIMESTAMP PUSH1 0x6 SSTORE MLOAD PUSH2 0x33A2 SWAP1 DUP2 PUSH3 0x1FE DUP3 CODECOPY PUSH1 0x80 MLOAD DUP2 DUP2 DUP2 PUSH2 0x38E ADD MSTORE PUSH2 0x27F4 ADD MSTORE PUSH1 0xA0 MLOAD DUP2 DUP2 DUP2 PUSH2 0x5BF ADD MSTORE PUSH2 0x2335 ADD MSTORE RETURN JUMPDEST DUP10 MLOAD PUSH4 0xD92E233D PUSH1 0xE0 SHL DUP2 MSTORE PUSH1 0x4 SWAP1 REVERT JUMPDEST DUP8 MLOAD PUSH3 0x461BCD PUSH1 0xE5 SHL DUP2 MSTORE PUSH1 0x20 PUSH1 0x4 DUP3 ADD MSTORE PUSH1 0x18 PUSH1 0x24 DUP3 ADD MSTORE PUSH32 0x43616E6E6F7420736574206F776E657220746F207A65726F0000000000000000 PUSH1 0x44 DUP3 ADD MSTORE PUSH1 0x64 SWAP1 REVERT JUMPDEST PUSH1 0x0 DUP1 REVERT JUMPDEST PUSH4 0x4E487B71 PUSH1 0xE0 SHL PUSH1 0x0 MSTORE PUSH1 0x41 PUSH1 0x4 MSTORE PUSH1 0x24 PUSH1 0x0 REVERT JUMPDEST MLOAD SWAP1 PUSH1 0x1 PUSH1 0x1 PUSH1 0xA0 SHL SUB DUP3 AND DUP3 SUB PUSH3 0x1CD JUMPI JUMP INVALID PUSH1 0x80 PUSH1 0x40 MSTORE PUSH1 0x4 CALLDATASIZE LT ISZERO PUSH2 0x12 JUMPI PUSH1 0x0 DUP1 REVERT JUMPDEST PUSH1 0x0 CALLDATALOAD PUSH1 0xE0 SHR DUP1 PUSH4 0xCA76175 EQ PUSH2 0x1E2 JUMPI DUP1 PUSH4 0x152A9526 EQ PUSH2 0x1DD JUMPI DUP1 PUSH4 0x176D80C4 EQ PUSH2 0x179 JUMPI DUP1 PUSH4 0x19C813BE EQ PUSH2 0x1D8 JUMPI DUP1 PUSH4 0x1BD6447A EQ PUSH2 0x1D3 JUMPI DUP1 PUSH4 0x1FE543E3 EQ PUSH2 0x1CE JUMPI DUP1 PUSH4 0x25825746 EQ PUSH2 0x1C9 JUMPI DUP1 PUSH4 0x39A9E4B3 EQ PUSH2 0x1C4 JUMPI DUP1 PUSH4 0x454BBD29 EQ PUSH2 0x1BF JUMPI DUP1 PUSH4 0x4585E33B EQ PUSH2 0x1BA JUMPI DUP1 PUSH4 0x536FFF6C EQ PUSH2 0x1B5 JUMPI DUP1 PUSH4 0x56959332 EQ PUSH2 0x1B0 JUMPI DUP1 PUSH4 0x57EFE032 EQ PUSH2 0x1AB JUMPI DUP1 PUSH4 0x5A74373C EQ PUSH2 0x1A6 JUMPI DUP1 PUSH4 0x624CFFD4 EQ PUSH2 0x1A1 JUMPI DUP1 PUSH4 0x6E04FF0D EQ PUSH2 0x19C JUMPI DUP1 PUSH4 0x72E4C9F6 EQ PUSH2 0x197 JUMPI DUP1 PUSH4 0x79BA5097 EQ PUSH2 0x192 JUMPI DUP1 PUSH4 0x8DA5CB5B EQ PUSH2 0x18D JUMPI DUP1 PUSH4 0x8EA98117 EQ PUSH2 0x188 JUMPI DUP1 PUSH4 0x973A814E EQ PUSH2 0x183 JUMPI DUP1 PUSH4 0x9ECCACF6 EQ PUSH2 0x17E JUMPI DUP1 PUSH4 0xA9431F23 EQ PUSH2 0x179 JUMPI DUP1 PUSH4 0xB5CCE133 EQ PUSH2 0x174 JUMPI DUP1 PUSH4 0xCE606EE0 EQ PUSH2 0x16F JUMPI DUP1 PUSH4 0xD175D81A EQ PUSH2 0x16A JUMPI DUP1 PUSH4 0xD87318B2 EQ PUSH2 0x165 JUMPI DUP1 PUSH4 0xDE3D9FB7 EQ PUSH2 0x160 JUMPI PUSH4 0xF2FDE38B EQ PUSH2 0x15B JUMPI PUSH1 0x0 DUP1 REVERT JUMPDEST PUSH2 0x10FA JUMP JUMPDEST PUSH2 0x10DC JUMP JUMPDEST PUSH2 0x10AB JUMP JUMPDEST PUSH2 0xFDB JUMP JUMPDEST PUSH2 0xFB2 JUMP JUMPDEST PUSH2 0xF5C JUMP JUMPDEST PUSH2 0x578 JUMP JUMPDEST PUSH2 0xF33 JUMP JUMPDEST PUSH2 0xF15 JUMP JUMPDEST PUSH2 0xEA0 JUMP JUMPDEST PUSH2 0xE77 JUMP JUMPDEST PUSH2 0xDB8 JUMP JUMPDEST PUSH2 0xD8A JUMP JUMPDEST PUSH2 0xD3D JUMP JUMPDEST PUSH2 0xD1F JUMP JUMPDEST PUSH2 0xD01 JUMP JUMPDEST PUSH2 0xBF1 JUMP JUMPDEST PUSH2 0xBC5 JUMP JUMPDEST PUSH2 0xB86 JUMP JUMPDEST PUSH2 0xAD7 JUMP JUMPDEST PUSH2 0xA2C JUMP JUMPDEST PUSH2 0x9C8 JUMP JUMPDEST PUSH2 0x939 JUMP JUMPDEST PUSH2 0x6B9 JUMP JUMPDEST PUSH2 0x601 JUMP JUMPDEST PUSH2 0x5A9 JUMP JUMPDEST PUSH2 0x4AB JUMP JUMPDEST PUSH2 0x33F JUMP JUMPDEST PUSH4 0x4E487B71 PUSH1 0xE0 SHL PUSH1 0x0 MSTORE PUSH1 0x41 PUSH1 0x4 MSTORE PUSH1 0x24 PUSH1 0x0 REVERT JUMPDEST PUSH1 0xE0 DUP2 ADD SWAP1 DUP2 LT PUSH1 0x1 PUSH1 0x1 PUSH1 0x40 SHL SUB DUP3 GT OR PUSH2 0x218 JUMPI PUSH1 0x40 MSTORE JUMP JUMPDEST PUSH2 0x1E7 JUMP JUMPDEST PUSH1 0x40 DUP2 ADD SWAP1 DUP2 LT PUSH1 0x1 PUSH1 0x1 PUSH1 0x40 SHL SUB DUP3 GT OR PUSH2 0x218 JUMPI PUSH1 0x40 MSTORE JUMP JUMPDEST PUSH1 0x20 DUP2 ADD SWAP1 DUP2 LT PUSH1 0x1 PUSH1 0x1 PUSH1 0x40 SHL SUB DUP3 GT OR PUSH2 0x218 JUMPI PUSH1 0x40 MSTORE JUMP JUMPDEST PUSH1 0x60 DUP2 ADD SWAP1 DUP2 LT PUSH1 0x1 PUSH1 0x1 PUSH1 0x40 SHL SUB DUP3 GT OR PUSH2 0x218 JUMPI PUSH1 0x40 MSTORE JUMP JUMPDEST SWAP1 PUSH1 0x1F DUP1 NOT SWAP2 ADD AND DUP2 ADD SWAP1 DUP2 LT PUSH1 0x1 PUSH1 0x1 PUSH1 0x40 SHL SUB DUP3 GT OR PUSH2 0x218 JUMPI PUSH1 0x40 MSTORE JUMP JUMPDEST PUSH1 0x40 MLOAD SWAP1 PUSH2 0x29C DUP3 PUSH2 0x1FD JUMP JUMPDEST JUMP JUMPDEST PUSH1 0x40 MLOAD SWAP1 PUSH2 0x29C DUP3 PUSH2 0x238 JUMP JUMPDEST PUSH1 0x40 MLOAD SWAP1 PUSH1 0xC0 DUP3 ADD DUP3 DUP2 LT PUSH1 0x1 PUSH1 0x1 PUSH1 0x40 SHL SUB DUP3 GT OR PUSH2 0x218 JUMPI PUSH1 0x40 MSTORE JUMP JUMPDEST PUSH1 0x1 PUSH1 0x1 PUSH1 0x40 SHL SUB DUP2 GT PUSH2 0x218 JUMPI PUSH1 0x1F ADD PUSH1 0x1F NOT AND PUSH1 0x20 ADD SWAP1 JUMP JUMPDEST SWAP3 SWAP2 SWAP3 PUSH2 0x2F1 DUP3 PUSH2 0x2CA JUMP JUMPDEST SWAP2 PUSH2 0x2FF PUSH1 0x40 MLOAD SWAP4 DUP5 PUSH2 0x26E JUMP JUMPDEST DUP3 SWAP5 DUP2 DUP5 MSTORE DUP2 DUP4 ADD GT PUSH2 0x31C JUMPI DUP3 DUP2 PUSH1 0x20 SWAP4 DUP5 PUSH1 0x0 SWAP7 ADD CALLDATACOPY ADD ADD MSTORE JUMP JUMPDEST PUSH1 0x0 DUP1 REVERT JUMPDEST SWAP1 DUP1 PUSH1 0x1F DUP4 ADD SLT ISZERO PUSH2 0x31C JUMPI DUP2 PUSH1 0x20 PUSH2 0x33C SWAP4 CALLDATALOAD SWAP2 ADD PUSH2 0x2E5 JUMP JUMPDEST SWAP1 JUMP JUMPDEST CALLVALUE PUSH2 0x31C JUMPI PUSH1 0x60 CALLDATASIZE PUSH1 0x3 NOT ADD SLT PUSH2 0x31C JUMPI PUSH1 0x4 CALLDATALOAD PUSH1 0x1 PUSH1 0x1 PUSH1 0x40 SHL SUB PUSH1 0x24 CALLDATALOAD DUP2 DUP2 GT PUSH2 0x31C JUMPI PUSH2 0x373 SWAP1 CALLDATASIZE SWAP1 PUSH1 0x4 ADD PUSH2 0x321 JUMP JUMPDEST SWAP1 PUSH1 0x44 CALLDATALOAD SWAP1 DUP2 GT PUSH2 0x31C JUMPI PUSH2 0x38C SWAP1 CALLDATASIZE SWAP1 PUSH1 0x4 ADD PUSH2 0x321 JUMP JUMPDEST PUSH32 0x0 PUSH1 0x1 PUSH1 0x1 PUSH1 0xA0 SHL SUB AND CALLER SUB PUSH2 0x3ED JUMPI PUSH2 0x3C6 SWAP2 DUP4 PUSH2 0x1AEA JUMP JUMPDEST PUSH32 0x85E1543BF2F84FE80C6BADBCE3648C8539AD1DF4D2B3D822938CA0538BE727E6 PUSH1 0x0 DUP1 LOG2 STOP JUMPDEST PUSH1 0x40 MLOAD PUSH4 0xC6829F83 PUSH1 0xE0 SHL DUP2 MSTORE PUSH1 0x4 SWAP1 REVERT JUMPDEST PUSH1 0x0 JUMPDEST DUP4 DUP2 LT PUSH2 0x412 JUMPI POP POP PUSH1 0x0 SWAP2 ADD MSTORE JUMP JUMPDEST DUP2 DUP2 ADD MLOAD DUP4 DUP3 ADD MSTORE PUSH1 0x20 ADD PUSH2 0x402 JUMP JUMPDEST SWAP1 PUSH1 0x20 SWAP2 PUSH2 0x43B DUP2 MLOAD DUP1 SWAP3 DUP2 DUP6 MSTORE DUP6 DUP1 DUP7 ADD SWAP2 ADD PUSH2 0x3FF JUMP JUMPDEST PUSH1 0x1F ADD PUSH1 0x1F NOT AND ADD ADD SWAP1 JUMP JUMPDEST PUSH1 0x20 DUP2 MSTORE PUSH1 0x1 DUP1 PUSH1 0xA0 SHL SUB DUP3 MLOAD AND PUSH1 0x20 DUP3 ADD MSTORE PUSH1 0x20 DUP3 ADD MLOAD PUSH1 0x40 DUP3 ADD MSTORE PUSH1 0xE0 PUSH1 0xC0 PUSH2 0x481 PUSH1 0x40 DUP6 ADD MLOAD DUP4 PUSH1 0x60 DUP7 ADD MSTORE PUSH2 0x100 DUP6 ADD SWAP1 PUSH2 0x422 JUMP JUMPDEST SWAP4 PUSH1 0x60 DUP2 ADD MLOAD PUSH1 0x80 DUP6 ADD MSTORE PUSH1 0x80 DUP2 ADD MLOAD PUSH1 0xA0 DUP6 ADD MSTORE PUSH1 0xA0 DUP2 ADD MLOAD ISZERO ISZERO DUP3 DUP6 ADD MSTORE ADD MLOAD ISZERO ISZERO SWAP2 ADD MSTORE SWAP1 JUMP JUMPDEST CALLVALUE PUSH2 0x31C JUMPI PUSH1 0x20 CALLDATASIZE PUSH1 0x3 NOT ADD SLT PUSH2 0x31C JUMPI PUSH2 0x574 PUSH1 0x40 DUP1 PUSH1 0xC0 DUP2 MLOAD PUSH2 0x4CF DUP2 PUSH2 0x1FD JUMP JUMPDEST PUSH1 0x0 SWAP2 DUP2 DUP4 DUP1 SWAP4 MSTORE DUP3 PUSH1 0x20 DUP3 ADD MSTORE PUSH1 0x60 DUP6 DUP3 ADD MSTORE DUP3 PUSH1 0x60 DUP3 ADD MSTORE DUP3 PUSH1 0x80 DUP3 ADD MSTORE DUP3 PUSH1 0xA0 DUP3 ADD MSTORE ADD MSTORE PUSH1 0x4 CALLDATALOAD DUP2 MSTORE PUSH1 0x3 PUSH1 0x20 MSTORE KECCAK256 SWAP1 PUSH2 0x56A PUSH1 0xFF PUSH1 0x5 DUP4 MLOAD SWAP5 PUSH2 0x516 DUP7 PUSH2 0x1FD JUMP JUMPDEST DUP1 SLOAD PUSH1 0x1 PUSH1 0x1 PUSH1 0xA0 SHL SUB AND DUP7 MSTORE PUSH1 0x1 DUP2 ADD SLOAD PUSH1 0x20 DUP8 ADD MSTORE PUSH2 0x539 PUSH1 0x2 DUP3 ADD PUSH2 0x8D7 JUMP JUMPDEST DUP7 DUP7 ADD MSTORE PUSH1 0x3 DUP2 ADD SLOAD PUSH1 0x60 DUP8 ADD MSTORE PUSH1 0x4 DUP2 ADD SLOAD PUSH1 0x80 DUP8 ADD MSTORE ADD SLOAD DUP2 DUP2 AND ISZERO ISZERO PUSH1 0xA0 DUP7 ADD MSTORE PUSH1 0x8 SHR AND ISZERO ISZERO PUSH1 0xC0 DUP5 ADD MSTORE JUMP JUMPDEST MLOAD SWAP2 DUP3 SWAP2 DUP3 PUSH2 0x447 JUMP JUMPDEST SUB SWAP1 RETURN JUMPDEST CALLVALUE PUSH2 0x31C JUMPI PUSH1 0x20 CALLDATASIZE PUSH1 0x3 NOT ADD SLT PUSH2 0x31C JUMPI PUSH1 0x4 CALLDATALOAD PUSH1 0x0 MSTORE PUSH1 0xC PUSH1 0x20 MSTORE PUSH1 0x20 PUSH1 0xFF PUSH1 0x40 PUSH1 0x0 KECCAK256 SLOAD AND PUSH1 0x40 MLOAD SWAP1 ISZERO ISZERO DUP2 MSTORE RETURN JUMPDEST CALLVALUE PUSH2 0x31C JUMPI PUSH1 0x0 CALLDATASIZE PUSH1 0x3 NOT ADD SLT PUSH2 0x31C JUMPI PUSH1 0x40 MLOAD PUSH32 0x0 PUSH1 0x1 PUSH1 0x1 PUSH1 0xA0 SHL SUB AND DUP2 MSTORE PUSH1 0x20 SWAP1 RETURN JUMPDEST PUSH1 0x24 CALLDATALOAD SWAP1 PUSH4 0xFFFFFFFF DUP3 AND DUP3 SUB PUSH2 0x31C JUMPI JUMP JUMPDEST CALLVALUE PUSH2 0x31C JUMPI PUSH1 0x60 CALLDATASIZE PUSH1 0x3 NOT ADD SLT PUSH2 0x31C JUMPI PUSH1 0x4 CALLDATALOAD PUSH1 0x1 PUSH1 0x1 PUSH1 0x40 SHL SUB DUP2 AND DUP2 SUB PUSH2 0x31C JUMPI PUSH2 0x62D PUSH2 0x5EE JUMP JUMPDEST PUSH2 0x642 PUSH1 0x1 DUP1 PUSH1 0xA0 SHL SUB PUSH1 0x10 SLOAD AND CALLER EQ PUSH2 0x11EF JUMP JUMPDEST PUSH1 0xA DUP1 SLOAD PUSH12 0xFFFFFFFFFFFFFFFFFFFFFFFF PUSH1 0x50 SHL NOT AND PUSH1 0x50 SWAP4 SWAP1 SWAP4 SHL PUSH8 0xFFFFFFFFFFFFFFFF PUSH1 0x50 SHL AND SWAP3 SWAP1 SWAP3 OR PUSH1 0x90 SWAP2 SWAP1 SWAP2 SHL PUSH4 0xFFFFFFFF PUSH1 0x90 SHL AND OR SWAP1 SSTORE PUSH1 0x44 CALLDATALOAD PUSH1 0xB SSTORE STOP JUMPDEST SWAP2 DUP2 PUSH1 0x1F DUP5 ADD SLT ISZERO PUSH2 0x31C JUMPI DUP3 CALLDATALOAD SWAP2 PUSH1 0x1 PUSH1 0x1 PUSH1 0x40 SHL SUB DUP4 GT PUSH2 0x31C JUMPI PUSH1 0x20 DUP1 DUP6 ADD SWAP5 DUP5 PUSH1 0x5 SHL ADD ADD GT PUSH2 0x31C JUMPI JUMP JUMPDEST CALLVALUE PUSH2 0x31C JUMPI PUSH1 0x40 CALLDATASIZE PUSH1 0x3 NOT ADD SLT PUSH2 0x31C JUMPI PUSH1 0x4 CALLDATALOAD PUSH1 0x24 CALLDATALOAD PUSH1 0x1 PUSH1 0x1 PUSH1 0x40 SHL SUB DUP2 GT PUSH2 0x31C JUMPI PUSH2 0x6EC SWAP1 CALLDATASIZE SWAP1 PUSH1 0x4 ADD PUSH2 0x689 JUMP JUMPDEST PUSH1 0x2 SLOAD SWAP2 SWAP3 SWAP1 SWAP2 PUSH1 0x1 PUSH1 0x1 PUSH1 0xA0 SHL SUB AND CALLER DUP2 SWAP1 SUB PUSH2 0x7E9 JUMPI POP DUP1 PUSH1 0x0 MSTORE PUSH1 0x4 PUSH1 0x20 MSTORE PUSH1 0x40 PUSH1 0x0 KECCAK256 SLOAD SWAP1 DUP2 ISZERO PUSH2 0x7AE JUMPI PUSH2 0x3E7 NOT NUMBER ADD NUMBER DUP2 GT PUSH2 0x7A9 JUMPI DUP5 PUSH2 0x791 PUSH2 0x770 PUSH32 0x2374D5481494AD7962D4BD1B98B91E9F3117C9B66533B2804BE3D76C41A49088 SWAP4 PUSH2 0x76A PUSH2 0x761 DUP10 PUSH2 0x7A7 SWAP12 PUSH2 0x1C4E JUMP JUMPDEST CALLDATALOAD PUSH2 0x3E8 SWAP1 MOD SWAP1 JUMP JUMPDEST SWAP1 PUSH2 0x1C73 JUMP JUMPDEST SWAP6 DUP7 SWAP3 DUP4 PUSH1 0x3 PUSH2 0x78A DUP10 PUSH1 0x0 MSTORE PUSH1 0x3 PUSH1 0x20 MSTORE PUSH1 0x40 PUSH1 0x0 KECCAK256 SWAP1 JUMP JUMPDEST ADD SSTORE PUSH2 0x1C4E JUMP JUMPDEST PUSH1 0x40 DUP1 MLOAD SWAP2 CALLDATALOAD DUP3 MSTORE PUSH1 0x20 DUP3 ADD SWAP3 SWAP1 SWAP3 MSTORE LOG2 PUSH2 0x1D0A JUMP JUMPDEST STOP JUMPDEST PUSH2 0x1228 JUMP JUMPDEST PUSH1 0x40 MLOAD PUSH3 0x461BCD PUSH1 0xE5 SHL DUP2 MSTORE PUSH1 0x20 PUSH1 0x4 DUP3 ADD MSTORE PUSH1 0x13 PUSH1 0x24 DUP3 ADD MSTORE PUSH19 0x125B9D985B1A5908159491881C995C5D595CDD PUSH1 0x6A SHL PUSH1 0x44 DUP3 ADD MSTORE PUSH1 0x64 SWAP1 REVERT JUMPDEST PUSH1 0x44 SWAP1 PUSH1 0x40 MLOAD SWAP1 PUSH4 0x73E64FD PUSH1 0xE2 SHL DUP3 MSTORE CALLER PUSH1 0x4 DUP4 ADD MSTORE PUSH1 0x24 DUP3 ADD MSTORE REVERT JUMPDEST SWAP1 PUSH1 0x1 DUP3 DUP2 SHR SWAP3 AND DUP1 ISZERO PUSH2 0x837 JUMPI JUMPDEST PUSH1 0x20 DUP4 LT EQ PUSH2 0x821 JUMPI JUMP JUMPDEST PUSH4 0x4E487B71 PUSH1 0xE0 SHL PUSH1 0x0 MSTORE PUSH1 0x22 PUSH1 0x4 MSTORE PUSH1 0x24 PUSH1 0x0 REVERT JUMPDEST SWAP2 PUSH1 0x7F AND SWAP2 PUSH2 0x816 JUMP JUMPDEST DUP1 SLOAD PUSH1 0x0 SWAP4 SWAP3 PUSH2 0x850 DUP3 PUSH2 0x807 JUMP JUMPDEST SWAP2 DUP3 DUP3 MSTORE PUSH1 0x20 SWAP4 PUSH1 0x1 SWAP2 PUSH1 0x1 DUP2 AND SWAP1 DUP2 PUSH1 0x0 EQ PUSH2 0x8B8 JUMPI POP PUSH1 0x1 EQ PUSH2 0x877 JUMPI JUMPDEST POP POP POP POP POP JUMP JUMPDEST SWAP1 SWAP4 SWAP5 SWAP6 POP PUSH1 0x0 SWAP3 SWAP2 SWAP3 MSTORE DUP4 PUSH1 0x0 KECCAK256 SWAP3 DUP5 PUSH1 0x0 SWAP5 JUMPDEST DUP4 DUP7 LT PUSH2 0x8A4 JUMPI POP POP POP POP ADD ADD SWAP1 CODESIZE DUP1 DUP1 DUP1 DUP1 PUSH2 0x870 JUMP JUMPDEST DUP1 SLOAD DUP6 DUP8 ADD DUP4 ADD MSTORE SWAP5 ADD SWAP4 DUP6 SWAP1 DUP3 ADD PUSH2 0x88C JUMP JUMPDEST PUSH1 0xFF NOT AND DUP7 DUP6 ADD MSTORE POP POP POP SWAP1 ISZERO ISZERO PUSH1 0x5 SHL ADD ADD SWAP2 POP CODESIZE DUP1 DUP1 DUP1 DUP1 PUSH2 0x870 JUMP JUMPDEST SWAP1 PUSH2 0x29C PUSH2 0x8EB SWAP3 PUSH1 0x40 MLOAD SWAP4 DUP5 DUP1 SWAP3 PUSH2 0x841 JUMP JUMPDEST SUB DUP4 PUSH2 0x26E JUMP JUMPDEST SWAP6 SWAP3 PUSH1 0xC0 SWAP6 SWAP3 PUSH2 0x920 SWAP3 SWAP10 SWAP9 SWAP6 SWAP10 PUSH1 0x1 DUP1 PUSH1 0xA0 SHL SUB AND DUP9 MSTORE PUSH1 0x20 DUP9 ADD MSTORE PUSH1 0xE0 PUSH1 0x40 DUP9 ADD MSTORE PUSH1 0xE0 DUP8 ADD SWAP1 PUSH2 0x422 JUMP JUMPDEST SWAP7 PUSH1 0x60 DUP7 ADD MSTORE PUSH1 0x80 DUP6 ADD MSTORE ISZERO ISZERO PUSH1 0xA0 DUP5 ADD MSTORE ISZERO ISZERO SWAP2 ADD MSTORE JUMP JUMPDEST CALLVALUE PUSH2 0x31C JUMPI PUSH1 0x20 CALLDATASIZE PUSH1 0x3 NOT ADD SLT PUSH2 0x31C JUMPI PUSH1 0x4 CALLDATALOAD PUSH1 0x0 MSTORE PUSH1 0x3 PUSH1 0x20 MSTORE PUSH1 0x40 PUSH1 0x0 KECCAK256 PUSH1 0x1 DUP1 PUSH1 0xA0 SHL SUB DUP2 SLOAD AND SWAP1 PUSH2 0x574 PUSH1 0x1 DUP3 ADD SLOAD SWAP2 PUSH1 0x40 MLOAD SWAP4 PUSH2 0x98A DUP6 PUSH2 0x983 DUP2 PUSH1 0x2 DUP7 ADD PUSH2 0x841 JUMP JUMPDEST SUB DUP7 PUSH2 0x26E JUMP JUMPDEST PUSH1 0x3 DUP3 ADD SLOAD SWAP2 PUSH1 0x5 PUSH1 0x4 DUP3 ADD SLOAD SWAP2 ADD SLOAD SWAP3 PUSH1 0x40 MLOAD SWAP7 DUP8 SWAP7 PUSH1 0xFF DUP1 DUP8 PUSH1 0x8 SHR AND SWAP7 AND SWAP5 DUP9 PUSH2 0x8F2 JUMP JUMPDEST PUSH4 0x4E487B71 PUSH1 0xE0 SHL PUSH1 0x0 MSTORE PUSH1 0x32 PUSH1 0x4 MSTORE PUSH1 0x24 PUSH1 0x0 REVERT JUMPDEST CALLVALUE PUSH2 0x31C JUMPI PUSH1 0x40 CALLDATASIZE PUSH1 0x3 NOT ADD SLT PUSH2 0x31C JUMPI PUSH1 0x24 CALLDATALOAD PUSH1 0x0 SWAP1 PUSH1 0x4 CALLDATALOAD DUP3 MSTORE PUSH1 0xD PUSH1 0x20 MSTORE PUSH1 0x40 DUP3 KECCAK256 DUP1 SLOAD DUP3 LT ISZERO PUSH2 0xA08 JUMPI DUP3 MSTORE PUSH1 0x20 SWAP2 DUP3 SWAP1 KECCAK256 ADD SLOAD PUSH1 0x40 MLOAD SWAP1 DUP2 MSTORE RETURN JUMPDEST DUP3 DUP1 REVERT JUMPDEST PUSH1 0x4 CALLDATALOAD SWAP1 PUSH1 0x1 PUSH1 0x1 PUSH1 0xA0 SHL SUB DUP3 AND DUP3 SUB PUSH2 0x31C JUMPI JUMP JUMPDEST DUP1 ISZERO ISZERO SUB PUSH2 0x31C JUMPI JUMP JUMPDEST CALLVALUE PUSH2 0x31C JUMPI PUSH1 0x40 CALLDATASIZE PUSH1 0x3 NOT ADD SLT PUSH2 0x31C JUMPI PUSH2 0x7A7 PUSH2 0xA48 PUSH2 0xA0C JUMP JUMPDEST PUSH1 0x24 CALLDATALOAD SWAP1 PUSH2 0xA55 DUP3 PUSH2 0xA22 JUMP JUMPDEST PUSH1 0x10 SLOAD PUSH1 0x1 PUSH1 0x1 PUSH1 0xA0 SHL SUB SWAP2 SWAP1 PUSH2 0xA6F SWAP1 DUP4 AND CALLER EQ PUSH2 0x11EF JUMP JUMPDEST AND PUSH1 0x0 MSTORE PUSH1 0xF PUSH1 0x20 MSTORE PUSH1 0x40 PUSH1 0x0 KECCAK256 SWAP1 PUSH1 0xFF DUP1 NOT DUP4 SLOAD AND SWAP2 ISZERO ISZERO AND OR SWAP1 SSTORE JUMP JUMPDEST SWAP1 PUSH1 0x20 PUSH1 0x3 NOT DUP4 ADD SLT PUSH2 0x31C JUMPI PUSH1 0x4 CALLDATALOAD PUSH1 0x1 PUSH1 0x1 PUSH1 0x40 SHL SUB SWAP3 DUP4 DUP3 GT PUSH2 0x31C JUMPI DUP1 PUSH1 0x23 DUP4 ADD SLT ISZERO PUSH2 0x31C JUMPI DUP2 PUSH1 0x4 ADD CALLDATALOAD SWAP4 DUP5 GT PUSH2 0x31C JUMPI PUSH1 0x24 DUP5 DUP4 ADD ADD GT PUSH2 0x31C JUMPI PUSH1 0x24 ADD SWAP2 SWAP1 JUMP JUMPDEST CALLVALUE PUSH2 0x31C JUMPI PUSH2 0xAE5 CALLDATASIZE PUSH2 0xA8E JUMP JUMPDEST POP POP PUSH1 0x6 SLOAD TIMESTAMP SUB TIMESTAMP DUP2 GT PUSH2 0x7A9 JUMPI PUSH2 0xB00 SWAP1 PUSH1 0x7 SLOAD LT PUSH2 0x125C JUMP JUMPDEST PUSH2 0xB09 TIMESTAMP PUSH1 0x6 SSTORE JUMP JUMPDEST PUSH1 0x40 DUP1 MLOAD PUSH4 0x2BF7F019 PUSH1 0xE1 SHL DUP2 MSTORE PUSH1 0x4 DUP2 ADD SWAP2 SWAP1 SWAP2 MSTORE PUSH1 0x8 PUSH1 0x44 DUP3 ADD MSTORE PUSH8 0x657468657265756D PUSH1 0xC0 SHL PUSH1 0x64 DUP3 ADD MSTORE PUSH1 0x0 PUSH1 0x24 DUP3 ADD MSTORE PUSH1 0x20 DUP2 DUP1 PUSH1 0x84 DUP2 ADD SUB DUP2 PUSH1 0x0 ADDRESS GAS CALL DUP1 ISZERO PUSH2 0xB81 JUMPI PUSH2 0xB59 JUMPI STOP JUMPDEST PUSH2 0x7A7 SWAP1 PUSH1 0x20 RETURNDATASIZE PUSH1 0x20 GT PUSH2 0xB7A JUMPI JUMPDEST PUSH2 0xB72 DUP2 DUP4 PUSH2 0x26E JUMP JUMPDEST DUP2 ADD SWAP1 PUSH2 0x129C JUMP JUMPDEST POP RETURNDATASIZE PUSH2 0xB68 JUMP JUMPDEST PUSH2 0x12AB JUMP JUMPDEST CALLVALUE PUSH2 0x31C JUMPI PUSH1 0x20 CALLDATASIZE PUSH1 0x3 NOT ADD SLT PUSH2 0x31C JUMPI PUSH1 0x1 PUSH1 0x1 PUSH1 0xA0 SHL SUB PUSH2 0xBA7 PUSH2 0xA0C JUMP JUMPDEST AND PUSH1 0x0 MSTORE PUSH1 0xF PUSH1 0x20 MSTORE PUSH1 0x20 PUSH1 0xFF PUSH1 0x40 PUSH1 0x0 KECCAK256 SLOAD AND PUSH1 0x40 MLOAD SWAP1 ISZERO ISZERO DUP2 MSTORE RETURN JUMPDEST CALLVALUE PUSH2 0x31C JUMPI PUSH1 0x20 CALLDATASIZE PUSH1 0x3 NOT ADD SLT PUSH2 0x31C JUMPI PUSH1 0x4 CALLDATALOAD PUSH1 0x0 MSTORE PUSH1 0x4 PUSH1 0x20 MSTORE PUSH1 0x20 PUSH1 0x40 PUSH1 0x0 KECCAK256 SLOAD PUSH1 0x40 MLOAD SWAP1 DUP2 MSTORE RETURN JUMPDEST CALLVALUE PUSH2 0x31C JUMPI PUSH1 0x40 CALLDATASIZE PUSH1 0x3 NOT ADD SLT PUSH2 0x31C JUMPI PUSH1 0x4 CALLDATALOAD PUSH1 0x1 PUSH1 0x1 PUSH1 0x40 SHL SUB DUP2 GT PUSH2 0x31C JUMPI CALLDATASIZE PUSH1 0x23 DUP3 ADD SLT ISZERO PUSH2 0x31C JUMPI PUSH2 0xC35 PUSH2 0x574 SWAP2 CALLDATASIZE SWAP1 PUSH1 0x24 DUP2 PUSH1 0x4 ADD CALLDATALOAD SWAP2 ADD PUSH2 0x2E5 JUMP JUMPDEST PUSH1 0x24 CALLDATALOAD PUSH2 0xC9B PUSH2 0xC46 PUSH1 0x5 SLOAD PUSH2 0x12B7 JUMP JUMPDEST SWAP3 PUSH2 0xC50 DUP5 PUSH1 0x5 SSTORE JUMP JUMPDEST PUSH2 0xC58 PUSH2 0x28F JUMP JUMPDEST CALLER DUP2 MSTORE SWAP1 TIMESTAMP PUSH1 0x20 DUP4 ADD MSTORE PUSH1 0x40 DUP3 ADD MSTORE DUP3 PUSH1 0x60 DUP3 ADD MSTORE PUSH1 0x0 PUSH1 0x80 DUP3 ADD MSTORE PUSH1 0x0 PUSH1 0xA0 DUP3 ADD MSTORE PUSH1 0x0 PUSH1 0xC0 DUP3 ADD MSTORE PUSH2 0xC96 DUP5 PUSH1 0x0 MSTORE PUSH1 0x3 PUSH1 0x20 MSTORE PUSH1 0x40 PUSH1 0x0 KECCAK256 SWAP1 JUMP JUMPDEST PUSH2 0x131C JUMP JUMPDEST DUP1 PUSH2 0xCF2 JUMPI PUSH2 0xCA9 DUP3 PUSH2 0x2017 JUMP JUMPDEST DUP2 PUSH32 0x7EF8CA77FDC89C79F093F2A6B2348B1FCDA0BEB941CE31CE9F2D9D260C4DB9D2 PUSH1 0x40 MLOAD DUP1 PUSH2 0xCDF CALLER SWAP6 DUP3 SWAP2 SWAP1 PUSH1 0x20 DUP4 ADD SWAP3 MSTORE JUMP JUMPDEST SUB SWAP1 LOG3 PUSH1 0x40 MLOAD SWAP1 DUP2 MSTORE SWAP1 DUP2 SWAP1 PUSH1 0x20 DUP3 ADD SWAP1 JUMP JUMPDEST PUSH2 0xCFC DUP2 DUP4 PUSH2 0x1D0A JUMP JUMPDEST PUSH2 0xCA9 JUMP JUMPDEST CALLVALUE PUSH2 0x31C JUMPI PUSH1 0x0 CALLDATASIZE PUSH1 0x3 NOT ADD SLT PUSH2 0x31C JUMPI PUSH1 0x20 PUSH1 0x7 SLOAD PUSH1 0x40 MLOAD SWAP1 DUP2 MSTORE RETURN JUMPDEST CALLVALUE PUSH2 0x31C JUMPI PUSH1 0x0 CALLDATASIZE PUSH1 0x3 NOT ADD SLT PUSH2 0x31C JUMPI PUSH1 0x20 PUSH1 0x6 SLOAD PUSH1 0x40 MLOAD SWAP1 DUP2 MSTORE RETURN JUMPDEST CALLVALUE PUSH2 0x31C JUMPI PUSH2 0xD4B CALLDATASIZE PUSH2 0xA8E JUMP JUMPDEST POP POP PUSH1 0x6 SLOAD TIMESTAMP SUB TIMESTAMP DUP2 GT PUSH2 0x7A9 JUMPI PUSH1 0x7 SLOAD LT PUSH1 0x40 MLOAD SWAP1 PUSH2 0xD6A DUP3 PUSH2 0x238 JUMP JUMPDEST PUSH1 0x0 DUP3 MSTORE PUSH2 0x574 PUSH1 0x40 MLOAD SWAP3 DUP4 SWAP3 DUP4 MSTORE PUSH1 0x40 PUSH1 0x20 DUP5 ADD MSTORE PUSH1 0x40 DUP4 ADD SWAP1 PUSH2 0x422 JUMP JUMPDEST CALLVALUE PUSH2 0x31C JUMPI PUSH1 0x20 CALLDATASIZE PUSH1 0x3 NOT ADD SLT PUSH2 0x31C JUMPI PUSH2 0xDB0 PUSH1 0x1 DUP1 PUSH1 0xA0 SHL SUB PUSH1 0x10 SLOAD AND CALLER EQ PUSH2 0x11EF JUMP JUMPDEST PUSH1 0x4 CALLDATALOAD PUSH1 0x7 SSTORE STOP JUMPDEST CALLVALUE PUSH2 0x31C JUMPI PUSH1 0x0 DUP1 PUSH1 0x3 NOT CALLDATASIZE ADD SLT PUSH2 0xE74 JUMPI PUSH1 0x1 SLOAD PUSH1 0x1 PUSH1 0x1 PUSH1 0xA0 SHL SUB SWAP1 DUP2 AND CALLER SUB PUSH2 0xE36 JUMPI DUP2 SLOAD PUSH1 0x1 PUSH1 0x1 PUSH1 0xA0 SHL SUB AND PUSH1 0x0 DUP1 SLOAD PUSH1 0x1 PUSH1 0x1 PUSH1 0xA0 SHL SUB NOT AND CALLER OR SWAP1 SSTORE SWAP1 PUSH1 0x1 DUP1 SLOAD PUSH1 0x1 PUSH1 0x1 PUSH1 0xA0 SHL SUB NOT AND SWAP1 SSTORE CALLER SWAP2 AND PUSH32 0x8BE0079C531659141344CD1FD0A4F28419497F9722A3DAAFE3B4186F6B6457E0 DUP4 DUP1 LOG3 DUP1 RETURN JUMPDEST PUSH1 0x40 MLOAD PUSH3 0x461BCD PUSH1 0xE5 SHL DUP2 MSTORE PUSH1 0x20 PUSH1 0x4 DUP3 ADD MSTORE PUSH1 0x16 PUSH1 0x24 DUP3 ADD MSTORE PUSH22 0x26BAB9BA10313290383937B837B9B2B21037BBB732B9 PUSH1 0x51 SHL PUSH1 0x44 DUP3 ADD MSTORE PUSH1 0x64 SWAP1 REVERT JUMPDEST DUP1 REVERT JUMPDEST CALLVALUE PUSH2 0x31C JUMPI PUSH1 0x0 CALLDATASIZE PUSH1 0x3 NOT ADD SLT PUSH2 0x31C JUMPI PUSH1 0x0 SLOAD PUSH1 0x40 MLOAD PUSH1 0x1 PUSH1 0x1 PUSH1 0xA0 SHL SUB SWAP1 SWAP2 AND DUP2 MSTORE PUSH1 0x20 SWAP1 RETURN JUMPDEST CALLVALUE PUSH2 0x31C JUMPI PUSH1 0x20 CALLDATASIZE PUSH1 0x3 NOT ADD SLT PUSH2 0x31C JUMPI PUSH2 0xEB9 PUSH2 0xA0C JUMP JUMPDEST PUSH1 0x0 SLOAD PUSH1 0x1 PUSH1 0x1 PUSH1 0xA0 SHL SUB SWAP1 DUP2 AND SWAP1 CALLER DUP3 EQ ISZERO DUP1 PUSH2 0xF07 JUMPI JUMPDEST PUSH2 0xEDF JUMPI PUSH2 0x7A7 DUP4 PUSH2 0x149A JUMP JUMPDEST PUSH1 0x64 SWAP3 POP PUSH1 0x2 SLOAD AND PUSH1 0x40 MLOAD SWAP2 PUSH4 0x61DB9C1 PUSH1 0xE0 SHL DUP4 MSTORE CALLER PUSH1 0x4 DUP5 ADD MSTORE PUSH1 0x24 DUP4 ADD MSTORE PUSH1 0x44 DUP3 ADD MSTORE REVERT JUMPDEST POP DUP1 PUSH1 0x2 SLOAD AND CALLER EQ ISZERO PUSH2 0xED2 JUMP JUMPDEST CALLVALUE PUSH2 0x31C JUMPI PUSH1 0x0 CALLDATASIZE PUSH1 0x3 NOT ADD SLT PUSH2 0x31C JUMPI PUSH1 0x20 PUSH1 0x5 SLOAD PUSH1 0x40 MLOAD SWAP1 DUP2 MSTORE RETURN JUMPDEST CALLVALUE PUSH2 0x31C JUMPI PUSH1 0x0 CALLDATASIZE PUSH1 0x3 NOT ADD SLT PUSH2 0x31C JUMPI PUSH1 0x2 SLOAD PUSH1 0x40 MLOAD PUSH1 0x1 PUSH1 0x1 PUSH1 0xA0 SHL SUB SWAP1 SWAP2 AND DUP2 MSTORE PUSH1 0x20 SWAP1 RETURN JUMPDEST CALLVALUE PUSH2 0x31C JUMPI PUSH1 0x60 CALLDATASIZE PUSH1 0x3 NOT ADD SLT PUSH2 0x31C JUMPI PUSH1 0x44 CALLDATALOAD PUSH4 0xFFFFFFFF DUP2 AND DUP1 SWAP2 SUB PUSH2 0x31C JUMPI PUSH2 0xF93 PUSH1 0x1 DUP1 PUSH1 0xA0 SHL SUB PUSH1 0x10 SLOAD AND CALLER EQ PUSH2 0x11EF JUMP JUMPDEST PUSH1 0x4 CALLDATALOAD PUSH1 0x8 SSTORE PUSH1 0x24 CALLDATALOAD PUSH1 0x9 SSTORE PUSH4 0xFFFFFFFF NOT PUSH1 0xA SLOAD AND OR PUSH1 0xA SSTORE PUSH1 0x0 DUP1 RETURN JUMPDEST CALLVALUE PUSH2 0x31C JUMPI PUSH1 0x0 CALLDATASIZE PUSH1 0x3 NOT ADD SLT PUSH2 0x31C JUMPI PUSH1 0x10 SLOAD PUSH1 0x40 MLOAD PUSH1 0x1 PUSH1 0x1 PUSH1 0xA0 SHL SUB SWAP1 SWAP2 AND DUP2 MSTORE PUSH1 0x20 SWAP1 RETURN JUMPDEST CALLVALUE PUSH2 0x31C JUMPI PUSH1 0x40 CALLDATASIZE PUSH1 0x3 NOT ADD SLT PUSH2 0x31C JUMPI PUSH1 0x1 PUSH1 0x1 PUSH1 0x40 SHL SUB PUSH1 0x4 CALLDATALOAD DUP2 DUP2 GT PUSH2 0x31C JUMPI PUSH2 0x100C SWAP1 CALLDATASIZE SWAP1 PUSH1 0x4 ADD PUSH2 0x689 JUMP JUMPDEST SWAP2 PUSH1 0x24 CALLDATALOAD SWAP1 DUP2 GT PUSH2 0x31C JUMPI PUSH2 0x1025 SWAP1 CALLDATASIZE SWAP1 PUSH1 0x4 ADD PUSH2 0x689 JUMP JUMPDEST SWAP1 CALLER PUSH1 0x0 MSTORE PUSH1 0xF PUSH1 0x20 MSTORE PUSH1 0xFF PUSH1 0x40 PUSH1 0x0 KECCAK256 SLOAD AND DUP1 ISZERO PUSH2 0x1097 JUMPI JUMPDEST ISZERO PUSH2 0x1061 JUMPI PUSH2 0x574 SWAP4 PUSH2 0x1051 SWAP4 PUSH2 0x17F6 JUMP JUMPDEST PUSH1 0x40 MLOAD SWAP1 DUP2 MSTORE SWAP1 DUP2 SWAP1 PUSH1 0x20 DUP3 ADD SWAP1 JUMP JUMPDEST PUSH1 0x40 MLOAD PUSH3 0x461BCD PUSH1 0xE5 SHL DUP2 MSTORE PUSH1 0x20 PUSH1 0x4 DUP3 ADD MSTORE PUSH1 0xE PUSH1 0x24 DUP3 ADD MSTORE PUSH14 0x139BDD08185D5D1A1BDC9A5E9959 PUSH1 0x92 SHL PUSH1 0x44 DUP3 ADD MSTORE PUSH1 0x64 SWAP1 REVERT JUMPDEST POP PUSH1 0x10 SLOAD PUSH1 0x1 PUSH1 0x1 PUSH1 0xA0 SHL SUB AND CALLER EQ PUSH2 0x103F JUMP JUMPDEST CALLVALUE PUSH2 0x31C JUMPI PUSH1 0x20 CALLDATASIZE PUSH1 0x3 NOT ADD SLT PUSH2 0x31C JUMPI PUSH1 0x4 CALLDATALOAD PUSH1 0x0 MSTORE PUSH1 0xE PUSH1 0x20 MSTORE PUSH1 0x20 PUSH1 0xFF PUSH1 0x40 PUSH1 0x0 KECCAK256 SLOAD AND PUSH1 0x40 MLOAD SWAP1 ISZERO ISZERO DUP2 MSTORE RETURN JUMPDEST CALLVALUE PUSH2 0x31C JUMPI PUSH1 0x0 CALLDATASIZE PUSH1 0x3 NOT ADD SLT PUSH2 0x31C JUMPI PUSH1 0x20 PUSH1 0x8 SLOAD PUSH1 0x40 MLOAD SWAP1 DUP2 MSTORE RETURN JUMPDEST CALLVALUE PUSH2 0x31C JUMPI PUSH1 0x20 CALLDATASIZE PUSH1 0x3 NOT ADD SLT PUSH2 0x31C JUMPI PUSH2 0x1113 PUSH2 0xA0C JUMP JUMPDEST PUSH1 0x0 SLOAD PUSH1 0x1 PUSH1 0x1 PUSH1 0xA0 SHL SUB SWAP1 DUP2 AND SWAP2 CALLER DUP4 SWAP1 SUB PUSH2 0x11B1 JUMPI AND SWAP1 CALLER DUP3 EQ PUSH2 0x116C JUMPI PUSH1 0x1 DUP1 SLOAD PUSH1 0x1 PUSH1 0x1 PUSH1 0xA0 SHL SUB NOT AND DUP4 OR SWAP1 SSTORE PUSH32 0xED8889F560326EB138920D842192F0EB3DD22B4F139C87A2C57538E05BAE1278 PUSH1 0x0 DUP1 LOG3 STOP JUMPDEST PUSH1 0x40 MLOAD PUSH3 0x461BCD PUSH1 0xE5 SHL DUP2 MSTORE PUSH1 0x20 PUSH1 0x4 DUP3 ADD MSTORE PUSH1 0x17 PUSH1 0x24 DUP3 ADD MSTORE PUSH32 0x43616E6E6F74207472616E7366657220746F2073656C66000000000000000000 PUSH1 0x44 DUP3 ADD MSTORE PUSH1 0x64 SWAP1 REVERT JUMPDEST PUSH1 0x40 MLOAD PUSH3 0x461BCD PUSH1 0xE5 SHL DUP2 MSTORE PUSH1 0x20 PUSH1 0x4 DUP3 ADD MSTORE PUSH1 0x16 PUSH1 0x24 DUP3 ADD MSTORE PUSH22 0x27B7363C9031B0B63630B1363290313C9037BBB732B9 PUSH1 0x51 SHL PUSH1 0x44 DUP3 ADD MSTORE PUSH1 0x64 SWAP1 REVERT JUMPDEST ISZERO PUSH2 0x11F6 JUMPI JUMP JUMPDEST PUSH1 0x40 MLOAD PUSH3 0x461BCD PUSH1 0xE5 SHL DUP2 MSTORE PUSH1 0x20 PUSH1 0x4 DUP3 ADD MSTORE PUSH1 0xA PUSH1 0x24 DUP3 ADD MSTORE PUSH10 0x27B7363C9037BBB732B9 PUSH1 0xB1 SHL PUSH1 0x44 DUP3 ADD MSTORE PUSH1 0x64 SWAP1 REVERT JUMPDEST PUSH4 0x4E487B71 PUSH1 0xE0 SHL PUSH1 0x0 MSTORE PUSH1 0x11 PUSH1 0x4 MSTORE PUSH1 0x24 PUSH1 0x0 REVERT JUMPDEST PUSH1 0x0 NOT DUP2 ADD SWAP2 SWAP1 DUP3 GT PUSH2 0x7A9 JUMPI JUMP JUMPDEST PUSH1 0x1F NOT DUP2 ADD SWAP2 SWAP1 DUP3 GT PUSH2 0x7A9 JUMPI JUMP JUMPDEST ISZERO PUSH2 0x1263 JUMPI JUMP JUMPDEST PUSH1 0x40 MLOAD PUSH3 0x461BCD PUSH1 0xE5 SHL DUP2 MSTORE PUSH1 0x20 PUSH1 0x4 DUP3 ADD MSTORE PUSH1 0x11 PUSH1 0x24 DUP3 ADD MSTORE PUSH17 0x155C1AD9595C081B9BDD081B9959591959 PUSH1 0x7A SHL PUSH1 0x44 DUP3 ADD MSTORE PUSH1 0x64 SWAP1 REVERT JUMPDEST SWAP1 DUP2 PUSH1 0x20 SWAP2 SUB SLT PUSH2 0x31C JUMPI MLOAD SWAP1 JUMP JUMPDEST PUSH1 0x40 MLOAD RETURNDATASIZE PUSH1 0x0 DUP3 RETURNDATACOPY RETURNDATASIZE SWAP1 REVERT JUMPDEST PUSH1 0x0 NOT DUP2 EQ PUSH2 0x7A9 JUMPI PUSH1 0x1 ADD SWAP1 JUMP JUMPDEST SWAP1 PUSH1 0x1F DUP2 GT PUSH2 0x12D4 JUMPI POP POP POP JUMP JUMPDEST PUSH1 0x0 SWAP2 PUSH1 0x0 MSTORE PUSH1 0x20 PUSH1 0x0 KECCAK256 SWAP1 PUSH1 0x20 PUSH1 0x1F DUP6 ADD PUSH1 0x5 SHR DUP4 ADD SWAP5 LT PUSH2 0x1312 JUMPI JUMPDEST PUSH1 0x1F ADD PUSH1 0x5 SHR ADD SWAP2 JUMPDEST DUP3 DUP2 LT PUSH2 0x1307 JUMPI POP POP POP JUMP JUMPDEST DUP2 DUP2 SSTORE PUSH1 0x1 ADD PUSH2 0x12FB JUMP JUMPDEST SWAP1 SWAP3 POP DUP3 SWAP1 PUSH2 0x12F2 JUMP JUMPDEST DUP2 MLOAD DUP2 SLOAD PUSH1 0x1 PUSH1 0x1 PUSH1 0xA0 SHL SUB NOT AND PUSH1 0x1 PUSH1 0x1 PUSH1 0xA0 SHL SUB SWAP2 SWAP1 SWAP2 AND OR DUP2 SSTORE PUSH1 0x1 PUSH1 0x20 SWAP1 PUSH1 0x20 DUP5 ADD MLOAD PUSH1 0x1 DUP5 ADD SSTORE PUSH1 0x2 DUP4 ADD SWAP2 PUSH1 0x40 DUP6 ADD MLOAD DUP1 MLOAD SWAP3 PUSH1 0x1 PUSH1 0x1 PUSH1 0x40 SHL SUB DUP5 GT PUSH2 0x218 JUMPI PUSH2 0x1377 DUP5 PUSH2 0x1371 DUP8 SLOAD PUSH2 0x807 JUMP JUMPDEST DUP8 PUSH2 0x12C6 JUMP JUMPDEST PUSH1 0x20 SWAP3 PUSH1 0x1F DUP6 GT PUSH1 0x1 EQ PUSH2 0x141B JUMPI POP POP SWAP4 PUSH2 0x13FA SWAP4 PUSH2 0x13B8 DUP5 PUSH1 0xC0 SWAP6 PUSH1 0x5 SWAP6 PUSH2 0x29C SWAP11 SWAP10 PUSH1 0x0 SWAP3 PUSH2 0x1410 JUMPI JUMPDEST POP POP DUP2 PUSH1 0x1 SHL SWAP2 PUSH1 0x0 NOT SWAP1 PUSH1 0x3 SHL SHR NOT AND OR SWAP1 JUMP JUMPDEST SWAP1 SSTORE JUMPDEST PUSH1 0x60 DUP6 ADD MLOAD PUSH1 0x3 DUP3 ADD SSTORE PUSH1 0x80 DUP6 ADD MLOAD PUSH1 0x4 DUP3 ADD SSTORE ADD SWAP3 PUSH2 0x13F3 PUSH2 0x13E1 PUSH1 0xA0 DUP4 ADD MLOAD ISZERO ISZERO SWAP1 JUMP JUMPDEST DUP6 SWAP1 PUSH1 0xFF DUP1 NOT DUP4 SLOAD AND SWAP2 ISZERO ISZERO AND OR SWAP1 SSTORE JUMP JUMPDEST ADD MLOAD ISZERO ISZERO SWAP1 JUMP JUMPDEST DUP2 SLOAD PUSH2 0xFF00 NOT AND SWAP1 ISZERO ISZERO PUSH1 0x8 SHL PUSH2 0xFF00 AND OR SWAP1 SSTORE JUMP JUMPDEST ADD MLOAD SWAP1 POP CODESIZE DUP1 PUSH2 0x13A3 JUMP JUMPDEST SWAP3 SWAP2 SWAP1 PUSH1 0x1F NOT DUP6 AND SWAP1 PUSH2 0x1433 DUP8 PUSH1 0x0 MSTORE PUSH1 0x20 PUSH1 0x0 KECCAK256 SWAP1 JUMP JUMPDEST SWAP5 PUSH1 0x0 SWAP2 JUMPDEST DUP4 DUP4 LT PUSH2 0x1483 JUMPI POP POP POP DUP5 PUSH1 0x5 SWAP5 PUSH2 0x29C SWAP10 SWAP9 SWAP5 PUSH2 0x13FA SWAP9 SWAP5 PUSH1 0xC0 SWAP9 PUSH1 0x1 SWAP6 LT PUSH2 0x146A JUMPI JUMPDEST POP POP POP DUP2 SHL ADD SWAP1 SSTORE PUSH2 0x13BB JUMP JUMPDEST ADD MLOAD PUSH1 0x0 NOT PUSH1 0xF8 DUP5 PUSH1 0x3 SHL AND SHR NOT AND SWAP1 SSTORE CODESIZE DUP1 DUP1 PUSH2 0x145D JUMP JUMPDEST DUP5 DUP7 ADD MLOAD DUP8 SSTORE SWAP6 DUP7 ADD SWAP6 SWAP5 DUP2 ADD SWAP5 SWAP2 DUP2 ADD SWAP2 PUSH2 0x1438 JUMP JUMPDEST PUSH1 0x1 PUSH1 0x1 PUSH1 0xA0 SHL SUB AND DUP1 ISZERO PUSH2 0x14EF JUMPI PUSH1 0x20 DUP2 PUSH32 0xD1A6A14209A385A964D036E404CB5CFB71F4000CDB03C9366292430787261BE6 SWAP3 PUSH12 0xFFFFFFFFFFFFFFFFFFFFFFFF PUSH1 0xA0 SHL PUSH1 0x2 SLOAD AND OR PUSH1 0x2 SSTORE PUSH1 0x40 MLOAD SWAP1 DUP2 MSTORE LOG1 JUMP JUMPDEST PUSH1 0x40 MLOAD PUSH4 0xD92E233D PUSH1 0xE0 SHL DUP2 MSTORE PUSH1 0x4 SWAP1 REVERT JUMPDEST ISZERO PUSH2 0x1508 JUMPI JUMP JUMPDEST PUSH1 0x40 MLOAD PUSH3 0x461BCD PUSH1 0xE5 SHL DUP2 MSTORE PUSH1 0x20 PUSH1 0x4 DUP3 ADD MSTORE PUSH1 0x14 PUSH1 0x24 DUP3 ADD MSTORE PUSH20 0x496E76616C696420696E70757420617272617973 PUSH1 0x60 SHL PUSH1 0x44 DUP3 ADD MSTORE PUSH1 0x64 SWAP1 REVERT JUMPDEST ISZERO PUSH2 0x154B JUMPI JUMP JUMPDEST PUSH1 0x40 MLOAD PUSH3 0x461BCD PUSH1 0xE5 SHL DUP2 MSTORE PUSH1 0x20 PUSH1 0x4 DUP3 ADD MSTORE PUSH1 0x1C PUSH1 0x24 DUP3 ADD MSTORE PUSH32 0x546F6F206D616E792070726F6F667320746F2061676772656761746500000000 PUSH1 0x44 DUP3 ADD MSTORE PUSH1 0x64 SWAP1 REVERT JUMPDEST PUSH1 0x1 PUSH1 0x1 PUSH1 0x40 SHL SUB DUP2 GT PUSH2 0x218 JUMPI PUSH1 0x5 SHL PUSH1 0x20 ADD SWAP1 JUMP JUMPDEST SWAP1 PUSH2 0x15B1 DUP3 PUSH2 0x1590 JUMP JUMPDEST PUSH2 0x15BE PUSH1 0x40 MLOAD SWAP2 DUP3 PUSH2 0x26E JUMP JUMPDEST DUP3 DUP2 MSTORE DUP1 SWAP3 PUSH2 0x15CF PUSH1 0x1F NOT SWAP2 PUSH2 0x1590 JUMP JUMPDEST ADD SWAP1 PUSH1 0x20 CALLDATASIZE SWAP2 ADD CALLDATACOPY JUMP JUMPDEST SWAP2 SWAP1 DUP2 LT ISZERO PUSH2 0x161A JUMPI PUSH1 0x5 SHL DUP2 ADD CALLDATALOAD SWAP1 PUSH1 0x1E NOT DUP2 CALLDATASIZE SUB ADD DUP3 SLT ISZERO PUSH2 0x31C JUMPI ADD SWAP1 DUP2 CALLDATALOAD SWAP2 PUSH1 0x1 PUSH1 0x1 PUSH1 0x40 SHL SUB DUP4 GT PUSH2 0x31C JUMPI PUSH1 0x20 ADD DUP3 CALLDATASIZE SUB DUP2 SGT PUSH2 0x31C JUMPI SWAP2 SWAP1 JUMP JUMPDEST PUSH2 0x9B2 JUMP JUMPDEST ISZERO PUSH2 0x1626 JUMPI JUMP JUMPDEST PUSH1 0x40 MLOAD PUSH3 0x461BCD PUSH1 0xE5 SHL DUP2 MSTORE PUSH1 0x20 PUSH1 0x4 DUP3 ADD MSTORE PUSH1 0x1C PUSH1 0x24 DUP3 ADD MSTORE PUSH32 0x496E76616C69642070726F6F6620696E206167677265676174696F6E00000000 PUSH1 0x44 DUP3 ADD MSTORE PUSH1 0x64 SWAP1 REVERT JUMPDEST SWAP1 DUP1 SWAP3 SWAP2 DUP3 CALLDATACOPY ADD PUSH1 0x0 DUP2 MSTORE SWAP1 JUMP JUMPDEST ISZERO PUSH2 0x1680 JUMPI JUMP JUMPDEST PUSH1 0x40 MLOAD PUSH3 0x461BCD PUSH1 0xE5 SHL DUP2 MSTORE PUSH1 0x20 PUSH1 0x4 DUP3 ADD MSTORE PUSH1 0x21 PUSH1 0x24 DUP3 ADD MSTORE PUSH32 0x50726F6F6620616C7265616479207573656420696E206167677265676174696F PUSH1 0x44 DUP3 ADD MSTORE PUSH1 0x37 PUSH1 0xF9 SHL PUSH1 0x64 DUP3 ADD MSTORE PUSH1 0x84 SWAP1 REVERT JUMPDEST DUP1 MLOAD ISZERO PUSH2 0x161A JUMPI PUSH1 0x20 ADD SWAP1 JUMP JUMPDEST DUP1 MLOAD PUSH1 0x1 LT ISZERO PUSH2 0x161A JUMPI PUSH1 0x40 ADD SWAP1 JUMP JUMPDEST DUP1 MLOAD DUP3 LT ISZERO PUSH2 0x161A JUMPI PUSH1 0x20 SWAP2 PUSH1 0x5 SHL ADD ADD SWAP1 JUMP JUMPDEST SWAP2 SWAP4 SWAP3 SWAP1 SWAP4 DUP5 MLOAD PUSH1 0x20 DUP1 SWAP7 ADD SWAP1 PUSH1 0x0 JUMPDEST DUP2 DUP2 LT PUSH2 0x173A JUMPI POP POP POP DUP3 MSTORE PUSH1 0x60 SHL PUSH12 0xFFFFFFFFFFFFFFFFFFFFFFFF NOT AND PUSH1 0x20 DUP3 ADD MSTORE PUSH1 0x34 ADD SWAP2 POP JUMP JUMPDEST DUP3 MLOAD DUP7 MSTORE SWAP5 DUP8 ADD SWAP5 SWAP2 DUP8 ADD SWAP2 PUSH1 0x1 ADD PUSH2 0x1710 JUMP JUMPDEST SWAP1 DUP2 PUSH1 0x1 SHL SWAP2 DUP1 DUP4 DIV PUSH1 0x2 EQ SWAP1 ISZERO OR ISZERO PUSH2 0x7A9 JUMPI JUMP JUMPDEST DUP2 MLOAD SWAP2 PUSH1 0x1 PUSH1 0x1 PUSH1 0x40 SHL SUB DUP4 GT PUSH2 0x218 JUMPI PUSH9 0x10000000000000000 DUP4 GT PUSH2 0x218 JUMPI DUP2 SLOAD DUP4 DUP4 SSTORE DUP1 DUP5 LT PUSH2 0x17CB JUMPI JUMPDEST POP PUSH2 0x17A7 PUSH1 0x20 DUP1 SWAP3 ADD SWAP3 PUSH1 0x0 MSTORE PUSH1 0x20 PUSH1 0x0 KECCAK256 SWAP1 JUMP JUMPDEST SWAP1 PUSH1 0x0 JUMPDEST DUP5 DUP2 LT PUSH2 0x17B9 JUMPI POP POP POP POP POP JUMP JUMPDEST DUP4 MLOAD DUP4 DUP3 ADD SSTORE SWAP3 DUP2 ADD SWAP3 PUSH1 0x1 ADD PUSH2 0x17AB JUMP JUMPDEST PUSH1 0x0 DUP4 PUSH1 0x0 MSTORE DUP5 PUSH1 0x20 PUSH1 0x0 KECCAK256 SWAP3 DUP4 ADD SWAP3 ADD JUMPDEST DUP3 DUP2 LT PUSH2 0x17EB JUMPI POP POP PUSH2 0x1792 JUMP JUMPDEST DUP2 DUP2 SSTORE PUSH1 0x1 ADD PUSH2 0x17DD JUMP JUMPDEST SWAP2 SWAP3 SWAP1 SWAP3 DUP2 DUP5 EQ DUP1 PUSH2 0x19C8 JUMPI JUMPDEST PUSH2 0x180C SWAP1 PUSH2 0x1501 JUMP JUMPDEST PUSH2 0x1819 PUSH1 0xA DUP6 GT ISZERO PUSH2 0x1544 JUMP JUMPDEST PUSH2 0x1822 DUP5 PUSH2 0x15A7 JUMP JUMPDEST SWAP4 PUSH1 0x0 JUMPDEST DUP2 DUP2 LT PUSH2 0x18F2 JUMPI POP POP POP POP POP PUSH1 0x40 MLOAD PUSH1 0x20 DUP2 ADD SWAP1 PUSH2 0x1858 DUP2 PUSH2 0x184A CALLER TIMESTAMP DUP8 DUP8 PUSH2 0x1700 JUMP JUMPDEST SUB PUSH1 0x1F NOT DUP2 ADD DUP4 MSTORE DUP3 PUSH2 0x26E JUMP JUMPDEST MLOAD SWAP1 KECCAK256 SWAP1 PUSH2 0x188D PUSH2 0x186A PUSH1 0x5 SLOAD PUSH2 0x12B7 JUMP JUMPDEST SWAP2 PUSH2 0x1874 DUP4 PUSH1 0x5 SSTORE JUMP JUMPDEST PUSH2 0x1888 DUP4 PUSH1 0x0 MSTORE PUSH1 0xD PUSH1 0x20 MSTORE PUSH1 0x40 PUSH1 0x0 KECCAK256 SWAP1 JUMP JUMPDEST PUSH2 0x1764 JUMP JUMPDEST PUSH2 0x18B1 PUSH2 0x18A4 DUP4 PUSH1 0x0 MSTORE PUSH1 0xC PUSH1 0x20 MSTORE PUSH1 0x40 PUSH1 0x0 KECCAK256 SWAP1 JUMP JUMPDEST DUP1 SLOAD PUSH1 0xFF NOT AND PUSH1 0x1 OR SWAP1 SSTORE JUMP JUMPDEST PUSH32 0x6DD2118914AD2B9A98780FAFD92846EEBE9361998A810F1A05F67033B17E2CDD PUSH1 0x40 MLOAD DUP1 PUSH2 0x18EC DUP6 DUP3 SWAP2 SWAP1 PUSH1 0x20 PUSH1 0x40 DUP5 ADD SWAP4 PUSH1 0x1 DUP2 MSTORE ADD MSTORE JUMP JUMPDEST SUB SWAP1 LOG2 SWAP1 JUMP JUMPDEST DUP1 PUSH2 0x1937 PUSH2 0x1932 PUSH2 0x192C PUSH2 0x1909 PUSH1 0x1 SWAP6 DUP8 DUP12 PUSH2 0x15D9 JUMP JUMPDEST PUSH2 0x1924 PUSH2 0x191A DUP8 DUP13 DUP13 SWAP7 SWAP6 SWAP7 PUSH2 0x15D9 JUMP JUMPDEST SWAP5 SWAP1 SWAP3 CALLDATASIZE SWAP2 PUSH2 0x2E5 JUMP JUMPDEST SWAP3 CALLDATASIZE SWAP2 PUSH2 0x2E5 JUMP JUMPDEST SWAP1 PUSH2 0x2296 JUMP JUMPDEST PUSH2 0x161F JUMP JUMPDEST PUSH2 0x19C2 PUSH2 0x18A4 PUSH2 0x1976 PUSH2 0x1970 PUSH2 0x194E DUP6 DUP9 DUP13 PUSH2 0x15D9 JUMP JUMPDEST SWAP3 SWAP1 PUSH2 0x184A PUSH2 0x195E DUP9 DUP14 DUP14 PUSH2 0x15D9 JUMP JUMPDEST PUSH1 0x40 MLOAD SWAP6 DUP7 SWAP5 PUSH1 0x20 DUP7 ADD SWAP9 DUP10 SWAP2 PUSH2 0x166B JUMP JUMPDEST SWAP2 PUSH2 0x166B JUMP JUMPDEST MLOAD SWAP1 KECCAK256 PUSH2 0x19A6 PUSH2 0x19A1 PUSH2 0x199D PUSH2 0x1996 DUP5 PUSH1 0x0 MSTORE PUSH1 0xE PUSH1 0x20 MSTORE PUSH1 0x40 PUSH1 0x0 KECCAK256 SWAP1 JUMP JUMPDEST SLOAD PUSH1 0xFF AND SWAP1 JUMP JUMPDEST ISZERO SWAP1 JUMP JUMPDEST PUSH2 0x1679 JUMP JUMPDEST DUP1 PUSH2 0x19B1 DUP6 DUP13 PUSH2 0x16EC JUMP JUMPDEST MSTORE PUSH1 0x0 MSTORE PUSH1 0xE PUSH1 0x20 MSTORE PUSH1 0x40 PUSH1 0x0 KECCAK256 SWAP1 JUMP JUMPDEST ADD PUSH2 0x1826 JUMP JUMPDEST POP DUP4 ISZERO ISZERO PUSH2 0x1803 JUMP JUMPDEST ISZERO PUSH2 0x19D8 JUMPI JUMP JUMPDEST PUSH1 0x40 MLOAD PUSH3 0x461BCD PUSH1 0xE5 SHL DUP2 MSTORE PUSH1 0x20 PUSH1 0x4 DUP3 ADD MSTORE PUSH1 0x19 PUSH1 0x24 DUP3 ADD MSTORE PUSH32 0x496E76616C69642046756E6374696F6E73207265717565737400000000000000 PUSH1 0x44 DUP3 ADD MSTORE PUSH1 0x64 SWAP1 REVERT JUMPDEST DUP2 PUSH1 0x1F DUP3 ADD SLT ISZERO PUSH2 0x31C JUMPI DUP1 MLOAD PUSH2 0x1A33 DUP2 PUSH2 0x2CA JUMP JUMPDEST SWAP3 PUSH2 0x1A41 PUSH1 0x40 MLOAD SWAP5 DUP6 PUSH2 0x26E JUMP JUMPDEST DUP2 DUP5 MSTORE PUSH1 0x20 DUP3 DUP5 ADD ADD GT PUSH2 0x31C JUMPI PUSH2 0x33C SWAP2 PUSH1 0x20 DUP1 DUP6 ADD SWAP2 ADD PUSH2 0x3FF JUMP JUMPDEST SWAP2 SWAP1 SWAP2 PUSH1 0x40 DUP2 DUP5 SUB SLT PUSH2 0x31C JUMPI DUP1 MLOAD SWAP3 PUSH1 0x1 PUSH1 0x1 PUSH1 0x40 SHL SUB SWAP4 DUP5 DUP2 GT PUSH2 0x31C JUMPI DUP2 PUSH2 0x1A8B SWAP2 DUP5 ADD PUSH2 0x1A1D JUMP JUMPDEST SWAP4 PUSH1 0x20 DUP4 ADD MLOAD SWAP1 DUP2 GT PUSH2 0x31C JUMPI PUSH2 0x33C SWAP3 ADD PUSH2 0x1A1D JUMP JUMPDEST SWAP1 SWAP2 PUSH2 0x1AB9 PUSH2 0x33C SWAP4 PUSH1 0x40 DUP5 MSTORE PUSH1 0x40 DUP5 ADD SWAP1 PUSH2 0x422 JUMP JUMPDEST SWAP2 PUSH1 0x20 DUP2 DUP5 SUB SWAP2 ADD MSTORE PUSH2 0x422 JUMP JUMPDEST PUSH1 0x20 DUP2 MLOAD SWAP2 ADD MLOAD SWAP1 PUSH1 0x20 DUP2 LT PUSH2 0x1ADB JUMPI POP SWAP1 JUMP JUMPDEST PUSH1 0x0 NOT SWAP1 PUSH1 0x20 SUB PUSH1 0x3 SHL SHL AND SWAP1 JUMP JUMPDEST SWAP1 PUSH2 0x1AFF DUP3 PUSH1 0x0 MSTORE PUSH1 0x4 PUSH1 0x20 MSTORE PUSH1 0x40 PUSH1 0x0 KECCAK256 SWAP1 JUMP JUMPDEST SLOAD SWAP3 PUSH2 0x1B0C DUP5 ISZERO ISZERO PUSH2 0x19D1 JUMP JUMPDEST MLOAD PUSH2 0x1C25 JUMPI SWAP1 PUSH2 0x1BE6 PUSH2 0x1B88 PUSH2 0x1B4C DUP5 PUSH1 0x20 DUP1 PUSH32 0x6DD2118914AD2B9A98780FAFD92846EEBE9361998A810F1A05F67033B17E2CDD SWAP8 MLOAD DUP4 ADD ADD SWAP2 ADD PUSH2 0x1A5F JUMP JUMPDEST SWAP4 SWAP1 DUP5 SWAP2 PUSH32 0x50348C1AF87D1D2E61E0A7E9BF83A9C67F047D8DE73BE6B88ACAC8655A97581E PUSH1 0x40 MLOAD DUP1 PUSH2 0x1B80 DUP7 DUP7 DUP4 PUSH2 0x1AA2 JUMP JUMPDEST SUB SWAP1 LOG2 PUSH2 0x2296 JUMP JUMPDEST SWAP2 DUP3 PUSH2 0x1B9E DUP7 PUSH1 0x0 MSTORE PUSH1 0x3 PUSH1 0x20 MSTORE PUSH1 0x40 PUSH1 0x0 KECCAK256 SWAP1 JUMP JUMPDEST PUSH2 0x1BCF DUP3 PUSH1 0x5 DUP4 ADD PUSH2 0x1BB7 DUP2 PUSH1 0x1 PUSH1 0xFF NOT DUP3 SLOAD AND OR SWAP1 SSTORE JUMP JUMPDEST SWAP1 PUSH2 0xFF00 DUP3 SLOAD SWAP2 ISZERO ISZERO PUSH1 0x8 SHL AND SWAP1 PUSH2 0xFF00 NOT AND OR SWAP1 SSTORE JUMP JUMPDEST PUSH1 0x4 PUSH2 0x1BDA DUP5 PUSH2 0x1AC7 JUMP JUMPDEST SWAP2 ADD SSTORE PUSH2 0x1C01 JUMPI PUSH2 0x1AC7 JUMP JUMPDEST PUSH1 0x40 DUP1 MLOAD SWAP3 ISZERO ISZERO DUP4 MSTORE PUSH1 0x20 DUP4 ADD SWAP2 SWAP1 SWAP2 MSTORE DUP2 SWAP1 DUP2 ADD JUMPDEST SUB SWAP1 LOG2 JUMP JUMPDEST PUSH2 0x1C20 PUSH2 0x18A4 PUSH2 0x1C10 DUP4 PUSH2 0x1AC7 JUMP JUMPDEST PUSH1 0x0 MSTORE PUSH1 0xC PUSH1 0x20 MSTORE PUSH1 0x40 PUSH1 0x0 KECCAK256 SWAP1 JUMP JUMPDEST PUSH2 0x1AC7 JUMP JUMPDEST POP POP PUSH1 0x5 PUSH2 0x1C40 PUSH2 0x29C SWAP3 PUSH1 0x0 MSTORE PUSH1 0x3 PUSH1 0x20 MSTORE PUSH1 0x40 PUSH1 0x0 KECCAK256 SWAP1 JUMP JUMPDEST ADD DUP1 SLOAD PUSH1 0xFF NOT AND PUSH1 0x1 OR SWAP1 SSTORE JUMP JUMPDEST SWAP1 ISZERO PUSH2 0x161A JUMPI SWAP1 JUMP JUMPDEST PUSH1 0x30 ADD SWAP1 DUP2 PUSH1 0x30 GT PUSH2 0x7A9 JUMPI JUMP JUMPDEST SWAP1 PUSH1 0x20 DUP3 ADD DUP1 SWAP3 GT PUSH2 0x7A9 JUMPI JUMP JUMPDEST SWAP2 SWAP1 DUP3 ADD DUP1 SWAP3 GT PUSH2 0x7A9 JUMPI JUMP JUMPDEST PUSH1 0x40 MLOAD SWAP1 PUSH2 0x1C8D DUP3 PUSH2 0x1FD JUMP JUMPDEST PUSH1 0x60 PUSH1 0xC0 DUP4 PUSH1 0x0 DUP2 MSTORE PUSH1 0x0 PUSH1 0x20 DUP3 ADD MSTORE PUSH1 0x0 PUSH1 0x40 DUP3 ADD MSTORE DUP3 DUP1 DUP3 ADD MSTORE DUP3 PUSH1 0x80 DUP3 ADD MSTORE DUP3 PUSH1 0xA0 DUP3 ADD MSTORE ADD MSTORE JUMP JUMPDEST PUSH1 0x40 SWAP1 PUSH1 0x40 MLOAD SWAP2 PUSH2 0x1CC9 DUP4 PUSH2 0x253 JUMP JUMPDEST PUSH1 0x2 DUP4 MSTORE DUP3 PUSH1 0x0 JUMPDEST DUP3 DUP2 LT PUSH2 0x1CDD JUMPI POP POP POP JUMP JUMPDEST DUP1 PUSH1 0x60 PUSH1 0x20 DUP1 SWAP4 DUP6 ADD ADD MSTORE ADD PUSH2 0x1CD1 JUMP JUMPDEST SWAP3 SWAP2 SWAP1 PUSH2 0x1D05 PUSH1 0x20 SWAP2 PUSH1 0x40 DUP7 MSTORE PUSH1 0x40 DUP7 ADD SWAP1 PUSH2 0x841 JUMP JUMPDEST SWAP4 ADD MSTORE JUMP JUMPDEST SWAP1 PUSH32 0x89652D00E157965D54F5AD31AF9352416C4E90B879711EC122680D4E3A1DE9A6 SWAP1 PUSH2 0x1D41 DUP4 PUSH1 0x0 MSTORE PUSH1 0x3 PUSH1 0x20 MSTORE PUSH1 0x40 PUSH1 0x0 KECCAK256 SWAP1 JUMP JUMPDEST PUSH2 0x1F9B PUSH2 0x1F77 PUSH1 0x40 MLOAD PUSH2 0x1F10 DUP2 PUSH2 0x184A PUSH2 0x1E9B PUSH2 0x1E5A PUSH2 0x1E01 PUSH2 0x1DC6 PUSH2 0x1D8E PUSH1 0x20 DUP8 ADD PUSH1 0x1C SWAP1 PUSH32 0x636F6E737420736F75726365436861696E203D20617267735B305D3B00000000 DUP2 MSTORE ADD SWAP1 JUMP JUMPDEST PUSH32 0x636F6E737420626C6F636B4E756D626572203D207061727365496E7428617267 DUP2 MSTORE PUSH6 0x735B315D293B PUSH1 0xD0 SHL PUSH1 0x20 DUP3 ADD MSTORE PUSH1 0x26 ADD SWAP1 JUMP JUMPDEST PUSH32 0x2F2F20466574636820626C6F636B206461746120616E642067656E6572617465 DUP2 MSTORE PUSH9 0x102D2590383937B7B3 PUSH1 0xB9 SHL PUSH1 0x20 DUP3 ADD MSTORE PUSH1 0x29 ADD SWAP1 JUMP JUMPDEST PUSH32 0x636F6E737420626C6F636B44617461203D206177616974206665746368426C6F DUP2 MSTORE PUSH32 0x636B4461746128736F75726365436861696E2C20626C6F636B4E756D62657229 PUSH1 0x20 DUP3 ADD MSTORE PUSH1 0x3B PUSH1 0xF8 SHL PUSH1 0x40 DUP3 ADD MSTORE PUSH1 0x41 ADD SWAP1 JUMP JUMPDEST PUSH32 0x636F6E73742070726F6F66203D2061776169742067656E65726174655A4B5072 DUP2 MSTORE PUSH15 0x6F6F6628626C6F636B44617461293B PUSH1 0x88 SHL PUSH1 0x20 DUP3 ADD MSTORE PUSH1 0x2F ADD SWAP1 JUMP JUMPDEST PUSH32 0x72657475726E2046756E6374696F6E732E656E636F6465537472696E67284A53 DUP2 MSTORE PUSH32 0x4F4E2E737472696E67696679287B70726F6F662C207075626C6963496E707574 PUSH1 0x20 DUP3 ADD MSTORE PUSH32 0x733A20626C6F636B446174612E7374617465526F6F747D29293B000000000000 PUSH1 0x40 DUP3 ADD MSTORE PUSH1 0x5A ADD SWAP1 JUMP JUMPDEST PUSH2 0x1F22 PUSH2 0x1F1B PUSH2 0x1C80 JUMP JUMPDEST SWAP2 DUP3 PUSH2 0x289C JUMP JUMPDEST PUSH2 0x1F72 PUSH1 0x2 PUSH2 0x1F2F PUSH2 0x1CB9 JUMP JUMPDEST SWAP6 ADD SWAP5 PUSH2 0x1F3B DUP7 PUSH2 0x8D7 JUMP JUMPDEST PUSH2 0x1F44 DUP3 PUSH2 0x16CF JUMP JUMPDEST MSTORE PUSH2 0x1F4E DUP2 PUSH2 0x16CF JUMP JUMPDEST POP PUSH2 0x1F58 DUP8 PUSH2 0x23D9 JUMP JUMPDEST PUSH2 0x1F61 DUP3 PUSH2 0x16DC JUMP JUMPDEST MSTORE PUSH2 0x1F6B DUP2 PUSH2 0x16DC JUMP JUMPDEST POP DUP3 PUSH2 0x247F JUMP JUMPDEST PUSH2 0x25CE JUMP JUMPDEST PUSH1 0xA SLOAD PUSH1 0xB SLOAD SWAP2 PUSH1 0x1 PUSH1 0x1 PUSH1 0x40 SHL SUB PUSH4 0xFFFFFFFF DUP4 PUSH1 0x90 SHR AND SWAP3 PUSH1 0x50 SHR AND SWAP1 PUSH2 0x279C JUMP JUMPDEST SWAP4 PUSH2 0x1FB0 DUP6 PUSH1 0x0 MSTORE PUSH1 0x4 PUSH1 0x20 MSTORE PUSH1 0x40 PUSH1 0x0 KECCAK256 SWAP1 JUMP JUMPDEST SSTORE PUSH2 0x1BFC PUSH1 0x40 MLOAD SWAP3 DUP4 SWAP3 DUP4 PUSH2 0x1CEE JUMP JUMPDEST PUSH1 0xE0 PUSH1 0xA0 PUSH2 0x33C SWAP4 PUSH1 0x20 DUP5 MSTORE DUP1 MLOAD PUSH1 0x20 DUP6 ADD MSTORE PUSH1 0x20 DUP2 ADD MLOAD PUSH1 0x40 DUP6 ADD MSTORE PUSH2 0xFFFF PUSH1 0x40 DUP3 ADD MLOAD AND PUSH1 0x60 DUP6 ADD MSTORE PUSH1 0x60 DUP2 ADD MLOAD PUSH4 0xFFFFFFFF DUP1 SWAP2 AND PUSH1 0x80 DUP7 ADD MSTORE PUSH1 0x80 DUP3 ADD MLOAD AND DUP3 DUP6 ADD MSTORE ADD MLOAD SWAP2 PUSH1 0xC0 DUP1 DUP3 ADD MSTORE ADD SWAP1 PUSH2 0x422 JUMP JUMPDEST PUSH1 0x2 SLOAD PUSH1 0x0 SWAP1 PUSH1 0x20 SWAP1 PUSH2 0x20B0 SWAP1 PUSH1 0x1 PUSH1 0x1 PUSH1 0xA0 SHL SUB AND PUSH1 0x9 SLOAD PUSH1 0x8 SLOAD PUSH2 0x208F PUSH1 0xA SLOAD PUSH4 0xFFFFFFFF SWAP1 PUSH2 0x2052 PUSH2 0x204A PUSH2 0x29E JUMP JUMPDEST DUP11 DUP2 MSTORE PUSH2 0x2876 JUMP JUMPDEST SWAP4 PUSH2 0x205B PUSH2 0x2AB JUMP JUMPDEST SWAP6 DUP7 MSTORE DUP9 DUP7 ADD MSTORE DUP1 DUP9 SHR PUSH2 0xFFFF AND PUSH1 0x40 DUP7 ADD MSTORE PUSH4 0xFFFFFFFF DUP2 DUP4 AND AND PUSH1 0x60 DUP7 ADD MSTORE PUSH1 0x30 SHR AND PUSH1 0x80 DUP5 ADD SWAP1 PUSH4 0xFFFFFFFF AND SWAP1 MSTORE JUMP JUMPDEST PUSH1 0xA0 DUP3 ADD MSTORE PUSH1 0x40 MLOAD SWAP5 DUP6 DUP1 SWAP5 DUP2 SWAP4 PUSH4 0x4D8E1C2F PUSH1 0xE1 SHL DUP4 MSTORE PUSH1 0x4 DUP4 ADD PUSH2 0x1FC0 JUMP JUMPDEST SUB SWAP3 GAS CALL DUP1 ISZERO PUSH2 0xB81 JUMPI PUSH2 0x20D7 SWAP2 PUSH1 0x0 SWAP2 PUSH2 0x20DA JUMPI JUMPDEST POP PUSH1 0x0 MSTORE PUSH1 0x4 PUSH1 0x20 MSTORE PUSH1 0x40 PUSH1 0x0 KECCAK256 SWAP1 JUMP JUMPDEST SSTORE JUMP JUMPDEST PUSH2 0x20F3 SWAP2 POP PUSH1 0x20 RETURNDATASIZE PUSH1 0x20 GT PUSH2 0xB7A JUMPI PUSH2 0xB72 DUP2 DUP4 PUSH2 0x26E JUMP JUMPDEST CODESIZE PUSH2 0x20C6 JUMP JUMPDEST PUSH1 0x40 MLOAD SWAP1 PUSH2 0x2106 DUP3 PUSH2 0x21D JUMP JUMPDEST PUSH1 0x40 CALLDATASIZE DUP4 CALLDATACOPY JUMP JUMPDEST PUSH1 0x40 SWAP1 PUSH1 0x40 MLOAD PUSH2 0x211C DUP2 PUSH2 0x21D JUMP JUMPDEST DUP1 SWAP3 PUSH1 0x0 JUMPDEST DUP2 DUP2 LT PUSH2 0x212D JUMPI POP POP POP JUMP JUMPDEST PUSH1 0x20 SWAP1 DUP3 MLOAD PUSH2 0x213B DUP2 PUSH2 0x21D JUMP JUMPDEST DUP4 CALLDATASIZE DUP3 CALLDATACOPY DUP2 DUP6 ADD MSTORE ADD PUSH2 0x2121 JUMP JUMPDEST PUSH1 0x20 SWAP1 DUP2 DUP2 DUP5 SUB SLT PUSH2 0x31C JUMPI DUP1 MLOAD SWAP1 PUSH1 0x1 PUSH1 0x1 PUSH1 0x40 SHL SUB DUP3 GT PUSH2 0x31C JUMPI ADD SWAP2 DUP1 PUSH1 0x1F DUP5 ADD SLT ISZERO PUSH2 0x31C JUMPI DUP3 MLOAD PUSH2 0x217E DUP2 PUSH2 0x1590 JUMP JUMPDEST SWAP4 PUSH2 0x218C PUSH1 0x40 MLOAD SWAP6 DUP7 PUSH2 0x26E JUMP JUMPDEST DUP2 DUP6 MSTORE DUP4 DUP1 DUP7 ADD SWAP3 PUSH1 0x5 SHL DUP3 ADD ADD SWAP3 DUP4 GT PUSH2 0x31C JUMPI DUP4 ADD SWAP1 JUMPDEST DUP3 DUP3 LT PUSH2 0x21B3 JUMPI POP POP POP POP SWAP1 JUMP JUMPDEST DUP2 MLOAD DUP2 MSTORE SWAP1 DUP4 ADD SWAP1 DUP4 ADD PUSH2 0x21A5 JUMP JUMPDEST SWAP1 DUP2 PUSH1 0x20 SWAP2 SUB SLT PUSH2 0x31C JUMPI MLOAD PUSH2 0x33C DUP2 PUSH2 0xA22 JUMP JUMPDEST PUSH1 0x0 SWAP2 JUMPDEST PUSH1 0x2 DUP4 LT PUSH2 0x21E8 JUMPI POP POP POP JUMP JUMPDEST PUSH1 0x1 SWAP1 DUP3 MLOAD DUP2 MSTORE PUSH1 0x20 DUP1 SWAP2 ADD SWAP3 ADD SWAP3 ADD SWAP2 SWAP1 PUSH2 0x21DB JUMP JUMPDEST SWAP2 SWAP1 SWAP4 SWAP3 PUSH2 0x120 SWAP2 PUSH2 0x2214 DUP5 DUP5 DUP2 ADD SWAP8 PUSH2 0x21D7 JUMP JUMPDEST PUSH1 0x0 PUSH1 0x40 DUP6 DUP2 ADD JUMPDEST PUSH1 0x2 DUP4 LT PUSH2 0x2273 JUMPI POP POP POP POP SWAP1 PUSH2 0x223B DUP4 SWAP3 PUSH1 0xC0 PUSH2 0x140 SWAP6 ADD SWAP1 PUSH2 0x21D7 JUMP JUMPDEST PUSH2 0x100 DUP3 ADD MSTORE DUP3 MLOAD DUP1 SWAP5 MSTORE ADD SWAP2 PUSH1 0x20 DUP1 SWAP3 ADD SWAP2 PUSH1 0x0 JUMPDEST DUP3 DUP2 LT PUSH2 0x225F JUMPI POP POP POP POP SWAP1 JUMP JUMPDEST DUP4 MLOAD DUP6 MSTORE SWAP4 DUP2 ADD SWAP4 SWAP3 DUP2 ADD SWAP3 PUSH1 0x1 ADD PUSH2 0x2251 JUMP JUMPDEST PUSH1 0x20 DUP3 DUP3 PUSH2 0x2287 PUSH1 0x1 SWAP5 DUP9 SWAP14 SWAP13 SWAP14 MLOAD PUSH2 0x21D7 JUMP JUMPDEST ADD SWAP5 ADD SWAP3 ADD SWAP2 SWAP3 SWAP8 SWAP7 SWAP8 PUSH2 0x221C JUMP JUMPDEST SWAP1 PUSH2 0x100 SWAP2 DUP3 DUP2 MLOAD SUB PUSH2 0x2398 JUMPI PUSH2 0x22AB PUSH2 0x20F9 JUMP JUMPDEST PUSH2 0x22B3 PUSH2 0x210D JUMP JUMPDEST SWAP1 PUSH2 0x2331 PUSH2 0x2316 PUSH2 0x22C2 PUSH2 0x20F9 JUMP JUMPDEST SWAP6 PUSH1 0x20 SWAP8 DUP7 DUP10 DUP1 SWAP9 ADD MLOAD DUP7 MSTORE PUSH1 0x40 DUP2 ADD MLOAD DUP9 DUP8 ADD MSTORE PUSH1 0x60 DUP2 ADD MLOAD DUP8 MSTORE PUSH1 0x80 DUP2 ADD MLOAD DUP9 DUP9 ADD MSTORE PUSH1 0xA0 DUP2 ADD MLOAD PUSH1 0x40 DUP9 ADD MSTORE PUSH1 0xC0 DUP2 ADD MLOAD PUSH1 0x60 DUP9 ADD MSTORE PUSH1 0xE0 DUP2 ADD MLOAD DUP10 MSTORE ADD MLOAD DUP7 DUP9 ADD MSTORE DUP6 DUP1 DUP3 MLOAD DUP4 ADD ADD SWAP2 ADD PUSH2 0x2149 JUMP JUMPDEST PUSH1 0x40 MLOAD PUSH4 0x61971B87 PUSH1 0xE1 SHL DUP2 MSTORE SWAP6 DUP7 SWAP5 DUP6 SWAP5 PUSH1 0x4 DUP7 ADD PUSH2 0x21FF JUMP JUMPDEST SUB DUP2 PUSH32 0x0 PUSH1 0x1 PUSH1 0x1 PUSH1 0xA0 SHL SUB AND GAS STATICCALL SWAP2 DUP3 ISZERO PUSH2 0xB81 JUMPI PUSH1 0x0 SWAP3 PUSH2 0x2372 JUMPI POP POP SWAP1 JUMP JUMPDEST PUSH2 0x33C SWAP3 POP DUP1 RETURNDATASIZE LT PUSH2 0x2391 JUMPI JUMPDEST PUSH2 0x2389 DUP2 DUP4 PUSH2 0x26E JUMP JUMPDEST DUP2 ADD SWAP1 PUSH2 0x21C2 JUMP JUMPDEST POP RETURNDATASIZE PUSH2 0x237F JUMP JUMPDEST POP POP POP PUSH1 0x0 SWAP1 JUMP JUMPDEST SWAP1 PUSH2 0x23AA DUP3 PUSH2 0x2CA JUMP JUMPDEST PUSH2 0x23B7 PUSH1 0x40 MLOAD SWAP2 DUP3 PUSH2 0x26E JUMP JUMPDEST DUP3 DUP2 MSTORE DUP1 SWAP3 PUSH2 0x15CF PUSH1 0x1F NOT SWAP2 PUSH2 0x2CA JUMP JUMPDEST SWAP1 DUP2 MLOAD DUP2 LT ISZERO PUSH2 0x161A JUMPI ADD PUSH1 0x20 ADD SWAP1 JUMP JUMPDEST DUP1 ISZERO PUSH2 0x2461 JUMPI PUSH1 0x0 DUP2 DUP2 DUP2 DUP1 JUMPDEST PUSH2 0x2449 JUMPI POP PUSH2 0x23F4 DUP2 PUSH2 0x23A0 JUMP JUMPDEST SWAP4 JUMPDEST PUSH2 0x2400 JUMPI POP POP POP SWAP1 JUMP JUMPDEST PUSH2 0x2409 SWAP1 PUSH2 0x123E JUMP JUMPDEST SWAP1 PUSH1 0xA SWAP1 PUSH2 0x2434 PUSH2 0x2424 PUSH2 0x241E DUP5 DUP5 MOD PUSH2 0x1C57 JUMP JUMPDEST PUSH1 0xFF AND SWAP1 JUMP JUMPDEST PUSH1 0xF8 SHL PUSH1 0x1 PUSH1 0x1 PUSH1 0xF8 SHL SUB NOT AND SWAP1 JUMP JUMPDEST DUP5 BYTE PUSH2 0x2440 DUP5 DUP8 PUSH2 0x23C8 JUMP JUMPDEST MSTORE8 DIV SWAP1 DUP2 PUSH2 0x23F6 JUMP JUMPDEST SWAP2 POP PUSH2 0x2456 PUSH1 0xA SWAP2 PUSH2 0x12B7 JUMP JUMPDEST SWAP2 DIV DUP1 DUP5 SWAP3 SWAP2 PUSH2 0x23E6 JUMP JUMPDEST POP PUSH1 0x40 MLOAD PUSH2 0x246E DUP2 PUSH2 0x21D JUMP JUMPDEST PUSH1 0x1 DUP2 MSTORE PUSH1 0x3 PUSH1 0xFC SHL PUSH1 0x20 DUP3 ADD MSTORE SWAP1 JUMP JUMPDEST DUP2 MLOAD ISZERO PUSH2 0x248C JUMPI PUSH1 0xA0 ADD MSTORE JUMP JUMPDEST PUSH1 0x40 MLOAD PUSH4 0xFE936CB7 PUSH1 0xE0 SHL DUP2 MSTORE PUSH1 0x4 SWAP1 REVERT JUMPDEST PUSH1 0x40 MLOAD SWAP1 PUSH2 0x24AB DUP3 PUSH2 0x21D JUMP JUMPDEST PUSH1 0xC DUP3 MSTORE PUSH12 0x31B7B232A637B1B0BA34B7B7 PUSH1 0xA1 SHL PUSH1 0x20 DUP4 ADD MSTORE JUMP JUMPDEST PUSH4 0x4E487B71 PUSH1 0xE0 SHL PUSH1 0x0 MSTORE PUSH1 0x21 PUSH1 0x4 MSTORE PUSH1 0x24 PUSH1 0x0 REVERT JUMPDEST PUSH1 0x3 GT ISZERO PUSH2 0x24E6 JUMPI JUMP JUMPDEST PUSH2 0x24C6 JUMP JUMPDEST PUSH1 0x40 MLOAD SWAP1 PUSH2 0x24F8 DUP3 PUSH2 0x21D JUMP JUMPDEST PUSH1 0x8 DUP3 MSTORE PUSH8 0x6C616E6775616765 PUSH1 0xC0 SHL PUSH1 0x20 DUP4 ADD MSTORE JUMP JUMPDEST PUSH1 0x1 GT ISZERO PUSH2 0x24E6 JUMPI JUMP JUMPDEST PUSH1 0x40 MLOAD SWAP1 PUSH2 0x2526 DUP3 PUSH2 0x21D JUMP JUMPDEST PUSH1 0x6 DUP3 MSTORE PUSH6 0x736F75726365 PUSH1 0xD0 SHL PUSH1 0x20 DUP4 ADD MSTORE JUMP JUMPDEST PUSH1 0x40 MLOAD SWAP1 PUSH2 0x2548 DUP3 PUSH2 0x21D JUMP JUMPDEST PUSH1 0x4 DUP3 MSTORE PUSH4 0x61726773 PUSH1 0xE0 SHL PUSH1 0x20 DUP4 ADD MSTORE JUMP JUMPDEST PUSH1 0x40 MLOAD SWAP1 PUSH2 0x2568 DUP3 PUSH2 0x21D JUMP JUMPDEST PUSH1 0xF DUP3 MSTORE PUSH15 0x39B2B1B932BA39A637B1B0BA34B7B7 PUSH1 0x89 SHL PUSH1 0x20 DUP4 ADD MSTORE JUMP JUMPDEST PUSH1 0x40 MLOAD SWAP1 PUSH2 0x2593 DUP3 PUSH2 0x21D JUMP JUMPDEST PUSH1 0x7 DUP3 MSTORE PUSH7 0x73656372657473 PUSH1 0xC8 SHL PUSH1 0x20 DUP4 ADD MSTORE JUMP JUMPDEST PUSH1 0x40 MLOAD SWAP1 PUSH2 0x25B6 DUP3 PUSH2 0x21D JUMP JUMPDEST PUSH1 0x9 DUP3 MSTORE PUSH9 0x627974657341726773 PUSH1 0xB8 SHL PUSH1 0x20 DUP4 ADD MSTORE JUMP JUMPDEST PUSH2 0x25D6 PUSH2 0x28DF JUMP JUMPDEST SWAP1 PUSH2 0x25E8 PUSH2 0x25E2 PUSH2 0x249E JUMP JUMPDEST DUP4 PUSH2 0x292F JUMP JUMPDEST PUSH2 0x2605 DUP2 MLOAD PUSH2 0x25F6 DUP2 PUSH2 0x24DC JUMP JUMPDEST PUSH2 0x25FF DUP2 PUSH2 0x24DC JUMP JUMPDEST DUP4 PUSH2 0x29F1 JUMP JUMPDEST PUSH2 0x2610 PUSH2 0x25E2 PUSH2 0x24EB JUMP JUMPDEST PUSH2 0x262A PUSH1 0x40 DUP3 ADD MLOAD PUSH2 0x2621 DUP2 PUSH2 0x250F JUMP JUMPDEST PUSH2 0x25FF DUP2 PUSH2 0x250F JUMP JUMPDEST PUSH2 0x2635 PUSH2 0x25E2 PUSH2 0x2519 JUMP JUMPDEST PUSH2 0x2643 PUSH1 0x60 DUP3 ADD MLOAD DUP4 PUSH2 0x292F JUMP JUMPDEST PUSH1 0xA0 DUP2 ADD DUP1 MLOAD MLOAD PUSH2 0x2743 JUMPI JUMPDEST POP PUSH1 0x80 DUP2 ADD SWAP1 DUP2 MLOAD MLOAD PUSH2 0x26C3 JUMPI JUMPDEST PUSH1 0xC0 SWAP2 POP ADD DUP1 MLOAD MLOAD PUSH2 0x2670 JUMPI JUMPDEST POP MLOAD MLOAD SWAP1 JUMP JUMPDEST SWAP2 PUSH2 0x267C PUSH2 0x25E2 PUSH2 0x25A9 JUMP JUMPDEST PUSH2 0x2685 DUP3 PUSH2 0x2A92 JUMP JUMPDEST PUSH1 0x0 JUMPDEST DUP4 MLOAD DUP1 MLOAD DUP3 LT ISZERO PUSH2 0x26B0 JUMPI SWAP1 PUSH2 0x26AA PUSH2 0x26A3 DUP3 PUSH1 0x1 SWAP5 PUSH2 0x16EC JUMP JUMPDEST MLOAD DUP6 PUSH2 0x2BAB JUMP JUMPDEST ADD PUSH2 0x2688 JUMP JUMPDEST POP POP SWAP2 POP PUSH2 0x26BD DUP2 PUSH2 0x2B1E JUMP JUMPDEST CODESIZE PUSH2 0x266A JUMP JUMPDEST PUSH1 0x20 DUP2 ADD DUP1 MLOAD PUSH2 0x26D2 DUP2 PUSH2 0x24DC JUMP JUMPDEST PUSH2 0x26DB DUP2 PUSH2 0x24DC JUMP JUMPDEST ISZERO PUSH2 0x2731 JUMPI PUSH1 0xC0 SWAP3 PUSH2 0x2714 PUSH2 0x272C SWAP3 PUSH2 0x26FB PUSH2 0x26F5 PUSH2 0x255B JUMP JUMPDEST DUP9 PUSH2 0x292F JUMP JUMPDEST MLOAD PUSH2 0x2705 DUP2 PUSH2 0x24DC JUMP JUMPDEST PUSH2 0x270E DUP2 PUSH2 0x24DC JUMP JUMPDEST DUP7 PUSH2 0x29F1 JUMP JUMPDEST PUSH2 0x2725 PUSH2 0x271F PUSH2 0x2586 JUMP JUMPDEST DUP7 PUSH2 0x292F JUMP JUMPDEST MLOAD DUP5 PUSH2 0x2BAB JUMP JUMPDEST PUSH2 0x265D JUMP JUMPDEST PUSH1 0x40 MLOAD PUSH4 0xA80D31F7 PUSH1 0xE0 SHL DUP2 MSTORE PUSH1 0x4 SWAP1 REVERT JUMPDEST SWAP3 PUSH2 0x2755 PUSH2 0x274F PUSH2 0x253B JUMP JUMPDEST DUP5 PUSH2 0x292F JUMP JUMPDEST PUSH2 0x275E DUP4 PUSH2 0x2A92 JUMP JUMPDEST PUSH1 0x0 JUMPDEST DUP5 MLOAD DUP1 MLOAD DUP3 LT ISZERO PUSH2 0x2789 JUMPI SWAP1 PUSH2 0x2783 PUSH2 0x277C DUP3 PUSH1 0x1 SWAP5 PUSH2 0x16EC JUMP JUMPDEST MLOAD DUP7 PUSH2 0x292F JUMP JUMPDEST ADD PUSH2 0x2761 JUMP JUMPDEST POP POP SWAP3 POP PUSH2 0x2796 DUP3 PUSH2 0x2B1E JUMP JUMPDEST CODESIZE PUSH2 0x264F JUMP JUMPDEST SWAP3 SWAP1 PUSH1 0x20 SWAP3 PUSH1 0x1 PUSH1 0x1 PUSH1 0x40 SHL SUB SWAP3 PUSH4 0xFFFFFFFF PUSH2 0x27DB PUSH1 0x40 MLOAD SWAP8 DUP9 SWAP7 DUP8 SWAP7 PUSH4 0x230E93B1 PUSH1 0xE1 SHL DUP9 MSTORE AND PUSH1 0x4 DUP8 ADD MSTORE PUSH1 0xA0 PUSH1 0x24 DUP8 ADD MSTORE PUSH1 0xA4 DUP7 ADD SWAP1 PUSH2 0x422 JUMP JUMPDEST PUSH1 0x1 PUSH1 0x44 DUP7 ADD MSTORE SWAP3 AND PUSH1 0x64 DUP5 ADD MSTORE PUSH1 0x84 DUP4 ADD MSTORE SUB DUP2 PUSH1 0x0 PUSH32 0x0 PUSH1 0x1 PUSH1 0x1 PUSH1 0xA0 SHL SUB AND GAS CALL SWAP1 DUP2 ISZERO PUSH2 0xB81 JUMPI PUSH1 0x0 SWAP2 PUSH2 0x2857 JUMPI JUMPDEST POP DUP1 PUSH32 0x1131472297A800FEE664D1D89CFA8F7676FF07189ECC53F80BBB5F4969099DB8 PUSH1 0x0 DUP1 LOG2 SWAP1 JUMP JUMPDEST PUSH2 0x2870 SWAP2 POP PUSH1 0x20 RETURNDATASIZE PUSH1 0x20 GT PUSH2 0xB7A JUMPI PUSH2 0xB72 DUP2 DUP4 PUSH2 0x26E JUMP JUMPDEST CODESIZE PUSH2 0x282D JUMP JUMPDEST PUSH1 0x40 MLOAD SWAP1 PUSH4 0x125FA267 PUSH1 0xE3 SHL PUSH1 0x20 DUP4 ADD MSTORE MLOAD ISZERO ISZERO PUSH1 0x24 DUP3 ADD MSTORE PUSH1 0x24 DUP2 MSTORE PUSH2 0x33C DUP2 PUSH2 0x253 JUMP JUMPDEST DUP2 MLOAD ISZERO PUSH2 0x28B3 JUMPI PUSH1 0x0 DUP1 DUP3 MSTORE PUSH1 0x40 DUP3 ADD MSTORE PUSH1 0x60 ADD MSTORE JUMP JUMPDEST PUSH1 0x40 MLOAD PUSH4 0x22CE3EDD PUSH1 0xE0 SHL DUP2 MSTORE PUSH1 0x4 SWAP1 REVERT JUMPDEST PUSH1 0x40 MLOAD SWAP1 PUSH2 0x28D2 DUP3 PUSH2 0x21D JUMP JUMPDEST PUSH1 0x0 PUSH1 0x20 DUP4 PUSH1 0x60 DUP2 MSTORE ADD MSTORE JUMP JUMPDEST PUSH1 0x40 MLOAD PUSH2 0x28EB DUP2 PUSH2 0x21D JUMP JUMPDEST PUSH2 0x28F3 PUSH2 0x28C5 JUMP JUMPDEST DUP1 DUP3 MSTORE PUSH1 0x20 DUP3 ADD PUSH1 0x0 DUP2 MSTORE PUSH2 0x2906 PUSH2 0x28C5 JUMP JUMPDEST POP PUSH2 0x100 PUSH1 0x20 DUP4 ADD MSTORE PUSH1 0x40 MLOAD DUP1 SWAP3 MSTORE PUSH1 0x0 DUP3 MSTORE PUSH2 0x120 DUP3 ADD SWAP2 DUP3 LT PUSH2 0x31C JUMPI PUSH1 0x0 SWAP2 PUSH1 0x40 MSTORE MSTORE SWAP1 JUMP JUMPDEST DUP2 MLOAD PUSH2 0x2973 SWAP3 SWAP2 SWAP1 PUSH1 0x1 PUSH1 0x1 PUSH1 0x40 SHL SUB DUP2 AND SWAP1 PUSH1 0x17 DUP3 GT PUSH2 0x2976 JUMPI PUSH2 0x295E SWAP2 POP PUSH1 0x60 PUSH1 0xFF DUP5 MLOAD SWAP3 AND OR SWAP1 PUSH2 0x3079 JUMP JUMPDEST POP JUMPDEST MLOAD SWAP1 PUSH2 0x296A PUSH2 0x28C5 JUMP JUMPDEST POP DUP1 MLOAD SWAP2 PUSH2 0x32A9 JUMP JUMPDEST POP JUMP JUMPDEST POP PUSH1 0xFF DUP2 GT PUSH2 0x299B JUMPI PUSH2 0x2995 SWAP1 PUSH2 0x298D DUP4 MLOAD PUSH2 0x2E80 JUMP JUMPDEST POP DUP3 MLOAD PUSH2 0x3235 JUMP JUMPDEST POP PUSH2 0x2960 JUMP JUMPDEST PUSH2 0xFFFF DUP2 GT PUSH2 0x29BA JUMPI PUSH2 0x2995 SWAP1 PUSH2 0x29B2 DUP4 MLOAD PUSH2 0x2E1B JUMP JUMPDEST POP DUP3 MLOAD PUSH2 0x31C7 JUMP JUMPDEST PUSH4 0xFFFFFFFF DUP2 GT PUSH2 0x29DB JUMPI PUSH2 0x2995 SWAP1 PUSH2 0x29D3 DUP4 MLOAD PUSH2 0x2DB6 JUMP JUMPDEST POP DUP3 MLOAD PUSH2 0x3157 JUMP JUMPDEST PUSH2 0x2995 SWAP1 PUSH2 0x29E9 DUP4 MLOAD PUSH2 0x2D46 JUMP JUMPDEST POP DUP3 MLOAD PUSH2 0x30E4 JUMP JUMPDEST SWAP1 DUP2 MLOAD SWAP2 PUSH2 0x29FD PUSH2 0x28C5 JUMP JUMPDEST POP DUP3 MLOAD MLOAD PUSH1 0x1 DUP2 ADD SWAP1 DUP2 DUP2 GT PUSH2 0x7A9 JUMPI PUSH1 0x20 DUP6 ADD MLOAD DUP2 LT ISZERO PUSH2 0x2A56 JUMPI JUMPDEST PUSH1 0xC2 PUSH1 0x20 PUSH2 0x29C SWAP7 MLOAD SWAP3 DUP4 ADD ADD MSTORE8 DUP1 MLOAD DUP3 GT PUSH2 0x2A4E JUMPI JUMPDEST POP POP PUSH1 0x40 MLOAD SWAP2 PUSH1 0x20 DUP4 ADD MSTORE PUSH1 0x20 DUP3 MSTORE PUSH2 0x2A49 DUP3 PUSH2 0x21D JUMP JUMPDEST PUSH2 0x2BAB JUMP JUMPDEST MSTORE CODESIZE DUP1 PUSH2 0x2A31 JUMP JUMPDEST DUP2 PUSH1 0x1 SHL SWAP5 DUP3 DUP7 DIV PUSH1 0x2 EQ DUP4 ISZERO OR ISZERO PUSH2 0x7A9 JUMPI PUSH1 0x20 DUP2 PUSH2 0x2A88 PUSH2 0x29C SWAP9 PUSH2 0x2A81 PUSH1 0xC2 SWAP6 MLOAD SWAP2 DUP5 PUSH2 0x2C2F JUMP JUMPDEST POP DUP3 PUSH2 0x2C81 JUMP JUMPDEST POP SWAP7 POP POP POP PUSH2 0x2A1A JUMP JUMPDEST DUP1 MLOAD SWAP1 PUSH2 0x2A9D PUSH2 0x28C5 JUMP JUMPDEST POP DUP2 MLOAD MLOAD PUSH1 0x1 DUP2 ADD SWAP1 DUP2 DUP2 GT PUSH2 0x7A9 JUMPI PUSH1 0x20 DUP5 ADD MLOAD DUP2 LT ISZERO PUSH2 0x2AEB JUMPI JUMPDEST PUSH1 0x9F PUSH1 0x20 DUP1 SWAP6 MLOAD SWAP3 DUP4 ADD ADD MSTORE8 DUP1 MLOAD DUP3 GT PUSH2 0x2AE3 JUMPI JUMPDEST POP POP ADD DUP1 MLOAD SWAP1 PUSH1 0x1 DUP3 ADD DUP1 SWAP3 GT PUSH2 0x7A9 JUMPI MSTORE JUMP JUMPDEST MSTORE CODESIZE DUP1 PUSH2 0x2ACF JUMP JUMPDEST DUP2 PUSH1 0x1 SHL SWAP4 DUP3 DUP6 DIV PUSH1 0x2 EQ DUP4 ISZERO OR ISZERO PUSH2 0x7A9 JUMPI PUSH1 0x20 DUP2 PUSH2 0x2B14 DUP3 SWAP8 PUSH2 0x2A81 PUSH1 0x9F SWAP6 MLOAD SWAP2 DUP5 PUSH2 0x2C2F JUMP JUMPDEST POP SWAP6 POP POP POP PUSH2 0x2ABA JUMP JUMPDEST DUP1 MLOAD SWAP1 PUSH2 0x2B29 PUSH2 0x28C5 JUMP JUMPDEST POP DUP2 MLOAD MLOAD PUSH1 0x1 DUP2 ADD SWAP1 DUP2 DUP2 GT PUSH2 0x7A9 JUMPI PUSH1 0x20 DUP5 ADD MLOAD DUP2 LT ISZERO PUSH2 0x2B78 JUMPI JUMPDEST PUSH1 0xFF PUSH1 0x20 DUP1 SWAP6 MLOAD SWAP3 DUP4 ADD ADD MSTORE8 DUP1 MLOAD DUP3 GT PUSH2 0x2B70 JUMPI JUMPDEST POP POP ADD DUP1 MLOAD PUSH1 0x0 NOT DUP2 ADD SWAP2 SWAP1 DUP3 GT PUSH2 0x7A9 JUMPI MSTORE JUMP JUMPDEST MSTORE CODESIZE DUP1 PUSH2 0x2B5B JUMP JUMPDEST DUP2 PUSH1 0x1 SHL SWAP4 DUP3 DUP6 DIV PUSH1 0x2 EQ DUP4 ISZERO OR ISZERO PUSH2 0x7A9 JUMPI PUSH1 0x20 DUP2 PUSH2 0x2BA1 DUP3 SWAP8 PUSH2 0x2A81 PUSH1 0xFF SWAP6 MLOAD SWAP2 DUP5 PUSH2 0x2C2F JUMP JUMPDEST POP SWAP6 POP POP POP PUSH2 0x2B46 JUMP JUMPDEST DUP2 MLOAD PUSH2 0x2973 SWAP3 SWAP2 SWAP1 PUSH1 0x1 PUSH1 0x1 PUSH1 0x40 SHL SUB DUP2 AND SWAP1 PUSH1 0x17 DUP3 GT PUSH2 0x2BDA JUMPI PUSH2 0x295E SWAP2 POP PUSH1 0x40 PUSH1 0xFF DUP5 MLOAD SWAP3 AND OR SWAP1 PUSH2 0x3079 JUMP JUMPDEST POP PUSH1 0xFF DUP2 GT PUSH2 0x2BF1 JUMPI PUSH2 0x2995 SWAP1 PUSH2 0x298D DUP4 MLOAD PUSH2 0x3014 JUMP JUMPDEST PUSH2 0xFFFF DUP2 GT PUSH2 0x2C08 JUMPI PUSH2 0x2995 SWAP1 PUSH2 0x29B2 DUP4 MLOAD PUSH2 0x2FAF JUMP JUMPDEST PUSH4 0xFFFFFFFF DUP2 GT PUSH2 0x2C21 JUMPI PUSH2 0x2995 SWAP1 PUSH2 0x29D3 DUP4 MLOAD PUSH2 0x2F4A JUMP JUMPDEST PUSH2 0x2995 SWAP1 PUSH2 0x29E9 DUP4 MLOAD PUSH2 0x2EE5 JUMP JUMPDEST SWAP1 PUSH2 0x2C38 PUSH2 0x28C5 JUMP JUMPDEST POP PUSH1 0x1F DUP2 AND DUP1 PUSH2 0x2C67 JUMPI JUMPDEST POP DUP1 PUSH1 0x20 DUP4 ADD MSTORE PUSH1 0x40 MLOAD SWAP1 DUP2 DUP4 MSTORE PUSH1 0x0 DUP3 MSTORE DUP2 ADD PUSH1 0x20 ADD SWAP1 DUP2 LT PUSH2 0x31C JUMPI PUSH1 0x40 MSTORE SWAP1 JUMP JUMPDEST PUSH1 0x20 SUB PUSH1 0x20 DUP2 GT PUSH2 0x7A9 JUMPI DUP2 ADD DUP1 SWAP2 GT PUSH2 0x7A9 JUMPI CODESIZE PUSH2 0x2C43 JUMP JUMPDEST SWAP1 PUSH2 0x2C8A PUSH2 0x28C5 JUMP JUMPDEST POP DUP1 MLOAD SWAP1 PUSH2 0x2C96 PUSH2 0x28C5 JUMP JUMPDEST POP PUSH2 0x2CA4 DUP2 MLOAD DUP4 GT ISZERO PUSH2 0x32A2 JUMP JUMPDEST DUP3 MLOAD MLOAD SWAP2 PUSH2 0x2CB2 DUP2 DUP5 PUSH2 0x1C73 JUMP JUMPDEST PUSH1 0x20 SWAP3 PUSH1 0x20 DUP7 ADD MLOAD DUP3 GT PUSH2 0x2D2F JUMPI JUMPDEST PUSH1 0x20 SWAP2 DUP7 MLOAD DUP4 DUP2 MLOAD SWAP8 DUP3 ADD ADD SWAP7 DUP3 GT PUSH2 0x2D27 JUMPI JUMPDEST POP POP ADD SWAP2 JUMPDEST DUP1 DUP3 LT ISZERO PUSH2 0x2CFF JUMPI POP PUSH1 0x0 NOT SWAP1 PUSH1 0x20 SUB PUSH2 0x100 EXP ADD SWAP1 DUP2 NOT SWAP1 MLOAD AND SWAP1 DUP3 MLOAD AND OR SWAP1 MSTORE SWAP1 JUMP JUMPDEST SWAP1 SWAP2 SWAP3 PUSH2 0x2D1B PUSH2 0x2D15 PUSH2 0x2D21 SWAP3 DUP7 MLOAD DUP2 MSTORE PUSH2 0x1C65 JUMP JUMPDEST SWAP5 PUSH2 0x1C65 JUMP JUMPDEST SWAP3 PUSH2 0x124D JUMP JUMPDEST SWAP1 PUSH2 0x2CDA JUMP JUMPDEST MSTORE CODESIZE DUP1 PUSH2 0x2CD5 JUMP JUMPDEST PUSH2 0x2D41 PUSH2 0x2D3B DUP4 PUSH2 0x174E JUMP JUMPDEST DUP8 PUSH2 0x3355 JUMP JUMPDEST PUSH2 0x2CC1 JUMP JUMPDEST PUSH2 0x2D4E PUSH2 0x28C5 JUMP JUMPDEST POP DUP1 MLOAD MLOAD PUSH1 0x1 DUP2 ADD SWAP1 DUP2 DUP2 GT PUSH2 0x7A9 JUMPI PUSH1 0x20 DUP4 ADD MLOAD DUP2 LT ISZERO PUSH2 0x2D87 JUMPI JUMPDEST PUSH1 0x7B PUSH1 0x20 DUP5 MLOAD SWAP3 DUP4 ADD ADD MSTORE8 DUP1 MLOAD DUP3 GT PUSH2 0x2D83 JUMPI POP POP SWAP1 JUMP JUMPDEST MSTORE SWAP1 JUMP JUMPDEST DUP2 PUSH1 0x1 SHL DUP3 DUP2 DIV PUSH1 0x2 EQ DUP4 ISZERO OR ISZERO PUSH2 0x7A9 JUMPI PUSH2 0x2DB0 SWAP1 PUSH2 0x2DA9 DUP6 MLOAD SWAP2 DUP7 PUSH2 0x2C2F JUMP JUMPDEST POP DUP5 PUSH2 0x2C81 JUMP JUMPDEST POP PUSH2 0x2D6B JUMP JUMPDEST PUSH2 0x2DBE PUSH2 0x28C5 JUMP JUMPDEST POP DUP1 MLOAD MLOAD PUSH1 0x1 DUP2 ADD SWAP1 DUP2 DUP2 GT PUSH2 0x7A9 JUMPI PUSH1 0x20 DUP4 ADD MLOAD DUP2 LT ISZERO PUSH2 0x2DF3 JUMPI JUMPDEST PUSH1 0x7A PUSH1 0x20 DUP5 MLOAD SWAP3 DUP4 ADD ADD MSTORE8 DUP1 MLOAD DUP3 GT PUSH2 0x2D83 JUMPI POP POP SWAP1 JUMP JUMPDEST DUP2 PUSH1 0x1 SHL DUP3 DUP2 DIV PUSH1 0x2 EQ DUP4 ISZERO OR ISZERO PUSH2 0x7A9 JUMPI PUSH2 0x2E15 SWAP1 PUSH2 0x2DA9 DUP6 MLOAD SWAP2 DUP7 PUSH2 0x2C2F JUMP JUMPDEST POP PUSH2 0x2DDB JUMP JUMPDEST PUSH2 0x2E23 PUSH2 0x28C5 JUMP JUMPDEST POP DUP1 MLOAD MLOAD PUSH1 0x1 DUP2 ADD SWAP1 DUP2 DUP2 GT PUSH2 0x7A9 JUMPI PUSH1 0x20 DUP4 ADD MLOAD DUP2 LT ISZERO PUSH2 0x2E58 JUMPI JUMPDEST PUSH1 0x79 PUSH1 0x20 DUP5 MLOAD SWAP3 DUP4 ADD ADD MSTORE8 DUP1 MLOAD DUP3 GT PUSH2 0x2D83 JUMPI POP POP SWAP1 JUMP JUMPDEST DUP2 PUSH1 0x1 SHL DUP3 DUP2 DIV PUSH1 0x2 EQ DUP4 ISZERO OR ISZERO PUSH2 0x7A9 JUMPI PUSH2 0x2E7A SWAP1 PUSH2 0x2DA9 DUP6 MLOAD SWAP2 DUP7 PUSH2 0x2C2F JUMP JUMPDEST POP PUSH2 0x2E40 JUMP JUMPDEST PUSH2 0x2E88 PUSH2 0x28C5 JUMP JUMPDEST POP DUP1 MLOAD MLOAD PUSH1 0x1 DUP2 ADD SWAP1 DUP2 DUP2 GT PUSH2 0x7A9 JUMPI PUSH1 0x20 DUP4 ADD MLOAD DUP2 LT ISZERO PUSH2 0x2EBD JUMPI JUMPDEST PUSH1 0x78 PUSH1 0x20 DUP5 MLOAD SWAP3 DUP4 ADD ADD MSTORE8 DUP1 MLOAD DUP3 GT PUSH2 0x2D83 JUMPI POP POP SWAP1 JUMP JUMPDEST DUP2 PUSH1 0x1 SHL DUP3 DUP2 DIV PUSH1 0x2 EQ DUP4 ISZERO OR ISZERO PUSH2 0x7A9 JUMPI PUSH2 0x2EDF SWAP1 PUSH2 0x2DA9 DUP6 MLOAD SWAP2 DUP7 PUSH2 0x2C2F JUMP JUMPDEST POP PUSH2 0x2EA5 JUMP JUMPDEST PUSH2 0x2EED PUSH2 0x28C5 JUMP JUMPDEST POP DUP1 MLOAD MLOAD PUSH1 0x1 DUP2 ADD SWAP1 DUP2 DUP2 GT PUSH2 0x7A9 JUMPI PUSH1 0x20 DUP4 ADD MLOAD DUP2 LT ISZERO PUSH2 0x2F22 JUMPI JUMPDEST PUSH1 0x5B PUSH1 0x20 DUP5 MLOAD SWAP3 DUP4 ADD ADD MSTORE8 DUP1 MLOAD DUP3 GT PUSH2 0x2D83 JUMPI POP POP SWAP1 JUMP JUMPDEST DUP2 PUSH1 0x1 SHL DUP3 DUP2 DIV PUSH1 0x2 EQ DUP4 ISZERO OR ISZERO PUSH2 0x7A9 JUMPI PUSH2 0x2F44 SWAP1 PUSH2 0x2DA9 DUP6 MLOAD SWAP2 DUP7 PUSH2 0x2C2F JUMP JUMPDEST POP PUSH2 0x2F0A JUMP JUMPDEST PUSH2 0x2F52 PUSH2 0x28C5 JUMP JUMPDEST POP DUP1 MLOAD MLOAD PUSH1 0x1 DUP2 ADD SWAP1 DUP2 DUP2 GT PUSH2 0x7A9 JUMPI PUSH1 0x20 DUP4 ADD MLOAD DUP2 LT ISZERO PUSH2 0x2F87 JUMPI JUMPDEST PUSH1 0x5A PUSH1 0x20 DUP5 MLOAD SWAP3 DUP4 ADD ADD MSTORE8 DUP1 MLOAD DUP3 GT PUSH2 0x2D83 JUMPI POP POP SWAP1 JUMP JUMPDEST DUP2 PUSH1 0x1 SHL DUP3 DUP2 DIV PUSH1 0x2 EQ DUP4 ISZERO OR ISZERO PUSH2 0x7A9 JUMPI PUSH2 0x2FA9 SWAP1 PUSH2 0x2DA9 DUP6 MLOAD SWAP2 DUP7 PUSH2 0x2C2F JUMP JUMPDEST POP PUSH2 0x2F6F JUMP JUMPDEST PUSH2 0x2FB7 PUSH2 0x28C5 JUMP JUMPDEST POP DUP1 MLOAD MLOAD PUSH1 0x1 DUP2 ADD SWAP1 DUP2 DUP2 GT PUSH2 0x7A9 JUMPI PUSH1 0x20 DUP4 ADD MLOAD DUP2 LT ISZERO PUSH2 0x2FEC JUMPI JUMPDEST PUSH1 0x59 PUSH1 0x20 DUP5 MLOAD SWAP3 DUP4 ADD ADD MSTORE8 DUP1 MLOAD DUP3 GT PUSH2 0x2D83 JUMPI POP POP SWAP1 JUMP JUMPDEST DUP2 PUSH1 0x1 SHL DUP3 DUP2 DIV PUSH1 0x2 EQ DUP4 ISZERO OR ISZERO PUSH2 0x7A9 JUMPI PUSH2 0x300E SWAP1 PUSH2 0x2DA9 DUP6 MLOAD SWAP2 DUP7 PUSH2 0x2C2F JUMP JUMPDEST POP PUSH2 0x2FD4 JUMP JUMPDEST PUSH2 0x301C PUSH2 0x28C5 JUMP JUMPDEST POP DUP1 MLOAD MLOAD PUSH1 0x1 DUP2 ADD SWAP1 DUP2 DUP2 GT PUSH2 0x7A9 JUMPI PUSH1 0x20 DUP4 ADD MLOAD DUP2 LT ISZERO PUSH2 0x3051 JUMPI JUMPDEST PUSH1 0x58 PUSH1 0x20 DUP5 MLOAD SWAP3 DUP4 ADD ADD MSTORE8 DUP1 MLOAD DUP3 GT PUSH2 0x2D83 JUMPI POP POP SWAP1 JUMP JUMPDEST DUP2 PUSH1 0x1 SHL DUP3 DUP2 DIV PUSH1 0x2 EQ DUP4 ISZERO OR ISZERO PUSH2 0x7A9 JUMPI PUSH2 0x3073 SWAP1 PUSH2 0x2DA9 DUP6 MLOAD SWAP2 DUP7 PUSH2 0x2C2F JUMP JUMPDEST POP PUSH2 0x3039 JUMP JUMPDEST SWAP1 PUSH2 0x3082 PUSH2 0x28C5 JUMP JUMPDEST POP DUP2 MLOAD MLOAD PUSH1 0x1 DUP2 ADD SWAP2 DUP3 DUP3 GT PUSH2 0x7A9 JUMPI PUSH1 0x20 DUP5 ADD MLOAD DUP3 LT ISZERO PUSH2 0x30B5 JUMPI JUMPDEST PUSH1 0x20 DUP5 MLOAD SWAP3 DUP4 ADD ADD MSTORE8 DUP1 MLOAD DUP3 GT PUSH2 0x2D83 JUMPI POP POP SWAP1 JUMP JUMPDEST DUP3 PUSH1 0x1 SHL DUP4 DUP2 DIV PUSH1 0x2 EQ DUP5 ISZERO OR ISZERO PUSH2 0x7A9 JUMPI PUSH2 0x30DE SWAP1 PUSH2 0x30D7 DUP7 MLOAD SWAP2 DUP8 PUSH2 0x2C2F JUMP JUMPDEST POP DUP6 PUSH2 0x2C81 JUMP JUMPDEST POP PUSH2 0x309F JUMP JUMPDEST SWAP1 PUSH2 0x30ED PUSH2 0x28C5 JUMP JUMPDEST POP DUP2 MLOAD MLOAD DUP1 PUSH1 0x8 ADD SWAP2 DUP3 PUSH1 0x8 GT PUSH2 0x7A9 JUMPI PUSH1 0x20 DUP5 ADD MLOAD DUP4 GT PUSH2 0x312F JUMPI JUMPDEST PUSH1 0x8 DUP5 MLOAD SWAP3 DUP4 ADD ADD SWAP1 PUSH1 0x1 PUSH1 0x1 PUSH1 0x40 SHL SUB NOT DUP3 MLOAD AND OR SWAP1 MSTORE DUP1 MLOAD DUP3 GT PUSH2 0x2D83 JUMPI POP POP SWAP1 JUMP JUMPDEST DUP3 PUSH1 0x1 SHL DUP4 DUP2 DIV PUSH1 0x2 EQ DUP5 ISZERO OR ISZERO PUSH2 0x7A9 JUMPI PUSH2 0x3151 SWAP1 PUSH2 0x30D7 DUP7 MLOAD SWAP2 DUP8 PUSH2 0x2C2F JUMP JUMPDEST POP PUSH2 0x310A JUMP JUMPDEST SWAP1 PUSH2 0x3160 PUSH2 0x28C5 JUMP JUMPDEST POP DUP2 MLOAD MLOAD DUP1 PUSH1 0x4 ADD SWAP2 DUP3 PUSH1 0x4 GT PUSH2 0x7A9 JUMPI PUSH1 0x20 DUP5 ADD MLOAD DUP4 GT PUSH2 0x319F JUMPI JUMPDEST PUSH1 0x4 DUP5 MLOAD SWAP3 DUP4 ADD ADD SWAP1 PUSH4 0xFFFFFFFF NOT DUP3 MLOAD AND OR SWAP1 MSTORE DUP1 MLOAD DUP3 GT PUSH2 0x2D83 JUMPI POP POP SWAP1 JUMP JUMPDEST DUP3 PUSH1 0x1 SHL DUP4 DUP2 DIV PUSH1 0x2 EQ DUP5 ISZERO OR ISZERO PUSH2 0x7A9 JUMPI PUSH2 0x31C1 SWAP1 PUSH2 0x30D7 DUP7 MLOAD SWAP2 DUP8 PUSH2 0x2C2F JUMP JUMPDEST POP PUSH2 0x317D JUMP JUMPDEST SWAP1 PUSH2 0x31D0 PUSH2 0x28C5 JUMP JUMPDEST POP DUP2 MLOAD MLOAD DUP1 PUSH1 0x2 ADD SWAP2 DUP3 PUSH1 0x2 GT PUSH2 0x7A9 JUMPI PUSH1 0x20 DUP5 ADD MLOAD DUP4 GT PUSH2 0x320D JUMPI JUMPDEST PUSH1 0x2 DUP5 MLOAD SWAP3 DUP4 ADD ADD SWAP1 PUSH2 0xFFFF NOT DUP3 MLOAD AND OR SWAP1 MSTORE DUP1 MLOAD DUP3 GT PUSH2 0x2D83 JUMPI POP POP SWAP1 JUMP JUMPDEST DUP3 PUSH1 0x1 SHL DUP4 DUP2 DIV PUSH1 0x2 EQ DUP5 ISZERO OR ISZERO PUSH2 0x7A9 JUMPI PUSH2 0x322F SWAP1 PUSH2 0x30D7 DUP7 MLOAD SWAP2 DUP8 PUSH2 0x2C2F JUMP JUMPDEST POP PUSH2 0x31ED JUMP JUMPDEST SWAP1 PUSH2 0x323E PUSH2 0x28C5 JUMP JUMPDEST POP DUP2 MLOAD MLOAD DUP1 PUSH1 0x1 ADD SWAP2 DUP3 PUSH1 0x1 GT PUSH2 0x7A9 JUMPI PUSH1 0x20 DUP5 ADD MLOAD DUP4 GT PUSH2 0x327A JUMPI JUMPDEST PUSH1 0x1 DUP5 MLOAD SWAP3 DUP4 ADD ADD SWAP1 PUSH1 0xFF NOT DUP3 MLOAD AND OR SWAP1 MSTORE DUP1 MLOAD DUP3 GT PUSH2 0x2D83 JUMPI POP POP SWAP1 JUMP JUMPDEST DUP3 PUSH1 0x1 SHL DUP4 DUP2 DIV PUSH1 0x2 EQ DUP5 ISZERO OR ISZERO PUSH2 0x7A9 JUMPI PUSH2 0x329C SWAP1 PUSH2 0x30D7 DUP7 MLOAD SWAP2 DUP8 PUSH2 0x2C2F JUMP JUMPDEST POP PUSH2 0x325B JUMP JUMPDEST ISZERO PUSH2 0x31C JUMPI JUMP JUMPDEST SWAP2 SWAP1 PUSH2 0x32B3 PUSH2 0x28C5 JUMP JUMPDEST POP PUSH2 0x32C1 DUP2 MLOAD DUP4 GT ISZERO PUSH2 0x32A2 JUMP JUMPDEST DUP3 MLOAD MLOAD SWAP2 PUSH1 0x20 PUSH2 0x32D1 DUP3 DUP6 PUSH2 0x1C73 JUMP JUMPDEST SWAP3 DUP2 SWAP4 DUP3 DUP8 ADD MLOAD DUP2 GT PUSH2 0x333E JUMPI JUMPDEST DUP7 MLOAD DUP4 DUP2 MLOAD SWAP8 DUP3 ADD ADD SWAP7 DUP3 GT PUSH2 0x3336 JUMPI JUMPDEST POP POP ADD SWAP2 JUMPDEST DUP1 DUP3 LT ISZERO PUSH2 0x331A JUMPI POP PUSH1 0x0 NOT SWAP1 PUSH1 0x20 SUB PUSH2 0x100 EXP ADD SWAP1 DUP2 NOT SWAP1 MLOAD AND SWAP1 DUP3 MLOAD AND OR SWAP1 MSTORE SWAP1 JUMP JUMPDEST SWAP1 SWAP2 SWAP3 PUSH2 0x2D1B PUSH2 0x2D15 PUSH2 0x3330 SWAP3 DUP7 MLOAD DUP2 MSTORE PUSH2 0x1C65 JUMP JUMPDEST SWAP1 PUSH2 0x32F5 JUMP JUMPDEST MSTORE CODESIZE DUP1 PUSH2 0x32F0 JUMP JUMPDEST PUSH2 0x3350 PUSH2 0x334A DUP3 PUSH2 0x174E JUMP JUMPDEST DUP9 PUSH2 0x3355 JUMP JUMPDEST PUSH2 0x32DF JUMP JUMPDEST SWAP1 PUSH2 0x2973 SWAP2 PUSH2 0x3366 DUP2 MLOAD SWAP3 DUP3 PUSH2 0x2C2F JUMP JUMPDEST POP PUSH2 0x2C81 JUMP INVALID LOG2 PUSH5 0x6970667358 0x22 SLT KECCAK256 0xBC SIGNEXTEND 0xCD RETURNDATACOPY SWAP6 0xCB 0xE2 SWAP9 0xDC 0xB1 0xB4 DIV PUSH15 0x2667598C76AE474E81A554A2CA186C 0xAB 0xE2 LOG0 ADDRESS PUSH5 0x736F6C6343 STOP ADDMOD XOR STOP CALLER "},"methodIdentifiers":{"acceptOwnership()":"79ba5097","aggregateProofs(bytes[],bytes[])":"d175d81a","aggregatedProofHashes(uint256,uint256)":"39a9e4b3","authorizedCallers(address)":"536fff6c","checkUpkeep(bytes)":"6e04ff0d","contractOwner()":"ce606ee0","functionsRequestToProofId(bytes32)":"56959332","getProofRequest(uint256)":"152a9526","getSubscriptionId()":"de3d9fb7","groth16Verifier()":"19c813be","handleOracleFulfillment(bytes32,bytes,bytes)":"0ca76175","isStateVerified(bytes32)":"a9431f23","lastUpkeepTimestamp()":"624cffd4","owner()":"8da5cb5b","performUpkeep(bytes)":"4585e33b","proofRequests(uint256)":"25825746","rawFulfillRandomWords(uint256,uint256[])":"1fe543e3","requestCounter()":"973a814e","requestProofVerification(string,uint256)":"57efe032","s_vrfCoordinator()":"9eccacf6","setAuthorizedCaller(address,bool)":"454bbd29","setCoordinator(address)":"8ea98117","setFunctionsConfig(uint64,uint32,bytes32)":"1bd6447a","setUpkeepInterval(uint256)":"72e4c9f6","setVRFConfig(uint256,bytes32,uint32)":"b5cce133","transferOwnership(address)":"f2fde38b","upkeepInterval()":"5a74373c","usedProofHashes(bytes32)":"d87318b2","verifiedProofs(bytes32)":"176d80c4"}}}}}