{
  "_format": "hh-sol-artifact-1",
  "contractName": "NovaProofAggregator",
  "sourceName": "contracts/NovaProofAggregator.sol",
  "abi": [
    {
      "inputs": [
        {
          "internalType": "address",
          "name": "vrfCoordinator",
          "type": "address"
        },
        {
          "internalType": "address",
          "name": "functionsRouter",
          "type": "address"
        },
        {
          "internalType": "uint256",
          "name": "vrfSubscriptionId",
          "type": "uint256"
        },
        {
          "internalType": "bytes32",
          "name": "vrfKeyHash",
          "type": "bytes32"
        },
        {
          "internalType": "uint64",
          "name": "functionsSubscriptionId",
          "type": "uint64"
        },
        {
          "internalType": "bytes32",
          "name": "functionsDonId",
          "type": "bytes32"
        },
        {
          "internalType": "address",
          "name": "groth16VerifierAddress",
          "type": "address"
        },
        {
          "internalType": "address",
          "name": "_novaVerifier",
          "type": "address"
        }
      ],
      "stateMutability": "nonpayable",
      "type": "constructor"
    },
    {
      "inputs": [],
      "name": "EmptyArgs",
      "type": "error"
    },
    {
      "inputs": [],
      "name": "EmptySource",
      "type": "error"
    },
    {
      "inputs": [],
      "name": "NoInlineSecrets",
      "type": "error"
    },
    {
      "inputs": [
        {
          "internalType": "address",
          "name": "have",
          "type": "address"
        },
        {
          "internalType": "address",
          "name": "want",
          "type": "address"
        }
      ],
      "name": "OnlyCoordinatorCanFulfill",
      "type": "error"
    },
    {
      "inputs": [
        {
          "internalType": "address",
          "name": "have",
          "type": "address"
        },
        {
          "internalType": "address",
          "name": "owner",
          "type": "address"
        },
        {
          "internalType": "address",
          "name": "coordinator",
          "type": "address"
        }
      ],
      "name": "OnlyOwnerOrCoordinator",
      "type": "error"
    },
    {
      "inputs": [],
      "name": "OnlyRouterCanFulfill",
      "type": "error"
    },
    {
      "inputs": [],
      "name": "ZeroAddress",
      "type": "error"
    },
    {
      "anonymous": false,
      "inputs": [
        {
          "indexed": false,
          "internalType": "address",
          "name": "vrfCoordinator",
          "type": "address"
        }
      ],
      "name": "CoordinatorSet",
      "type": "event"
    },
    {
      "anonymous": false,
      "inputs": [
        {
          "indexed": true,
          "internalType": "bytes32",
          "name": "requestId",
          "type": "bytes32"
        },
        {
          "indexed": false,
          "internalType": "bytes",
          "name": "error",
          "type": "bytes"
        }
      ],
      "name": "FunctionsRequestError",
      "type": "event"
    },
    {
      "anonymous": false,
      "inputs": [
        {
          "indexed": true,
          "internalType": "bytes32",
          "name": "requestId",
          "type": "bytes32"
        },
        {
          "indexed": false,
          "internalType": "string",
          "name": "sourceChain",
          "type": "string"
        },
        {
          "indexed": false,
          "internalType": "uint256",
          "name": "blockNumber",
          "type": "uint256"
        }
      ],
      "name": "FunctionsRequestSent",
      "type": "event"
    },
    {
      "anonymous": false,
      "inputs": [
        {
          "indexed": true,
          "internalType": "bytes32",
          "name": "requestId",
          "type": "bytes32"
        },
        {
          "indexed": false,
          "internalType": "bytes",
          "name": "proof",
          "type": "bytes"
        },
        {
          "indexed": false,
          "internalType": "bytes",
          "name": "publicInputs",
          "type": "bytes"
        }
      ],
      "name": "FunctionsResponseReceived",
      "type": "event"
    },
    {
      "anonymous": false,
      "inputs": [
        {
          "indexed": true,
          "internalType": "uint256",
          "name": "batchId",
          "type": "uint256"
        },
        {
          "indexed": false,
          "internalType": "bytes32",
          "name": "aggregatedHash",
          "type": "bytes32"
        },
        {
          "indexed": false,
          "internalType": "bool",
          "name": "isValid",
          "type": "bool"
        }
      ],
      "name": "NovaFoldingCompleted",
      "type": "event"
    },
    {
      "anonymous": false,
      "inputs": [
        {
          "indexed": true,
          "internalType": "uint256",
          "name": "batchId",
          "type": "uint256"
        },
        {
          "indexed": false,
          "internalType": "uint256[]",
          "name": "proofIds",
          "type": "uint256[]"
        },
        {
          "indexed": true,
          "internalType": "address",
          "name": "requester",
          "type": "address"
        }
      ],
      "name": "NovaFoldingStarted",
      "type": "event"
    },
    {
      "anonymous": false,
      "inputs": [
        {
          "indexed": true,
          "internalType": "address",
          "name": "from",
          "type": "address"
        },
        {
          "indexed": true,
          "internalType": "address",
          "name": "to",
          "type": "address"
        }
      ],
      "name": "OwnershipTransferRequested",
      "type": "event"
    },
    {
      "anonymous": false,
      "inputs": [
        {
          "indexed": true,
          "internalType": "address",
          "name": "from",
          "type": "address"
        },
        {
          "indexed": true,
          "internalType": "address",
          "name": "to",
          "type": "address"
        }
      ],
      "name": "OwnershipTransferred",
      "type": "event"
    },
    {
      "anonymous": false,
      "inputs": [
        {
          "indexed": true,
          "internalType": "uint256",
          "name": "requestId",
          "type": "uint256"
        },
        {
          "indexed": true,
          "internalType": "address",
          "name": "requester",
          "type": "address"
        },
        {
          "indexed": false,
          "internalType": "uint256",
          "name": "blockNumber",
          "type": "uint256"
        }
      ],
      "name": "ProofRequested",
      "type": "event"
    },
    {
      "anonymous": false,
      "inputs": [
        {
          "indexed": true,
          "internalType": "uint256",
          "name": "requestId",
          "type": "uint256"
        },
        {
          "indexed": false,
          "internalType": "bool",
          "name": "isValid",
          "type": "bool"
        },
        {
          "indexed": false,
          "internalType": "bytes32",
          "name": "stateRoot",
          "type": "bytes32"
        }
      ],
      "name": "ProofVerified",
      "type": "event"
    },
    {
      "anonymous": false,
      "inputs": [
        {
          "indexed": true,
          "internalType": "uint256",
          "name": "requestId",
          "type": "uint256"
        },
        {
          "indexed": false,
          "internalType": "uint256",
          "name": "randomValue",
          "type": "uint256"
        },
        {
          "indexed": false,
          "internalType": "uint256",
          "name": "selectedBlock",
          "type": "uint256"
        }
      ],
      "name": "RandomnessReceived",
      "type": "event"
    },
    {
      "anonymous": false,
      "inputs": [
        {
          "indexed": true,
          "internalType": "uint256",
          "name": "batchId",
          "type": "uint256"
        },
        {
          "indexed": false,
          "internalType": "uint256",
          "name": "recursionDepth",
          "type": "uint256"
        },
        {
          "indexed": false,
          "internalType": "bytes",
          "name": "recursiveProof",
          "type": "bytes"
        }
      ],
      "name": "RecursiveProofGenerated",
      "type": "event"
    },
    {
      "anonymous": false,
      "inputs": [
        {
          "indexed": true,
          "internalType": "bytes32",
          "name": "id",
          "type": "bytes32"
        }
      ],
      "name": "RequestFulfilled",
      "type": "event"
    },
    {
      "anonymous": false,
      "inputs": [
        {
          "indexed": true,
          "internalType": "bytes32",
          "name": "id",
          "type": "bytes32"
        }
      ],
      "name": "RequestSent",
      "type": "event"
    },
    {
      "inputs": [],
      "name": "acceptOwnership",
      "outputs": [],
      "stateMutability": "nonpayable",
      "type": "function"
    },
    {
      "inputs": [
        {
          "internalType": "bytes[]",
          "name": "proofs",
          "type": "bytes[]"
        },
        {
          "internalType": "bytes[]",
          "name": "publicInputsArray",
          "type": "bytes[]"
        }
      ],
      "name": "aggregateProofs",
      "outputs": [
        {
          "internalType": "bytes32",
          "name": "aggregatedHash",
          "type": "bytes32"
        }
      ],
      "stateMutability": "nonpayable",
      "type": "function"
    },
    {
      "inputs": [
        {
          "internalType": "uint256",
          "name": "",
          "type": "uint256"
        },
        {
          "internalType": "uint256",
          "name": "",
          "type": "uint256"
        }
      ],
      "name": "aggregatedProofHashes",
      "outputs": [
        {
          "internalType": "bytes32",
          "name": "",
          "type": "bytes32"
        }
      ],
      "stateMutability": "view",
      "type": "function"
    },
    {
      "inputs": [
        {
          "internalType": "address",
          "name": "",
          "type": "address"
        }
      ],
      "name": "authorizedCallers",
      "outputs": [
        {
          "internalType": "bool",
          "name": "",
          "type": "bool"
        }
      ],
      "stateMutability": "view",
      "type": "function"
    },
    {
      "inputs": [],
      "name": "batchCounter",
      "outputs": [
        {
          "internalType": "uint256",
          "name": "",
          "type": "uint256"
        }
      ],
      "stateMutability": "view",
      "type": "function"
    },
    {
      "inputs": [
        {
          "internalType": "bytes",
          "name": "",
          "type": "bytes"
        }
      ],
      "name": "checkUpkeep",
      "outputs": [
        {
          "internalType": "bool",
          "name": "upkeepNeeded",
          "type": "bool"
        },
        {
          "internalType": "bytes",
          "name": "",
          "type": "bytes"
        }
      ],
      "stateMutability": "view",
      "type": "function"
    },
    {
      "inputs": [
        {
          "internalType": "uint256",
          "name": "batchId",
          "type": "uint256"
        }
      ],
      "name": "continueRecursiveFolding",
      "outputs": [],
      "stateMutability": "nonpayable",
      "type": "function"
    },
    {
      "inputs": [],
      "name": "contractOwner",
      "outputs": [
        {
          "internalType": "address",
          "name": "",
          "type": "address"
        }
      ],
      "stateMutability": "view",
      "type": "function"
    },
    {
      "inputs": [
        {
          "internalType": "bytes32",
          "name": "",
          "type": "bytes32"
        }
      ],
      "name": "functionsRequestToProofId",
      "outputs": [
        {
          "internalType": "uint256",
          "name": "",
          "type": "uint256"
        }
      ],
      "stateMutability": "view",
      "type": "function"
    },
    {
      "inputs": [
        {
          "internalType": "uint256",
          "name": "batchId",
          "type": "uint256"
        }
      ],
      "name": "getFoldedInstance",
      "outputs": [
        {
          "components": [
            {
              "internalType": "uint256",
              "name": "stepIn",
              "type": "uint256"
            },
            {
              "internalType": "uint256",
              "name": "stepOut",
              "type": "uint256"
            },
            {
              "internalType": "uint256",
              "name": "programCounter",
              "type": "uint256"
            },
            {
              "internalType": "bytes32",
              "name": "stateRootIn",
              "type": "bytes32"
            },
            {
              "internalType": "bytes32",
              "name": "stateRootOut",
              "type": "bytes32"
            },
            {
              "internalType": "bytes32",
              "name": "nullifierHash",
              "type": "bytes32"
            },
            {
              "internalType": "bool",
              "name": "isValid",
              "type": "bool"
            }
          ],
          "internalType": "struct NovaProofAggregator.NovaInstance",
          "name": "",
          "type": "tuple"
        }
      ],
      "stateMutability": "view",
      "type": "function"
    },
    {
      "inputs": [
        {
          "internalType": "uint256",
          "name": "requestId",
          "type": "uint256"
        }
      ],
      "name": "getProofRequest",
      "outputs": [
        {
          "components": [
            {
              "internalType": "address",
              "name": "requester",
              "type": "address"
            },
            {
              "internalType": "uint256",
              "name": "timestamp",
              "type": "uint256"
            },
            {
              "internalType": "string",
              "name": "sourceChain",
              "type": "string"
            },
            {
              "internalType": "uint256",
              "name": "blockNumber",
              "type": "uint256"
            },
            {
              "internalType": "bytes32",
              "name": "stateRoot",
              "type": "bytes32"
            },
            {
              "internalType": "bool",
              "name": "isCompleted",
              "type": "bool"
            },
            {
              "internalType": "bool",
              "name": "isValid",
              "type": "bool"
            }
          ],
          "internalType": "struct ZKProofAggregator.ProofRequest",
          "name": "",
          "type": "tuple"
        }
      ],
      "stateMutability": "view",
      "type": "function"
    },
    {
      "inputs": [
        {
          "internalType": "uint256",
          "name": "batchId",
          "type": "uint256"
        }
      ],
      "name": "getRecursiveProofBatch",
      "outputs": [
        {
          "internalType": "uint256[]",
          "name": "proofIds",
          "type": "uint256[]"
        },
        {
          "internalType": "address",
          "name": "requester",
          "type": "address"
        },
        {
          "internalType": "uint256",
          "name": "timestamp",
          "type": "uint256"
        },
        {
          "internalType": "uint256",
          "name": "recursionDepth",
          "type": "uint256"
        },
        {
          "internalType": "bytes32",
          "name": "aggregatedHash",
          "type": "bytes32"
        },
        {
          "internalType": "bool",
          "name": "isCompleted",
          "type": "bool"
        }
      ],
      "stateMutability": "view",
      "type": "function"
    },
    {
      "inputs": [],
      "name": "getSubscriptionId",
      "outputs": [
        {
          "internalType": "uint256",
          "name": "",
          "type": "uint256"
        }
      ],
      "stateMutability": "view",
      "type": "function"
    },
    {
      "inputs": [],
      "name": "groth16Verifier",
      "outputs": [
        {
          "internalType": "contract Groth16Verifier",
          "name": "",
          "type": "address"
        }
      ],
      "stateMutability": "view",
      "type": "function"
    },
    {
      "inputs": [
        {
          "internalType": "bytes32",
          "name": "requestId",
          "type": "bytes32"
        },
        {
          "internalType": "bytes",
          "name": "response",
          "type": "bytes"
        },
        {
          "internalType": "bytes",
          "name": "err",
          "type": "bytes"
        }
      ],
      "name": "handleOracleFulfillment",
      "outputs": [],
      "stateMutability": "nonpayable",
      "type": "function"
    },
    {
      "inputs": [],
      "name": "initializeProofService",
      "outputs": [],
      "stateMutability": "nonpayable",
      "type": "function"
    },
    {
      "inputs": [
        {
          "internalType": "bytes32",
          "name": "stateRoot",
          "type": "bytes32"
        }
      ],
      "name": "isStateVerified",
      "outputs": [
        {
          "internalType": "bool",
          "name": "",
          "type": "bool"
        }
      ],
      "stateMutability": "view",
      "type": "function"
    },
    {
      "inputs": [],
      "name": "lastUpkeepTimestamp",
      "outputs": [
        {
          "internalType": "uint256",
          "name": "",
          "type": "uint256"
        }
      ],
      "stateMutability": "view",
      "type": "function"
    },
    {
      "inputs": [],
      "name": "maxProofsPerBatch",
      "outputs": [
        {
          "internalType": "uint256",
          "name": "",
          "type": "uint256"
        }
      ],
      "stateMutability": "view",
      "type": "function"
    },
    {
      "inputs": [],
      "name": "maxRecursionDepth",
      "outputs": [
        {
          "internalType": "uint256",
          "name": "",
          "type": "uint256"
        }
      ],
      "stateMutability": "view",
      "type": "function"
    },
    {
      "inputs": [],
      "name": "minProofsPerBatch",
      "outputs": [
        {
          "internalType": "uint256",
          "name": "",
          "type": "uint256"
        }
      ],
      "stateMutability": "view",
      "type": "function"
    },
    {
      "inputs": [],
      "name": "novaVerifier",
      "outputs": [
        {
          "internalType": "address",
          "name": "",
          "type": "address"
        }
      ],
      "stateMutability": "view",
      "type": "function"
    },
    {
      "inputs": [],
      "name": "owner",
      "outputs": [
        {
          "internalType": "address",
          "name": "",
          "type": "address"
        }
      ],
      "stateMutability": "view",
      "type": "function"
    },
    {
      "inputs": [
        {
          "internalType": "bytes",
          "name": "",
          "type": "bytes"
        }
      ],
      "name": "performUpkeep",
      "outputs": [],
      "stateMutability": "nonpayable",
      "type": "function"
    },
    {
      "inputs": [
        {
          "internalType": "uint256",
          "name": "",
          "type": "uint256"
        }
      ],
      "name": "proofRequests",
      "outputs": [
        {
          "internalType": "address",
          "name": "requester",
          "type": "address"
        },
        {
          "internalType": "uint256",
          "name": "timestamp",
          "type": "uint256"
        },
        {
          "internalType": "string",
          "name": "sourceChain",
          "type": "string"
        },
        {
          "internalType": "uint256",
          "name": "blockNumber",
          "type": "uint256"
        },
        {
          "internalType": "bytes32",
          "name": "stateRoot",
          "type": "bytes32"
        },
        {
          "internalType": "bool",
          "name": "isCompleted",
          "type": "bool"
        },
        {
          "internalType": "bool",
          "name": "isValid",
          "type": "bool"
        }
      ],
      "stateMutability": "view",
      "type": "function"
    },
    {
      "inputs": [
        {
          "internalType": "uint256",
          "name": "",
          "type": "uint256"
        }
      ],
      "name": "proofToBatch",
      "outputs": [
        {
          "internalType": "uint256",
          "name": "",
          "type": "uint256"
        }
      ],
      "stateMutability": "view",
      "type": "function"
    },
    {
      "inputs": [
        {
          "internalType": "uint256",
          "name": "requestId",
          "type": "uint256"
        },
        {
          "internalType": "uint256[]",
          "name": "randomWords",
          "type": "uint256[]"
        }
      ],
      "name": "rawFulfillRandomWords",
      "outputs": [],
      "stateMutability": "nonpayable",
      "type": "function"
    },
    {
      "inputs": [
        {
          "internalType": "uint256",
          "name": "",
          "type": "uint256"
        }
      ],
      "name": "recursiveProofBatches",
      "outputs": [
        {
          "internalType": "address",
          "name": "requester",
          "type": "address"
        },
        {
          "internalType": "uint256",
          "name": "timestamp",
          "type": "uint256"
        },
        {
          "internalType": "uint256",
          "name": "recursionDepth",
          "type": "uint256"
        },
        {
          "internalType": "bytes32",
          "name": "aggregatedHash",
          "type": "bytes32"
        },
        {
          "components": [
            {
              "internalType": "uint256",
              "name": "stepIn",
              "type": "uint256"
            },
            {
              "internalType": "uint256",
              "name": "stepOut",
              "type": "uint256"
            },
            {
              "internalType": "uint256",
              "name": "programCounter",
              "type": "uint256"
            },
            {
              "internalType": "bytes32",
              "name": "stateRootIn",
              "type": "bytes32"
            },
            {
              "internalType": "bytes32",
              "name": "stateRootOut",
              "type": "bytes32"
            },
            {
              "internalType": "bytes32",
              "name": "nullifierHash",
              "type": "bytes32"
            },
            {
              "internalType": "bool",
              "name": "isValid",
              "type": "bool"
            }
          ],
          "internalType": "struct NovaProofAggregator.NovaInstance",
          "name": "foldedInstance",
          "type": "tuple"
        },
        {
          "internalType": "bool",
          "name": "isCompleted",
          "type": "bool"
        }
      ],
      "stateMutability": "view",
      "type": "function"
    },
    {
      "inputs": [],
      "name": "requestCounter",
      "outputs": [
        {
          "internalType": "uint256",
          "name": "",
          "type": "uint256"
        }
      ],
      "stateMutability": "view",
      "type": "function"
    },
    {
      "inputs": [
        {
          "internalType": "string",
          "name": "sourceChain",
          "type": "string"
        },
        {
          "internalType": "uint256",
          "name": "targetBlockNumber",
          "type": "uint256"
        }
      ],
      "name": "requestProofVerification",
      "outputs": [
        {
          "internalType": "uint256",
          "name": "requestId",
          "type": "uint256"
        }
      ],
      "stateMutability": "nonpayable",
      "type": "function"
    },
    {
      "inputs": [],
      "name": "s_vrfCoordinator",
      "outputs": [
        {
          "internalType": "contract IVRFCoordinatorV2Plus",
          "name": "",
          "type": "address"
        }
      ],
      "stateMutability": "view",
      "type": "function"
    },
    {
      "inputs": [
        {
          "internalType": "address",
          "name": "caller",
          "type": "address"
        },
        {
          "internalType": "bool",
          "name": "authorized",
          "type": "bool"
        }
      ],
      "name": "setAuthorizedCaller",
      "outputs": [],
      "stateMutability": "nonpayable",
      "type": "function"
    },
    {
      "inputs": [
        {
          "internalType": "address",
          "name": "_vrfCoordinator",
          "type": "address"
        }
      ],
      "name": "setCoordinator",
      "outputs": [],
      "stateMutability": "nonpayable",
      "type": "function"
    },
    {
      "inputs": [
        {
          "internalType": "uint64",
          "name": "subscriptionId",
          "type": "uint64"
        },
        {
          "internalType": "uint32",
          "name": "gasLimit",
          "type": "uint32"
        },
        {
          "internalType": "bytes32",
          "name": "donId",
          "type": "bytes32"
        }
      ],
      "name": "setFunctionsConfig",
      "outputs": [],
      "stateMutability": "nonpayable",
      "type": "function"
    },
    {
      "inputs": [
        {
          "internalType": "string",
          "name": "source",
          "type": "string"
        }
      ],
      "name": "setFunctionsSource",
      "outputs": [],
      "stateMutability": "nonpayable",
      "type": "function"
    },
    {
      "inputs": [
        {
          "internalType": "string",
          "name": "url",
          "type": "string"
        }
      ],
      "name": "setProofServiceUrl",
      "outputs": [],
      "stateMutability": "nonpayable",
      "type": "function"
    },
    {
      "inputs": [
        {
          "internalType": "uint256",
          "name": "newInterval",
          "type": "uint256"
        }
      ],
      "name": "setUpkeepInterval",
      "outputs": [],
      "stateMutability": "nonpayable",
      "type": "function"
    },
    {
      "inputs": [
        {
          "internalType": "uint256",
          "name": "subscriptionId",
          "type": "uint256"
        },
        {
          "internalType": "bytes32",
          "name": "keyHash",
          "type": "bytes32"
        },
        {
          "internalType": "uint32",
          "name": "callbackGasLimit",
          "type": "uint32"
        }
      ],
      "name": "setVRFConfig",
      "outputs": [],
      "stateMutability": "nonpayable",
      "type": "function"
    },
    {
      "inputs": [
        {
          "internalType": "uint256[]",
          "name": "proofIds",
          "type": "uint256[]"
        }
      ],
      "name": "startNovaFolding",
      "outputs": [
        {
          "internalType": "uint256",
          "name": "batchId",
          "type": "uint256"
        }
      ],
      "stateMutability": "nonpayable",
      "type": "function"
    },
    {
      "inputs": [
        {
          "internalType": "address",
          "name": "to",
          "type": "address"
        }
      ],
      "name": "transferOwnership",
      "outputs": [],
      "stateMutability": "nonpayable",
      "type": "function"
    },
    {
      "inputs": [
        {
          "internalType": "uint256",
          "name": "_maxRecursionDepth",
          "type": "uint256"
        },
        {
          "internalType": "uint256",
          "name": "_minProofsPerBatch",
          "type": "uint256"
        },
        {
          "internalType": "uint256",
          "name": "_maxProofsPerBatch",
          "type": "uint256"
        }
      ],
      "name": "updateRecursionParams",
      "outputs": [],
      "stateMutability": "nonpayable",
      "type": "function"
    },
    {
      "inputs": [],
      "name": "upkeepInterval",
      "outputs": [
        {
          "internalType": "uint256",
          "name": "",
          "type": "uint256"
        }
      ],
      "stateMutability": "view",
      "type": "function"
    },
    {
      "inputs": [
        {
          "internalType": "bytes32",
          "name": "",
          "type": "bytes32"
        }
      ],
      "name": "usedNullifiers",
      "outputs": [
        {
          "internalType": "bool",
          "name": "",
          "type": "bool"
        }
      ],
      "stateMutability": "view",
      "type": "function"
    },
    {
      "inputs": [
        {
          "internalType": "bytes32",
          "name": "",
          "type": "bytes32"
        }
      ],
      "name": "usedProofHashes",
      "outputs": [
        {
          "internalType": "bool",
          "name": "",
          "type": "bool"
        }
      ],
      "stateMutability": "view",
      "type": "function"
    },
    {
      "inputs": [
        {
          "internalType": "bytes32",
          "name": "",
          "type": "bytes32"
        }
      ],
      "name": "verifiedProofs",
      "outputs": [
        {
          "internalType": "bool",
          "name": "",
          "type": "bool"
        }
      ],
      "stateMutability": "view",
      "type": "function"
    },
    {
      "inputs": [
        {
          "internalType": "uint256",
          "name": "batchId",
          "type": "uint256"
        },
        {
          "internalType": "bytes",
          "name": "proof",
          "type": "bytes"
        }
      ],
      "name": "verifyNovaProof",
      "outputs": [
        {
          "internalType": "bool",
          "name": "isValid",
          "type": "bool"
        }
      ],
      "stateMutability": "view",
      "type": "function"
    }
  ],
  "bytecode": "0x60c034620001fe57601f6200551b38819003918201601f1916830192916001600160401b0391828511848610176200020357816101009285926040978852833981010312620001fe57620000538262000219565b90620000626020840162000219565b928481015190606081015160808201519384168403620001fe5760a0820151906200009e60e06200009660c0860162000219565b940162000219565b943315620001ba57600080546001600160a01b03199081163317909155976001600160a01b039788168015620001a95791888096959492740493e00000000000000000000000010003002625a0948c600254161760025516608052610e10600755600a549160ff1997600889600e541617600e556008556009556a0100000000000000000000600160901b039060501b169060018060b01b0319161717600a55600b551660a052336000526012602052600185600020918254161790553383601354161760135542600655601060185560026019556008601a551690601b541617601b55516152ec90816200022f82396080518181816104ac015261437f015260a0518161086f0152f35b8a5163d92e233d60e01b8152600490fd5b885162461bcd60e51b815260206004820152601860248201527f43616e6e6f7420736574206f776e657220746f207a65726f00000000000000006044820152606490fd5b600080fd5b634e487b7160e01b600052604160045260246000fd5b51906001600160a01b0382168203620001fe5756fe6080604052600436101561001257600080fd5b60003560e01c80630ca76175146102f25780631098241b146102ed57806310a14c40146102e8578063152a9526146102e3578063176d80c41461023e57806319c813be146102de5780631bd6447a146102d95780631fe543e3146102d4578063206137aa146102cf5780632091f938146102ca578063223b6637146102c557806325825746146102c057806328606775146102bb57806336e0025f146102b657806339a9e4b3146102b15780633f5ef0de146102ac578063411eddd1146102a7578063454bbd29146102a2578063457b2e411461029d5780634585e33b14610298578063536fff6c14610293578063569593321461028e57806357aabcac1461028957806357efe032146102845780635a74373c1461027f578063624cffd41461027a57806362625bc11461027557806368233eef14610270578063683dd7771461026b5780636e04ff0d1461026657806372e4c9f61461026157806379ba50971461025c57806384a088e5146102575780638da5cb5b146102525780638ea981171461024d578063973a814e146102485780639eccacf614610243578063a9431f231461023e578063b5cce13314610239578063ce606ee014610234578063d175d81a1461022f578063d87318b21461022a578063de3d9fb714610225578063e2ecf1e214610220578063f2fde38b1461021b5763fa0c7a181461021657600080fd5b611e6f565b611d2b565b611d0d565b611cef565b611cbe565b611bfe565b611bd5565b611b7f565b610828565b611b56565b611b38565b611ac3565b611a9a565b6119d7565b6118aa565b61187c565b61182f565b611743565b611725565b61168b565b611656565b611638565b611539565b61151b565b6114ef565b6114b0565b611401565b61139a565b611339565b61122e565b61116f565b61112b565b611011565b610fe8565b610f6f565b610c2a565b610ae3565b610ab2565b610969565b6108b1565b610859565b61075b565b610683565b610585565b61045c565b634e487b7160e01b600052604160045260246000fd5b60e081019081106001600160401b0382111761032857604052565b6102f7565b604081019081106001600160401b0382111761032857604052565b602081019081106001600160401b0382111761032857604052565b60c081019081106001600160401b0382111761032857604052565b90601f801991011681019081106001600160401b0382111761032857604052565b604051906103ac8261030d565b565b604051906103ac82610348565b604051906103ac82610363565b60405190608082018281106001600160401b0382111761032857604052565b6001600160401b03811161032857601f01601f191660200190565b92919261040e826103e7565b9161041c604051938461037e565b829481845281830111610439578281602093846000960137010152565b600080fd5b9080601f830112156104395781602061045993359101610402565b90565b34610439576060366003190112610439576001600160401b036004356024358281116104395761049090369060040161043e565b91604435908111610439576104a990369060040161043e565b917f00000000000000000000000000000000000000000000000000000000000000006001600160a01b0316330361054957600092828452600460205260408420549161271083116000146105395761270f1983019283116105345761050d92613c0f565b7f85e1543bf2f84fe80c6badbce3648c8539ad1df4d2b3d822938ca0538be727e68280a280f35b612067565b610544925083613908565b61050d565b60405163c6829f8360e01b8152600490fd5b602060031982011261043957600435906001600160401b038211610439576104599160040161043e565b34610439576105933661055b565b6105a860018060a01b03601354163314611ef9565b80516001600160401b038111610328576105cc816105c7600d54610cec565b611f49565b602080601f831160011461060e575081906105fe93600092610603575b50508160011b916000199060031b1c19161790565b600d55005b0151905038806105e9565b90601f1983169361062f600d60005260008051602061529783398151915290565b926000905b86821061066b5750508360019510610652575b505050811b01600d55005b015160001960f88460031b161c19169055388080610647565b80600185968294968601518155019501930190610634565b346104395760203660031901126104395760043560005260166020526020604060002054604051908152f35b60005b8381106106c25750506000910152565b81810151838201526020016106b2565b906020916106eb815180928185528580860191016106af565b601f01601f1916010190565b6020815260018060a01b0382511660208201526020820151604082015260e060c061073160408501518360608601526101008501906106d2565b9360608101516080850152608081015160a085015260a08101511515828501520151151591015290565b346104395760203660031901126104395761082460408060c0815161077f8161030d565b60009181838093528260208201526060858201528260608201528260808201528260a0820152015260043581526003602052209061081a60ff60058351946107c68661030d565b80546001600160a01b03168652600181015460208701526107e960028201610f0d565b8686015260038101546060870152600481015460808701520154818116151560a086015260081c16151560c0840152565b51918291826106f7565b0390f35b3461043957602036600319011261043957600435600052600f602052602060ff604060002054166040519015158152f35b34610439576000366003190112610439576040517f00000000000000000000000000000000000000000000000000000000000000006001600160a01b03168152602090f35b6024359063ffffffff8216820361043957565b34610439576060366003190112610439576004356001600160401b0381168103610439576108dd61089e565b6108f260018060a01b03601354163314611ef9565b600a80546bffffffffffffffffffffffff60501b191660509390931b67ffffffffffffffff60501b169290921760909190911b63ffffffff60901b16179055604435600b55005b9181601f84011215610439578235916001600160401b038311610439576020808501948460051b01011161043957565b34610439576040366003190112610439576004356024356001600160401b0381116104395761099c903690600401610939565b600254919290916001600160a01b031633819003610a945750806000526004602052604060002054908115610a59576103e71943014381116105345784610a41610a207f2374d5481494ad7962d4bd1b98b91e9f3117c9b66533b2804be3d76c41a4908893610a1a610a1189610a579b612d86565b356103e8900690565b90612dc8565b958692836003610a3a896000526003602052604060002090565b0155612d86565b60408051913582526020820192909252a2613052565b005b60405162461bcd60e51b8152602060048201526013602482015272125b9d985b1a5908159491881c995c5d595cdd606a1b6044820152606490fd5b6044906040519063073e64fd60e21b82523360048301526024820152fd5b34610439576020366003190112610439576004356000526015602052602060ff604060002054166040519015158152f35b34610439576060366003190112610439576004356024359060443590610b1460018060a01b03601354163314611ef9565b80151580610bca575b15610b9157600283101580610b87575b15610b4c57610a5792610b42610b4792601855565b601955565b601a55565b60405162461bcd60e51b8152602060048201526013602482015272496e76616c69642062617463682073697a657360681b6044820152606490fd5b5081831115610b2d565b60405162461bcd60e51b8152602060048201526011602482015270092dcecc2d8d2c840dac2f040c8cae0e8d607b1b6044820152606490fd5b506020811115610b1d565b90604051610be28161030d565b60c060ff600683958054855260018101546020860152600281015460408601526003810154606086015260048101546080860152600581015460a08601520154161515910152565b34610439576020366003190112610439576004356000526014602052610180604060002060018060a01b0360018201541690610ce2600282015491600381015460048201549060ff600c610c8060058601610bd5565b9401541694604051968752602087015260408601526060850152608084019060c08091805184526020810151602085015260408101516040850152606081015160608501526080810151608085015260a081015160a085015201511515910152565b1515610160820152f35b90600182811c92168015610d1c575b6020831014610d0657565b634e487b7160e01b600052602260045260246000fd5b91607f1691610cfb565b805460009392610d3582610cec565b91828252602093600191600181169081600014610d9d5750600114610d5c575b5050505050565b90939495506000929192528360002092846000945b838610610d8957505050500101903880808080610d55565b805485870183015294019385908201610d71565b60ff19168685015250505090151560051b010191503880808080610d55565b60405190600082600c5491610dd083610cec565b80835292602090600190818116908115610e5c5750600114610dfb575b50506103ac9250038361037e565b915092600c6000527fdf6966c971051c3d54ec59162606531493a51404a002842f56009d7e5cf4a8c7936000925b828410610e4457506103ac9450505081016020013880610ded565b85548885018301529485019487945092810192610e29565b915050602092506103ac94915060ff191682840152151560051b8201013880610ded565b60405190600082600d5491610e9483610cec565b80835292602090600190818116908115610e5c5750600114610ebe5750506103ac9250038361037e565b915092600d600052600080516020615297833981519152936000925b828410610ef557506103ac9450505081016020013880610ded565b85548885018301529485019487945092810192610eda565b906103ac610f219260405193848092610d26565b038361037e565b959260c09592610f56929998959960018060a01b03168852602088015260e0604088015260e08701906106d2565b9660608601526080850152151560a08401521515910152565b34610439576020366003190112610439576004356000526003602052604060002060018060a01b038154169061082460018201549160405193610fc085610fb98160028601610d26565b038661037e565b600382015491600560048201549101549260405196879660ff808760081c1696169488610f28565b3461043957600036600319011261043957601b546040516001600160a01b039091168152602090f35b346104395761101f3661055b565b61103460018060a01b03601354163314611ef9565b80516001600160401b0381116103285761105881611053600c54610cec565b611f98565b602080601f831160011461108e57508190611089936000926106035750508160011b916000199060031b1c19161790565b600c55005b90601f198316936110c1600c6000527fdf6966c971051c3d54ec59162606531493a51404a002842f56009d7e5cf4a8c790565b926000905b8682106110fd57505083600195106110e4575b505050811b01600c55005b015160001960f88460031b161c191690553880806110d9565b806001859682949686015181550195019301906110c6565b634e487b7160e01b600052603260045260246000fd5b34610439576040366003190112610439576024356000906004358252601060205260408220805482101561116b5782526020918290200154604051908152f35b8280fd5b34610439576040366003190112610439576004356024356001600160401b038111610439576111a290369060040161043e565b9080151580611222575b6111b590612028565b6000526014602052604060002060ff600c82015416156111e75781516020928301206004919091015460405191148152f35b60405162461bcd60e51b815260206004820152601360248201527210985d18da081b9bdd0818dbdb5c1b195d1959606a1b6044820152606490fd5b506017548111156111ac565b34610439576000806003193601126113205761125560018060a01b03601354163314611ef9565b611260600d54610cec565b601f81116112d0575b50604f600d557f68747470733a2f2f6c696768742d6c696e6b2e76657263656c2e6170702f61706000805160206152978339815191525566692f70726f766560c81b7fd7b6990105719101dabeb77144f2a3385c8033acd3af97e9423a695e81ad1eb65580f35b601f0160051c600080516020615297833981519152017fd7b6990105719101dabeb77144f2a3385c8033acd3af97e9423a695e81ad1eb75b8181106113155750611269565b828155600101611308565b80fd5b600435906001600160a01b038216820361043957565b3461043957604036600319011261043957611352611323565b602435801515810361043957601354610a57926001600160a01b039161137b9083163314611ef9565b16600052601260205260406000209060ff801983541691151516179055565b34610439576000366003190112610439576020601854604051908152f35b906020600319830112610439576004356001600160401b039283821161043957806023830112156104395781600401359384116104395760248483010111610439576024019190565b346104395761140f366113b8565b505060065442034281116105345761142a90600754106120a8565b61143342600655565b60408051632bf7f01960e11b815260048101919091526008604482015267657468657265756d60c01b606482015260006024820152602081806084810103816000305af180156114ab5761148357005b610a579060203d6020116114a4575b61149c818361037e565b8101906120e8565b503d611492565b6120f7565b34610439576020366003190112610439576001600160a01b036114d1611323565b166000526012602052602060ff604060002054166040519015158152f35b346104395760203660031901126104395760043560005260046020526020604060002054604051908152f35b34610439576000366003190112610439576020601a54604051908152f35b34610439576040366003190112610439576004356001600160401b0381116104395761156c61082491369060040161043e565b6024356115d261157d600554612103565b9261158784600555565b61158f61039f565b33815290426020830152604082015282606082015260006080820152600060a0820152600060c08201526115cd846000526003602052604060002090565b612112565b80611629576115e08261326f565b817f7ef8ca77fdc89c79f093f2a6b2348b1fcda0beb941ce31ce9f2d9d260c4db9d2604051806116163395829190602083019252565b0390a36040519081529081906020820190565b6116338183613052565b6115e0565b34610439576000366003190112610439576020600754604051908152f35b34610439576000366003190112610439576020600654604051908152f35b6001600160401b0381116103285760051b60200190565b3461043957602080600319360112610439576004356001600160401b0381116104395736602382011215610439578060040135906116c882611674565b916116d6604051938461037e565b8083526024602084019160051b8301019136831161043957602401905b828210611716576108246117068561255a565b6040519081529081906020820190565b813581529084019084016116f3565b34610439576000366003190112610439576020601754604051908152f35b346104395760203660031901126104395760043580151580611823575b61176990612028565b6000818152601460205260409020600101546001600160a01b031633036117e857806117e36117a5610a57936000526014602052604060002090565b6003600c8201916117bf6117ba845460ff1690565b61281a565b016117d781546117d26018548210612866565b612103565b9055805460ff19169055565b613351565b60405162461bcd60e51b81526020600482015260136024820152722737ba103130ba31b4103932b8bab2b9ba32b960691b6044820152606490fd5b50601754811115611760565b346104395761183d366113b8565b5050600654420342811161053457600754106040519061185c82610348565b6000825261082460405192839283526040602084015260408301906106d2565b34610439576020366003190112610439576118a260018060a01b03601354163314611ef9565b600435600755005b3461043957600080600319360112611320576001546001600160a01b0390811633036119285781546001600160a01b0316600080546001600160a01b0319163317905590600180546001600160a01b03191690553391167f8be0079c531659141344cd1fd0a4f28419497f9722a3daafe3b4186f6b6457e08380a380f35b60405162461bcd60e51b815260206004820152601660248201527526bab9ba10313290383937b837b9b2b21037bbb732b960511b6044820152606490fd5b90815180825260208080930193019160005b828110611986575050505090565b835185529381019392810192600101611978565b94919695926119b460a0959260c0885260c0880190611966565b97600180871b031660208701526040860152606085015260808401521515910152565b34610439576020806003193601126104395760043580151580611a8e575b6119fe90612028565b60005260146020526040600020906001808060a01b03600184015416916002840154600385015460048601549160ff600c8801541693604051958660208a549182815201996000526020600020926000905b828210611a79575050505050611a6d85610824969798038761037e565b6040519687968761199a565b84548c529a8b019a9383019390830190611a50565b506017548111156119f5565b34610439576000366003190112610439576000546040516001600160a01b039091168152602090f35b3461043957602036600319011261043957611adc611323565b6000546001600160a01b03908116903382141580611b2a575b611b0257610a57836128c5565b60649250600254166040519163061db9c160e01b835233600484015260248301526044820152fd5b508060025416331415611af5565b34610439576000366003190112610439576020600554604051908152f35b34610439576000366003190112610439576002546040516001600160a01b039091168152602090f35b346104395760603660031901126104395760443563ffffffff811680910361043957611bb660018060a01b03601354163314611ef9565b60043560085560243560095563ffffffff19600a541617600a55600080f35b34610439576000366003190112610439576013546040516001600160a01b039091168152602090f35b34610439576040366003190112610439576001600160401b0360043581811161043957611c2f903690600401610939565b9160243590811161043957611c48903690600401610939565b9033600052601260205260ff604060002054168015611caa575b15611c74576108249361170693612bb9565b60405162461bcd60e51b815260206004820152600e60248201526d139bdd08185d5d1a1bdc9a5e995960921b6044820152606490fd5b506013546001600160a01b03163314611c62565b34610439576020366003190112610439576004356000526011602052602060ff604060002054166040519015158152f35b34610439576000366003190112610439576020600854604051908152f35b34610439576000366003190112610439576020601954604051908152f35b3461043957602036600319011261043957611d44611323565b6000546001600160a01b039081169133839003611de2571690338214611d9d57600180546001600160a01b031916831790557fed8889f560326eb138920d842192f0eb3dd22b4f139c87a2c57538e05bae1278600080a3005b60405162461bcd60e51b815260206004820152601760248201527f43616e6e6f74207472616e7366657220746f2073656c660000000000000000006044820152606490fd5b60405162461bcd60e51b815260206004820152601660248201527527b7363c9031b0b63630b1363290313c9037bbb732b960511b6044820152606490fd5b6103ac9092919260e081019360c08091805184526020810151602085015260408101516040850152606081015160608501526080810151608085015260a081015160a085015201511515910152565b3461043957602036600319011261043957610824611ee16005604060c06004358251611e9a8161030d565b600092818480935282602082015282868201528260608201528260808201528260a0820152015280151580611eed575b611ed390612028565b815260146020522001610bd5565b60405191829182611e20565b50601754811115611eca565b15611f0057565b60405162461bcd60e51b815260206004820152600a60248201526927b7363c9037bbb732b960b11b6044820152606490fd5b818110611f3d575050565b60008155600101611f32565b90601f8211611f56575050565b6103ac91600d600052600080516020615297833981519152906020601f840160051c83019310611f8e575b601f0160051c0190611f32565b9091508190611f81565b90601f8211611fa5575050565b6103ac91600c6000527fdf6966c971051c3d54ec59162606531493a51404a002842f56009d7e5cf4a8c7906020601f840160051c83019310611f8e57601f0160051c0190611f32565b9190601f8111611ffd57505050565b6103ac926000526020600020906020601f840160051c83019310611f8e57601f0160051c0190611f32565b1561202f57565b60405162461bcd60e51b815260206004820152601060248201526f125b9d985b1a590818985d18da08125160821b6044820152606490fd5b634e487b7160e01b600052601160045260246000fd5b60001981019190821161053457565b601f1981019190821161053457565b9190820391821161053457565b156120af57565b60405162461bcd60e51b8152602060048201526011602482015270155c1ad9595c081b9bdd081b9959591959607a1b6044820152606490fd5b90816020910312610439575190565b6040513d6000823e3d90fd5b60001981146105345760010190565b815181546001600160a01b0319166001600160a01b0391909116178155600160209060208401516001840155600283019160408501518051926001600160401b0384116103285761216d846121678754610cec565b87611fee565b602092601f8511600114612205575050936121ef936121ad8460c0956005956103ac9a996000926106035750508160011b916000199060031b1c19161790565b90555b606085015160038201556080850151600482015501926121e86121d660a0830151151590565b859060ff801983541691151516179055565b0151151590565b815461ff00191690151560081b61ff0016179055565b929190601f1985169061221d87600052602060002090565b946000915b83831061226d57505050846005946103ac9998946121ef989460c09860019510612254575b505050811b0190556121b0565b015160001960f88460031b161c19169055388080612247565b848601518755958601959481019491810191612222565b1561228b57565b60405162461bcd60e51b8152602060048201526013602482015272125b9d985b1a59081c1c9bdbd98818dbdd5b9d606a1b6044820152606490fd5b8051156122d35760200190565b611115565b8051600110156122d35760400190565b8051600210156122d35760600190565b8051600310156122d35760800190565b8051600410156122d35760a00190565b80518210156122d35760209160051b010190565b1561233357565b60405162461bcd60e51b8152602060048201526013602482015272141c9bdbd9881b9bdd0818dbdb5c1b195d1959606a1b6044820152606490fd5b1561237557565b60405162461bcd60e51b815260206004820152600d60248201526c24b73b30b634b210383937b7b360991b6044820152606490fd5b156123b157565b60405162461bcd60e51b81526020600482015260166024820152750a0e4dedecc40c2d8e4cac2c8f240d2dc40c4c2e8c6d60531b6044820152606490fd5b908160011b918083046002149015171561053457565b8151916001600160401b03831161032857600160401b8311610328578154838355808410612461575b5060208091019160005260206000209060005b84811061244f575050505050565b83518382015592810192600101612441565b61247990836000528460206000209182019101611f32565b3861242e565b929083526020916020840152604092600093825461249c81610cec565b9360019180831690811561250057506001146124bc575b50505050505090565b909192939496955060005260206000206000905b8582106124ed5750505050604092935001013880808080806124b3565b80548583018501529087019082016124d0565b949650505050506040935060ff1916838301528015150201013880808080806124b3565b9060005b6004811061253557505050565b600190602083519301928185015501612528565b906020610459928181520190611966565b6125728151601954811015908161280d575b50612284565b60005b8151811015612606576001906125d86125d360056125bb6125b6826125ae61259d888b612318565b516000526003602052604060002090565b015460ff1690565b61232c565b6125c861259d8588612318565b015460081c60ff1690565b61236e565b6126006125f96125e88386612318565b516000526016602052604060002090565b54156123aa565b01612575565b50612612601754612103565b9061261c82601755565b612630826000526014602052604060002090565b61263a8282612405565b600181810180546001600160a01b03191633179055908160029142600282015560039060006003820155612675600c820160ff198154169055565b600093600e600d83019201935b6126ca575b505050505050817f5d74f4c80f98633a9ce8e3f825e7019210bfb85159f33a7fceb58fa9cb8ca621604051806126be339582612549565b0390a361045981613351565b86518510156128085785856128016126e383988b612318565b518b6126f9826000526016602052604060002090565b5560049081612712826000526003602052604060002090565b0154906127df876127d98b612731856000526003602052604060002090565b0154938b61278c8a8561274e856000526003602052604060002090565b019861276b61277960409b8c5192839160209d8e8401968761247f565b03601f19810183528261037e565b5190209290600052602052604060002090565b556127956103c8565b966127aa826000526003602052604060002090565b015487528c6127c3826000526003602052604060002090565b0154858801526000526003602052604060002090565b01610f0d565b8051910120908201524260608201526000838152602089905260409020612524565b0194612682565b612687565b9050601a5410153861256c565b1561282157565b60405162461bcd60e51b815260206004820152601e60248201527f50726576696f757320666f6c64696e67206e6f7420636f6d706c6574656400006044820152606490fd5b1561286d57565b60405162461bcd60e51b815260206004820152601b60248201527f4d617820726563757273696f6e206465707468207265616368656400000000006044820152606490fd5b604051906128bf82610348565b60008252565b6001600160a01b0316801561291a576020817fd1a6a14209a385a964d036e404cb5cfb71f4000cdb03c9366292430787261be6926bffffffffffffffffffffffff60a01b6002541617600255604051908152a1565b60405163d92e233d60e01b8152600490fd5b1561293357565b60405162461bcd60e51b8152602060048201526014602482015273496e76616c696420696e7075742061727261797360601b6044820152606490fd5b1561297657565b60405162461bcd60e51b815260206004820152601c60248201527f546f6f206d616e792070726f6f667320746f20616767726567617465000000006044820152606490fd5b906129c582611674565b6129d2604051918261037e565b82815280926129e3601f1991611674565b0190602036910137565b91908110156122d35760051b81013590601e19813603018212156104395701908135916001600160401b038311610439576020018236038113610439579190565b15612a3557565b60405162461bcd60e51b815260206004820152601c60248201527f496e76616c69642070726f6f6620696e206167677265676174696f6e000000006044820152606490fd5b908092918237016000815290565b15612a8f57565b60405162461bcd60e51b815260206004820152602160248201527f50726f6f6620616c7265616479207573656420696e206167677265676174696f6044820152603760f91b6064820152608490fd5b9193929093845160208096019060005b818110612b1857505050825260601b6bffffffffffffffffffffffff191660208201526034019150565b825186529487019491870191600101612aee565b8151916001600160401b03831161032857600160401b8311610328578154838355808410612b8e575b50612b6a602080920192600052602060002090565b9060005b848110612b7c575050505050565b83518382015592810192600101612b6e565b60008360005284602060002092830192015b828110612bae575050612b55565b818155600101612ba0565b9192909281841480612d7d575b612bcf9061292c565b612bdc600a85111561296f565b612be5846129bb565b9360005b818110612ca75750505050506040516020810190612c0d8161276b33428787612ade565b51902090612c42612c1f600554612103565b91612c2983600555565b612c3d836000526010602052604060002090565b612b2c565b612c66612c5983600052600f602052604060002090565b805460ff19166001179055565b7f6dd2118914ad2b9a98780fafd92846eebe9361998a810f1a05f67033b17e2cdd60405180612ca18582919060206040840193600181520152565b0390a290565b80612cec612ce7612ce1612cbe600195878b6129ed565b612cd9612ccf878c8c9695966129ed565b9490923691610402565b923691610402565b90613789565b612a2e565b612d77612c59612d2b612d25612d0385888c6129ed565b929061276b612d13888d8d6129ed565b60405195869460208601988991612a7a565b91612a7a565b519020612d5b612d56612d52612d4b846000526011602052604060002090565b5460ff1690565b1590565b612a88565b80612d66858c612318565b526000526011602052604060002090565b01612be9565b50831515612bc6565b90156122d35790565b906001820180921161053457565b603001908160301161053457565b90612710820180921161053457565b906020820180921161053457565b9190820180921161053457565b6040519061016082018281106001600160401b038211176103285760405261013182527072696e6769667928726573756c7429293b60781b610140837f636f6e737420636861696e49643d7061727365496e7428617267735b305d293b60208201527f636f6e737420626c6f636b4e756d626572733d4a534f4e2e706172736528617260408201527f67735b315d293b636f6e737420726573756c743d7b737563636573733a74727560608201527f652c636861696e49642c626c6f636b4e756d626572732c76616c69646974794860808201527f6173683a2730783132333435363738393061626364656631323334353637383960a08201527f306162636465663132333435363738393061626364656631323334353637383960c08201527f30616263646566272c6d657461646174613a7b74696d657374616d703a4d617460e08201527f682e666c6f6f7228446174652e6e6f7728292f31303030297d7d3b72657475726101008201527f6e2046756e6374696f6e732e656e636f6465537472696e67284a534f4e2e73746101208201520152565b60405190612f7a8261030d565b606060c08360008152600060208201526000604082015282808201528260808201528260a08201520152565b60405190612fb382610363565b600582528160005b60a08110612fc7575050565b806060602080938501015201612fbb565b60405190608082018281106001600160401b038211176103285760405260038252819060005b606080821015613018579060209182828701015201612ffe565b5050909150565b90613032602092828151948592016106af565b0190565b92919061304d602091604086526040860190610d26565b930152565b907f89652d00e157965d54f5ad31af9352416c4e90b879711ec122680d4e3a1de9a690613089836000526003602052604060002090565b613091610dbc565b805115613201575b6131b36131d7916130b26130ab612f6d565b91826147d8565b6131ae60026130bf612fa6565b9501946130db6130d66130d188610f0d565b613dbd565b613f6a565b6130e4826122c6565b526130ee816122c6565b5061312261312f6130fe89613f6a565b61276b60405193849261311c60208501600190605b60f81b81520190565b9061301f565b605d60f81b815260010190565b613138826122d8565b52613142816122d8565b5061315b6130d6613155600e5460ff1690565b60ff1690565b613164826122e8565b5261316e816122e8565b5061317846613f6a565b613181826122f8565b5261318b816122f8565b50613194610e80565b61319d82612308565b526131a781612308565b508261400a565b614159565b600a54600b54916001600160401b0363ffffffff8360901c169260501c1690614327565b936131ec856000526004602052604060002090565b556131fc60405192839283613036565b0390a2565b506131d76131b3613210612dd5565b915050613099565b60e060a06104599360208452805160208501526020810151604085015261ffff6040820151166060850152606081015163ffffffff80911660808601526080820151168285015201519160c08082015201906106d2565b600254600090602090613308906001600160a01b03166009546008546132e7600a5463ffffffff906132aa6132a26103ae565b8a8152614401565b936132b36103bb565b9586528886015280881c61ffff16604086015263ffffffff81831616606086015260301c16608084019063ffffffff169052565b60a0820152604051948580948193634d8e1c2f60e11b835260048301613218565b03925af180156114ab5761332f91600091613332575b506000526004602052604060002090565b55565b61334b915060203d6020116114a45761149c818361037e565b3861331e565b806000526014602052604060002060405190602082017f636f6e73742062617463684964203d207061727365496e7428617267735b305d90526040820161293b60f01b905281604281016133d7906025907f636f6e73742070726f6f66436f756e74203d207061727365496e7428617267738152645b315d293b60d81b60208201520190565b7f636f6e73742073746570496e203d207061727365496e7428617267735b325d298152603b60f81b60208201526021017f2f2f2047656e6572617465204e6f7661207265637572736976652070726f6f66815275202d2073696d706c696669656420666f722064656d6f60501b60208201526036017f636f6e7374206167677265676174656448617368203d206574686572732e757481526d0d2d8e65cd6cac6c6c2d6646a6c560931b6020820152602e017f20206574686572732e7574696c732e64656661756c74416269436f6465722e658152650dcc6dec8ca560d31b60208201526026017f202020205b2775696e74323536272c202775696e74323536272c202775696e748152650c8d4d89d74b60d21b60208201526026017f202020205b626174636849642c2070726f6f66436f756e742c2073746570496e8152605d60f81b60208201526021016220202960e81b815260030161293b60f01b81526002017f636f6e737420666f6c646564496e7374616e6365203d207b000000000000000081526018017008081cdd195c125b8e881cdd195c125b8b607a1b81526011017508081cdd195c13dd5d0e881cdd195c125b880ac80c4b60521b81526016017f202070726f6772616d436f756e7465723a20446174652e6e6f7728292c0000008152601d017f20207374617465526f6f74496e3a2061676772656761746564486173682c00008152601e017f20207374617465526f6f744f75743a2061676772656761746564486173682c008152601f017f20206e756c6c6966696572486173683a206574686572732e7574696c732e6b6581527f6363616b323536286167677265676174656448617368292c000000000000000060208201526038016e2020697356616c69643a207472756560881b8152600f01617d3b60f01b81526002017f72657475726e2046756e6374696f6e732e656e636f6465537472696e67284a5381526d4f4e2e737472696e67696679287b60901b6020820152602e0172080818985d18da12590e8818985d18da12590b606a1b81526013017f202061676772656761746564486173683a2061676772656761746564486173688152600b60fa1b60208201526021017f2020666f6c646564496e7374616e63653a20666f6c646564496e7374616e63658152600b60fa1b60208201526021017f202072656375727369766550726f6f663a2061676772656761746564486173688152602001637d29293b60e01b815260040103601f1981018352613778908361037e565b80549060030154916103ac9361443a565b51159081156137a2575b5061379d57600190565b600090565b9050511538613793565b156137b357565b60405162461bcd60e51b815260206004820152601960248201527f496e76616c69642046756e6374696f6e732072657175657374000000000000006044820152606490fd5b9060206104599281815201906106d2565b604051906138168261032d565b60078252667375636365737360c81b6020830152565b604051906138398261032d565b600c82526b3430b9a932b0b6283937b7b360a11b6020830152565b604051906138618261032d565b600c82526b0ecc2d8d2c8d2e8f290c2e6d60a31b6020830152565b60209291906138928492828151948592016106af565b019081520190565b604051906138a78261032d565b6005825264383937b7b360d91b6020830152565b604051906138c88261032d565b600d82526c7075626c69635369676e616c7360981b6020830152565b6138f86020926040835260408301906106d2565b9082818303910152600081520190565b9161391d836000526004602052604060002090565b549061392a8215156137ac565b8051613b1657507f50348c1af87d1d2e61e0a7e9bf83a9c67f047d8de73be6b88acac8655a97581e916131fc91613968613962613809565b83614548565b61397c826000526003602052604060002090565b60058101805460ff19166001178155909115613ad2577f6dd2118914ad2b9a98780fafd92846eebe9361998a810f1a05f67033b17e2cdd916139c56139bf61382c565b86614548565b15613abd576139db6139d561389a565b86614634565b6139ec6139e66138bb565b87614634565b8151151580613ab3575b15613a7757613a3692613a67949261276b613a2160049460405192839161311c60208401809761301f565b51902093849361010061ff0019825416179055565b0155613a4f612c5982600052600f602052604060002090565b60405191829182919060206040840193600181520152565b0390a25b604051918291826138e4565b5050613aab916004613a3692613a94613a8e613854565b89614634565b604051613a218161276b602082019442908661387c565b0390a2613a6b565b50805115156139f6565b613aab916004613a3692613a94613a8e613854565b805461ff0019169055507f6dd2118914ad2b9a98780fafd92846eebe9361998a810f1a05f67033b17e2cdd60405180613aab81906000602060408401938281520152565b7f8117ad48db1a08344670d33acdeb14d7ec953b1119dafa9ab361e5e721d435629250613b636005613b556131fc946000526003602052604060002090565b01805460ff19166001179055565b604051918291826137f8565b80546000918252602080832092905b828210613b8c575050505090565b835485529384019360019384019390910190613b7e565b600660c06103ac93805184556020810151600185015560408101516002850155606081015160038501556080810151600485015560a081015160058501550151151591019060ff801983541691151516179055565b6040906104599392815281602082015201906106d2565b91908151613d8b577f788c5f43c02f6032d8146c17d8b085814337bacff42a64addf4f97ffcebdacff9150613c4e836000526014602052604060002090565b837fe72448dee39249921f3f9c2134dc1ca195a9e3882d4b52e6c3e49c775a4a4311613d788451602086012060048501908155613c95600c8601600160ff19825416179055565b613d6060038601956005875491613cab83612d8f565b6040516020810181613cbd8286613b6f565b0391613cd1601f199384810183528261037e565b5190208754600185015490928c91613d1e91613d2a916001600160a01b0316604080516020810196875260609290921b6bffffffffffffffffffffffff1916908201529283906054820190565b0390810183528261037e565b51902092613d3661039f565b96875260208701524260408701526060860152608085015260a0840152600160c084015201613ba3565b54604080519182526001602083015290918291820190565b0390a2546131fc60405192839283613bf8565b506131fc7f8117ad48db1a08344670d33acdeb14d7ec953b1119dafa9ab361e5e721d4356291604051918291826137f8565b60409081519060209082613dd4838201809361301f565b0392613de8601f199485810183528261037e565b51902092805182810190613e1b81613e0f8460089067657468657265756d60c01b81520190565b0386810183528261037e565b5190208414613f2857805167617262697472756d60c01b83820190815290613e468160088401613e0f565b5190208414613f1e578051676f7074696d69736d60c01b83820190815290613e718160088401613e0f565b5190208414613f15578051636261736560e01b83820190815290613e988160048401613e0f565b5190208414613f0b578051663837b63cb3b7b760c91b83820190815290613ec28160078401613e0f565b5190208414613f0257613eef90519182019282613d1e85600990686176616c616e63686560b81b81520190565b51902014613efc57600190565b61a86a90565b50505050608990565b5050505061210590565b50505050600a90565b5050505061a4b190565b50505050600190565b90613f3b826103e7565b613f48604051918261037e565b82815280926129e3601f19916103e7565b9081518110156122d3570160200190565b8015613fec576000818181805b613fd45750613f8581613f31565b935b613f915750505090565b613f9a9061207d565b90600a90613fbf613faf613155848406612d9d565b60f81b6001600160f81b03191690565b841a613fcb8487613f59565b53049081613f87565b9150613fe1600a91612103565b910480849291613f77565b50604051613ff98161032d565b60018152600360fc1b602082015290565b8151156140175760a00152565b60405163fe936cb760e01b8152600490fd5b604051906140368261032d565b600c82526b31b7b232a637b1b0ba34b7b760a11b6020830152565b634e487b7160e01b600052602160045260246000fd5b6003111561407157565b614051565b604051906140838261032d565b60088252676c616e677561676560c01b6020830152565b6001111561407157565b604051906140b18261032d565b6006825265736f7572636560d01b6020830152565b604051906140d38261032d565b60048252636172677360e01b6020830152565b604051906140f38261032d565b600f82526e39b2b1b932ba39a637b1b0ba34b7b760891b6020830152565b6040519061411e8261032d565b60078252667365637265747360c81b6020830152565b604051906141418261032d565b600982526862797465734172677360b81b6020830152565b614161614809565b9061417361416d614029565b83614859565b614190815161418181614067565b61418a81614067565b8361491b565b61419b61416d614076565b6141b560408201516141ac8161409a565b61418a8161409a565b6141c061416d6140a4565b6141ce606082015183614859565b60a081018051516142ce575b50608081019081515161424e575b60c09150018051516141fb575b50515190565b9161420761416d614134565b614210826149bc565b60005b8351805182101561423b579061423561422e82600194612318565b5185614ad5565b01614213565b5050915061424881614a48565b386141f5565b60208101805161425d81614067565b61426681614067565b156142bc5760c09261429f6142b7926142866142806140e6565b88614859565b5161429081614067565b61429981614067565b8661491b565b6142b06142aa614111565b86614859565b5184614ad5565b6141e8565b60405163a80d31f760e01b8152600490fd5b926142e06142da6140c6565b84614859565b6142e9836149bc565b60005b84518051821015614314579061430e61430782600194612318565b5186614859565b016142ec565b5050925061432182614a48565b386141da565b92906020926001600160401b039263ffffffff614366604051978896879663230e93b160e11b885216600487015260a0602487015260a48601906106d2565b60016044860152921660648401526084830152038160007f00000000000000000000000000000000000000000000000000000000000000006001600160a01b03165af19081156114ab576000916143e2575b50807f1131472297a800fee664d1d89cfa8f7676ff07189ecc53f80bbb5f4969099db8600080a290565b6143fb915060203d6020116114a45761149c818361037e565b386143b8565b6040519063125fa26760e31b6020830152511515602482015260248152606081018181106001600160401b038211176103285760405290565b929091614445612f6d565b9280511561453657836131ae6144e5936144d26131fc966131b39560007f89652d00e157965d54f5ad31af9352416c4e90b879711ec122680d4e3a1de9a69a526000604087015260608601526144bf61449c612fd8565b936144a68c613f6a565b6144af866122c6565b526144b9856122c6565b50613f6a565b6144c8846122d8565b526144b9836122d8565b6144db826122e8565b526131a7816122e8565b926144ef81612dab565b614503856000526004602052604060002090565b5560405191829182919060408352600a6040840152690dcdeecc25ac4c2e8c6d60b31b6060840152602060808401930152565b6040516322ce3edd60e01b8152600490fd5b604051601160f91b6020820152909161458090829061276b9061456e906021840161311c565b65223a7472756560d01b815260060190565b6000905b614591835182519061209b565b821161462c5760019260005b8251811015614622576145ca6145bc6145b68387612dc8565b84613f59565b516001600160f81b03191690565b6145e76145da6145bc8487613f59565b6001600160f81b03191690565b6001600160f81b0319909116036146005760010161459d565b5092509060005b61461a5761461490612103565b90614584565b505050600190565b5092919091614607565b505050600090565b9161467761465a9261466960405194859261311c60208501600190601160f91b81520190565b62111d1160e91b815260030190565b03601f19810184528361037e565b6000905b614688845184519061209b565b82116147cc5760019260005b81518110156147c2576146b36145bc6146ad8387612dc8565b88613f59565b6146c36145da6145bc8486613f59565b6001600160f81b0319909116036146dc57600101614694565b5092509060005b6146f7575b6146f190612103565b9061467b565b90614703835183612dc8565b92835b855181108061479e575b156147235761471e90612103565b614706565b90939291928082116147365750506146e8565b9150925061474c614747828561209b565b613f31565b9160005b61475a838661209b565b811015614795578260018261477e6145bc61477861475a9686612dc8565b8b613f59565b60001a61478b8289613f59565b5301915050614750565b50935050905090565b50601160f91b6001600160f81b03196147ba6145bc848a613f59565b161415614710565b50929190916146e3565b925050506104596128b2565b815115614536576000808252604082015260600152565b604051906147fc8261032d565b6000602083606081520152565b6040516148158161032d565b61481d6147ef565b80825260208201600081526148306147ef565b506101006020830152604051809252600082526101208201918210610439576000916040525290565b815161489d9291906001600160401b03811690601782116148a0576148889150606060ff845192161790614fa3565b505b51906148946147ef565b508051916151d3565b50565b5060ff81116148c5576148bf906148b78351614daa565b50825161515f565b5061488a565b61ffff81116148e4576148bf906148dc8351614d45565b5082516150f1565b63ffffffff8111614905576148bf906148fd8351614ce0565b508251615081565b6148bf906149138351614c70565b50825161500e565b908151916149276147ef565b508251516001810190818111610534576020850151811015614980575b60c260206103ac9651928301015380518211614978575b5050604051916020830152602082526149738261032d565b614ad5565b52388061495b565b8160011b9482860460021483151715610534576020816149b26103ac986149ab60c295519184614b59565b5082614bab565b5096505050614944565b8051906149c76147ef565b508151516001810190818111610534576020840151811015614a15575b609f6020809551928301015380518211614a0d575b505001805190600182018092116105345752565b5238806149f9565b8160011b938285046002148315171561053457602081614a3e82976149ab609f95519184614b59565b50955050506149e4565b805190614a536147ef565b508151516001810190818111610534576020840151811015614aa2575b60ff6020809551928301015380518211614a9a575b50500180516000198101919082116105345752565b523880614a85565b8160011b938285046002148315171561053457602081614acb82976149ab60ff95519184614b59565b5095505050614a70565b815161489d9291906001600160401b0381169060178211614b04576148889150604060ff845192161790614fa3565b5060ff8111614b1b576148bf906148b78351614f3e565b61ffff8111614b32576148bf906148dc8351614ed9565b63ffffffff8111614b4b576148bf906148fd8351614e74565b6148bf906149138351614e0f565b90614b626147ef565b50601f811680614b91575b50806020830152604051908183526000825281016020019081106104395760405290565b602003602081116105345781018091116105345738614b6d565b90614bb46147ef565b50805190614bc06147ef565b50614bce81518311156151cc565b82515191614bdc8184612dc8565b60209260208601518211614c59575b602091865183815197820101968211614c51575b505001915b80821015614c295750600019906020036101000a019081199051169082511617905290565b909192614c45614c3f614c4b9286518152612dba565b94612dba565b9261208c565b90614c04565b523880614bff565b614c6b614c65836123ef565b8761527f565b614beb565b614c786147ef565b508051516001810190818111610534576020830151811015614cb1575b607b60208451928301015380518211614cad57505090565b5290565b8160011b8281046002148315171561053457614cda90614cd385519186614b59565b5084614bab565b50614c95565b614ce86147ef565b508051516001810190818111610534576020830151811015614d1d575b607a60208451928301015380518211614cad57505090565b8160011b8281046002148315171561053457614d3f90614cd385519186614b59565b50614d05565b614d4d6147ef565b508051516001810190818111610534576020830151811015614d82575b607960208451928301015380518211614cad57505090565b8160011b8281046002148315171561053457614da490614cd385519186614b59565b50614d6a565b614db26147ef565b508051516001810190818111610534576020830151811015614de7575b607860208451928301015380518211614cad57505090565b8160011b8281046002148315171561053457614e0990614cd385519186614b59565b50614dcf565b614e176147ef565b508051516001810190818111610534576020830151811015614e4c575b605b60208451928301015380518211614cad57505090565b8160011b8281046002148315171561053457614e6e90614cd385519186614b59565b50614e34565b614e7c6147ef565b508051516001810190818111610534576020830151811015614eb1575b605a60208451928301015380518211614cad57505090565b8160011b8281046002148315171561053457614ed390614cd385519186614b59565b50614e99565b614ee16147ef565b508051516001810190818111610534576020830151811015614f16575b605960208451928301015380518211614cad57505090565b8160011b8281046002148315171561053457614f3890614cd385519186614b59565b50614efe565b614f466147ef565b508051516001810190818111610534576020830151811015614f7b575b605860208451928301015380518211614cad57505090565b8160011b8281046002148315171561053457614f9d90614cd385519186614b59565b50614f63565b90614fac6147ef565b508151516001810191828211610534576020840151821015614fdf575b60208451928301015380518211614cad57505090565b8260011b83810460021484151715610534576150089061500186519187614b59565b5085614bab565b50614fc9565b906150176147ef565b508151518060080191826008116105345760208401518311615059575b6008845192830101906001600160401b031982511617905280518211614cad57505090565b8260011b838104600214841517156105345761507b9061500186519187614b59565b50615034565b9061508a6147ef565b5081515180600401918260041161053457602084015183116150c9575b60048451928301019063ffffffff1982511617905280518211614cad57505090565b8260011b83810460021484151715610534576150eb9061500186519187614b59565b506150a7565b906150fa6147ef565b508151518060020191826002116105345760208401518311615137575b60028451928301019061ffff1982511617905280518211614cad57505090565b8260011b83810460021484151715610534576151599061500186519187614b59565b50615117565b906151686147ef565b5081515180600101918260011161053457602084015183116151a4575b60018451928301019060ff1982511617905280518211614cad57505090565b8260011b83810460021484151715610534576151c69061500186519187614b59565b50615185565b1561043957565b91906151dd6147ef565b506151eb81518311156151cc565b8251519160206151fb8285612dc8565b928193828701518111615268575b865183815197820101968211615260575b505001915b808210156152445750600019906020036101000a019081199051169082511617905290565b909192614c45614c3f61525a9286518152612dba565b9061521f565b52388061521a565b61527a615274826123ef565b8861527f565b615209565b9061489d9161529081519282614b59565b50614bab56fed7b6990105719101dabeb77144f2a3385c8033acd3af97e9423a695e81ad1eb5a2646970667358221220de9eadf14c74c36365ad38d29acf2b2533821e83ceb9d5af1e038fc70591011764736f6c63430008180033",
  "linkReferences": {},
  "deployedLinkReferences": {}
}