{
  "_format": "hh-sol-artifact-1",
  "contractName": "MockLinkToken",
  "sourceName": "contracts/SimpleMocks.sol",
  "abi": [
    {
      "inputs": [],
      "stateMutability": "nonpayable",
      "type": "constructor"
    },
    {
      "anonymous": false,
      "inputs": [
        {
          "indexed": true,
          "internalType": "address",
          "name": "owner",
          "type": "address"
        },
        {
          "indexed": true,
          "internalType": "address",
          "name": "spender",
          "type": "address"
        },
        {
          "indexed": false,
          "internalType": "uint256",
          "name": "value",
          "type": "uint256"
        }
      ],
      "name": "Approval",
      "type": "event"
    },
    {
      "anonymous": false,
      "inputs": [
        {
          "indexed": true,
          "internalType": "address",
          "name": "from",
          "type": "address"
        },
        {
          "indexed": true,
          "internalType": "address",
          "name": "to",
          "type": "address"
        },
        {
          "indexed": false,
          "internalType": "uint256",
          "name": "value",
          "type": "uint256"
        }
      ],
      "name": "Transfer",
      "type": "event"
    },
    {
      "inputs": [
        {
          "internalType": "address",
          "name": "",
          "type": "address"
        },
        {
          "internalType": "address",
          "name": "",
          "type": "address"
        }
      ],
      "name": "allowance",
      "outputs": [
        {
          "internalType": "uint256",
          "name": "",
          "type": "uint256"
        }
      ],
      "stateMutability": "view",
      "type": "function"
    },
    {
      "inputs": [
        {
          "internalType": "address",
          "name": "spender",
          "type": "address"
        },
        {
          "internalType": "uint256",
          "name": "value",
          "type": "uint256"
        }
      ],
      "name": "approve",
      "outputs": [
        {
          "internalType": "bool",
          "name": "",
          "type": "bool"
        }
      ],
      "stateMutability": "nonpayable",
      "type": "function"
    },
    {
      "inputs": [
        {
          "internalType": "address",
          "name": "",
          "type": "address"
        }
      ],
      "name": "balanceOf",
      "outputs": [
        {
          "internalType": "uint256",
          "name": "",
          "type": "uint256"
        }
      ],
      "stateMutability": "view",
      "type": "function"
    },
    {
      "inputs": [],
      "name": "decimals",
      "outputs": [
        {
          "internalType": "uint8",
          "name": "",
          "type": "uint8"
        }
      ],
      "stateMutability": "view",
      "type": "function"
    },
    {
      "inputs": [
        {
          "internalType": "address",
          "name": "to",
          "type": "address"
        },
        {
          "internalType": "uint256",
          "name": "amount",
          "type": "uint256"
        }
      ],
      "name": "mint",
      "outputs": [],
      "stateMutability": "nonpayable",
      "type": "function"
    },
    {
      "inputs": [],
      "name": "name",
      "outputs": [
        {
          "internalType": "string",
          "name": "",
          "type": "string"
        }
      ],
      "stateMutability": "view",
      "type": "function"
    },
    {
      "inputs": [],
      "name": "symbol",
      "outputs": [
        {
          "internalType": "string",
          "name": "",
          "type": "string"
        }
      ],
      "stateMutability": "view",
      "type": "function"
    },
    {
      "inputs": [],
      "name": "totalSupply",
      "outputs": [
        {
          "internalType": "uint256",
          "name": "",
          "type": "uint256"
        }
      ],
      "stateMutability": "view",
      "type": "function"
    },
    {
      "inputs": [
        {
          "internalType": "address",
          "name": "to",
          "type": "address"
        },
        {
          "internalType": "uint256",
          "name": "value",
          "type": "uint256"
        }
      ],
      "name": "transfer",
      "outputs": [
        {
          "internalType": "bool",
          "name": "",
          "type": "bool"
        }
      ],
      "stateMutability": "nonpayable",
      "type": "function"
    }
  ],
  "bytecode": "0x6080604052346101125760006100158154610117565b601f81116100e8575b507f436861696e4c696e6b20546f6b656e000000000000000000000000000000001e81556001805461004f90610117565b601f81116100a1575b826008634c494e4b60e01b01600155601260ff19600254161760025560406b033b2e3c9fd0803ce80000009182600355338152600460205220556040516105e990816101528239f35b60018352601f0160051c7fb10e2d527612073b26eecdfd717e6a320cf44b4afac2b0732d9fcbe2b7fa0cf6908101905b8181106100de5750610058565b83815582016100d1565b818052601f60208320910160051c8101905b818110610107575061001e565b8281556001016100fa565b600080fd5b90600182811c92168015610147575b602083101461013157565b634e487b7160e01b600052602260045260246000fd5b91607f169161012656fe608060408181526004918236101561001657600080fd5b600092833560e01c91826306fdde031461045457508163095ea7b3146103e357816318160ddd146103c4578163313ce567146103a25783826340c10f19146103255750816370a08231146102ef57816395d89b41146101cc578163a9059cbb146100e0575063dd62ed3e1461008a57600080fd5b346100dc57806003193601126100dc576100a2610575565b6001600160a01b0360243581811692908390036100d8579160209491849316825260058552828220908252845220549051908152f35b8480fd5b5080fd5b9050346101c857816003193601126101c8576100fa610575565b926024359033815260209483865282858320541061018e5733825283865284822080549084820391821161017b57556001600160a01b03168082529285528390208054610148908390610590565b905582519081527fddf252ad1be2c89b69c2b068fc378daa952ba7f163c4a11628f55a4df523b3ef843392a35160018152f35b634e487b7160e01b845260118652602484fd5b845162461bcd60e51b81528085018790526014602482015273496e73756666696369656e742062616c616e636560601b6044820152606490fd5b8280fd5b8383346100dc57816003193601126100dc578051908260018054908160011c90600183169283156102e5575b60209384841081146102d2578388529081156102b65750600114610260575b505050829003601f01601f191682019267ffffffffffffffff84118385101761024d575082918261024992528261052c565b0390f35b634e487b7160e01b815260418552602490fd5b600187529192508591837fb10e2d527612073b26eecdfd717e6a320cf44b4afac2b0732d9fcbe2b7fa0cf65b8385106102a25750505050830101858080610217565b80548886018301529301928490820161028c565b60ff1916878501525050151560051b8401019050858080610217565b634e487b7160e01b895260228a52602489fd5b91607f16916101f8565b9050346101c85760203660031901126101c85760209282916001600160a01b03610317610575565b168252845220549051908152f35b915091346100dc57806003193601126100dc5760207fddf252ad1be2c89b69c2b068fc378daa952ba7f163c4a11628f55a4df523b3ef91610364610575565b6001600160a01b03168085529482528084208054602435929190610389908490610590565b905561039782600354610590565b60035551908152a380f35b5050346100dc57816003193601126100dc5760209060ff600254169051908152f35b5050346100dc57816003193601126100dc576020906003549051908152f35b5050346100dc57806003193601126100dc5760209181610401610575565b91602435918291338152600587528181209460018060a01b0316948582528752205582519081527f8c5be1e5ebec7d5bd14f71427d1e84f3dd0314c0f7b2291e5b200ac8c7c3b925843392a35160018152f35b849084346101c857826003193601126101c85782835460018160011c9060018316928315610522575b60209384841081146102d2578388529081156102b657506001146104cd57505050829003601f01601f191682019267ffffffffffffffff84118385101761024d575082918261024992528261052c565b8680529192508591837f290decd9548b62a8d60345a988386fc84ba6bc95484008f6362f93160ef3e5635b83851061050e5750505050830101858080610217565b8054888601830152930192849082016104f8565b91607f169161047d565b6020808252825181830181905290939260005b82811061056157505060409293506000838284010152601f8019910116010190565b81810186015184820160400152850161053f565b600435906001600160a01b038216820361058b57565b600080fd5b9190820180921161059d57565b634e487b7160e01b600052601160045260246000fdfea2646970667358221220f207e08575e55397df20dd3e3287aad2a3e1aedbc90b38728de806af9111d06f64736f6c63430008180033",
  "linkReferences": {},
  "deployedLinkReferences": {}
}