{
  "_format": "hh-sol-artifact-1",
  "contractName": "MockAutomationRegistry",
  "sourceName": "contracts/SimpleMocks.sol",
  "abi": [
    {
      "anonymous": false,
      "inputs": [
        {
          "indexed": true,
          "internalType": "uint256",
          "name": "id",
          "type": "uint256"
        },
        {
          "indexed": true,
          "internalType": "address",
          "name": "target",
          "type": "address"
        }
      ],
      "name": "UpkeepRegistered",
      "type": "event"
    },
    {
      "inputs": [],
      "name": "nextUpkeepId",
      "outputs": [
        {
          "internalType": "uint256",
          "name": "",
          "type": "uint256"
        }
      ],
      "stateMutability": "view",
      "type": "function"
    },
    {
      "inputs": [
        {
          "internalType": "uint256",
          "name": "id",
          "type": "uint256"
        },
        {
          "internalType": "bytes",
          "name": "performData",
          "type": "bytes"
        }
      ],
      "name": "performUpkeep",
      "outputs": [],
      "stateMutability": "nonpayable",
      "type": "function"
    },
    {
      "inputs": [
        {
          "internalType": "address",
          "name": "target",
          "type": "address"
        },
        {
          "internalType": "uint32",
          "name": "gasLimit",
          "type": "uint32"
        },
        {
          "internalType": "address",
          "name": "admin",
          "type": "address"
        },
        {
          "internalType": "bytes",
          "name": "checkData",
          "type": "bytes"
        },
        {
          "internalType": "bytes",
          "name": "offchainConfig",
          "type": "bytes"
        }
      ],
      "name": "registerUpkeep",
      "outputs": [
        {
          "internalType": "uint256",
          "name": "id",
          "type": "uint256"
        }
      ],
      "stateMutability": "nonpayable",
      "type": "function"
    },
    {
      "inputs": [
        {
          "internalType": "uint256",
          "name": "",
          "type": "uint256"
        }
      ],
      "name": "upkeeps",
      "outputs": [
        {
          "internalType": "address",
          "name": "target",
          "type": "address"
        },
        {
          "internalType": "uint32",
          "name": "executeGas",
          "type": "uint32"
        },
        {
          "internalType": "bytes",
          "name": "checkData",
          "type": "bytes"
        },
        {
          "internalType": "bool",
          "name": "paused",
          "type": "bool"
        }
      ],
      "stateMutability": "view",
      "type": "function"
    }
  ],
  "bytecode": "0x6080806040523461001a576001805561071e90816100208239f35b600080fdfe60806040908082526004918236101561001757600080fd5b600091823560e01c9081636ded9eae14610344575080637b748b6b146103265780637bbaf1ea146101a257638be592181461005157600080fd5b3461019e576020928360031936011261019a573582528183528082209182549360a093600190600181018551928391869181549161008e8361065a565b9283865288600182169182600014610174575050600114610137575b505050600263ffffffff999795936100cb60809460ff949997990389610694565b01541693805198899760018060a01b038116895260a01c168388015286015283519384608087015282965b85881061011f5750505060a0809550838501015215156060830152601f80199101168101030190f35b878201830151898901820152968201968896506100f6565b8852868820879350889291905b82841061015c57505050820101826100cb60ff6100aa565b80548489018601528795508894909301928101610144565b60ff19168188015293151560051b860190930193508592506100cb915060ff90506100aa565b8280fd5b5080fd5b5082903461019a578060031936011261019a5760243567ffffffffffffffff8111610322576101d49036908401610627565b83358552602085815283862080549194936001600160a01b03909216929083156102ec576002015460ff166102b95791869291838093610250606488518381948c830197634585e33b60e01b89528d60248501528160448501528484013785838284010152601f80199101168101036044810184520182610694565b51925af13d156102b4573d610264816106cc565b9061027184519283610694565b815285843d92013e5b15610283578380f35b5162461bcd60e51b815291820152600d60248201526c155c1ad9595c0819985a5b1959609a1b604482015260649150fd5b61027a565b835162461bcd60e51b8152808701869052600d60248201526c155c1ad9595c081c185d5cd959609a1b6044820152606490fd5b845162461bcd60e51b8152808801879052601060248201526f155c1ad9595c081b9bdd08199bdd5b9960821b6044820152606490fd5b8380fd5b503461019e578160031936011261019e576020906001549051908152f35b905082843461019e5760a036600319011261019e5780356001600160a01b0381811691829003610322576024359563ffffffff871680970361062357604435828116036106235767ffffffffffffffff9160643583811161061f576103ac9036908701610627565b97909360843581811161061b576103c69036908901610627565b50506001998a549760001991828a14610608578c8a018d5560808501858110858211176105f557875288855260209b8c8601918252610404816106cc565b9861041189519a8b610694565b818a5236828201116105f157818d928f92838d01378a01015286850197885260608501958b87528a8c528b8d52878c2095511685549163ffffffff60a01b905160a01b169167ffffffffffffffff60c01b16171784558b840196519081519384116105de5750610481875461065a565b601f811161059c575b509a899a9b899a99979899508c908c601f861160011461050a5794809381937fb2b260d8dc5d3268f11a016e359df280f36fa8e36b1550c67cd956bed4ae775d9b9c969360029998956104ff575b50501b9260031b1c19161790555b019051151560ff80198354169116179055519480a38152f35b0151935038806104d8565b92949391908e601f198616908c865280862095905b828210610582575050918593917fb2b260d8dc5d3268f11a016e359df280f36fa8e36b1550c67cd956bed4ae775d9b9c966002999896941061056a575b50505050811b0190556104e6565b01519060f88460031b161c191690558d80808061055c565b8385015187558f9c5095880195938401939081019061051f565b878b528b8b20601f850160051c8101918d86106105d4575b601f0160051c01905b8181106105ca575061048a565b8b81558d016105bd565b90915081906105b4565b634e487b7160e01b8b526041905260248afd5b8c80fd5b634e487b7160e01b8c526041835260248cfd5b634e487b7160e01b8b526011825260248bfd5b8880fd5b8680fd5b8480fd5b9181601f840112156106555782359167ffffffffffffffff8311610655576020838186019501011161065557565b600080fd5b90600182811c9216801561068a575b602083101461067457565b634e487b7160e01b600052602260045260246000fd5b91607f1691610669565b90601f8019910116810190811067ffffffffffffffff8211176106b657604052565b634e487b7160e01b600052604160045260246000fd5b67ffffffffffffffff81116106b657601f01601f19166020019056fea26469706673582212202574b6e9bfa75b806f21670044860581eec74721d8e77b7e2a04c5f3dd8478b364736f6c63430008180033",
  "linkReferences": {},
  "deployedLinkReferences": {}
}