{
  "_format": "hh-sol-artifact-1",
  "contractName": "MockCCIPRouter",
  "sourceName": "contracts/SimpleMocks.sol",
  "abi": [
    {
      "anonymous": false,
      "inputs": [
        {
          "indexed": true,
          "internalType": "bytes32",
          "name": "messageId",
          "type": "bytes32"
        },
        {
          "indexed": true,
          "internalType": "uint64",
          "name": "destChainSelector",
          "type": "uint64"
        }
      ],
      "name": "MessageSent",
      "type": "event"
    },
    {
      "inputs": [
        {
          "internalType": "uint64",
          "name": "destChainSelector",
          "type": "uint64"
        },
        {
          "internalType": "bytes",
          "name": "message",
          "type": "bytes"
        }
      ],
      "name": "ccipSend",
      "outputs": [
        {
          "internalType": "bytes32",
          "name": "messageId",
          "type": "bytes32"
        }
      ],
      "stateMutability": "payable",
      "type": "function"
    },
    {
      "inputs": [
        {
          "internalType": "uint64",
          "name": "destChainSelector",
          "type": "uint64"
        },
        {
          "internalType": "bytes",
          "name": "message",
          "type": "bytes"
        }
      ],
      "name": "getFee",
      "outputs": [
        {
          "internalType": "uint256",
          "name": "fee",
          "type": "uint256"
        }
      ],
      "stateMutability": "pure",
      "type": "function"
    },
    {
      "inputs": [
        {
          "internalType": "bytes32",
          "name": "",
          "type": "bytes32"
        }
      ],
      "name": "messageToChain",
      "outputs": [
        {
          "internalType": "uint64",
          "name": "",
          "type": "uint64"
        }
      ],
      "stateMutability": "view",
      "type": "function"
    },
    {
      "inputs": [],
      "name": "nextMessageId",
      "outputs": [
        {
          "internalType": "uint256",
          "name": "",
          "type": "uint256"
        }
      ],
      "stateMutability": "view",
      "type": "function"
    }
  ],
  "bytecode": "0x6080806040523461001a57600180556102a290816100208239f35b600080fdfe608060408181526004918236101561001657600080fd5b600092833560e01c9182632af8b511146101965750816386fa67e0146101415781639724418614610072575063eefbf17e1461005157600080fd5b3461006e578160031936011261006e576020906001549051908152f35b5080fd5b828461007d366101c7565b5060015492600019841461012e57600184016001558051926020840194428652828501523360601b606085015260548452608084019467ffffffffffffffff948087108688111761011b5760209750907f3d268d705c99ec99e84748365f374dea1d745080faad9ddfa8c2715d20b50cb0929187855251902094859384835282895282209416938467ffffffffffffffff1982541617905580a38152f35b634e487b7160e01b835260418852602483fd5b634e487b7160e01b835260118552602483fd5b83833461006e57610151366101c7565b516103e880820294925081159185041417156101835766038d7ea4c68000928301809311610183576020838351908152f35b634e487b7160e01b815260118452602490fd5b929150346101c35760203660031901126101c357358352602083815292205467ffffffffffffffff168152f35b8380fd5b9060406003198301126102515767ffffffffffffffff600435818116810361025157926024358281116102515781602382011215610251578060040135918383116102565760405193601f8401601f19908116603f011685019081118582101761025657604052828452602483830101116102515781600092602460209301838601378301015290565b600080fd5b634e487b7160e01b600052604160045260246000fdfea26469706673582212204c5df74c11a5661694bb9a530b88a070ae3c6c3cc0fae649565d2d5c3644ad2d64736f6c63430008180033",
  "linkReferences": {},
  "deployedLinkReferences": {}
}