{
  "_format": "hh-sol-artifact-1",
  "contractName": "MockVRFCoordinatorV2",
  "sourceName": "contracts/SimpleMocks.sol",
  "abi": [
    {
      "anonymous": false,
      "inputs": [
        {
          "indexed": true,
          "internalType": "uint256",
          "name": "requestId",
          "type": "uint256"
        },
        {
          "indexed": true,
          "internalType": "address",
          "name": "requester",
          "type": "address"
        }
      ],
      "name": "RandomWordsRequested",
      "type": "event"
    },
    {
      "inputs": [
        {
          "internalType": "uint256",
          "name": "requestId",
          "type": "uint256"
        },
        {
          "internalType": "uint256[]",
          "name": "randomWords",
          "type": "uint256[]"
        }
      ],
      "name": "fulfillRandomWords",
      "outputs": [],
      "stateMutability": "nonpayable",
      "type": "function"
    },
    {
      "inputs": [
        {
          "components": [
            {
              "internalType": "bytes32",
              "name": "keyHash",
              "type": "bytes32"
            },
            {
              "internalType": "uint256",
              "name": "subId",
              "type": "uint256"
            },
            {
              "internalType": "uint16",
              "name": "requestConfirmations",
              "type": "uint16"
            },
            {
              "internalType": "uint32",
              "name": "callbackGasLimit",
              "type": "uint32"
            },
            {
              "internalType": "uint32",
              "name": "numWords",
              "type": "uint32"
            },
            {
              "internalType": "bytes",
              "name": "extraArgs",
              "type": "bytes"
            }
          ],
          "internalType": "struct MockVRFCoordinatorV2.RandomWordsRequest",
          "name": "req",
          "type": "tuple"
        }
      ],
      "name": "requestRandomWords",
      "outputs": [
        {
          "internalType": "uint256",
          "name": "requestId",
          "type": "uint256"
        }
      ],
      "stateMutability": "nonpayable",
      "type": "function"
    },
    {
      "inputs": [
        {
          "internalType": "uint256",
          "name": "",
          "type": "uint256"
        }
      ],
      "name": "requestToSender",
      "outputs": [
        {
          "internalType": "address",
          "name": "",
          "type": "address"
        }
      ],
      "stateMutability": "view",
      "type": "function"
    }
  ],
  "bytecode": "0x6080806040523461001b57600160005561038b90816100218239f35b600080fdfe6080604081815260048036101561001557600080fd5b600092833560e01c90816338ba461414610129575080639b1c385e146100795763b678647a1461004457600080fd5b346100755760203660031901126100755735825260016020908152918190205490516001600160a01b039091168152f35b8280fd5b509190346101215760031960203682011261007557833567ffffffffffffffff8111610125579060c0913603011261012157815490600019821461010e576020935060018201835581835260018452808320336bffffffffffffffffffffffff60a01b8254161790555191817f5afc92f47019f6f981dbe48fba0d8bc10298b161505d2ead5ad4b975bfde77f4339280a38152f35b634e487b7160e01b835260118452602483fd5b5080fd5b8380fd5b849391503461012557816003193601126101255760249167ffffffffffffffff843584358281116103195736602382011215610319578087013594838611610307578560051b9160209661017f8885018461031d565b8252868201888194830101913683116103035789899101915b8383106102f357505050838a52506001808752858a20546001600160a01b0316929083156102bc579290918a9287519586958a870193631fe543e360e01b855260648801928d8901528a604489015251809252608487019291865b8c82821061029a575050505050839484910395610218601f199788810183528261031d565b51925af1913d15610293573d9081116102815761023e85855193601f840116018361031d565b815286843d92013e5b15610250578480f35b5162461bcd60e51b815292830152600f908201526e10d85b1b189858dac819985a5b1959608a1b6044820152606490fd5b634e487b7160e01b8852604187528588fd5b5050610247565b919484839295989a5084979950518152019501910192879694928e96946101f3565b865162461bcd60e51b8152808b018990526012818b015271125b9d985b1a59081c995c5d595cdd08125160721b6044820152606490fd5b8235815291810191899101610198565b8b80fd5b634e487b7160e01b8952604188528689fd5b8780fd5b90601f8019910116810190811067ffffffffffffffff82111761033f57604052565b634e487b7160e01b600052604160045260246000fdfea2646970667358221220af222a9344240a4be1d19dbad8daa67486680f0cf0714b8b2f572eafc3bc77af64736f6c63430008180033",
  "linkReferences": {},
  "deployedLinkReferences": {}
}