{
  "_format": "hh-sol-artifact-1",
  "contractName": "MockFunctionsRouter",
  "sourceName": "contracts/SimpleMocks.sol",
  "abi": [
    {
      "anonymous": false,
      "inputs": [
        {
          "indexed": true,
          "internalType": "bytes32",
          "name": "requestId",
          "type": "bytes32"
        },
        {
          "indexed": true,
          "internalType": "address",
          "name": "requester",
          "type": "address"
        }
      ],
      "name": "RequestSent",
      "type": "event"
    },
    {
      "inputs": [
        {
          "internalType": "bytes32",
          "name": "requestId",
          "type": "bytes32"
        },
        {
          "internalType": "bytes",
          "name": "response",
          "type": "bytes"
        },
        {
          "internalType": "bytes",
          "name": "err",
          "type": "bytes"
        }
      ],
      "name": "fulfillRequest",
      "outputs": [],
      "stateMutability": "nonpayable",
      "type": "function"
    },
    {
      "inputs": [
        {
          "internalType": "bytes32",
          "name": "",
          "type": "bytes32"
        }
      ],
      "name": "requestToSender",
      "outputs": [
        {
          "internalType": "address",
          "name": "",
          "type": "address"
        }
      ],
      "stateMutability": "view",
      "type": "function"
    },
    {
      "inputs": [
        {
          "internalType": "uint64",
          "name": "subscriptionId",
          "type": "uint64"
        },
        {
          "internalType": "bytes",
          "name": "data",
          "type": "bytes"
        },
        {
          "internalType": "uint16",
          "name": "dataVersion",
          "type": "uint16"
        },
        {
          "internalType": "uint32",
          "name": "callbackGasLimit",
          "type": "uint32"
        },
        {
          "internalType": "bytes32",
          "name": "donId",
          "type": "bytes32"
        }
      ],
      "name": "sendRequest",
      "outputs": [
        {
          "internalType": "bytes32",
          "name": "requestId",
          "type": "bytes32"
        }
      ],
      "stateMutability": "nonpayable",
      "type": "function"
    }
  ],
  "bytecode": "0x60808060405234610016576103fb908161001c8239f35b600080fdfe60806040908082526004918236101561001757600080fd5b600091823560e01c908163274ac0c3146102b65750806339b05122146101475763461d27621461004657600080fd5b346101435760a03660031901126101435767ffffffffffffffff9280358481160361013b576024359084821161013f573660238301121561013f5781013593841161013b57366024858301011161013b5760443561ffff81160361013b5760643563ffffffff81160361013b576020936100eb6054845183819460248a8401974289523360601b8a8601520184840137810187838201520360348101845201826102e5565b51902090818352828452808320336bffffffffffffffffffffffff60a01b8254161790555191817f91f0d67c2f27abd6cfc317e120d5e80b31e97b9926b65d3887e59402fb20adfb339280a38152f35b8280fd5b8380fd5b5080fd5b5082903461013b57606036600319011261013b5767ffffffffffffffff82356024358281116102b25761017d9036908601610339565b916044359081116102b2576101959036908601610339565b8186526020869052838620546001600160a01b03169290831561027a5791866101ec61020c8296946101fe84978a51948593602085019863871dad5960e01b8a526024860152606060448601526084850190610385565b83810360231901606485015290610385565b03601f1981018352826102e5565b51925af13d15610275573d6102208161031d565b9061022d845192836102e5565b81528460203d92013e5b15610240578280f35b906020606492519162461bcd60e51b8352820152600f60248201526e10d85b1b189858dac819985a5b1959608a1b6044820152fd5b610237565b845162461bcd60e51b81526020818801526012602482015271125b9d985b1a59081c995c5d595cdd08125160721b6044820152606490fd5b8580fd5b929190503461014357602036600319011261014357923581526020818152929020546001600160a01b03168152f35b90601f8019910116810190811067ffffffffffffffff82111761030757604052565b634e487b7160e01b600052604160045260246000fd5b67ffffffffffffffff811161030757601f01601f191660200190565b81601f82011215610380578035906103508261031d565b9261035e60405194856102e5565b8284526020838301011161038057816000926020809301838601378301015290565b600080fd5b919082519283825260005b8481106103b1575050826000602080949584010152601f8019910116010190565b60208183018101518483018201520161039056fea26469706673582212204bec22a0ba8525f3cf9bd019fc4888129435bc87a4d000d07534425b33ebbefa64736f6c63430008180033",
  "linkReferences": {},
  "deployedLinkReferences": {}
}