{
  "_format": "hh-sol-artifact-1",
  "contractName": "Groth16Verifier",
  "sourceName": "contracts/Groth16Verifier.sol",
  "abi": [
    {
      "inputs": [],
      "stateMutability": "nonpayable",
      "type": "constructor"
    },
    {
      "anonymous": false,
      "inputs": [],
      "name": "VerifyingKeyChanged",
      "type": "event"
    },
    {
      "inputs": [
        {
          "internalType": "uint256[2]",
          "name": "a",
          "type": "uint256[2]"
        },
        {
          "internalType": "uint256[2][2]",
          "name": "b",
          "type": "uint256[2][2]"
        },
        {
          "internalType": "uint256[2]",
          "name": "c",
          "type": "uint256[2]"
        },
        {
          "internalType": "uint256[]",
          "name": "input",
          "type": "uint256[]"
        }
      ],
      "name": "verifyProof",
      "outputs": [
        {
          "internalType": "bool",
          "name": "",
          "type": "bool"
        }
      ],
      "stateMutability": "view",
      "type": "function"
    },
    {
      "inputs": [
        {
          "components": [
            {
              "components": [
                {
                  "internalType": "uint256",
                  "name": "x",
                  "type": "uint256"
                },
                {
                  "internalType": "uint256",
                  "name": "y",
                  "type": "uint256"
                }
              ],
              "internalType": "struct Pairing.G1Point",
              "name": "a",
              "type": "tuple"
            },
            {
              "components": [
                {
                  "internalType": "uint256[2]",
                  "name": "x",
                  "type": "uint256[2]"
                },
                {
                  "internalType": "uint256[2]",
                  "name": "y",
                  "type": "uint256[2]"
                }
              ],
              "internalType": "struct Pairing.G2Point",
              "name": "b",
              "type": "tuple"
            },
            {
              "components": [
                {
                  "internalType": "uint256",
                  "name": "x",
                  "type": "uint256"
                },
                {
                  "internalType": "uint256",
                  "name": "y",
                  "type": "uint256"
                }
              ],
              "internalType": "struct Pairing.G1Point",
              "name": "c",
              "type": "tuple"
            }
          ],
          "internalType": "struct Groth16Verifier.Proof",
          "name": "proof",
          "type": "tuple"
        },
        {
          "internalType": "uint256[]",
          "name": "input",
          "type": "uint256[]"
        }
      ],
      "name": "verifyTx",
      "outputs": [
        {
          "internalType": "bool",
          "name": "",
          "type": "bool"
        }
      ],
      "stateMutability": "view",
      "type": "function"
    }
  ],
  "bytecode": "0x60806040523462000532576200001462000537565b7f2d4d9aa7e302d9df41749d5507949d05dbea33fbb16c643b22f599a2be6df2e28082527f14bedd503c37ceb061d8ec60209fe345ce89830a19230301f076caff004d19269182602080920152600091825560019283556200007562000537565b7f0967032fcbf776d1afc985f88877f182d38480a653f2decaa9794cbc3bf3060c81527f0e187847ad4c798374d0d6732bf501847dd68bc0e071241e0213bc7fc13db7ab82820152620000c762000537565b907f304cfbd1e08a704a99f5e847d93f8c3caafddec46b7a0d379da69a4d112346a782527f1739c1b1a457a8c7313123d24d2f9192f896b7c63eea05a9d57f06547ad0cec88383015281836200011c62000537565b83815201529184845b60029485821015620001435781848251920196015501859062000125565b8284888783825b600281106200051e575050506200016062000537565b7f198e9393920d483a7260bfb731fb5d25f1aa493335a9e71297e485b7aef312c281527f1800deef121f1e76426a00665e5c4479674322d4f75edadd46debd5cd992f6ed83820152620001b262000537565b907f090689d0585ff075ec9e99ad690c3395bc4b313370b38ef355acdadcd122975b82527f12c85ea5db8c6deb4aab71808dcb408fe3d1e7690c43d37b4ce6cc0166fa7daa8483015281846200020762000537565b838152015284835b600281106200050a5750505083825b60028110620004f6575050506200023462000537565b7f260e01b251f6f1c7e7ff4e580791dee8ea51d87a358e038b4efe30fac09383c181527f0118c4d5b837bcc2bc89b5b398b5974e9f5944073b32078b7e231fec938883b0838201526200028662000537565b907f04fc6369f7110fe3d25156c1bb9a72859cf2a04641f99ba4ee413c80da6a5fe482527f22febda3c0c0632a56475b4214e5615e11e6dd3f96e6cea2854a87d4dacc5e55848301528184620002db62000537565b838152015284835b60028110620004e257505050905b60028110620004cf57620004bf836200035b6200030d62000537565b7f1f39f65dc48c11e29a9b88f2b85b35bf4ed1e3b95b4a5f1a8d2e3f4a5b6c7d8e81527f2a4b5c6d7e8f9a0b1c2d3e4f5a6b7c8d9e0f1a2b3c4d5e6f7a8b9c0d1e2f3a4b838201526200056d565b620003b56200036962000537565b7e5c7d8e9f0a1b2c3d4e5f6a7b8c9d0e1f2a3b4c5d6e7f8a9b0c1d2e3f4a5b6c81527e7d8e9f0a1b2c3d4e5f6a7b8c9d0e1f2a3b4c5d6e7f8a9b0c1d2e3f4a5b6c7d838201526200056d565b6200040f620003c362000537565b7e9f0a1b2c3d4e5f6a7b8c9d0e1f2a3b4c5d6e7f8a9b0c1d2e3f4a5b6c7d8e9f81527e1a2b3c4d5e6f7a8b9c0d1e2f3a4b5c6d7e8f9a0b1c2d3e4f5a6b7c8d9e0f1a838201526200056d565b620004696200041d62000537565b7e3b4c5d6e7f8a9b0c1d2e3f4a5b6c7d8e9f0a1b2c3d4e5f6a7b8c9d0e1f2a3b81527e5d6e7f8a9b0c1d2e3f4a5b6c7d8e9f0a1b2c3d4e5f6a7b8c9d0e1f2a3b4c5d838201526200056d565b7e9a0b1c2d3e4f5a6b7c8d9e0f1a2b3c4d5e6f7a8b9c0d1e2f3a4b5c6d7e8f9a6200049362000537565b917e7f8a9b0c1d2e3f4a5b6c7d8e9f0a1b2c3d4e5f6a7b8c9d0e1f2a3b4c5d6e7f83528201526200056d565b604051610dcf9081620005c78239f35b8151600c820155908201908301620002f1565b85835193019281600a0155018590620002e3565b84835193019281600801550184906200021e565b85835193019281600601550185906200020f565b84835193019281600401550184906200014a565b600080fd5b60408051919082016001600160401b038111838210176200055757604052565b634e487b7160e01b600052604160045260246000fd5b600e546801000000000000000081101562000557576001810180600e55811015620005b0576020600191600e6000528160002090831b0192805184550151910155565b634e487b7160e01b600052603260045260246000fdfe60406080604052600436101561001457600080fd5b600090813560e01c918263c32e370e1461003e57505063c94176471461003957600080fd5b6103bb565b346100d9576101203660031901126100d957610059366101a1565b9136606312156100f9576040519061007082610113565b60c4823682116100f5576044905b8282106100dc5750505050610092366101e8565b91610104359067ffffffffffffffff82116100d9576100d56100c38686866100bd366004890161030b565b92610588565b60405190151581529081906020820190565b0390f35b80fd5b602084916100ea36856102ae565b81520191019061007e565b8480fd5b5080fd5b634e487b7160e01b600052604160045260246000fd5b6040810190811067ffffffffffffffff82111761012f57604052565b6100fd565b6060810190811067ffffffffffffffff82111761012f57604052565b90601f8019910116810190811067ffffffffffffffff82111761012f57604052565b6040519061017f82610113565b565b604051906080820182811067ffffffffffffffff82111761012f57604052565b80602312156101e357604051906101b782610113565b816044916044116101e3576004905b8282106101d35750505090565b81358152602091820191016101c6565b600080fd5b8060e312156101e357604051906101fe82610113565b816101049182116101e35760c4905b82821061021a5750505090565b813581526020918201910161020d565b80606312156101e3576040519061024082610113565b816084916084116101e3576044905b82821061025c5750505090565b813581526020918201910161024f565b8060a312156101e3576040519061028282610113565b8160c49160c4116101e3576084905b82821061029e5750505090565b8135815260209182019101610291565b9080601f830112156101e357604051916102c783610113565b8290604081019283116101e357905b8282106102e35750505090565b81358152602091820191016102d6565b67ffffffffffffffff811161012f5760051b60200190565b9080601f830112156101e3576020908235610325816102f3565b936103336040519586610150565b81855260208086019260051b8201019283116101e357602001905b82821061035c575050505090565b8135815290830190830161034e565b60409060031901126101e3576040519061038482610113565b60043582526024356020830152565b60409060c31901126101e357604051906103ac82610113565b60c435825260e4356020830152565b346101e357366003190161012081126101e357610100136101e3576040516103e281610134565b6103eb3661036b565b815260803660431901126101e35760405161040581610113565b61040e3661022a565b81526104193661026c565b6020820152602082015261042c36610393565b60408201526101043567ffffffffffffffff81116101e3576100d5916104596100c392369060040161030b565b9061091b565b6040519061046c82610113565b60006020838281520152565b604051906020820182811067ffffffffffffffff82111761012f576040526020368337565b60409081516104ab81610134565b80926104b561045f565b825280516104c281610113565b81516104cd81610113565b82368237815281516104de81610113565b82368237602082015260208301526104f461045f565b910152565b634e487b7160e01b600052603260045260246000fd5b60405190610320820182811067ffffffffffffffff82111761012f5760405260188252610300366020840137565b90610547826102f3565b6105546040519182610150565b8281528092610565601f19916102f3565b0190602036910137565b80518210156105835760209160051b010190565b6104f9565b939190929361059561049d565b9381516020809301516105a6610172565b9182528382015285526105b7610172565b9080515182526105c8815160200190565b51838301526105e7836105d9610172565b920180515183525160200190565b51838201526105f4610172565b91825282820152818501528082519201519061060e610172565b9283528201526040830152610623835161053d565b9060005b845181101561064f578061063d6001928761056f565b51610648828661056f565b5201610627565b50925061065b9161091b565b90565b634e487b7160e01b600052601160045260246000fd5b906001820180921161068257565b61065e565b906002820180921161068257565b906003820180921161068257565b906004820180921161068257565b906005820180921161068257565b156106c657565b60405162461bcd60e51b815260206004820152600f60248201526e496e70757420746f6f206c6172676560881b6044820152606490fd5b600e5481101561058357600e60005260011b7fbb7b4a454dc3493923482f07822329ed19e8244eff582cc204f8554c3620c3fd0190600090565b600e541561058357600e6000527fbb7b4a454dc3493923482f07822329ed19e8244eff582cc204f8554c3620c3fd90600090565b6040519061077882610113565b60005482526001546020830152565b9060405161079481610113565b602060018294805484520154910152565b604051906107b282610113565b6040516002908390826000825b85821061080f575050506107d281610113565b81526040519160006004845b8383106107f957505050506020906107f583610113565b0152565b60016020819284548152019201920191906107de565b60016020819285548152019301910190916107bf565b6040519061083282610113565b604051829060066000825b6002821061088a5750505061085181610113565b81526040519060086000835b60028210610874575050506020906107f583610113565b600160208192855481520193019101909161085d565b600160208192855481520193019101909161083d565b604051906108ad82610113565b6040518290600a6000825b60028210610905575050506108cc81610113565b815260405190600c6000835b600282106108ef575050506020906107f583610113565b60016020819285548152019301910190916108d8565b60016020819285548152019301910190916108b8565b91906109278151610674565b600e5403610a2257610937610172565b6000815260006020820152916000925b82518410156109c7576109bf60019161098b7f30644e72e131a029b85045b68181585d2833e84879b9709143e1f593f0000001610984888861056f565b51106106bf565b6109b961099f61099a88610674565b6106fd565b506109b46109ad898961056f565b5191610787565b610a29565b90610abd565b930192610947565b61065b93506109e4919492506109b96109de610737565b50610787565b6109ee8251610b4e565b916040602082015191015191610a0261076b565b610a0a6107a5565b90610a13610825565b93610a1c6108a0565b96610c31565b5060009150565b91906040906060610a3861045f565b9485926020855192610a4984610134565b8436853780518452015160208301528482015260075afa15610a6757565b60405162461bcd60e51b815260206004820152601c60248201527f5363616c6172206d756c7469706c69636174696f6e206661696c6564000000006044820152606490fd5b9060048110156105835760051b0190565b919091610ac861045f565b92604051608081019080821067ffffffffffffffff83111761012f576020869381604096608095885285368637805185520151828401528051868401520151606082015260065afa15610b1757565b60405162461bcd60e51b815260206004820152600f60248201526e1059191a5d1a5bdb8819985a5b1959608a1b6044820152606490fd5b610b5661045f565b50805190811580610bcc575b15610b83575050604051610b7581610113565b600081526000602082015290565b602001517f30644e72e131a029b85045b68181585d2833e84879b9709143e1f593f00000019081900681039081116106825760405191610bc283610113565b8252602082015290565b50602081015115610b62565b9060068202918083046006149015171561068257565b15610bf557565b60405162461bcd60e51b815260206004820152601460248201527314185a5c9a5b99c818da1958dac819985a5b195960621b6044820152606490fd5b9396929095949194610c41610181565b94855260209788968787015260408601526060850152610c5f610181565b9586528486015260408501526060840152610c7861050f565b9260005b60048110610ca957505050610ca391610300610c96610478565b9485920160085afa610bee565b51151590565b829350610cb98160019394610aac565b5151610ccd610cc783610bd8565b8761056f565b5285610cd98286610aac565b510151610cf0610cc7610ceb84610bd8565b610674565b52610cfb8184610aac565b515151610d12610cc7610d0d84610bd8565b610687565b52610d28610d208285610aac565b515160200190565b51610d3d610cc7610d3884610bd8565b610695565b5285610d498285610aac565b51015151610d61610cc7610d5c84610bd8565b6106a3565b52610d7986610d708386610aac565b51015160200190565b51610d8e610cc7610d8984610bd8565b6106b1565b520190849291610c7c56fea2646970667358221220b1721e8f4efaaa9466a9ef1634eb92d1fd24b2c3f0f889b0ae70e99f868b917664736f6c63430008180033",
  "linkReferences": {},
  "deployedLinkReferences": {}
}