{
  "_format": "hh-sol-artifact-1",
  "contractName": "ZKProofAggregator",
  "sourceName": "contracts/ZKProofAggregator.sol",
  "abi": [
    {
      "inputs": [
        {
          "internalType": "address",
          "name": "vrfCoordinator",
          "type": "address"
        },
        {
          "internalType": "address",
          "name": "functionsRouter",
          "type": "address"
        },
        {
          "internalType": "uint256",
          "name": "vrfSubscriptionId",
          "type": "uint256"
        },
        {
          "internalType": "bytes32",
          "name": "vrfKeyHash",
          "type": "bytes32"
        },
        {
          "internalType": "uint64",
          "name": "functionsSubscriptionId",
          "type": "uint64"
        },
        {
          "internalType": "bytes32",
          "name": "functionsDonId",
          "type": "bytes32"
        },
        {
          "internalType": "address",
          "name": "groth16VerifierAddress",
          "type": "address"
        }
      ],
      "stateMutability": "nonpayable",
      "type": "constructor"
    },
    {
      "inputs": [],
      "name": "EmptyArgs",
      "type": "error"
    },
    {
      "inputs": [],
      "name": "EmptySource",
      "type": "error"
    },
    {
      "inputs": [],
      "name": "NoInlineSecrets",
      "type": "error"
    },
    {
      "inputs": [
        {
          "internalType": "address",
          "name": "have",
          "type": "address"
        },
        {
          "internalType": "address",
          "name": "want",
          "type": "address"
        }
      ],
      "name": "OnlyCoordinatorCanFulfill",
      "type": "error"
    },
    {
      "inputs": [
        {
          "internalType": "address",
          "name": "have",
          "type": "address"
        },
        {
          "internalType": "address",
          "name": "owner",
          "type": "address"
        },
        {
          "internalType": "address",
          "name": "coordinator",
          "type": "address"
        }
      ],
      "name": "OnlyOwnerOrCoordinator",
      "type": "error"
    },
    {
      "inputs": [],
      "name": "OnlyRouterCanFulfill",
      "type": "error"
    },
    {
      "inputs": [],
      "name": "ZeroAddress",
      "type": "error"
    },
    {
      "anonymous": false,
      "inputs": [
        {
          "indexed": false,
          "internalType": "address",
          "name": "vrfCoordinator",
          "type": "address"
        }
      ],
      "name": "CoordinatorSet",
      "type": "event"
    },
    {
      "anonymous": false,
      "inputs": [
        {
          "indexed": true,
          "internalType": "bytes32",
          "name": "requestId",
          "type": "bytes32"
        },
        {
          "indexed": false,
          "internalType": "bytes",
          "name": "error",
          "type": "bytes"
        }
      ],
      "name": "FunctionsRequestError",
      "type": "event"
    },
    {
      "anonymous": false,
      "inputs": [
        {
          "indexed": true,
          "internalType": "bytes32",
          "name": "requestId",
          "type": "bytes32"
        },
        {
          "indexed": false,
          "internalType": "string",
          "name": "sourceChain",
          "type": "string"
        },
        {
          "indexed": false,
          "internalType": "uint256",
          "name": "blockNumber",
          "type": "uint256"
        }
      ],
      "name": "FunctionsRequestSent",
      "type": "event"
    },
    {
      "anonymous": false,
      "inputs": [
        {
          "indexed": true,
          "internalType": "bytes32",
          "name": "requestId",
          "type": "bytes32"
        },
        {
          "indexed": false,
          "internalType": "bytes",
          "name": "proof",
          "type": "bytes"
        },
        {
          "indexed": false,
          "internalType": "bytes",
          "name": "publicInputs",
          "type": "bytes"
        }
      ],
      "name": "FunctionsResponseReceived",
      "type": "event"
    },
    {
      "anonymous": false,
      "inputs": [
        {
          "indexed": true,
          "internalType": "address",
          "name": "from",
          "type": "address"
        },
        {
          "indexed": true,
          "internalType": "address",
          "name": "to",
          "type": "address"
        }
      ],
      "name": "OwnershipTransferRequested",
      "type": "event"
    },
    {
      "anonymous": false,
      "inputs": [
        {
          "indexed": true,
          "internalType": "address",
          "name": "from",
          "type": "address"
        },
        {
          "indexed": true,
          "internalType": "address",
          "name": "to",
          "type": "address"
        }
      ],
      "name": "OwnershipTransferred",
      "type": "event"
    },
    {
      "anonymous": false,
      "inputs": [
        {
          "indexed": true,
          "internalType": "uint256",
          "name": "requestId",
          "type": "uint256"
        },
        {
          "indexed": true,
          "internalType": "address",
          "name": "requester",
          "type": "address"
        },
        {
          "indexed": false,
          "internalType": "uint256",
          "name": "blockNumber",
          "type": "uint256"
        }
      ],
      "name": "ProofRequested",
      "type": "event"
    },
    {
      "anonymous": false,
      "inputs": [
        {
          "indexed": true,
          "internalType": "uint256",
          "name": "requestId",
          "type": "uint256"
        },
        {
          "indexed": false,
          "internalType": "bool",
          "name": "isValid",
          "type": "bool"
        },
        {
          "indexed": false,
          "internalType": "bytes32",
          "name": "stateRoot",
          "type": "bytes32"
        }
      ],
      "name": "ProofVerified",
      "type": "event"
    },
    {
      "anonymous": false,
      "inputs": [
        {
          "indexed": true,
          "internalType": "uint256",
          "name": "requestId",
          "type": "uint256"
        },
        {
          "indexed": false,
          "internalType": "uint256",
          "name": "randomValue",
          "type": "uint256"
        },
        {
          "indexed": false,
          "internalType": "uint256",
          "name": "selectedBlock",
          "type": "uint256"
        }
      ],
      "name": "RandomnessReceived",
      "type": "event"
    },
    {
      "anonymous": false,
      "inputs": [
        {
          "indexed": true,
          "internalType": "bytes32",
          "name": "id",
          "type": "bytes32"
        }
      ],
      "name": "RequestFulfilled",
      "type": "event"
    },
    {
      "anonymous": false,
      "inputs": [
        {
          "indexed": true,
          "internalType": "bytes32",
          "name": "id",
          "type": "bytes32"
        }
      ],
      "name": "RequestSent",
      "type": "event"
    },
    {
      "inputs": [],
      "name": "acceptOwnership",
      "outputs": [],
      "stateMutability": "nonpayable",
      "type": "function"
    },
    {
      "inputs": [
        {
          "internalType": "bytes[]",
          "name": "proofs",
          "type": "bytes[]"
        },
        {
          "internalType": "bytes[]",
          "name": "publicInputsArray",
          "type": "bytes[]"
        }
      ],
      "name": "aggregateProofs",
      "outputs": [
        {
          "internalType": "bytes32",
          "name": "aggregatedHash",
          "type": "bytes32"
        }
      ],
      "stateMutability": "nonpayable",
      "type": "function"
    },
    {
      "inputs": [
        {
          "internalType": "uint256",
          "name": "",
          "type": "uint256"
        },
        {
          "internalType": "uint256",
          "name": "",
          "type": "uint256"
        }
      ],
      "name": "aggregatedProofHashes",
      "outputs": [
        {
          "internalType": "bytes32",
          "name": "",
          "type": "bytes32"
        }
      ],
      "stateMutability": "view",
      "type": "function"
    },
    {
      "inputs": [
        {
          "internalType": "address",
          "name": "",
          "type": "address"
        }
      ],
      "name": "authorizedCallers",
      "outputs": [
        {
          "internalType": "bool",
          "name": "",
          "type": "bool"
        }
      ],
      "stateMutability": "view",
      "type": "function"
    },
    {
      "inputs": [
        {
          "internalType": "bytes",
          "name": "",
          "type": "bytes"
        }
      ],
      "name": "checkUpkeep",
      "outputs": [
        {
          "internalType": "bool",
          "name": "upkeepNeeded",
          "type": "bool"
        },
        {
          "internalType": "bytes",
          "name": "",
          "type": "bytes"
        }
      ],
      "stateMutability": "view",
      "type": "function"
    },
    {
      "inputs": [],
      "name": "contractOwner",
      "outputs": [
        {
          "internalType": "address",
          "name": "",
          "type": "address"
        }
      ],
      "stateMutability": "view",
      "type": "function"
    },
    {
      "inputs": [
        {
          "internalType": "bytes32",
          "name": "",
          "type": "bytes32"
        }
      ],
      "name": "functionsRequestToProofId",
      "outputs": [
        {
          "internalType": "uint256",
          "name": "",
          "type": "uint256"
        }
      ],
      "stateMutability": "view",
      "type": "function"
    },
    {
      "inputs": [
        {
          "internalType": "uint256",
          "name": "requestId",
          "type": "uint256"
        }
      ],
      "name": "getProofRequest",
      "outputs": [
        {
          "components": [
            {
              "internalType": "address",
              "name": "requester",
              "type": "address"
            },
            {
              "internalType": "uint256",
              "name": "timestamp",
              "type": "uint256"
            },
            {
              "internalType": "string",
              "name": "sourceChain",
              "type": "string"
            },
            {
              "internalType": "uint256",
              "name": "blockNumber",
              "type": "uint256"
            },
            {
              "internalType": "bytes32",
              "name": "stateRoot",
              "type": "bytes32"
            },
            {
              "internalType": "bool",
              "name": "isCompleted",
              "type": "bool"
            },
            {
              "internalType": "bool",
              "name": "isValid",
              "type": "bool"
            }
          ],
          "internalType": "struct ZKProofAggregator.ProofRequest",
          "name": "",
          "type": "tuple"
        }
      ],
      "stateMutability": "view",
      "type": "function"
    },
    {
      "inputs": [],
      "name": "getSubscriptionId",
      "outputs": [
        {
          "internalType": "uint256",
          "name": "",
          "type": "uint256"
        }
      ],
      "stateMutability": "view",
      "type": "function"
    },
    {
      "inputs": [],
      "name": "groth16Verifier",
      "outputs": [
        {
          "internalType": "contract Groth16Verifier",
          "name": "",
          "type": "address"
        }
      ],
      "stateMutability": "view",
      "type": "function"
    },
    {
      "inputs": [
        {
          "internalType": "bytes32",
          "name": "requestId",
          "type": "bytes32"
        },
        {
          "internalType": "bytes",
          "name": "response",
          "type": "bytes"
        },
        {
          "internalType": "bytes",
          "name": "err",
          "type": "bytes"
        }
      ],
      "name": "handleOracleFulfillment",
      "outputs": [],
      "stateMutability": "nonpayable",
      "type": "function"
    },
    {
      "inputs": [],
      "name": "initializeProofService",
      "outputs": [],
      "stateMutability": "nonpayable",
      "type": "function"
    },
    {
      "inputs": [
        {
          "internalType": "bytes32",
          "name": "stateRoot",
          "type": "bytes32"
        }
      ],
      "name": "isStateVerified",
      "outputs": [
        {
          "internalType": "bool",
          "name": "",
          "type": "bool"
        }
      ],
      "stateMutability": "view",
      "type": "function"
    },
    {
      "inputs": [],
      "name": "lastUpkeepTimestamp",
      "outputs": [
        {
          "internalType": "uint256",
          "name": "",
          "type": "uint256"
        }
      ],
      "stateMutability": "view",
      "type": "function"
    },
    {
      "inputs": [],
      "name": "owner",
      "outputs": [
        {
          "internalType": "address",
          "name": "",
          "type": "address"
        }
      ],
      "stateMutability": "view",
      "type": "function"
    },
    {
      "inputs": [
        {
          "internalType": "bytes",
          "name": "",
          "type": "bytes"
        }
      ],
      "name": "performUpkeep",
      "outputs": [],
      "stateMutability": "nonpayable",
      "type": "function"
    },
    {
      "inputs": [
        {
          "internalType": "uint256",
          "name": "",
          "type": "uint256"
        }
      ],
      "name": "proofRequests",
      "outputs": [
        {
          "internalType": "address",
          "name": "requester",
          "type": "address"
        },
        {
          "internalType": "uint256",
          "name": "timestamp",
          "type": "uint256"
        },
        {
          "internalType": "string",
          "name": "sourceChain",
          "type": "string"
        },
        {
          "internalType": "uint256",
          "name": "blockNumber",
          "type": "uint256"
        },
        {
          "internalType": "bytes32",
          "name": "stateRoot",
          "type": "bytes32"
        },
        {
          "internalType": "bool",
          "name": "isCompleted",
          "type": "bool"
        },
        {
          "internalType": "bool",
          "name": "isValid",
          "type": "bool"
        }
      ],
      "stateMutability": "view",
      "type": "function"
    },
    {
      "inputs": [
        {
          "internalType": "uint256",
          "name": "requestId",
          "type": "uint256"
        },
        {
          "internalType": "uint256[]",
          "name": "randomWords",
          "type": "uint256[]"
        }
      ],
      "name": "rawFulfillRandomWords",
      "outputs": [],
      "stateMutability": "nonpayable",
      "type": "function"
    },
    {
      "inputs": [],
      "name": "requestCounter",
      "outputs": [
        {
          "internalType": "uint256",
          "name": "",
          "type": "uint256"
        }
      ],
      "stateMutability": "view",
      "type": "function"
    },
    {
      "inputs": [
        {
          "internalType": "string",
          "name": "sourceChain",
          "type": "string"
        },
        {
          "internalType": "uint256",
          "name": "targetBlockNumber",
          "type": "uint256"
        }
      ],
      "name": "requestProofVerification",
      "outputs": [
        {
          "internalType": "uint256",
          "name": "requestId",
          "type": "uint256"
        }
      ],
      "stateMutability": "nonpayable",
      "type": "function"
    },
    {
      "inputs": [],
      "name": "s_vrfCoordinator",
      "outputs": [
        {
          "internalType": "contract IVRFCoordinatorV2Plus",
          "name": "",
          "type": "address"
        }
      ],
      "stateMutability": "view",
      "type": "function"
    },
    {
      "inputs": [
        {
          "internalType": "address",
          "name": "caller",
          "type": "address"
        },
        {
          "internalType": "bool",
          "name": "authorized",
          "type": "bool"
        }
      ],
      "name": "setAuthorizedCaller",
      "outputs": [],
      "stateMutability": "nonpayable",
      "type": "function"
    },
    {
      "inputs": [
        {
          "internalType": "address",
          "name": "_vrfCoordinator",
          "type": "address"
        }
      ],
      "name": "setCoordinator",
      "outputs": [],
      "stateMutability": "nonpayable",
      "type": "function"
    },
    {
      "inputs": [
        {
          "internalType": "uint64",
          "name": "subscriptionId",
          "type": "uint64"
        },
        {
          "internalType": "uint32",
          "name": "gasLimit",
          "type": "uint32"
        },
        {
          "internalType": "bytes32",
          "name": "donId",
          "type": "bytes32"
        }
      ],
      "name": "setFunctionsConfig",
      "outputs": [],
      "stateMutability": "nonpayable",
      "type": "function"
    },
    {
      "inputs": [
        {
          "internalType": "string",
          "name": "source",
          "type": "string"
        }
      ],
      "name": "setFunctionsSource",
      "outputs": [],
      "stateMutability": "nonpayable",
      "type": "function"
    },
    {
      "inputs": [
        {
          "internalType": "string",
          "name": "url",
          "type": "string"
        }
      ],
      "name": "setProofServiceUrl",
      "outputs": [],
      "stateMutability": "nonpayable",
      "type": "function"
    },
    {
      "inputs": [
        {
          "internalType": "uint256",
          "name": "newInterval",
          "type": "uint256"
        }
      ],
      "name": "setUpkeepInterval",
      "outputs": [],
      "stateMutability": "nonpayable",
      "type": "function"
    },
    {
      "inputs": [
        {
          "internalType": "uint256",
          "name": "subscriptionId",
          "type": "uint256"
        },
        {
          "internalType": "bytes32",
          "name": "keyHash",
          "type": "bytes32"
        },
        {
          "internalType": "uint32",
          "name": "callbackGasLimit",
          "type": "uint32"
        }
      ],
      "name": "setVRFConfig",
      "outputs": [],
      "stateMutability": "nonpayable",
      "type": "function"
    },
    {
      "inputs": [
        {
          "internalType": "address",
          "name": "to",
          "type": "address"
        }
      ],
      "name": "transferOwnership",
      "outputs": [],
      "stateMutability": "nonpayable",
      "type": "function"
    },
    {
      "inputs": [],
      "name": "upkeepInterval",
      "outputs": [
        {
          "internalType": "uint256",
          "name": "",
          "type": "uint256"
        }
      ],
      "stateMutability": "view",
      "type": "function"
    },
    {
      "inputs": [
        {
          "internalType": "bytes32",
          "name": "",
          "type": "bytes32"
        }
      ],
      "name": "usedProofHashes",
      "outputs": [
        {
          "internalType": "bool",
          "name": "",
          "type": "bool"
        }
      ],
      "stateMutability": "view",
      "type": "function"
    },
    {
      "inputs": [
        {
          "internalType": "bytes32",
          "name": "",
          "type": "bytes32"
        }
      ],
      "name": "verifiedProofs",
      "outputs": [
        {
          "internalType": "bool",
          "name": "",
          "type": "bool"
        }
      ],
      "stateMutability": "view",
      "type": "function"
    }
  ],
  "bytecode": "0x60c034620001d257601f62003ebf38819003918201601f19168301926001600160401b0392909183851183861017620001d7578160e09284926040978852833981010312620001d2576200005381620001ed565b6200006160208301620001ed565b928483015192606081015160808201519283168303620001d2576200008e60c060a08401519301620001ed565b9233156200018e57600080546001600160a01b03199081163317909155966001600160a01b0395861680156200017d57740493e00000000000000000000000010003002625a093929187918a600254161760025516608052610e10600755600a549160ff1997600889600e541617600e556008556009556a0100000000000000000000600160901b039060501b169060018060b01b0319161717600a55600b551660a05233600052601260205260018360002091825416179055339060135416176013554260065551613cbc90816200020382396080518181816103ac01526130db015260a051816107050152f35b895163d92e233d60e01b8152600490fd5b875162461bcd60e51b815260206004820152601860248201527f43616e6e6f7420736574206f776e657220746f207a65726f00000000000000006044820152606490fd5b600080fd5b634e487b7160e01b600052604160045260246000fd5b51906001600160a01b0382168203620001d25756fe6080604052600436101561001257600080fd5b60003560e01c80630ca76175146102125780631098241b1461020d578063152a952614610208578063176d80c41461019a57806319c813be146102035780631bd6447a146101fe5780631fe543e3146101f957806325825746146101f457806336e0025f146101ef57806339a9e4b3146101ea578063411eddd1146101e5578063454bbd29146101e05780634585e33b146101db578063536fff6c146101d657806356959332146101d157806357efe032146101cc5780635a74373c146101c7578063624cffd4146101c25780636e04ff0d146101bd57806372e4c9f6146101b857806379ba5097146101b35780638da5cb5b146101ae5780638ea98117146101a9578063973a814e146101a45780639eccacf61461019f578063a9431f231461019a578063b5cce13314610195578063ce606ee014610190578063d175d81a1461018b578063d87318b214610186578063de3d9fb7146101815763f2fde38b1461017c57600080fd5b611575565b611557565b611526565b611456565b61142d565b6113d7565b6106be565b6113ae565b611390565b61131b565b6112f2565b611236565b611208565b6111bb565b61119d565b61117f565b611080565b611054565b611015565b610f66565b610ebc565b610da7565b610d63565b610c49565b610bd0565b6107ff565b610747565b6106ef565b6105f1565b610447565b61035d565b634e487b7160e01b600052604160045260246000fd5b60e081019081106001600160401b0382111761024857604052565b610217565b604081019081106001600160401b0382111761024857604052565b602081019081106001600160401b0382111761024857604052565b60c081019081106001600160401b0382111761024857604052565b90601f801991011681019081106001600160401b0382111761024857604052565b604051906102cc8261022d565b565b604051906102cc82610268565b604051906102cc82610283565b6001600160401b03811161024857601f01601f191660200190565b92919261030f826102e8565b9161031d604051938461029e565b82948184528183011161033a578281602093846000960137010152565b600080fd5b9080601f8301121561033a5781602061035a93359101610303565b90565b3461033a57606036600319011261033a576004356001600160401b0360243581811161033a5761039190369060040161033f565b9060443590811161033a576103aa90369060040161033f565b7f00000000000000000000000000000000000000000000000000000000000000006001600160a01b0316330361040b576103e491836120a3565b7f85e1543bf2f84fe80c6badbce3648c8539ad1df4d2b3d822938ca0538be727e6600080a2005b60405163c6829f8360e01b8152600490fd5b602060031982011261033a57600435906001600160401b03821161033a5761035a9160040161033f565b3461033a576104553661041d565b61046a60018060a01b0360135416331461166a565b80516001600160401b0381116102485761048e81610489600d5461094d565b6116ba565b602080601f83116001146104d0575081906104c0936000926104c5575b50508160011b916000199060031b1c19161790565b600d55005b0151905038806104ab565b90601f198316936104f1600d600052600080516020613c6783398151915290565b926000905b86821061052d5750508360019510610514575b505050811b01600d55005b015160001960f88460031b161c19169055388080610509565b806001859682949686015181550195019301906104f6565b60005b8381106105585750506000910152565b8181015183820152602001610548565b9060209161058181518092818552858086019101610545565b601f01601f1916010190565b6020815260018060a01b0382511660208201526020820151604082015260e060c06105c76040850151836060860152610100850190610568565b9360608101516080850152608081015160a085015260a08101511515828501520151151591015290565b3461033a57602036600319011261033a576106ba60408060c081516106158161022d565b60009181838093528260208201526060858201528260608201528260808201528260a082015201526004358152600360205220906106b060ff600583519461065c8661022d565b80546001600160a01b031686526001810154602087015261067f60028201610b6e565b8686015260038101546060870152600481015460808701520154818116151560a086015260081c16151560c0840152565b519182918261058d565b0390f35b3461033a57602036600319011261033a57600435600052600f602052602060ff604060002054166040519015158152f35b3461033a57600036600319011261033a576040517f00000000000000000000000000000000000000000000000000000000000000006001600160a01b03168152602090f35b6024359063ffffffff8216820361033a57565b3461033a57606036600319011261033a576004356001600160401b038116810361033a57610773610734565b61078860018060a01b0360135416331461166a565b600a80546bffffffffffffffffffffffff60501b191660509390931b67ffffffffffffffff60501b169290921760909190911b63ffffffff60901b16179055604435600b55005b9181601f8401121561033a578235916001600160401b03831161033a576020808501948460051b01011161033a57565b3461033a57604036600319011261033a576004356024356001600160401b03811161033a576108329036906004016107cf565b600254919290916001600160a01b03163381900361092f57508060005260046020526040600020549081156108f4576103e71943014381116108ef57846108d76108b67f2374d5481494ad7962d4bd1b98b91e9f3117c9b66533b2804be3d76c41a49088936108b06108a7896108ed9b612315565b356103e8900690565b9061233a565b9586928360036108d0896000526003602052604060002090565b0155612315565b60408051913582526020820192909252a2612566565b005b611799565b60405162461bcd60e51b8152602060048201526013602482015272125b9d985b1a5908159491881c995c5d595cdd606a1b6044820152606490fd5b6044906040519063073e64fd60e21b82523360048301526024820152fd5b90600182811c9216801561097d575b602083101461096757565b634e487b7160e01b600052602260045260246000fd5b91607f169161095c565b8054600093926109968261094d565b918282526020936001916001811690816000146109fe57506001146109bd575b5050505050565b90939495506000929192528360002092846000945b8386106109ea575050505001019038808080806109b6565b8054858701830152940193859082016109d2565b60ff19168685015250505090151560051b0101915038808080806109b6565b60405190600082600c5491610a318361094d565b80835292602090600190818116908115610abd5750600114610a5c575b50506102cc9250038361029e565b915092600c6000527fdf6966c971051c3d54ec59162606531493a51404a002842f56009d7e5cf4a8c7936000925b828410610aa557506102cc9450505081016020013880610a4e565b85548885018301529485019487945092810192610a8a565b915050602092506102cc94915060ff191682840152151560051b8201013880610a4e565b60405190600082600d5491610af58361094d565b80835292602090600190818116908115610abd5750600114610b1f5750506102cc9250038361029e565b915092600d600052600080516020613c67833981519152936000925b828410610b5657506102cc9450505081016020013880610a4e565b85548885018301529485019487945092810192610b3b565b906102cc610b829260405193848092610987565b038361029e565b959260c09592610bb7929998959960018060a01b03168852602088015260e0604088015260e0870190610568565b9660608601526080850152151560a08401521515910152565b3461033a57602036600319011261033a576004356000526003602052604060002060018060a01b03815416906106ba60018201549160405193610c2185610c1a8160028601610987565b038661029e565b600382015491600560048201549101549260405196879660ff808760081c1696169488610b89565b3461033a57610c573661041d565b610c6c60018060a01b0360135416331461166a565b80516001600160401b03811161024857610c9081610c8b600c5461094d565b611709565b602080601f8311600114610cc657508190610cc1936000926104c55750508160011b916000199060031b1c19161790565b600c55005b90601f19831693610cf9600c6000527fdf6966c971051c3d54ec59162606531493a51404a002842f56009d7e5cf4a8c790565b926000905b868210610d355750508360019510610d1c575b505050811b01600c55005b015160001960f88460031b161c19169055388080610d11565b80600185968294968601518155019501930190610cfe565b634e487b7160e01b600052603260045260246000fd5b3461033a57604036600319011261033a5760243560009060043582526010602052604082208054821015610da35782526020918290200154604051908152f35b8280fd5b3461033a57600080600319360112610ea357610dce60018060a01b0360135416331461166a565b610dd9600d5461094d565b601f8111610e53575b506063600d557f68747470733a2f2f656431362d3130332d3137352d3136382d3232322e6e6772600080516020613c6783398151915255706f6b2d667265652e6170702f70726f766560781b7fd7b6990105719101dabeb77144f2a3385c8033acd3af97e9423a695e81ad1eb65580f35b601f0160051c600080516020613c67833981519152017fd7b6990105719101dabeb77144f2a3385c8033acd3af97e9423a695e81ad1eb75b818110610e985750610de2565b828155600101610e8b565b80fd5b600435906001600160a01b038216820361033a57565b3461033a57604036600319011261033a57610ed5610ea6565b602435801515810361033a576013546108ed926001600160a01b0391610efe908316331461166a565b16600052601260205260406000209060ff801983541691151516179055565b90602060031983011261033a576004356001600160401b039283821161033a578060238301121561033a57816004013593841161033a576024848301011161033a576024019190565b3461033a57610f7436610f1d565b505060065442034281116108ef57610f8f90600754106117da565b610f9842600655565b60408051632bf7f01960e11b815260048101919091526008604482015267657468657265756d60c01b606482015260006024820152602081806084810103816000305af1801561101057610fe857005b6108ed9060203d602011611009575b611001818361029e565b81019061181a565b503d610ff7565b611829565b3461033a57602036600319011261033a576001600160a01b03611036610ea6565b166000526012602052602060ff604060002054166040519015158152f35b3461033a57602036600319011261033a5760043560005260046020526020604060002054604051908152f35b3461033a57604036600319011261033a576004356001600160401b03811161033a576110b36106ba91369060040161033f565b6024356111196110c4600554611835565b926110ce84600555565b6110d66102bf565b33815290426020830152604082015282606082015260006080820152600060a0820152600060c0820152611114846000526003602052604060002090565b611844565b806111705761112782612778565b817f7ef8ca77fdc89c79f093f2a6b2348b1fcda0beb941ce31ce9f2d9d260c4db9d26040518061115d3395829190602083019252565b0390a36040519081529081906020820190565b61117a8183612566565b611127565b3461033a57600036600319011261033a576020600754604051908152f35b3461033a57600036600319011261033a576020600654604051908152f35b3461033a576111c936610f1d565b505060065442034281116108ef5760075410604051906111e882610268565b600082526106ba6040519283928352604060208401526040830190610568565b3461033a57602036600319011261033a5761122e60018060a01b0360135416331461166a565b600435600755005b3461033a57600080600319360112610ea3576001546001600160a01b0390811633036112b45781546001600160a01b0316600080546001600160a01b0319163317905590600180546001600160a01b03191690553391167f8be0079c531659141344cd1fd0a4f28419497f9722a3daafe3b4186f6b6457e08380a380f35b60405162461bcd60e51b815260206004820152601660248201527526bab9ba10313290383937b837b9b2b21037bbb732b960511b6044820152606490fd5b3461033a57600036600319011261033a576000546040516001600160a01b039091168152602090f35b3461033a57602036600319011261033a57611334610ea6565b6000546001600160a01b03908116903382141580611382575b61135a576108ed836119c9565b60649250600254166040519163061db9c160e01b835233600484015260248301526044820152fd5b50806002541633141561134d565b3461033a57600036600319011261033a576020600554604051908152f35b3461033a57600036600319011261033a576002546040516001600160a01b039091168152602090f35b3461033a57606036600319011261033a5760443563ffffffff811680910361033a5761140e60018060a01b0360135416331461166a565b60043560085560243560095563ffffffff19600a541617600a55600080f35b3461033a57600036600319011261033a576013546040516001600160a01b039091168152602090f35b3461033a57604036600319011261033a576001600160401b0360043581811161033a576114879036906004016107cf565b9160243590811161033a576114a09036906004016107cf565b9033600052601260205260ff604060002054168015611512575b156114dc576106ba936114cc93611d55565b6040519081529081906020820190565b60405162461bcd60e51b815260206004820152600e60248201526d139bdd08185d5d1a1bdc9a5e995960921b6044820152606490fd5b506013546001600160a01b031633146114ba565b3461033a57602036600319011261033a576004356000526011602052602060ff604060002054166040519015158152f35b3461033a57600036600319011261033a576020600854604051908152f35b3461033a57602036600319011261033a5761158e610ea6565b6000546001600160a01b03908116913383900361162c5716903382146115e757600180546001600160a01b031916831790557fed8889f560326eb138920d842192f0eb3dd22b4f139c87a2c57538e05bae1278600080a3005b60405162461bcd60e51b815260206004820152601760248201527f43616e6e6f74207472616e7366657220746f2073656c660000000000000000006044820152606490fd5b60405162461bcd60e51b815260206004820152601660248201527527b7363c9031b0b63630b1363290313c9037bbb732b960511b6044820152606490fd5b1561167157565b60405162461bcd60e51b815260206004820152600a60248201526927b7363c9037bbb732b960b11b6044820152606490fd5b8181106116ae575050565b600081556001016116a3565b90601f82116116c7575050565b6102cc91600d600052600080516020613c67833981519152906020601f840160051c830193106116ff575b601f0160051c01906116a3565b90915081906116f2565b90601f8211611716575050565b6102cc91600c6000527fdf6966c971051c3d54ec59162606531493a51404a002842f56009d7e5cf4a8c7906020601f840160051c830193106116ff57601f0160051c01906116a3565b9190601f811161176e57505050565b6102cc926000526020600020906020601f840160051c830193106116ff57601f0160051c01906116a3565b634e487b7160e01b600052601160045260246000fd5b6000198101919082116108ef57565b601f198101919082116108ef57565b919082039182116108ef57565b156117e157565b60405162461bcd60e51b8152602060048201526011602482015270155c1ad9595c081b9bdd081b9959591959607a1b6044820152606490fd5b9081602091031261033a575190565b6040513d6000823e3d90fd5b60001981146108ef5760010190565b815181546001600160a01b0319166001600160a01b0391909116178155600160209060208401516001840155600283019160408501518051926001600160401b0384116102485761189f84611899875461094d565b8761175f565b602092601f851160011461193757505093611921936118df8460c0956005956102cc9a996000926104c55750508160011b916000199060031b1c19161790565b90555b6060850151600382015560808501516004820155019261191a61190860a0830151151590565b859060ff801983541691151516179055565b0151151590565b815461ff00191690151560081b61ff0016179055565b929190601f1985169061194f87600052602060002090565b946000915b83831061199f57505050846005946102cc999894611921989460c09860019510611986575b505050811b0190556118e2565b015160001960f88460031b161c19169055388080611979565b848601518755958601959481019491810191611954565b604051906119c382610268565b60008252565b6001600160a01b03168015611a1e576020817fd1a6a14209a385a964d036e404cb5cfb71f4000cdb03c9366292430787261be6926bffffffffffffffffffffffff60a01b6002541617600255604051908152a1565b60405163d92e233d60e01b8152600490fd5b15611a3757565b60405162461bcd60e51b8152602060048201526014602482015273496e76616c696420696e7075742061727261797360601b6044820152606490fd5b15611a7a57565b60405162461bcd60e51b815260206004820152601c60248201527f546f6f206d616e792070726f6f667320746f20616767726567617465000000006044820152606490fd5b6001600160401b0381116102485760051b60200190565b90611ae082611abf565b611aed604051918261029e565b8281528092611afe601f1991611abf565b0190602036910137565b9190811015611b495760051b81013590601e198136030182121561033a5701908135916001600160401b03831161033a57602001823603811361033a579190565b610d4d565b15611b5557565b60405162461bcd60e51b815260206004820152601c60248201527f496e76616c69642070726f6f6620696e206167677265676174696f6e000000006044820152606490fd5b908092918237016000815290565b15611baf57565b60405162461bcd60e51b815260206004820152602160248201527f50726f6f6620616c7265616479207573656420696e206167677265676174696f6044820152603760f91b6064820152608490fd5b805115611b495760200190565b805160011015611b495760400190565b805160021015611b495760600190565b805160031015611b495760800190565b805160041015611b495760a00190565b8051821015611b495760209160051b010190565b9193929093845160208096019060005b818110611c9957505050825260601b6bffffffffffffffffffffffff191660208201526034019150565b825186529487019491870191600101611c6f565b908160011b91808304600214901517156108ef57565b8151916001600160401b03831161024857680100000000000000008311610248578154838355808410611d2a575b50611d06602080920192600052602060002090565b9060005b848110611d18575050505050565b83518382015592810192600101611d0a565b60008360005284602060002092830192015b828110611d4a575050611cf1565b818155600101611d3c565b9192909281841480611f27575b611d6b90611a30565b611d78600a851115611a73565b611d8184611ad6565b9360005b818110611e515750505050506040516020810190611db781611da933428787611c5f565b03601f19810183528261029e565b51902090611dec611dc9600554611835565b91611dd383600555565b611de7836000526010602052604060002090565b611cc3565b611e10611e0383600052600f602052604060002090565b805460ff19166001179055565b7f6dd2118914ad2b9a98780fafd92846eebe9361998a810f1a05f67033b17e2cdd60405180611e4b8582919060206040840193600181520152565b0390a290565b80611e96611e91611e8b611e68600195878b611b08565b611e83611e79878c8c969596611b08565b9490923691610303565b923691610303565b9061285a565b611b4e565b611f21611e03611ed5611ecf611ead85888c611b08565b9290611da9611ebd888d8d611b08565b60405195869460208601988991611b9a565b91611b9a565b519020611f05611f00611efc611ef5846000526011602052604060002090565b5460ff1690565b1590565b611ba8565b80611f10858c611c4b565b526000526011602052604060002090565b01611d85565b50831515611d62565b15611f3757565b60405162461bcd60e51b815260206004820152601960248201527f496e76616c69642046756e6374696f6e732072657175657374000000000000006044820152606490fd5b90602061035a928181520190610568565b60405190611f9a8261024d565b60078252667375636365737360c81b6020830152565b60405190611fbd8261024d565b600c82526b3430b9a932b0b6283937b7b360a11b6020830152565b60405190611fe58261024d565b600c82526b0ecc2d8d2c8d2e8f290c2e6d60a31b6020830152565b9061201360209282815194859201610545565b0190565b602092919061202d849282815194859201610545565b019081520190565b604051906120428261024d565b6005825264383937b7b360d91b6020830152565b604051906120638261024d565b600d82526c7075626c69635369676e616c7360981b6020830152565b612093602092604083526040830190610568565b9082818303910152600081520190565b916120b8836000526004602052604060002090565b54906120c5821515611f30565b80516122bc57507f50348c1af87d1d2e61e0a7e9bf83a9c67f047d8de73be6b88acac8655a97581e91612218916121036120fd611f8d565b8361288e565b612117826000526003602052604060002090565b60058101805460ff19166001178155909115612278577f6dd2118914ad2b9a98780fafd92846eebe9361998a810f1a05f67033b17e2cdd9161216061215a611fb0565b8661288e565b1561226357612176612170612035565b866129a2565b612187612181612056565b876129a2565b8151151580612259575b1561221d576121d7926122089492611da96121c26004946040519283916121bc602084018097612000565b90612000565b51902093849361010061ff0019825416179055565b01556121f0611e0382600052600f602052604060002090565b60405191829182919060206040840193600181520152565b0390a25b6040519182918261207f565b0390a2565b50506122519160046121d79261223a612234611fd8565b896129a2565b6040516121c281611da96020820194429086612017565b0390a261220c565b5080511515612191565b6122519160046121d79261223a612234611fd8565b805461ff0019169055507f6dd2118914ad2b9a98780fafd92846eebe9361998a810f1a05f67033b17e2cdd6040518061225181906000602060408401938281520152565b7f8117ad48db1a08344670d33acdeb14d7ec953b1119dafa9ab361e5e721d43562925061230960056122fb612218946000526003602052604060002090565b01805460ff19166001179055565b60405191829182611f7c565b9015611b495790565b60300190816030116108ef57565b90602082018092116108ef57565b919082018092116108ef57565b6040519061016082018281106001600160401b038211176102485760405261013182527072696e6769667928726573756c7429293b60781b610140837f636f6e737420636861696e49643d7061727365496e7428617267735b305d293b60208201527f636f6e737420626c6f636b4e756d626572733d4a534f4e2e706172736528617260408201527f67735b315d293b636f6e737420726573756c743d7b737563636573733a74727560608201527f652c636861696e49642c626c6f636b4e756d626572732c76616c69646974794860808201527f6173683a2730783132333435363738393061626364656631323334353637383960a08201527f306162636465663132333435363738393061626364656631323334353637383960c08201527f30616263646566272c6d657461646174613a7b74696d657374616d703a4d617460e08201527f682e666c6f6f7228446174652e6e6f7728292f31303030297d7d3b72657475726101008201527f6e2046756e6374696f6e732e656e636f6465537472696e67284a534f4e2e73746101208201520152565b604051906124ec8261022d565b606060c08360008152600060208201526000604082015282808201528260808201528260a08201520152565b6040519061252582610283565b600582528160005b60a08110612539575050565b80606060208093850101520161252d565b929190612561602091604086526040860190610987565b930152565b907f89652d00e157965d54f5ad31af9352416c4e90b879711ec122680d4e3a1de9a69061259d836000526003602052604060002090565b6125a5610a1d565b80511561270a575b6126c16126e5916125c66125bf6124df565b9182613196565b6126bc60026125d3612518565b9501946125ef6125ea6125e588610b6e565b612b46565b612cc6565b6125f882611bfe565b5261260281611bfe565b5061263061263d61261289612cc6565b611da96040519384926121bc60208501600190605b60f81b81520190565b605d60f81b815260010190565b61264682611c0b565b5261265081611c0b565b506126696125ea612663600e5460ff1690565b60ff1690565b61267282611c1b565b5261267c81611c1b565b5061268646612cc6565b61268f82611c2b565b5261269981611c2b565b506126a2610ae1565b6126ab82611c3b565b526126b581611c3b565b5082612d66565b612eb5565b600a54600b54916001600160401b0363ffffffff8360901c169260501c1690613083565b936126fa856000526004602052604060002090565b556122186040519283928361254a565b506126e56126c1612719612347565b9150506125ad565b60e060a061035a9360208452805160208501526020810151604085015261ffff6040820151166060850152606081015163ffffffff80911660808601526080820151168285015201519160c0808201520190610568565b600254600090602090612811906001600160a01b03166009546008546127f0600a5463ffffffff906127b36127ab6102ce565b8a815261315d565b936127bc6102db565b9586528886015280881c61ffff16604086015263ffffffff81831616606086015260301c16608084019063ffffffff169052565b60a0820152604051948580948193634d8e1c2f60e11b835260048301612721565b03925af18015611010576128389160009161283b575b506000526004602052604060002090565b55565b612854915060203d60201161100957611001818361029e565b38612827565b5115908115612873575b5061286e57600190565b600090565b9050511538612864565b908151811015611b49570160200190565b604051601160f91b602082015290916128c6908290611da9906128b490602184016121bc565b65223a7472756560d01b815260060190565b6000905b6128d783518251906117cd565b82116129725760019260005b8251811015612968576129106129026128fc838761233a565b8461287d565b516001600160f81b03191690565b61292d612920612902848761287d565b6001600160f81b03191690565b6001600160f81b031990911603612946576001016128e3565b5092509060005b6129605761295a90611835565b906128ca565b505050600190565b509291909161294d565b505050600090565b90612984826102e8565b612991604051918261029e565b8281528092611afe601f19916102e8565b916129e56129c8926129d76040519485926121bc60208501600190601160f91b81520190565b62111d1160e91b815260030190565b03601f19810184528361029e565b6000905b6129f684518451906117cd565b8211612b3a5760019260005b8151811015612b3057612a21612902612a1b838761233a565b8861287d565b612a31612920612902848661287d565b6001600160f81b031990911603612a4a57600101612a02565b5092509060005b612a65575b612a5f90611835565b906129e9565b90612a7183518361233a565b92835b8551811080612b0c575b15612a9157612a8c90611835565b612a74565b9093929192808211612aa4575050612a56565b91509250612aba612ab582856117cd565b61297a565b9160005b612ac883866117cd565b811015612b035782600182612aec612902612ae6612ac8968661233a565b8b61287d565b60001a612af9828961287d565b5301915050612abe565b50935050905090565b50601160f91b6001600160f81b0319612b28612902848a61287d565b161415612a7e565b5092919091612a51565b9250505061035a6119b6565b60409081519060209082612b5d8382018093612000565b0392612b71601f199485810183528261029e565b51902092805182810190612ba481612b988460089067657468657265756d60c01b81520190565b0386810183528261029e565b5190208414612cbd57805167617262697472756d60c01b83820190815290612bcf8160088401612b98565b5190208414612cb3578051676f7074696d69736d60c01b83820190815290612bfa8160088401612b98565b5190208414612caa578051636261736560e01b83820190815290612c218160048401612b98565b5190208414612ca0578051663837b63cb3b7b760c91b83820190815290612c4b8160078401612b98565b5190208414612c9757612c8490519182019282612c7885600990686176616c616e63686560b81b81520190565b0390810183528261029e565b51902014612c9157600190565b61a86a90565b50505050608990565b5050505061210590565b50505050600a90565b5050505061a4b190565b50505050600190565b8015612d48576000818181805b612d305750612ce18161297a565b935b612ced5750505090565b612cf6906117af565b90600a90612d1b612d0b61266384840661231e565b60f81b6001600160f81b03191690565b841a612d27848761287d565b53049081612ce3565b9150612d3d600a91611835565b910480849291612cd3565b50604051612d558161024d565b60018152600360fc1b602082015290565b815115612d735760a00152565b60405163fe936cb760e01b8152600490fd5b60405190612d928261024d565b600c82526b31b7b232a637b1b0ba34b7b760a11b6020830152565b634e487b7160e01b600052602160045260246000fd5b60031115612dcd57565b612dad565b60405190612ddf8261024d565b60088252676c616e677561676560c01b6020830152565b60011115612dcd57565b60405190612e0d8261024d565b6006825265736f7572636560d01b6020830152565b60405190612e2f8261024d565b60048252636172677360e01b6020830152565b60405190612e4f8261024d565b600f82526e39b2b1b932ba39a637b1b0ba34b7b760891b6020830152565b60405190612e7a8261024d565b60078252667365637265747360c81b6020830152565b60405190612e9d8261024d565b600982526862797465734172677360b81b6020830152565b612ebd6131d9565b90612ecf612ec9612d85565b83613229565b612eec8151612edd81612dc3565b612ee681612dc3565b836132eb565b612ef7612ec9612dd2565b612f116040820151612f0881612df6565b612ee681612df6565b612f1c612ec9612e00565b612f2a606082015183613229565b60a0810180515161302a575b506080810190815151612faa575b60c0915001805151612f57575b50515190565b91612f63612ec9612e90565b612f6c8261338c565b60005b83518051821015612f975790612f91612f8a82600194611c4b565b51856134a5565b01612f6f565b50509150612fa481613418565b38612f51565b602081018051612fb981612dc3565b612fc281612dc3565b156130185760c092612ffb61301392612fe2612fdc612e42565b88613229565b51612fec81612dc3565b612ff581612dc3565b866132eb565b61300c613006612e6d565b86613229565b51846134a5565b612f44565b60405163a80d31f760e01b8152600490fd5b9261303c613036612e22565b84613229565b6130458361338c565b60005b84518051821015613070579061306a61306382600194611c4b565b5186613229565b01613048565b5050925061307d82613418565b38612f36565b92906020926001600160401b039263ffffffff6130c2604051978896879663230e93b160e11b885216600487015260a0602487015260a4860190610568565b60016044860152921660648401526084830152038160007f00000000000000000000000000000000000000000000000000000000000000006001600160a01b03165af19081156110105760009161313e575b50807f1131472297a800fee664d1d89cfa8f7676ff07189ecc53f80bbb5f4969099db8600080a290565b613157915060203d60201161100957611001818361029e565b38613114565b6040519063125fa26760e31b6020830152511515602482015260248152606081018181106001600160401b038211176102485760405290565b8151156131ad576000808252604082015260600152565b6040516322ce3edd60e01b8152600490fd5b604051906131cc8261024d565b6000602083606081520152565b6040516131e58161024d565b6131ed6131bf565b80825260208201600081526132006131bf565b50610100602083015260405180925260008252610120820191821061033a576000916040525290565b815161326d9291906001600160401b0381169060178211613270576132589150606060ff845192161790613973565b505b51906132646131bf565b50805191613ba3565b50565b5060ff81116132955761328f90613287835161377a565b508251613b2f565b5061325a565b61ffff81116132b45761328f906132ac8351613715565b508251613ac1565b63ffffffff81116132d55761328f906132cd83516136b0565b508251613a51565b61328f906132e38351613640565b5082516139de565b908151916132f76131bf565b5082515160018101908181116108ef576020850151811015613350575b60c260206102cc9651928301015380518211613348575b5050604051916020830152602082526133438261024d565b6134a5565b52388061332b565b8160011b94828604600214831517156108ef576020816133826102cc9861337b60c295519184613529565b508261357b565b5096505050613314565b8051906133976131bf565b5081515160018101908181116108ef5760208401518110156133e5575b609f60208095519283010153805182116133dd575b505001805190600182018092116108ef5752565b5238806133c9565b8160011b93828504600214831517156108ef5760208161340e829761337b609f95519184613529565b50955050506133b4565b8051906134236131bf565b5081515160018101908181116108ef576020840151811015613472575b60ff602080955192830101538051821161346a575b50500180516000198101919082116108ef5752565b523880613455565b8160011b93828504600214831517156108ef5760208161349b829761337b60ff95519184613529565b5095505050613440565b815161326d9291906001600160401b03811690601782116134d4576132589150604060ff845192161790613973565b5060ff81116134eb5761328f90613287835161390e565b61ffff81116135025761328f906132ac83516138a9565b63ffffffff811161351b5761328f906132cd8351613844565b61328f906132e383516137df565b906135326131bf565b50601f811680613561575b508060208301526040519081835260008252810160200190811061033a5760405290565b602003602081116108ef5781018091116108ef573861353d565b906135846131bf565b508051906135906131bf565b5061359e8151831115613b9c565b825151916135ac818461233a565b60209260208601518211613629575b602091865183815197820101968211613621575b505001915b808210156135f95750600019906020036101000a019081199051169082511617905290565b90919261361561360f61361b928651815261232c565b9461232c565b926117be565b906135d4565b5238806135cf565b61363b61363583611cad565b87613c4f565b6135bb565b6136486131bf565b5080515160018101908181116108ef576020830151811015613681575b607b6020845192830101538051821161367d57505090565b5290565b8160011b828104600214831517156108ef576136aa906136a385519186613529565b508461357b565b50613665565b6136b86131bf565b5080515160018101908181116108ef5760208301518110156136ed575b607a6020845192830101538051821161367d57505090565b8160011b828104600214831517156108ef5761370f906136a385519186613529565b506136d5565b61371d6131bf565b5080515160018101908181116108ef576020830151811015613752575b60796020845192830101538051821161367d57505090565b8160011b828104600214831517156108ef57613774906136a385519186613529565b5061373a565b6137826131bf565b5080515160018101908181116108ef5760208301518110156137b7575b60786020845192830101538051821161367d57505090565b8160011b828104600214831517156108ef576137d9906136a385519186613529565b5061379f565b6137e76131bf565b5080515160018101908181116108ef57602083015181101561381c575b605b6020845192830101538051821161367d57505090565b8160011b828104600214831517156108ef5761383e906136a385519186613529565b50613804565b61384c6131bf565b5080515160018101908181116108ef576020830151811015613881575b605a6020845192830101538051821161367d57505090565b8160011b828104600214831517156108ef576138a3906136a385519186613529565b50613869565b6138b16131bf565b5080515160018101908181116108ef5760208301518110156138e6575b60596020845192830101538051821161367d57505090565b8160011b828104600214831517156108ef57613908906136a385519186613529565b506138ce565b6139166131bf565b5080515160018101908181116108ef57602083015181101561394b575b60586020845192830101538051821161367d57505090565b8160011b828104600214831517156108ef5761396d906136a385519186613529565b50613933565b9061397c6131bf565b5081515160018101918282116108ef5760208401518210156139af575b6020845192830101538051821161367d57505090565b8260011b838104600214841517156108ef576139d8906139d186519187613529565b508561357b565b50613999565b906139e76131bf565b508151518060080191826008116108ef5760208401518311613a29575b6008845192830101906001600160401b03198251161790528051821161367d57505090565b8260011b838104600214841517156108ef57613a4b906139d186519187613529565b50613a04565b90613a5a6131bf565b508151518060040191826004116108ef5760208401518311613a99575b60048451928301019063ffffffff198251161790528051821161367d57505090565b8260011b838104600214841517156108ef57613abb906139d186519187613529565b50613a77565b90613aca6131bf565b508151518060020191826002116108ef5760208401518311613b07575b60028451928301019061ffff198251161790528051821161367d57505090565b8260011b838104600214841517156108ef57613b29906139d186519187613529565b50613ae7565b90613b386131bf565b508151518060010191826001116108ef5760208401518311613b74575b60018451928301019060ff198251161790528051821161367d57505090565b8260011b838104600214841517156108ef57613b96906139d186519187613529565b50613b55565b1561033a57565b9190613bad6131bf565b50613bbb8151831115613b9c565b825151916020613bcb828561233a565b928193828701518111613c38575b865183815197820101968211613c30575b505001915b80821015613c145750600019906020036101000a019081199051169082511617905290565b90919261361561360f613c2a928651815261232c565b90613bef565b523880613bea565b613c4a613c4482611cad565b88613c4f565b613bd9565b9061326d91613c6081519282613529565b5061357b56fed7b6990105719101dabeb77144f2a3385c8033acd3af97e9423a695e81ad1eb5a2646970667358221220b03764eee1a73f1d9511ffb3cfa4c423752d46dcb2f994d9584846590db0a21164736f6c63430008180033",
  "linkReferences": {},
  "deployedLinkReferences": {}
}