{
  "_format": "hh-sol-artifact-1",
  "contractName": "ZKProofAggregator",
  "sourceName": "contracts/ZKProofAggregator.sol",
  "abi": [
    {
      "inputs": [
        {
          "internalType": "address",
          "name": "vrfCoordinator",
          "type": "address"
        },
        {
          "internalType": "address",
          "name": "functionsRouter",
          "type": "address"
        },
        {
          "internalType": "uint256",
          "name": "vrfSubscriptionId",
          "type": "uint256"
        },
        {
          "internalType": "bytes32",
          "name": "vrfKeyHash",
          "type": "bytes32"
        },
        {
          "internalType": "uint64",
          "name": "functionsSubscriptionId",
          "type": "uint64"
        },
        {
          "internalType": "bytes32",
          "name": "functionsDonId",
          "type": "bytes32"
        },
        {
          "internalType": "address",
          "name": "groth16VerifierAddress",
          "type": "address"
        }
      ],
      "stateMutability": "nonpayable",
      "type": "constructor"
    },
    {
      "inputs": [],
      "name": "EmptyArgs",
      "type": "error"
    },
    {
      "inputs": [],
      "name": "EmptySource",
      "type": "error"
    },
    {
      "inputs": [],
      "name": "NoInlineSecrets",
      "type": "error"
    },
    {
      "inputs": [
        {
          "internalType": "address",
          "name": "have",
          "type": "address"
        },
        {
          "internalType": "address",
          "name": "want",
          "type": "address"
        }
      ],
      "name": "OnlyCoordinatorCanFulfill",
      "type": "error"
    },
    {
      "inputs": [
        {
          "internalType": "address",
          "name": "have",
          "type": "address"
        },
        {
          "internalType": "address",
          "name": "owner",
          "type": "address"
        },
        {
          "internalType": "address",
          "name": "coordinator",
          "type": "address"
        }
      ],
      "name": "OnlyOwnerOrCoordinator",
      "type": "error"
    },
    {
      "inputs": [],
      "name": "OnlyRouterCanFulfill",
      "type": "error"
    },
    {
      "inputs": [],
      "name": "ZeroAddress",
      "type": "error"
    },
    {
      "anonymous": false,
      "inputs": [
        {
          "indexed": false,
          "internalType": "address",
          "name": "vrfCoordinator",
          "type": "address"
        }
      ],
      "name": "CoordinatorSet",
      "type": "event"
    },
    {
      "anonymous": false,
      "inputs": [
        {
          "indexed": true,
          "internalType": "bytes32",
          "name": "requestId",
          "type": "bytes32"
        },
        {
          "indexed": false,
          "internalType": "bytes",
          "name": "error",
          "type": "bytes"
        }
      ],
      "name": "FunctionsRequestError",
      "type": "event"
    },
    {
      "anonymous": false,
      "inputs": [
        {
          "indexed": true,
          "internalType": "bytes32",
          "name": "requestId",
          "type": "bytes32"
        },
        {
          "indexed": false,
          "internalType": "string",
          "name": "sourceChain",
          "type": "string"
        },
        {
          "indexed": false,
          "internalType": "uint256",
          "name": "blockNumber",
          "type": "uint256"
        }
      ],
      "name": "FunctionsRequestSent",
      "type": "event"
    },
    {
      "anonymous": false,
      "inputs": [
        {
          "indexed": true,
          "internalType": "bytes32",
          "name": "requestId",
          "type": "bytes32"
        },
        {
          "indexed": false,
          "internalType": "bytes",
          "name": "proof",
          "type": "bytes"
        },
        {
          "indexed": false,
          "internalType": "bytes",
          "name": "publicInputs",
          "type": "bytes"
        }
      ],
      "name": "FunctionsResponseReceived",
      "type": "event"
    },
    {
      "anonymous": false,
      "inputs": [
        {
          "indexed": true,
          "internalType": "address",
          "name": "from",
          "type": "address"
        },
        {
          "indexed": true,
          "internalType": "address",
          "name": "to",
          "type": "address"
        }
      ],
      "name": "OwnershipTransferRequested",
      "type": "event"
    },
    {
      "anonymous": false,
      "inputs": [
        {
          "indexed": true,
          "internalType": "address",
          "name": "from",
          "type": "address"
        },
        {
          "indexed": true,
          "internalType": "address",
          "name": "to",
          "type": "address"
        }
      ],
      "name": "OwnershipTransferred",
      "type": "event"
    },
    {
      "anonymous": false,
      "inputs": [
        {
          "indexed": true,
          "internalType": "uint256",
          "name": "requestId",
          "type": "uint256"
        },
        {
          "indexed": true,
          "internalType": "address",
          "name": "requester",
          "type": "address"
        },
        {
          "indexed": false,
          "internalType": "uint256",
          "name": "blockNumber",
          "type": "uint256"
        }
      ],
      "name": "ProofRequested",
      "type": "event"
    },
    {
      "anonymous": false,
      "inputs": [
        {
          "indexed": true,
          "internalType": "uint256",
          "name": "requestId",
          "type": "uint256"
        },
        {
          "indexed": false,
          "internalType": "bool",
          "name": "isValid",
          "type": "bool"
        },
        {
          "indexed": false,
          "internalType": "bytes32",
          "name": "stateRoot",
          "type": "bytes32"
        }
      ],
      "name": "ProofVerified",
      "type": "event"
    },
    {
      "anonymous": false,
      "inputs": [
        {
          "indexed": true,
          "internalType": "uint256",
          "name": "requestId",
          "type": "uint256"
        },
        {
          "indexed": false,
          "internalType": "uint256",
          "name": "randomValue",
          "type": "uint256"
        },
        {
          "indexed": false,
          "internalType": "uint256",
          "name": "selectedBlock",
          "type": "uint256"
        }
      ],
      "name": "RandomnessReceived",
      "type": "event"
    },
    {
      "anonymous": false,
      "inputs": [
        {
          "indexed": true,
          "internalType": "bytes32",
          "name": "id",
          "type": "bytes32"
        }
      ],
      "name": "RequestFulfilled",
      "type": "event"
    },
    {
      "anonymous": false,
      "inputs": [
        {
          "indexed": true,
          "internalType": "bytes32",
          "name": "id",
          "type": "bytes32"
        }
      ],
      "name": "RequestSent",
      "type": "event"
    },
    {
      "inputs": [],
      "name": "acceptOwnership",
      "outputs": [],
      "stateMutability": "nonpayable",
      "type": "function"
    },
    {
      "inputs": [
        {
          "internalType": "bytes[]",
          "name": "proofs",
          "type": "bytes[]"
        },
        {
          "internalType": "bytes[]",
          "name": "publicInputsArray",
          "type": "bytes[]"
        }
      ],
      "name": "aggregateProofs",
      "outputs": [
        {
          "internalType": "bytes32",
          "name": "aggregatedHash",
          "type": "bytes32"
        }
      ],
      "stateMutability": "nonpayable",
      "type": "function"
    },
    {
      "inputs": [
        {
          "internalType": "uint256",
          "name": "",
          "type": "uint256"
        },
        {
          "internalType": "uint256",
          "name": "",
          "type": "uint256"
        }
      ],
      "name": "aggregatedProofHashes",
      "outputs": [
        {
          "internalType": "bytes32",
          "name": "",
          "type": "bytes32"
        }
      ],
      "stateMutability": "view",
      "type": "function"
    },
    {
      "inputs": [
        {
          "internalType": "address",
          "name": "",
          "type": "address"
        }
      ],
      "name": "authorizedCallers",
      "outputs": [
        {
          "internalType": "bool",
          "name": "",
          "type": "bool"
        }
      ],
      "stateMutability": "view",
      "type": "function"
    },
    {
      "inputs": [
        {
          "internalType": "bytes",
          "name": "",
          "type": "bytes"
        }
      ],
      "name": "checkUpkeep",
      "outputs": [
        {
          "internalType": "bool",
          "name": "upkeepNeeded",
          "type": "bool"
        },
        {
          "internalType": "bytes",
          "name": "",
          "type": "bytes"
        }
      ],
      "stateMutability": "view",
      "type": "function"
    },
    {
      "inputs": [],
      "name": "contractOwner",
      "outputs": [
        {
          "internalType": "address",
          "name": "",
          "type": "address"
        }
      ],
      "stateMutability": "view",
      "type": "function"
    },
    {
      "inputs": [
        {
          "internalType": "bytes32",
          "name": "",
          "type": "bytes32"
        }
      ],
      "name": "functionsRequestToProofId",
      "outputs": [
        {
          "internalType": "uint256",
          "name": "",
          "type": "uint256"
        }
      ],
      "stateMutability": "view",
      "type": "function"
    },
    {
      "inputs": [
        {
          "internalType": "uint256",
          "name": "requestId",
          "type": "uint256"
        }
      ],
      "name": "getProofRequest",
      "outputs": [
        {
          "components": [
            {
              "internalType": "address",
              "name": "requester",
              "type": "address"
            },
            {
              "internalType": "uint256",
              "name": "timestamp",
              "type": "uint256"
            },
            {
              "internalType": "string",
              "name": "sourceChain",
              "type": "string"
            },
            {
              "internalType": "uint256",
              "name": "blockNumber",
              "type": "uint256"
            },
            {
              "internalType": "bytes32",
              "name": "stateRoot",
              "type": "bytes32"
            },
            {
              "internalType": "bool",
              "name": "isCompleted",
              "type": "bool"
            },
            {
              "internalType": "bool",
              "name": "isValid",
              "type": "bool"
            }
          ],
          "internalType": "struct ZKProofAggregator.ProofRequest",
          "name": "",
          "type": "tuple"
        }
      ],
      "stateMutability": "view",
      "type": "function"
    },
    {
      "inputs": [],
      "name": "getSubscriptionId",
      "outputs": [
        {
          "internalType": "uint256",
          "name": "",
          "type": "uint256"
        }
      ],
      "stateMutability": "view",
      "type": "function"
    },
    {
      "inputs": [],
      "name": "groth16Verifier",
      "outputs": [
        {
          "internalType": "contract Groth16Verifier",
          "name": "",
          "type": "address"
        }
      ],
      "stateMutability": "view",
      "type": "function"
    },
    {
      "inputs": [
        {
          "internalType": "bytes32",
          "name": "requestId",
          "type": "bytes32"
        },
        {
          "internalType": "bytes",
          "name": "response",
          "type": "bytes"
        },
        {
          "internalType": "bytes",
          "name": "err",
          "type": "bytes"
        }
      ],
      "name": "handleOracleFulfillment",
      "outputs": [],
      "stateMutability": "nonpayable",
      "type": "function"
    },
    {
      "inputs": [
        {
          "internalType": "bytes32",
          "name": "stateRoot",
          "type": "bytes32"
        }
      ],
      "name": "isStateVerified",
      "outputs": [
        {
          "internalType": "bool",
          "name": "",
          "type": "bool"
        }
      ],
      "stateMutability": "view",
      "type": "function"
    },
    {
      "inputs": [],
      "name": "lastUpkeepTimestamp",
      "outputs": [
        {
          "internalType": "uint256",
          "name": "",
          "type": "uint256"
        }
      ],
      "stateMutability": "view",
      "type": "function"
    },
    {
      "inputs": [],
      "name": "owner",
      "outputs": [
        {
          "internalType": "address",
          "name": "",
          "type": "address"
        }
      ],
      "stateMutability": "view",
      "type": "function"
    },
    {
      "inputs": [
        {
          "internalType": "bytes",
          "name": "",
          "type": "bytes"
        }
      ],
      "name": "performUpkeep",
      "outputs": [],
      "stateMutability": "nonpayable",
      "type": "function"
    },
    {
      "inputs": [
        {
          "internalType": "uint256",
          "name": "",
          "type": "uint256"
        }
      ],
      "name": "proofRequests",
      "outputs": [
        {
          "internalType": "address",
          "name": "requester",
          "type": "address"
        },
        {
          "internalType": "uint256",
          "name": "timestamp",
          "type": "uint256"
        },
        {
          "internalType": "string",
          "name": "sourceChain",
          "type": "string"
        },
        {
          "internalType": "uint256",
          "name": "blockNumber",
          "type": "uint256"
        },
        {
          "internalType": "bytes32",
          "name": "stateRoot",
          "type": "bytes32"
        },
        {
          "internalType": "bool",
          "name": "isCompleted",
          "type": "bool"
        },
        {
          "internalType": "bool",
          "name": "isValid",
          "type": "bool"
        }
      ],
      "stateMutability": "view",
      "type": "function"
    },
    {
      "inputs": [
        {
          "internalType": "uint256",
          "name": "requestId",
          "type": "uint256"
        },
        {
          "internalType": "uint256[]",
          "name": "randomWords",
          "type": "uint256[]"
        }
      ],
      "name": "rawFulfillRandomWords",
      "outputs": [],
      "stateMutability": "nonpayable",
      "type": "function"
    },
    {
      "inputs": [],
      "name": "requestCounter",
      "outputs": [
        {
          "internalType": "uint256",
          "name": "",
          "type": "uint256"
        }
      ],
      "stateMutability": "view",
      "type": "function"
    },
    {
      "inputs": [
        {
          "internalType": "string",
          "name": "sourceChain",
          "type": "string"
        },
        {
          "internalType": "uint256",
          "name": "targetBlockNumber",
          "type": "uint256"
        }
      ],
      "name": "requestProofVerification",
      "outputs": [
        {
          "internalType": "uint256",
          "name": "requestId",
          "type": "uint256"
        }
      ],
      "stateMutability": "nonpayable",
      "type": "function"
    },
    {
      "inputs": [],
      "name": "s_vrfCoordinator",
      "outputs": [
        {
          "internalType": "contract IVRFCoordinatorV2Plus",
          "name": "",
          "type": "address"
        }
      ],
      "stateMutability": "view",
      "type": "function"
    },
    {
      "inputs": [
        {
          "internalType": "address",
          "name": "caller",
          "type": "address"
        },
        {
          "internalType": "bool",
          "name": "authorized",
          "type": "bool"
        }
      ],
      "name": "setAuthorizedCaller",
      "outputs": [],
      "stateMutability": "nonpayable",
      "type": "function"
    },
    {
      "inputs": [
        {
          "internalType": "address",
          "name": "_vrfCoordinator",
          "type": "address"
        }
      ],
      "name": "setCoordinator",
      "outputs": [],
      "stateMutability": "nonpayable",
      "type": "function"
    },
    {
      "inputs": [
        {
          "internalType": "uint64",
          "name": "subscriptionId",
          "type": "uint64"
        },
        {
          "internalType": "uint32",
          "name": "gasLimit",
          "type": "uint32"
        },
        {
          "internalType": "bytes32",
          "name": "donId",
          "type": "bytes32"
        }
      ],
      "name": "setFunctionsConfig",
      "outputs": [],
      "stateMutability": "nonpayable",
      "type": "function"
    },
    {
      "inputs": [
        {
          "internalType": "string",
          "name": "source",
          "type": "string"
        }
      ],
      "name": "setFunctionsSource",
      "outputs": [],
      "stateMutability": "nonpayable",
      "type": "function"
    },
    {
      "inputs": [
        {
          "internalType": "string",
          "name": "url",
          "type": "string"
        }
      ],
      "name": "setProofServiceUrl",
      "outputs": [],
      "stateMutability": "nonpayable",
      "type": "function"
    },
    {
      "inputs": [
        {
          "internalType": "uint256",
          "name": "newInterval",
          "type": "uint256"
        }
      ],
      "name": "setUpkeepInterval",
      "outputs": [],
      "stateMutability": "nonpayable",
      "type": "function"
    },
    {
      "inputs": [
        {
          "internalType": "uint256",
          "name": "subscriptionId",
          "type": "uint256"
        },
        {
          "internalType": "bytes32",
          "name": "keyHash",
          "type": "bytes32"
        },
        {
          "internalType": "uint32",
          "name": "callbackGasLimit",
          "type": "uint32"
        }
      ],
      "name": "setVRFConfig",
      "outputs": [],
      "stateMutability": "nonpayable",
      "type": "function"
    },
    {
      "inputs": [
        {
          "internalType": "address",
          "name": "to",
          "type": "address"
        }
      ],
      "name": "transferOwnership",
      "outputs": [],
      "stateMutability": "nonpayable",
      "type": "function"
    },
    {
      "inputs": [],
      "name": "upkeepInterval",
      "outputs": [
        {
          "internalType": "uint256",
          "name": "",
          "type": "uint256"
        }
      ],
      "stateMutability": "view",
      "type": "function"
    },
    {
      "inputs": [
        {
          "internalType": "bytes32",
          "name": "",
          "type": "bytes32"
        }
      ],
      "name": "usedProofHashes",
      "outputs": [
        {
          "internalType": "bool",
          "name": "",
          "type": "bool"
        }
      ],
      "stateMutability": "view",
      "type": "function"
    },
    {
      "inputs": [
        {
          "internalType": "bytes32",
          "name": "",
          "type": "bytes32"
        }
      ],
      "name": "verifiedProofs",
      "outputs": [
        {
          "internalType": "bool",
          "name": "",
          "type": "bool"
        }
      ],
      "stateMutability": "view",
      "type": "function"
    }
  ],
  "bytecode": "0x60c034620001d257601f62003dfb38819003918201601f19168301926001600160401b0392909183851183861017620001d7578160e09284926040978852833981010312620001d2576200005381620001ed565b6200006160208301620001ed565b928483015192606081015160808201519283168303620001d2576200008e60c060a08401519301620001ed565b9233156200018e57600080546001600160a01b03199081163317909155966001600160a01b0395861680156200017d57740493e00000000000000000000000010003002625a093929187918a600254161760025516608052610e10600755600a549160ff1997600889600e541617600e556008556009556a0100000000000000000000600160901b039060501b169060018060b01b0319161717600a55600b551660a05233600052601260205260018360002091825416179055339060135416176013554260065551613bf8908162000203823960805181818161039c0152613037015260a051816107070152f35b895163d92e233d60e01b8152600490fd5b875162461bcd60e51b815260206004820152601860248201527f43616e6e6f7420736574206f776e657220746f207a65726f00000000000000006044820152606490fd5b600080fd5b634e487b7160e01b600052604160045260246000fd5b51906001600160a01b0382168203620001d25756fe6080604052600436101561001257600080fd5b60003560e01c80630ca76175146102025780631098241b146101fd578063152a9526146101f8578063176d80c41461018f57806319c813be146101f35780631bd6447a146101ee5780631fe543e3146101e957806325825746146101e457806336e0025f146101df57806339a9e4b3146101da578063454bbd29146101d55780634585e33b146101d0578063536fff6c146101cb57806356959332146101c657806357efe032146101c15780635a74373c146101bc578063624cffd4146101b75780636e04ff0d146101b257806372e4c9f6146101ad57806379ba5097146101a85780638da5cb5b146101a35780638ea981171461019e578063973a814e146101995780639eccacf614610194578063a9431f231461018f578063b5cce1331461018a578063ce606ee014610185578063d175d81a14610180578063d87318b21461017b578063de3d9fb7146101765763f2fde38b1461017157600080fd5b61148d565b61146f565b61143e565b61136e565b611345565b6112ef565b6106c0565b6112c6565b6112a8565b611233565b61120a565b61114b565b61111d565b6110d0565b6110b2565b611094565b610f95565b610f69565b610f2a565b610e7b565b610dd1565b610d77565b610c5d565b610be4565b610801565b610749565b6106f1565b6105f3565b610437565b61034d565b634e487b7160e01b600052604160045260246000fd5b60e081019081106001600160401b0382111761023857604052565b610207565b604081019081106001600160401b0382111761023857604052565b602081019081106001600160401b0382111761023857604052565b60c081019081106001600160401b0382111761023857604052565b90601f801991011681019081106001600160401b0382111761023857604052565b604051906102bc8261021d565b565b604051906102bc82610258565b604051906102bc82610273565b6001600160401b03811161023857601f01601f191660200190565b9291926102ff826102d8565b9161030d604051938461028e565b82948184528183011161032a578281602093846000960137010152565b600080fd5b9080601f8301121561032a5781602061034a933591016102f3565b90565b3461032a57606036600319011261032a576004356001600160401b0360243581811161032a5761038190369060040161032f565b9060443590811161032a5761039a90369060040161032f565b7f00000000000000000000000000000000000000000000000000000000000000006001600160a01b031633036103fb576103d49183611fff565b7f85e1543bf2f84fe80c6badbce3648c8539ad1df4d2b3d822938ca0538be727e6600080a2005b60405163c6829f8360e01b8152600490fd5b602060031982011261032a57600435906001600160401b03821161032a5761034a9160040161032f565b3461032a576104453661040d565b61045a60018060a01b03601354163314611582565b80516001600160401b0381116102385761047e81610479600d5461094f565b6115bb565b602080601f83116001146104c0575081906104b0936000926104b5575b50508160011b916000199060031b1c19161790565b600d55005b01519050388061049b565b90601f198316936104f3600d6000527fd7b6990105719101dabeb77144f2a3385c8033acd3af97e9423a695e81ad1eb590565b926000905b86821061052f5750508360019510610516575b505050811b01600d55005b015160001960f88460031b161c1916905538808061050b565b806001859682949686015181550195019301906104f8565b60005b83811061055a5750506000910152565b818101518382015260200161054a565b9060209161058381518092818552858086019101610547565b601f01601f1916010190565b6020815260018060a01b0382511660208201526020820151604082015260e060c06105c9604085015183606086015261010085019061056a565b9360608101516080850152608081015160a085015260a08101511515828501520151151591015290565b3461032a57602036600319011261032a576106bc60408060c081516106178161021d565b60009181838093528260208201526060858201528260608201528260808201528260a082015201526004358152600360205220906106b260ff600583519461065e8661021d565b80546001600160a01b031686526001810154602087015261068160028201610b82565b8686015260038101546060870152600481015460808701520154818116151560a086015260081c16151560c0840152565b519182918261058f565b0390f35b3461032a57602036600319011261032a57600435600052600f602052602060ff604060002054166040519015158152f35b3461032a57600036600319011261032a576040517f00000000000000000000000000000000000000000000000000000000000000006001600160a01b03168152602090f35b6024359063ffffffff8216820361032a57565b3461032a57606036600319011261032a576004356001600160401b038116810361032a57610775610736565b61078a60018060a01b03601354163314611582565b600a80546bffffffffffffffffffffffff60501b191660509390931b67ffffffffffffffff60501b169290921760909190911b63ffffffff60901b16179055604435600b55005b9181601f8401121561032a578235916001600160401b03831161032a576020808501948460051b01011161032a57565b3461032a57604036600319011261032a576004356024356001600160401b03811161032a576108349036906004016107d1565b600254919290916001600160a01b03163381900361093157508060005260046020526040600020549081156108f6576103e71943014381116108f157846108d96108b87f2374d5481494ad7962d4bd1b98b91e9f3117c9b66533b2804be3d76c41a49088936108b26108a9896108ef9b612271565b356103e8900690565b90612296565b9586928360036108d2896000526003602052604060002090565b0155612271565b60408051913582526020820192909252a26124c2565b005b6116f5565b60405162461bcd60e51b8152602060048201526013602482015272125b9d985b1a5908159491881c995c5d595cdd606a1b6044820152606490fd5b6044906040519063073e64fd60e21b82523360048301526024820152fd5b90600182811c9216801561097f575b602083101461096957565b634e487b7160e01b600052602260045260246000fd5b91607f169161095e565b8054600093926109988261094f565b91828252602093600191600181169081600014610a0057506001146109bf575b5050505050565b90939495506000929192528360002092846000945b8386106109ec575050505001019038808080806109b8565b8054858701830152940193859082016109d4565b60ff19168685015250505090151560051b0101915038808080806109b8565b60405190600082600c5491610a338361094f565b80835292602090600190818116908115610abf5750600114610a5e575b50506102bc9250038361028e565b915092600c6000527fdf6966c971051c3d54ec59162606531493a51404a002842f56009d7e5cf4a8c7936000925b828410610aa757506102bc9450505081016020013880610a50565b85548885018301529485019487945092810192610a8c565b915050602092506102bc94915060ff191682840152151560051b8201013880610a50565b60405190600082600d5491610af78361094f565b80835292602090600190818116908115610abf5750600114610b215750506102bc9250038361028e565b915092600d6000527fd7b6990105719101dabeb77144f2a3385c8033acd3af97e9423a695e81ad1eb5936000925b828410610b6a57506102bc9450505081016020013880610a50565b85548885018301529485019487945092810192610b4f565b906102bc610b969260405193848092610989565b038361028e565b959260c09592610bcb929998959960018060a01b03168852602088015260e0604088015260e087019061056a565b9660608601526080850152151560a08401521515910152565b3461032a57602036600319011261032a576004356000526003602052604060002060018060a01b03815416906106bc60018201549160405193610c3585610c2e8160028601610989565b038661028e565b600382015491600560048201549101549260405196879660ff808760081c1696169488610b9d565b3461032a57610c6b3661040d565b610c8060018060a01b03601354163314611582565b80516001600160401b03811161023857610ca481610c9f600c5461094f565b61162d565b602080601f8311600114610cda57508190610cd5936000926104b55750508160011b916000199060031b1c19161790565b600c55005b90601f19831693610d0d600c6000527fdf6966c971051c3d54ec59162606531493a51404a002842f56009d7e5cf4a8c790565b926000905b868210610d495750508360019510610d30575b505050811b01600c55005b015160001960f88460031b161c19169055388080610d25565b80600185968294968601518155019501930190610d12565b634e487b7160e01b600052603260045260246000fd5b3461032a57604036600319011261032a5760243560009060043582526010602052604082208054821015610db75782526020918290200154604051908152f35b8280fd5b600435906001600160a01b038216820361032a57565b3461032a57604036600319011261032a57610dea610dbb565b602435801515810361032a576013546108ef926001600160a01b0391610e139083163314611582565b16600052601260205260406000209060ff801983541691151516179055565b90602060031983011261032a576004356001600160401b039283821161032a578060238301121561032a57816004013593841161032a576024848301011161032a576024019190565b3461032a57610e8936610e32565b505060065442034281116108f157610ea49060075410611736565b610ead42600655565b60408051632bf7f01960e11b815260048101919091526008604482015267657468657265756d60c01b606482015260006024820152602081806084810103816000305af18015610f2557610efd57005b6108ef9060203d602011610f1e575b610f16818361028e565b810190611776565b503d610f0c565b611785565b3461032a57602036600319011261032a576001600160a01b03610f4b610dbb565b166000526012602052602060ff604060002054166040519015158152f35b3461032a57602036600319011261032a5760043560005260046020526020604060002054604051908152f35b3461032a57604036600319011261032a576004356001600160401b03811161032a57610fc86106bc91369060040161032f565b60243561102e610fd9600554611791565b92610fe384600555565b610feb6102af565b33815290426020830152604082015282606082015260006080820152600060a0820152600060c0820152611029846000526003602052604060002090565b6117a0565b806110855761103c826126d4565b817f7ef8ca77fdc89c79f093f2a6b2348b1fcda0beb941ce31ce9f2d9d260c4db9d2604051806110723395829190602083019252565b0390a36040519081529081906020820190565b61108f81836124c2565b61103c565b3461032a57600036600319011261032a576020600754604051908152f35b3461032a57600036600319011261032a576020600654604051908152f35b3461032a576110de36610e32565b505060065442034281116108f15760075410604051906110fd82610258565b600082526106bc604051928392835260406020840152604083019061056a565b3461032a57602036600319011261032a5761114360018060a01b03601354163314611582565b600435600755005b3461032a57600080600319360112611207576001546001600160a01b0390811633036111c95781546001600160a01b0316600080546001600160a01b0319163317905590600180546001600160a01b03191690553391167f8be0079c531659141344cd1fd0a4f28419497f9722a3daafe3b4186f6b6457e08380a380f35b60405162461bcd60e51b815260206004820152601660248201527526bab9ba10313290383937b837b9b2b21037bbb732b960511b6044820152606490fd5b80fd5b3461032a57600036600319011261032a576000546040516001600160a01b039091168152602090f35b3461032a57602036600319011261032a5761124c610dbb565b6000546001600160a01b0390811690338214158061129a575b611272576108ef83611925565b60649250600254166040519163061db9c160e01b835233600484015260248301526044820152fd5b508060025416331415611265565b3461032a57600036600319011261032a576020600554604051908152f35b3461032a57600036600319011261032a576002546040516001600160a01b039091168152602090f35b3461032a57606036600319011261032a5760443563ffffffff811680910361032a5761132660018060a01b03601354163314611582565b60043560085560243560095563ffffffff19600a541617600a55600080f35b3461032a57600036600319011261032a576013546040516001600160a01b039091168152602090f35b3461032a57604036600319011261032a576001600160401b0360043581811161032a5761139f9036906004016107d1565b9160243590811161032a576113b89036906004016107d1565b9033600052601260205260ff60406000205416801561142a575b156113f4576106bc936113e493611cb1565b6040519081529081906020820190565b60405162461bcd60e51b815260206004820152600e60248201526d139bdd08185d5d1a1bdc9a5e995960921b6044820152606490fd5b506013546001600160a01b031633146113d2565b3461032a57602036600319011261032a576004356000526011602052602060ff604060002054166040519015158152f35b3461032a57600036600319011261032a576020600854604051908152f35b3461032a57602036600319011261032a576114a6610dbb565b6000546001600160a01b0390811691338390036115445716903382146114ff57600180546001600160a01b031916831790557fed8889f560326eb138920d842192f0eb3dd22b4f139c87a2c57538e05bae1278600080a3005b60405162461bcd60e51b815260206004820152601760248201527f43616e6e6f74207472616e7366657220746f2073656c660000000000000000006044820152606490fd5b60405162461bcd60e51b815260206004820152601660248201527527b7363c9031b0b63630b1363290313c9037bbb732b960511b6044820152606490fd5b1561158957565b60405162461bcd60e51b815260206004820152600a60248201526927b7363c9037bbb732b960b11b6044820152606490fd5b601f81116115c7575050565b600090600d6000527fd7b6990105719101dabeb77144f2a3385c8033acd3af97e9423a695e81ad1eb5906020601f850160051c83019410611623575b601f0160051c01915b82811061161857505050565b81815560010161160c565b9092508290611603565b601f8111611639575050565b600090600c6000527fdf6966c971051c3d54ec59162606531493a51404a002842f56009d7e5cf4a8c7906020601f850160051c83019410611695575b601f0160051c01915b82811061168a57505050565b81815560010161167e565b9092508290611675565b90601f81116116ad57505050565b6000916000526020600020906020601f850160051c830194106116eb575b601f0160051c01915b8281106116e057505050565b8181556001016116d4565b90925082906116cb565b634e487b7160e01b600052601160045260246000fd5b6000198101919082116108f157565b601f198101919082116108f157565b919082039182116108f157565b1561173d57565b60405162461bcd60e51b8152602060048201526011602482015270155c1ad9595c081b9bdd081b9959591959607a1b6044820152606490fd5b9081602091031261032a575190565b6040513d6000823e3d90fd5b60001981146108f15760010190565b815181546001600160a01b0319166001600160a01b0391909116178155600160209060208401516001840155600283019160408501518051926001600160401b038411610238576117fb846117f5875461094f565b8761169f565b602092601f85116001146118935750509361187d9361183b8460c0956005956102bc9a996000926104b55750508160011b916000199060031b1c19161790565b90555b6060850151600382015560808501516004820155019261187661186460a0830151151590565b859060ff801983541691151516179055565b0151151590565b815461ff00191690151560081b61ff0016179055565b929190601f198516906118ab87600052602060002090565b946000915b8383106118fb57505050846005946102bc99989461187d989460c098600195106118e2575b505050811b01905561183e565b015160001960f88460031b161c191690553880806118d5565b8486015187559586019594810194918101916118b0565b6040519061191f82610258565b60008252565b6001600160a01b0316801561197a576020817fd1a6a14209a385a964d036e404cb5cfb71f4000cdb03c9366292430787261be6926bffffffffffffffffffffffff60a01b6002541617600255604051908152a1565b60405163d92e233d60e01b8152600490fd5b1561199357565b60405162461bcd60e51b8152602060048201526014602482015273496e76616c696420696e7075742061727261797360601b6044820152606490fd5b156119d657565b60405162461bcd60e51b815260206004820152601c60248201527f546f6f206d616e792070726f6f667320746f20616767726567617465000000006044820152606490fd5b6001600160401b0381116102385760051b60200190565b90611a3c82611a1b565b611a49604051918261028e565b8281528092611a5a601f1991611a1b565b0190602036910137565b9190811015611aa55760051b81013590601e198136030182121561032a5701908135916001600160401b03831161032a57602001823603811361032a579190565b610d61565b15611ab157565b60405162461bcd60e51b815260206004820152601c60248201527f496e76616c69642070726f6f6620696e206167677265676174696f6e000000006044820152606490fd5b908092918237016000815290565b15611b0b57565b60405162461bcd60e51b815260206004820152602160248201527f50726f6f6620616c7265616479207573656420696e206167677265676174696f6044820152603760f91b6064820152608490fd5b805115611aa55760200190565b805160011015611aa55760400190565b805160021015611aa55760600190565b805160031015611aa55760800190565b805160041015611aa55760a00190565b8051821015611aa55760209160051b010190565b9193929093845160208096019060005b818110611bf557505050825260601b6bffffffffffffffffffffffff191660208201526034019150565b825186529487019491870191600101611bcb565b908160011b91808304600214901517156108f157565b8151916001600160401b03831161023857680100000000000000008311610238578154838355808410611c86575b50611c62602080920192600052602060002090565b9060005b848110611c74575050505050565b83518382015592810192600101611c66565b60008360005284602060002092830192015b828110611ca6575050611c4d565b818155600101611c98565b9192909281841480611e83575b611cc79061198c565b611cd4600a8511156119cf565b611cdd84611a32565b9360005b818110611dad5750505050506040516020810190611d1381611d0533428787611bbb565b03601f19810183528261028e565b51902090611d48611d25600554611791565b91611d2f83600555565b611d43836000526010602052604060002090565b611c1f565b611d6c611d5f83600052600f602052604060002090565b805460ff19166001179055565b7f6dd2118914ad2b9a98780fafd92846eebe9361998a810f1a05f67033b17e2cdd60405180611da78582919060206040840193600181520152565b0390a290565b80611df2611ded611de7611dc4600195878b611a64565b611ddf611dd5878c8c969596611a64565b94909236916102f3565b9236916102f3565b906127b6565b611aaa565b611e7d611d5f611e31611e2b611e0985888c611a64565b9290611d05611e19888d8d611a64565b60405195869460208601988991611af6565b91611af6565b519020611e61611e5c611e58611e51846000526011602052604060002090565b5460ff1690565b1590565b611b04565b80611e6c858c611ba7565b526000526011602052604060002090565b01611ce1565b50831515611cbe565b15611e9357565b60405162461bcd60e51b815260206004820152601960248201527f496e76616c69642046756e6374696f6e732072657175657374000000000000006044820152606490fd5b90602061034a92818152019061056a565b60405190611ef68261023d565b60078252667375636365737360c81b6020830152565b60405190611f198261023d565b600c82526b3430b9a932b0b6283937b7b360a11b6020830152565b60405190611f418261023d565b600c82526b0ecc2d8d2c8d2e8f290c2e6d60a31b6020830152565b90611f6f60209282815194859201610547565b0190565b6020929190611f89849282815194859201610547565b019081520190565b60405190611f9e8261023d565b6005825264383937b7b360d91b6020830152565b60405190611fbf8261023d565b600d82526c7075626c69635369676e616c7360981b6020830152565b611fef60209260408352604083019061056a565b9082818303910152600081520190565b91612014836000526004602052604060002090565b5490612021821515611e8c565b805161221857507f50348c1af87d1d2e61e0a7e9bf83a9c67f047d8de73be6b88acac8655a97581e916121749161205f612059611ee9565b836127ea565b612073826000526003602052604060002090565b60058101805460ff191660011781559091156121d4577f6dd2118914ad2b9a98780fafd92846eebe9361998a810f1a05f67033b17e2cdd916120bc6120b6611f0c565b866127ea565b156121bf576120d26120cc611f91565b866128fe565b6120e36120dd611fb2565b876128fe565b81511515806121b5575b1561217957612133926121649492611d0561211e600494604051928391612118602084018097611f5c565b90611f5c565b51902093849361010061ff0019825416179055565b015561214c611d5f82600052600f602052604060002090565b60405191829182919060206040840193600181520152565b0390a25b60405191829182611fdb565b0390a2565b50506121ad91600461213392612196612190611f34565b896128fe565b60405161211e81611d056020820194429086611f73565b0390a2612168565b50805115156120ed565b6121ad91600461213392612196612190611f34565b805461ff0019169055507f6dd2118914ad2b9a98780fafd92846eebe9361998a810f1a05f67033b17e2cdd604051806121ad81906000602060408401938281520152565b7f8117ad48db1a08344670d33acdeb14d7ec953b1119dafa9ab361e5e721d4356292506122656005612257612174946000526003602052604060002090565b01805460ff19166001179055565b60405191829182611ed8565b9015611aa55790565b60300190816030116108f157565b90602082018092116108f157565b919082018092116108f157565b6040519061016082018281106001600160401b038211176102385760405261013182527072696e6769667928726573756c7429293b60781b610140837f636f6e737420636861696e49643d7061727365496e7428617267735b305d293b60208201527f636f6e737420626c6f636b4e756d626572733d4a534f4e2e706172736528617260408201527f67735b315d293b636f6e737420726573756c743d7b737563636573733a74727560608201527f652c636861696e49642c626c6f636b4e756d626572732c76616c69646974794860808201527f6173683a2730783132333435363738393061626364656631323334353637383960a08201527f306162636465663132333435363738393061626364656631323334353637383960c08201527f30616263646566272c6d657461646174613a7b74696d657374616d703a4d617460e08201527f682e666c6f6f7228446174652e6e6f7728292f31303030297d7d3b72657475726101008201527f6e2046756e6374696f6e732e656e636f6465537472696e67284a534f4e2e73746101208201520152565b604051906124488261021d565b606060c08360008152600060208201526000604082015282808201528260808201528260a08201520152565b6040519061248182610273565b600582528160005b60a08110612495575050565b806060602080938501015201612489565b9291906124bd602091604086526040860190610989565b930152565b907f89652d00e157965d54f5ad31af9352416c4e90b879711ec122680d4e3a1de9a6906124f9836000526003602052604060002090565b612501610a1f565b805115612666575b61261d6126419161252261251b61243b565b91826130f2565b612618600261252f612474565b95019461254b61254661254188610b82565b612aa2565b612c22565b61255482611b5a565b5261255e81611b5a565b5061258c61259961256e89612c22565b611d0560405193849261211860208501600190605b60f81b81520190565b605d60f81b815260010190565b6125a282611b67565b526125ac81611b67565b506125c56125466125bf600e5460ff1690565b60ff1690565b6125ce82611b77565b526125d881611b77565b506125e246612c22565b6125eb82611b87565b526125f581611b87565b506125fe610ae3565b61260782611b97565b5261261181611b97565b5082612cc2565b612e11565b600a54600b54916001600160401b0363ffffffff8360901c169260501c1690612fdf565b93612656856000526004602052604060002090565b55612174604051928392836124a6565b5061264161261d6126756122a3565b915050612509565b60e060a061034a9360208452805160208501526020810151604085015261ffff6040820151166060850152606081015163ffffffff80911660808601526080820151168285015201519160c080820152019061056a565b60025460009060209061276d906001600160a01b031660095460085461274c600a5463ffffffff9061270f6127076102be565b8a81526130b9565b936127186102cb565b9586528886015280881c61ffff16604086015263ffffffff81831616606086015260301c16608084019063ffffffff169052565b60a0820152604051948580948193634d8e1c2f60e11b83526004830161267d565b03925af18015610f255761279491600091612797575b506000526004602052604060002090565b55565b6127b0915060203d602011610f1e57610f16818361028e565b38612783565b51159081156127cf575b506127ca57600190565b600090565b90505115386127c0565b908151811015611aa5570160200190565b604051601160f91b60208201529091612822908290611d05906128109060218401612118565b65223a7472756560d01b815260060190565b6000905b6128338351825190611729565b82116128ce5760019260005b82518110156128c45761286c61285e6128588387612296565b846127d9565b516001600160f81b03191690565b61288961287c61285e84876127d9565b6001600160f81b03191690565b6001600160f81b0319909116036128a25760010161283f565b5092509060005b6128bc576128b690611791565b90612826565b505050600190565b50929190916128a9565b505050600090565b906128e0826102d8565b6128ed604051918261028e565b8281528092611a5a601f19916102d8565b916129416129249261293360405194859261211860208501600190601160f91b81520190565b62111d1160e91b815260030190565b03601f19810184528361028e565b6000905b6129528451845190611729565b8211612a965760019260005b8151811015612a8c5761297d61285e6129778387612296565b886127d9565b61298d61287c61285e84866127d9565b6001600160f81b0319909116036129a65760010161295e565b5092509060005b6129c1575b6129bb90611791565b90612945565b906129cd835183612296565b92835b8551811080612a68575b156129ed576129e890611791565b6129d0565b9093929192808211612a005750506129b2565b91509250612a16612a118285611729565b6128d6565b9160005b612a248386611729565b811015612a5f5782600182612a4861285e612a42612a249686612296565b8b6127d9565b60001a612a5582896127d9565b5301915050612a1a565b50935050905090565b50601160f91b6001600160f81b0319612a8461285e848a6127d9565b1614156129da565b50929190916129ad565b9250505061034a611912565b60409081519060209082612ab98382018093611f5c565b0392612acd601f199485810183528261028e565b51902092805182810190612b0081612af48460089067657468657265756d60c01b81520190565b0386810183528261028e565b5190208414612c1957805167617262697472756d60c01b83820190815290612b2b8160088401612af4565b5190208414612c0f578051676f7074696d69736d60c01b83820190815290612b568160088401612af4565b5190208414612c06578051636261736560e01b83820190815290612b7d8160048401612af4565b5190208414612bfc578051663837b63cb3b7b760c91b83820190815290612ba78160078401612af4565b5190208414612bf357612be090519182019282612bd485600990686176616c616e63686560b81b81520190565b0390810183528261028e565b51902014612bed57600190565b61a86a90565b50505050608990565b5050505061210590565b50505050600a90565b5050505061a4b190565b50505050600190565b8015612ca4576000818181805b612c8c5750612c3d816128d6565b935b612c495750505090565b612c529061170b565b90600a90612c77612c676125bf84840661227a565b60f81b6001600160f81b03191690565b841a612c8384876127d9565b53049081612c3f565b9150612c99600a91611791565b910480849291612c2f565b50604051612cb18161023d565b60018152600360fc1b602082015290565b815115612ccf5760a00152565b60405163fe936cb760e01b8152600490fd5b60405190612cee8261023d565b600c82526b31b7b232a637b1b0ba34b7b760a11b6020830152565b634e487b7160e01b600052602160045260246000fd5b60031115612d2957565b612d09565b60405190612d3b8261023d565b60088252676c616e677561676560c01b6020830152565b60011115612d2957565b60405190612d698261023d565b6006825265736f7572636560d01b6020830152565b60405190612d8b8261023d565b60048252636172677360e01b6020830152565b60405190612dab8261023d565b600f82526e39b2b1b932ba39a637b1b0ba34b7b760891b6020830152565b60405190612dd68261023d565b60078252667365637265747360c81b6020830152565b60405190612df98261023d565b600982526862797465734172677360b81b6020830152565b612e19613135565b90612e2b612e25612ce1565b83613185565b612e488151612e3981612d1f565b612e4281612d1f565b83613247565b612e53612e25612d2e565b612e6d6040820151612e6481612d52565b612e4281612d52565b612e78612e25612d5c565b612e86606082015183613185565b60a08101805151612f86575b506080810190815151612f06575b60c0915001805151612eb3575b50515190565b91612ebf612e25612dec565b612ec8826132e8565b60005b83518051821015612ef35790612eed612ee682600194611ba7565b5185613401565b01612ecb565b50509150612f0081613374565b38612ead565b602081018051612f1581612d1f565b612f1e81612d1f565b15612f745760c092612f57612f6f92612f3e612f38612d9e565b88613185565b51612f4881612d1f565b612f5181612d1f565b86613247565b612f68612f62612dc9565b86613185565b5184613401565b612ea0565b60405163a80d31f760e01b8152600490fd5b92612f98612f92612d7e565b84613185565b612fa1836132e8565b60005b84518051821015612fcc5790612fc6612fbf82600194611ba7565b5186613185565b01612fa4565b50509250612fd982613374565b38612e92565b92906020926001600160401b039263ffffffff61301e604051978896879663230e93b160e11b885216600487015260a0602487015260a486019061056a565b60016044860152921660648401526084830152038160007f00000000000000000000000000000000000000000000000000000000000000006001600160a01b03165af1908115610f255760009161309a575b50807f1131472297a800fee664d1d89cfa8f7676ff07189ecc53f80bbb5f4969099db8600080a290565b6130b3915060203d602011610f1e57610f16818361028e565b38613070565b6040519063125fa26760e31b6020830152511515602482015260248152606081018181106001600160401b038211176102385760405290565b815115613109576000808252604082015260600152565b6040516322ce3edd60e01b8152600490fd5b604051906131288261023d565b6000602083606081520152565b6040516131418161023d565b61314961311b565b808252602082016000815261315c61311b565b50610100602083015260405180925260008252610120820191821061032a576000916040525290565b81516131c99291906001600160401b03811690601782116131cc576131b49150606060ff8451921617906138cf565b505b51906131c061311b565b50805191613aff565b50565b5060ff81116131f1576131eb906131e383516136d6565b508251613a8b565b506131b6565b61ffff8111613210576131eb906132088351613671565b508251613a1d565b63ffffffff8111613231576131eb90613229835161360c565b5082516139ad565b6131eb9061323f835161359c565b50825161393a565b9081519161325361311b565b5082515160018101908181116108f15760208501518110156132ac575b60c260206102bc96519283010153805182116132a4575b50506040519160208301526020825261329f8261023d565b613401565b523880613287565b8160011b94828604600214831517156108f1576020816132de6102bc986132d760c295519184613485565b50826134d7565b5096505050613270565b8051906132f361311b565b5081515160018101908181116108f1576020840151811015613341575b609f6020809551928301015380518211613339575b505001805190600182018092116108f15752565b523880613325565b8160011b93828504600214831517156108f15760208161336a82976132d7609f95519184613485565b5095505050613310565b80519061337f61311b565b5081515160018101908181116108f15760208401518110156133ce575b60ff60208095519283010153805182116133c6575b50500180516000198101919082116108f15752565b5238806133b1565b8160011b93828504600214831517156108f1576020816133f782976132d760ff95519184613485565b509550505061339c565b81516131c99291906001600160401b0381169060178211613430576131b49150604060ff8451921617906138cf565b5060ff8111613447576131eb906131e3835161386a565b61ffff811161345e576131eb906132088351613805565b63ffffffff8111613477576131eb9061322983516137a0565b6131eb9061323f835161373b565b9061348e61311b565b50601f8116806134bd575b508060208301526040519081835260008252810160200190811061032a5760405290565b602003602081116108f15781018091116108f15738613499565b906134e061311b565b508051906134ec61311b565b506134fa8151831115613af8565b825151916135088184612296565b60209260208601518211613585575b60209186518381519782010196821161357d575b505001915b808210156135555750600019906020036101000a019081199051169082511617905290565b90919261357161356b6135779286518152612288565b94612288565b9261171a565b90613530565b52388061352b565b61359761359183611c09565b87613bab565b613517565b6135a461311b565b5080515160018101908181116108f15760208301518110156135dd575b607b602084519283010153805182116135d957505090565b5290565b8160011b828104600214831517156108f157613606906135ff85519186613485565b50846134d7565b506135c1565b61361461311b565b5080515160018101908181116108f1576020830151811015613649575b607a602084519283010153805182116135d957505090565b8160011b828104600214831517156108f15761366b906135ff85519186613485565b50613631565b61367961311b565b5080515160018101908181116108f15760208301518110156136ae575b6079602084519283010153805182116135d957505090565b8160011b828104600214831517156108f1576136d0906135ff85519186613485565b50613696565b6136de61311b565b5080515160018101908181116108f1576020830151811015613713575b6078602084519283010153805182116135d957505090565b8160011b828104600214831517156108f157613735906135ff85519186613485565b506136fb565b61374361311b565b5080515160018101908181116108f1576020830151811015613778575b605b602084519283010153805182116135d957505090565b8160011b828104600214831517156108f15761379a906135ff85519186613485565b50613760565b6137a861311b565b5080515160018101908181116108f15760208301518110156137dd575b605a602084519283010153805182116135d957505090565b8160011b828104600214831517156108f1576137ff906135ff85519186613485565b506137c5565b61380d61311b565b5080515160018101908181116108f1576020830151811015613842575b6059602084519283010153805182116135d957505090565b8160011b828104600214831517156108f157613864906135ff85519186613485565b5061382a565b61387261311b565b5080515160018101908181116108f15760208301518110156138a7575b6058602084519283010153805182116135d957505090565b8160011b828104600214831517156108f1576138c9906135ff85519186613485565b5061388f565b906138d861311b565b5081515160018101918282116108f157602084015182101561390b575b602084519283010153805182116135d957505090565b8260011b838104600214841517156108f1576139349061392d86519187613485565b50856134d7565b506138f5565b9061394361311b565b508151518060080191826008116108f15760208401518311613985575b6008845192830101906001600160401b0319825116179052805182116135d957505090565b8260011b838104600214841517156108f1576139a79061392d86519187613485565b50613960565b906139b661311b565b508151518060040191826004116108f157602084015183116139f5575b60048451928301019063ffffffff19825116179052805182116135d957505090565b8260011b838104600214841517156108f157613a179061392d86519187613485565b506139d3565b90613a2661311b565b508151518060020191826002116108f15760208401518311613a63575b60028451928301019061ffff19825116179052805182116135d957505090565b8260011b838104600214841517156108f157613a859061392d86519187613485565b50613a43565b90613a9461311b565b508151518060010191826001116108f15760208401518311613ad0575b60018451928301019060ff19825116179052805182116135d957505090565b8260011b838104600214841517156108f157613af29061392d86519187613485565b50613ab1565b1561032a57565b9190613b0961311b565b50613b178151831115613af8565b825151916020613b278285612296565b928193828701518111613b94575b865183815197820101968211613b8c575b505001915b80821015613b705750600019906020036101000a019081199051169082511617905290565b90919261357161356b613b869286518152612288565b90613b4b565b523880613b46565b613ba6613ba082611c09565b88613bab565b613b35565b906131c991613bbc81519282613485565b506134d756fea2646970667358221220c195559d0b91aeebb2e489d679a51f3db2874b723660320d7a20e6e0d37372e664736f6c63430008180033",
  "linkReferences": {},
  "deployedLinkReferences": {}
}