{
  "_format": "hh-sol-artifact-1",
  "contractName": "ZKProofAggregator",
  "sourceName": "contracts/ZKProofAggregator.sol",
  "abi": [
    {
      "inputs": [
        {
          "internalType": "address",
          "name": "vrfCoordinator",
          "type": "address"
        },
        {
          "internalType": "address",
          "name": "functionsRouter",
          "type": "address"
        },
        {
          "internalType": "uint256",
          "name": "vrfSubscriptionId",
          "type": "uint256"
        },
        {
          "internalType": "bytes32",
          "name": "vrfKeyHash",
          "type": "bytes32"
        },
        {
          "internalType": "uint64",
          "name": "functionsSubscriptionId",
          "type": "uint64"
        },
        {
          "internalType": "bytes32",
          "name": "functionsDonId",
          "type": "bytes32"
        },
        {
          "internalType": "address",
          "name": "groth16VerifierAddress",
          "type": "address"
        }
      ],
      "stateMutability": "nonpayable",
      "type": "constructor"
    },
    {
      "inputs": [],
      "name": "EmptyArgs",
      "type": "error"
    },
    {
      "inputs": [],
      "name": "EmptySource",
      "type": "error"
    },
    {
      "inputs": [],
      "name": "NoInlineSecrets",
      "type": "error"
    },
    {
      "inputs": [
        {
          "internalType": "address",
          "name": "have",
          "type": "address"
        },
        {
          "internalType": "address",
          "name": "want",
          "type": "address"
        }
      ],
      "name": "OnlyCoordinatorCanFulfill",
      "type": "error"
    },
    {
      "inputs": [
        {
          "internalType": "address",
          "name": "have",
          "type": "address"
        },
        {
          "internalType": "address",
          "name": "owner",
          "type": "address"
        },
        {
          "internalType": "address",
          "name": "coordinator",
          "type": "address"
        }
      ],
      "name": "OnlyOwnerOrCoordinator",
      "type": "error"
    },
    {
      "inputs": [],
      "name": "OnlyRouterCanFulfill",
      "type": "error"
    },
    {
      "inputs": [],
      "name": "ZeroAddress",
      "type": "error"
    },
    {
      "anonymous": false,
      "inputs": [
        {
          "indexed": false,
          "internalType": "address",
          "name": "vrfCoordinator",
          "type": "address"
        }
      ],
      "name": "CoordinatorSet",
      "type": "event"
    },
    {
      "anonymous": false,
      "inputs": [
        {
          "indexed": true,
          "internalType": "bytes32",
          "name": "requestId",
          "type": "bytes32"
        },
        {
          "indexed": false,
          "internalType": "bytes",
          "name": "error",
          "type": "bytes"
        }
      ],
      "name": "FunctionsRequestError",
      "type": "event"
    },
    {
      "anonymous": false,
      "inputs": [
        {
          "indexed": true,
          "internalType": "bytes32",
          "name": "requestId",
          "type": "bytes32"
        },
        {
          "indexed": false,
          "internalType": "string",
          "name": "sourceChain",
          "type": "string"
        },
        {
          "indexed": false,
          "internalType": "uint256",
          "name": "blockNumber",
          "type": "uint256"
        }
      ],
      "name": "FunctionsRequestSent",
      "type": "event"
    },
    {
      "anonymous": false,
      "inputs": [
        {
          "indexed": true,
          "internalType": "bytes32",
          "name": "requestId",
          "type": "bytes32"
        },
        {
          "indexed": false,
          "internalType": "bytes",
          "name": "proof",
          "type": "bytes"
        },
        {
          "indexed": false,
          "internalType": "bytes",
          "name": "publicInputs",
          "type": "bytes"
        }
      ],
      "name": "FunctionsResponseReceived",
      "type": "event"
    },
    {
      "anonymous": false,
      "inputs": [
        {
          "indexed": true,
          "internalType": "address",
          "name": "from",
          "type": "address"
        },
        {
          "indexed": true,
          "internalType": "address",
          "name": "to",
          "type": "address"
        }
      ],
      "name": "OwnershipTransferRequested",
      "type": "event"
    },
    {
      "anonymous": false,
      "inputs": [
        {
          "indexed": true,
          "internalType": "address",
          "name": "from",
          "type": "address"
        },
        {
          "indexed": true,
          "internalType": "address",
          "name": "to",
          "type": "address"
        }
      ],
      "name": "OwnershipTransferred",
      "type": "event"
    },
    {
      "anonymous": false,
      "inputs": [
        {
          "indexed": true,
          "internalType": "uint256",
          "name": "requestId",
          "type": "uint256"
        },
        {
          "indexed": true,
          "internalType": "address",
          "name": "requester",
          "type": "address"
        },
        {
          "indexed": false,
          "internalType": "uint256",
          "name": "blockNumber",
          "type": "uint256"
        }
      ],
      "name": "ProofRequested",
      "type": "event"
    },
    {
      "anonymous": false,
      "inputs": [
        {
          "indexed": true,
          "internalType": "uint256",
          "name": "requestId",
          "type": "uint256"
        },
        {
          "indexed": false,
          "internalType": "bool",
          "name": "isValid",
          "type": "bool"
        },
        {
          "indexed": false,
          "internalType": "bytes32",
          "name": "stateRoot",
          "type": "bytes32"
        }
      ],
      "name": "ProofVerified",
      "type": "event"
    },
    {
      "anonymous": false,
      "inputs": [
        {
          "indexed": true,
          "internalType": "uint256",
          "name": "requestId",
          "type": "uint256"
        },
        {
          "indexed": false,
          "internalType": "uint256",
          "name": "randomValue",
          "type": "uint256"
        },
        {
          "indexed": false,
          "internalType": "uint256",
          "name": "selectedBlock",
          "type": "uint256"
        }
      ],
      "name": "RandomnessReceived",
      "type": "event"
    },
    {
      "anonymous": false,
      "inputs": [
        {
          "indexed": true,
          "internalType": "bytes32",
          "name": "id",
          "type": "bytes32"
        }
      ],
      "name": "RequestFulfilled",
      "type": "event"
    },
    {
      "anonymous": false,
      "inputs": [
        {
          "indexed": true,
          "internalType": "bytes32",
          "name": "id",
          "type": "bytes32"
        }
      ],
      "name": "RequestSent",
      "type": "event"
    },
    {
      "inputs": [],
      "name": "acceptOwnership",
      "outputs": [],
      "stateMutability": "nonpayable",
      "type": "function"
    },
    {
      "inputs": [
        {
          "internalType": "bytes[]",
          "name": "proofs",
          "type": "bytes[]"
        },
        {
          "internalType": "bytes[]",
          "name": "publicInputsArray",
          "type": "bytes[]"
        }
      ],
      "name": "aggregateProofs",
      "outputs": [
        {
          "internalType": "bytes32",
          "name": "aggregatedHash",
          "type": "bytes32"
        }
      ],
      "stateMutability": "nonpayable",
      "type": "function"
    },
    {
      "inputs": [
        {
          "internalType": "uint256",
          "name": "",
          "type": "uint256"
        },
        {
          "internalType": "uint256",
          "name": "",
          "type": "uint256"
        }
      ],
      "name": "aggregatedProofHashes",
      "outputs": [
        {
          "internalType": "bytes32",
          "name": "",
          "type": "bytes32"
        }
      ],
      "stateMutability": "view",
      "type": "function"
    },
    {
      "inputs": [
        {
          "internalType": "address",
          "name": "",
          "type": "address"
        }
      ],
      "name": "authorizedCallers",
      "outputs": [
        {
          "internalType": "bool",
          "name": "",
          "type": "bool"
        }
      ],
      "stateMutability": "view",
      "type": "function"
    },
    {
      "inputs": [
        {
          "internalType": "bytes",
          "name": "",
          "type": "bytes"
        }
      ],
      "name": "checkUpkeep",
      "outputs": [
        {
          "internalType": "bool",
          "name": "upkeepNeeded",
          "type": "bool"
        },
        {
          "internalType": "bytes",
          "name": "",
          "type": "bytes"
        }
      ],
      "stateMutability": "view",
      "type": "function"
    },
    {
      "inputs": [],
      "name": "contractOwner",
      "outputs": [
        {
          "internalType": "address",
          "name": "",
          "type": "address"
        }
      ],
      "stateMutability": "view",
      "type": "function"
    },
    {
      "inputs": [
        {
          "internalType": "bytes32",
          "name": "",
          "type": "bytes32"
        }
      ],
      "name": "functionsRequestToProofId",
      "outputs": [
        {
          "internalType": "uint256",
          "name": "",
          "type": "uint256"
        }
      ],
      "stateMutability": "view",
      "type": "function"
    },
    {
      "inputs": [
        {
          "internalType": "uint256",
          "name": "requestId",
          "type": "uint256"
        }
      ],
      "name": "getProofRequest",
      "outputs": [
        {
          "components": [
            {
              "internalType": "address",
              "name": "requester",
              "type": "address"
            },
            {
              "internalType": "uint256",
              "name": "timestamp",
              "type": "uint256"
            },
            {
              "internalType": "string",
              "name": "sourceChain",
              "type": "string"
            },
            {
              "internalType": "uint256",
              "name": "blockNumber",
              "type": "uint256"
            },
            {
              "internalType": "bytes32",
              "name": "stateRoot",
              "type": "bytes32"
            },
            {
              "internalType": "bool",
              "name": "isCompleted",
              "type": "bool"
            },
            {
              "internalType": "bool",
              "name": "isValid",
              "type": "bool"
            }
          ],
          "internalType": "struct ZKProofAggregator.ProofRequest",
          "name": "",
          "type": "tuple"
        }
      ],
      "stateMutability": "view",
      "type": "function"
    },
    {
      "inputs": [],
      "name": "getSubscriptionId",
      "outputs": [
        {
          "internalType": "uint256",
          "name": "",
          "type": "uint256"
        }
      ],
      "stateMutability": "view",
      "type": "function"
    },
    {
      "inputs": [],
      "name": "groth16Verifier",
      "outputs": [
        {
          "internalType": "contract Groth16Verifier",
          "name": "",
          "type": "address"
        }
      ],
      "stateMutability": "view",
      "type": "function"
    },
    {
      "inputs": [
        {
          "internalType": "bytes32",
          "name": "requestId",
          "type": "bytes32"
        },
        {
          "internalType": "bytes",
          "name": "response",
          "type": "bytes"
        },
        {
          "internalType": "bytes",
          "name": "err",
          "type": "bytes"
        }
      ],
      "name": "handleOracleFulfillment",
      "outputs": [],
      "stateMutability": "nonpayable",
      "type": "function"
    },
    {
      "inputs": [],
      "name": "initializeProofService",
      "outputs": [],
      "stateMutability": "nonpayable",
      "type": "function"
    },
    {
      "inputs": [
        {
          "internalType": "bytes32",
          "name": "stateRoot",
          "type": "bytes32"
        }
      ],
      "name": "isStateVerified",
      "outputs": [
        {
          "internalType": "bool",
          "name": "",
          "type": "bool"
        }
      ],
      "stateMutability": "view",
      "type": "function"
    },
    {
      "inputs": [],
      "name": "lastUpkeepTimestamp",
      "outputs": [
        {
          "internalType": "uint256",
          "name": "",
          "type": "uint256"
        }
      ],
      "stateMutability": "view",
      "type": "function"
    },
    {
      "inputs": [],
      "name": "owner",
      "outputs": [
        {
          "internalType": "address",
          "name": "",
          "type": "address"
        }
      ],
      "stateMutability": "view",
      "type": "function"
    },
    {
      "inputs": [
        {
          "internalType": "bytes",
          "name": "",
          "type": "bytes"
        }
      ],
      "name": "performUpkeep",
      "outputs": [],
      "stateMutability": "nonpayable",
      "type": "function"
    },
    {
      "inputs": [
        {
          "internalType": "uint256",
          "name": "",
          "type": "uint256"
        }
      ],
      "name": "proofRequests",
      "outputs": [
        {
          "internalType": "address",
          "name": "requester",
          "type": "address"
        },
        {
          "internalType": "uint256",
          "name": "timestamp",
          "type": "uint256"
        },
        {
          "internalType": "string",
          "name": "sourceChain",
          "type": "string"
        },
        {
          "internalType": "uint256",
          "name": "blockNumber",
          "type": "uint256"
        },
        {
          "internalType": "bytes32",
          "name": "stateRoot",
          "type": "bytes32"
        },
        {
          "internalType": "bool",
          "name": "isCompleted",
          "type": "bool"
        },
        {
          "internalType": "bool",
          "name": "isValid",
          "type": "bool"
        }
      ],
      "stateMutability": "view",
      "type": "function"
    },
    {
      "inputs": [
        {
          "internalType": "uint256",
          "name": "requestId",
          "type": "uint256"
        },
        {
          "internalType": "uint256[]",
          "name": "randomWords",
          "type": "uint256[]"
        }
      ],
      "name": "rawFulfillRandomWords",
      "outputs": [],
      "stateMutability": "nonpayable",
      "type": "function"
    },
    {
      "inputs": [],
      "name": "requestCounter",
      "outputs": [
        {
          "internalType": "uint256",
          "name": "",
          "type": "uint256"
        }
      ],
      "stateMutability": "view",
      "type": "function"
    },
    {
      "inputs": [
        {
          "internalType": "string",
          "name": "sourceChain",
          "type": "string"
        },
        {
          "internalType": "uint256",
          "name": "targetBlockNumber",
          "type": "uint256"
        }
      ],
      "name": "requestProofVerification",
      "outputs": [
        {
          "internalType": "uint256",
          "name": "requestId",
          "type": "uint256"
        }
      ],
      "stateMutability": "nonpayable",
      "type": "function"
    },
    {
      "inputs": [],
      "name": "s_vrfCoordinator",
      "outputs": [
        {
          "internalType": "contract IVRFCoordinatorV2Plus",
          "name": "",
          "type": "address"
        }
      ],
      "stateMutability": "view",
      "type": "function"
    },
    {
      "inputs": [
        {
          "internalType": "address",
          "name": "caller",
          "type": "address"
        },
        {
          "internalType": "bool",
          "name": "authorized",
          "type": "bool"
        }
      ],
      "name": "setAuthorizedCaller",
      "outputs": [],
      "stateMutability": "nonpayable",
      "type": "function"
    },
    {
      "inputs": [
        {
          "internalType": "address",
          "name": "_vrfCoordinator",
          "type": "address"
        }
      ],
      "name": "setCoordinator",
      "outputs": [],
      "stateMutability": "nonpayable",
      "type": "function"
    },
    {
      "inputs": [
        {
          "internalType": "uint64",
          "name": "subscriptionId",
          "type": "uint64"
        },
        {
          "internalType": "uint32",
          "name": "gasLimit",
          "type": "uint32"
        },
        {
          "internalType": "bytes32",
          "name": "donId",
          "type": "bytes32"
        }
      ],
      "name": "setFunctionsConfig",
      "outputs": [],
      "stateMutability": "nonpayable",
      "type": "function"
    },
    {
      "inputs": [
        {
          "internalType": "string",
          "name": "source",
          "type": "string"
        }
      ],
      "name": "setFunctionsSource",
      "outputs": [],
      "stateMutability": "nonpayable",
      "type": "function"
    },
    {
      "inputs": [
        {
          "internalType": "string",
          "name": "url",
          "type": "string"
        }
      ],
      "name": "setProofServiceUrl",
      "outputs": [],
      "stateMutability": "nonpayable",
      "type": "function"
    },
    {
      "inputs": [
        {
          "internalType": "uint256",
          "name": "newInterval",
          "type": "uint256"
        }
      ],
      "name": "setUpkeepInterval",
      "outputs": [],
      "stateMutability": "nonpayable",
      "type": "function"
    },
    {
      "inputs": [
        {
          "internalType": "uint256",
          "name": "subscriptionId",
          "type": "uint256"
        },
        {
          "internalType": "bytes32",
          "name": "keyHash",
          "type": "bytes32"
        },
        {
          "internalType": "uint32",
          "name": "callbackGasLimit",
          "type": "uint32"
        }
      ],
      "name": "setVRFConfig",
      "outputs": [],
      "stateMutability": "nonpayable",
      "type": "function"
    },
    {
      "inputs": [
        {
          "internalType": "address",
          "name": "to",
          "type": "address"
        }
      ],
      "name": "transferOwnership",
      "outputs": [],
      "stateMutability": "nonpayable",
      "type": "function"
    },
    {
      "inputs": [],
      "name": "upkeepInterval",
      "outputs": [
        {
          "internalType": "uint256",
          "name": "",
          "type": "uint256"
        }
      ],
      "stateMutability": "view",
      "type": "function"
    },
    {
      "inputs": [
        {
          "internalType": "bytes32",
          "name": "",
          "type": "bytes32"
        }
      ],
      "name": "usedProofHashes",
      "outputs": [
        {
          "internalType": "bool",
          "name": "",
          "type": "bool"
        }
      ],
      "stateMutability": "view",
      "type": "function"
    },
    {
      "inputs": [
        {
          "internalType": "bytes32",
          "name": "",
          "type": "bytes32"
        }
      ],
      "name": "verifiedProofs",
      "outputs": [
        {
          "internalType": "bool",
          "name": "",
          "type": "bool"
        }
      ],
      "stateMutability": "view",
      "type": "function"
    }
  ],
  "bytecode": "0x60c034620001d257601f62003eb538819003918201601f19168301926001600160401b0392909183851183861017620001d7578160e09284926040978852833981010312620001d2576200005381620001ed565b6200006160208301620001ed565b928483015192606081015160808201519283168303620001d2576200008e60c060a08401519301620001ed565b9233156200018e57600080546001600160a01b03199081163317909155966001600160a01b0395861680156200017d57740493e00000000000000000000000010003002625a093929187918a600254161760025516608052610e10600755600a549160ff1997600889600e541617600e556008556009556a0100000000000000000000600160901b039060501b169060018060b01b0319161717600a55600b551660a05233600052601260205260018360002091825416179055339060135416176013554260065551613cb290816200020382396080518181816103ac01526130d1015260a051816107050152f35b895163d92e233d60e01b8152600490fd5b875162461bcd60e51b815260206004820152601860248201527f43616e6e6f7420736574206f776e657220746f207a65726f00000000000000006044820152606490fd5b600080fd5b634e487b7160e01b600052604160045260246000fd5b51906001600160a01b0382168203620001d25756fe6080604052600436101561001257600080fd5b60003560e01c80630ca76175146102125780631098241b1461020d578063152a952614610208578063176d80c41461019a57806319c813be146102035780631bd6447a146101fe5780631fe543e3146101f957806325825746146101f457806336e0025f146101ef57806339a9e4b3146101ea578063411eddd1146101e5578063454bbd29146101e05780634585e33b146101db578063536fff6c146101d657806356959332146101d157806357efe032146101cc5780635a74373c146101c7578063624cffd4146101c25780636e04ff0d146101bd57806372e4c9f6146101b857806379ba5097146101b35780638da5cb5b146101ae5780638ea98117146101a9578063973a814e146101a45780639eccacf61461019f578063a9431f231461019a578063b5cce13314610195578063ce606ee014610190578063d175d81a1461018b578063d87318b214610186578063de3d9fb7146101815763f2fde38b1461017c57600080fd5b61156b565b61154d565b61151c565b61144c565b611423565b6113cd565b6106be565b6113a4565b611386565b611311565b6112e8565b61122c565b6111fe565b6111b1565b611193565b611175565b611076565b61104a565b61100b565b610f5c565b610eb2565b610da7565b610d63565b610c49565b610bd0565b6107ff565b610747565b6106ef565b6105f1565b610447565b61035d565b634e487b7160e01b600052604160045260246000fd5b60e081019081106001600160401b0382111761024857604052565b610217565b604081019081106001600160401b0382111761024857604052565b602081019081106001600160401b0382111761024857604052565b60c081019081106001600160401b0382111761024857604052565b90601f801991011681019081106001600160401b0382111761024857604052565b604051906102cc8261022d565b565b604051906102cc82610268565b604051906102cc82610283565b6001600160401b03811161024857601f01601f191660200190565b92919261030f826102e8565b9161031d604051938461029e565b82948184528183011161033a578281602093846000960137010152565b600080fd5b9080601f8301121561033a5781602061035a93359101610303565b90565b3461033a57606036600319011261033a576004356001600160401b0360243581811161033a5761039190369060040161033f565b9060443590811161033a576103aa90369060040161033f565b7f00000000000000000000000000000000000000000000000000000000000000006001600160a01b0316330361040b576103e49183612099565b7f85e1543bf2f84fe80c6badbce3648c8539ad1df4d2b3d822938ca0538be727e6600080a2005b60405163c6829f8360e01b8152600490fd5b602060031982011261033a57600435906001600160401b03821161033a5761035a9160040161033f565b3461033a576104553661041d565b61046a60018060a01b03601354163314611660565b80516001600160401b0381116102485761048e81610489600d5461094d565b6116b0565b602080601f83116001146104d0575081906104c0936000926104c5575b50508160011b916000199060031b1c19161790565b600d55005b0151905038806104ab565b90601f198316936104f1600d600052600080516020613c5d83398151915290565b926000905b86821061052d5750508360019510610514575b505050811b01600d55005b015160001960f88460031b161c19169055388080610509565b806001859682949686015181550195019301906104f6565b60005b8381106105585750506000910152565b8181015183820152602001610548565b9060209161058181518092818552858086019101610545565b601f01601f1916010190565b6020815260018060a01b0382511660208201526020820151604082015260e060c06105c76040850151836060860152610100850190610568565b9360608101516080850152608081015160a085015260a08101511515828501520151151591015290565b3461033a57602036600319011261033a576106ba60408060c081516106158161022d565b60009181838093528260208201526060858201528260608201528260808201528260a082015201526004358152600360205220906106b060ff600583519461065c8661022d565b80546001600160a01b031686526001810154602087015261067f60028201610b6e565b8686015260038101546060870152600481015460808701520154818116151560a086015260081c16151560c0840152565b519182918261058d565b0390f35b3461033a57602036600319011261033a57600435600052600f602052602060ff604060002054166040519015158152f35b3461033a57600036600319011261033a576040517f00000000000000000000000000000000000000000000000000000000000000006001600160a01b03168152602090f35b6024359063ffffffff8216820361033a57565b3461033a57606036600319011261033a576004356001600160401b038116810361033a57610773610734565b61078860018060a01b03601354163314611660565b600a80546bffffffffffffffffffffffff60501b191660509390931b67ffffffffffffffff60501b169290921760909190911b63ffffffff60901b16179055604435600b55005b9181601f8401121561033a578235916001600160401b03831161033a576020808501948460051b01011161033a57565b3461033a57604036600319011261033a576004356024356001600160401b03811161033a576108329036906004016107cf565b600254919290916001600160a01b03163381900361092f57508060005260046020526040600020549081156108f4576103e71943014381116108ef57846108d76108b67f2374d5481494ad7962d4bd1b98b91e9f3117c9b66533b2804be3d76c41a49088936108b06108a7896108ed9b61230b565b356103e8900690565b90612330565b9586928360036108d0896000526003602052604060002090565b015561230b565b60408051913582526020820192909252a261255c565b005b61178f565b60405162461bcd60e51b8152602060048201526013602482015272125b9d985b1a5908159491881c995c5d595cdd606a1b6044820152606490fd5b6044906040519063073e64fd60e21b82523360048301526024820152fd5b90600182811c9216801561097d575b602083101461096757565b634e487b7160e01b600052602260045260246000fd5b91607f169161095c565b8054600093926109968261094d565b918282526020936001916001811690816000146109fe57506001146109bd575b5050505050565b90939495506000929192528360002092846000945b8386106109ea575050505001019038808080806109b6565b8054858701830152940193859082016109d2565b60ff19168685015250505090151560051b0101915038808080806109b6565b60405190600082600c5491610a318361094d565b80835292602090600190818116908115610abd5750600114610a5c575b50506102cc9250038361029e565b915092600c6000527fdf6966c971051c3d54ec59162606531493a51404a002842f56009d7e5cf4a8c7936000925b828410610aa557506102cc9450505081016020013880610a4e565b85548885018301529485019487945092810192610a8a565b915050602092506102cc94915060ff191682840152151560051b8201013880610a4e565b60405190600082600d5491610af58361094d565b80835292602090600190818116908115610abd5750600114610b1f5750506102cc9250038361029e565b915092600d600052600080516020613c5d833981519152936000925b828410610b5657506102cc9450505081016020013880610a4e565b85548885018301529485019487945092810192610b3b565b906102cc610b829260405193848092610987565b038361029e565b959260c09592610bb7929998959960018060a01b03168852602088015260e0604088015260e0870190610568565b9660608601526080850152151560a08401521515910152565b3461033a57602036600319011261033a576004356000526003602052604060002060018060a01b03815416906106ba60018201549160405193610c2185610c1a8160028601610987565b038661029e565b600382015491600560048201549101549260405196879660ff808760081c1696169488610b89565b3461033a57610c573661041d565b610c6c60018060a01b03601354163314611660565b80516001600160401b03811161024857610c9081610c8b600c5461094d565b6116ff565b602080601f8311600114610cc657508190610cc1936000926104c55750508160011b916000199060031b1c19161790565b600c55005b90601f19831693610cf9600c6000527fdf6966c971051c3d54ec59162606531493a51404a002842f56009d7e5cf4a8c790565b926000905b868210610d355750508360019510610d1c575b505050811b01600c55005b015160001960f88460031b161c19169055388080610d11565b80600185968294968601518155019501930190610cfe565b634e487b7160e01b600052603260045260246000fd5b3461033a57604036600319011261033a5760243560009060043582526010602052604082208054821015610da35782526020918290200154604051908152f35b8280fd5b3461033a57600080600319360112610e9957610dce60018060a01b03601354163314611660565b610dd9600d5461094d565b601f8111610e49575b50604f600d557f68747470733a2f2f6c696768742d6c696e6b2e76657263656c2e6170702f6170600080516020613c5d8339815191525566692f70726f766560c81b7fd7b6990105719101dabeb77144f2a3385c8033acd3af97e9423a695e81ad1eb65580f35b601f0160051c600080516020613c5d833981519152017fd7b6990105719101dabeb77144f2a3385c8033acd3af97e9423a695e81ad1eb75b818110610e8e5750610de2565b828155600101610e81565b80fd5b600435906001600160a01b038216820361033a57565b3461033a57604036600319011261033a57610ecb610e9c565b602435801515810361033a576013546108ed926001600160a01b0391610ef49083163314611660565b16600052601260205260406000209060ff801983541691151516179055565b90602060031983011261033a576004356001600160401b039283821161033a578060238301121561033a57816004013593841161033a576024848301011161033a576024019190565b3461033a57610f6a36610f13565b505060065442034281116108ef57610f8590600754106117d0565b610f8e42600655565b60408051632bf7f01960e11b815260048101919091526008604482015267657468657265756d60c01b606482015260006024820152602081806084810103816000305af1801561100657610fde57005b6108ed9060203d602011610fff575b610ff7818361029e565b810190611810565b503d610fed565b61181f565b3461033a57602036600319011261033a576001600160a01b0361102c610e9c565b166000526012602052602060ff604060002054166040519015158152f35b3461033a57602036600319011261033a5760043560005260046020526020604060002054604051908152f35b3461033a57604036600319011261033a576004356001600160401b03811161033a576110a96106ba91369060040161033f565b60243561110f6110ba60055461182b565b926110c484600555565b6110cc6102bf565b33815290426020830152604082015282606082015260006080820152600060a0820152600060c082015261110a846000526003602052604060002090565b61183a565b806111665761111d8261276e565b817f7ef8ca77fdc89c79f093f2a6b2348b1fcda0beb941ce31ce9f2d9d260c4db9d2604051806111533395829190602083019252565b0390a36040519081529081906020820190565b611170818361255c565b61111d565b3461033a57600036600319011261033a576020600754604051908152f35b3461033a57600036600319011261033a576020600654604051908152f35b3461033a576111bf36610f13565b505060065442034281116108ef5760075410604051906111de82610268565b600082526106ba6040519283928352604060208401526040830190610568565b3461033a57602036600319011261033a5761122460018060a01b03601354163314611660565b600435600755005b3461033a57600080600319360112610e99576001546001600160a01b0390811633036112aa5781546001600160a01b0316600080546001600160a01b0319163317905590600180546001600160a01b03191690553391167f8be0079c531659141344cd1fd0a4f28419497f9722a3daafe3b4186f6b6457e08380a380f35b60405162461bcd60e51b815260206004820152601660248201527526bab9ba10313290383937b837b9b2b21037bbb732b960511b6044820152606490fd5b3461033a57600036600319011261033a576000546040516001600160a01b039091168152602090f35b3461033a57602036600319011261033a5761132a610e9c565b6000546001600160a01b03908116903382141580611378575b611350576108ed836119bf565b60649250600254166040519163061db9c160e01b835233600484015260248301526044820152fd5b508060025416331415611343565b3461033a57600036600319011261033a576020600554604051908152f35b3461033a57600036600319011261033a576002546040516001600160a01b039091168152602090f35b3461033a57606036600319011261033a5760443563ffffffff811680910361033a5761140460018060a01b03601354163314611660565b60043560085560243560095563ffffffff19600a541617600a55600080f35b3461033a57600036600319011261033a576013546040516001600160a01b039091168152602090f35b3461033a57604036600319011261033a576001600160401b0360043581811161033a5761147d9036906004016107cf565b9160243590811161033a576114969036906004016107cf565b9033600052601260205260ff604060002054168015611508575b156114d2576106ba936114c293611d4b565b6040519081529081906020820190565b60405162461bcd60e51b815260206004820152600e60248201526d139bdd08185d5d1a1bdc9a5e995960921b6044820152606490fd5b506013546001600160a01b031633146114b0565b3461033a57602036600319011261033a576004356000526011602052602060ff604060002054166040519015158152f35b3461033a57600036600319011261033a576020600854604051908152f35b3461033a57602036600319011261033a57611584610e9c565b6000546001600160a01b0390811691338390036116225716903382146115dd57600180546001600160a01b031916831790557fed8889f560326eb138920d842192f0eb3dd22b4f139c87a2c57538e05bae1278600080a3005b60405162461bcd60e51b815260206004820152601760248201527f43616e6e6f74207472616e7366657220746f2073656c660000000000000000006044820152606490fd5b60405162461bcd60e51b815260206004820152601660248201527527b7363c9031b0b63630b1363290313c9037bbb732b960511b6044820152606490fd5b1561166757565b60405162461bcd60e51b815260206004820152600a60248201526927b7363c9037bbb732b960b11b6044820152606490fd5b8181106116a4575050565b60008155600101611699565b90601f82116116bd575050565b6102cc91600d600052600080516020613c5d833981519152906020601f840160051c830193106116f5575b601f0160051c0190611699565b90915081906116e8565b90601f821161170c575050565b6102cc91600c6000527fdf6966c971051c3d54ec59162606531493a51404a002842f56009d7e5cf4a8c7906020601f840160051c830193106116f557601f0160051c0190611699565b9190601f811161176457505050565b6102cc926000526020600020906020601f840160051c830193106116f557601f0160051c0190611699565b634e487b7160e01b600052601160045260246000fd5b6000198101919082116108ef57565b601f198101919082116108ef57565b919082039182116108ef57565b156117d757565b60405162461bcd60e51b8152602060048201526011602482015270155c1ad9595c081b9bdd081b9959591959607a1b6044820152606490fd5b9081602091031261033a575190565b6040513d6000823e3d90fd5b60001981146108ef5760010190565b815181546001600160a01b0319166001600160a01b0391909116178155600160209060208401516001840155600283019160408501518051926001600160401b038411610248576118958461188f875461094d565b87611755565b602092601f851160011461192d57505093611917936118d58460c0956005956102cc9a996000926104c55750508160011b916000199060031b1c19161790565b90555b606085015160038201556080850151600482015501926119106118fe60a0830151151590565b859060ff801983541691151516179055565b0151151590565b815461ff00191690151560081b61ff0016179055565b929190601f1985169061194587600052602060002090565b946000915b83831061199557505050846005946102cc999894611917989460c0986001951061197c575b505050811b0190556118d8565b015160001960f88460031b161c1916905538808061196f565b84860151875595860195948101949181019161194a565b604051906119b982610268565b60008252565b6001600160a01b03168015611a14576020817fd1a6a14209a385a964d036e404cb5cfb71f4000cdb03c9366292430787261be6926bffffffffffffffffffffffff60a01b6002541617600255604051908152a1565b60405163d92e233d60e01b8152600490fd5b15611a2d57565b60405162461bcd60e51b8152602060048201526014602482015273496e76616c696420696e7075742061727261797360601b6044820152606490fd5b15611a7057565b60405162461bcd60e51b815260206004820152601c60248201527f546f6f206d616e792070726f6f667320746f20616767726567617465000000006044820152606490fd5b6001600160401b0381116102485760051b60200190565b90611ad682611ab5565b611ae3604051918261029e565b8281528092611af4601f1991611ab5565b0190602036910137565b9190811015611b3f5760051b81013590601e198136030182121561033a5701908135916001600160401b03831161033a57602001823603811361033a579190565b610d4d565b15611b4b57565b60405162461bcd60e51b815260206004820152601c60248201527f496e76616c69642070726f6f6620696e206167677265676174696f6e000000006044820152606490fd5b908092918237016000815290565b15611ba557565b60405162461bcd60e51b815260206004820152602160248201527f50726f6f6620616c7265616479207573656420696e206167677265676174696f6044820152603760f91b6064820152608490fd5b805115611b3f5760200190565b805160011015611b3f5760400190565b805160021015611b3f5760600190565b805160031015611b3f5760800190565b805160041015611b3f5760a00190565b8051821015611b3f5760209160051b010190565b9193929093845160208096019060005b818110611c8f57505050825260601b6bffffffffffffffffffffffff191660208201526034019150565b825186529487019491870191600101611c65565b908160011b91808304600214901517156108ef57565b8151916001600160401b03831161024857680100000000000000008311610248578154838355808410611d20575b50611cfc602080920192600052602060002090565b9060005b848110611d0e575050505050565b83518382015592810192600101611d00565b60008360005284602060002092830192015b828110611d40575050611ce7565b818155600101611d32565b9192909281841480611f1d575b611d6190611a26565b611d6e600a851115611a69565b611d7784611acc565b9360005b818110611e475750505050506040516020810190611dad81611d9f33428787611c55565b03601f19810183528261029e565b51902090611de2611dbf60055461182b565b91611dc983600555565b611ddd836000526010602052604060002090565b611cb9565b611e06611df983600052600f602052604060002090565b805460ff19166001179055565b7f6dd2118914ad2b9a98780fafd92846eebe9361998a810f1a05f67033b17e2cdd60405180611e418582919060206040840193600181520152565b0390a290565b80611e8c611e87611e81611e5e600195878b611afe565b611e79611e6f878c8c969596611afe565b9490923691610303565b923691610303565b90612850565b611b44565b611f17611df9611ecb611ec5611ea385888c611afe565b9290611d9f611eb3888d8d611afe565b60405195869460208601988991611b90565b91611b90565b519020611efb611ef6611ef2611eeb846000526011602052604060002090565b5460ff1690565b1590565b611b9e565b80611f06858c611c41565b526000526011602052604060002090565b01611d7b565b50831515611d58565b15611f2d57565b60405162461bcd60e51b815260206004820152601960248201527f496e76616c69642046756e6374696f6e732072657175657374000000000000006044820152606490fd5b90602061035a928181520190610568565b60405190611f908261024d565b60078252667375636365737360c81b6020830152565b60405190611fb38261024d565b600c82526b3430b9a932b0b6283937b7b360a11b6020830152565b60405190611fdb8261024d565b600c82526b0ecc2d8d2c8d2e8f290c2e6d60a31b6020830152565b9061200960209282815194859201610545565b0190565b6020929190612023849282815194859201610545565b019081520190565b604051906120388261024d565b6005825264383937b7b360d91b6020830152565b604051906120598261024d565b600d82526c7075626c69635369676e616c7360981b6020830152565b612089602092604083526040830190610568565b9082818303910152600081520190565b916120ae836000526004602052604060002090565b54906120bb821515611f26565b80516122b257507f50348c1af87d1d2e61e0a7e9bf83a9c67f047d8de73be6b88acac8655a97581e9161220e916120f96120f3611f83565b83612884565b61210d826000526003602052604060002090565b60058101805460ff1916600117815590911561226e577f6dd2118914ad2b9a98780fafd92846eebe9361998a810f1a05f67033b17e2cdd91612156612150611fa6565b86612884565b156122595761216c61216661202b565b86612998565b61217d61217761204c565b87612998565b815115158061224f575b15612213576121cd926121fe9492611d9f6121b86004946040519283916121b2602084018097611ff6565b90611ff6565b51902093849361010061ff0019825416179055565b01556121e6611df982600052600f602052604060002090565b60405191829182919060206040840193600181520152565b0390a25b60405191829182612075565b0390a2565b50506122479160046121cd9261223061222a611fce565b89612998565b6040516121b881611d9f602082019442908661200d565b0390a2612202565b5080511515612187565b6122479160046121cd9261223061222a611fce565b805461ff0019169055507f6dd2118914ad2b9a98780fafd92846eebe9361998a810f1a05f67033b17e2cdd6040518061224781906000602060408401938281520152565b7f8117ad48db1a08344670d33acdeb14d7ec953b1119dafa9ab361e5e721d4356292506122ff60056122f161220e946000526003602052604060002090565b01805460ff19166001179055565b60405191829182611f72565b9015611b3f5790565b60300190816030116108ef57565b90602082018092116108ef57565b919082018092116108ef57565b6040519061016082018281106001600160401b038211176102485760405261013182527072696e6769667928726573756c7429293b60781b610140837f636f6e737420636861696e49643d7061727365496e7428617267735b305d293b60208201527f636f6e737420626c6f636b4e756d626572733d4a534f4e2e706172736528617260408201527f67735b315d293b636f6e737420726573756c743d7b737563636573733a74727560608201527f652c636861696e49642c626c6f636b4e756d626572732c76616c69646974794860808201527f6173683a2730783132333435363738393061626364656631323334353637383960a08201527f306162636465663132333435363738393061626364656631323334353637383960c08201527f30616263646566272c6d657461646174613a7b74696d657374616d703a4d617460e08201527f682e666c6f6f7228446174652e6e6f7728292f31303030297d7d3b72657475726101008201527f6e2046756e6374696f6e732e656e636f6465537472696e67284a534f4e2e73746101208201520152565b604051906124e28261022d565b606060c08360008152600060208201526000604082015282808201528260808201528260a08201520152565b6040519061251b82610283565b600582528160005b60a0811061252f575050565b806060602080938501015201612523565b929190612557602091604086526040860190610987565b930152565b907f89652d00e157965d54f5ad31af9352416c4e90b879711ec122680d4e3a1de9a690612593836000526003602052604060002090565b61259b610a1d565b805115612700575b6126b76126db916125bc6125b56124d5565b918261318c565b6126b260026125c961250e565b9501946125e56125e06125db88610b6e565b612b3c565b612cbc565b6125ee82611bf4565b526125f881611bf4565b5061262661263361260889612cbc565b611d9f6040519384926121b260208501600190605b60f81b81520190565b605d60f81b815260010190565b61263c82611c01565b5261264681611c01565b5061265f6125e0612659600e5460ff1690565b60ff1690565b61266882611c11565b5261267281611c11565b5061267c46612cbc565b61268582611c21565b5261268f81611c21565b50612698610ae1565b6126a182611c31565b526126ab81611c31565b5082612d5c565b612eab565b600a54600b54916001600160401b0363ffffffff8360901c169260501c1690613079565b936126f0856000526004602052604060002090565b5561220e60405192839283612540565b506126db6126b761270f61233d565b9150506125a3565b60e060a061035a9360208452805160208501526020810151604085015261ffff6040820151166060850152606081015163ffffffff80911660808601526080820151168285015201519160c0808201520190610568565b600254600090602090612807906001600160a01b03166009546008546127e6600a5463ffffffff906127a96127a16102ce565b8a8152613153565b936127b26102db565b9586528886015280881c61ffff16604086015263ffffffff81831616606086015260301c16608084019063ffffffff169052565b60a0820152604051948580948193634d8e1c2f60e11b835260048301612717565b03925af180156110065761282e91600091612831575b506000526004602052604060002090565b55565b61284a915060203d602011610fff57610ff7818361029e565b3861281d565b5115908115612869575b5061286457600190565b600090565b905051153861285a565b908151811015611b3f570160200190565b604051601160f91b602082015290916128bc908290611d9f906128aa90602184016121b2565b65223a7472756560d01b815260060190565b6000905b6128cd83518251906117c3565b82116129685760019260005b825181101561295e576129066128f86128f28387612330565b84612873565b516001600160f81b03191690565b6129236129166128f88487612873565b6001600160f81b03191690565b6001600160f81b03199091160361293c576001016128d9565b5092509060005b612956576129509061182b565b906128c0565b505050600190565b5092919091612943565b505050600090565b9061297a826102e8565b612987604051918261029e565b8281528092611af4601f19916102e8565b916129db6129be926129cd6040519485926121b260208501600190601160f91b81520190565b62111d1160e91b815260030190565b03601f19810184528361029e565b6000905b6129ec84518451906117c3565b8211612b305760019260005b8151811015612b2657612a176128f8612a118387612330565b88612873565b612a276129166128f88486612873565b6001600160f81b031990911603612a40576001016129f8565b5092509060005b612a5b575b612a559061182b565b906129df565b90612a67835183612330565b92835b8551811080612b02575b15612a8757612a829061182b565b612a6a565b9093929192808211612a9a575050612a4c565b91509250612ab0612aab82856117c3565b612970565b9160005b612abe83866117c3565b811015612af95782600182612ae26128f8612adc612abe9686612330565b8b612873565b60001a612aef8289612873565b5301915050612ab4565b50935050905090565b50601160f91b6001600160f81b0319612b1e6128f8848a612873565b161415612a74565b5092919091612a47565b9250505061035a6119ac565b60409081519060209082612b538382018093611ff6565b0392612b67601f199485810183528261029e565b51902092805182810190612b9a81612b8e8460089067657468657265756d60c01b81520190565b0386810183528261029e565b5190208414612cb357805167617262697472756d60c01b83820190815290612bc58160088401612b8e565b5190208414612ca9578051676f7074696d69736d60c01b83820190815290612bf08160088401612b8e565b5190208414612ca0578051636261736560e01b83820190815290612c178160048401612b8e565b5190208414612c96578051663837b63cb3b7b760c91b83820190815290612c418160078401612b8e565b5190208414612c8d57612c7a90519182019282612c6e85600990686176616c616e63686560b81b81520190565b0390810183528261029e565b51902014612c8757600190565b61a86a90565b50505050608990565b5050505061210590565b50505050600a90565b5050505061a4b190565b50505050600190565b8015612d3e576000818181805b612d265750612cd781612970565b935b612ce35750505090565b612cec906117a5565b90600a90612d11612d01612659848406612314565b60f81b6001600160f81b03191690565b841a612d1d8487612873565b53049081612cd9565b9150612d33600a9161182b565b910480849291612cc9565b50604051612d4b8161024d565b60018152600360fc1b602082015290565b815115612d695760a00152565b60405163fe936cb760e01b8152600490fd5b60405190612d888261024d565b600c82526b31b7b232a637b1b0ba34b7b760a11b6020830152565b634e487b7160e01b600052602160045260246000fd5b60031115612dc357565b612da3565b60405190612dd58261024d565b60088252676c616e677561676560c01b6020830152565b60011115612dc357565b60405190612e038261024d565b6006825265736f7572636560d01b6020830152565b60405190612e258261024d565b60048252636172677360e01b6020830152565b60405190612e458261024d565b600f82526e39b2b1b932ba39a637b1b0ba34b7b760891b6020830152565b60405190612e708261024d565b60078252667365637265747360c81b6020830152565b60405190612e938261024d565b600982526862797465734172677360b81b6020830152565b612eb36131cf565b90612ec5612ebf612d7b565b8361321f565b612ee28151612ed381612db9565b612edc81612db9565b836132e1565b612eed612ebf612dc8565b612f076040820151612efe81612dec565b612edc81612dec565b612f12612ebf612df6565b612f2060608201518361321f565b60a08101805151613020575b506080810190815151612fa0575b60c0915001805151612f4d575b50515190565b91612f59612ebf612e86565b612f6282613382565b60005b83518051821015612f8d5790612f87612f8082600194611c41565b518561349b565b01612f65565b50509150612f9a8161340e565b38612f47565b602081018051612faf81612db9565b612fb881612db9565b1561300e5760c092612ff161300992612fd8612fd2612e38565b8861321f565b51612fe281612db9565b612feb81612db9565b866132e1565b613002612ffc612e63565b8661321f565b518461349b565b612f3a565b60405163a80d31f760e01b8152600490fd5b9261303261302c612e18565b8461321f565b61303b83613382565b60005b84518051821015613066579061306061305982600194611c41565b518661321f565b0161303e565b505092506130738261340e565b38612f2c565b92906020926001600160401b039263ffffffff6130b8604051978896879663230e93b160e11b885216600487015260a0602487015260a4860190610568565b60016044860152921660648401526084830152038160007f00000000000000000000000000000000000000000000000000000000000000006001600160a01b03165af190811561100657600091613134575b50807f1131472297a800fee664d1d89cfa8f7676ff07189ecc53f80bbb5f4969099db8600080a290565b61314d915060203d602011610fff57610ff7818361029e565b3861310a565b6040519063125fa26760e31b6020830152511515602482015260248152606081018181106001600160401b038211176102485760405290565b8151156131a3576000808252604082015260600152565b6040516322ce3edd60e01b8152600490fd5b604051906131c28261024d565b6000602083606081520152565b6040516131db8161024d565b6131e36131b5565b80825260208201600081526131f66131b5565b50610100602083015260405180925260008252610120820191821061033a576000916040525290565b81516132639291906001600160401b03811690601782116132665761324e9150606060ff845192161790613969565b505b519061325a6131b5565b50805191613b99565b50565b5060ff811161328b576132859061327d8351613770565b508251613b25565b50613250565b61ffff81116132aa57613285906132a2835161370b565b508251613ab7565b63ffffffff81116132cb57613285906132c383516136a6565b508251613a47565b613285906132d98351613636565b5082516139d4565b908151916132ed6131b5565b5082515160018101908181116108ef576020850151811015613346575b60c260206102cc965192830101538051821161333e575b5050604051916020830152602082526133398261024d565b61349b565b523880613321565b8160011b94828604600214831517156108ef576020816133786102cc9861337160c29551918461351f565b5082613571565b509650505061330a565b80519061338d6131b5565b5081515160018101908181116108ef5760208401518110156133db575b609f60208095519283010153805182116133d3575b505001805190600182018092116108ef5752565b5238806133bf565b8160011b93828504600214831517156108ef576020816134048297613371609f9551918461351f565b50955050506133aa565b8051906134196131b5565b5081515160018101908181116108ef576020840151811015613468575b60ff6020809551928301015380518211613460575b50500180516000198101919082116108ef5752565b52388061344b565b8160011b93828504600214831517156108ef57602081613491829761337160ff9551918461351f565b5095505050613436565b81516132639291906001600160401b03811690601782116134ca5761324e9150604060ff845192161790613969565b5060ff81116134e1576132859061327d8351613904565b61ffff81116134f857613285906132a2835161389f565b63ffffffff811161351157613285906132c3835161383a565b613285906132d983516137d5565b906135286131b5565b50601f811680613557575b508060208301526040519081835260008252810160200190811061033a5760405290565b602003602081116108ef5781018091116108ef5738613533565b9061357a6131b5565b508051906135866131b5565b506135948151831115613b92565b825151916135a28184612330565b6020926020860151821161361f575b602091865183815197820101968211613617575b505001915b808210156135ef5750600019906020036101000a019081199051169082511617905290565b90919261360b6136056136119286518152612322565b94612322565b926117b4565b906135ca565b5238806135c5565b61363161362b83611ca3565b87613c45565b6135b1565b61363e6131b5565b5080515160018101908181116108ef576020830151811015613677575b607b6020845192830101538051821161367357505090565b5290565b8160011b828104600214831517156108ef576136a0906136998551918661351f565b5084613571565b5061365b565b6136ae6131b5565b5080515160018101908181116108ef5760208301518110156136e3575b607a6020845192830101538051821161367357505090565b8160011b828104600214831517156108ef57613705906136998551918661351f565b506136cb565b6137136131b5565b5080515160018101908181116108ef576020830151811015613748575b60796020845192830101538051821161367357505090565b8160011b828104600214831517156108ef5761376a906136998551918661351f565b50613730565b6137786131b5565b5080515160018101908181116108ef5760208301518110156137ad575b60786020845192830101538051821161367357505090565b8160011b828104600214831517156108ef576137cf906136998551918661351f565b50613795565b6137dd6131b5565b5080515160018101908181116108ef576020830151811015613812575b605b6020845192830101538051821161367357505090565b8160011b828104600214831517156108ef57613834906136998551918661351f565b506137fa565b6138426131b5565b5080515160018101908181116108ef576020830151811015613877575b605a6020845192830101538051821161367357505090565b8160011b828104600214831517156108ef57613899906136998551918661351f565b5061385f565b6138a76131b5565b5080515160018101908181116108ef5760208301518110156138dc575b60596020845192830101538051821161367357505090565b8160011b828104600214831517156108ef576138fe906136998551918661351f565b506138c4565b61390c6131b5565b5080515160018101908181116108ef576020830151811015613941575b60586020845192830101538051821161367357505090565b8160011b828104600214831517156108ef57613963906136998551918661351f565b50613929565b906139726131b5565b5081515160018101918282116108ef5760208401518210156139a5575b6020845192830101538051821161367357505090565b8260011b838104600214841517156108ef576139ce906139c78651918761351f565b5085613571565b5061398f565b906139dd6131b5565b508151518060080191826008116108ef5760208401518311613a1f575b6008845192830101906001600160401b03198251161790528051821161367357505090565b8260011b838104600214841517156108ef57613a41906139c78651918761351f565b506139fa565b90613a506131b5565b508151518060040191826004116108ef5760208401518311613a8f575b60048451928301019063ffffffff198251161790528051821161367357505090565b8260011b838104600214841517156108ef57613ab1906139c78651918761351f565b50613a6d565b90613ac06131b5565b508151518060020191826002116108ef5760208401518311613afd575b60028451928301019061ffff198251161790528051821161367357505090565b8260011b838104600214841517156108ef57613b1f906139c78651918761351f565b50613add565b90613b2e6131b5565b508151518060010191826001116108ef5760208401518311613b6a575b60018451928301019060ff198251161790528051821161367357505090565b8260011b838104600214841517156108ef57613b8c906139c78651918761351f565b50613b4b565b1561033a57565b9190613ba36131b5565b50613bb18151831115613b92565b825151916020613bc18285612330565b928193828701518111613c2e575b865183815197820101968211613c26575b505001915b80821015613c0a5750600019906020036101000a019081199051169082511617905290565b90919261360b613605613c209286518152612322565b90613be5565b523880613be0565b613c40613c3a82611ca3565b88613c45565b613bcf565b9061326391613c568151928261351f565b5061357156fed7b6990105719101dabeb77144f2a3385c8033acd3af97e9423a695e81ad1eb5a26469706673582212207dd515c8a9916e78fec96916fc9ccf3a3e4b5327b351c0cf51f2785575e9ead564736f6c63430008180033",
  "linkReferences": {},
  "deployedLinkReferences": {}
}