{
  "_format": "hh-sol-artifact-1",
  "contractName": "CrossChainVerifier",
  "sourceName": "contracts/CrossChainVerifier.sol",
  "abi": [
    {
      "inputs": [
        {
          "internalType": "address",
          "name": "_router",
          "type": "address"
        },
        {
          "internalType": "address",
          "name": "_link",
          "type": "address"
        },
        {
          "internalType": "address",
          "name": "_zkAggregator",
          "type": "address"
        }
      ],
      "stateMutability": "nonpayable",
      "type": "constructor"
    },
    {
      "inputs": [
        {
          "internalType": "uint64",
          "name": "destinationChainSelector",
          "type": "uint64"
        }
      ],
      "name": "DestinationChainNotAllowlisted",
      "type": "error"
    },
    {
      "inputs": [
        {
          "internalType": "address",
          "name": "owner",
          "type": "address"
        },
        {
          "internalType": "address",
          "name": "target",
          "type": "address"
        },
        {
          "internalType": "uint256",
          "name": "value",
          "type": "uint256"
        }
      ],
      "name": "FailedToWithdrawEth",
      "type": "error"
    },
    {
      "inputs": [],
      "name": "InvalidProofData",
      "type": "error"
    },
    {
      "inputs": [
        {
          "internalType": "address",
          "name": "router",
          "type": "address"
        }
      ],
      "name": "InvalidRouter",
      "type": "error"
    },
    {
      "inputs": [
        {
          "internalType": "uint256",
          "name": "currentBalance",
          "type": "uint256"
        },
        {
          "internalType": "uint256",
          "name": "calculatedFees",
          "type": "uint256"
        }
      ],
      "name": "NotEnoughBalance",
      "type": "error"
    },
    {
      "inputs": [],
      "name": "NothingToWithdraw",
      "type": "error"
    },
    {
      "inputs": [
        {
          "internalType": "address",
          "name": "sender",
          "type": "address"
        }
      ],
      "name": "SenderNotAllowlisted",
      "type": "error"
    },
    {
      "inputs": [
        {
          "internalType": "uint64",
          "name": "sourceChainSelector",
          "type": "uint64"
        }
      ],
      "name": "SourceChainNotAllowlisted",
      "type": "error"
    },
    {
      "anonymous": false,
      "inputs": [
        {
          "indexed": true,
          "internalType": "bytes32",
          "name": "messageId",
          "type": "bytes32"
        },
        {
          "indexed": true,
          "internalType": "uint64",
          "name": "sourceChainSelector",
          "type": "uint64"
        },
        {
          "indexed": true,
          "internalType": "address",
          "name": "sender",
          "type": "address"
        },
        {
          "indexed": false,
          "internalType": "bytes32",
          "name": "stateRoot",
          "type": "bytes32"
        }
      ],
      "name": "ProofReceivedCrossChain",
      "type": "event"
    },
    {
      "anonymous": false,
      "inputs": [
        {
          "indexed": true,
          "internalType": "bytes32",
          "name": "messageId",
          "type": "bytes32"
        },
        {
          "indexed": true,
          "internalType": "uint64",
          "name": "destinationChainSelector",
          "type": "uint64"
        },
        {
          "indexed": true,
          "internalType": "address",
          "name": "receiver",
          "type": "address"
        },
        {
          "indexed": false,
          "internalType": "bytes32",
          "name": "stateRoot",
          "type": "bytes32"
        },
        {
          "indexed": false,
          "internalType": "uint256",
          "name": "feesPaid",
          "type": "uint256"
        }
      ],
      "name": "ProofSentCrossChain",
      "type": "event"
    },
    {
      "anonymous": false,
      "inputs": [
        {
          "indexed": true,
          "internalType": "bytes32",
          "name": "stateRoot",
          "type": "bytes32"
        },
        {
          "indexed": false,
          "internalType": "uint64",
          "name": "sourceChain",
          "type": "uint64"
        },
        {
          "indexed": false,
          "internalType": "bool",
          "name": "isValid",
          "type": "bool"
        }
      ],
      "name": "StateRootVerified",
      "type": "event"
    },
    {
      "inputs": [
        {
          "internalType": "uint64",
          "name": "_destinationChainSelector",
          "type": "uint64"
        },
        {
          "internalType": "bool",
          "name": "allowed",
          "type": "bool"
        }
      ],
      "name": "allowlistDestinationChain",
      "outputs": [],
      "stateMutability": "nonpayable",
      "type": "function"
    },
    {
      "inputs": [
        {
          "internalType": "address",
          "name": "_sender",
          "type": "address"
        },
        {
          "internalType": "bool",
          "name": "allowed",
          "type": "bool"
        }
      ],
      "name": "allowlistSender",
      "outputs": [],
      "stateMutability": "nonpayable",
      "type": "function"
    },
    {
      "inputs": [
        {
          "internalType": "uint64",
          "name": "_sourceChainSelector",
          "type": "uint64"
        },
        {
          "internalType": "bool",
          "name": "allowed",
          "type": "bool"
        }
      ],
      "name": "allowlistSourceChain",
      "outputs": [],
      "stateMutability": "nonpayable",
      "type": "function"
    },
    {
      "inputs": [
        {
          "internalType": "uint64",
          "name": "",
          "type": "uint64"
        }
      ],
      "name": "allowlistedDestinationChains",
      "outputs": [
        {
          "internalType": "bool",
          "name": "",
          "type": "bool"
        }
      ],
      "stateMutability": "view",
      "type": "function"
    },
    {
      "inputs": [
        {
          "internalType": "address",
          "name": "",
          "type": "address"
        }
      ],
      "name": "allowlistedSenders",
      "outputs": [
        {
          "internalType": "bool",
          "name": "",
          "type": "bool"
        }
      ],
      "stateMutability": "view",
      "type": "function"
    },
    {
      "inputs": [
        {
          "internalType": "uint64",
          "name": "",
          "type": "uint64"
        }
      ],
      "name": "allowlistedSourceChains",
      "outputs": [
        {
          "internalType": "bool",
          "name": "",
          "type": "bool"
        }
      ],
      "stateMutability": "view",
      "type": "function"
    },
    {
      "inputs": [
        {
          "components": [
            {
              "internalType": "bytes32",
              "name": "messageId",
              "type": "bytes32"
            },
            {
              "internalType": "uint64",
              "name": "sourceChainSelector",
              "type": "uint64"
            },
            {
              "internalType": "bytes",
              "name": "sender",
              "type": "bytes"
            },
            {
              "internalType": "bytes",
              "name": "data",
              "type": "bytes"
            },
            {
              "components": [
                {
                  "internalType": "address",
                  "name": "token",
                  "type": "address"
                },
                {
                  "internalType": "uint256",
                  "name": "amount",
                  "type": "uint256"
                }
              ],
              "internalType": "struct Client.EVMTokenAmount[]",
              "name": "destTokenAmounts",
              "type": "tuple[]"
            }
          ],
          "internalType": "struct Client.Any2EVMMessage",
          "name": "message",
          "type": "tuple"
        }
      ],
      "name": "ccipReceive",
      "outputs": [],
      "stateMutability": "nonpayable",
      "type": "function"
    },
    {
      "inputs": [],
      "name": "gasLimit",
      "outputs": [
        {
          "internalType": "uint256",
          "name": "",
          "type": "uint256"
        }
      ],
      "stateMutability": "view",
      "type": "function"
    },
    {
      "inputs": [
        {
          "internalType": "bytes32",
          "name": "proofId",
          "type": "bytes32"
        }
      ],
      "name": "getReceivedProof",
      "outputs": [
        {
          "components": [
            {
              "internalType": "bytes32",
              "name": "stateRoot",
              "type": "bytes32"
            },
            {
              "internalType": "uint256",
              "name": "blockNumber",
              "type": "uint256"
            },
            {
              "internalType": "string",
              "name": "sourceChain",
              "type": "string"
            },
            {
              "internalType": "bytes",
              "name": "zkProof",
              "type": "bytes"
            },
            {
              "internalType": "bytes",
              "name": "publicInputs",
              "type": "bytes"
            },
            {
              "internalType": "uint256",
              "name": "timestamp",
              "type": "uint256"
            }
          ],
          "internalType": "struct CrossChainVerifier.CrossChainProof",
          "name": "",
          "type": "tuple"
        }
      ],
      "stateMutability": "view",
      "type": "function"
    },
    {
      "inputs": [],
      "name": "getRouter",
      "outputs": [
        {
          "internalType": "address",
          "name": "",
          "type": "address"
        }
      ],
      "stateMutability": "view",
      "type": "function"
    },
    {
      "inputs": [
        {
          "internalType": "bytes32",
          "name": "stateRoot",
          "type": "bytes32"
        }
      ],
      "name": "isCrossChainStateVerified",
      "outputs": [
        {
          "internalType": "bool",
          "name": "",
          "type": "bool"
        }
      ],
      "stateMutability": "view",
      "type": "function"
    },
    {
      "inputs": [],
      "name": "owner",
      "outputs": [
        {
          "internalType": "address",
          "name": "",
          "type": "address"
        }
      ],
      "stateMutability": "view",
      "type": "function"
    },
    {
      "inputs": [
        {
          "internalType": "bytes32",
          "name": "",
          "type": "bytes32"
        }
      ],
      "name": "receivedProofs",
      "outputs": [
        {
          "internalType": "bytes32",
          "name": "stateRoot",
          "type": "bytes32"
        },
        {
          "internalType": "uint256",
          "name": "blockNumber",
          "type": "uint256"
        },
        {
          "internalType": "string",
          "name": "sourceChain",
          "type": "string"
        },
        {
          "internalType": "bytes",
          "name": "zkProof",
          "type": "bytes"
        },
        {
          "internalType": "bytes",
          "name": "publicInputs",
          "type": "bytes"
        },
        {
          "internalType": "uint256",
          "name": "timestamp",
          "type": "uint256"
        }
      ],
      "stateMutability": "view",
      "type": "function"
    },
    {
      "inputs": [
        {
          "internalType": "string",
          "name": "sourceChain",
          "type": "string"
        },
        {
          "internalType": "uint256",
          "name": "blockNumber",
          "type": "uint256"
        }
      ],
      "name": "requestCrossChainVerification",
      "outputs": [
        {
          "internalType": "uint256",
          "name": "requestId",
          "type": "uint256"
        }
      ],
      "stateMutability": "nonpayable",
      "type": "function"
    },
    {
      "inputs": [
        {
          "internalType": "uint64",
          "name": "destinationChainSelector",
          "type": "uint64"
        },
        {
          "internalType": "address",
          "name": "receiver",
          "type": "address"
        },
        {
          "internalType": "bytes32",
          "name": "stateRoot",
          "type": "bytes32"
        },
        {
          "internalType": "bytes",
          "name": "zkProof",
          "type": "bytes"
        },
        {
          "internalType": "bytes",
          "name": "publicInputs",
          "type": "bytes"
        },
        {
          "internalType": "uint256",
          "name": "blockNumber",
          "type": "uint256"
        },
        {
          "internalType": "string",
          "name": "sourceChain",
          "type": "string"
        }
      ],
      "name": "sendProofCrossChain",
      "outputs": [
        {
          "internalType": "bytes32",
          "name": "messageId",
          "type": "bytes32"
        }
      ],
      "stateMutability": "nonpayable",
      "type": "function"
    },
    {
      "inputs": [
        {
          "internalType": "uint256",
          "name": "_gasLimit",
          "type": "uint256"
        }
      ],
      "name": "setGasLimit",
      "outputs": [],
      "stateMutability": "nonpayable",
      "type": "function"
    },
    {
      "inputs": [
        {
          "internalType": "address",
          "name": "_zkAggregator",
          "type": "address"
        }
      ],
      "name": "setZKAggregator",
      "outputs": [],
      "stateMutability": "nonpayable",
      "type": "function"
    },
    {
      "inputs": [
        {
          "internalType": "bytes4",
          "name": "interfaceId",
          "type": "bytes4"
        }
      ],
      "name": "supportsInterface",
      "outputs": [
        {
          "internalType": "bool",
          "name": "",
          "type": "bool"
        }
      ],
      "stateMutability": "view",
      "type": "function"
    },
    {
      "inputs": [
        {
          "internalType": "bytes32",
          "name": "",
          "type": "bytes32"
        }
      ],
      "name": "verifiedCrossChainStates",
      "outputs": [
        {
          "internalType": "bool",
          "name": "",
          "type": "bool"
        }
      ],
      "stateMutability": "view",
      "type": "function"
    },
    {
      "inputs": [
        {
          "internalType": "address",
          "name": "_beneficiary",
          "type": "address"
        }
      ],
      "name": "withdraw",
      "outputs": [],
      "stateMutability": "nonpayable",
      "type": "function"
    },
    {
      "inputs": [
        {
          "internalType": "address",
          "name": "_beneficiary",
          "type": "address"
        },
        {
          "internalType": "address",
          "name": "_token",
          "type": "address"
        }
      ],
      "name": "withdrawToken",
      "outputs": [],
      "stateMutability": "nonpayable",
      "type": "function"
    },
    {
      "stateMutability": "payable",
      "type": "receive"
    }
  ],
  "bytecode": "0x60a034620000f457601f62001c6038819003918201601f19168301916001600160401b03831184841017620000f957808492606094604052833981010312620000f4576200004d816200010f565b62000069604062000061602085016200010f565b93016200010f565b6001600160a01b03828116939092908415620000db5783916080526207a12060095560018060a01b031994338660085416176008558560005416176000551683600154161760015516906002541617600255604051611b3b908162000125823960805181818161076a015261092e0152f35b6040516335fdcccd60e21b815260006004820152602490fd5b600080fd5b634e487b7160e01b600052604160045260246000fd5b51906001600160a01b0382168203620000f45756fe608080604052600436101561001d575b50361561001b57600080fd5b005b60003560e01c90816301ffc9a7146115515750806311d7360e1461148a5780631aa085e91461115e57806339e69b9e146114395780633aeac4e1146112965780634030d5211461125757806351cff8d9146111ce5780636159ada11461118f5780636592a3971461115e5780637022a6561461109f57806375c67c661461106057806385572ffb146108fc5780638da5cb5b146108d357806396d3b83d146108725780639eda123314610799578063b0f479a114610754578063c3b0b10014610221578063db04fa49146101c0578063eab5b02c14610162578063ee7d72b4146101345763f68016b714610111573861000f565b3461012f57600036600319011261012f576020600954604051908152f35b600080fd5b3461012f57602036600319011261012f5761015a60018060a01b0360085416331461184e565b600435600955005b3461012f57604036600319011261012f5761001b61017e61172e565b6101866117d2565b60085490916001600160a01b03916101a1908316331461184e565b16600052600560205260406000209060ff801983541691151516179055565b3461012f57604036600319011261012f5761001b6101dc61175a565b6001600160401b036101ec6117d2565b9161020260018060a01b0360085416331461184e565b16600052600460205260406000209060ff801983541691151516179055565b3461012f5760e036600319011261012f5761023a61175a565b610242611744565b6001600160401b039160643583811161012f5761026390369060040161178b565b9160843584811161012f5761027c90369060040161178b565b9260c43585811161012f5761029590369060040161178b565b858416600052600360205260ff604060002054161561073a5760025460405163a9431f2360e01b8152604435600482015290602090829060249082906001600160a01b03165afa9081156105a25760009161071b575b50156106d657610337946103459260405192610306846116aa565b604435845260a43560208501526040840152606083015260808201524260a0820152604051948591602083016117e1565b03601f1981018552846116c5565b6040516001600160a01b0382166020808301919091528152906103678261168f565b60405160208101818110878211176106c05760405260008152600954946040519560208701878110898211176106c0576040528652604051956397a657c960e01b602088015251602487015260248652856060810110876060880111176106c0576060860160408190526001546001600160a01b031694906103e890611674565b6060870152608086015260a08501528160c08501528360e081015260018060a01b036000541691604051926320487ded60e01b84526020848061043260608a0189600484016118d3565b0381845afa9384156105a25760009461068c575b506040516370a0823160e01b8152306004820152602081602481865afa9081156105a25760009161065a575b5084116105db5760405163095ea7b360e01b81526001600160a01b039190911660048201526024810184905290602090829060449082906000905af180156105a2576104f0956020926060926105ae575b5060018060a01b03600054169060006040518099819582946396f4e9f960e01b8452018a600484016118d3565b03925af19384156105a25760009461054c575b507fd24d011fd9cc44c10f59cd2aa572f402b8a52354aaec6a751f004bfd026e721f6040602096869382519560443587528987015260018060a01b0316951693a4604051908152f35b9493506020853d60201161059a575b81610568602093836116c5565b8101031261012f57935192937fd24d011fd9cc44c10f59cd2aa572f402b8a52354aaec6a751f004bfd026e721f610503565b3d915061055b565b6040513d6000823e3d90fd5b6105cd90843d86116105d4575b6105c581836116c5565b8101906118bb565b50886104c3565b503d6105bb565b6040516370a0823160e01b815230600482015284602082602481875afa9081156105a257600091610625575b6044925060405191634787a10360e11b835260048301526024820152fd5b90506020823d602011610652575b81610640602093836116c5565b8101031261012f576044915190610607565b3d9150610633565b90506020813d602011610684575b81610675602093836116c5565b8101031261012f575188610472565b3d9150610668565b9093506020813d6020116106b8575b816106a8602093836116c5565b8101031261012f57519287610446565b3d915061069b565b634e487b7160e01b600052604160045260246000fd5b60405162461bcd60e51b815260206004820152601a60248201527f5374617465206e6f74207665726966696564206c6f63616c6c790000000000006044820152606490fd5b610734915060203d6020116105d4576105c581836116c5565b876102eb565b604051630a503cdb60e01b81528685166004820152602490fd5b3461012f57600036600319011261012f576040517f00000000000000000000000000000000000000000000000000000000000000006001600160a01b03168152602090f35b3461012f57602036600319011261012f57600060a06040516107ba816116aa565b82815282602082015260606040820152606080820152606060808201520152600435600052600660205261086e60406000206005604051916107fb836116aa565b80548352600181015460208401526040516108248161081d81600286016115de565b03826116c5565b604084015260405161083d8161081d81600386016115de565b60608401526040516108568161081d81600486016115de565b6080840152015460a0820152604051918291826117e1565b0390f35b3461012f57604036600319011261012f5761001b61088e61175a565b6001600160401b0361089e6117d2565b916108b460018060a01b0360085416331461184e565b16600052600360205260406000209060ff801983541691151516179055565b3461012f57600036600319011261012f576008546040516001600160a01b039091168152602090f35b3461012f5760031960203682011261012f57600435906001600160401b03821161012f5760a090823603011261012f577f00000000000000000000000000000000000000000000000000000000000000006001600160a01b03163303611048576040519061096982611674565b8060040135825260248101356001600160401b038116810361012f57602083015260448101356001600160401b03811161012f576109ad906004369184010161178b565b604083015260648101356001600160401b03811161012f576109d5906004369184010161178b565b90606083019182526084810135906001600160401b03821161012f57013660238201121561012f5760048101356001600160401b0381116106c05760405191610a2460208360051b01846116c5565b8183526024602084019260061b8201019036821161012f57602401915b8183106110035750505060808301526001600160401b036020830151166040830151610a7d60018060a01b0391602080825183010191016119a2565b169080600052600460205260ff6040600020541615610feb575080600052600560205260ff6040600020541615610fd35750518051810190602082019060208184031261012f5760208101516001600160401b03811161012f5760c091018093031261012f5760405191610af0836116aa565b602081015183526040810151916020840192835260608201516001600160401b03811161012f57820181603f8201121561012f57818160406020610b3794015191016119c1565b916040850192835260808101516001600160401b03811161012f57826020610b61928401016119f8565b606086015260a08101516001600160401b03811161012f5760c0926020610b8a928401016119f8565b6080860152015160a08401528251158015610fc6575b610fb45782518251610be56060845192604051938491602083019687526040830152610bd581518092602086860191016116e6565b81010360408101845201826116c5565b519020600052600660205260406000209183518355516001830155519283516001600160401b0381116106c057610c2c81610c2360028601546115a4565b60028601611a12565b6020601f8211600114610f45578190610c5f93949596600092610ecb575b50508160011b916000199060031b1c19161790565b60028301555b60608301519283516001600160401b0381116106c057610c9581610c8c60038701546115a4565b60038701611a12565b6020601f8211600114610ed6578190610cc793949596600092610ecb5750508160011b916000199060031b1c19161790565b60038401555b60808101519283516001600160401b0381116106c057610cfd81610cf460048501546115a4565b60048501611a12565b6020601f8211600114610e3657816040949392610d53927f638c579281e44698e0cc287aa3ad3ce7a456e85d1a9ffb7746036276209777e89798600092610e2b5750508160011b916000199060031b1c19161790565b60048201555b600560a083015191015560608101515115159081610e1c575b81610e11575b60206001600160401b039183610df4575b8651838389015116610da6878a01518580825183010191016119a2565b835188519081526001600160a01b0390911692907f64d3b1ca9f4857519ff113b7722b497c8b83d396da9eeb756425d852abd7b15b908690a4519501511690825191825215156020820152a2005b80516000526007825284600020600160ff19825416179055610d89565b805115159150610d78565b60808101515115159150610d72565b015190508880610c4a565b6004830160005260206000209560005b601f1984168110610eb35750917f638c579281e44698e0cc287aa3ad3ce7a456e85d1a9ffb7746036276209777e89596600192604096959483601f19811610610e9a575b505050811b016004820155610d59565b015160001960f88460031b161c19169055878080610e8a565b82820151885560019097019660209283019201610e46565b015190508680610c4a565b6003850160005260206000209060005b601f1984168110610f2d575060019394959683601f19811610610f14575b505050811b016003840155610ccd565b015160001960f88460031b161c19169055858080610f04565b9091602060018192858b015181550193019101610ee6565b6002840160005260206000209060005b601f1984168110610f9c575060019394959683601f19811610610f83575b505050811b016002830155610c65565b015160001960f88460031b161c19169055858080610f73565b9091602060018192858b015181550193019101610f55565b6040516371f4a19360e11b8152600490fd5b5060608301515115610ba0565b602490604051906338c08ef960e11b82526004820152fd5b602490604051906326bfad9160e21b82526004820152fd5b60408336031261012f576040519061101a8261168f565b8335906001600160a01b038216820361012f5782602092604094528286013583820152815201920191610a41565b6040516335fdcccd60e21b8152336004820152602490fd5b3461012f57602036600319011261012f576001600160401b0361108161175a565b166000526003602052602060ff604060002054166040519015158152f35b3461012f57604036600319011261012f576004356001600160401b03811161012f5760206111066110d6600093369060040161178b565b60018060a01b036002541690604051948580948193632bf7f01960e11b8352604060048401526044830190611709565b602435602483015203925af180156105a25760009061112b575b602090604051908152f35b506020813d602011611156575b81611145602093836116c5565b8101031261012f5760209051611120565b3d9150611138565b3461012f57602036600319011261012f576004356000526007602052602060ff604060002054166040519015158152f35b3461012f57602036600319011261012f576001600160a01b036111b061172e565b166000526005602052602060ff604060002054166040519015158152f35b3461012f57602036600319011261012f576111e761172e565b6008546001600160a01b039190611201908316331461184e565b47801561124557600080808084865af161121961188b565b501561122157005b60649260405192639d11f56360e01b84523360048501521660248301526044820152fd5b604051630686827b60e51b8152600490fd5b3461012f57602036600319011261012f576001600160401b0361127861175a565b166000526004602052602060ff604060002054166040519015158152f35b3461012f57604036600319011261012f576112af61172e565b6112b7611744565b6008546001600160a01b0391906112d1908316331461184e565b16906040516370a0823160e01b81523060048201526020928382602481845afa9182156105a25760009261140a575b5081156112455760405163a9059cbb60e01b8582019081526001600160a01b039490941660248201526044808201939093529182526113929260009081906113496064866116c5565b604051946113568661168f565b8786527f5361666545524332303a206c6f772d6c6576656c2063616c6c206661696c656488870152519082855af161138c61188b565b91611a68565b8051908161139c57005b82806113ac9383010191016118bb565b156113b357005b6084906040519062461bcd60e51b82526004820152602a60248201527f5361666545524332303a204552433230206f7065726174696f6e20646964206e6044820152691bdd081cdd58d8d9595960b21b6064820152fd5b9091508381813d8311611432575b61142281836116c5565b8101031261012f57519084611300565b503d611418565b3461012f57602036600319011261012f5761145261172e565b6008546001600160a01b03919061146c908316331461184e565b166bffffffffffffffffffffffff60a01b6002541617600255600080f35b3461012f57602036600319011261012f57600435600052600660205260406000208054600182015491611547604051916114d2836114cb81600285016115de565b03846116c5565b6115396040516114e98161081d81600387016115de565b61152b60056040519461150a8661150381600485016115de565b03876116c5565b0154956040519889988952602089015260c0604089015260c0880190611709565b908682036060880152611709565b908482036080860152611709565b9060a08301520390f35b3461012f57602036600319011261012f576004359063ffffffff60e01b821680920361012f576020916385572ffb60e01b8114908115611593575b5015158152f35b6301ffc9a760e01b1490508361158c565b90600182811c921680156115d4575b60208310146115be57565b634e487b7160e01b600052602260045260246000fd5b91607f16916115b3565b8054600093926115ed826115a4565b918282526020936001916001811690816000146116555750600114611614575b5050505050565b90939495506000929192528360002092846000945b8386106116415750505050010190388080808061160d565b805485870183015294019385908201611629565b60ff19168685015250505090151560051b01019150388080808061160d565b60a081019081106001600160401b038211176106c057604052565b604081019081106001600160401b038211176106c057604052565b60c081019081106001600160401b038211176106c057604052565b90601f801991011681019081106001600160401b038211176106c057604052565b60005b8381106116f95750506000910152565b81810151838201526020016116e9565b90602091611722815180928185528580860191016116e6565b601f01601f1916010190565b600435906001600160a01b038216820361012f57565b602435906001600160a01b038216820361012f57565b600435906001600160401b038216820361012f57565b6001600160401b0381116106c057601f01601f191660200190565b81601f8201121561012f578035906117a282611770565b926117b060405194856116c5565b8284526020838301011161012f57816000926020809301838601378301015290565b60243590811515820361012f57565b60208152815160208201526020820151604082015260c060a0611845611815604086015184606087015260e0860190611709565b611831606087015191601f199283888303016080890152611709565b906080870151908683030184870152611709565b93015191015290565b1561185557565b60405162461bcd60e51b815260206004820152600e60248201526d139bdd08185d5d1a1bdc9a5e995960921b6044820152606490fd5b3d156118b6573d9061189c82611770565b916118aa60405193846116c5565b82523d6000602084013e565b606090565b9081602091031261012f5751801515810361012f5790565b909291926001600160401b03604091168252602091604083820152611904855160a0604084015260e0830190611709565b916119208487015193603f199485858303016060860152611709565b604087015194848483030160808501528080875193848152019601926000905b83821061197957505050505060c06080611976959660018060a01b0360608201511660a085015201519282850301910152611709565b90565b845180516001600160a01b03168952830151888401529687019693820193600190910190611940565b9081602091031261012f57516001600160a01b038116810361012f5790565b909291926119ce81611770565b916119dc60405193846116c5565b82948284528282011161012f5760206119f69301906116e6565b565b9080601f8301121561012f578151611976926020016119c1565b90601f8111611a2057505050565b6000916000526020600020906020601f850160051c83019410611a5e575b601f0160051c01915b828110611a5357505050565b818155600101611a47565b9092508290611a3e565b91929015611aca5750815115611a7c575090565b3b15611a855790565b60405162461bcd60e51b815260206004820152601d60248201527f416464726573733a2063616c6c20746f206e6f6e2d636f6e74726163740000006044820152606490fd5b825190915015611add5750805190602001fd5b60405162461bcd60e51b815260206004820152908190611b01906024830190611709565b0390fdfea26469706673582212204fbd8a3ed99023ff27eef03631a0eee80939b57fd09c244ba70218c4c311630a64736f6c63430008180033",
  "linkReferences": {},
  "deployedLinkReferences": {}
}