{
  "_format": "hh-sol-artifact-1",
  "contractName": "ProofAggregatorVerifier",
  "sourceName": "contracts/ProofAggregatorVerifier.sol",
  "abi": [
    {
      "inputs": [
        {
          "internalType": "uint256[2]",
          "name": "_pA",
          "type": "uint256[2]"
        },
        {
          "internalType": "uint256[2][2]",
          "name": "_pB",
          "type": "uint256[2][2]"
        },
        {
          "internalType": "uint256[2]",
          "name": "_pC",
          "type": "uint256[2]"
        },
        {
          "internalType": "uint256[15]",
          "name": "_pubSignals",
          "type": "uint256[15]"
        }
      ],
      "name": "verifyProof",
      "outputs": [
        {
          "internalType": "bool",
          "name": "",
          "type": "bool"
        }
      ],
      "stateMutability": "view",
      "type": "function"
    }
  ],
  "bytecode": "0x6080806040523461001657610d55908161001c8239f35b600080fdfe6080604052600436101561001257600080fd5b6000803560e01c63f054a9a31461002857600080fd5b34610131576102e03660031901126101315761004336610134565b3660c41161012d5761005436610146565b90366102e41161012957602092916101259161040060405261007861010435610154565b61008461012435610154565b61009061014435610154565b61009c61016435610154565b6100a861018435610154565b6100b46101a435610154565b6100c06101c435610154565b6100cc6101e435610154565b6100d861020435610154565b6100e461022435610154565b6100f061024435610154565b6100fc61026435610154565b61010861028435610154565b6101146102a435610154565b6101206102c435610154565b61099b565b8152f35b8280fd5b5080fd5b80fd5b9060049160441161014157565b600080fd5b9060c4916101041161014157565b7f30644e72e131a029b85045b68181585d2833e84879b9709143e1f593f0000001111561017d57565b6000805260206000f35b604051907f1ce71df9c27d680ef7e93657f4effb45d11c08784e6f140ef6f28aed70f2f82082527eb654f3603fa29fceac4608ed76d0895b91ca9916ed3641c2f88aff6989fff76020830152604082019081526107cf196040836060816007855a01fa1561017d5760409260066080939284938451905260a05160608401525a01fa1561017d57565b604051907f062bd1e2d2720b48346d392e26c0d8c8684b26b75d45d43c559096459cde2ede82527f0a0c4322bafcda2d570333773642c249890f95bd419c448e4abb8bff17700dc36020830152604082019081526107cf196040836060816007855a01fa1561017d5760409260066080939284938451905260a05160608401525a01fa1561017d57565b604051907f2b6ef10120dac6a29bbdb0baea4e146653bec969f9f1e835fc06e1c0f998766e82527f2956a763a513781fb6315e79df12250ed908bc42ffb8036ebe690fed1917c8d36020830152604082019081526107cf196040836060816007855a01fa1561017d5760409260066080939284938451905260a05160608401525a01fa1561017d57565b604051907f2562d0aebaf13e277a1d1294140e0997a1f735f108b8e0043b47c442be7fdf2382527f01c0a788c9c85d246154833e49fd44748cf36095160b753ba859e20e7ae4a5a36020830152604082019081526107cf196040836060816007855a01fa1561017d5760409260066080939284938451905260a05160608401525a01fa1561017d57565b604051907f2266c842ba516cfbc5f4e5d55092f96f16b53e217b097153d7415b7e54fe270182527f086da516f153eed35259fed783fcad7ad0ea9399b42ce168926f20c0478b8bd56020830152604082019081526107cf196040836060816007855a01fa1561017d5760409260066080939284938451905260a05160608401525a01fa1561017d57565b604051907f1802c72aaa8d2a60e4fb241a493f05a08edca960613343f7aabd651cb714061f82527f292a55cfe4ac6880267fb40d89c1100145b8365bf7d18be95f5101267f3479036020830152604082019081526107cf196040836060816007855a01fa1561017d5760409260066080939284938451905260a05160608401525a01fa1561017d57565b604051907f078d36b2ed20a15a103a4a9fdc0e5dcadc3d99ce6afee31ee4331c1ca3b89bc482527f2f435a5fe556bd3fcf08f426a5719e1fda415359d631cf5075806a052f06a11c6020830152604082019081526107cf196040836060816007855a01fa1561017d5760409260066080939284938451905260a05160608401525a01fa1561017d57565b604051907f0950924cf4dda5756151f5a1bfa8d3d1a383db5478b6b885358fa5290e87059682527f184e7ea956cb5cd6069ad63973ad9d51c1eb3e37d6f30de9235c32f1048040616020830152604082019081526107cf196040836060816007855a01fa1561017d5760409260066080939284938451905260a05160608401525a01fa1561017d57565b604051907f16c9a19b05d0f28d6dc711239009c74886ae76d11ca936920469722852fa6d6182527f2fa073dfbf135208b49ca732b53ca9754d5e8b1cdf19e339780fc17ba390cd7d6020830152604082019081526107cf196040836060816007855a01fa1561017d5760409260066080939284938451905260a05160608401525a01fa1561017d57565b604051907f05580a97f7151b9a91397672b4335b2b4c7a2533facc352d783b9628170e93f082527f15c0cc4d5bfb9cac783e90937e3856bc684d6c80a24ab3a86a536dd58d8e7e6b6020830152604082019081526107cf196040836060816007855a01fa1561017d5760409260066080939284938451905260a05160608401525a01fa1561017d57565b604051907e856b165826fc255b7dae5dd337f2d03c6f37f90b2b7c7a5014a26491f4982b82527f05d9437a6b6f83cbf67859620f4b0760afe46f526def5a1da1c42bd99297e6ae6020830152604082019081526107cf196040836060816007855a01fa1561017d5760409260066080939284938451905260a05160608401525a01fa1561017d57565b604051907f07230f49ac84aed2814e9a660fedd8270836f329ca5a1cd97e616f946d17d34482527f1ef626a778b84c1c6e2c067822e23397769c7229cecd997fdbccd9802dc60d726020830152604082019081526107cf196040836060816007855a01fa1561017d5760409260066080939284938451905260a05160608401525a01fa1561017d57565b604051907f1c7fd77ec44f21810aa54239139390f56fe281549c216a7bcbf981d28191e66482527f2ca548234dc26840acf3701c0f67335dabcfc8b936f2b51f9cf82156ed3844776020830152604082019081526107cf196040836060816007855a01fa1561017d5760409260066080939284938451905260a05160608401525a01fa1561017d57565b604051907f0aadcb7d81841c5a5562dcdb2c7d1c1b83a13673194ad7c4426ca815f3186bb482527f0b292ed8576fda6d92d6fdebf6987358c1e34eba6d3349ca4246c3c14a8dd30e6020830152604082019081526107cf196040836060816007855a01fa1561017d5760409260066080939284938451905260a05160608401525a01fa1561017d57565b604051907f2a46954138075d6639b27337794636b51e9896745ab02eca5b309e6bcaaa42fb82527f1686f5d70da4b4931f3acdbf031d52091ff977e205272ca27f306742131f9cb46020830152604082019081526107cf196040836060816007855a01fa1561017d5760409260066080939284938451905260a05160608401525a01fa1561017d57565b6020907f1237eac99a05b172c3f10479dc7225777e63ddee166050a68a5f9e18e16464c26080527f0de082c81e6ad751a728c3d21ebbccec89f875b6157895b6cc53d32be666760d60a0526109f261010435610187565b6109fe61012435610210565b610a0a6101443561029a565b610a1661016435610324565b610a22610184356103ae565b610a2e6101a435610438565b610a3a6101c4356104c2565b610a466101e43561054c565b610a52610204356105d6565b610a5e61022435610660565b610a6a610244356106ea565b610a7661026435610773565b610a82610284356107fd565b610a8e6102a435610887565b610a9a6102c435610911565b61010092818492358352837f30644e72e131a029b85045b68181585d97816a916871ca8d3c208c16d87cfd479101358103066101205260443561014052606435610160526084356101805260a4356101a0527f2d4d9aa7e302d9df41749d5507949d05dbea33fbb16c643b22f599a2be6df2e26101c0527f14bedd503c37ceb061d8ec60209fe345ce89830a19230301f076caff004d19266101e0527f0967032fcbf776d1afc985f88877f182d38480a653f2decaa9794cbc3bf3060c610200527f0e187847ad4c798374d0d6732bf501847dd68bc0e071241e0213bc7fc13db7ab610220527f304cfbd1e08a704a99f5e847d93f8c3caafddec46b7a0d379da69a4d112346a7610240527f1739c1b1a457a8c7313123d24d2f9192f896b7c63eea05a9d57f06547ad0cec8610260526080516102805260a0516102a0527f198e9393920d483a7260bfb731fb5d25f1aa493335a9e71297e485b7aef312c26102c0527f1800deef121f1e76426a00665e5c4479674322d4f75edadd46debd5cd992f6ed6102e05282610300917f090689d0585ff075ec9e99ad690c3395bc4b313370b38ef355acdadcd122975b83527f12c85ea5db8c6deb4aab71808dcb408fe3d1e7690c43d37b4ce6cc0166fa7daa610320528035610340520135610360527f11dc38eb94cb74e29a321871f128f4756650b5f9331914e22abbec4cbe62a360610380527f03e7d1b679dd780608fd0bc30b9b5f72f41aa157218ff9d35a0c1897f14c5a6b6103a0527f2031edce06c623573a9110c056a07002df48b75a0eb3651d768673ada31221a36103c0527f0e22396e0e3034b526f8e5cfef5d1bd95abe0fb9e4e79180335799a1a7cec4d26103e0528160086107cf195a01fa9051169056fea26469706673582212207dd6b7430dd8ad4ef2a6d375af541f9025aa7484c8a6f927e4738b07ce7b739164736f6c63430008180033",
  "linkReferences": {},
  "deployedLinkReferences": {}
}